{
  "_format": "hh-sol-artifact-1",
  "contractName": "TabletopDiceNFT",
  "sourceName": "contracts/Dice.sol",
  "abi": [
    {
      "inputs": [],
      "stateMutability": "nonpayable",
      "type": "constructor"
    },
    {
      "anonymous": false,
      "inputs": [
        {
          "indexed": true,
          "internalType": "address",
          "name": "owner",
          "type": "address"
        },
        {
          "indexed": true,
          "internalType": "address",
          "name": "approved",
          "type": "address"
        },
        {
          "indexed": true,
          "internalType": "uint256",
          "name": "tokenId",
          "type": "uint256"
        }
      ],
      "name": "Approval",
      "type": "event"
    },
    {
      "anonymous": false,
      "inputs": [
        {
          "indexed": true,
          "internalType": "address",
          "name": "owner",
          "type": "address"
        },
        {
          "indexed": true,
          "internalType": "address",
          "name": "operator",
          "type": "address"
        },
        {
          "indexed": false,
          "internalType": "bool",
          "name": "approved",
          "type": "bool"
        }
      ],
      "name": "ApprovalForAll",
      "type": "event"
    },
    {
      "anonymous": false,
      "inputs": [
        {
          "indexed": true,
          "internalType": "address",
          "name": "previousOwner",
          "type": "address"
        },
        {
          "indexed": true,
          "internalType": "address",
          "name": "newOwner",
          "type": "address"
        }
      ],
      "name": "OwnershipTransferred",
      "type": "event"
    },
    {
      "anonymous": false,
      "inputs": [
        {
          "indexed": true,
          "internalType": "address",
          "name": "from",
          "type": "address"
        },
        {
          "indexed": true,
          "internalType": "address",
          "name": "to",
          "type": "address"
        },
        {
          "indexed": true,
          "internalType": "uint256",
          "name": "tokenId",
          "type": "uint256"
        }
      ],
      "name": "Transfer",
      "type": "event"
    },
    {
      "inputs": [
        {
          "internalType": "address",
          "name": "to",
          "type": "address"
        },
        {
          "internalType": "uint256",
          "name": "tokenId",
          "type": "uint256"
        }
      ],
      "name": "approve",
      "outputs": [],
      "stateMutability": "nonpayable",
      "type": "function"
    },
    {
      "inputs": [
        {
          "internalType": "address",
          "name": "owner",
          "type": "address"
        }
      ],
      "name": "balanceOf",
      "outputs": [
        {
          "internalType": "uint256",
          "name": "",
          "type": "uint256"
        }
      ],
      "stateMutability": "view",
      "type": "function"
    },
    {
      "inputs": [
        {
          "internalType": "uint256",
          "name": "tokenId",
          "type": "uint256"
        }
      ],
      "name": "getApproved",
      "outputs": [
        {
          "internalType": "address",
          "name": "",
          "type": "address"
        }
      ],
      "stateMutability": "view",
      "type": "function"
    },
    {
      "inputs": [],
      "name": "getOwnedTokenIds",
      "outputs": [
        {
          "internalType": "uint256[]",
          "name": "",
          "type": "uint256[]"
        }
      ],
      "stateMutability": "view",
      "type": "function"
    },
    {
      "inputs": [
        {
          "internalType": "uint256",
          "name": "tokenId",
          "type": "uint256"
        }
      ],
      "name": "getOwnerOf",
      "outputs": [
        {
          "internalType": "address",
          "name": "",
          "type": "address"
        }
      ],
      "stateMutability": "view",
      "type": "function"
    },
    {
      "inputs": [
        {
          "internalType": "uint256",
          "name": "tokenId",
          "type": "uint256"
        }
      ],
      "name": "getTraits",
      "outputs": [
        {
          "internalType": "string",
          "name": "name",
          "type": "string"
        },
        {
          "internalType": "uint8",
          "name": "sides",
          "type": "uint8"
        },
        {
          "internalType": "string",
          "name": "fgColor",
          "type": "string"
        },
        {
          "internalType": "string",
          "name": "bgColor",
          "type": "string"
        },
        {
          "internalType": "uint8",
          "name": "font",
          "type": "uint8"
        }
      ],
      "stateMutability": "view",
      "type": "function"
    },
    {
      "inputs": [
        {
          "internalType": "address",
          "name": "owner",
          "type": "address"
        },
        {
          "internalType": "address",
          "name": "operator",
          "type": "address"
        }
      ],
      "name": "isApprovedForAll",
      "outputs": [
        {
          "internalType": "bool",
          "name": "",
          "type": "bool"
        }
      ],
      "stateMutability": "view",
      "type": "function"
    },
    {
      "inputs": [
        {
          "internalType": "address",
          "name": "owner",
          "type": "address"
        },
        {
          "internalType": "string",
          "name": "name",
          "type": "string"
        },
        {
          "internalType": "uint8",
          "name": "sides",
          "type": "uint8"
        },
        {
          "internalType": "string",
          "name": "fgColor",
          "type": "string"
        },
        {
          "internalType": "string",
          "name": "bgColor",
          "type": "string"
        },
        {
          "internalType": "uint8",
          "name": "font",
          "type": "uint8"
        }
      ],
      "name": "mintNFT",
      "outputs": [
        {
          "internalType": "uint256",
          "name": "",
          "type": "uint256"
        }
      ],
      "stateMutability": "nonpayable",
      "type": "function"
    },
    {
      "inputs": [],
      "name": "name",
      "outputs": [
        {
          "internalType": "string",
          "name": "",
          "type": "string"
        }
      ],
      "stateMutability": "view",
      "type": "function"
    },
    {
      "inputs": [],
      "name": "owner",
      "outputs": [
        {
          "internalType": "address",
          "name": "",
          "type": "address"
        }
      ],
      "stateMutability": "view",
      "type": "function"
    },
    {
      "inputs": [
        {
          "internalType": "uint256",
          "name": "tokenId",
          "type": "uint256"
        }
      ],
      "name": "ownerOf",
      "outputs": [
        {
          "internalType": "address",
          "name": "",
          "type": "address"
        }
      ],
      "stateMutability": "view",
      "type": "function"
    },
    {
      "inputs": [],
      "name": "renounceOwnership",
      "outputs": [],
      "stateMutability": "nonpayable",
      "type": "function"
    },
    {
      "inputs": [
        {
          "internalType": "uint256",
          "name": "tokenId",
          "type": "uint256"
        },
        {
          "internalType": "uint16",
          "name": "nonce",
          "type": "uint16"
        }
      ],
      "name": "roll",
      "outputs": [
        {
          "internalType": "uint8",
          "name": "",
          "type": "uint8"
        }
      ],
      "stateMutability": "view",
      "type": "function"
    },
    {
      "inputs": [
        {
          "internalType": "address",
          "name": "from",
          "type": "address"
        },
        {
          "internalType": "address",
          "name": "to",
          "type": "address"
        },
        {
          "internalType": "uint256",
          "name": "tokenId",
          "type": "uint256"
        }
      ],
      "name": "safeTransferFrom",
      "outputs": [],
      "stateMutability": "nonpayable",
      "type": "function"
    },
    {
      "inputs": [
        {
          "internalType": "address",
          "name": "from",
          "type": "address"
        },
        {
          "internalType": "address",
          "name": "to",
          "type": "address"
        },
        {
          "internalType": "uint256",
          "name": "tokenId",
          "type": "uint256"
        },
        {
          "internalType": "bytes",
          "name": "_data",
          "type": "bytes"
        }
      ],
      "name": "safeTransferFrom",
      "outputs": [],
      "stateMutability": "nonpayable",
      "type": "function"
    },
    {
      "inputs": [
        {
          "internalType": "address",
          "name": "operator",
          "type": "address"
        },
        {
          "internalType": "bool",
          "name": "approved",
          "type": "bool"
        }
      ],
      "name": "setApprovalForAll",
      "outputs": [],
      "stateMutability": "nonpayable",
      "type": "function"
    },
    {
      "inputs": [
        {
          "internalType": "string",
          "name": "baseURI",
          "type": "string"
        }
      ],
      "name": "setBaseURI",
      "outputs": [],
      "stateMutability": "nonpayable",
      "type": "function"
    },
    {
      "inputs": [
        {
          "internalType": "bytes4",
          "name": "interfaceId",
          "type": "bytes4"
        }
      ],
      "name": "supportsInterface",
      "outputs": [
        {
          "internalType": "bool",
          "name": "",
          "type": "bool"
        }
      ],
      "stateMutability": "view",
      "type": "function"
    },
    {
      "inputs": [],
      "name": "symbol",
      "outputs": [
        {
          "internalType": "string",
          "name": "",
          "type": "string"
        }
      ],
      "stateMutability": "view",
      "type": "function"
    },
    {
      "inputs": [
        {
          "internalType": "address",
          "name": "owner",
          "type": "address"
        }
      ],
      "name": "tokenListOfOwner",
      "outputs": [
        {
          "internalType": "uint16[]",
          "name": "",
          "type": "uint16[]"
        }
      ],
      "stateMutability": "view",
      "type": "function"
    },
    {
      "inputs": [
        {
          "internalType": "address",
          "name": "owner",
          "type": "address"
        },
        {
          "internalType": "uint256",
          "name": "index",
          "type": "uint256"
        }
      ],
      "name": "tokenOfOwnerByIndex",
      "outputs": [
        {
          "internalType": "uint16",
          "name": "",
          "type": "uint16"
        }
      ],
      "stateMutability": "view",
      "type": "function"
    },
    {
      "inputs": [
        {
          "internalType": "uint256",
          "name": "tokenId",
          "type": "uint256"
        }
      ],
      "name": "tokenURI",
      "outputs": [
        {
          "internalType": "string",
          "name": "",
          "type": "string"
        }
      ],
      "stateMutability": "view",
      "type": "function"
    },
    {
      "inputs": [],
      "name": "tokensBurnt",
      "outputs": [
        {
          "internalType": "uint256",
          "name": "",
          "type": "uint256"
        }
      ],
      "stateMutability": "view",
      "type": "function"
    },
    {
      "inputs": [],
      "name": "tokensMinted",
      "outputs": [
        {
          "internalType": "uint256",
          "name": "",
          "type": "uint256"
        }
      ],
      "stateMutability": "view",
      "type": "function"
    },
    {
      "inputs": [],
      "name": "totalSupply",
      "outputs": [
        {
          "internalType": "uint256",
          "name": "",
          "type": "uint256"
        }
      ],
      "stateMutability": "view",
      "type": "function"
    },
    {
      "inputs": [
        {
          "internalType": "address",
          "name": "from",
          "type": "address"
        },
        {
          "internalType": "address",
          "name": "to",
          "type": "address"
        },
        {
          "internalType": "uint256",
          "name": "tokenId",
          "type": "uint256"
        }
      ],
      "name": "transferFrom",
      "outputs": [],
      "stateMutability": "nonpayable",
      "type": "function"
    },
    {
      "inputs": [
        {
          "internalType": "address",
          "name": "newOwner",
          "type": "address"
        }
      ],
      "name": "transferOwnership",
      "outputs": [],
      "stateMutability": "nonpayable",
      "type": "function"
    }
  ],
  "bytecode": "0x60806040523480156200001157600080fd5b506040518060400160405280601b81526020017f506f6c79446963653a204469636520526f6c6c696e67204461707000000000008152506040518060400160405280600881526020017f506f6c79446963650000000000000000000000000000000000000000000000008152506200009e620000926200012660201b60201c565b6200012e60201b60201c565b8160019080519060200190620000b6929190620001f2565b508060029080519060200190620000cf929190620001f2565b5050506040518060400160405280601a81526020017f68747470733a2f2f646963652e7061727461766174652e636f6d000000000000815250600c90805190602001906200011f929190620001f2565b5062000307565b600033905090565b60008060009054906101000a900473ffffffffffffffffffffffffffffffffffffffff169050816000806101000a81548173ffffffffffffffffffffffffffffffffffffffff021916908373ffffffffffffffffffffffffffffffffffffffff1602179055508173ffffffffffffffffffffffffffffffffffffffff168173ffffffffffffffffffffffffffffffffffffffff167f8be0079c531659141344cd1fd0a4f28419497f9722a3daafe3b4186f6b6457e060405160405180910390a35050565b8280546200020090620002a2565b90600052602060002090601f01602090048101928262000224576000855562000270565b82601f106200023f57805160ff191683800117855562000270565b8280016001018555821562000270579182015b828111156200026f57825182559160200191906001019062000252565b5b5090506200027f919062000283565b5090565b5b808211156200029e57600081600090555060010162000284565b5090565b60006002820490506001821680620002bb57607f821691505b60208210811415620002d257620002d1620002d8565b5b50919050565b7f4e487b7100000000000000000000000000000000000000000000000000000000600052602260045260246000fd5b61453280620003176000396000f3fe608060405234801561001057600080fd5b50600436106101a95760003560e01c806370a08231116100f9578063b0d8b51f11610097578063c87b56dd11610071578063c87b56dd146104e2578063e1dc076114610512578063e985e9c514610546578063f2fde38b14610576576101a9565b8063b0d8b51f1461048a578063b88d4fde146104a8578063c6ead8af146104c4576101a9565b80638da5cb5b116100d35780638da5cb5b1461040257806395d89b4114610420578063a22cb4651461043e578063af6f8e7d1461045a576101a9565b806370a0823114610398578063715018a6146103c857806383638710146103d2576101a9565b806324b1887c1161016657806355f804b31161014057806355f804b3146102fe5780636352211e1461031a5780636618196c1461034a5780636de9f32b1461037a576101a9565b806324b1887c146102825780632f745c59146102b257806342842e0e146102e2576101a9565b806301ffc9a7146101ae57806306fdde03146101de578063081812fc146101fc578063095ea7b31461022c57806318160ddd1461024857806323b872dd14610266575b600080fd5b6101c860048036038101906101c39190612d61565b610592565b6040516101d59190613648565b60405180910390f35b6101e6610674565b6040516101f39190613663565b60405180910390f35b61021660048036038101906102119190612ed7565b610706565b604051610223919061359d565b60405180910390f35b61024660048036038101906102419190612d21565b61078b565b005b6102506108a3565b60405161025d91906139c8565b60405180910390f35b610280600480360381019061027b9190612b1c565b6108ba565b005b61029c60048036038101906102979190612c32565b61091a565b6040516102a991906139c8565b60405180910390f35b6102cc60048036038101906102c79190612d21565b6109ef565b6040516102d991906139ad565b60405180910390f35b6102fc60048036038101906102f79190612b1c565b610ab8565b005b61031860048036038101906103139190612dbb565b610ad8565b005b610334600480360381019061032f9190612ed7565b610b6a565b604051610341919061359d565b60405180910390f35b610364600480360381019061035f9190612aaf565b610c1c565b6040516103719190613604565b60405180910390f35b610382610cdb565b60405161038f91906139c8565b60405180910390f35b6103b260048036038101906103ad9190612aaf565b610ce1565b6040516103bf91906139c8565b60405180910390f35b6103d0610d99565b005b6103ec60048036038101906103e79190612ed7565b610e21565b6040516103f9919061359d565b60405180910390f35b61040a610e33565b604051610417919061359d565b60405180910390f35b610428610e5c565b6040516104359190613663565b60405180910390f35b61045860048036038101906104539190612bf2565b610eee565b005b610474600480360381019061046f9190612f04565b610f04565b60405161048191906139e3565b60405180910390f35b610492610f9c565b60405161049f9190613626565b60405180910390f35b6104c260048036038101906104bd9190612b6f565b61104c565b005b6104cc6110ae565b6040516104d991906139c8565b60405180910390f35b6104fc60048036038101906104f79190612ed7565b6110b4565b6040516105099190613663565b60405180910390f35b61052c60048036038101906105279190612ed7565b611141565b60405161053d959493929190613685565b60405180910390f35b610560600480360381019061055b9190612adc565b6111ee565b60405161056d9190613648565b60405180910390f35b610590600480360381019061058b9190612aaf565b611282565b005b60007f80ac58cd000000000000000000000000000000000000000000000000000000007bffffffffffffffffffffffffffffffffffffffffffffffffffffffff1916827bffffffffffffffffffffffffffffffffffffffffffffffffffffffff1916148061065d57507f5b5e139f000000000000000000000000000000000000000000000000000000007bffffffffffffffffffffffffffffffffffffffffffffffffffffffff1916827bffffffffffffffffffffffffffffffffffffffffffffffffffffffff1916145b8061066d575061066c8261137a565b5b9050919050565b60606001805461068390613cdb565b80601f01602080910402602001604051908101604052809291908181526020018280546106af90613cdb565b80156106fc5780601f106106d1576101008083540402835291602001916106fc565b820191906000526020600020905b8154815290600101906020018083116106df57829003601f168201915b5050505050905090565b6000610711826113e4565b610750576040517f08c379a00000000000000000000000000000000000000000000000000000000081526004016107479061388d565b60405180910390fd5b6005600083815260200190815260200160002060009054906101000a900473ffffffffffffffffffffffffffffffffffffffff169050919050565b600061079682610b6a565b90508073ffffffffffffffffffffffffffffffffffffffff168373ffffffffffffffffffffffffffffffffffffffff161415610807576040517f08c379a00000000000000000000000000000000000000000000000000000000081526004016107fe9061390d565b60405180910390fd5b8073ffffffffffffffffffffffffffffffffffffffff16610826611450565b73ffffffffffffffffffffffffffffffffffffffff16148061085557506108548161084f611450565b6111ee565b5b610894576040517f08c379a000000000000000000000000000000000000000000000000000000000815260040161088b9061380d565b60405180910390fd5b61089e8383611458565b505050565b60006009546008546108b59190613bd6565b905090565b6108cb6108c5611450565b82611511565b61090a576040517f08c379a00000000000000000000000000000000000000000000000000000000081526004016109019061392d565b60405180910390fd5b6109158383836115ef565b505050565b6000610924611450565b73ffffffffffffffffffffffffffffffffffffffff16610942610e33565b73ffffffffffffffffffffffffffffffffffffffff1614610998576040517f08c379a000000000000000000000000000000000000000000000000000000000815260040161098f906138ad565b60405180910390fd5b60006109a4600b611856565b90506109ca818b8b8b8b8b8b8b8b600a611864909998979695949392919063ffffffff16565b6109d48b82611aa2565b6109de600b611ac0565b809150509998505050505050505050565b60006109fa83610ce1565b8210610a3b576040517f08c379a0000000000000000000000000000000000000000000000000000000008152600401610a32906138ed565b60405180910390fd5b600760008473ffffffffffffffffffffffffffffffffffffffff1673ffffffffffffffffffffffffffffffffffffffff1681526020019081526020016000208281548110610a8c57610a8b613e74565b5b90600052602060002090601091828204019190066002029054906101000a900461ffff16905092915050565b610ad38383836040518060200160405280600081525061104c565b505050565b610ae0611450565b73ffffffffffffffffffffffffffffffffffffffff16610afe610e33565b73ffffffffffffffffffffffffffffffffffffffff1614610b54576040517f08c379a0000000000000000000000000000000000000000000000000000000008152600401610b4b906138ad565b60405180910390fd5b8181600c9190610b659291906127a8565b505050565b6000806003600084815260200190815260200160002060009054906101000a900473ffffffffffffffffffffffffffffffffffffffff169050600073ffffffffffffffffffffffffffffffffffffffff168173ffffffffffffffffffffffffffffffffffffffff161415610c13576040517f08c379a0000000000000000000000000000000000000000000000000000000008152600401610c0a9061384d565b60405180910390fd5b80915050919050565b6060600760008373ffffffffffffffffffffffffffffffffffffffff1673ffffffffffffffffffffffffffffffffffffffff168152602001908152602001600020805480602002602001604051908101604052809291908181526020018280548015610ccf57602002820191906000526020600020906000905b82829054906101000a900461ffff1661ffff1681526020019060020190602082600101049283019260010382029150808411610c965790505b50505050509050919050565b60085481565b60008073ffffffffffffffffffffffffffffffffffffffff168273ffffffffffffffffffffffffffffffffffffffff161415610d52576040517f08c379a0000000000000000000000000000000000000000000000000000000008152600401610d499061382d565b60405180910390fd5b600460008373ffffffffffffffffffffffffffffffffffffffff1673ffffffffffffffffffffffffffffffffffffffff168152602001908152602001600020549050919050565b610da1611450565b73ffffffffffffffffffffffffffffffffffffffff16610dbf610e33565b73ffffffffffffffffffffffffffffffffffffffff1614610e15576040517f08c379a0000000000000000000000000000000000000000000000000000000008152600401610e0c906138ad565b60405180910390fd5b610e1f6000611ad6565b565b6000610e2c82610b6a565b9050919050565b60008060009054906101000a900473ffffffffffffffffffffffffffffffffffffffff16905090565b606060028054610e6b90613cdb565b80601f0160208091040260200160405190810160405280929190818152602001828054610e9790613cdb565b8015610ee45780601f10610eb957610100808354040283529160200191610ee4565b820191906000526020600020905b815481529060010190602001808311610ec757829003601f168201915b5050505050905090565b610f00610ef9611450565b8383611b9a565b5050565b6000600a73__$3b68987207f559b9bfdbbec8c00268de72$__63d20f53f1909185856040518463ffffffff1660e01b8152600401610f4493929190613976565b60206040518083038186803b158015610f5c57600080fd5b505af4158015610f70573d6000803e3d6000fd5b505050506040513d601f19601f82011682018060405250810190610f949190612f44565b905092915050565b60606000610fa933610ce1565b905060008167ffffffffffffffff811115610fc757610fc6613ea3565b5b604051908082528060200260200182016040528015610ff55781602001602082028036833780820191505090505b50905060005b828110156110435761100d33826109ef565b61ffff1682828151811061102457611023613e74565b5b602002602001018181525050808061103b90613d3e565b915050610ffb565b50809250505090565b61105d611057611450565b83611511565b61109c576040517f08c379a00000000000000000000000000000000000000000000000000000000081526004016110939061392d565b60405180910390fd5b6110a884848484611d07565b50505050565b60095481565b60606110bf826113e4565b6110fe576040517f08c379a00000000000000000000000000000000000000000000000000000000081526004016110f5906138cd565b60405180910390fd5b611106611d63565b61111a83600a611df590919063ffffffff16565b60405160200161112b9291906134ec565b6040516020818303038152906040529050919050565b606060006060806000600a73__$3b68987207f559b9bfdbbec8c00268de72$__6323f5b9fc9091886040518363ffffffff1660e01b815260040161118692919061394d565b60006040518083038186803b15801561119e57600080fd5b505af41580156111b2573d6000803e3d6000fd5b505050506040513d6000823e3d601f19601f820116820180604052508101906111db9190612e08565b9450945094509450945091939590929450565b6000600660008473ffffffffffffffffffffffffffffffffffffffff1673ffffffffffffffffffffffffffffffffffffffff16815260200190815260200160002060008373ffffffffffffffffffffffffffffffffffffffff1673ffffffffffffffffffffffffffffffffffffffff16815260200190815260200160002060009054906101000a900460ff16905092915050565b61128a611450565b73ffffffffffffffffffffffffffffffffffffffff166112a8610e33565b73ffffffffffffffffffffffffffffffffffffffff16146112fe576040517f08c379a00000000000000000000000000000000000000000000000000000000081526004016112f5906138ad565b60405180910390fd5b600073ffffffffffffffffffffffffffffffffffffffff168173ffffffffffffffffffffffffffffffffffffffff16141561136e576040517f08c379a00000000000000000000000000000000000000000000000000000000081526004016113659061374d565b60405180910390fd5b61137781611ad6565b50565b60007f01ffc9a7000000000000000000000000000000000000000000000000000000007bffffffffffffffffffffffffffffffffffffffffffffffffffffffff1916827bffffffffffffffffffffffffffffffffffffffffffffffffffffffff1916149050919050565b60008073ffffffffffffffffffffffffffffffffffffffff166003600084815260200190815260200160002060009054906101000a900473ffffffffffffffffffffffffffffffffffffffff1673ffffffffffffffffffffffffffffffffffffffff1614159050919050565b600033905090565b816005600083815260200190815260200160002060006101000a81548173ffffffffffffffffffffffffffffffffffffffff021916908373ffffffffffffffffffffffffffffffffffffffff160217905550808273ffffffffffffffffffffffffffffffffffffffff166114cb83610b6a565b73ffffffffffffffffffffffffffffffffffffffff167f8c5be1e5ebec7d5bd14f71427d1e84f3dd0314c0f7b2291e5b200ac8c7c3b92560405160405180910390a45050565b600061151c826113e4565b61155b576040517f08c379a0000000000000000000000000000000000000000000000000000000008152600401611552906137ed565b60405180910390fd5b600061156683610b6a565b90508073ffffffffffffffffffffffffffffffffffffffff168473ffffffffffffffffffffffffffffffffffffffff1614806115d557508373ffffffffffffffffffffffffffffffffffffffff166115bd84610706565b73ffffffffffffffffffffffffffffffffffffffff16145b806115e657506115e581856111ee565b5b91505092915050565b8273ffffffffffffffffffffffffffffffffffffffff1661160f82610b6a565b73ffffffffffffffffffffffffffffffffffffffff1614611665576040517f08c379a000000000000000000000000000000000000000000000000000000000815260040161165c9061376d565b60405180910390fd5b600073ffffffffffffffffffffffffffffffffffffffff168273ffffffffffffffffffffffffffffffffffffffff1614156116d5576040517f08c379a00000000000000000000000000000000000000000000000000000000081526004016116cc906137ad565b60405180910390fd5b6116e0838383611ecc565b6116eb600082611458565b6001600460008573ffffffffffffffffffffffffffffffffffffffff1673ffffffffffffffffffffffffffffffffffffffff168152602001908152602001600020600082825461173b9190613bd6565b925050819055506001600460008473ffffffffffffffffffffffffffffffffffffffff1673ffffffffffffffffffffffffffffffffffffffff16815260200190815260200160002060008282546117929190613b4f565b92505081905550816003600083815260200190815260200160002060006101000a81548173ffffffffffffffffffffffffffffffffffffffff021916908373ffffffffffffffffffffffffffffffffffffffff160217905550808273ffffffffffffffffffffffffffffffffffffffff168473ffffffffffffffffffffffffffffffffffffffff167fddf252ad1be2c89b69c2b068fc378daa952ba7f163c4a11628f55a4df523b3ef60405160405180910390a4611851838383611fc4565b505050565b600081600001549050919050565b60008660ff16116118aa576040517f08c379a00000000000000000000000000000000000000000000000000000000081526004016118a1906136ed565b60405180910390fd5b6000600a8760ff16146118be5760006118c1565b60015b90506040518060c001604052808a8a8080601f016020809104026020016040519081016040528093929190818152602001838380828437600081840152601f19601f8201169050808301925050505050505081526020018860ff16815260200187878080601f016020809104026020016040519081016040528093929190818152602001838380828437600081840152601f19601f82011690508083019250505050505050815260200185858080601f016020809104026020016040519081016040528093929190818152602001838380828437600081840152601f19601f8201169050808301925050505050505081526020018360ff1681526020018215158152508b60000160008c815260200190815260200160002060008201518160000190805190602001906119f592919061282e565b5060208201518160010160006101000a81548160ff021916908360ff1602179055506040820151816002019080519060200190611a3392919061282e565b506060820151816003019080519060200190611a5092919061282e565b5060808201518160040160006101000a81548160ff021916908360ff16021790555060a08201518160040160016101000a81548160ff0219169083151502179055509050505050505050505050505050565b611abc828260405180602001604052806000815250611fc9565b5050565b6001816000016000828254019250508190555050565b60008060009054906101000a900473ffffffffffffffffffffffffffffffffffffffff169050816000806101000a81548173ffffffffffffffffffffffffffffffffffffffff021916908373ffffffffffffffffffffffffffffffffffffffff1602179055508173ffffffffffffffffffffffffffffffffffffffff168173ffffffffffffffffffffffffffffffffffffffff167f8be0079c531659141344cd1fd0a4f28419497f9722a3daafe3b4186f6b6457e060405160405180910390a35050565b8173ffffffffffffffffffffffffffffffffffffffff168373ffffffffffffffffffffffffffffffffffffffff161415611c09576040517f08c379a0000000000000000000000000000000000000000000000000000000008152600401611c00906137cd565b60405180910390fd5b80600660008573ffffffffffffffffffffffffffffffffffffffff1673ffffffffffffffffffffffffffffffffffffffff16815260200190815260200160002060008473ffffffffffffffffffffffffffffffffffffffff1673ffffffffffffffffffffffffffffffffffffffff16815260200190815260200160002060006101000a81548160ff0219169083151502179055508173ffffffffffffffffffffffffffffffffffffffff168373ffffffffffffffffffffffffffffffffffffffff167f17307eab39ab6107e8899845ad3d59bd9653f200f220920489ca2b5937696c3183604051611cfa9190613648565b60405180910390a3505050565b611d128484846115ef565b611d1e84848484612024565b611d5d576040517f08c379a0000000000000000000000000000000000000000000000000000000008152600401611d549061372d565b60405180910390fd5b50505050565b6060600c8054611d7290613cdb565b80601f0160208091040260200160405190810160405280929190818152602001828054611d9e90613cdb565b8015611deb5780601f10611dc057610100808354040283529160200191611deb565b820191906000526020600020905b815481529060010190602001808311611dce57829003601f168201915b5050505050905090565b6060826000016000838152602001908152602001600020600001611e4084600001600085815260200190815260200160002060010160009054906101000a900460ff1660ff166121bb565b846000016000858152602001908152602001600020600201856000016000868152602001908152602001600020600301611ea187600001600088815260200190815260200160002060040160009054906101000a900460ff1660ff166121bb565b604051602001611eb5959493929190613510565b604051602081830303815290604052905092915050565b611ed783838361231c565b8273ffffffffffffffffffffffffffffffffffffffff168273ffffffffffffffffffffffffffffffffffffffff1614611fbf57611f148282612321565b600073ffffffffffffffffffffffffffffffffffffffff168373ffffffffffffffffffffffffffffffffffffffff1614611f5757611f5283826123ac565b611f70565b60086000815480929190611f6a90613d3e565b91905055505b600073ffffffffffffffffffffffffffffffffffffffff168273ffffffffffffffffffffffffffffffffffffffff161415611fbe5760096000815480929190611fb890613d3e565b91905055505b5b505050565b505050565b611fd383836125ab565b611fe06000848484612024565b61201f576040517f08c379a00000000000000000000000000000000000000000000000000000000081526004016120169061372d565b60405180910390fd5b505050565b60006120458473ffffffffffffffffffffffffffffffffffffffff16612785565b156121ae578373ffffffffffffffffffffffffffffffffffffffff1663150b7a0261206e611450565b8786866040518563ffffffff1660e01b815260040161209094939291906135b8565b602060405180830381600087803b1580156120aa57600080fd5b505af19250505080156120db57506040513d601f19601f820116820180604052508101906120d89190612d8e565b60015b61215e573d806000811461210b576040519150601f19603f3d011682016040523d82523d6000602084013e612110565b606091505b50600081511415612156576040517f08c379a000000000000000000000000000000000000000000000000000000000815260040161214d9061372d565b60405180910390fd5b805181602001fd5b63150b7a0260e01b7bffffffffffffffffffffffffffffffffffffffffffffffffffffffff1916817bffffffffffffffffffffffffffffffffffffffffffffffffffffffff1916149150506121b3565b600190505b949350505050565b60606000821415612203576040518060400160405280600181526020017f30000000000000000000000000000000000000000000000000000000000000008152509050612317565b600082905060005b6000821461223557808061221e90613d3e565b915050600a8261222e9190613ba5565b915061220b565b60008167ffffffffffffffff81111561225157612250613ea3565b5b6040519080825280601f01601f1916602001820160405280156122835781602001600182028036833780820191505090505b5090505b600085146123105760018261229c9190613bd6565b9150600a856122ab9190613d87565b60306122b79190613b4f565b60f81b8183815181106122cd576122cc613e74565b5b60200101907effffffffffffffffffffffffffffffffffffffffffffffffffffffffffffff1916908160001a905350600a856123099190613ba5565b9450612287565b8093505050505b919050565b505050565b600760008373ffffffffffffffffffffffffffffffffffffffff1673ffffffffffffffffffffffffffffffffffffffff1681526020019081526020016000208190806001815401808255809150506001900390600052602060002090601091828204019190066002029091909190916101000a81548161ffff021916908361ffff1602179055505050565b6000600760008473ffffffffffffffffffffffffffffffffffffffff1673ffffffffffffffffffffffffffffffffffffffff168152602001908152602001600020905060008180549050905060005b8280549050811015612468578361ffff1683828154811061241f5761241e613e74565b5b90600052602060002090601091828204019190066002029054906101000a900461ffff1661ffff16141561245557809150612468565b808061246090613d3e565b9150506123fb565b50818054905081106124af576040517f08c379a00000000000000000000000000000000000000000000000000000000081526004016124a69061370d565b60405180910390fd5b60008190505b600183805490506124c69190613bd6565b81101561256557826001826124db9190613b4f565b815481106124ec576124eb613e74565b5b90600052602060002090601091828204019190066002029054906101000a900461ffff1683828154811061252357612522613e74565b5b90600052602060002090601091828204019190066002026101000a81548161ffff021916908361ffff160217905550808061255d90613d3e565b9150506124b5565b508180548061257757612576613e45565b5b60019003818190600052602060002090601091828204019190066002026101000a81549061ffff0219169055905550505050565b600073ffffffffffffffffffffffffffffffffffffffff168273ffffffffffffffffffffffffffffffffffffffff16141561261b576040517f08c379a00000000000000000000000000000000000000000000000000000000081526004016126129061386d565b60405180910390fd5b612624816113e4565b15612664576040517f08c379a000000000000000000000000000000000000000000000000000000000815260040161265b9061378d565b60405180910390fd5b61267060008383611ecc565b6001600460008473ffffffffffffffffffffffffffffffffffffffff1673ffffffffffffffffffffffffffffffffffffffff16815260200190815260200160002060008282546126c09190613b4f565b92505081905550816003600083815260200190815260200160002060006101000a81548173ffffffffffffffffffffffffffffffffffffffff021916908373ffffffffffffffffffffffffffffffffffffffff160217905550808273ffffffffffffffffffffffffffffffffffffffff16600073ffffffffffffffffffffffffffffffffffffffff167fddf252ad1be2c89b69c2b068fc378daa952ba7f163c4a11628f55a4df523b3ef60405160405180910390a461278160008383611fc4565b5050565b6000808273ffffffffffffffffffffffffffffffffffffffff163b119050919050565b8280546127b490613cdb565b90600052602060002090601f0160209004810192826127d6576000855561281d565b82601f106127ef57803560ff191683800117855561281d565b8280016001018555821561281d579182015b8281111561281c578235825591602001919060010190612801565b5b50905061282a91906128b4565b5090565b82805461283a90613cdb565b90600052602060002090601f01602090048101928261285c57600085556128a3565b82601f1061287557805160ff19168380011785556128a3565b828001600101855582156128a3579182015b828111156128a2578251825591602001919060010190612887565b5b5090506128b091906128b4565b5090565b5b808211156128cd5760008160009055506001016128b5565b5090565b60006128e46128df84613a23565b6139fe565b905082815260208101848484011115612900576128ff613ee1565b5b61290b848285613c99565b509392505050565b600061292661292184613a54565b6139fe565b90508281526020810184848401111561294257612941613ee1565b5b61294d848285613ca8565b509392505050565b60008135905061296481614472565b92915050565b60008135905061297981614489565b92915050565b60008135905061298e816144a0565b92915050565b6000815190506129a3816144a0565b92915050565b600082601f8301126129be576129bd613ed7565b5b81356129ce8482602086016128d1565b91505092915050565b60008083601f8401126129ed576129ec613ed7565b5b8235905067ffffffffffffffff811115612a0a57612a09613ed2565b5b602083019150836001820283011115612a2657612a25613edc565b5b9250929050565b600082601f830112612a4257612a41613ed7565b5b8151612a52848260208601612913565b91505092915050565b600081359050612a6a816144b7565b92915050565b600081359050612a7f816144ce565b92915050565b600081359050612a94816144e5565b92915050565b600081519050612aa9816144e5565b92915050565b600060208284031215612ac557612ac4613eeb565b5b6000612ad384828501612955565b91505092915050565b60008060408385031215612af357612af2613eeb565b5b6000612b0185828601612955565b9250506020612b1285828601612955565b9150509250929050565b600080600060608486031215612b3557612b34613eeb565b5b6000612b4386828701612955565b9350506020612b5486828701612955565b9250506040612b6586828701612a70565b9150509250925092565b60008060008060808587031215612b8957612b88613eeb565b5b6000612b9787828801612955565b9450506020612ba887828801612955565b9350506040612bb987828801612a70565b925050606085013567ffffffffffffffff811115612bda57612bd9613ee6565b5b612be6878288016129a9565b91505092959194509250565b60008060408385031215612c0957612c08613eeb565b5b6000612c1785828601612955565b9250506020612c288582860161296a565b9150509250929050565b600080600080600080600080600060c08a8c031215612c5457612c53613eeb565b5b6000612c628c828d01612955565b99505060208a013567ffffffffffffffff811115612c8357612c82613ee6565b5b612c8f8c828d016129d7565b98509850506040612ca28c828d01612a85565b96505060608a013567ffffffffffffffff811115612cc357612cc2613ee6565b5b612ccf8c828d016129d7565b955095505060808a013567ffffffffffffffff811115612cf257612cf1613ee6565b5b612cfe8c828d016129d7565b935093505060a0612d118c828d01612a85565b9150509295985092959850929598565b60008060408385031215612d3857612d37613eeb565b5b6000612d4685828601612955565b9250506020612d5785828601612a70565b9150509250929050565b600060208284031215612d7757612d76613eeb565b5b6000612d858482850161297f565b91505092915050565b600060208284031215612da457612da3613eeb565b5b6000612db284828501612994565b91505092915050565b60008060208385031215612dd257612dd1613eeb565b5b600083013567ffffffffffffffff811115612df057612def613ee6565b5b612dfc858286016129d7565b92509250509250929050565b600080600080600060a08688031215612e2457612e23613eeb565b5b600086015167ffffffffffffffff811115612e4257612e41613ee6565b5b612e4e88828901612a2d565b9550506020612e5f88828901612a9a565b945050604086015167ffffffffffffffff811115612e8057612e7f613ee6565b5b612e8c88828901612a2d565b935050606086015167ffffffffffffffff811115612ead57612eac613ee6565b5b612eb988828901612a2d565b9250506080612eca88828901612a9a565b9150509295509295909350565b600060208284031215612eed57612eec613eeb565b5b6000612efb84828501612a70565b91505092915050565b60008060408385031215612f1b57612f1a613eeb565b5b6000612f2985828601612a70565b9250506020612f3a85828601612a5b565b9150509250929050565b600060208284031215612f5a57612f59613eeb565b5b6000612f6884828501612a9a565b91505092915050565b6000612f7d8383613483565b60208301905092915050565b6000612f9583836134b0565b60208301905092915050565b612faa81613c0a565b82525050565b6000612fbb82613aba565b612fc58185613b00565b9350612fd083613a85565b8060005b83811015613001578151612fe88882612f71565b9750612ff383613ae6565b925050600181019050612fd4565b5085935050505092915050565b600061301982613ac5565b6130238185613b11565b935061302e83613a95565b8060005b8381101561305f5781516130468882612f89565b975061305183613af3565b925050600181019050613032565b5085935050505092915050565b61307581613c1c565b82525050565b600061308682613ad0565b6130908185613b22565b93506130a0818560208601613ca8565b6130a981613ef0565b840191505092915050565b60006130bf82613adb565b6130c98185613b33565b93506130d9818560208601613ca8565b6130e281613ef0565b840191505092915050565b60006130f882613adb565b6131028185613b44565b9350613112818560208601613ca8565b80840191505092915050565b6000815461312b81613cdb565b6131358186613b44565b94506001821660008114613150576001811461316157613194565b60ff19831686528186019350613194565b61316a85613aa5565b60005b8381101561318c5781548189015260018201915060208101905061316d565b838801955050505b50505092915050565b60006131aa601683613b33565b91506131b582613f01565b602082019050919050565b60006131cd603783613b33565b91506131d882613f2a565b604082019050919050565b60006131f0603283613b33565b91506131fb82613f79565b604082019050919050565b6000613213602683613b33565b915061321e82613fc8565b604082019050919050565b6000613236602583613b33565b915061324182614017565b604082019050919050565b6000613259601c83613b33565b915061326482614066565b602082019050919050565b600061327c600983613b44565b91506132878261408f565b600982019050919050565b600061329f602483613b33565b91506132aa826140b8565b604082019050919050565b60006132c2601983613b33565b91506132cd82614107565b602082019050919050565b60006132e5602c83613b33565b91506132f082614130565b604082019050919050565b6000613308603883613b33565b91506133138261417f565b604082019050919050565b600061332b602a83613b33565b9150613336826141ce565b604082019050919050565b600061334e602983613b33565b91506133598261421d565b604082019050919050565b6000613371602083613b33565b915061337c8261426c565b602082019050919050565b6000613394602c83613b33565b915061339f82614295565b604082019050919050565b60006133b7602083613b33565b91506133c2826142e4565b602082019050919050565b60006133da602f83613b33565b91506133e58261430d565b604082019050919050565b60006133fd603183613b33565b91506134088261435c565b604082019050919050565b6000613420602183613b33565b915061342b826143ab565b604082019050919050565b6000613443603183613b33565b915061344e826143fa565b604082019050919050565b6000613466600183613b44565b915061347182614449565b600182019050919050565b8082525050565b61348c81613c54565b82525050565b61349b81613c54565b82525050565b6134aa81613c54565b82525050565b6134b981613c82565b82525050565b6134c881613c82565b82525050565b6134d781613c82565b82525050565b6134e681613c8c565b82525050565b60006134f882856130ed565b915061350482846130ed565b91508190509392505050565b600061351b8261326f565b915061352682613459565b9150613532828861311e565b915061353d82613459565b915061354982876130ed565b915061355482613459565b9150613560828661311e565b915061356b82613459565b9150613577828561311e565b915061358282613459565b915061358e82846130ed565b91508190509695505050505050565b60006020820190506135b26000830184612fa1565b92915050565b60006080820190506135cd6000830187612fa1565b6135da6020830186612fa1565b6135e760408301856134bf565b81810360608301526135f9818461307b565b905095945050505050565b6000602082019050818103600083015261361e8184612fb0565b905092915050565b60006020820190508181036000830152613640818461300e565b905092915050565b600060208201905061365d600083018461306c565b92915050565b6000602082019050818103600083015261367d81846130b4565b905092915050565b600060a082019050818103600083015261369f81886130b4565b90506136ae60208301876134dd565b81810360408301526136c081866130b4565b905081810360608301526136d481856130b4565b90506136e360808301846134dd565b9695505050505050565b600060208201905081810360008301526137068161319d565b9050919050565b60006020820190508181036000830152613726816131c0565b9050919050565b60006020820190508181036000830152613746816131e3565b9050919050565b6000602082019050818103600083015261376681613206565b9050919050565b6000602082019050818103600083015261378681613229565b9050919050565b600060208201905081810360008301526137a68161324c565b9050919050565b600060208201905081810360008301526137c681613292565b9050919050565b600060208201905081810360008301526137e6816132b5565b9050919050565b60006020820190508181036000830152613806816132d8565b9050919050565b60006020820190508181036000830152613826816132fb565b9050919050565b600060208201905081810360008301526138468161331e565b9050919050565b6000602082019050818103600083015261386681613341565b9050919050565b6000602082019050818103600083015261388681613364565b9050919050565b600060208201905081810360008301526138a681613387565b9050919050565b600060208201905081810360008301526138c6816133aa565b9050919050565b600060208201905081810360008301526138e6816133cd565b9050919050565b60006020820190508181036000830152613906816133f0565b9050919050565b6000602082019050818103600083015261392681613413565b9050919050565b6000602082019050818103600083015261394681613436565b9050919050565b6000604082019050613962600083018561347c565b61396f60208301846134ce565b9392505050565b600060608201905061398b600083018661347c565b61399860208301856134ce565b6139a560408301846134a1565b949350505050565b60006020820190506139c26000830184613492565b92915050565b60006020820190506139dd60008301846134bf565b92915050565b60006020820190506139f860008301846134dd565b92915050565b6000613a08613a19565b9050613a148282613d0d565b919050565b6000604051905090565b600067ffffffffffffffff821115613a3e57613a3d613ea3565b5b613a4782613ef0565b9050602081019050919050565b600067ffffffffffffffff821115613a6f57613a6e613ea3565b5b613a7882613ef0565b9050602081019050919050565b6000819050602082019050919050565b6000819050602082019050919050565b60008190508160005260206000209050919050565b600081519050919050565b600081519050919050565b600081519050919050565b600081519050919050565b6000602082019050919050565b6000602082019050919050565b600082825260208201905092915050565b600082825260208201905092915050565b600082825260208201905092915050565b600082825260208201905092915050565b600081905092915050565b6000613b5a82613c82565b9150613b6583613c82565b9250827fffffffffffffffffffffffffffffffffffffffffffffffffffffffffffffffff03821115613b9a57613b99613db8565b5b828201905092915050565b6000613bb082613c82565b9150613bbb83613c82565b925082613bcb57613bca613de7565b5b828204905092915050565b6000613be182613c82565b9150613bec83613c82565b925082821015613bff57613bfe613db8565b5b828203905092915050565b6000613c1582613c62565b9050919050565b60008115159050919050565b60007fffffffff0000000000000000000000000000000000000000000000000000000082169050919050565b600061ffff82169050919050565b600073ffffffffffffffffffffffffffffffffffffffff82169050919050565b6000819050919050565b600060ff82169050919050565b82818337600083830152505050565b60005b83811015613cc6578082015181840152602081019050613cab565b83811115613cd5576000848401525b50505050565b60006002820490506001821680613cf357607f821691505b60208210811415613d0757613d06613e16565b5b50919050565b613d1682613ef0565b810181811067ffffffffffffffff82111715613d3557613d34613ea3565b5b80604052505050565b6000613d4982613c82565b91507fffffffffffffffffffffffffffffffffffffffffffffffffffffffffffffffff821415613d7c57613d7b613db8565b5b600182019050919050565b6000613d9282613c82565b9150613d9d83613c82565b925082613dad57613dac613de7565b5b828206905092915050565b7f4e487b7100000000000000000000000000000000000000000000000000000000600052601160045260246000fd5b7f4e487b7100000000000000000000000000000000000000000000000000000000600052601260045260246000fd5b7f4e487b7100000000000000000000000000000000000000000000000000000000600052602260045260246000fd5b7f4e487b7100000000000000000000000000000000000000000000000000000000600052603160045260246000fd5b7f4e487b7100000000000000000000000000000000000000000000000000000000600052603260045260246000fd5b7f4e487b7100000000000000000000000000000000000000000000000000000000600052604160045260246000fd5b600080fd5b600080fd5b600080fd5b600080fd5b600080fd5b600080fd5b6000601f19601f8301169050919050565b7f5369646573206d757374206265206e6f6e2d7a65726f00000000000000000000600082015250565b7f45524337323153696d706c65456e756d657261626c653a20746f6b656e49642060008201527f6e6f7420666f756e6420696e206f776e6572206c697374000000000000000000602082015250565b7f4552433732313a207472616e7366657220746f206e6f6e20455243373231526560008201527f63656976657220696d706c656d656e7465720000000000000000000000000000602082015250565b7f4f776e61626c653a206e6577206f776e657220697320746865207a65726f206160008201527f6464726573730000000000000000000000000000000000000000000000000000602082015250565b7f4552433732313a207472616e736665722066726f6d20696e636f72726563742060008201527f6f776e6572000000000000000000000000000000000000000000000000000000602082015250565b7f4552433732313a20746f6b656e20616c7265616479206d696e74656400000000600082015250565b7f2f6d657461646174610000000000000000000000000000000000000000000000600082015250565b7f4552433732313a207472616e7366657220746f20746865207a65726f2061646460008201527f7265737300000000000000000000000000000000000000000000000000000000602082015250565b7f4552433732313a20617070726f766520746f2063616c6c657200000000000000600082015250565b7f4552433732313a206f70657261746f7220717565727920666f72206e6f6e657860008201527f697374656e7420746f6b656e0000000000000000000000000000000000000000602082015250565b7f4552433732313a20617070726f76652063616c6c6572206973206e6f74206f7760008201527f6e6572206e6f7220617070726f76656420666f7220616c6c0000000000000000602082015250565b7f4552433732313a2062616c616e636520717565727920666f7220746865207a6560008201527f726f206164647265737300000000000000000000000000000000000000000000602082015250565b7f4552433732313a206f776e657220717565727920666f72206e6f6e657869737460008201527f656e7420746f6b656e0000000000000000000000000000000000000000000000602082015250565b7f4552433732313a206d696e7420746f20746865207a65726f2061646472657373600082015250565b7f4552433732313a20617070726f76656420717565727920666f72206e6f6e657860008201527f697374656e7420746f6b656e0000000000000000000000000000000000000000602082015250565b7f4f776e61626c653a2063616c6c6572206973206e6f7420746865206f776e6572600082015250565b7f4552433732314d657461646174613a2055524920717565727920666f72206e6f60008201527f6e6578697374656e7420746f6b656e0000000000000000000000000000000000602082015250565b7f45524337323153696d706c65456e756d657261626c653a206f776e657220696e60008201527f646578206f7574206f6620626f756e6473000000000000000000000000000000602082015250565b7f4552433732313a20617070726f76616c20746f2063757272656e74206f776e6560008201527f7200000000000000000000000000000000000000000000000000000000000000602082015250565b7f4552433732313a207472616e736665722063616c6c6572206973206e6f74206f60008201527f776e6572206e6f7220617070726f766564000000000000000000000000000000602082015250565b7f2f00000000000000000000000000000000000000000000000000000000000000600082015250565b61447b81613c0a565b811461448657600080fd5b50565b61449281613c1c565b811461449d57600080fd5b50565b6144a981613c28565b81146144b457600080fd5b50565b6144c081613c54565b81146144cb57600080fd5b50565b6144d781613c82565b81146144e257600080fd5b50565b6144ee81613c8c565b81146144f957600080fd5b5056fea2646970667358221220ce2e6e2ba6567f4949ecb9ee7ca72a5ef2ebd86612f706927c3367366e32ee9264736f6c63430008060033",
  "linkReferences": {
    "contracts/DiceLibrary.sol": {
      "DiceLibrary": [
        {
          "length": 20,
          "start": 4641
        },
        {
          "length": 20,
          "start": 5221
        }
      ]
    }
  },
  "deployedLinkReferences": {
    "contracts/DiceLibrary.sol": {
      "DiceLibrary": [
        {
          "length": 20,
          "start": 3850
        },
        {
          "length": 20,
          "start": 4430
        }
      ]
    }
  }
}