{
  "_format": "hh-sol-artifact-1",
  "contractName": "TabletopDiceNFT",
  "sourceName": "contracts/Dice.sol",
  "abi": [
    {
      "inputs": [],
      "stateMutability": "nonpayable",
      "type": "constructor"
    },
    {
      "anonymous": false,
      "inputs": [
        {
          "indexed": true,
          "internalType": "address",
          "name": "owner",
          "type": "address"
        },
        {
          "indexed": true,
          "internalType": "address",
          "name": "approved",
          "type": "address"
        },
        {
          "indexed": true,
          "internalType": "uint256",
          "name": "tokenId",
          "type": "uint256"
        }
      ],
      "name": "Approval",
      "type": "event"
    },
    {
      "anonymous": false,
      "inputs": [
        {
          "indexed": true,
          "internalType": "address",
          "name": "owner",
          "type": "address"
        },
        {
          "indexed": true,
          "internalType": "address",
          "name": "operator",
          "type": "address"
        },
        {
          "indexed": false,
          "internalType": "bool",
          "name": "approved",
          "type": "bool"
        }
      ],
      "name": "ApprovalForAll",
      "type": "event"
    },
    {
      "anonymous": false,
      "inputs": [
        {
          "indexed": true,
          "internalType": "address",
          "name": "previousOwner",
          "type": "address"
        },
        {
          "indexed": true,
          "internalType": "address",
          "name": "newOwner",
          "type": "address"
        }
      ],
      "name": "OwnershipTransferred",
      "type": "event"
    },
    {
      "anonymous": false,
      "inputs": [
        {
          "indexed": true,
          "internalType": "address",
          "name": "from",
          "type": "address"
        },
        {
          "indexed": true,
          "internalType": "address",
          "name": "to",
          "type": "address"
        },
        {
          "indexed": true,
          "internalType": "uint256",
          "name": "tokenId",
          "type": "uint256"
        }
      ],
      "name": "Transfer",
      "type": "event"
    },
    {
      "inputs": [
        {
          "internalType": "address",
          "name": "to",
          "type": "address"
        },
        {
          "internalType": "uint256",
          "name": "tokenId",
          "type": "uint256"
        }
      ],
      "name": "approve",
      "outputs": [],
      "stateMutability": "nonpayable",
      "type": "function"
    },
    {
      "inputs": [
        {
          "internalType": "address",
          "name": "owner",
          "type": "address"
        }
      ],
      "name": "balanceOf",
      "outputs": [
        {
          "internalType": "uint256",
          "name": "",
          "type": "uint256"
        }
      ],
      "stateMutability": "view",
      "type": "function"
    },
    {
      "inputs": [
        {
          "internalType": "uint256",
          "name": "tokenId",
          "type": "uint256"
        }
      ],
      "name": "getApproved",
      "outputs": [
        {
          "internalType": "address",
          "name": "",
          "type": "address"
        }
      ],
      "stateMutability": "view",
      "type": "function"
    },
    {
      "inputs": [
        {
          "internalType": "uint256",
          "name": "tokenId",
          "type": "uint256"
        }
      ],
      "name": "getTraits",
      "outputs": [
        {
          "internalType": "string",
          "name": "name",
          "type": "string"
        },
        {
          "internalType": "string",
          "name": "tokenURI",
          "type": "string"
        },
        {
          "internalType": "uint8",
          "name": "sides",
          "type": "uint8"
        }
      ],
      "stateMutability": "view",
      "type": "function"
    },
    {
      "inputs": [
        {
          "internalType": "address",
          "name": "owner",
          "type": "address"
        },
        {
          "internalType": "address",
          "name": "operator",
          "type": "address"
        }
      ],
      "name": "isApprovedForAll",
      "outputs": [
        {
          "internalType": "bool",
          "name": "",
          "type": "bool"
        }
      ],
      "stateMutability": "view",
      "type": "function"
    },
    {
      "inputs": [
        {
          "internalType": "address",
          "name": "owner",
          "type": "address"
        },
        {
          "internalType": "string",
          "name": "name",
          "type": "string"
        },
        {
          "internalType": "uint8",
          "name": "sides",
          "type": "uint8"
        },
        {
          "internalType": "string",
          "name": "tokenURI",
          "type": "string"
        }
      ],
      "name": "mintNFT",
      "outputs": [
        {
          "internalType": "uint256",
          "name": "",
          "type": "uint256"
        }
      ],
      "stateMutability": "nonpayable",
      "type": "function"
    },
    {
      "inputs": [],
      "name": "name",
      "outputs": [
        {
          "internalType": "string",
          "name": "",
          "type": "string"
        }
      ],
      "stateMutability": "view",
      "type": "function"
    },
    {
      "inputs": [],
      "name": "owner",
      "outputs": [
        {
          "internalType": "address",
          "name": "",
          "type": "address"
        }
      ],
      "stateMutability": "view",
      "type": "function"
    },
    {
      "inputs": [
        {
          "internalType": "uint256",
          "name": "tokenId",
          "type": "uint256"
        }
      ],
      "name": "ownerOf",
      "outputs": [
        {
          "internalType": "address",
          "name": "",
          "type": "address"
        }
      ],
      "stateMutability": "view",
      "type": "function"
    },
    {
      "inputs": [],
      "name": "renounceOwnership",
      "outputs": [],
      "stateMutability": "nonpayable",
      "type": "function"
    },
    {
      "inputs": [
        {
          "internalType": "uint256",
          "name": "tokenId",
          "type": "uint256"
        }
      ],
      "name": "roll",
      "outputs": [
        {
          "internalType": "uint8",
          "name": "",
          "type": "uint8"
        }
      ],
      "stateMutability": "view",
      "type": "function"
    },
    {
      "inputs": [
        {
          "internalType": "address",
          "name": "from",
          "type": "address"
        },
        {
          "internalType": "address",
          "name": "to",
          "type": "address"
        },
        {
          "internalType": "uint256",
          "name": "tokenId",
          "type": "uint256"
        }
      ],
      "name": "safeTransferFrom",
      "outputs": [],
      "stateMutability": "nonpayable",
      "type": "function"
    },
    {
      "inputs": [
        {
          "internalType": "address",
          "name": "from",
          "type": "address"
        },
        {
          "internalType": "address",
          "name": "to",
          "type": "address"
        },
        {
          "internalType": "uint256",
          "name": "tokenId",
          "type": "uint256"
        },
        {
          "internalType": "bytes",
          "name": "_data",
          "type": "bytes"
        }
      ],
      "name": "safeTransferFrom",
      "outputs": [],
      "stateMutability": "nonpayable",
      "type": "function"
    },
    {
      "inputs": [
        {
          "internalType": "address",
          "name": "operator",
          "type": "address"
        },
        {
          "internalType": "bool",
          "name": "approved",
          "type": "bool"
        }
      ],
      "name": "setApprovalForAll",
      "outputs": [],
      "stateMutability": "nonpayable",
      "type": "function"
    },
    {
      "inputs": [
        {
          "internalType": "bytes4",
          "name": "interfaceId",
          "type": "bytes4"
        }
      ],
      "name": "supportsInterface",
      "outputs": [
        {
          "internalType": "bool",
          "name": "",
          "type": "bool"
        }
      ],
      "stateMutability": "view",
      "type": "function"
    },
    {
      "inputs": [],
      "name": "symbol",
      "outputs": [
        {
          "internalType": "string",
          "name": "",
          "type": "string"
        }
      ],
      "stateMutability": "view",
      "type": "function"
    },
    {
      "inputs": [
        {
          "internalType": "uint256",
          "name": "tokenId",
          "type": "uint256"
        }
      ],
      "name": "tokenURI",
      "outputs": [
        {
          "internalType": "string",
          "name": "",
          "type": "string"
        }
      ],
      "stateMutability": "view",
      "type": "function"
    },
    {
      "inputs": [
        {
          "internalType": "address",
          "name": "from",
          "type": "address"
        },
        {
          "internalType": "address",
          "name": "to",
          "type": "address"
        },
        {
          "internalType": "uint256",
          "name": "tokenId",
          "type": "uint256"
        }
      ],
      "name": "transferFrom",
      "outputs": [],
      "stateMutability": "nonpayable",
      "type": "function"
    },
    {
      "inputs": [
        {
          "internalType": "address",
          "name": "newOwner",
          "type": "address"
        }
      ],
      "name": "transferOwnership",
      "outputs": [],
      "stateMutability": "nonpayable",
      "type": "function"
    }
  ],
  "bytecode": "0x60806040523480156200001157600080fd5b506040518060400160405280600f81526020017f5461626c65746f70446963654e465400000000000000000000000000000000008152506040518060400160405280600c81526020017f5461626c65746f70446963650000000000000000000000000000000000000000815250816000908051906020019062000096929190620001a6565b508060019080519060200190620000af929190620001a6565b505050620000d2620000c6620000d860201b60201c565b620000e060201b60201c565b620002bb565b600033905090565b6000600760009054906101000a900473ffffffffffffffffffffffffffffffffffffffff16905081600760006101000a81548173ffffffffffffffffffffffffffffffffffffffff021916908373ffffffffffffffffffffffffffffffffffffffff1602179055508173ffffffffffffffffffffffffffffffffffffffff168173ffffffffffffffffffffffffffffffffffffffff167f8be0079c531659141344cd1fd0a4f28419497f9722a3daafe3b4186f6b6457e060405160405180910390a35050565b828054620001b49062000256565b90600052602060002090601f016020900481019282620001d8576000855562000224565b82601f10620001f357805160ff191683800117855562000224565b8280016001018555821562000224579182015b828111156200022357825182559160200191906001019062000206565b5b50905062000233919062000237565b5090565b5b808211156200025257600081600090555060010162000238565b5090565b600060028204905060018216806200026f57607f821691505b602082108114156200028657620002856200028c565b5b50919050565b7f4e487b7100000000000000000000000000000000000000000000000000000000600052602260045260246000fd5b613a3a80620002cb6000396000f3fe608060405234801561001057600080fd5b50600436106101215760003560e01c8063715018a6116100ad578063bf21033c11610071578063bf21033c14610306578063c87b56dd14610336578063e1dc076114610366578063e985e9c514610398578063f2fde38b146103c857610121565b8063715018a6146102885780638da5cb5b1461029257806395d89b41146102b0578063a22cb465146102ce578063b88d4fde146102ea57610121565b80631f7b4f30116100f45780631f7b4f30146101c057806323b872dd146101f057806342842e0e1461020c5780636352211e1461022857806370a082311461025857610121565b806301ffc9a71461012657806306fdde0314610156578063081812fc14610174578063095ea7b3146101a4575b600080fd5b610140600480360381019061013b91906126be565b6103e4565b60405161014d9190612c5f565b60405180910390f35b61015e6104c6565b60405161016b9190612c7a565b60405180910390f35b61018e600480360381019061018991906127ec565b610558565b60405161019b9190612bf8565b60405180910390f35b6101be60048036038101906101b9919061267e565b6105dd565b005b6101da60048036038101906101d591906127ec565b6106f5565b6040516101e79190612ff3565b60405180910390f35b61020a600480360381019061020591906124c9565b6107c9565b005b610226600480360381019061022191906124c9565b610829565b005b610242600480360381019061023d91906127ec565b610849565b60405161024f9190612bf8565b60405180910390f35b610272600480360381019061026d919061245c565b6108fb565b60405161027f9190612fd8565b60405180910390f35b6102906109b3565b005b61029a610a3b565b6040516102a79190612bf8565b60405180910390f35b6102b8610a65565b6040516102c59190612c7a565b60405180910390f35b6102e860048036038101906102e3919061259f565b610af7565b005b61030460048036038101906102ff919061251c565b610b0d565b005b610320600480360381019061031b91906125df565b610b6f565b60405161032d9190612fd8565b60405180910390f35b610350600480360381019061034b91906127ec565b610d0f565b60405161035d9190612c7a565b60405180910390f35b610380600480360381019061037b91906127ec565b610e61565b60405161038f93929190612c9c565b60405180910390f35b6103b260048036038101906103ad9190612489565b610f04565b6040516103bf9190612c5f565b60405180910390f35b6103e260048036038101906103dd919061245c565b610f98565b005b60007f80ac58cd000000000000000000000000000000000000000000000000000000007bffffffffffffffffffffffffffffffffffffffffffffffffffffffff1916827bffffffffffffffffffffffffffffffffffffffffffffffffffffffff191614806104af57507f5b5e139f000000000000000000000000000000000000000000000000000000007bffffffffffffffffffffffffffffffffffffffffffffffffffffffff1916827bffffffffffffffffffffffffffffffffffffffffffffffffffffffff1916145b806104bf57506104be82611090565b5b9050919050565b6060600080546104d590613256565b80601f016020809104026020016040519081016040528092919081815260200182805461050190613256565b801561054e5780601f106105235761010080835404028352916020019161054e565b820191906000526020600020905b81548152906001019060200180831161053157829003601f168201915b5050505050905090565b6000610563826110fa565b6105a2576040517f08c379a000000000000000000000000000000000000000000000000000000000815260040161059990612f0f565b60405180910390fd5b6004600083815260200190815260200160002060009054906101000a900473ffffffffffffffffffffffffffffffffffffffff169050919050565b60006105e882610849565b90508073ffffffffffffffffffffffffffffffffffffffff168373ffffffffffffffffffffffffffffffffffffffff161415610659576040517f08c379a000000000000000000000000000000000000000000000000000000000815260040161065090612f6f565b60405180910390fd5b8073ffffffffffffffffffffffffffffffffffffffff16610678611166565b73ffffffffffffffffffffffffffffffffffffffff1614806106a757506106a6816106a1611166565b610f04565b5b6106e6576040517f08c379a00000000000000000000000000000000000000000000000000000000081526004016106dd90612e4f565b60405180910390fd5b6106f0838361116e565b505050565b60006107366040518060400160405280600d81526020017f524f4c4c494e47204e465420230000000000000000000000000000000000000081525083611227565b600873__$3b68987207f559b9bfdbbec8c00268de72$__63c94056e19091846040518363ffffffff1660e01b8152600401610772929190612faf565b60206040518083038186803b15801561078a57600080fd5b505af415801561079e573d6000803e3d6000fd5b505050506040513d601f19601f820116820180604052508101906107c29190612819565b9050919050565b6107da6107d4611166565b826112c3565b610819576040517f08c379a000000000000000000000000000000000000000000000000000000000815260040161081090612f8f565b60405180910390fd5b6108248383836113a1565b505050565b61084483838360405180602001604052806000815250610b0d565b505050565b6000806002600084815260200190815260200160002060009054906101000a900473ffffffffffffffffffffffffffffffffffffffff169050600073ffffffffffffffffffffffffffffffffffffffff168173ffffffffffffffffffffffffffffffffffffffff1614156108f2576040517f08c379a00000000000000000000000000000000000000000000000000000000081526004016108e990612e8f565b60405180910390fd5b80915050919050565b60008073ffffffffffffffffffffffffffffffffffffffff168273ffffffffffffffffffffffffffffffffffffffff16141561096c576040517f08c379a000000000000000000000000000000000000000000000000000000000815260040161096390612e6f565b60405180910390fd5b600360008373ffffffffffffffffffffffffffffffffffffffff1673ffffffffffffffffffffffffffffffffffffffff168152602001908152602001600020549050919050565b6109bb611166565b73ffffffffffffffffffffffffffffffffffffffff166109d9610a3b565b73ffffffffffffffffffffffffffffffffffffffff1614610a2f576040517f08c379a0000000000000000000000000000000000000000000000000000000008152600401610a2690612f2f565b60405180910390fd5b610a396000611608565b565b6000600760009054906101000a900473ffffffffffffffffffffffffffffffffffffffff16905090565b606060018054610a7490613256565b80601f0160208091040260200160405190810160405280929190818152602001828054610aa090613256565b8015610aed5780601f10610ac257610100808354040283529160200191610aed565b820191906000526020600020905b815481529060010190602001808311610ad057829003601f168201915b5050505050905090565b610b09610b02611166565b83836116ce565b5050565b610b1e610b18611166565b836112c3565b610b5d576040517f08c379a0000000000000000000000000000000000000000000000000000000008152600401610b5490612f8f565b60405180910390fd5b610b698484848461183b565b50505050565b6000610b79611166565b73ffffffffffffffffffffffffffffffffffffffff16610b97610a3b565b73ffffffffffffffffffffffffffffffffffffffff1614610bed576040517f08c379a0000000000000000000000000000000000000000000000000000000008152600401610be490612f2f565b60405180910390fd5b610bf76009611897565b6000610c0360096118ad565b9050610c0f86826118bb565b610c1981846118d9565b610cc08582863073ffffffffffffffffffffffffffffffffffffffff1663c87b56dd866040518263ffffffff1660e01b8152600401610c589190612fd8565b60006040518083038186803b158015610c7057600080fd5b505afa158015610c84573d6000803e3d6000fd5b505050506040513d6000823e3d601f19601f82011682018060405250810190610cad9190612718565b600861194d90949392919063ffffffff16565b610d036040518060400160405280601b81526020017f43726561746564204e46543a202325733b2053696465733a2025730000000000815250828660ff16611af6565b80915050949350505050565b6060610d1a826110fa565b610d59576040517f08c379a0000000000000000000000000000000000000000000000000000000008152600401610d5090612eef565b60405180910390fd5b6000600660008481526020019081526020016000208054610d7990613256565b80601f0160208091040260200160405190810160405280929190818152602001828054610da590613256565b8015610df25780601f10610dc757610100808354040283529160200191610df2565b820191906000526020600020905b815481529060010190602001808311610dd557829003601f168201915b505050505090506000610e03611b95565b9050600081511415610e19578192505050610e5c565b600082511115610e4e578082604051602001610e36929190612bd4565b60405160208183030381529060405292505050610e5c565b610e5784611bac565b925050505b919050565b6060806000600873__$3b68987207f559b9bfdbbec8c00268de72$__6323f5b9fc9091866040518363ffffffff1660e01b8152600401610ea2929190612faf565b60006040518083038186803b158015610eba57600080fd5b505af4158015610ece573d6000803e3d6000fd5b505050506040513d6000823e3d601f19601f82011682018060405250810190610ef79190612761565b9250925092509193909250565b6000600560008473ffffffffffffffffffffffffffffffffffffffff1673ffffffffffffffffffffffffffffffffffffffff16815260200190815260200160002060008373ffffffffffffffffffffffffffffffffffffffff1673ffffffffffffffffffffffffffffffffffffffff16815260200190815260200160002060009054906101000a900460ff16905092915050565b610fa0611166565b73ffffffffffffffffffffffffffffffffffffffff16610fbe610a3b565b73ffffffffffffffffffffffffffffffffffffffff1614611014576040517f08c379a000000000000000000000000000000000000000000000000000000000815260040161100b90612f2f565b60405180910390fd5b600073ffffffffffffffffffffffffffffffffffffffff168173ffffffffffffffffffffffffffffffffffffffff161415611084576040517f08c379a000000000000000000000000000000000000000000000000000000000815260040161107b90612d8f565b60405180910390fd5b61108d81611608565b50565b60007f01ffc9a7000000000000000000000000000000000000000000000000000000007bffffffffffffffffffffffffffffffffffffffffffffffffffffffff1916827bffffffffffffffffffffffffffffffffffffffffffffffffffffffff1916149050919050565b60008073ffffffffffffffffffffffffffffffffffffffff166002600084815260200190815260200160002060009054906101000a900473ffffffffffffffffffffffffffffffffffffffff1673ffffffffffffffffffffffffffffffffffffffff1614159050919050565b600033905090565b816004600083815260200190815260200160002060006101000a81548173ffffffffffffffffffffffffffffffffffffffff021916908373ffffffffffffffffffffffffffffffffffffffff160217905550808273ffffffffffffffffffffffffffffffffffffffff166111e183610849565b73ffffffffffffffffffffffffffffffffffffffff167f8c5be1e5ebec7d5bd14f71427d1e84f3dd0314c0f7b2291e5b200ac8c7c3b92560405160405180910390a45050565b6112bf828260405160240161123d929190612ce1565b6040516020818303038152906040527f9710a9d0000000000000000000000000000000000000000000000000000000007bffffffffffffffffffffffffffffffffffffffffffffffffffffffff19166020820180517bffffffffffffffffffffffffffffffffffffffffffffffffffffffff8381831617835250505050611c53565b5050565b60006112ce826110fa565b61130d576040517f08c379a000000000000000000000000000000000000000000000000000000000815260040161130490612e2f565b60405180910390fd5b600061131883610849565b90508073ffffffffffffffffffffffffffffffffffffffff168473ffffffffffffffffffffffffffffffffffffffff16148061138757508373ffffffffffffffffffffffffffffffffffffffff1661136f84610558565b73ffffffffffffffffffffffffffffffffffffffff16145b8061139857506113978185610f04565b5b91505092915050565b8273ffffffffffffffffffffffffffffffffffffffff166113c182610849565b73ffffffffffffffffffffffffffffffffffffffff1614611417576040517f08c379a000000000000000000000000000000000000000000000000000000000815260040161140e90612daf565b60405180910390fd5b600073ffffffffffffffffffffffffffffffffffffffff168273ffffffffffffffffffffffffffffffffffffffff161415611487576040517f08c379a000000000000000000000000000000000000000000000000000000000815260040161147e90612def565b60405180910390fd5b611492838383611c7c565b61149d60008261116e565b6001600360008573ffffffffffffffffffffffffffffffffffffffff1673ffffffffffffffffffffffffffffffffffffffff16815260200190815260200160002060008282546114ed919061315f565b925050819055506001600360008473ffffffffffffffffffffffffffffffffffffffff1673ffffffffffffffffffffffffffffffffffffffff168152602001908152602001600020600082825461154491906130d8565b92505081905550816002600083815260200190815260200160002060006101000a81548173ffffffffffffffffffffffffffffffffffffffff021916908373ffffffffffffffffffffffffffffffffffffffff160217905550808273ffffffffffffffffffffffffffffffffffffffff168473ffffffffffffffffffffffffffffffffffffffff167fddf252ad1be2c89b69c2b068fc378daa952ba7f163c4a11628f55a4df523b3ef60405160405180910390a4611603838383611c81565b505050565b6000600760009054906101000a900473ffffffffffffffffffffffffffffffffffffffff16905081600760006101000a81548173ffffffffffffffffffffffffffffffffffffffff021916908373ffffffffffffffffffffffffffffffffffffffff1602179055508173ffffffffffffffffffffffffffffffffffffffff168173ffffffffffffffffffffffffffffffffffffffff167f8be0079c531659141344cd1fd0a4f28419497f9722a3daafe3b4186f6b6457e060405160405180910390a35050565b8173ffffffffffffffffffffffffffffffffffffffff168373ffffffffffffffffffffffffffffffffffffffff16141561173d576040517f08c379a000000000000000000000000000000000000000000000000000000000815260040161173490612e0f565b60405180910390fd5b80600560008573ffffffffffffffffffffffffffffffffffffffff1673ffffffffffffffffffffffffffffffffffffffff16815260200190815260200160002060008473ffffffffffffffffffffffffffffffffffffffff1673ffffffffffffffffffffffffffffffffffffffff16815260200190815260200160002060006101000a81548160ff0219169083151502179055508173ffffffffffffffffffffffffffffffffffffffff168373ffffffffffffffffffffffffffffffffffffffff167f17307eab39ab6107e8899845ad3d59bd9653f200f220920489ca2b5937696c318360405161182e9190612c5f565b60405180910390a3505050565b6118468484846113a1565b61185284848484611c86565b611891576040517f08c379a000000000000000000000000000000000000000000000000000000000815260040161188890612d6f565b60405180910390fd5b50505050565b6001816000016000828254019250508190555050565b600081600001549050919050565b6118d5828260405180602001604052806000815250611e1d565b5050565b6118e2826110fa565b611921576040517f08c379a000000000000000000000000000000000000000000000000000000000815260040161191890612eaf565b60405180910390fd5b806006600084815260200190815260200160002090805190602001906119489291906121d6565b505050565b60008260ff1611611993576040517f08c379a000000000000000000000000000000000000000000000000000000000815260040161198a90612d4f565b60405180910390fd5b6119d26040518060400160405280601481526020017f4372656174696e672044696520772f2069643a2000000000000000000000000081525084611227565b600080600a8460ff16146119e75760006119ea565b60015b90506040518060a001604052808781526020018481526020018560ff1681526020018215158152602001836002811115611a2757611a26613391565b5b8152508760000160008781526020019081526020016000206000820151816000019080519060200190611a5b9291906121d6565b506020820151816001019080519060200190611a789291906121d6565b5060408201518160020160006101000a81548160ff021916908360ff16021790555060608201518160020160016101000a81548160ff02191690831515021790555060808201518160020160026101000a81548160ff02191690836002811115611ae557611ae4613391565b5b021790555090505050505050505050565b611b90838383604051602401611b0e93929190612d11565b6040516020818303038152906040527f969cdd03000000000000000000000000000000000000000000000000000000007bffffffffffffffffffffffffffffffffffffffffffffffffffffffff19166020820180517bffffffffffffffffffffffffffffffffffffffffffffffffffffffff8381831617835250505050611c53565b505050565b606060405180602001604052806000815250905090565b6060611bb7826110fa565b611bf6576040517f08c379a0000000000000000000000000000000000000000000000000000000008152600401611bed90612f4f565b60405180910390fd5b6000611c00611b95565b90506000815111611c205760405180602001604052806000815250611c4b565b80611c2a84611e78565b604051602001611c3b929190612bd4565b6040516020818303038152906040525b915050919050565b60008151905060006a636f6e736f6c652e6c6f679050602083016000808483855afa5050505050565b505050565b505050565b6000611ca78473ffffffffffffffffffffffffffffffffffffffff16611fd9565b15611e10578373ffffffffffffffffffffffffffffffffffffffff1663150b7a02611cd0611166565b8786866040518563ffffffff1660e01b8152600401611cf29493929190612c13565b602060405180830381600087803b158015611d0c57600080fd5b505af1925050508015611d3d57506040513d601f19601f82011682018060405250810190611d3a91906126eb565b60015b611dc0573d8060008114611d6d576040519150601f19603f3d011682016040523d82523d6000602084013e611d72565b606091505b50600081511415611db8576040517f08c379a0000000000000000000000000000000000000000000000000000000008152600401611daf90612d6f565b60405180910390fd5b805181602001fd5b63150b7a0260e01b7bffffffffffffffffffffffffffffffffffffffffffffffffffffffff1916817bffffffffffffffffffffffffffffffffffffffffffffffffffffffff191614915050611e15565b600190505b949350505050565b611e278383611ffc565b611e346000848484611c86565b611e73576040517f08c379a0000000000000000000000000000000000000000000000000000000008152600401611e6a90612d6f565b60405180910390fd5b505050565b60606000821415611ec0576040518060400160405280600181526020017f30000000000000000000000000000000000000000000000000000000000000008152509050611fd4565b600082905060005b60008214611ef2578080611edb906132b9565b915050600a82611eeb919061312e565b9150611ec8565b60008167ffffffffffffffff811115611f0e57611f0d61341e565b5b6040519080825280601f01601f191660200182016040528015611f405781602001600182028036833780820191505090505b5090505b60008514611fcd57600182611f59919061315f565b9150600a85611f689190613302565b6030611f7491906130d8565b60f81b818381518110611f8a57611f896133ef565b5b60200101907effffffffffffffffffffffffffffffffffffffffffffffffffffffffffffff1916908160001a905350600a85611fc6919061312e565b9450611f44565b8093505050505b919050565b6000808273ffffffffffffffffffffffffffffffffffffffff163b119050919050565b600073ffffffffffffffffffffffffffffffffffffffff168273ffffffffffffffffffffffffffffffffffffffff16141561206c576040517f08c379a000000000000000000000000000000000000000000000000000000000815260040161206390612ecf565b60405180910390fd5b612075816110fa565b156120b5576040517f08c379a00000000000000000000000000000000000000000000000000000000081526004016120ac90612dcf565b60405180910390fd5b6120c160008383611c7c565b6001600360008473ffffffffffffffffffffffffffffffffffffffff1673ffffffffffffffffffffffffffffffffffffffff168152602001908152602001600020600082825461211191906130d8565b92505081905550816002600083815260200190815260200160002060006101000a81548173ffffffffffffffffffffffffffffffffffffffff021916908373ffffffffffffffffffffffffffffffffffffffff160217905550808273ffffffffffffffffffffffffffffffffffffffff16600073ffffffffffffffffffffffffffffffffffffffff167fddf252ad1be2c89b69c2b068fc378daa952ba7f163c4a11628f55a4df523b3ef60405160405180910390a46121d260008383611c81565b5050565b8280546121e290613256565b90600052602060002090601f016020900481019282612204576000855561224b565b82601f1061221d57805160ff191683800117855561224b565b8280016001018555821561224b579182015b8281111561224a57825182559160200191906001019061222f565b5b509050612258919061225c565b5090565b5b8082111561227557600081600090555060010161225d565b5090565b600061228c61228784613033565b61300e565b9050828152602081018484840111156122a8576122a7613452565b5b6122b3848285613214565b509392505050565b60006122ce6122c984613064565b61300e565b9050828152602081018484840111156122ea576122e9613452565b5b6122f5848285613214565b509392505050565b600061231061230b84613064565b61300e565b90508281526020810184848401111561232c5761232b613452565b5b612337848285613223565b509392505050565b60008135905061234e81613991565b92915050565b600081359050612363816139a8565b92915050565b600081359050612378816139bf565b92915050565b60008151905061238d816139bf565b92915050565b600082601f8301126123a8576123a761344d565b5b81356123b8848260208601612279565b91505092915050565b600082601f8301126123d6576123d561344d565b5b81356123e68482602086016122bb565b91505092915050565b600082601f8301126124045761240361344d565b5b81516124148482602086016122fd565b91505092915050565b60008135905061242c816139d6565b92915050565b600081359050612441816139ed565b92915050565b600081519050612456816139ed565b92915050565b6000602082840312156124725761247161345c565b5b60006124808482850161233f565b91505092915050565b600080604083850312156124a05761249f61345c565b5b60006124ae8582860161233f565b92505060206124bf8582860161233f565b9150509250929050565b6000806000606084860312156124e2576124e161345c565b5b60006124f08682870161233f565b93505060206125018682870161233f565b92505060406125128682870161241d565b9150509250925092565b600080600080608085870312156125365761253561345c565b5b60006125448782880161233f565b94505060206125558782880161233f565b93505060406125668782880161241d565b925050606085013567ffffffffffffffff81111561258757612586613457565b5b61259387828801612393565b91505092959194509250565b600080604083850312156125b6576125b561345c565b5b60006125c48582860161233f565b92505060206125d585828601612354565b9150509250929050565b600080600080608085870312156125f9576125f861345c565b5b60006126078782880161233f565b945050602085013567ffffffffffffffff81111561262857612627613457565b5b612634878288016123c1565b935050604061264587828801612432565b925050606085013567ffffffffffffffff81111561266657612665613457565b5b612672878288016123c1565b91505092959194509250565b600080604083850312156126955761269461345c565b5b60006126a38582860161233f565b92505060206126b48582860161241d565b9150509250929050565b6000602082840312156126d4576126d361345c565b5b60006126e284828501612369565b91505092915050565b6000602082840312156127015761270061345c565b5b600061270f8482850161237e565b91505092915050565b60006020828403121561272e5761272d61345c565b5b600082015167ffffffffffffffff81111561274c5761274b613457565b5b612758848285016123ef565b91505092915050565b60008060006060848603121561277a5761277961345c565b5b600084015167ffffffffffffffff81111561279857612797613457565b5b6127a4868287016123ef565b935050602084015167ffffffffffffffff8111156127c5576127c4613457565b5b6127d1868287016123ef565b92505060406127e286828701612447565b9150509250925092565b6000602082840312156128025761280161345c565b5b60006128108482850161241d565b91505092915050565b60006020828403121561282f5761282e61345c565b5b600061283d84828501612447565b91505092915050565b61284f81613193565b82525050565b61285e816131a5565b82525050565b600061286f82613095565b61287981856130ab565b9350612889818560208601613223565b61289281613461565b840191505092915050565b60006128a8826130a0565b6128b281856130bc565b93506128c2818560208601613223565b6128cb81613461565b840191505092915050565b60006128e1826130a0565b6128eb81856130cd565b93506128fb818560208601613223565b80840191505092915050565b60006129146016836130bc565b915061291f82613472565b602082019050919050565b60006129376032836130bc565b91506129428261349b565b604082019050919050565b600061295a6026836130bc565b9150612965826134ea565b604082019050919050565b600061297d6025836130bc565b915061298882613539565b604082019050919050565b60006129a0601c836130bc565b91506129ab82613588565b602082019050919050565b60006129c36024836130bc565b91506129ce826135b1565b604082019050919050565b60006129e66019836130bc565b91506129f182613600565b602082019050919050565b6000612a09602c836130bc565b9150612a1482613629565b604082019050919050565b6000612a2c6038836130bc565b9150612a3782613678565b604082019050919050565b6000612a4f602a836130bc565b9150612a5a826136c7565b604082019050919050565b6000612a726029836130bc565b9150612a7d82613716565b604082019050919050565b6000612a95602e836130bc565b9150612aa082613765565b604082019050919050565b6000612ab86020836130bc565b9150612ac3826137b4565b602082019050919050565b6000612adb6031836130bc565b9150612ae6826137dd565b604082019050919050565b6000612afe602c836130bc565b9150612b098261382c565b604082019050919050565b6000612b216020836130bc565b9150612b2c8261387b565b602082019050919050565b6000612b44602f836130bc565b9150612b4f826138a4565b604082019050919050565b6000612b676021836130bc565b9150612b72826138f3565b604082019050919050565b6000612b8a6031836130bc565b9150612b9582613942565b604082019050919050565b8082525050565b612bb0816131fd565b82525050565b612bbf816131fd565b82525050565b612bce81613207565b82525050565b6000612be082856128d6565b9150612bec82846128d6565b91508190509392505050565b6000602082019050612c0d6000830184612846565b92915050565b6000608082019050612c286000830187612846565b612c356020830186612846565b612c426040830185612ba7565b8181036060830152612c548184612864565b905095945050505050565b6000602082019050612c746000830184612855565b92915050565b60006020820190508181036000830152612c94818461289d565b905092915050565b60006060820190508181036000830152612cb6818661289d565b90508181036020830152612cca818561289d565b9050612cd96040830184612bc5565b949350505050565b60006040820190508181036000830152612cfb818561289d565b9050612d0a6020830184612ba7565b9392505050565b60006060820190508181036000830152612d2b818661289d565b9050612d3a6020830185612ba7565b612d476040830184612ba7565b949350505050565b60006020820190508181036000830152612d6881612907565b9050919050565b60006020820190508181036000830152612d888161292a565b9050919050565b60006020820190508181036000830152612da88161294d565b9050919050565b60006020820190508181036000830152612dc881612970565b9050919050565b60006020820190508181036000830152612de881612993565b9050919050565b60006020820190508181036000830152612e08816129b6565b9050919050565b60006020820190508181036000830152612e28816129d9565b9050919050565b60006020820190508181036000830152612e48816129fc565b9050919050565b60006020820190508181036000830152612e6881612a1f565b9050919050565b60006020820190508181036000830152612e8881612a42565b9050919050565b60006020820190508181036000830152612ea881612a65565b9050919050565b60006020820190508181036000830152612ec881612a88565b9050919050565b60006020820190508181036000830152612ee881612aab565b9050919050565b60006020820190508181036000830152612f0881612ace565b9050919050565b60006020820190508181036000830152612f2881612af1565b9050919050565b60006020820190508181036000830152612f4881612b14565b9050919050565b60006020820190508181036000830152612f6881612b37565b9050919050565b60006020820190508181036000830152612f8881612b5a565b9050919050565b60006020820190508181036000830152612fa881612b7d565b9050919050565b6000604082019050612fc46000830185612ba0565b612fd16020830184612bb6565b9392505050565b6000602082019050612fed6000830184612ba7565b92915050565b60006020820190506130086000830184612bc5565b92915050565b6000613018613029565b90506130248282613288565b919050565b6000604051905090565b600067ffffffffffffffff82111561304e5761304d61341e565b5b61305782613461565b9050602081019050919050565b600067ffffffffffffffff82111561307f5761307e61341e565b5b61308882613461565b9050602081019050919050565b600081519050919050565b600081519050919050565b600082825260208201905092915050565b600082825260208201905092915050565b600081905092915050565b60006130e3826131fd565b91506130ee836131fd565b9250827fffffffffffffffffffffffffffffffffffffffffffffffffffffffffffffffff0382111561312357613122613333565b5b828201905092915050565b6000613139826131fd565b9150613144836131fd565b92508261315457613153613362565b5b828204905092915050565b600061316a826131fd565b9150613175836131fd565b92508282101561318857613187613333565b5b828203905092915050565b600061319e826131dd565b9050919050565b60008115159050919050565b60007fffffffff0000000000000000000000000000000000000000000000000000000082169050919050565b600073ffffffffffffffffffffffffffffffffffffffff82169050919050565b6000819050919050565b600060ff82169050919050565b82818337600083830152505050565b60005b83811015613241578082015181840152602081019050613226565b83811115613250576000848401525b50505050565b6000600282049050600182168061326e57607f821691505b60208210811415613282576132816133c0565b5b50919050565b61329182613461565b810181811067ffffffffffffffff821117156132b0576132af61341e565b5b80604052505050565b60006132c4826131fd565b91507fffffffffffffffffffffffffffffffffffffffffffffffffffffffffffffffff8214156132f7576132f6613333565b5b600182019050919050565b600061330d826131fd565b9150613318836131fd565b92508261332857613327613362565b5b828206905092915050565b7f4e487b7100000000000000000000000000000000000000000000000000000000600052601160045260246000fd5b7f4e487b7100000000000000000000000000000000000000000000000000000000600052601260045260246000fd5b7f4e487b7100000000000000000000000000000000000000000000000000000000600052602160045260246000fd5b7f4e487b7100000000000000000000000000000000000000000000000000000000600052602260045260246000fd5b7f4e487b7100000000000000000000000000000000000000000000000000000000600052603260045260246000fd5b7f4e487b7100000000000000000000000000000000000000000000000000000000600052604160045260246000fd5b600080fd5b600080fd5b600080fd5b600080fd5b6000601f19601f8301169050919050565b7f5369646573206d757374206265206e6f6e2d7a65726f00000000000000000000600082015250565b7f4552433732313a207472616e7366657220746f206e6f6e20455243373231526560008201527f63656976657220696d706c656d656e7465720000000000000000000000000000602082015250565b7f4f776e61626c653a206e6577206f776e657220697320746865207a65726f206160008201527f6464726573730000000000000000000000000000000000000000000000000000602082015250565b7f4552433732313a207472616e736665722066726f6d20696e636f72726563742060008201527f6f776e6572000000000000000000000000000000000000000000000000000000602082015250565b7f4552433732313a20746f6b656e20616c7265616479206d696e74656400000000600082015250565b7f4552433732313a207472616e7366657220746f20746865207a65726f2061646460008201527f7265737300000000000000000000000000000000000000000000000000000000602082015250565b7f4552433732313a20617070726f766520746f2063616c6c657200000000000000600082015250565b7f4552433732313a206f70657261746f7220717565727920666f72206e6f6e657860008201527f697374656e7420746f6b656e0000000000000000000000000000000000000000602082015250565b7f4552433732313a20617070726f76652063616c6c6572206973206e6f74206f7760008201527f6e6572206e6f7220617070726f76656420666f7220616c6c0000000000000000602082015250565b7f4552433732313a2062616c616e636520717565727920666f7220746865207a6560008201527f726f206164647265737300000000000000000000000000000000000000000000602082015250565b7f4552433732313a206f776e657220717565727920666f72206e6f6e657869737460008201527f656e7420746f6b656e0000000000000000000000000000000000000000000000602082015250565b7f45524337323155524953746f726167653a2055524920736574206f66206e6f6e60008201527f6578697374656e7420746f6b656e000000000000000000000000000000000000602082015250565b7f4552433732313a206d696e7420746f20746865207a65726f2061646472657373600082015250565b7f45524337323155524953746f726167653a2055524920717565727920666f722060008201527f6e6f6e6578697374656e7420746f6b656e000000000000000000000000000000602082015250565b7f4552433732313a20617070726f76656420717565727920666f72206e6f6e657860008201527f697374656e7420746f6b656e0000000000000000000000000000000000000000602082015250565b7f4f776e61626c653a2063616c6c6572206973206e6f7420746865206f776e6572600082015250565b7f4552433732314d657461646174613a2055524920717565727920666f72206e6f60008201527f6e6578697374656e7420746f6b656e0000000000000000000000000000000000602082015250565b7f4552433732313a20617070726f76616c20746f2063757272656e74206f776e6560008201527f7200000000000000000000000000000000000000000000000000000000000000602082015250565b7f4552433732313a207472616e736665722063616c6c6572206973206e6f74206f60008201527f776e6572206e6f7220617070726f766564000000000000000000000000000000602082015250565b61399a81613193565b81146139a557600080fd5b50565b6139b1816131a5565b81146139bc57600080fd5b50565b6139c8816131b1565b81146139d357600080fd5b50565b6139df816131fd565b81146139ea57600080fd5b50565b6139f681613207565b8114613a0157600080fd5b5056fea26469706673582212204aa1cfe2cbcd9d4e7828fbda9a5f6cfe74cfa9b4a5bb18b4eaabdfeacd8a6a5364736f6c63430008060033",
  "linkReferences": {
    "contracts/DiceLibrary.sol": {
      "DiceLibrary": [
        {
          "length": 20,
          "start": 2565
        },
        {
          "length": 20,
          "start": 4405
        }
      ]
    }
  },
  "deployedLinkReferences": {
    "contracts/DiceLibrary.sol": {
      "DiceLibrary": [
        {
          "length": 20,
          "start": 1850
        },
        {
          "length": 20,
          "start": 3690
        }
      ]
    }
  }
}