{
  "_format": "hh-sol-artifact-1",
  "contractName": "TabletopDiceNFT",
  "sourceName": "contracts/Dice.sol",
  "abi": [
    {
      "inputs": [],
      "stateMutability": "nonpayable",
      "type": "constructor"
    },
    {
      "anonymous": false,
      "inputs": [
        {
          "indexed": true,
          "internalType": "address",
          "name": "owner",
          "type": "address"
        },
        {
          "indexed": true,
          "internalType": "address",
          "name": "approved",
          "type": "address"
        },
        {
          "indexed": true,
          "internalType": "uint256",
          "name": "tokenId",
          "type": "uint256"
        }
      ],
      "name": "Approval",
      "type": "event"
    },
    {
      "anonymous": false,
      "inputs": [
        {
          "indexed": true,
          "internalType": "address",
          "name": "owner",
          "type": "address"
        },
        {
          "indexed": true,
          "internalType": "address",
          "name": "operator",
          "type": "address"
        },
        {
          "indexed": false,
          "internalType": "bool",
          "name": "approved",
          "type": "bool"
        }
      ],
      "name": "ApprovalForAll",
      "type": "event"
    },
    {
      "anonymous": false,
      "inputs": [
        {
          "indexed": true,
          "internalType": "address",
          "name": "previousOwner",
          "type": "address"
        },
        {
          "indexed": true,
          "internalType": "address",
          "name": "newOwner",
          "type": "address"
        }
      ],
      "name": "OwnershipTransferred",
      "type": "event"
    },
    {
      "anonymous": false,
      "inputs": [
        {
          "indexed": true,
          "internalType": "address",
          "name": "from",
          "type": "address"
        },
        {
          "indexed": true,
          "internalType": "address",
          "name": "to",
          "type": "address"
        },
        {
          "indexed": true,
          "internalType": "uint256",
          "name": "tokenId",
          "type": "uint256"
        }
      ],
      "name": "Transfer",
      "type": "event"
    },
    {
      "inputs": [
        {
          "internalType": "address",
          "name": "to",
          "type": "address"
        },
        {
          "internalType": "uint256",
          "name": "tokenId",
          "type": "uint256"
        }
      ],
      "name": "approve",
      "outputs": [],
      "stateMutability": "nonpayable",
      "type": "function"
    },
    {
      "inputs": [
        {
          "internalType": "address",
          "name": "owner",
          "type": "address"
        }
      ],
      "name": "balanceOf",
      "outputs": [
        {
          "internalType": "uint256",
          "name": "",
          "type": "uint256"
        }
      ],
      "stateMutability": "view",
      "type": "function"
    },
    {
      "inputs": [
        {
          "internalType": "uint256",
          "name": "tokenId",
          "type": "uint256"
        }
      ],
      "name": "getApproved",
      "outputs": [
        {
          "internalType": "address",
          "name": "",
          "type": "address"
        }
      ],
      "stateMutability": "view",
      "type": "function"
    },
    {
      "inputs": [],
      "name": "getOwnedTokenIds",
      "outputs": [
        {
          "internalType": "uint256[]",
          "name": "",
          "type": "uint256[]"
        }
      ],
      "stateMutability": "view",
      "type": "function"
    },
    {
      "inputs": [
        {
          "internalType": "uint256",
          "name": "tokenId",
          "type": "uint256"
        }
      ],
      "name": "getTraits",
      "outputs": [
        {
          "internalType": "string",
          "name": "name",
          "type": "string"
        },
        {
          "internalType": "string",
          "name": "tokenURI",
          "type": "string"
        },
        {
          "internalType": "uint8",
          "name": "sides",
          "type": "uint8"
        }
      ],
      "stateMutability": "view",
      "type": "function"
    },
    {
      "inputs": [
        {
          "internalType": "address",
          "name": "owner",
          "type": "address"
        },
        {
          "internalType": "address",
          "name": "operator",
          "type": "address"
        }
      ],
      "name": "isApprovedForAll",
      "outputs": [
        {
          "internalType": "bool",
          "name": "",
          "type": "bool"
        }
      ],
      "stateMutability": "view",
      "type": "function"
    },
    {
      "inputs": [
        {
          "internalType": "address",
          "name": "owner",
          "type": "address"
        },
        {
          "internalType": "string",
          "name": "name",
          "type": "string"
        },
        {
          "internalType": "uint8",
          "name": "sides",
          "type": "uint8"
        }
      ],
      "name": "mintNFT",
      "outputs": [
        {
          "internalType": "uint256",
          "name": "",
          "type": "uint256"
        }
      ],
      "stateMutability": "nonpayable",
      "type": "function"
    },
    {
      "inputs": [],
      "name": "name",
      "outputs": [
        {
          "internalType": "string",
          "name": "",
          "type": "string"
        }
      ],
      "stateMutability": "view",
      "type": "function"
    },
    {
      "inputs": [],
      "name": "owner",
      "outputs": [
        {
          "internalType": "address",
          "name": "",
          "type": "address"
        }
      ],
      "stateMutability": "view",
      "type": "function"
    },
    {
      "inputs": [
        {
          "internalType": "uint256",
          "name": "tokenId",
          "type": "uint256"
        }
      ],
      "name": "ownerOf",
      "outputs": [
        {
          "internalType": "address",
          "name": "",
          "type": "address"
        }
      ],
      "stateMutability": "view",
      "type": "function"
    },
    {
      "inputs": [],
      "name": "renounceOwnership",
      "outputs": [],
      "stateMutability": "nonpayable",
      "type": "function"
    },
    {
      "inputs": [
        {
          "internalType": "uint256",
          "name": "tokenId",
          "type": "uint256"
        },
        {
          "internalType": "uint16",
          "name": "nonce",
          "type": "uint16"
        }
      ],
      "name": "roll",
      "outputs": [
        {
          "internalType": "uint8",
          "name": "",
          "type": "uint8"
        }
      ],
      "stateMutability": "view",
      "type": "function"
    },
    {
      "inputs": [
        {
          "internalType": "address",
          "name": "from",
          "type": "address"
        },
        {
          "internalType": "address",
          "name": "to",
          "type": "address"
        },
        {
          "internalType": "uint256",
          "name": "tokenId",
          "type": "uint256"
        }
      ],
      "name": "safeTransferFrom",
      "outputs": [],
      "stateMutability": "nonpayable",
      "type": "function"
    },
    {
      "inputs": [
        {
          "internalType": "address",
          "name": "from",
          "type": "address"
        },
        {
          "internalType": "address",
          "name": "to",
          "type": "address"
        },
        {
          "internalType": "uint256",
          "name": "tokenId",
          "type": "uint256"
        },
        {
          "internalType": "bytes",
          "name": "_data",
          "type": "bytes"
        }
      ],
      "name": "safeTransferFrom",
      "outputs": [],
      "stateMutability": "nonpayable",
      "type": "function"
    },
    {
      "inputs": [
        {
          "internalType": "address",
          "name": "operator",
          "type": "address"
        },
        {
          "internalType": "bool",
          "name": "approved",
          "type": "bool"
        }
      ],
      "name": "setApprovalForAll",
      "outputs": [],
      "stateMutability": "nonpayable",
      "type": "function"
    },
    {
      "inputs": [
        {
          "internalType": "string",
          "name": "baseURI",
          "type": "string"
        }
      ],
      "name": "setBaseURI",
      "outputs": [],
      "stateMutability": "nonpayable",
      "type": "function"
    },
    {
      "inputs": [
        {
          "internalType": "bytes4",
          "name": "interfaceId",
          "type": "bytes4"
        }
      ],
      "name": "supportsInterface",
      "outputs": [
        {
          "internalType": "bool",
          "name": "",
          "type": "bool"
        }
      ],
      "stateMutability": "view",
      "type": "function"
    },
    {
      "inputs": [],
      "name": "symbol",
      "outputs": [
        {
          "internalType": "string",
          "name": "",
          "type": "string"
        }
      ],
      "stateMutability": "view",
      "type": "function"
    },
    {
      "inputs": [
        {
          "internalType": "address",
          "name": "owner",
          "type": "address"
        }
      ],
      "name": "tokenListOfOwner",
      "outputs": [
        {
          "internalType": "uint16[]",
          "name": "",
          "type": "uint16[]"
        }
      ],
      "stateMutability": "view",
      "type": "function"
    },
    {
      "inputs": [
        {
          "internalType": "address",
          "name": "owner",
          "type": "address"
        },
        {
          "internalType": "uint256",
          "name": "index",
          "type": "uint256"
        }
      ],
      "name": "tokenOfOwnerByIndex",
      "outputs": [
        {
          "internalType": "uint16",
          "name": "",
          "type": "uint16"
        }
      ],
      "stateMutability": "view",
      "type": "function"
    },
    {
      "inputs": [
        {
          "internalType": "uint256",
          "name": "tokenId",
          "type": "uint256"
        }
      ],
      "name": "tokenURI",
      "outputs": [
        {
          "internalType": "string",
          "name": "",
          "type": "string"
        }
      ],
      "stateMutability": "view",
      "type": "function"
    },
    {
      "inputs": [],
      "name": "tokensBurnt",
      "outputs": [
        {
          "internalType": "uint256",
          "name": "",
          "type": "uint256"
        }
      ],
      "stateMutability": "view",
      "type": "function"
    },
    {
      "inputs": [],
      "name": "tokensMinted",
      "outputs": [
        {
          "internalType": "uint256",
          "name": "",
          "type": "uint256"
        }
      ],
      "stateMutability": "view",
      "type": "function"
    },
    {
      "inputs": [],
      "name": "totalSupply",
      "outputs": [
        {
          "internalType": "uint256",
          "name": "",
          "type": "uint256"
        }
      ],
      "stateMutability": "view",
      "type": "function"
    },
    {
      "inputs": [
        {
          "internalType": "address",
          "name": "from",
          "type": "address"
        },
        {
          "internalType": "address",
          "name": "to",
          "type": "address"
        },
        {
          "internalType": "uint256",
          "name": "tokenId",
          "type": "uint256"
        }
      ],
      "name": "transferFrom",
      "outputs": [],
      "stateMutability": "nonpayable",
      "type": "function"
    },
    {
      "inputs": [
        {
          "internalType": "address",
          "name": "newOwner",
          "type": "address"
        }
      ],
      "name": "transferOwnership",
      "outputs": [],
      "stateMutability": "nonpayable",
      "type": "function"
    }
  ],
  "bytecode": "0x60806040523480156200001157600080fd5b506040518060400160405280601b81526020017f506f6c79446963653a204469636520526f6c6c696e67204461707000000000008152506040518060400160405280600881526020017f506f6c79446963650000000000000000000000000000000000000000000000008152506200009e62000092620000d860201b60201c565b620000e060201b60201c565b8160019080519060200190620000b6929190620001a4565b508060029080519060200190620000cf929190620001a4565b505050620002b9565b600033905090565b60008060009054906101000a900473ffffffffffffffffffffffffffffffffffffffff169050816000806101000a81548173ffffffffffffffffffffffffffffffffffffffff021916908373ffffffffffffffffffffffffffffffffffffffff1602179055508173ffffffffffffffffffffffffffffffffffffffff168173ffffffffffffffffffffffffffffffffffffffff167f8be0079c531659141344cd1fd0a4f28419497f9722a3daafe3b4186f6b6457e060405160405180910390a35050565b828054620001b29062000254565b90600052602060002090601f016020900481019282620001d6576000855562000222565b82601f10620001f157805160ff191683800117855562000222565b8280016001018555821562000222579182015b828111156200022157825182559160200191906001019062000204565b5b50905062000231919062000235565b5090565b5b808211156200025057600081600090555060010162000236565b5090565b600060028204905060018216806200026d57607f821691505b602082108114156200028457620002836200028a565b5b50919050565b7f4e487b7100000000000000000000000000000000000000000000000000000000600052602260045260246000fd5b61420980620002c96000396000f3fe608060405234801561001057600080fd5b506004361061018e5760003560e01c8063715018a6116100de578063b0d8b51f11610097578063c87b56dd11610071578063c87b56dd14610497578063e1dc0761146104c7578063e985e9c5146104f9578063f2fde38b146105295761018e565b8063b0d8b51f1461043f578063b88d4fde1461045d578063c6ead8af146104795761018e565b8063715018a61461037d5780638da5cb5b1461038757806395d89b41146103a5578063a22cb465146103c3578063a689e8c2146103df578063af6f8e7d1461040f5761018e565b80632f745c591161014b5780636352211e116101255780636352211e146102cf5780636618196c146102ff5780636de9f32b1461032f57806370a082311461034d5761018e565b80632f745c591461026757806342842e0e1461029757806355f804b3146102b35761018e565b806301ffc9a71461019357806306fdde03146101c3578063081812fc146101e1578063095ea7b31461021157806318160ddd1461022d57806323b872dd1461024b575b600080fd5b6101ad60048036038101906101a89190612b97565b610545565b6040516101ba919061330b565b60405180910390f35b6101cb610627565b6040516101d89190613326565b60405180910390f35b6101fb60048036038101906101f69190612cc9565b6106b9565b6040516102089190613260565b60405180910390f35b61022b60048036038101906102269190612b57565b61073e565b005b610235610856565b6040516102429190613688565b60405180910390f35b610265600480360381019061026091906129d2565b61086d565b005b610281600480360381019061027c9190612b57565b6108cd565b60405161028e919061366d565b60405180910390f35b6102b160048036038101906102ac91906129d2565b610996565b005b6102cd60048036038101906102c89190612bf1565b6109b6565b005b6102e960048036038101906102e49190612cc9565b610a48565b6040516102f69190613260565b60405180910390f35b61031960048036038101906103149190612965565b610afa565b60405161032691906132c7565b60405180910390f35b610337610bb9565b6040516103449190613688565b60405180910390f35b61036760048036038101906103629190612965565b610bbf565b6040516103749190613688565b60405180910390f35b610385610c77565b005b61038f610cff565b60405161039c9190613260565b60405180910390f35b6103ad610d28565b6040516103ba9190613326565b60405180910390f35b6103dd60048036038101906103d89190612aa8565b610dba565b005b6103f960048036038101906103f49190612ae8565b610dd0565b6040516104069190613688565b60405180910390f35b61042960048036038101906104249190612cf6565b610e93565b60405161043691906136a3565b60405180910390f35b610447610fa1565b60405161045491906132e9565b60405180910390f35b61047760048036038101906104729190612a25565b611051565b005b6104816110b3565b60405161048e9190613688565b60405180910390f35b6104b160048036038101906104ac9190612cc9565b6110b9565b6040516104be9190613326565b60405180910390f35b6104e160048036038101906104dc9190612cc9565b611160565b6040516104f093929190613348565b60405180910390f35b610513600480360381019061050e9190612992565b611203565b604051610520919061330b565b60405180910390f35b610543600480360381019061053e9190612965565b611297565b005b60007f80ac58cd000000000000000000000000000000000000000000000000000000007bffffffffffffffffffffffffffffffffffffffffffffffffffffffff1916827bffffffffffffffffffffffffffffffffffffffffffffffffffffffff1916148061061057507f5b5e139f000000000000000000000000000000000000000000000000000000007bffffffffffffffffffffffffffffffffffffffffffffffffffffffff1916827bffffffffffffffffffffffffffffffffffffffffffffffffffffffff1916145b80610620575061061f8261138f565b5b9050919050565b60606001805461063690613986565b80601f016020809104026020016040519081016040528092919081815260200182805461066290613986565b80156106af5780601f10610684576101008083540402835291602001916106af565b820191906000526020600020905b81548152906001019060200180831161069257829003601f168201915b5050505050905090565b60006106c4826113f9565b610703576040517f08c379a00000000000000000000000000000000000000000000000000000000081526004016106fa9061352d565b60405180910390fd5b6005600083815260200190815260200160002060009054906101000a900473ffffffffffffffffffffffffffffffffffffffff169050919050565b600061074982610a48565b90508073ffffffffffffffffffffffffffffffffffffffff168373ffffffffffffffffffffffffffffffffffffffff1614156107ba576040517f08c379a00000000000000000000000000000000000000000000000000000000081526004016107b1906135ad565b60405180910390fd5b8073ffffffffffffffffffffffffffffffffffffffff166107d9611465565b73ffffffffffffffffffffffffffffffffffffffff161480610808575061080781610802611465565b611203565b5b610847576040517f08c379a000000000000000000000000000000000000000000000000000000000815260040161083e906134ad565b60405180910390fd5b610851838361146d565b505050565b60006009546008546108689190613881565b905090565b61087e610878611465565b82611526565b6108bd576040517f08c379a00000000000000000000000000000000000000000000000000000000081526004016108b4906135cd565b60405180910390fd5b6108c8838383611604565b505050565b60006108d883610bbf565b8210610919576040517f08c379a00000000000000000000000000000000000000000000000000000000081526004016109109061358d565b60405180910390fd5b600760008473ffffffffffffffffffffffffffffffffffffffff1673ffffffffffffffffffffffffffffffffffffffff168152602001908152602001600020828154811061096a57610969613b4e565b5b90600052602060002090601091828204019190066002029054906101000a900461ffff16905092915050565b6109b183838360405180602001604052806000815250611051565b505050565b6109be611465565b73ffffffffffffffffffffffffffffffffffffffff166109dc610cff565b73ffffffffffffffffffffffffffffffffffffffff1614610a32576040517f08c379a0000000000000000000000000000000000000000000000000000000008152600401610a299061354d565b60405180910390fd5b8181600c9190610a439291906125ee565b505050565b6000806003600084815260200190815260200160002060009054906101000a900473ffffffffffffffffffffffffffffffffffffffff169050600073ffffffffffffffffffffffffffffffffffffffff168173ffffffffffffffffffffffffffffffffffffffff161415610af1576040517f08c379a0000000000000000000000000000000000000000000000000000000008152600401610ae8906134ed565b60405180910390fd5b80915050919050565b6060600760008373ffffffffffffffffffffffffffffffffffffffff1673ffffffffffffffffffffffffffffffffffffffff168152602001908152602001600020805480602002602001604051908101604052809291908181526020018280548015610bad57602002820191906000526020600020906000905b82829054906101000a900461ffff1661ffff1681526020019060020190602082600101049283019260010382029150808411610b745790505b50505050509050919050565b60085481565b60008073ffffffffffffffffffffffffffffffffffffffff168273ffffffffffffffffffffffffffffffffffffffff161415610c30576040517f08c379a0000000000000000000000000000000000000000000000000000000008152600401610c27906134cd565b60405180910390fd5b600460008373ffffffffffffffffffffffffffffffffffffffff1673ffffffffffffffffffffffffffffffffffffffff168152602001908152602001600020549050919050565b610c7f611465565b73ffffffffffffffffffffffffffffffffffffffff16610c9d610cff565b73ffffffffffffffffffffffffffffffffffffffff1614610cf3576040517f08c379a0000000000000000000000000000000000000000000000000000000008152600401610cea9061354d565b60405180910390fd5b610cfd600061186b565b565b60008060009054906101000a900473ffffffffffffffffffffffffffffffffffffffff16905090565b606060028054610d3790613986565b80601f0160208091040260200160405190810160405280929190818152602001828054610d6390613986565b8015610db05780601f10610d8557610100808354040283529160200191610db0565b820191906000526020600020905b815481529060010190602001808311610d9357829003601f168201915b5050505050905090565b610dcc610dc5611465565b838361192f565b5050565b6000610dda611465565b73ffffffffffffffffffffffffffffffffffffffff16610df8610cff565b73ffffffffffffffffffffffffffffffffffffffff1614610e4e576040517f08c379a0000000000000000000000000000000000000000000000000000000008152600401610e459061354d565b60405180910390fd5b6000610e5a600b611a9c565b9050610e74848285600a611aaa909392919063ffffffff16565b610e7e8582611bf0565b610e88600b611c0e565b809150509392505050565b6000610e9e83610a48565b73ffffffffffffffffffffffffffffffffffffffff163373ffffffffffffffffffffffffffffffffffffffff1614610f0b576040517f08c379a0000000000000000000000000000000000000000000000000000000008152600401610f02906135ed565b60405180910390fd5b600a73__$3b68987207f559b9bfdbbec8c00268de72$__63d20f53f1909185856040518463ffffffff1660e01b8152600401610f4993929190613636565b60206040518083038186803b158015610f6157600080fd5b505af4158015610f75573d6000803e3d6000fd5b505050506040513d601f19601f82011682018060405250810190610f999190612d36565b905092915050565b60606000610fae33610bbf565b905060008167ffffffffffffffff811115610fcc57610fcb613b7d565b5b604051908082528060200260200182016040528015610ffa5781602001602082028036833780820191505090505b50905060005b828110156110485761101233826108cd565b61ffff1682828151811061102957611028613b4e565b5b6020026020010181815250508080611040906139e9565b915050611000565b50809250505090565b61106261105c611465565b83611526565b6110a1576040517f08c379a0000000000000000000000000000000000000000000000000000000008152600401611098906135cd565b60405180910390fd5b6110ad84848484611c24565b50505050565b60095481565b60606110c4826113f9565b611103576040517f08c379a00000000000000000000000000000000000000000000000000000000081526004016110fa9061356d565b60405180910390fd5b600061110d611c80565b9050600081511161112d5760405180602001604052806000815250611158565b8061113784611d12565b60405160200161114892919061323c565b6040516020818303038152906040525b915050919050565b6060806000600a73__$3b68987207f559b9bfdbbec8c00268de72$__6323f5b9fc9091866040518363ffffffff1660e01b81526004016111a192919061360d565b60006040518083038186803b1580156111b957600080fd5b505af41580156111cd573d6000803e3d6000fd5b505050506040513d6000823e3d601f19601f820116820180604052508101906111f69190612c3e565b9250925092509193909250565b6000600660008473ffffffffffffffffffffffffffffffffffffffff1673ffffffffffffffffffffffffffffffffffffffff16815260200190815260200160002060008373ffffffffffffffffffffffffffffffffffffffff1673ffffffffffffffffffffffffffffffffffffffff16815260200190815260200160002060009054906101000a900460ff16905092915050565b61129f611465565b73ffffffffffffffffffffffffffffffffffffffff166112bd610cff565b73ffffffffffffffffffffffffffffffffffffffff1614611313576040517f08c379a000000000000000000000000000000000000000000000000000000000815260040161130a9061354d565b60405180910390fd5b600073ffffffffffffffffffffffffffffffffffffffff168173ffffffffffffffffffffffffffffffffffffffff161415611383576040517f08c379a000000000000000000000000000000000000000000000000000000000815260040161137a906133ed565b60405180910390fd5b61138c8161186b565b50565b60007f01ffc9a7000000000000000000000000000000000000000000000000000000007bffffffffffffffffffffffffffffffffffffffffffffffffffffffff1916827bffffffffffffffffffffffffffffffffffffffffffffffffffffffff1916149050919050565b60008073ffffffffffffffffffffffffffffffffffffffff166003600084815260200190815260200160002060009054906101000a900473ffffffffffffffffffffffffffffffffffffffff1673ffffffffffffffffffffffffffffffffffffffff1614159050919050565b600033905090565b816005600083815260200190815260200160002060006101000a81548173ffffffffffffffffffffffffffffffffffffffff021916908373ffffffffffffffffffffffffffffffffffffffff160217905550808273ffffffffffffffffffffffffffffffffffffffff166114e083610a48565b73ffffffffffffffffffffffffffffffffffffffff167f8c5be1e5ebec7d5bd14f71427d1e84f3dd0314c0f7b2291e5b200ac8c7c3b92560405160405180910390a45050565b6000611531826113f9565b611570576040517f08c379a00000000000000000000000000000000000000000000000000000000081526004016115679061348d565b60405180910390fd5b600061157b83610a48565b90508073ffffffffffffffffffffffffffffffffffffffff168473ffffffffffffffffffffffffffffffffffffffff1614806115ea57508373ffffffffffffffffffffffffffffffffffffffff166115d2846106b9565b73ffffffffffffffffffffffffffffffffffffffff16145b806115fb57506115fa8185611203565b5b91505092915050565b8273ffffffffffffffffffffffffffffffffffffffff1661162482610a48565b73ffffffffffffffffffffffffffffffffffffffff161461167a576040517f08c379a00000000000000000000000000000000000000000000000000000000081526004016116719061340d565b60405180910390fd5b600073ffffffffffffffffffffffffffffffffffffffff168273ffffffffffffffffffffffffffffffffffffffff1614156116ea576040517f08c379a00000000000000000000000000000000000000000000000000000000081526004016116e19061344d565b60405180910390fd5b6116f5838383611e73565b61170060008261146d565b6001600460008573ffffffffffffffffffffffffffffffffffffffff1673ffffffffffffffffffffffffffffffffffffffff16815260200190815260200160002060008282546117509190613881565b925050819055506001600460008473ffffffffffffffffffffffffffffffffffffffff1673ffffffffffffffffffffffffffffffffffffffff16815260200190815260200160002060008282546117a791906137fa565b92505081905550816003600083815260200190815260200160002060006101000a81548173ffffffffffffffffffffffffffffffffffffffff021916908373ffffffffffffffffffffffffffffffffffffffff160217905550808273ffffffffffffffffffffffffffffffffffffffff168473ffffffffffffffffffffffffffffffffffffffff167fddf252ad1be2c89b69c2b068fc378daa952ba7f163c4a11628f55a4df523b3ef60405160405180910390a4611866838383611f6b565b505050565b60008060009054906101000a900473ffffffffffffffffffffffffffffffffffffffff169050816000806101000a81548173ffffffffffffffffffffffffffffffffffffffff021916908373ffffffffffffffffffffffffffffffffffffffff1602179055508173ffffffffffffffffffffffffffffffffffffffff168173ffffffffffffffffffffffffffffffffffffffff167f8be0079c531659141344cd1fd0a4f28419497f9722a3daafe3b4186f6b6457e060405160405180910390a35050565b8173ffffffffffffffffffffffffffffffffffffffff168373ffffffffffffffffffffffffffffffffffffffff16141561199e576040517f08c379a00000000000000000000000000000000000000000000000000000000081526004016119959061346d565b60405180910390fd5b80600660008573ffffffffffffffffffffffffffffffffffffffff1673ffffffffffffffffffffffffffffffffffffffff16815260200190815260200160002060008473ffffffffffffffffffffffffffffffffffffffff1673ffffffffffffffffffffffffffffffffffffffff16815260200190815260200160002060006101000a81548160ff0219169083151502179055508173ffffffffffffffffffffffffffffffffffffffff168373ffffffffffffffffffffffffffffffffffffffff167f17307eab39ab6107e8899845ad3d59bd9653f200f220920489ca2b5937696c3183604051611a8f919061330b565b60405180910390a3505050565b600081600001549050919050565b60008160ff1611611af0576040517f08c379a0000000000000000000000000000000000000000000000000000000008152600401611ae79061338d565b60405180910390fd5b600080600a8360ff1614611b05576000611b08565b60015b905060405180608001604052808681526020018460ff1681526020018215158152602001836002811115611b3f57611b3e613ac1565b5b8152508660000160008681526020019081526020016000206000820151816000019080519060200190611b73929190612674565b5060208201518160010160006101000a81548160ff021916908360ff16021790555060408201518160010160016101000a81548160ff02191690831515021790555060608201518160010160026101000a81548160ff02191690836002811115611be057611bdf613ac1565b5b0217905550905050505050505050565b611c0a828260405180602001604052806000815250611f70565b5050565b6001816000016000828254019250508190555050565b611c2f848484611604565b611c3b84848484611fcb565b611c7a576040517f08c379a0000000000000000000000000000000000000000000000000000000008152600401611c71906133cd565b60405180910390fd5b50505050565b6060600c8054611c8f90613986565b80601f0160208091040260200160405190810160405280929190818152602001828054611cbb90613986565b8015611d085780601f10611cdd57610100808354040283529160200191611d08565b820191906000526020600020905b815481529060010190602001808311611ceb57829003601f168201915b5050505050905090565b60606000821415611d5a576040518060400160405280600181526020017f30000000000000000000000000000000000000000000000000000000000000008152509050611e6e565b600082905060005b60008214611d8c578080611d75906139e9565b915050600a82611d859190613850565b9150611d62565b60008167ffffffffffffffff811115611da857611da7613b7d565b5b6040519080825280601f01601f191660200182016040528015611dda5781602001600182028036833780820191505090505b5090505b60008514611e6757600182611df39190613881565b9150600a85611e029190613a32565b6030611e0e91906137fa565b60f81b818381518110611e2457611e23613b4e565b5b60200101907effffffffffffffffffffffffffffffffffffffffffffffffffffffffffffff1916908160001a905350600a85611e609190613850565b9450611dde565b8093505050505b919050565b611e7e838383612162565b8273ffffffffffffffffffffffffffffffffffffffff168273ffffffffffffffffffffffffffffffffffffffff1614611f6657611ebb8282612167565b600073ffffffffffffffffffffffffffffffffffffffff168373ffffffffffffffffffffffffffffffffffffffff1614611efe57611ef983826121f2565b611f17565b60086000815480929190611f11906139e9565b91905055505b600073ffffffffffffffffffffffffffffffffffffffff168273ffffffffffffffffffffffffffffffffffffffff161415611f655760096000815480929190611f5f906139e9565b91905055505b5b505050565b505050565b611f7a83836123f1565b611f876000848484611fcb565b611fc6576040517f08c379a0000000000000000000000000000000000000000000000000000000008152600401611fbd906133cd565b60405180910390fd5b505050565b6000611fec8473ffffffffffffffffffffffffffffffffffffffff166125cb565b15612155578373ffffffffffffffffffffffffffffffffffffffff1663150b7a02612015611465565b8786866040518563ffffffff1660e01b8152600401612037949392919061327b565b602060405180830381600087803b15801561205157600080fd5b505af192505050801561208257506040513d601f19601f8201168201806040525081019061207f9190612bc4565b60015b612105573d80600081146120b2576040519150601f19603f3d011682016040523d82523d6000602084013e6120b7565b606091505b506000815114156120fd576040517f08c379a00000000000000000000000000000000000000000000000000000000081526004016120f4906133cd565b60405180910390fd5b805181602001fd5b63150b7a0260e01b7bffffffffffffffffffffffffffffffffffffffffffffffffffffffff1916817bffffffffffffffffffffffffffffffffffffffffffffffffffffffff19161491505061215a565b600190505b949350505050565b505050565b600760008373ffffffffffffffffffffffffffffffffffffffff1673ffffffffffffffffffffffffffffffffffffffff1681526020019081526020016000208190806001815401808255809150506001900390600052602060002090601091828204019190066002029091909190916101000a81548161ffff021916908361ffff1602179055505050565b6000600760008473ffffffffffffffffffffffffffffffffffffffff1673ffffffffffffffffffffffffffffffffffffffff168152602001908152602001600020905060008180549050905060005b82805490508110156122ae578361ffff1683828154811061226557612264613b4e565b5b90600052602060002090601091828204019190066002029054906101000a900461ffff1661ffff16141561229b578091506122ae565b80806122a6906139e9565b915050612241565b50818054905081106122f5576040517f08c379a00000000000000000000000000000000000000000000000000000000081526004016122ec906133ad565b60405180910390fd5b60008190505b6001838054905061230c9190613881565b8110156123ab578260018261232191906137fa565b8154811061233257612331613b4e565b5b90600052602060002090601091828204019190066002029054906101000a900461ffff1683828154811061236957612368613b4e565b5b90600052602060002090601091828204019190066002026101000a81548161ffff021916908361ffff16021790555080806123a3906139e9565b9150506122fb565b50818054806123bd576123bc613b1f565b5b60019003818190600052602060002090601091828204019190066002026101000a81549061ffff0219169055905550505050565b600073ffffffffffffffffffffffffffffffffffffffff168273ffffffffffffffffffffffffffffffffffffffff161415612461576040517f08c379a00000000000000000000000000000000000000000000000000000000081526004016124589061350d565b60405180910390fd5b61246a816113f9565b156124aa576040517f08c379a00000000000000000000000000000000000000000000000000000000081526004016124a19061342d565b60405180910390fd5b6124b660008383611e73565b6001600460008473ffffffffffffffffffffffffffffffffffffffff1673ffffffffffffffffffffffffffffffffffffffff168152602001908152602001600020600082825461250691906137fa565b92505081905550816003600083815260200190815260200160002060006101000a81548173ffffffffffffffffffffffffffffffffffffffff021916908373ffffffffffffffffffffffffffffffffffffffff160217905550808273ffffffffffffffffffffffffffffffffffffffff16600073ffffffffffffffffffffffffffffffffffffffff167fddf252ad1be2c89b69c2b068fc378daa952ba7f163c4a11628f55a4df523b3ef60405160405180910390a46125c760008383611f6b565b5050565b6000808273ffffffffffffffffffffffffffffffffffffffff163b119050919050565b8280546125fa90613986565b90600052602060002090601f01602090048101928261261c5760008555612663565b82601f1061263557803560ff1916838001178555612663565b82800160010185558215612663579182015b82811115612662578235825591602001919060010190612647565b5b50905061267091906126fa565b5090565b82805461268090613986565b90600052602060002090601f0160209004810192826126a257600085556126e9565b82601f106126bb57805160ff19168380011785556126e9565b828001600101855582156126e9579182015b828111156126e85782518255916020019190600101906126cd565b5b5090506126f691906126fa565b5090565b5b808211156127135760008160009055506001016126fb565b5090565b600061272a612725846136e3565b6136be565b90508281526020810184848401111561274657612745613bbb565b5b612751848285613944565b509392505050565b600061276c61276784613714565b6136be565b90508281526020810184848401111561278857612787613bbb565b5b612793848285613944565b509392505050565b60006127ae6127a984613714565b6136be565b9050828152602081018484840111156127ca576127c9613bbb565b5b6127d5848285613953565b509392505050565b6000813590506127ec81614149565b92915050565b60008135905061280181614160565b92915050565b60008135905061281681614177565b92915050565b60008151905061282b81614177565b92915050565b600082601f83011261284657612845613bb1565b5b8135612856848260208601612717565b91505092915050565b60008083601f84011261287557612874613bb1565b5b8235905067ffffffffffffffff81111561289257612891613bac565b5b6020830191508360018202830111156128ae576128ad613bb6565b5b9250929050565b600082601f8301126128ca576128c9613bb1565b5b81356128da848260208601612759565b91505092915050565b600082601f8301126128f8576128f7613bb1565b5b815161290884826020860161279b565b91505092915050565b6000813590506129208161418e565b92915050565b600081359050612935816141a5565b92915050565b60008135905061294a816141bc565b92915050565b60008151905061295f816141bc565b92915050565b60006020828403121561297b5761297a613bc5565b5b6000612989848285016127dd565b91505092915050565b600080604083850312156129a9576129a8613bc5565b5b60006129b7858286016127dd565b92505060206129c8858286016127dd565b9150509250929050565b6000806000606084860312156129eb576129ea613bc5565b5b60006129f9868287016127dd565b9350506020612a0a868287016127dd565b9250506040612a1b86828701612926565b9150509250925092565b60008060008060808587031215612a3f57612a3e613bc5565b5b6000612a4d878288016127dd565b9450506020612a5e878288016127dd565b9350506040612a6f87828801612926565b925050606085013567ffffffffffffffff811115612a9057612a8f613bc0565b5b612a9c87828801612831565b91505092959194509250565b60008060408385031215612abf57612abe613bc5565b5b6000612acd858286016127dd565b9250506020612ade858286016127f2565b9150509250929050565b600080600060608486031215612b0157612b00613bc5565b5b6000612b0f868287016127dd565b935050602084013567ffffffffffffffff811115612b3057612b2f613bc0565b5b612b3c868287016128b5565b9250506040612b4d8682870161293b565b9150509250925092565b60008060408385031215612b6e57612b6d613bc5565b5b6000612b7c858286016127dd565b9250506020612b8d85828601612926565b9150509250929050565b600060208284031215612bad57612bac613bc5565b5b6000612bbb84828501612807565b91505092915050565b600060208284031215612bda57612bd9613bc5565b5b6000612be88482850161281c565b91505092915050565b60008060208385031215612c0857612c07613bc5565b5b600083013567ffffffffffffffff811115612c2657612c25613bc0565b5b612c328582860161285f565b92509250509250929050565b600080600060608486031215612c5757612c56613bc5565b5b600084015167ffffffffffffffff811115612c7557612c74613bc0565b5b612c81868287016128e3565b935050602084015167ffffffffffffffff811115612ca257612ca1613bc0565b5b612cae868287016128e3565b9250506040612cbf86828701612950565b9150509250925092565b600060208284031215612cdf57612cde613bc5565b5b6000612ced84828501612926565b91505092915050565b60008060408385031215612d0d57612d0c613bc5565b5b6000612d1b85828601612926565b9250506020612d2c85828601612911565b9150509250929050565b600060208284031215612d4c57612d4b613bc5565b5b6000612d5a84828501612950565b91505092915050565b6000612d6f83836131d3565b60208301905092915050565b6000612d878383613200565b60208301905092915050565b612d9c816138b5565b82525050565b6000612dad82613765565b612db781856137ab565b9350612dc283613745565b8060005b83811015612df3578151612dda8882612d63565b9750612de583613791565b925050600181019050612dc6565b5085935050505092915050565b6000612e0b82613770565b612e1581856137bc565b9350612e2083613755565b8060005b83811015612e51578151612e388882612d7b565b9750612e438361379e565b925050600181019050612e24565b5085935050505092915050565b612e67816138c7565b82525050565b6000612e788261377b565b612e8281856137cd565b9350612e92818560208601613953565b612e9b81613bca565b840191505092915050565b6000612eb182613786565b612ebb81856137de565b9350612ecb818560208601613953565b612ed481613bca565b840191505092915050565b6000612eea82613786565b612ef481856137ef565b9350612f04818560208601613953565b80840191505092915050565b6000612f1d6016836137de565b9150612f2882613bdb565b602082019050919050565b6000612f406037836137de565b9150612f4b82613c04565b604082019050919050565b6000612f636032836137de565b9150612f6e82613c53565b604082019050919050565b6000612f866026836137de565b9150612f9182613ca2565b604082019050919050565b6000612fa96025836137de565b9150612fb482613cf1565b604082019050919050565b6000612fcc601c836137de565b9150612fd782613d40565b602082019050919050565b6000612fef6024836137de565b9150612ffa82613d69565b604082019050919050565b60006130126019836137de565b915061301d82613db8565b602082019050919050565b6000613035602c836137de565b915061304082613de1565b604082019050919050565b60006130586038836137de565b915061306382613e30565b604082019050919050565b600061307b602a836137de565b915061308682613e7f565b604082019050919050565b600061309e6029836137de565b91506130a982613ece565b604082019050919050565b60006130c16020836137de565b91506130cc82613f1d565b602082019050919050565b60006130e4602c836137de565b91506130ef82613f46565b604082019050919050565b60006131076020836137de565b915061311282613f95565b602082019050919050565b600061312a602f836137de565b915061313582613fbe565b604082019050919050565b600061314d6031836137de565b91506131588261400d565b604082019050919050565b60006131706021836137de565b915061317b8261405c565b604082019050919050565b60006131936031836137de565b915061319e826140ab565b604082019050919050565b60006131b6603f836137de565b91506131c1826140fa565b604082019050919050565b8082525050565b6131dc816138ff565b82525050565b6131eb816138ff565b82525050565b6131fa816138ff565b82525050565b6132098161392d565b82525050565b6132188161392d565b82525050565b6132278161392d565b82525050565b61323681613937565b82525050565b60006132488285612edf565b91506132548284612edf565b91508190509392505050565b60006020820190506132756000830184612d93565b92915050565b60006080820190506132906000830187612d93565b61329d6020830186612d93565b6132aa604083018561320f565b81810360608301526132bc8184612e6d565b905095945050505050565b600060208201905081810360008301526132e18184612da2565b905092915050565b600060208201905081810360008301526133038184612e00565b905092915050565b60006020820190506133206000830184612e5e565b92915050565b600060208201905081810360008301526133408184612ea6565b905092915050565b600060608201905081810360008301526133628186612ea6565b905081810360208301526133768185612ea6565b9050613385604083018461322d565b949350505050565b600060208201905081810360008301526133a681612f10565b9050919050565b600060208201905081810360008301526133c681612f33565b9050919050565b600060208201905081810360008301526133e681612f56565b9050919050565b6000602082019050818103600083015261340681612f79565b9050919050565b6000602082019050818103600083015261342681612f9c565b9050919050565b6000602082019050818103600083015261344681612fbf565b9050919050565b6000602082019050818103600083015261346681612fe2565b9050919050565b6000602082019050818103600083015261348681613005565b9050919050565b600060208201905081810360008301526134a681613028565b9050919050565b600060208201905081810360008301526134c68161304b565b9050919050565b600060208201905081810360008301526134e68161306e565b9050919050565b6000602082019050818103600083015261350681613091565b9050919050565b60006020820190508181036000830152613526816130b4565b9050919050565b60006020820190508181036000830152613546816130d7565b9050919050565b60006020820190508181036000830152613566816130fa565b9050919050565b600060208201905081810360008301526135868161311d565b9050919050565b600060208201905081810360008301526135a681613140565b9050919050565b600060208201905081810360008301526135c681613163565b9050919050565b600060208201905081810360008301526135e681613186565b9050919050565b60006020820190508181036000830152613606816131a9565b9050919050565b600060408201905061362260008301856131cc565b61362f602083018461321e565b9392505050565b600060608201905061364b60008301866131cc565b613658602083018561321e565b61366560408301846131f1565b949350505050565b600060208201905061368260008301846131e2565b92915050565b600060208201905061369d600083018461320f565b92915050565b60006020820190506136b8600083018461322d565b92915050565b60006136c86136d9565b90506136d482826139b8565b919050565b6000604051905090565b600067ffffffffffffffff8211156136fe576136fd613b7d565b5b61370782613bca565b9050602081019050919050565b600067ffffffffffffffff82111561372f5761372e613b7d565b5b61373882613bca565b9050602081019050919050565b6000819050602082019050919050565b6000819050602082019050919050565b600081519050919050565b600081519050919050565b600081519050919050565b600081519050919050565b6000602082019050919050565b6000602082019050919050565b600082825260208201905092915050565b600082825260208201905092915050565b600082825260208201905092915050565b600082825260208201905092915050565b600081905092915050565b60006138058261392d565b91506138108361392d565b9250827fffffffffffffffffffffffffffffffffffffffffffffffffffffffffffffffff0382111561384557613844613a63565b5b828201905092915050565b600061385b8261392d565b91506138668361392d565b92508261387657613875613a92565b5b828204905092915050565b600061388c8261392d565b91506138978361392d565b9250828210156138aa576138a9613a63565b5b828203905092915050565b60006138c08261390d565b9050919050565b60008115159050919050565b60007fffffffff0000000000000000000000000000000000000000000000000000000082169050919050565b600061ffff82169050919050565b600073ffffffffffffffffffffffffffffffffffffffff82169050919050565b6000819050919050565b600060ff82169050919050565b82818337600083830152505050565b60005b83811015613971578082015181840152602081019050613956565b83811115613980576000848401525b50505050565b6000600282049050600182168061399e57607f821691505b602082108114156139b2576139b1613af0565b5b50919050565b6139c182613bca565b810181811067ffffffffffffffff821117156139e0576139df613b7d565b5b80604052505050565b60006139f48261392d565b91507fffffffffffffffffffffffffffffffffffffffffffffffffffffffffffffffff821415613a2757613a26613a63565b5b600182019050919050565b6000613a3d8261392d565b9150613a488361392d565b925082613a5857613a57613a92565b5b828206905092915050565b7f4e487b7100000000000000000000000000000000000000000000000000000000600052601160045260246000fd5b7f4e487b7100000000000000000000000000000000000000000000000000000000600052601260045260246000fd5b7f4e487b7100000000000000000000000000000000000000000000000000000000600052602160045260246000fd5b7f4e487b7100000000000000000000000000000000000000000000000000000000600052602260045260246000fd5b7f4e487b7100000000000000000000000000000000000000000000000000000000600052603160045260246000fd5b7f4e487b7100000000000000000000000000000000000000000000000000000000600052603260045260246000fd5b7f4e487b7100000000000000000000000000000000000000000000000000000000600052604160045260246000fd5b600080fd5b600080fd5b600080fd5b600080fd5b600080fd5b600080fd5b6000601f19601f8301169050919050565b7f5369646573206d757374206265206e6f6e2d7a65726f00000000000000000000600082015250565b7f45524337323153696d706c65456e756d657261626c653a20746f6b656e49642060008201527f6e6f7420666f756e6420696e206f776e6572206c697374000000000000000000602082015250565b7f4552433732313a207472616e7366657220746f206e6f6e20455243373231526560008201527f63656976657220696d706c656d656e7465720000000000000000000000000000602082015250565b7f4f776e61626c653a206e6577206f776e657220697320746865207a65726f206160008201527f6464726573730000000000000000000000000000000000000000000000000000602082015250565b7f4552433732313a207472616e736665722066726f6d20696e636f72726563742060008201527f6f776e6572000000000000000000000000000000000000000000000000000000602082015250565b7f4552433732313a20746f6b656e20616c7265616479206d696e74656400000000600082015250565b7f4552433732313a207472616e7366657220746f20746865207a65726f2061646460008201527f7265737300000000000000000000000000000000000000000000000000000000602082015250565b7f4552433732313a20617070726f766520746f2063616c6c657200000000000000600082015250565b7f4552433732313a206f70657261746f7220717565727920666f72206e6f6e657860008201527f697374656e7420746f6b656e0000000000000000000000000000000000000000602082015250565b7f4552433732313a20617070726f76652063616c6c6572206973206e6f74206f7760008201527f6e6572206e6f7220617070726f76656420666f7220616c6c0000000000000000602082015250565b7f4552433732313a2062616c616e636520717565727920666f7220746865207a6560008201527f726f206164647265737300000000000000000000000000000000000000000000602082015250565b7f4552433732313a206f776e657220717565727920666f72206e6f6e657869737460008201527f656e7420746f6b656e0000000000000000000000000000000000000000000000602082015250565b7f4552433732313a206d696e7420746f20746865207a65726f2061646472657373600082015250565b7f4552433732313a20617070726f76656420717565727920666f72206e6f6e657860008201527f697374656e7420746f6b656e0000000000000000000000000000000000000000602082015250565b7f4f776e61626c653a2063616c6c6572206973206e6f7420746865206f776e6572600082015250565b7f4552433732314d657461646174613a2055524920717565727920666f72206e6f60008201527f6e6578697374656e7420746f6b656e0000000000000000000000000000000000602082015250565b7f45524337323153696d706c65456e756d657261626c653a206f776e657220696e60008201527f646578206f7574206f6620626f756e6473000000000000000000000000000000602082015250565b7f4552433732313a20617070726f76616c20746f2063757272656e74206f776e6560008201527f7200000000000000000000000000000000000000000000000000000000000000602082015250565b7f4552433732313a207472616e736665722063616c6c6572206973206e6f74206f60008201527f776e6572206e6f7220617070726f766564000000000000000000000000000000602082015250565b7f41682041682041682c20796f75206469646e27742073617920746865206d616760008201527f696320776f7264212028546869732069736e277420796f7572204e46542e2900602082015250565b614152816138b5565b811461415d57600080fd5b50565b614169816138c7565b811461417457600080fd5b50565b614180816138d3565b811461418b57600080fd5b50565b614197816138ff565b81146141a257600080fd5b50565b6141ae8161392d565b81146141b957600080fd5b50565b6141c581613937565b81146141d057600080fd5b5056fea2646970667358221220ee90268ef95d2a93f875a57abfa88b970cfccfcda5db23682aa111bb52c6d22b64736f6c63430008060033",
  "linkReferences": {
    "contracts/DiceLibrary.sol": {
      "DiceLibrary": [
        {
          "length": 20,
          "start": 4568
        },
        {
          "length": 20,
          "start": 5170
        }
      ]
    }
  },
  "deployedLinkReferences": {
    "contracts/DiceLibrary.sol": {
      "DiceLibrary": [
        {
          "length": 20,
          "start": 3855
        },
        {
          "length": 20,
          "start": 4457
        }
      ]
    }
  }
}