{
  "_format": "hh-sol-artifact-1",
  "contractName": "TabletopDiceNFT",
  "sourceName": "contracts/Dice.sol",
  "abi": [
    {
      "inputs": [],
      "stateMutability": "nonpayable",
      "type": "constructor"
    },
    {
      "anonymous": false,
      "inputs": [
        {
          "indexed": true,
          "internalType": "address",
          "name": "owner",
          "type": "address"
        },
        {
          "indexed": true,
          "internalType": "address",
          "name": "approved",
          "type": "address"
        },
        {
          "indexed": true,
          "internalType": "uint256",
          "name": "tokenId",
          "type": "uint256"
        }
      ],
      "name": "Approval",
      "type": "event"
    },
    {
      "anonymous": false,
      "inputs": [
        {
          "indexed": true,
          "internalType": "address",
          "name": "owner",
          "type": "address"
        },
        {
          "indexed": true,
          "internalType": "address",
          "name": "operator",
          "type": "address"
        },
        {
          "indexed": false,
          "internalType": "bool",
          "name": "approved",
          "type": "bool"
        }
      ],
      "name": "ApprovalForAll",
      "type": "event"
    },
    {
      "anonymous": false,
      "inputs": [
        {
          "indexed": true,
          "internalType": "address",
          "name": "previousOwner",
          "type": "address"
        },
        {
          "indexed": true,
          "internalType": "address",
          "name": "newOwner",
          "type": "address"
        }
      ],
      "name": "OwnershipTransferred",
      "type": "event"
    },
    {
      "anonymous": false,
      "inputs": [
        {
          "indexed": true,
          "internalType": "address",
          "name": "from",
          "type": "address"
        },
        {
          "indexed": true,
          "internalType": "address",
          "name": "to",
          "type": "address"
        },
        {
          "indexed": true,
          "internalType": "uint256",
          "name": "tokenId",
          "type": "uint256"
        }
      ],
      "name": "Transfer",
      "type": "event"
    },
    {
      "inputs": [
        {
          "internalType": "address",
          "name": "to",
          "type": "address"
        },
        {
          "internalType": "uint256",
          "name": "tokenId",
          "type": "uint256"
        }
      ],
      "name": "approve",
      "outputs": [],
      "stateMutability": "nonpayable",
      "type": "function"
    },
    {
      "inputs": [
        {
          "internalType": "address",
          "name": "owner",
          "type": "address"
        }
      ],
      "name": "balanceOf",
      "outputs": [
        {
          "internalType": "uint256",
          "name": "",
          "type": "uint256"
        }
      ],
      "stateMutability": "view",
      "type": "function"
    },
    {
      "inputs": [
        {
          "internalType": "uint256",
          "name": "tokenId",
          "type": "uint256"
        }
      ],
      "name": "getApproved",
      "outputs": [
        {
          "internalType": "address",
          "name": "",
          "type": "address"
        }
      ],
      "stateMutability": "view",
      "type": "function"
    },
    {
      "inputs": [],
      "name": "getOwnedTokenIds",
      "outputs": [
        {
          "internalType": "uint256[]",
          "name": "",
          "type": "uint256[]"
        }
      ],
      "stateMutability": "view",
      "type": "function"
    },
    {
      "inputs": [
        {
          "internalType": "uint256",
          "name": "tokenId",
          "type": "uint256"
        }
      ],
      "name": "getTraits",
      "outputs": [
        {
          "internalType": "string",
          "name": "name",
          "type": "string"
        },
        {
          "internalType": "string",
          "name": "tokenURI",
          "type": "string"
        },
        {
          "internalType": "uint8",
          "name": "sides",
          "type": "uint8"
        }
      ],
      "stateMutability": "view",
      "type": "function"
    },
    {
      "inputs": [
        {
          "internalType": "address",
          "name": "owner",
          "type": "address"
        },
        {
          "internalType": "address",
          "name": "operator",
          "type": "address"
        }
      ],
      "name": "isApprovedForAll",
      "outputs": [
        {
          "internalType": "bool",
          "name": "",
          "type": "bool"
        }
      ],
      "stateMutability": "view",
      "type": "function"
    },
    {
      "inputs": [
        {
          "internalType": "address",
          "name": "owner",
          "type": "address"
        },
        {
          "internalType": "string",
          "name": "name",
          "type": "string"
        },
        {
          "internalType": "uint8",
          "name": "sides",
          "type": "uint8"
        }
      ],
      "name": "mintNFT",
      "outputs": [
        {
          "internalType": "uint256",
          "name": "",
          "type": "uint256"
        }
      ],
      "stateMutability": "nonpayable",
      "type": "function"
    },
    {
      "inputs": [],
      "name": "name",
      "outputs": [
        {
          "internalType": "string",
          "name": "",
          "type": "string"
        }
      ],
      "stateMutability": "view",
      "type": "function"
    },
    {
      "inputs": [],
      "name": "owner",
      "outputs": [
        {
          "internalType": "address",
          "name": "",
          "type": "address"
        }
      ],
      "stateMutability": "view",
      "type": "function"
    },
    {
      "inputs": [
        {
          "internalType": "uint256",
          "name": "tokenId",
          "type": "uint256"
        }
      ],
      "name": "ownerOf",
      "outputs": [
        {
          "internalType": "address",
          "name": "",
          "type": "address"
        }
      ],
      "stateMutability": "view",
      "type": "function"
    },
    {
      "inputs": [],
      "name": "renounceOwnership",
      "outputs": [],
      "stateMutability": "nonpayable",
      "type": "function"
    },
    {
      "inputs": [
        {
          "internalType": "uint256",
          "name": "tokenId",
          "type": "uint256"
        },
        {
          "internalType": "uint256",
          "name": "nonce",
          "type": "uint256"
        }
      ],
      "name": "roll",
      "outputs": [
        {
          "internalType": "uint8",
          "name": "",
          "type": "uint8"
        }
      ],
      "stateMutability": "view",
      "type": "function"
    },
    {
      "inputs": [
        {
          "internalType": "address",
          "name": "from",
          "type": "address"
        },
        {
          "internalType": "address",
          "name": "to",
          "type": "address"
        },
        {
          "internalType": "uint256",
          "name": "tokenId",
          "type": "uint256"
        }
      ],
      "name": "safeTransferFrom",
      "outputs": [],
      "stateMutability": "nonpayable",
      "type": "function"
    },
    {
      "inputs": [
        {
          "internalType": "address",
          "name": "from",
          "type": "address"
        },
        {
          "internalType": "address",
          "name": "to",
          "type": "address"
        },
        {
          "internalType": "uint256",
          "name": "tokenId",
          "type": "uint256"
        },
        {
          "internalType": "bytes",
          "name": "_data",
          "type": "bytes"
        }
      ],
      "name": "safeTransferFrom",
      "outputs": [],
      "stateMutability": "nonpayable",
      "type": "function"
    },
    {
      "inputs": [
        {
          "internalType": "address",
          "name": "operator",
          "type": "address"
        },
        {
          "internalType": "bool",
          "name": "approved",
          "type": "bool"
        }
      ],
      "name": "setApprovalForAll",
      "outputs": [],
      "stateMutability": "nonpayable",
      "type": "function"
    },
    {
      "inputs": [
        {
          "internalType": "string",
          "name": "baseURI",
          "type": "string"
        }
      ],
      "name": "setBaseURI",
      "outputs": [],
      "stateMutability": "nonpayable",
      "type": "function"
    },
    {
      "inputs": [
        {
          "internalType": "bytes4",
          "name": "interfaceId",
          "type": "bytes4"
        }
      ],
      "name": "supportsInterface",
      "outputs": [
        {
          "internalType": "bool",
          "name": "",
          "type": "bool"
        }
      ],
      "stateMutability": "view",
      "type": "function"
    },
    {
      "inputs": [],
      "name": "symbol",
      "outputs": [
        {
          "internalType": "string",
          "name": "",
          "type": "string"
        }
      ],
      "stateMutability": "view",
      "type": "function"
    },
    {
      "inputs": [
        {
          "internalType": "address",
          "name": "owner",
          "type": "address"
        }
      ],
      "name": "tokenListOfOwner",
      "outputs": [
        {
          "internalType": "uint16[]",
          "name": "",
          "type": "uint16[]"
        }
      ],
      "stateMutability": "view",
      "type": "function"
    },
    {
      "inputs": [
        {
          "internalType": "address",
          "name": "owner",
          "type": "address"
        },
        {
          "internalType": "uint256",
          "name": "index",
          "type": "uint256"
        }
      ],
      "name": "tokenOfOwnerByIndex",
      "outputs": [
        {
          "internalType": "uint16",
          "name": "",
          "type": "uint16"
        }
      ],
      "stateMutability": "view",
      "type": "function"
    },
    {
      "inputs": [
        {
          "internalType": "uint256",
          "name": "tokenId",
          "type": "uint256"
        }
      ],
      "name": "tokenURI",
      "outputs": [
        {
          "internalType": "string",
          "name": "",
          "type": "string"
        }
      ],
      "stateMutability": "view",
      "type": "function"
    },
    {
      "inputs": [],
      "name": "tokensBurnt",
      "outputs": [
        {
          "internalType": "uint256",
          "name": "",
          "type": "uint256"
        }
      ],
      "stateMutability": "view",
      "type": "function"
    },
    {
      "inputs": [],
      "name": "tokensMinted",
      "outputs": [
        {
          "internalType": "uint256",
          "name": "",
          "type": "uint256"
        }
      ],
      "stateMutability": "view",
      "type": "function"
    },
    {
      "inputs": [],
      "name": "totalSupply",
      "outputs": [
        {
          "internalType": "uint256",
          "name": "",
          "type": "uint256"
        }
      ],
      "stateMutability": "view",
      "type": "function"
    },
    {
      "inputs": [
        {
          "internalType": "address",
          "name": "from",
          "type": "address"
        },
        {
          "internalType": "address",
          "name": "to",
          "type": "address"
        },
        {
          "internalType": "uint256",
          "name": "tokenId",
          "type": "uint256"
        }
      ],
      "name": "transferFrom",
      "outputs": [],
      "stateMutability": "nonpayable",
      "type": "function"
    },
    {
      "inputs": [
        {
          "internalType": "address",
          "name": "newOwner",
          "type": "address"
        }
      ],
      "name": "transferOwnership",
      "outputs": [],
      "stateMutability": "nonpayable",
      "type": "function"
    }
  ],
  "bytecode": "0x60806040523480156200001157600080fd5b506040518060400160405280600f81526020017f5461626c65746f70446963654e465400000000000000000000000000000000008152506040518060400160405280600c81526020017f5461626c65746f704469636500000000000000000000000000000000000000008152506200009e62000092620000d860201b60201c565b620000e060201b60201c565b8160019080519060200190620000b6929190620001a4565b508060029080519060200190620000cf929190620001a4565b505050620002b9565b600033905090565b60008060009054906101000a900473ffffffffffffffffffffffffffffffffffffffff169050816000806101000a81548173ffffffffffffffffffffffffffffffffffffffff021916908373ffffffffffffffffffffffffffffffffffffffff1602179055508173ffffffffffffffffffffffffffffffffffffffff168173ffffffffffffffffffffffffffffffffffffffff167f8be0079c531659141344cd1fd0a4f28419497f9722a3daafe3b4186f6b6457e060405160405180910390a35050565b828054620001b29062000254565b90600052602060002090601f016020900481019282620001d6576000855562000222565b82601f10620001f157805160ff191683800117855562000222565b8280016001018555821562000222579182015b828111156200022157825182559160200191906001019062000204565b5b50905062000231919062000235565b5090565b5b808211156200025057600081600090555060010162000236565b5090565b600060028204905060018216806200026d57607f821691505b602082108114156200028457620002836200028a565b5b50919050565b7f4e487b7100000000000000000000000000000000000000000000000000000000600052602260045260246000fd5b6140c680620002c96000396000f3fe608060405234801561001057600080fd5b506004361061018e5760003560e01c806370a08231116100de578063b0d8b51f11610097578063c87b56dd11610071578063c87b56dd14610497578063e1dc0761146104c7578063e985e9c5146104f9578063f2fde38b146105295761018e565b8063b0d8b51f1461043f578063b88d4fde1461045d578063c6ead8af146104795761018e565b806370a082311461037d578063715018a6146103ad5780638da5cb5b146103b757806395d89b41146103d5578063a22cb465146103f3578063a689e8c21461040f5761018e565b80632f745c591161014b5780636352211e116101255780636352211e146102cf5780636618196c146102ff5780636de9f32b1461032f5780636ec9b8971461034d5761018e565b80632f745c591461026757806342842e0e1461029757806355f804b3146102b35761018e565b806301ffc9a71461019357806306fdde03146101c3578063081812fc146101e1578063095ea7b31461021157806318160ddd1461022d57806323b872dd1461024b575b600080fd5b6101ad60048036038101906101a89190612b0c565b610545565b6040516101ba919061324e565b60405180910390f35b6101cb610627565b6040516101d89190613269565b60405180910390f35b6101fb60048036038101906101f69190612c3e565b6106b9565b60405161020891906131a3565b60405180910390f35b61022b60048036038101906102269190612acc565b61073e565b005b610235610856565b60405161024291906135ab565b60405180910390f35b61026560048036038101906102609190612947565b61086d565b005b610281600480360381019061027c9190612acc565b6108cd565b60405161028e9190613590565b60405180910390f35b6102b160048036038101906102ac9190612947565b610996565b005b6102cd60048036038101906102c89190612b66565b6109b6565b005b6102e960048036038101906102e49190612c3e565b610a48565b6040516102f691906131a3565b60405180910390f35b610319600480360381019061031491906128da565b610afa565b604051610326919061320a565b60405180910390f35b610337610bb9565b60405161034491906135ab565b60405180910390f35b61036760048036038101906103629190612c6b565b610bbf565b60405161037491906135c6565b60405180910390f35b610397600480360381019061039291906128da565b610c57565b6040516103a491906135ab565b60405180910390f35b6103b5610d0f565b005b6103bf610d97565b6040516103cc91906131a3565b60405180910390f35b6103dd610dc0565b6040516103ea9190613269565b60405180910390f35b61040d60048036038101906104089190612a1d565b610e52565b005b61042960048036038101906104249190612a5d565b610e68565b60405161043691906135ab565b60405180910390f35b610447610f2b565b604051610454919061322c565b60405180910390f35b6104776004803603810190610472919061299a565b610fdb565b005b61048161103d565b60405161048e91906135ab565b60405180910390f35b6104b160048036038101906104ac9190612c3e565b611043565b6040516104be9190613269565b60405180910390f35b6104e160048036038101906104dc9190612c3e565b6110ea565b6040516104f09392919061328b565b60405180910390f35b610513600480360381019061050e9190612907565b61118d565b604051610520919061324e565b60405180910390f35b610543600480360381019061053e91906128da565b611221565b005b60007f80ac58cd000000000000000000000000000000000000000000000000000000007bffffffffffffffffffffffffffffffffffffffffffffffffffffffff1916827bffffffffffffffffffffffffffffffffffffffffffffffffffffffff1916148061061057507f5b5e139f000000000000000000000000000000000000000000000000000000007bffffffffffffffffffffffffffffffffffffffffffffffffffffffff1916827bffffffffffffffffffffffffffffffffffffffffffffffffffffffff1916145b80610620575061061f82611319565b5b9050919050565b606060018054610636906138a9565b80601f0160208091040260200160405190810160405280929190818152602001828054610662906138a9565b80156106af5780601f10610684576101008083540402835291602001916106af565b820191906000526020600020905b81548152906001019060200180831161069257829003601f168201915b5050505050905090565b60006106c482611383565b610703576040517f08c379a00000000000000000000000000000000000000000000000000000000081526004016106fa90613470565b60405180910390fd5b6005600083815260200190815260200160002060009054906101000a900473ffffffffffffffffffffffffffffffffffffffff169050919050565b600061074982610a48565b90508073ffffffffffffffffffffffffffffffffffffffff168373ffffffffffffffffffffffffffffffffffffffff1614156107ba576040517f08c379a00000000000000000000000000000000000000000000000000000000081526004016107b1906134f0565b60405180910390fd5b8073ffffffffffffffffffffffffffffffffffffffff166107d96113ef565b73ffffffffffffffffffffffffffffffffffffffff1614806108085750610807816108026113ef565b61118d565b5b610847576040517f08c379a000000000000000000000000000000000000000000000000000000000815260040161083e906133f0565b60405180910390fd5b61085183836113f7565b505050565b600060095460085461086891906137a4565b905090565b61087e6108786113ef565b826114b0565b6108bd576040517f08c379a00000000000000000000000000000000000000000000000000000000081526004016108b490613510565b60405180910390fd5b6108c883838361158e565b505050565b60006108d883610c57565b8210610919576040517f08c379a0000000000000000000000000000000000000000000000000000000008152600401610910906134d0565b60405180910390fd5b600760008473ffffffffffffffffffffffffffffffffffffffff1673ffffffffffffffffffffffffffffffffffffffff168152602001908152602001600020828154811061096a57610969613a71565b5b90600052602060002090601091828204019190066002029054906101000a900461ffff16905092915050565b6109b183838360405180602001604052806000815250610fdb565b505050565b6109be6113ef565b73ffffffffffffffffffffffffffffffffffffffff166109dc610d97565b73ffffffffffffffffffffffffffffffffffffffff1614610a32576040517f08c379a0000000000000000000000000000000000000000000000000000000008152600401610a2990613490565b60405180910390fd5b8181600c9190610a43929190612578565b505050565b6000806003600084815260200190815260200160002060009054906101000a900473ffffffffffffffffffffffffffffffffffffffff169050600073ffffffffffffffffffffffffffffffffffffffff168173ffffffffffffffffffffffffffffffffffffffff161415610af1576040517f08c379a0000000000000000000000000000000000000000000000000000000008152600401610ae890613430565b60405180910390fd5b80915050919050565b6060600760008373ffffffffffffffffffffffffffffffffffffffff1673ffffffffffffffffffffffffffffffffffffffff168152602001908152602001600020805480602002602001604051908101604052809291908181526020018280548015610bad57602002820191906000526020600020906000905b82829054906101000a900461ffff1661ffff1681526020019060020190602082600101049283019260010382029150808411610b745790505b50505050509050919050565b60085481565b6000600a73__$3b68987207f559b9bfdbbec8c00268de72$__632b9074c2909185856040518463ffffffff1660e01b8152600401610bff93929190613559565b60206040518083038186803b158015610c1757600080fd5b505af4158015610c2b573d6000803e3d6000fd5b505050506040513d601f19601f82011682018060405250810190610c4f9190612cab565b905092915050565b60008073ffffffffffffffffffffffffffffffffffffffff168273ffffffffffffffffffffffffffffffffffffffff161415610cc8576040517f08c379a0000000000000000000000000000000000000000000000000000000008152600401610cbf90613410565b60405180910390fd5b600460008373ffffffffffffffffffffffffffffffffffffffff1673ffffffffffffffffffffffffffffffffffffffff168152602001908152602001600020549050919050565b610d176113ef565b73ffffffffffffffffffffffffffffffffffffffff16610d35610d97565b73ffffffffffffffffffffffffffffffffffffffff1614610d8b576040517f08c379a0000000000000000000000000000000000000000000000000000000008152600401610d8290613490565b60405180910390fd5b610d9560006117f5565b565b60008060009054906101000a900473ffffffffffffffffffffffffffffffffffffffff16905090565b606060028054610dcf906138a9565b80601f0160208091040260200160405190810160405280929190818152602001828054610dfb906138a9565b8015610e485780601f10610e1d57610100808354040283529160200191610e48565b820191906000526020600020905b815481529060010190602001808311610e2b57829003601f168201915b5050505050905090565b610e64610e5d6113ef565b83836118b9565b5050565b6000610e726113ef565b73ffffffffffffffffffffffffffffffffffffffff16610e90610d97565b73ffffffffffffffffffffffffffffffffffffffff1614610ee6576040517f08c379a0000000000000000000000000000000000000000000000000000000008152600401610edd90613490565b60405180910390fd5b6000610ef2600b611a26565b9050610f0c848285600a611a34909392919063ffffffff16565b610f168582611b7a565b610f20600b611b98565b809150509392505050565b60606000610f3833610c57565b905060008167ffffffffffffffff811115610f5657610f55613aa0565b5b604051908082528060200260200182016040528015610f845781602001602082028036833780820191505090505b50905060005b82811015610fd257610f9c33826108cd565b61ffff16828281518110610fb357610fb2613a71565b5b6020026020010181815250508080610fca9061390c565b915050610f8a565b50809250505090565b610fec610fe66113ef565b836114b0565b61102b576040517f08c379a000000000000000000000000000000000000000000000000000000000815260040161102290613510565b60405180910390fd5b61103784848484611bae565b50505050565b60095481565b606061104e82611383565b61108d576040517f08c379a0000000000000000000000000000000000000000000000000000000008152600401611084906134b0565b60405180910390fd5b6000611097611c0a565b905060008151116110b757604051806020016040528060008152506110e2565b806110c184611c9c565b6040516020016110d292919061317f565b6040516020818303038152906040525b915050919050565b6060806000600a73__$3b68987207f559b9bfdbbec8c00268de72$__6323f5b9fc9091866040518363ffffffff1660e01b815260040161112b929190613530565b60006040518083038186803b15801561114357600080fd5b505af4158015611157573d6000803e3d6000fd5b505050506040513d6000823e3d601f19601f820116820180604052508101906111809190612bb3565b9250925092509193909250565b6000600660008473ffffffffffffffffffffffffffffffffffffffff1673ffffffffffffffffffffffffffffffffffffffff16815260200190815260200160002060008373ffffffffffffffffffffffffffffffffffffffff1673ffffffffffffffffffffffffffffffffffffffff16815260200190815260200160002060009054906101000a900460ff16905092915050565b6112296113ef565b73ffffffffffffffffffffffffffffffffffffffff16611247610d97565b73ffffffffffffffffffffffffffffffffffffffff161461129d576040517f08c379a000000000000000000000000000000000000000000000000000000000815260040161129490613490565b60405180910390fd5b600073ffffffffffffffffffffffffffffffffffffffff168173ffffffffffffffffffffffffffffffffffffffff16141561130d576040517f08c379a000000000000000000000000000000000000000000000000000000000815260040161130490613330565b60405180910390fd5b611316816117f5565b50565b60007f01ffc9a7000000000000000000000000000000000000000000000000000000007bffffffffffffffffffffffffffffffffffffffffffffffffffffffff1916827bffffffffffffffffffffffffffffffffffffffffffffffffffffffff1916149050919050565b60008073ffffffffffffffffffffffffffffffffffffffff166003600084815260200190815260200160002060009054906101000a900473ffffffffffffffffffffffffffffffffffffffff1673ffffffffffffffffffffffffffffffffffffffff1614159050919050565b600033905090565b816005600083815260200190815260200160002060006101000a81548173ffffffffffffffffffffffffffffffffffffffff021916908373ffffffffffffffffffffffffffffffffffffffff160217905550808273ffffffffffffffffffffffffffffffffffffffff1661146a83610a48565b73ffffffffffffffffffffffffffffffffffffffff167f8c5be1e5ebec7d5bd14f71427d1e84f3dd0314c0f7b2291e5b200ac8c7c3b92560405160405180910390a45050565b60006114bb82611383565b6114fa576040517f08c379a00000000000000000000000000000000000000000000000000000000081526004016114f1906133d0565b60405180910390fd5b600061150583610a48565b90508073ffffffffffffffffffffffffffffffffffffffff168473ffffffffffffffffffffffffffffffffffffffff16148061157457508373ffffffffffffffffffffffffffffffffffffffff1661155c846106b9565b73ffffffffffffffffffffffffffffffffffffffff16145b806115855750611584818561118d565b5b91505092915050565b8273ffffffffffffffffffffffffffffffffffffffff166115ae82610a48565b73ffffffffffffffffffffffffffffffffffffffff1614611604576040517f08c379a00000000000000000000000000000000000000000000000000000000081526004016115fb90613350565b60405180910390fd5b600073ffffffffffffffffffffffffffffffffffffffff168273ffffffffffffffffffffffffffffffffffffffff161415611674576040517f08c379a000000000000000000000000000000000000000000000000000000000815260040161166b90613390565b60405180910390fd5b61167f838383611dfd565b61168a6000826113f7565b6001600460008573ffffffffffffffffffffffffffffffffffffffff1673ffffffffffffffffffffffffffffffffffffffff16815260200190815260200160002060008282546116da91906137a4565b925050819055506001600460008473ffffffffffffffffffffffffffffffffffffffff1673ffffffffffffffffffffffffffffffffffffffff1681526020019081526020016000206000828254611731919061371d565b92505081905550816003600083815260200190815260200160002060006101000a81548173ffffffffffffffffffffffffffffffffffffffff021916908373ffffffffffffffffffffffffffffffffffffffff160217905550808273ffffffffffffffffffffffffffffffffffffffff168473ffffffffffffffffffffffffffffffffffffffff167fddf252ad1be2c89b69c2b068fc378daa952ba7f163c4a11628f55a4df523b3ef60405160405180910390a46117f0838383611ef5565b505050565b60008060009054906101000a900473ffffffffffffffffffffffffffffffffffffffff169050816000806101000a81548173ffffffffffffffffffffffffffffffffffffffff021916908373ffffffffffffffffffffffffffffffffffffffff1602179055508173ffffffffffffffffffffffffffffffffffffffff168173ffffffffffffffffffffffffffffffffffffffff167f8be0079c531659141344cd1fd0a4f28419497f9722a3daafe3b4186f6b6457e060405160405180910390a35050565b8173ffffffffffffffffffffffffffffffffffffffff168373ffffffffffffffffffffffffffffffffffffffff161415611928576040517f08c379a000000000000000000000000000000000000000000000000000000000815260040161191f906133b0565b60405180910390fd5b80600660008573ffffffffffffffffffffffffffffffffffffffff1673ffffffffffffffffffffffffffffffffffffffff16815260200190815260200160002060008473ffffffffffffffffffffffffffffffffffffffff1673ffffffffffffffffffffffffffffffffffffffff16815260200190815260200160002060006101000a81548160ff0219169083151502179055508173ffffffffffffffffffffffffffffffffffffffff168373ffffffffffffffffffffffffffffffffffffffff167f17307eab39ab6107e8899845ad3d59bd9653f200f220920489ca2b5937696c3183604051611a19919061324e565b60405180910390a3505050565b600081600001549050919050565b60008160ff1611611a7a576040517f08c379a0000000000000000000000000000000000000000000000000000000008152600401611a71906132d0565b60405180910390fd5b600080600a8360ff1614611a8f576000611a92565b60015b905060405180608001604052808681526020018460ff1681526020018215158152602001836002811115611ac957611ac86139e4565b5b8152508660000160008681526020019081526020016000206000820151816000019080519060200190611afd9291906125fe565b5060208201518160010160006101000a81548160ff021916908360ff16021790555060408201518160010160016101000a81548160ff02191690831515021790555060608201518160010160026101000a81548160ff02191690836002811115611b6a57611b696139e4565b5b0217905550905050505050505050565b611b94828260405180602001604052806000815250611efa565b5050565b6001816000016000828254019250508190555050565b611bb984848461158e565b611bc584848484611f55565b611c04576040517f08c379a0000000000000000000000000000000000000000000000000000000008152600401611bfb90613310565b60405180910390fd5b50505050565b6060600c8054611c19906138a9565b80601f0160208091040260200160405190810160405280929190818152602001828054611c45906138a9565b8015611c925780601f10611c6757610100808354040283529160200191611c92565b820191906000526020600020905b815481529060010190602001808311611c7557829003601f168201915b5050505050905090565b60606000821415611ce4576040518060400160405280600181526020017f30000000000000000000000000000000000000000000000000000000000000008152509050611df8565b600082905060005b60008214611d16578080611cff9061390c565b915050600a82611d0f9190613773565b9150611cec565b60008167ffffffffffffffff811115611d3257611d31613aa0565b5b6040519080825280601f01601f191660200182016040528015611d645781602001600182028036833780820191505090505b5090505b60008514611df157600182611d7d91906137a4565b9150600a85611d8c9190613955565b6030611d98919061371d565b60f81b818381518110611dae57611dad613a71565b5b60200101907effffffffffffffffffffffffffffffffffffffffffffffffffffffffffffff1916908160001a905350600a85611dea9190613773565b9450611d68565b8093505050505b919050565b611e088383836120ec565b8273ffffffffffffffffffffffffffffffffffffffff168273ffffffffffffffffffffffffffffffffffffffff1614611ef057611e4582826120f1565b600073ffffffffffffffffffffffffffffffffffffffff168373ffffffffffffffffffffffffffffffffffffffff1614611e8857611e83838261217c565b611ea1565b60086000815480929190611e9b9061390c565b91905055505b600073ffffffffffffffffffffffffffffffffffffffff168273ffffffffffffffffffffffffffffffffffffffff161415611eef5760096000815480929190611ee99061390c565b91905055505b5b505050565b505050565b611f04838361237b565b611f116000848484611f55565b611f50576040517f08c379a0000000000000000000000000000000000000000000000000000000008152600401611f4790613310565b60405180910390fd5b505050565b6000611f768473ffffffffffffffffffffffffffffffffffffffff16612555565b156120df578373ffffffffffffffffffffffffffffffffffffffff1663150b7a02611f9f6113ef565b8786866040518563ffffffff1660e01b8152600401611fc194939291906131be565b602060405180830381600087803b158015611fdb57600080fd5b505af192505050801561200c57506040513d601f19601f820116820180604052508101906120099190612b39565b60015b61208f573d806000811461203c576040519150601f19603f3d011682016040523d82523d6000602084013e612041565b606091505b50600081511415612087576040517f08c379a000000000000000000000000000000000000000000000000000000000815260040161207e90613310565b60405180910390fd5b805181602001fd5b63150b7a0260e01b7bffffffffffffffffffffffffffffffffffffffffffffffffffffffff1916817bffffffffffffffffffffffffffffffffffffffffffffffffffffffff1916149150506120e4565b600190505b949350505050565b505050565b600760008373ffffffffffffffffffffffffffffffffffffffff1673ffffffffffffffffffffffffffffffffffffffff1681526020019081526020016000208190806001815401808255809150506001900390600052602060002090601091828204019190066002029091909190916101000a81548161ffff021916908361ffff1602179055505050565b6000600760008473ffffffffffffffffffffffffffffffffffffffff1673ffffffffffffffffffffffffffffffffffffffff168152602001908152602001600020905060008180549050905060005b8280549050811015612238578361ffff168382815481106121ef576121ee613a71565b5b90600052602060002090601091828204019190066002029054906101000a900461ffff1661ffff16141561222557809150612238565b80806122309061390c565b9150506121cb565b508180549050811061227f576040517f08c379a0000000000000000000000000000000000000000000000000000000008152600401612276906132f0565b60405180910390fd5b60008190505b6001838054905061229691906137a4565b81101561233557826001826122ab919061371d565b815481106122bc576122bb613a71565b5b90600052602060002090601091828204019190066002029054906101000a900461ffff168382815481106122f3576122f2613a71565b5b90600052602060002090601091828204019190066002026101000a81548161ffff021916908361ffff160217905550808061232d9061390c565b915050612285565b508180548061234757612346613a42565b5b60019003818190600052602060002090601091828204019190066002026101000a81549061ffff0219169055905550505050565b600073ffffffffffffffffffffffffffffffffffffffff168273ffffffffffffffffffffffffffffffffffffffff1614156123eb576040517f08c379a00000000000000000000000000000000000000000000000000000000081526004016123e290613450565b60405180910390fd5b6123f481611383565b15612434576040517f08c379a000000000000000000000000000000000000000000000000000000000815260040161242b90613370565b60405180910390fd5b61244060008383611dfd565b6001600460008473ffffffffffffffffffffffffffffffffffffffff1673ffffffffffffffffffffffffffffffffffffffff1681526020019081526020016000206000828254612490919061371d565b92505081905550816003600083815260200190815260200160002060006101000a81548173ffffffffffffffffffffffffffffffffffffffff021916908373ffffffffffffffffffffffffffffffffffffffff160217905550808273ffffffffffffffffffffffffffffffffffffffff16600073ffffffffffffffffffffffffffffffffffffffff167fddf252ad1be2c89b69c2b068fc378daa952ba7f163c4a11628f55a4df523b3ef60405160405180910390a461255160008383611ef5565b5050565b6000808273ffffffffffffffffffffffffffffffffffffffff163b119050919050565b828054612584906138a9565b90600052602060002090601f0160209004810192826125a657600085556125ed565b82601f106125bf57803560ff19168380011785556125ed565b828001600101855582156125ed579182015b828111156125ec5782358255916020019190600101906125d1565b5b5090506125fa9190612684565b5090565b82805461260a906138a9565b90600052602060002090601f01602090048101928261262c5760008555612673565b82601f1061264557805160ff1916838001178555612673565b82800160010185558215612673579182015b82811115612672578251825591602001919060010190612657565b5b5090506126809190612684565b5090565b5b8082111561269d576000816000905550600101612685565b5090565b60006126b46126af84613606565b6135e1565b9050828152602081018484840111156126d0576126cf613ade565b5b6126db848285613867565b509392505050565b60006126f66126f184613637565b6135e1565b90508281526020810184848401111561271257612711613ade565b5b61271d848285613867565b509392505050565b600061273861273384613637565b6135e1565b90508281526020810184848401111561275457612753613ade565b5b61275f848285613876565b509392505050565b6000813590506127768161401d565b92915050565b60008135905061278b81614034565b92915050565b6000813590506127a08161404b565b92915050565b6000815190506127b58161404b565b92915050565b600082601f8301126127d0576127cf613ad4565b5b81356127e08482602086016126a1565b91505092915050565b60008083601f8401126127ff576127fe613ad4565b5b8235905067ffffffffffffffff81111561281c5761281b613acf565b5b60208301915083600182028301111561283857612837613ad9565b5b9250929050565b600082601f83011261285457612853613ad4565b5b81356128648482602086016126e3565b91505092915050565b600082601f83011261288257612881613ad4565b5b8151612892848260208601612725565b91505092915050565b6000813590506128aa81614062565b92915050565b6000813590506128bf81614079565b92915050565b6000815190506128d481614079565b92915050565b6000602082840312156128f0576128ef613ae8565b5b60006128fe84828501612767565b91505092915050565b6000806040838503121561291e5761291d613ae8565b5b600061292c85828601612767565b925050602061293d85828601612767565b9150509250929050565b6000806000606084860312156129605761295f613ae8565b5b600061296e86828701612767565b935050602061297f86828701612767565b92505060406129908682870161289b565b9150509250925092565b600080600080608085870312156129b4576129b3613ae8565b5b60006129c287828801612767565b94505060206129d387828801612767565b93505060406129e48782880161289b565b925050606085013567ffffffffffffffff811115612a0557612a04613ae3565b5b612a11878288016127bb565b91505092959194509250565b60008060408385031215612a3457612a33613ae8565b5b6000612a4285828601612767565b9250506020612a538582860161277c565b9150509250929050565b600080600060608486031215612a7657612a75613ae8565b5b6000612a8486828701612767565b935050602084013567ffffffffffffffff811115612aa557612aa4613ae3565b5b612ab18682870161283f565b9250506040612ac2868287016128b0565b9150509250925092565b60008060408385031215612ae357612ae2613ae8565b5b6000612af185828601612767565b9250506020612b028582860161289b565b9150509250929050565b600060208284031215612b2257612b21613ae8565b5b6000612b3084828501612791565b91505092915050565b600060208284031215612b4f57612b4e613ae8565b5b6000612b5d848285016127a6565b91505092915050565b60008060208385031215612b7d57612b7c613ae8565b5b600083013567ffffffffffffffff811115612b9b57612b9a613ae3565b5b612ba7858286016127e9565b92509250509250929050565b600080600060608486031215612bcc57612bcb613ae8565b5b600084015167ffffffffffffffff811115612bea57612be9613ae3565b5b612bf68682870161286d565b935050602084015167ffffffffffffffff811115612c1757612c16613ae3565b5b612c238682870161286d565b9250506040612c34868287016128c5565b9150509250925092565b600060208284031215612c5457612c53613ae8565b5b6000612c628482850161289b565b91505092915050565b60008060408385031215612c8257612c81613ae8565b5b6000612c908582860161289b565b9250506020612ca18582860161289b565b9150509250929050565b600060208284031215612cc157612cc0613ae8565b5b6000612ccf848285016128c5565b91505092915050565b6000612ce48383613125565b60208301905092915050565b6000612cfc8383613143565b60208301905092915050565b612d11816137d8565b82525050565b6000612d2282613688565b612d2c81856136ce565b9350612d3783613668565b8060005b83811015612d68578151612d4f8882612cd8565b9750612d5a836136b4565b925050600181019050612d3b565b5085935050505092915050565b6000612d8082613693565b612d8a81856136df565b9350612d9583613678565b8060005b83811015612dc6578151612dad8882612cf0565b9750612db8836136c1565b925050600181019050612d99565b5085935050505092915050565b612ddc816137ea565b82525050565b6000612ded8261369e565b612df781856136f0565b9350612e07818560208601613876565b612e1081613aed565b840191505092915050565b6000612e26826136a9565b612e308185613701565b9350612e40818560208601613876565b612e4981613aed565b840191505092915050565b6000612e5f826136a9565b612e698185613712565b9350612e79818560208601613876565b80840191505092915050565b6000612e92601683613701565b9150612e9d82613afe565b602082019050919050565b6000612eb5603783613701565b9150612ec082613b27565b604082019050919050565b6000612ed8603283613701565b9150612ee382613b76565b604082019050919050565b6000612efb602683613701565b9150612f0682613bc5565b604082019050919050565b6000612f1e602583613701565b9150612f2982613c14565b604082019050919050565b6000612f41601c83613701565b9150612f4c82613c63565b602082019050919050565b6000612f64602483613701565b9150612f6f82613c8c565b604082019050919050565b6000612f87601983613701565b9150612f9282613cdb565b602082019050919050565b6000612faa602c83613701565b9150612fb582613d04565b604082019050919050565b6000612fcd603883613701565b9150612fd882613d53565b604082019050919050565b6000612ff0602a83613701565b9150612ffb82613da2565b604082019050919050565b6000613013602983613701565b915061301e82613df1565b604082019050919050565b6000613036602083613701565b915061304182613e40565b602082019050919050565b6000613059602c83613701565b915061306482613e69565b604082019050919050565b600061307c602083613701565b915061308782613eb8565b602082019050919050565b600061309f602f83613701565b91506130aa82613ee1565b604082019050919050565b60006130c2603183613701565b91506130cd82613f30565b604082019050919050565b60006130e5602183613701565b91506130f082613f7f565b604082019050919050565b6000613108603183613701565b915061311382613fce565b604082019050919050565b8082525050565b61312e81613822565b82525050565b61313d81613822565b82525050565b61314c81613850565b82525050565b61315b81613850565b82525050565b61316a81613850565b82525050565b6131798161385a565b82525050565b600061318b8285612e54565b91506131978284612e54565b91508190509392505050565b60006020820190506131b86000830184612d08565b92915050565b60006080820190506131d36000830187612d08565b6131e06020830186612d08565b6131ed6040830185613152565b81810360608301526131ff8184612de2565b905095945050505050565b600060208201905081810360008301526132248184612d17565b905092915050565b600060208201905081810360008301526132468184612d75565b905092915050565b60006020820190506132636000830184612dd3565b92915050565b600060208201905081810360008301526132838184612e1b565b905092915050565b600060608201905081810360008301526132a58186612e1b565b905081810360208301526132b98185612e1b565b90506132c86040830184613170565b949350505050565b600060208201905081810360008301526132e981612e85565b9050919050565b6000602082019050818103600083015261330981612ea8565b9050919050565b6000602082019050818103600083015261332981612ecb565b9050919050565b6000602082019050818103600083015261334981612eee565b9050919050565b6000602082019050818103600083015261336981612f11565b9050919050565b6000602082019050818103600083015261338981612f34565b9050919050565b600060208201905081810360008301526133a981612f57565b9050919050565b600060208201905081810360008301526133c981612f7a565b9050919050565b600060208201905081810360008301526133e981612f9d565b9050919050565b6000602082019050818103600083015261340981612fc0565b9050919050565b6000602082019050818103600083015261342981612fe3565b9050919050565b6000602082019050818103600083015261344981613006565b9050919050565b6000602082019050818103600083015261346981613029565b9050919050565b600060208201905081810360008301526134898161304c565b9050919050565b600060208201905081810360008301526134a98161306f565b9050919050565b600060208201905081810360008301526134c981613092565b9050919050565b600060208201905081810360008301526134e9816130b5565b9050919050565b60006020820190508181036000830152613509816130d8565b9050919050565b60006020820190508181036000830152613529816130fb565b9050919050565b6000604082019050613545600083018561311e565b6135526020830184613161565b9392505050565b600060608201905061356e600083018661311e565b61357b6020830185613161565b6135886040830184613161565b949350505050565b60006020820190506135a56000830184613134565b92915050565b60006020820190506135c06000830184613152565b92915050565b60006020820190506135db6000830184613170565b92915050565b60006135eb6135fc565b90506135f782826138db565b919050565b6000604051905090565b600067ffffffffffffffff82111561362157613620613aa0565b5b61362a82613aed565b9050602081019050919050565b600067ffffffffffffffff82111561365257613651613aa0565b5b61365b82613aed565b9050602081019050919050565b6000819050602082019050919050565b6000819050602082019050919050565b600081519050919050565b600081519050919050565b600081519050919050565b600081519050919050565b6000602082019050919050565b6000602082019050919050565b600082825260208201905092915050565b600082825260208201905092915050565b600082825260208201905092915050565b600082825260208201905092915050565b600081905092915050565b600061372882613850565b915061373383613850565b9250827fffffffffffffffffffffffffffffffffffffffffffffffffffffffffffffffff0382111561376857613767613986565b5b828201905092915050565b600061377e82613850565b915061378983613850565b925082613799576137986139b5565b5b828204905092915050565b60006137af82613850565b91506137ba83613850565b9250828210156137cd576137cc613986565b5b828203905092915050565b60006137e382613830565b9050919050565b60008115159050919050565b60007fffffffff0000000000000000000000000000000000000000000000000000000082169050919050565b600061ffff82169050919050565b600073ffffffffffffffffffffffffffffffffffffffff82169050919050565b6000819050919050565b600060ff82169050919050565b82818337600083830152505050565b60005b83811015613894578082015181840152602081019050613879565b838111156138a3576000848401525b50505050565b600060028204905060018216806138c157607f821691505b602082108114156138d5576138d4613a13565b5b50919050565b6138e482613aed565b810181811067ffffffffffffffff8211171561390357613902613aa0565b5b80604052505050565b600061391782613850565b91507fffffffffffffffffffffffffffffffffffffffffffffffffffffffffffffffff82141561394a57613949613986565b5b600182019050919050565b600061396082613850565b915061396b83613850565b92508261397b5761397a6139b5565b5b828206905092915050565b7f4e487b7100000000000000000000000000000000000000000000000000000000600052601160045260246000fd5b7f4e487b7100000000000000000000000000000000000000000000000000000000600052601260045260246000fd5b7f4e487b7100000000000000000000000000000000000000000000000000000000600052602160045260246000fd5b7f4e487b7100000000000000000000000000000000000000000000000000000000600052602260045260246000fd5b7f4e487b7100000000000000000000000000000000000000000000000000000000600052603160045260246000fd5b7f4e487b7100000000000000000000000000000000000000000000000000000000600052603260045260246000fd5b7f4e487b7100000000000000000000000000000000000000000000000000000000600052604160045260246000fd5b600080fd5b600080fd5b600080fd5b600080fd5b600080fd5b600080fd5b6000601f19601f8301169050919050565b7f5369646573206d757374206265206e6f6e2d7a65726f00000000000000000000600082015250565b7f45524337323153696d706c65456e756d657261626c653a20746f6b656e49642060008201527f6e6f7420666f756e6420696e206f776e6572206c697374000000000000000000602082015250565b7f4552433732313a207472616e7366657220746f206e6f6e20455243373231526560008201527f63656976657220696d706c656d656e7465720000000000000000000000000000602082015250565b7f4f776e61626c653a206e6577206f776e657220697320746865207a65726f206160008201527f6464726573730000000000000000000000000000000000000000000000000000602082015250565b7f4552433732313a207472616e736665722066726f6d20696e636f72726563742060008201527f6f776e6572000000000000000000000000000000000000000000000000000000602082015250565b7f4552433732313a20746f6b656e20616c7265616479206d696e74656400000000600082015250565b7f4552433732313a207472616e7366657220746f20746865207a65726f2061646460008201527f7265737300000000000000000000000000000000000000000000000000000000602082015250565b7f4552433732313a20617070726f766520746f2063616c6c657200000000000000600082015250565b7f4552433732313a206f70657261746f7220717565727920666f72206e6f6e657860008201527f697374656e7420746f6b656e0000000000000000000000000000000000000000602082015250565b7f4552433732313a20617070726f76652063616c6c6572206973206e6f74206f7760008201527f6e6572206e6f7220617070726f76656420666f7220616c6c0000000000000000602082015250565b7f4552433732313a2062616c616e636520717565727920666f7220746865207a6560008201527f726f206164647265737300000000000000000000000000000000000000000000602082015250565b7f4552433732313a206f776e657220717565727920666f72206e6f6e657869737460008201527f656e7420746f6b656e0000000000000000000000000000000000000000000000602082015250565b7f4552433732313a206d696e7420746f20746865207a65726f2061646472657373600082015250565b7f4552433732313a20617070726f76656420717565727920666f72206e6f6e657860008201527f697374656e7420746f6b656e0000000000000000000000000000000000000000602082015250565b7f4f776e61626c653a2063616c6c6572206973206e6f7420746865206f776e6572600082015250565b7f4552433732314d657461646174613a2055524920717565727920666f72206e6f60008201527f6e6578697374656e7420746f6b656e0000000000000000000000000000000000602082015250565b7f45524337323153696d706c65456e756d657261626c653a206f776e657220696e60008201527f646578206f7574206f6620626f756e6473000000000000000000000000000000602082015250565b7f4552433732313a20617070726f76616c20746f2063757272656e74206f776e6560008201527f7200000000000000000000000000000000000000000000000000000000000000602082015250565b7f4552433732313a207472616e736665722063616c6c6572206973206e6f74206f60008201527f776e6572206e6f7220617070726f766564000000000000000000000000000000602082015250565b614026816137d8565b811461403157600080fd5b50565b61403d816137ea565b811461404857600080fd5b50565b614054816137f6565b811461405f57600080fd5b50565b61406b81613850565b811461407657600080fd5b50565b6140828161385a565b811461408d57600080fd5b5056fea26469706673582212206b7a2a925e885e4ef006fd86dcf36b28317de423edac3d5d37817717cf8f5ad664736f6c63430008060033",
  "linkReferences": {
    "contracts/DiceLibrary.sol": {
      "DiceLibrary": [
        {
          "length": 20,
          "start": 3726
        },
        {
          "length": 20,
          "start": 5052
        }
      ]
    }
  },
  "deployedLinkReferences": {
    "contracts/DiceLibrary.sol": {
      "DiceLibrary": [
        {
          "length": 20,
          "start": 3013
        },
        {
          "length": 20,
          "start": 4339
        }
      ]
    }
  }
}