{
  "_format": "hh-sol-artifact-1",
  "contractName": "TabletopDiceNFT",
  "sourceName": "contracts/Dice.sol",
  "abi": [
    {
      "inputs": [],
      "stateMutability": "nonpayable",
      "type": "constructor"
    },
    {
      "anonymous": false,
      "inputs": [
        {
          "indexed": true,
          "internalType": "address",
          "name": "owner",
          "type": "address"
        },
        {
          "indexed": true,
          "internalType": "address",
          "name": "approved",
          "type": "address"
        },
        {
          "indexed": true,
          "internalType": "uint256",
          "name": "tokenId",
          "type": "uint256"
        }
      ],
      "name": "Approval",
      "type": "event"
    },
    {
      "anonymous": false,
      "inputs": [
        {
          "indexed": true,
          "internalType": "address",
          "name": "owner",
          "type": "address"
        },
        {
          "indexed": true,
          "internalType": "address",
          "name": "operator",
          "type": "address"
        },
        {
          "indexed": false,
          "internalType": "bool",
          "name": "approved",
          "type": "bool"
        }
      ],
      "name": "ApprovalForAll",
      "type": "event"
    },
    {
      "anonymous": false,
      "inputs": [
        {
          "indexed": true,
          "internalType": "address",
          "name": "previousOwner",
          "type": "address"
        },
        {
          "indexed": true,
          "internalType": "address",
          "name": "newOwner",
          "type": "address"
        }
      ],
      "name": "OwnershipTransferred",
      "type": "event"
    },
    {
      "anonymous": false,
      "inputs": [
        {
          "indexed": true,
          "internalType": "address",
          "name": "from",
          "type": "address"
        },
        {
          "indexed": true,
          "internalType": "address",
          "name": "to",
          "type": "address"
        },
        {
          "indexed": true,
          "internalType": "uint256",
          "name": "tokenId",
          "type": "uint256"
        }
      ],
      "name": "Transfer",
      "type": "event"
    },
    {
      "inputs": [
        {
          "internalType": "address",
          "name": "to",
          "type": "address"
        },
        {
          "internalType": "uint256",
          "name": "tokenId",
          "type": "uint256"
        }
      ],
      "name": "approve",
      "outputs": [],
      "stateMutability": "nonpayable",
      "type": "function"
    },
    {
      "inputs": [
        {
          "internalType": "address",
          "name": "owner",
          "type": "address"
        }
      ],
      "name": "balanceOf",
      "outputs": [
        {
          "internalType": "uint256",
          "name": "",
          "type": "uint256"
        }
      ],
      "stateMutability": "view",
      "type": "function"
    },
    {
      "inputs": [
        {
          "internalType": "uint256",
          "name": "tokenId",
          "type": "uint256"
        }
      ],
      "name": "getApproved",
      "outputs": [
        {
          "internalType": "address",
          "name": "",
          "type": "address"
        }
      ],
      "stateMutability": "view",
      "type": "function"
    },
    {
      "inputs": [],
      "name": "getOwnedTokenIds",
      "outputs": [
        {
          "internalType": "uint256[]",
          "name": "",
          "type": "uint256[]"
        }
      ],
      "stateMutability": "view",
      "type": "function"
    },
    {
      "inputs": [
        {
          "internalType": "uint256",
          "name": "tokenId",
          "type": "uint256"
        }
      ],
      "name": "getTraits",
      "outputs": [
        {
          "internalType": "string",
          "name": "name",
          "type": "string"
        },
        {
          "internalType": "string",
          "name": "tokenURI",
          "type": "string"
        },
        {
          "internalType": "uint8",
          "name": "sides",
          "type": "uint8"
        }
      ],
      "stateMutability": "view",
      "type": "function"
    },
    {
      "inputs": [
        {
          "internalType": "address",
          "name": "owner",
          "type": "address"
        },
        {
          "internalType": "address",
          "name": "operator",
          "type": "address"
        }
      ],
      "name": "isApprovedForAll",
      "outputs": [
        {
          "internalType": "bool",
          "name": "",
          "type": "bool"
        }
      ],
      "stateMutability": "view",
      "type": "function"
    },
    {
      "inputs": [
        {
          "internalType": "address",
          "name": "owner",
          "type": "address"
        },
        {
          "internalType": "string",
          "name": "name",
          "type": "string"
        },
        {
          "internalType": "uint8",
          "name": "sides",
          "type": "uint8"
        }
      ],
      "name": "mintNFT",
      "outputs": [
        {
          "internalType": "uint256",
          "name": "",
          "type": "uint256"
        }
      ],
      "stateMutability": "nonpayable",
      "type": "function"
    },
    {
      "inputs": [],
      "name": "name",
      "outputs": [
        {
          "internalType": "string",
          "name": "",
          "type": "string"
        }
      ],
      "stateMutability": "view",
      "type": "function"
    },
    {
      "inputs": [],
      "name": "owner",
      "outputs": [
        {
          "internalType": "address",
          "name": "",
          "type": "address"
        }
      ],
      "stateMutability": "view",
      "type": "function"
    },
    {
      "inputs": [
        {
          "internalType": "uint256",
          "name": "tokenId",
          "type": "uint256"
        }
      ],
      "name": "ownerOf",
      "outputs": [
        {
          "internalType": "address",
          "name": "",
          "type": "address"
        }
      ],
      "stateMutability": "view",
      "type": "function"
    },
    {
      "inputs": [],
      "name": "renounceOwnership",
      "outputs": [],
      "stateMutability": "nonpayable",
      "type": "function"
    },
    {
      "inputs": [
        {
          "internalType": "uint256",
          "name": "tokenId",
          "type": "uint256"
        },
        {
          "internalType": "uint16",
          "name": "nonce",
          "type": "uint16"
        }
      ],
      "name": "roll",
      "outputs": [
        {
          "internalType": "uint8",
          "name": "",
          "type": "uint8"
        }
      ],
      "stateMutability": "view",
      "type": "function"
    },
    {
      "inputs": [
        {
          "internalType": "address",
          "name": "from",
          "type": "address"
        },
        {
          "internalType": "address",
          "name": "to",
          "type": "address"
        },
        {
          "internalType": "uint256",
          "name": "tokenId",
          "type": "uint256"
        }
      ],
      "name": "safeTransferFrom",
      "outputs": [],
      "stateMutability": "nonpayable",
      "type": "function"
    },
    {
      "inputs": [
        {
          "internalType": "address",
          "name": "from",
          "type": "address"
        },
        {
          "internalType": "address",
          "name": "to",
          "type": "address"
        },
        {
          "internalType": "uint256",
          "name": "tokenId",
          "type": "uint256"
        },
        {
          "internalType": "bytes",
          "name": "_data",
          "type": "bytes"
        }
      ],
      "name": "safeTransferFrom",
      "outputs": [],
      "stateMutability": "nonpayable",
      "type": "function"
    },
    {
      "inputs": [
        {
          "internalType": "address",
          "name": "operator",
          "type": "address"
        },
        {
          "internalType": "bool",
          "name": "approved",
          "type": "bool"
        }
      ],
      "name": "setApprovalForAll",
      "outputs": [],
      "stateMutability": "nonpayable",
      "type": "function"
    },
    {
      "inputs": [
        {
          "internalType": "string",
          "name": "baseURI",
          "type": "string"
        }
      ],
      "name": "setBaseURI",
      "outputs": [],
      "stateMutability": "nonpayable",
      "type": "function"
    },
    {
      "inputs": [
        {
          "internalType": "bytes4",
          "name": "interfaceId",
          "type": "bytes4"
        }
      ],
      "name": "supportsInterface",
      "outputs": [
        {
          "internalType": "bool",
          "name": "",
          "type": "bool"
        }
      ],
      "stateMutability": "view",
      "type": "function"
    },
    {
      "inputs": [],
      "name": "symbol",
      "outputs": [
        {
          "internalType": "string",
          "name": "",
          "type": "string"
        }
      ],
      "stateMutability": "view",
      "type": "function"
    },
    {
      "inputs": [
        {
          "internalType": "address",
          "name": "owner",
          "type": "address"
        }
      ],
      "name": "tokenListOfOwner",
      "outputs": [
        {
          "internalType": "uint16[]",
          "name": "",
          "type": "uint16[]"
        }
      ],
      "stateMutability": "view",
      "type": "function"
    },
    {
      "inputs": [
        {
          "internalType": "address",
          "name": "owner",
          "type": "address"
        },
        {
          "internalType": "uint256",
          "name": "index",
          "type": "uint256"
        }
      ],
      "name": "tokenOfOwnerByIndex",
      "outputs": [
        {
          "internalType": "uint16",
          "name": "",
          "type": "uint16"
        }
      ],
      "stateMutability": "view",
      "type": "function"
    },
    {
      "inputs": [
        {
          "internalType": "uint256",
          "name": "tokenId",
          "type": "uint256"
        }
      ],
      "name": "tokenURI",
      "outputs": [
        {
          "internalType": "string",
          "name": "",
          "type": "string"
        }
      ],
      "stateMutability": "view",
      "type": "function"
    },
    {
      "inputs": [],
      "name": "tokensBurnt",
      "outputs": [
        {
          "internalType": "uint256",
          "name": "",
          "type": "uint256"
        }
      ],
      "stateMutability": "view",
      "type": "function"
    },
    {
      "inputs": [],
      "name": "tokensMinted",
      "outputs": [
        {
          "internalType": "uint256",
          "name": "",
          "type": "uint256"
        }
      ],
      "stateMutability": "view",
      "type": "function"
    },
    {
      "inputs": [],
      "name": "totalSupply",
      "outputs": [
        {
          "internalType": "uint256",
          "name": "",
          "type": "uint256"
        }
      ],
      "stateMutability": "view",
      "type": "function"
    },
    {
      "inputs": [
        {
          "internalType": "address",
          "name": "from",
          "type": "address"
        },
        {
          "internalType": "address",
          "name": "to",
          "type": "address"
        },
        {
          "internalType": "uint256",
          "name": "tokenId",
          "type": "uint256"
        }
      ],
      "name": "transferFrom",
      "outputs": [],
      "stateMutability": "nonpayable",
      "type": "function"
    },
    {
      "inputs": [
        {
          "internalType": "address",
          "name": "newOwner",
          "type": "address"
        }
      ],
      "name": "transferOwnership",
      "outputs": [],
      "stateMutability": "nonpayable",
      "type": "function"
    }
  ],
  "bytecode": "0x60806040523480156200001157600080fd5b506040518060400160405280600f81526020017f5461626c65746f70446963654e465400000000000000000000000000000000008152506040518060400160405280600c81526020017f5461626c65746f704469636500000000000000000000000000000000000000008152506200009e62000092620000d860201b60201c565b620000e060201b60201c565b8160019080519060200190620000b6929190620001a4565b508060029080519060200190620000cf929190620001a4565b505050620002b9565b600033905090565b60008060009054906101000a900473ffffffffffffffffffffffffffffffffffffffff169050816000806101000a81548173ffffffffffffffffffffffffffffffffffffffff021916908373ffffffffffffffffffffffffffffffffffffffff1602179055508173ffffffffffffffffffffffffffffffffffffffff168173ffffffffffffffffffffffffffffffffffffffff167f8be0079c531659141344cd1fd0a4f28419497f9722a3daafe3b4186f6b6457e060405160405180910390a35050565b828054620001b29062000254565b90600052602060002090601f016020900481019282620001d6576000855562000222565b82601f10620001f157805160ff191683800117855562000222565b8280016001018555821562000222579182015b828111156200022157825182559160200191906001019062000204565b5b50905062000231919062000235565b5090565b5b808211156200025057600081600090555060010162000236565b5090565b600060028204905060018216806200026d57607f821691505b602082108114156200028457620002836200028a565b5b50919050565b7f4e487b7100000000000000000000000000000000000000000000000000000000600052602260045260246000fd5b61417d80620002c96000396000f3fe608060405234801561001057600080fd5b506004361061018e5760003560e01c8063715018a6116100de578063b0d8b51f11610097578063c87b56dd11610071578063c87b56dd14610497578063e1dc0761146104c7578063e985e9c5146104f9578063f2fde38b146105295761018e565b8063b0d8b51f1461043f578063b88d4fde1461045d578063c6ead8af146104795761018e565b8063715018a61461037d5780638da5cb5b1461038757806395d89b41146103a5578063a22cb465146103c3578063a689e8c2146103df578063af6f8e7d1461040f5761018e565b80632f745c591161014b5780636352211e116101255780636352211e146102cf5780636618196c146102ff5780636de9f32b1461032f57806370a082311461034d5761018e565b80632f745c591461026757806342842e0e1461029757806355f804b3146102b35761018e565b806301ffc9a71461019357806306fdde03146101c3578063081812fc146101e1578063095ea7b31461021157806318160ddd1461022d57806323b872dd1461024b575b600080fd5b6101ad60048036038101906101a89190612b9d565b610545565b6040516101ba91906132ee565b60405180910390f35b6101cb610627565b6040516101d89190613309565b60405180910390f35b6101fb60048036038101906101f69190612ccf565b6106b9565b6040516102089190613243565b60405180910390f35b61022b60048036038101906102269190612b5d565b61073e565b005b610235610856565b604051610242919061364b565b60405180910390f35b610265600480360381019061026091906129d8565b61086d565b005b610281600480360381019061027c9190612b5d565b6108cd565b60405161028e9190613630565b60405180910390f35b6102b160048036038101906102ac91906129d8565b610996565b005b6102cd60048036038101906102c89190612bf7565b6109b6565b005b6102e960048036038101906102e49190612ccf565b610a48565b6040516102f69190613243565b60405180910390f35b6103196004803603810190610314919061296b565b610afa565b60405161032691906132aa565b60405180910390f35b610337610bb9565b604051610344919061364b565b60405180910390f35b6103676004803603810190610362919061296b565b610bbf565b604051610374919061364b565b60405180910390f35b610385610c77565b005b61038f610cff565b60405161039c9190613243565b60405180910390f35b6103ad610d28565b6040516103ba9190613309565b60405180910390f35b6103dd60048036038101906103d89190612aae565b610dba565b005b6103f960048036038101906103f49190612aee565b610dd0565b604051610406919061364b565b60405180910390f35b61042960048036038101906104249190612cfc565b610e93565b6040516104369190613666565b60405180910390f35b610447610fa7565b60405161045491906132cc565b60405180910390f35b61047760048036038101906104729190612a2b565b611057565b005b6104816110b9565b60405161048e919061364b565b60405180910390f35b6104b160048036038101906104ac9190612ccf565b6110bf565b6040516104be9190613309565b60405180910390f35b6104e160048036038101906104dc9190612ccf565b611166565b6040516104f09392919061332b565b60405180910390f35b610513600480360381019061050e9190612998565b611209565b60405161052091906132ee565b60405180910390f35b610543600480360381019061053e919061296b565b61129d565b005b60007f80ac58cd000000000000000000000000000000000000000000000000000000007bffffffffffffffffffffffffffffffffffffffffffffffffffffffff1916827bffffffffffffffffffffffffffffffffffffffffffffffffffffffff1916148061061057507f5b5e139f000000000000000000000000000000000000000000000000000000007bffffffffffffffffffffffffffffffffffffffffffffffffffffffff1916827bffffffffffffffffffffffffffffffffffffffffffffffffffffffff1916145b80610620575061061f82611395565b5b9050919050565b60606001805461063690613949565b80601f016020809104026020016040519081016040528092919081815260200182805461066290613949565b80156106af5780601f10610684576101008083540402835291602001916106af565b820191906000526020600020905b81548152906001019060200180831161069257829003601f168201915b5050505050905090565b60006106c4826113ff565b610703576040517f08c379a00000000000000000000000000000000000000000000000000000000081526004016106fa90613510565b60405180910390fd5b6005600083815260200190815260200160002060009054906101000a900473ffffffffffffffffffffffffffffffffffffffff169050919050565b600061074982610a48565b90508073ffffffffffffffffffffffffffffffffffffffff168373ffffffffffffffffffffffffffffffffffffffff1614156107ba576040517f08c379a00000000000000000000000000000000000000000000000000000000081526004016107b190613590565b60405180910390fd5b8073ffffffffffffffffffffffffffffffffffffffff166107d961146b565b73ffffffffffffffffffffffffffffffffffffffff16148061080857506108078161080261146b565b611209565b5b610847576040517f08c379a000000000000000000000000000000000000000000000000000000000815260040161083e90613490565b60405180910390fd5b6108518383611473565b505050565b60006009546008546108689190613844565b905090565b61087e61087861146b565b8261152c565b6108bd576040517f08c379a00000000000000000000000000000000000000000000000000000000081526004016108b4906135b0565b60405180910390fd5b6108c883838361160a565b505050565b60006108d883610bbf565b8210610919576040517f08c379a000000000000000000000000000000000000000000000000000000000815260040161091090613570565b60405180910390fd5b600760008473ffffffffffffffffffffffffffffffffffffffff1673ffffffffffffffffffffffffffffffffffffffff168152602001908152602001600020828154811061096a57610969613b11565b5b90600052602060002090601091828204019190066002029054906101000a900461ffff16905092915050565b6109b183838360405180602001604052806000815250611057565b505050565b6109be61146b565b73ffffffffffffffffffffffffffffffffffffffff166109dc610cff565b73ffffffffffffffffffffffffffffffffffffffff1614610a32576040517f08c379a0000000000000000000000000000000000000000000000000000000008152600401610a2990613530565b60405180910390fd5b8181600c9190610a439291906125f4565b505050565b6000806003600084815260200190815260200160002060009054906101000a900473ffffffffffffffffffffffffffffffffffffffff169050600073ffffffffffffffffffffffffffffffffffffffff168173ffffffffffffffffffffffffffffffffffffffff161415610af1576040517f08c379a0000000000000000000000000000000000000000000000000000000008152600401610ae8906134d0565b60405180910390fd5b80915050919050565b6060600760008373ffffffffffffffffffffffffffffffffffffffff1673ffffffffffffffffffffffffffffffffffffffff168152602001908152602001600020805480602002602001604051908101604052809291908181526020018280548015610bad57602002820191906000526020600020906000905b82829054906101000a900461ffff1661ffff1681526020019060020190602082600101049283019260010382029150808411610b745790505b50505050509050919050565b60085481565b60008073ffffffffffffffffffffffffffffffffffffffff168273ffffffffffffffffffffffffffffffffffffffff161415610c30576040517f08c379a0000000000000000000000000000000000000000000000000000000008152600401610c27906134b0565b60405180910390fd5b600460008373ffffffffffffffffffffffffffffffffffffffff1673ffffffffffffffffffffffffffffffffffffffff168152602001908152602001600020549050919050565b610c7f61146b565b73ffffffffffffffffffffffffffffffffffffffff16610c9d610cff565b73ffffffffffffffffffffffffffffffffffffffff1614610cf3576040517f08c379a0000000000000000000000000000000000000000000000000000000008152600401610cea90613530565b60405180910390fd5b610cfd6000611871565b565b60008060009054906101000a900473ffffffffffffffffffffffffffffffffffffffff16905090565b606060028054610d3790613949565b80601f0160208091040260200160405190810160405280929190818152602001828054610d6390613949565b8015610db05780601f10610d8557610100808354040283529160200191610db0565b820191906000526020600020905b815481529060010190602001808311610d9357829003601f168201915b5050505050905090565b610dcc610dc561146b565b8383611935565b5050565b6000610dda61146b565b73ffffffffffffffffffffffffffffffffffffffff16610df8610cff565b73ffffffffffffffffffffffffffffffffffffffff1614610e4e576040517f08c379a0000000000000000000000000000000000000000000000000000000008152600401610e4590613530565b60405180910390fd5b6000610e5a600b611aa2565b9050610e74848285600a611ab0909392919063ffffffff16565b610e7e8582611bf6565b610e88600b611c14565b809150509392505050565b6000610e9d61146b565b73ffffffffffffffffffffffffffffffffffffffff16610ebb610cff565b73ffffffffffffffffffffffffffffffffffffffff1614610f11576040517f08c379a0000000000000000000000000000000000000000000000000000000008152600401610f0890613530565b60405180910390fd5b600a73__$3b68987207f559b9bfdbbec8c00268de72$__63d20f53f1909185856040518463ffffffff1660e01b8152600401610f4f939291906135f9565b60206040518083038186803b158015610f6757600080fd5b505af4158015610f7b573d6000803e3d6000fd5b505050506040513d601f19601f82011682018060405250810190610f9f9190612d3c565b905092915050565b60606000610fb433610bbf565b905060008167ffffffffffffffff811115610fd257610fd1613b40565b5b6040519080825280602002602001820160405280156110005781602001602082028036833780820191505090505b50905060005b8281101561104e5761101833826108cd565b61ffff1682828151811061102f5761102e613b11565b5b6020026020010181815250508080611046906139ac565b915050611006565b50809250505090565b61106861106261146b565b8361152c565b6110a7576040517f08c379a000000000000000000000000000000000000000000000000000000000815260040161109e906135b0565b60405180910390fd5b6110b384848484611c2a565b50505050565b60095481565b60606110ca826113ff565b611109576040517f08c379a000000000000000000000000000000000000000000000000000000000815260040161110090613550565b60405180910390fd5b6000611113611c86565b90506000815111611133576040518060200160405280600081525061115e565b8061113d84611d18565b60405160200161114e92919061321f565b6040516020818303038152906040525b915050919050565b6060806000600a73__$3b68987207f559b9bfdbbec8c00268de72$__6323f5b9fc9091866040518363ffffffff1660e01b81526004016111a79291906135d0565b60006040518083038186803b1580156111bf57600080fd5b505af41580156111d3573d6000803e3d6000fd5b505050506040513d6000823e3d601f19601f820116820180604052508101906111fc9190612c44565b9250925092509193909250565b6000600660008473ffffffffffffffffffffffffffffffffffffffff1673ffffffffffffffffffffffffffffffffffffffff16815260200190815260200160002060008373ffffffffffffffffffffffffffffffffffffffff1673ffffffffffffffffffffffffffffffffffffffff16815260200190815260200160002060009054906101000a900460ff16905092915050565b6112a561146b565b73ffffffffffffffffffffffffffffffffffffffff166112c3610cff565b73ffffffffffffffffffffffffffffffffffffffff1614611319576040517f08c379a000000000000000000000000000000000000000000000000000000000815260040161131090613530565b60405180910390fd5b600073ffffffffffffffffffffffffffffffffffffffff168173ffffffffffffffffffffffffffffffffffffffff161415611389576040517f08c379a0000000000000000000000000000000000000000000000000000000008152600401611380906133d0565b60405180910390fd5b61139281611871565b50565b60007f01ffc9a7000000000000000000000000000000000000000000000000000000007bffffffffffffffffffffffffffffffffffffffffffffffffffffffff1916827bffffffffffffffffffffffffffffffffffffffffffffffffffffffff1916149050919050565b60008073ffffffffffffffffffffffffffffffffffffffff166003600084815260200190815260200160002060009054906101000a900473ffffffffffffffffffffffffffffffffffffffff1673ffffffffffffffffffffffffffffffffffffffff1614159050919050565b600033905090565b816005600083815260200190815260200160002060006101000a81548173ffffffffffffffffffffffffffffffffffffffff021916908373ffffffffffffffffffffffffffffffffffffffff160217905550808273ffffffffffffffffffffffffffffffffffffffff166114e683610a48565b73ffffffffffffffffffffffffffffffffffffffff167f8c5be1e5ebec7d5bd14f71427d1e84f3dd0314c0f7b2291e5b200ac8c7c3b92560405160405180910390a45050565b6000611537826113ff565b611576576040517f08c379a000000000000000000000000000000000000000000000000000000000815260040161156d90613470565b60405180910390fd5b600061158183610a48565b90508073ffffffffffffffffffffffffffffffffffffffff168473ffffffffffffffffffffffffffffffffffffffff1614806115f057508373ffffffffffffffffffffffffffffffffffffffff166115d8846106b9565b73ffffffffffffffffffffffffffffffffffffffff16145b8061160157506116008185611209565b5b91505092915050565b8273ffffffffffffffffffffffffffffffffffffffff1661162a82610a48565b73ffffffffffffffffffffffffffffffffffffffff1614611680576040517f08c379a0000000000000000000000000000000000000000000000000000000008152600401611677906133f0565b60405180910390fd5b600073ffffffffffffffffffffffffffffffffffffffff168273ffffffffffffffffffffffffffffffffffffffff1614156116f0576040517f08c379a00000000000000000000000000000000000000000000000000000000081526004016116e790613430565b60405180910390fd5b6116fb838383611e79565b611706600082611473565b6001600460008573ffffffffffffffffffffffffffffffffffffffff1673ffffffffffffffffffffffffffffffffffffffff16815260200190815260200160002060008282546117569190613844565b925050819055506001600460008473ffffffffffffffffffffffffffffffffffffffff1673ffffffffffffffffffffffffffffffffffffffff16815260200190815260200160002060008282546117ad91906137bd565b92505081905550816003600083815260200190815260200160002060006101000a81548173ffffffffffffffffffffffffffffffffffffffff021916908373ffffffffffffffffffffffffffffffffffffffff160217905550808273ffffffffffffffffffffffffffffffffffffffff168473ffffffffffffffffffffffffffffffffffffffff167fddf252ad1be2c89b69c2b068fc378daa952ba7f163c4a11628f55a4df523b3ef60405160405180910390a461186c838383611f71565b505050565b60008060009054906101000a900473ffffffffffffffffffffffffffffffffffffffff169050816000806101000a81548173ffffffffffffffffffffffffffffffffffffffff021916908373ffffffffffffffffffffffffffffffffffffffff1602179055508173ffffffffffffffffffffffffffffffffffffffff168173ffffffffffffffffffffffffffffffffffffffff167f8be0079c531659141344cd1fd0a4f28419497f9722a3daafe3b4186f6b6457e060405160405180910390a35050565b8173ffffffffffffffffffffffffffffffffffffffff168373ffffffffffffffffffffffffffffffffffffffff1614156119a4576040517f08c379a000000000000000000000000000000000000000000000000000000000815260040161199b90613450565b60405180910390fd5b80600660008573ffffffffffffffffffffffffffffffffffffffff1673ffffffffffffffffffffffffffffffffffffffff16815260200190815260200160002060008473ffffffffffffffffffffffffffffffffffffffff1673ffffffffffffffffffffffffffffffffffffffff16815260200190815260200160002060006101000a81548160ff0219169083151502179055508173ffffffffffffffffffffffffffffffffffffffff168373ffffffffffffffffffffffffffffffffffffffff167f17307eab39ab6107e8899845ad3d59bd9653f200f220920489ca2b5937696c3183604051611a9591906132ee565b60405180910390a3505050565b600081600001549050919050565b60008160ff1611611af6576040517f08c379a0000000000000000000000000000000000000000000000000000000008152600401611aed90613370565b60405180910390fd5b600080600a8360ff1614611b0b576000611b0e565b60015b905060405180608001604052808681526020018460ff1681526020018215158152602001836002811115611b4557611b44613a84565b5b8152508660000160008681526020019081526020016000206000820151816000019080519060200190611b7992919061267a565b5060208201518160010160006101000a81548160ff021916908360ff16021790555060408201518160010160016101000a81548160ff02191690831515021790555060608201518160010160026101000a81548160ff02191690836002811115611be657611be5613a84565b5b0217905550905050505050505050565b611c10828260405180602001604052806000815250611f76565b5050565b6001816000016000828254019250508190555050565b611c3584848461160a565b611c4184848484611fd1565b611c80576040517f08c379a0000000000000000000000000000000000000000000000000000000008152600401611c77906133b0565b60405180910390fd5b50505050565b6060600c8054611c9590613949565b80601f0160208091040260200160405190810160405280929190818152602001828054611cc190613949565b8015611d0e5780601f10611ce357610100808354040283529160200191611d0e565b820191906000526020600020905b815481529060010190602001808311611cf157829003601f168201915b5050505050905090565b60606000821415611d60576040518060400160405280600181526020017f30000000000000000000000000000000000000000000000000000000000000008152509050611e74565b600082905060005b60008214611d92578080611d7b906139ac565b915050600a82611d8b9190613813565b9150611d68565b60008167ffffffffffffffff811115611dae57611dad613b40565b5b6040519080825280601f01601f191660200182016040528015611de05781602001600182028036833780820191505090505b5090505b60008514611e6d57600182611df99190613844565b9150600a85611e0891906139f5565b6030611e1491906137bd565b60f81b818381518110611e2a57611e29613b11565b5b60200101907effffffffffffffffffffffffffffffffffffffffffffffffffffffffffffff1916908160001a905350600a85611e669190613813565b9450611de4565b8093505050505b919050565b611e84838383612168565b8273ffffffffffffffffffffffffffffffffffffffff168273ffffffffffffffffffffffffffffffffffffffff1614611f6c57611ec1828261216d565b600073ffffffffffffffffffffffffffffffffffffffff168373ffffffffffffffffffffffffffffffffffffffff1614611f0457611eff83826121f8565b611f1d565b60086000815480929190611f17906139ac565b91905055505b600073ffffffffffffffffffffffffffffffffffffffff168273ffffffffffffffffffffffffffffffffffffffff161415611f6b5760096000815480929190611f65906139ac565b91905055505b5b505050565b505050565b611f8083836123f7565b611f8d6000848484611fd1565b611fcc576040517f08c379a0000000000000000000000000000000000000000000000000000000008152600401611fc3906133b0565b60405180910390fd5b505050565b6000611ff28473ffffffffffffffffffffffffffffffffffffffff166125d1565b1561215b578373ffffffffffffffffffffffffffffffffffffffff1663150b7a0261201b61146b565b8786866040518563ffffffff1660e01b815260040161203d949392919061325e565b602060405180830381600087803b15801561205757600080fd5b505af192505050801561208857506040513d601f19601f820116820180604052508101906120859190612bca565b60015b61210b573d80600081146120b8576040519150601f19603f3d011682016040523d82523d6000602084013e6120bd565b606091505b50600081511415612103576040517f08c379a00000000000000000000000000000000000000000000000000000000081526004016120fa906133b0565b60405180910390fd5b805181602001fd5b63150b7a0260e01b7bffffffffffffffffffffffffffffffffffffffffffffffffffffffff1916817bffffffffffffffffffffffffffffffffffffffffffffffffffffffff191614915050612160565b600190505b949350505050565b505050565b600760008373ffffffffffffffffffffffffffffffffffffffff1673ffffffffffffffffffffffffffffffffffffffff1681526020019081526020016000208190806001815401808255809150506001900390600052602060002090601091828204019190066002029091909190916101000a81548161ffff021916908361ffff1602179055505050565b6000600760008473ffffffffffffffffffffffffffffffffffffffff1673ffffffffffffffffffffffffffffffffffffffff168152602001908152602001600020905060008180549050905060005b82805490508110156122b4578361ffff1683828154811061226b5761226a613b11565b5b90600052602060002090601091828204019190066002029054906101000a900461ffff1661ffff1614156122a1578091506122b4565b80806122ac906139ac565b915050612247565b50818054905081106122fb576040517f08c379a00000000000000000000000000000000000000000000000000000000081526004016122f290613390565b60405180910390fd5b60008190505b600183805490506123129190613844565b8110156123b1578260018261232791906137bd565b8154811061233857612337613b11565b5b90600052602060002090601091828204019190066002029054906101000a900461ffff1683828154811061236f5761236e613b11565b5b90600052602060002090601091828204019190066002026101000a81548161ffff021916908361ffff16021790555080806123a9906139ac565b915050612301565b50818054806123c3576123c2613ae2565b5b60019003818190600052602060002090601091828204019190066002026101000a81549061ffff0219169055905550505050565b600073ffffffffffffffffffffffffffffffffffffffff168273ffffffffffffffffffffffffffffffffffffffff161415612467576040517f08c379a000000000000000000000000000000000000000000000000000000000815260040161245e906134f0565b60405180910390fd5b612470816113ff565b156124b0576040517f08c379a00000000000000000000000000000000000000000000000000000000081526004016124a790613410565b60405180910390fd5b6124bc60008383611e79565b6001600460008473ffffffffffffffffffffffffffffffffffffffff1673ffffffffffffffffffffffffffffffffffffffff168152602001908152602001600020600082825461250c91906137bd565b92505081905550816003600083815260200190815260200160002060006101000a81548173ffffffffffffffffffffffffffffffffffffffff021916908373ffffffffffffffffffffffffffffffffffffffff160217905550808273ffffffffffffffffffffffffffffffffffffffff16600073ffffffffffffffffffffffffffffffffffffffff167fddf252ad1be2c89b69c2b068fc378daa952ba7f163c4a11628f55a4df523b3ef60405160405180910390a46125cd60008383611f71565b5050565b6000808273ffffffffffffffffffffffffffffffffffffffff163b119050919050565b82805461260090613949565b90600052602060002090601f0160209004810192826126225760008555612669565b82601f1061263b57803560ff1916838001178555612669565b82800160010185558215612669579182015b8281111561266857823582559160200191906001019061264d565b5b5090506126769190612700565b5090565b82805461268690613949565b90600052602060002090601f0160209004810192826126a857600085556126ef565b82601f106126c157805160ff19168380011785556126ef565b828001600101855582156126ef579182015b828111156126ee5782518255916020019190600101906126d3565b5b5090506126fc9190612700565b5090565b5b80821115612719576000816000905550600101612701565b5090565b600061273061272b846136a6565b613681565b90508281526020810184848401111561274c5761274b613b7e565b5b612757848285613907565b509392505050565b600061277261276d846136d7565b613681565b90508281526020810184848401111561278e5761278d613b7e565b5b612799848285613907565b509392505050565b60006127b46127af846136d7565b613681565b9050828152602081018484840111156127d0576127cf613b7e565b5b6127db848285613916565b509392505050565b6000813590506127f2816140bd565b92915050565b600081359050612807816140d4565b92915050565b60008135905061281c816140eb565b92915050565b600081519050612831816140eb565b92915050565b600082601f83011261284c5761284b613b74565b5b813561285c84826020860161271d565b91505092915050565b60008083601f84011261287b5761287a613b74565b5b8235905067ffffffffffffffff81111561289857612897613b6f565b5b6020830191508360018202830111156128b4576128b3613b79565b5b9250929050565b600082601f8301126128d0576128cf613b74565b5b81356128e084826020860161275f565b91505092915050565b600082601f8301126128fe576128fd613b74565b5b815161290e8482602086016127a1565b91505092915050565b60008135905061292681614102565b92915050565b60008135905061293b81614119565b92915050565b60008135905061295081614130565b92915050565b60008151905061296581614130565b92915050565b60006020828403121561298157612980613b88565b5b600061298f848285016127e3565b91505092915050565b600080604083850312156129af576129ae613b88565b5b60006129bd858286016127e3565b92505060206129ce858286016127e3565b9150509250929050565b6000806000606084860312156129f1576129f0613b88565b5b60006129ff868287016127e3565b9350506020612a10868287016127e3565b9250506040612a218682870161292c565b9150509250925092565b60008060008060808587031215612a4557612a44613b88565b5b6000612a53878288016127e3565b9450506020612a64878288016127e3565b9350506040612a758782880161292c565b925050606085013567ffffffffffffffff811115612a9657612a95613b83565b5b612aa287828801612837565b91505092959194509250565b60008060408385031215612ac557612ac4613b88565b5b6000612ad3858286016127e3565b9250506020612ae4858286016127f8565b9150509250929050565b600080600060608486031215612b0757612b06613b88565b5b6000612b15868287016127e3565b935050602084013567ffffffffffffffff811115612b3657612b35613b83565b5b612b42868287016128bb565b9250506040612b5386828701612941565b9150509250925092565b60008060408385031215612b7457612b73613b88565b5b6000612b82858286016127e3565b9250506020612b938582860161292c565b9150509250929050565b600060208284031215612bb357612bb2613b88565b5b6000612bc18482850161280d565b91505092915050565b600060208284031215612be057612bdf613b88565b5b6000612bee84828501612822565b91505092915050565b60008060208385031215612c0e57612c0d613b88565b5b600083013567ffffffffffffffff811115612c2c57612c2b613b83565b5b612c3885828601612865565b92509250509250929050565b600080600060608486031215612c5d57612c5c613b88565b5b600084015167ffffffffffffffff811115612c7b57612c7a613b83565b5b612c87868287016128e9565b935050602084015167ffffffffffffffff811115612ca857612ca7613b83565b5b612cb4868287016128e9565b9250506040612cc586828701612956565b9150509250925092565b600060208284031215612ce557612ce4613b88565b5b6000612cf38482850161292c565b91505092915050565b60008060408385031215612d1357612d12613b88565b5b6000612d218582860161292c565b9250506020612d3285828601612917565b9150509250929050565b600060208284031215612d5257612d51613b88565b5b6000612d6084828501612956565b91505092915050565b6000612d7583836131b6565b60208301905092915050565b6000612d8d83836131e3565b60208301905092915050565b612da281613878565b82525050565b6000612db382613728565b612dbd818561376e565b9350612dc883613708565b8060005b83811015612df9578151612de08882612d69565b9750612deb83613754565b925050600181019050612dcc565b5085935050505092915050565b6000612e1182613733565b612e1b818561377f565b9350612e2683613718565b8060005b83811015612e57578151612e3e8882612d81565b9750612e4983613761565b925050600181019050612e2a565b5085935050505092915050565b612e6d8161388a565b82525050565b6000612e7e8261373e565b612e888185613790565b9350612e98818560208601613916565b612ea181613b8d565b840191505092915050565b6000612eb782613749565b612ec181856137a1565b9350612ed1818560208601613916565b612eda81613b8d565b840191505092915050565b6000612ef082613749565b612efa81856137b2565b9350612f0a818560208601613916565b80840191505092915050565b6000612f236016836137a1565b9150612f2e82613b9e565b602082019050919050565b6000612f466037836137a1565b9150612f5182613bc7565b604082019050919050565b6000612f696032836137a1565b9150612f7482613c16565b604082019050919050565b6000612f8c6026836137a1565b9150612f9782613c65565b604082019050919050565b6000612faf6025836137a1565b9150612fba82613cb4565b604082019050919050565b6000612fd2601c836137a1565b9150612fdd82613d03565b602082019050919050565b6000612ff56024836137a1565b915061300082613d2c565b604082019050919050565b60006130186019836137a1565b915061302382613d7b565b602082019050919050565b600061303b602c836137a1565b915061304682613da4565b604082019050919050565b600061305e6038836137a1565b915061306982613df3565b604082019050919050565b6000613081602a836137a1565b915061308c82613e42565b604082019050919050565b60006130a46029836137a1565b91506130af82613e91565b604082019050919050565b60006130c76020836137a1565b91506130d282613ee0565b602082019050919050565b60006130ea602c836137a1565b91506130f582613f09565b604082019050919050565b600061310d6020836137a1565b915061311882613f58565b602082019050919050565b6000613130602f836137a1565b915061313b82613f81565b604082019050919050565b60006131536031836137a1565b915061315e82613fd0565b604082019050919050565b60006131766021836137a1565b91506131818261401f565b604082019050919050565b60006131996031836137a1565b91506131a48261406e565b604082019050919050565b8082525050565b6131bf816138c2565b82525050565b6131ce816138c2565b82525050565b6131dd816138c2565b82525050565b6131ec816138f0565b82525050565b6131fb816138f0565b82525050565b61320a816138f0565b82525050565b613219816138fa565b82525050565b600061322b8285612ee5565b91506132378284612ee5565b91508190509392505050565b60006020820190506132586000830184612d99565b92915050565b60006080820190506132736000830187612d99565b6132806020830186612d99565b61328d60408301856131f2565b818103606083015261329f8184612e73565b905095945050505050565b600060208201905081810360008301526132c48184612da8565b905092915050565b600060208201905081810360008301526132e68184612e06565b905092915050565b60006020820190506133036000830184612e64565b92915050565b600060208201905081810360008301526133238184612eac565b905092915050565b600060608201905081810360008301526133458186612eac565b905081810360208301526133598185612eac565b90506133686040830184613210565b949350505050565b6000602082019050818103600083015261338981612f16565b9050919050565b600060208201905081810360008301526133a981612f39565b9050919050565b600060208201905081810360008301526133c981612f5c565b9050919050565b600060208201905081810360008301526133e981612f7f565b9050919050565b6000602082019050818103600083015261340981612fa2565b9050919050565b6000602082019050818103600083015261342981612fc5565b9050919050565b6000602082019050818103600083015261344981612fe8565b9050919050565b600060208201905081810360008301526134698161300b565b9050919050565b600060208201905081810360008301526134898161302e565b9050919050565b600060208201905081810360008301526134a981613051565b9050919050565b600060208201905081810360008301526134c981613074565b9050919050565b600060208201905081810360008301526134e981613097565b9050919050565b60006020820190508181036000830152613509816130ba565b9050919050565b60006020820190508181036000830152613529816130dd565b9050919050565b6000602082019050818103600083015261354981613100565b9050919050565b6000602082019050818103600083015261356981613123565b9050919050565b6000602082019050818103600083015261358981613146565b9050919050565b600060208201905081810360008301526135a981613169565b9050919050565b600060208201905081810360008301526135c98161318c565b9050919050565b60006040820190506135e560008301856131af565b6135f26020830184613201565b9392505050565b600060608201905061360e60008301866131af565b61361b6020830185613201565b61362860408301846131d4565b949350505050565b600060208201905061364560008301846131c5565b92915050565b600060208201905061366060008301846131f2565b92915050565b600060208201905061367b6000830184613210565b92915050565b600061368b61369c565b9050613697828261397b565b919050565b6000604051905090565b600067ffffffffffffffff8211156136c1576136c0613b40565b5b6136ca82613b8d565b9050602081019050919050565b600067ffffffffffffffff8211156136f2576136f1613b40565b5b6136fb82613b8d565b9050602081019050919050565b6000819050602082019050919050565b6000819050602082019050919050565b600081519050919050565b600081519050919050565b600081519050919050565b600081519050919050565b6000602082019050919050565b6000602082019050919050565b600082825260208201905092915050565b600082825260208201905092915050565b600082825260208201905092915050565b600082825260208201905092915050565b600081905092915050565b60006137c8826138f0565b91506137d3836138f0565b9250827fffffffffffffffffffffffffffffffffffffffffffffffffffffffffffffffff0382111561380857613807613a26565b5b828201905092915050565b600061381e826138f0565b9150613829836138f0565b92508261383957613838613a55565b5b828204905092915050565b600061384f826138f0565b915061385a836138f0565b92508282101561386d5761386c613a26565b5b828203905092915050565b6000613883826138d0565b9050919050565b60008115159050919050565b60007fffffffff0000000000000000000000000000000000000000000000000000000082169050919050565b600061ffff82169050919050565b600073ffffffffffffffffffffffffffffffffffffffff82169050919050565b6000819050919050565b600060ff82169050919050565b82818337600083830152505050565b60005b83811015613934578082015181840152602081019050613919565b83811115613943576000848401525b50505050565b6000600282049050600182168061396157607f821691505b6020821081141561397557613974613ab3565b5b50919050565b61398482613b8d565b810181811067ffffffffffffffff821117156139a3576139a2613b40565b5b80604052505050565b60006139b7826138f0565b91507fffffffffffffffffffffffffffffffffffffffffffffffffffffffffffffffff8214156139ea576139e9613a26565b5b600182019050919050565b6000613a00826138f0565b9150613a0b836138f0565b925082613a1b57613a1a613a55565b5b828206905092915050565b7f4e487b7100000000000000000000000000000000000000000000000000000000600052601160045260246000fd5b7f4e487b7100000000000000000000000000000000000000000000000000000000600052601260045260246000fd5b7f4e487b7100000000000000000000000000000000000000000000000000000000600052602160045260246000fd5b7f4e487b7100000000000000000000000000000000000000000000000000000000600052602260045260246000fd5b7f4e487b7100000000000000000000000000000000000000000000000000000000600052603160045260246000fd5b7f4e487b7100000000000000000000000000000000000000000000000000000000600052603260045260246000fd5b7f4e487b7100000000000000000000000000000000000000000000000000000000600052604160045260246000fd5b600080fd5b600080fd5b600080fd5b600080fd5b600080fd5b600080fd5b6000601f19601f8301169050919050565b7f5369646573206d757374206265206e6f6e2d7a65726f00000000000000000000600082015250565b7f45524337323153696d706c65456e756d657261626c653a20746f6b656e49642060008201527f6e6f7420666f756e6420696e206f776e6572206c697374000000000000000000602082015250565b7f4552433732313a207472616e7366657220746f206e6f6e20455243373231526560008201527f63656976657220696d706c656d656e7465720000000000000000000000000000602082015250565b7f4f776e61626c653a206e6577206f776e657220697320746865207a65726f206160008201527f6464726573730000000000000000000000000000000000000000000000000000602082015250565b7f4552433732313a207472616e736665722066726f6d20696e636f72726563742060008201527f6f776e6572000000000000000000000000000000000000000000000000000000602082015250565b7f4552433732313a20746f6b656e20616c7265616479206d696e74656400000000600082015250565b7f4552433732313a207472616e7366657220746f20746865207a65726f2061646460008201527f7265737300000000000000000000000000000000000000000000000000000000602082015250565b7f4552433732313a20617070726f766520746f2063616c6c657200000000000000600082015250565b7f4552433732313a206f70657261746f7220717565727920666f72206e6f6e657860008201527f697374656e7420746f6b656e0000000000000000000000000000000000000000602082015250565b7f4552433732313a20617070726f76652063616c6c6572206973206e6f74206f7760008201527f6e6572206e6f7220617070726f76656420666f7220616c6c0000000000000000602082015250565b7f4552433732313a2062616c616e636520717565727920666f7220746865207a6560008201527f726f206164647265737300000000000000000000000000000000000000000000602082015250565b7f4552433732313a206f776e657220717565727920666f72206e6f6e657869737460008201527f656e7420746f6b656e0000000000000000000000000000000000000000000000602082015250565b7f4552433732313a206d696e7420746f20746865207a65726f2061646472657373600082015250565b7f4552433732313a20617070726f76656420717565727920666f72206e6f6e657860008201527f697374656e7420746f6b656e0000000000000000000000000000000000000000602082015250565b7f4f776e61626c653a2063616c6c6572206973206e6f7420746865206f776e6572600082015250565b7f4552433732314d657461646174613a2055524920717565727920666f72206e6f60008201527f6e6578697374656e7420746f6b656e0000000000000000000000000000000000602082015250565b7f45524337323153696d706c65456e756d657261626c653a206f776e657220696e60008201527f646578206f7574206f6620626f756e6473000000000000000000000000000000602082015250565b7f4552433732313a20617070726f76616c20746f2063757272656e74206f776e6560008201527f7200000000000000000000000000000000000000000000000000000000000000602082015250565b7f4552433732313a207472616e736665722063616c6c6572206973206e6f74206f60008201527f776e6572206e6f7220617070726f766564000000000000000000000000000000602082015250565b6140c681613878565b81146140d157600080fd5b50565b6140dd8161388a565b81146140e857600080fd5b50565b6140f481613896565b81146140ff57600080fd5b50565b61410b816138c2565b811461411657600080fd5b50565b614122816138f0565b811461412d57600080fd5b50565b614139816138fa565b811461414457600080fd5b5056fea2646970667358221220bd406c91fff9bd2fde8d024eeff0eee2d669cb65a5895e02c8b9137126faf27e64736f6c63430008060033",
  "linkReferences": {
    "contracts/DiceLibrary.sol": {
      "DiceLibrary": [
        {
          "length": 20,
          "start": 4574
        },
        {
          "length": 20,
          "start": 5176
        }
      ]
    }
  },
  "deployedLinkReferences": {
    "contracts/DiceLibrary.sol": {
      "DiceLibrary": [
        {
          "length": 20,
          "start": 3861
        },
        {
          "length": 20,
          "start": 4463
        }
      ]
    }
  }
}