{
  "_format": "hh-sol-artifact-1",
  "contractName": "TabletopDiceNFT",
  "sourceName": "contracts/Dice.sol",
  "abi": [
    {
      "inputs": [],
      "stateMutability": "nonpayable",
      "type": "constructor"
    },
    {
      "anonymous": false,
      "inputs": [
        {
          "indexed": true,
          "internalType": "address",
          "name": "owner",
          "type": "address"
        },
        {
          "indexed": true,
          "internalType": "address",
          "name": "approved",
          "type": "address"
        },
        {
          "indexed": true,
          "internalType": "uint256",
          "name": "tokenId",
          "type": "uint256"
        }
      ],
      "name": "Approval",
      "type": "event"
    },
    {
      "anonymous": false,
      "inputs": [
        {
          "indexed": true,
          "internalType": "address",
          "name": "owner",
          "type": "address"
        },
        {
          "indexed": true,
          "internalType": "address",
          "name": "operator",
          "type": "address"
        },
        {
          "indexed": false,
          "internalType": "bool",
          "name": "approved",
          "type": "bool"
        }
      ],
      "name": "ApprovalForAll",
      "type": "event"
    },
    {
      "anonymous": false,
      "inputs": [
        {
          "indexed": true,
          "internalType": "address",
          "name": "previousOwner",
          "type": "address"
        },
        {
          "indexed": true,
          "internalType": "address",
          "name": "newOwner",
          "type": "address"
        }
      ],
      "name": "OwnershipTransferred",
      "type": "event"
    },
    {
      "anonymous": false,
      "inputs": [
        {
          "indexed": true,
          "internalType": "address",
          "name": "from",
          "type": "address"
        },
        {
          "indexed": true,
          "internalType": "address",
          "name": "to",
          "type": "address"
        },
        {
          "indexed": true,
          "internalType": "uint256",
          "name": "tokenId",
          "type": "uint256"
        }
      ],
      "name": "Transfer",
      "type": "event"
    },
    {
      "inputs": [
        {
          "internalType": "address",
          "name": "to",
          "type": "address"
        },
        {
          "internalType": "uint256",
          "name": "tokenId",
          "type": "uint256"
        }
      ],
      "name": "approve",
      "outputs": [],
      "stateMutability": "nonpayable",
      "type": "function"
    },
    {
      "inputs": [
        {
          "internalType": "address",
          "name": "owner",
          "type": "address"
        }
      ],
      "name": "balanceOf",
      "outputs": [
        {
          "internalType": "uint256",
          "name": "",
          "type": "uint256"
        }
      ],
      "stateMutability": "view",
      "type": "function"
    },
    {
      "inputs": [
        {
          "internalType": "uint256",
          "name": "tokenId",
          "type": "uint256"
        }
      ],
      "name": "getApproved",
      "outputs": [
        {
          "internalType": "address",
          "name": "",
          "type": "address"
        }
      ],
      "stateMutability": "view",
      "type": "function"
    },
    {
      "inputs": [],
      "name": "getOwnedTokenIds",
      "outputs": [
        {
          "internalType": "uint256[]",
          "name": "",
          "type": "uint256[]"
        }
      ],
      "stateMutability": "view",
      "type": "function"
    },
    {
      "inputs": [
        {
          "internalType": "uint256",
          "name": "tokenId",
          "type": "uint256"
        }
      ],
      "name": "getOwnerOf",
      "outputs": [
        {
          "internalType": "address",
          "name": "",
          "type": "address"
        }
      ],
      "stateMutability": "view",
      "type": "function"
    },
    {
      "inputs": [
        {
          "internalType": "uint256",
          "name": "tokenId",
          "type": "uint256"
        }
      ],
      "name": "getTraits",
      "outputs": [
        {
          "internalType": "string",
          "name": "name",
          "type": "string"
        },
        {
          "internalType": "uint8",
          "name": "sides",
          "type": "uint8"
        },
        {
          "internalType": "string",
          "name": "fgColor",
          "type": "string"
        },
        {
          "internalType": "string",
          "name": "bgColor",
          "type": "string"
        },
        {
          "internalType": "uint8",
          "name": "font",
          "type": "uint8"
        }
      ],
      "stateMutability": "view",
      "type": "function"
    },
    {
      "inputs": [
        {
          "internalType": "address",
          "name": "owner",
          "type": "address"
        },
        {
          "internalType": "address",
          "name": "operator",
          "type": "address"
        }
      ],
      "name": "isApprovedForAll",
      "outputs": [
        {
          "internalType": "bool",
          "name": "",
          "type": "bool"
        }
      ],
      "stateMutability": "view",
      "type": "function"
    },
    {
      "inputs": [
        {
          "internalType": "address",
          "name": "owner",
          "type": "address"
        },
        {
          "internalType": "string",
          "name": "name",
          "type": "string"
        },
        {
          "internalType": "uint8",
          "name": "sides",
          "type": "uint8"
        },
        {
          "internalType": "string",
          "name": "fgColor",
          "type": "string"
        },
        {
          "internalType": "string",
          "name": "bgColor",
          "type": "string"
        },
        {
          "internalType": "uint8",
          "name": "font",
          "type": "uint8"
        }
      ],
      "name": "mintNFT",
      "outputs": [
        {
          "internalType": "uint256",
          "name": "",
          "type": "uint256"
        }
      ],
      "stateMutability": "nonpayable",
      "type": "function"
    },
    {
      "inputs": [],
      "name": "name",
      "outputs": [
        {
          "internalType": "string",
          "name": "",
          "type": "string"
        }
      ],
      "stateMutability": "view",
      "type": "function"
    },
    {
      "inputs": [],
      "name": "owner",
      "outputs": [
        {
          "internalType": "address",
          "name": "",
          "type": "address"
        }
      ],
      "stateMutability": "view",
      "type": "function"
    },
    {
      "inputs": [
        {
          "internalType": "uint256",
          "name": "tokenId",
          "type": "uint256"
        }
      ],
      "name": "ownerOf",
      "outputs": [
        {
          "internalType": "address",
          "name": "",
          "type": "address"
        }
      ],
      "stateMutability": "view",
      "type": "function"
    },
    {
      "inputs": [],
      "name": "renounceOwnership",
      "outputs": [],
      "stateMutability": "nonpayable",
      "type": "function"
    },
    {
      "inputs": [
        {
          "internalType": "uint256",
          "name": "tokenId",
          "type": "uint256"
        },
        {
          "internalType": "uint16",
          "name": "nonce",
          "type": "uint16"
        }
      ],
      "name": "roll",
      "outputs": [
        {
          "internalType": "uint8",
          "name": "",
          "type": "uint8"
        }
      ],
      "stateMutability": "view",
      "type": "function"
    },
    {
      "inputs": [
        {
          "internalType": "address",
          "name": "from",
          "type": "address"
        },
        {
          "internalType": "address",
          "name": "to",
          "type": "address"
        },
        {
          "internalType": "uint256",
          "name": "tokenId",
          "type": "uint256"
        }
      ],
      "name": "safeTransferFrom",
      "outputs": [],
      "stateMutability": "nonpayable",
      "type": "function"
    },
    {
      "inputs": [
        {
          "internalType": "address",
          "name": "from",
          "type": "address"
        },
        {
          "internalType": "address",
          "name": "to",
          "type": "address"
        },
        {
          "internalType": "uint256",
          "name": "tokenId",
          "type": "uint256"
        },
        {
          "internalType": "bytes",
          "name": "_data",
          "type": "bytes"
        }
      ],
      "name": "safeTransferFrom",
      "outputs": [],
      "stateMutability": "nonpayable",
      "type": "function"
    },
    {
      "inputs": [
        {
          "internalType": "address",
          "name": "operator",
          "type": "address"
        },
        {
          "internalType": "bool",
          "name": "approved",
          "type": "bool"
        }
      ],
      "name": "setApprovalForAll",
      "outputs": [],
      "stateMutability": "nonpayable",
      "type": "function"
    },
    {
      "inputs": [
        {
          "internalType": "string",
          "name": "baseURI",
          "type": "string"
        }
      ],
      "name": "setBaseURI",
      "outputs": [],
      "stateMutability": "nonpayable",
      "type": "function"
    },
    {
      "inputs": [
        {
          "internalType": "bytes4",
          "name": "interfaceId",
          "type": "bytes4"
        }
      ],
      "name": "supportsInterface",
      "outputs": [
        {
          "internalType": "bool",
          "name": "",
          "type": "bool"
        }
      ],
      "stateMutability": "view",
      "type": "function"
    },
    {
      "inputs": [],
      "name": "symbol",
      "outputs": [
        {
          "internalType": "string",
          "name": "",
          "type": "string"
        }
      ],
      "stateMutability": "view",
      "type": "function"
    },
    {
      "inputs": [
        {
          "internalType": "address",
          "name": "owner",
          "type": "address"
        }
      ],
      "name": "tokenListOfOwner",
      "outputs": [
        {
          "internalType": "uint16[]",
          "name": "",
          "type": "uint16[]"
        }
      ],
      "stateMutability": "view",
      "type": "function"
    },
    {
      "inputs": [
        {
          "internalType": "address",
          "name": "owner",
          "type": "address"
        },
        {
          "internalType": "uint256",
          "name": "index",
          "type": "uint256"
        }
      ],
      "name": "tokenOfOwnerByIndex",
      "outputs": [
        {
          "internalType": "uint16",
          "name": "",
          "type": "uint16"
        }
      ],
      "stateMutability": "view",
      "type": "function"
    },
    {
      "inputs": [
        {
          "internalType": "uint256",
          "name": "tokenId",
          "type": "uint256"
        }
      ],
      "name": "tokenURI",
      "outputs": [
        {
          "internalType": "string",
          "name": "",
          "type": "string"
        }
      ],
      "stateMutability": "view",
      "type": "function"
    },
    {
      "inputs": [],
      "name": "tokensBurnt",
      "outputs": [
        {
          "internalType": "uint256",
          "name": "",
          "type": "uint256"
        }
      ],
      "stateMutability": "view",
      "type": "function"
    },
    {
      "inputs": [],
      "name": "tokensMinted",
      "outputs": [
        {
          "internalType": "uint256",
          "name": "",
          "type": "uint256"
        }
      ],
      "stateMutability": "view",
      "type": "function"
    },
    {
      "inputs": [],
      "name": "totalSupply",
      "outputs": [
        {
          "internalType": "uint256",
          "name": "",
          "type": "uint256"
        }
      ],
      "stateMutability": "view",
      "type": "function"
    },
    {
      "inputs": [
        {
          "internalType": "address",
          "name": "from",
          "type": "address"
        },
        {
          "internalType": "address",
          "name": "to",
          "type": "address"
        },
        {
          "internalType": "uint256",
          "name": "tokenId",
          "type": "uint256"
        }
      ],
      "name": "transferFrom",
      "outputs": [],
      "stateMutability": "nonpayable",
      "type": "function"
    },
    {
      "inputs": [
        {
          "internalType": "address",
          "name": "newOwner",
          "type": "address"
        }
      ],
      "name": "transferOwnership",
      "outputs": [],
      "stateMutability": "nonpayable",
      "type": "function"
    }
  ],
  "bytecode": "0x60806040523480156200001157600080fd5b506040518060400160405280601b81526020017f506f6c79446963653a204469636520526f6c6c696e67204461707000000000008152506040518060400160405280600881526020017f506f6c79446963650000000000000000000000000000000000000000000000008152506200009e62000092620000d860201b60201c565b620000e060201b60201c565b8160019080519060200190620000b6929190620001a4565b508060029080519060200190620000cf929190620001a4565b505050620002b9565b600033905090565b60008060009054906101000a900473ffffffffffffffffffffffffffffffffffffffff169050816000806101000a81548173ffffffffffffffffffffffffffffffffffffffff021916908373ffffffffffffffffffffffffffffffffffffffff1602179055508173ffffffffffffffffffffffffffffffffffffffff168173ffffffffffffffffffffffffffffffffffffffff167f8be0079c531659141344cd1fd0a4f28419497f9722a3daafe3b4186f6b6457e060405160405180910390a35050565b828054620001b29062000254565b90600052602060002090601f016020900481019282620001d6576000855562000222565b82601f10620001f157805160ff191683800117855562000222565b8280016001018555821562000222579182015b828111156200022157825182559160200191906001019062000204565b5b50905062000231919062000235565b5090565b5b808211156200025057600081600090555060010162000236565b5090565b600060028204905060018216806200026d57607f821691505b602082108114156200028457620002836200028a565b5b50919050565b7f4e487b7100000000000000000000000000000000000000000000000000000000600052602260045260246000fd5b6142bc80620002c96000396000f3fe608060405234801561001057600080fd5b50600436106101a95760003560e01c806370a08231116100f9578063b0d8b51f11610097578063c87b56dd11610071578063c87b56dd146104e2578063e1dc076114610512578063e985e9c514610546578063f2fde38b14610576576101a9565b8063b0d8b51f1461048a578063b88d4fde146104a8578063c6ead8af146104c4576101a9565b80638da5cb5b116100d35780638da5cb5b1461040257806395d89b4114610420578063a22cb4651461043e578063af6f8e7d1461045a576101a9565b806370a0823114610398578063715018a6146103c857806383638710146103d2576101a9565b806324b1887c1161016657806355f804b31161014057806355f804b3146102fe5780636352211e1461031a5780636618196c1461034a5780636de9f32b1461037a576101a9565b806324b1887c146102825780632f745c59146102b257806342842e0e146102e2576101a9565b806301ffc9a7146101ae57806306fdde03146101de578063081812fc146101fc578063095ea7b31461022c57806318160ddd1461024857806323b872dd14610266575b600080fd5b6101c860048036038101906101c39190612ca4565b610592565b6040516101d59190613439565b60405180910390f35b6101e6610674565b6040516101f39190613454565b60405180910390f35b61021660048036038101906102119190612e1a565b610706565b604051610223919061338e565b60405180910390f35b61024660048036038101906102419190612c64565b61078b565b005b6102506108a3565b60405161025d91906137b9565b60405180910390f35b610280600480360381019061027b9190612a5f565b6108ba565b005b61029c60048036038101906102979190612b75565b61091a565b6040516102a991906137b9565b60405180910390f35b6102cc60048036038101906102c79190612c64565b6109ef565b6040516102d9919061379e565b60405180910390f35b6102fc60048036038101906102f79190612a5f565b610ab8565b005b61031860048036038101906103139190612cfe565b610ad8565b005b610334600480360381019061032f9190612e1a565b610b6a565b604051610341919061338e565b60405180910390f35b610364600480360381019061035f91906129f2565b610c1c565b60405161037191906133f5565b60405180910390f35b610382610cdb565b60405161038f91906137b9565b60405180910390f35b6103b260048036038101906103ad91906129f2565b610ce1565b6040516103bf91906137b9565b60405180910390f35b6103d0610d99565b005b6103ec60048036038101906103e79190612e1a565b610e21565b6040516103f9919061338e565b60405180910390f35b61040a610e33565b604051610417919061338e565b60405180910390f35b610428610e5c565b6040516104359190613454565b60405180910390f35b61045860048036038101906104539190612b35565b610eee565b005b610474600480360381019061046f9190612e47565b610f04565b60405161048191906137d4565b60405180910390f35b610492610f9c565b60405161049f9190613417565b60405180910390f35b6104c260048036038101906104bd9190612ab2565b61104c565b005b6104cc6110ae565b6040516104d991906137b9565b60405180910390f35b6104fc60048036038101906104f79190612e1a565b6110b4565b6040516105099190613454565b60405180910390f35b61052c60048036038101906105279190612e1a565b61115b565b60405161053d959493929190613476565b60405180910390f35b610560600480360381019061055b9190612a1f565b611208565b60405161056d9190613439565b60405180910390f35b610590600480360381019061058b91906129f2565b61129c565b005b60007f80ac58cd000000000000000000000000000000000000000000000000000000007bffffffffffffffffffffffffffffffffffffffffffffffffffffffff1916827bffffffffffffffffffffffffffffffffffffffffffffffffffffffff1916148061065d57507f5b5e139f000000000000000000000000000000000000000000000000000000007bffffffffffffffffffffffffffffffffffffffffffffffffffffffff1916827bffffffffffffffffffffffffffffffffffffffffffffffffffffffff1916145b8061066d575061066c82611394565b5b9050919050565b60606001805461068390613ab7565b80601f01602080910402602001604051908101604052809291908181526020018280546106af90613ab7565b80156106fc5780601f106106d1576101008083540402835291602001916106fc565b820191906000526020600020905b8154815290600101906020018083116106df57829003601f168201915b5050505050905090565b6000610711826113fe565b610750576040517f08c379a00000000000000000000000000000000000000000000000000000000081526004016107479061367e565b60405180910390fd5b6005600083815260200190815260200160002060009054906101000a900473ffffffffffffffffffffffffffffffffffffffff169050919050565b600061079682610b6a565b90508073ffffffffffffffffffffffffffffffffffffffff168373ffffffffffffffffffffffffffffffffffffffff161415610807576040517f08c379a00000000000000000000000000000000000000000000000000000000081526004016107fe906136fe565b60405180910390fd5b8073ffffffffffffffffffffffffffffffffffffffff1661082661146a565b73ffffffffffffffffffffffffffffffffffffffff16148061085557506108548161084f61146a565b611208565b5b610894576040517f08c379a000000000000000000000000000000000000000000000000000000000815260040161088b906135fe565b60405180910390fd5b61089e8383611472565b505050565b60006009546008546108b591906139b2565b905090565b6108cb6108c561146a565b8261152b565b61090a576040517f08c379a00000000000000000000000000000000000000000000000000000000081526004016109019061371e565b60405180910390fd5b610915838383611609565b505050565b600061092461146a565b73ffffffffffffffffffffffffffffffffffffffff16610942610e33565b73ffffffffffffffffffffffffffffffffffffffff1614610998576040517f08c379a000000000000000000000000000000000000000000000000000000000815260040161098f9061369e565b60405180910390fd5b60006109a4600b611870565b90506109ca818b8b8b8b8b8b8b8b600a61187e909998979695949392919063ffffffff16565b6109d48b82611abc565b6109de600b611ada565b809150509998505050505050505050565b60006109fa83610ce1565b8210610a3b576040517f08c379a0000000000000000000000000000000000000000000000000000000008152600401610a32906136de565b60405180910390fd5b600760008473ffffffffffffffffffffffffffffffffffffffff1673ffffffffffffffffffffffffffffffffffffffff1681526020019081526020016000208281548110610a8c57610a8b613c50565b5b90600052602060002090601091828204019190066002029054906101000a900461ffff16905092915050565b610ad38383836040518060200160405280600081525061104c565b505050565b610ae061146a565b73ffffffffffffffffffffffffffffffffffffffff16610afe610e33565b73ffffffffffffffffffffffffffffffffffffffff1614610b54576040517f08c379a0000000000000000000000000000000000000000000000000000000008152600401610b4b9061369e565b60405180910390fd5b8181600c9190610b659291906126eb565b505050565b6000806003600084815260200190815260200160002060009054906101000a900473ffffffffffffffffffffffffffffffffffffffff169050600073ffffffffffffffffffffffffffffffffffffffff168173ffffffffffffffffffffffffffffffffffffffff161415610c13576040517f08c379a0000000000000000000000000000000000000000000000000000000008152600401610c0a9061363e565b60405180910390fd5b80915050919050565b6060600760008373ffffffffffffffffffffffffffffffffffffffff1673ffffffffffffffffffffffffffffffffffffffff168152602001908152602001600020805480602002602001604051908101604052809291908181526020018280548015610ccf57602002820191906000526020600020906000905b82829054906101000a900461ffff1661ffff1681526020019060020190602082600101049283019260010382029150808411610c965790505b50505050509050919050565b60085481565b60008073ffffffffffffffffffffffffffffffffffffffff168273ffffffffffffffffffffffffffffffffffffffff161415610d52576040517f08c379a0000000000000000000000000000000000000000000000000000000008152600401610d499061361e565b60405180910390fd5b600460008373ffffffffffffffffffffffffffffffffffffffff1673ffffffffffffffffffffffffffffffffffffffff168152602001908152602001600020549050919050565b610da161146a565b73ffffffffffffffffffffffffffffffffffffffff16610dbf610e33565b73ffffffffffffffffffffffffffffffffffffffff1614610e15576040517f08c379a0000000000000000000000000000000000000000000000000000000008152600401610e0c9061369e565b60405180910390fd5b610e1f6000611af0565b565b6000610e2c82610b6a565b9050919050565b60008060009054906101000a900473ffffffffffffffffffffffffffffffffffffffff16905090565b606060028054610e6b90613ab7565b80601f0160208091040260200160405190810160405280929190818152602001828054610e9790613ab7565b8015610ee45780601f10610eb957610100808354040283529160200191610ee4565b820191906000526020600020905b815481529060010190602001808311610ec757829003601f168201915b5050505050905090565b610f00610ef961146a565b8383611bb4565b5050565b6000600a73__$3b68987207f559b9bfdbbec8c00268de72$__63d20f53f1909185856040518463ffffffff1660e01b8152600401610f4493929190613767565b60206040518083038186803b158015610f5c57600080fd5b505af4158015610f70573d6000803e3d6000fd5b505050506040513d601f19601f82011682018060405250810190610f949190612e87565b905092915050565b60606000610fa933610ce1565b905060008167ffffffffffffffff811115610fc757610fc6613c7f565b5b604051908082528060200260200182016040528015610ff55781602001602082028036833780820191505090505b50905060005b828110156110435761100d33826109ef565b61ffff1682828151811061102457611023613c50565b5b602002602001018181525050808061103b90613b1a565b915050610ffb565b50809250505090565b61105d61105761146a565b8361152b565b61109c576040517f08c379a00000000000000000000000000000000000000000000000000000000081526004016110939061371e565b60405180910390fd5b6110a884848484611d21565b50505050565b60095481565b60606110bf826113fe565b6110fe576040517f08c379a00000000000000000000000000000000000000000000000000000000081526004016110f5906136be565b60405180910390fd5b6000611108611d7d565b905060008151116111285760405180602001604052806000815250611153565b8061113284611e0f565b60405160200161114392919061336a565b6040516020818303038152906040525b915050919050565b606060006060806000600a73__$3b68987207f559b9bfdbbec8c00268de72$__6323f5b9fc9091886040518363ffffffff1660e01b81526004016111a092919061373e565b60006040518083038186803b1580156111b857600080fd5b505af41580156111cc573d6000803e3d6000fd5b505050506040513d6000823e3d601f19601f820116820180604052508101906111f59190612d4b565b9450945094509450945091939590929450565b6000600660008473ffffffffffffffffffffffffffffffffffffffff1673ffffffffffffffffffffffffffffffffffffffff16815260200190815260200160002060008373ffffffffffffffffffffffffffffffffffffffff1673ffffffffffffffffffffffffffffffffffffffff16815260200190815260200160002060009054906101000a900460ff16905092915050565b6112a461146a565b73ffffffffffffffffffffffffffffffffffffffff166112c2610e33565b73ffffffffffffffffffffffffffffffffffffffff1614611318576040517f08c379a000000000000000000000000000000000000000000000000000000000815260040161130f9061369e565b60405180910390fd5b600073ffffffffffffffffffffffffffffffffffffffff168173ffffffffffffffffffffffffffffffffffffffff161415611388576040517f08c379a000000000000000000000000000000000000000000000000000000000815260040161137f9061353e565b60405180910390fd5b61139181611af0565b50565b60007f01ffc9a7000000000000000000000000000000000000000000000000000000007bffffffffffffffffffffffffffffffffffffffffffffffffffffffff1916827bffffffffffffffffffffffffffffffffffffffffffffffffffffffff1916149050919050565b60008073ffffffffffffffffffffffffffffffffffffffff166003600084815260200190815260200160002060009054906101000a900473ffffffffffffffffffffffffffffffffffffffff1673ffffffffffffffffffffffffffffffffffffffff1614159050919050565b600033905090565b816005600083815260200190815260200160002060006101000a81548173ffffffffffffffffffffffffffffffffffffffff021916908373ffffffffffffffffffffffffffffffffffffffff160217905550808273ffffffffffffffffffffffffffffffffffffffff166114e583610b6a565b73ffffffffffffffffffffffffffffffffffffffff167f8c5be1e5ebec7d5bd14f71427d1e84f3dd0314c0f7b2291e5b200ac8c7c3b92560405160405180910390a45050565b6000611536826113fe565b611575576040517f08c379a000000000000000000000000000000000000000000000000000000000815260040161156c906135de565b60405180910390fd5b600061158083610b6a565b90508073ffffffffffffffffffffffffffffffffffffffff168473ffffffffffffffffffffffffffffffffffffffff1614806115ef57508373ffffffffffffffffffffffffffffffffffffffff166115d784610706565b73ffffffffffffffffffffffffffffffffffffffff16145b8061160057506115ff8185611208565b5b91505092915050565b8273ffffffffffffffffffffffffffffffffffffffff1661162982610b6a565b73ffffffffffffffffffffffffffffffffffffffff161461167f576040517f08c379a00000000000000000000000000000000000000000000000000000000081526004016116769061355e565b60405180910390fd5b600073ffffffffffffffffffffffffffffffffffffffff168273ffffffffffffffffffffffffffffffffffffffff1614156116ef576040517f08c379a00000000000000000000000000000000000000000000000000000000081526004016116e69061359e565b60405180910390fd5b6116fa838383611f70565b611705600082611472565b6001600460008573ffffffffffffffffffffffffffffffffffffffff1673ffffffffffffffffffffffffffffffffffffffff168152602001908152602001600020600082825461175591906139b2565b925050819055506001600460008473ffffffffffffffffffffffffffffffffffffffff1673ffffffffffffffffffffffffffffffffffffffff16815260200190815260200160002060008282546117ac919061392b565b92505081905550816003600083815260200190815260200160002060006101000a81548173ffffffffffffffffffffffffffffffffffffffff021916908373ffffffffffffffffffffffffffffffffffffffff160217905550808273ffffffffffffffffffffffffffffffffffffffff168473ffffffffffffffffffffffffffffffffffffffff167fddf252ad1be2c89b69c2b068fc378daa952ba7f163c4a11628f55a4df523b3ef60405160405180910390a461186b838383612068565b505050565b600081600001549050919050565b60008660ff16116118c4576040517f08c379a00000000000000000000000000000000000000000000000000000000081526004016118bb906134de565b60405180910390fd5b6000600a8760ff16146118d85760006118db565b60015b90506040518060c001604052808a8a8080601f016020809104026020016040519081016040528093929190818152602001838380828437600081840152601f19601f8201169050808301925050505050505081526020018860ff16815260200187878080601f016020809104026020016040519081016040528093929190818152602001838380828437600081840152601f19601f82011690508083019250505050505050815260200185858080601f016020809104026020016040519081016040528093929190818152602001838380828437600081840152601f19601f8201169050808301925050505050505081526020018360ff1681526020018215158152508b60000160008c81526020019081526020016000206000820151816000019080519060200190611a0f929190612771565b5060208201518160010160006101000a81548160ff021916908360ff1602179055506040820151816002019080519060200190611a4d929190612771565b506060820151816003019080519060200190611a6a929190612771565b5060808201518160040160006101000a81548160ff021916908360ff16021790555060a08201518160040160016101000a81548160ff0219169083151502179055509050505050505050505050505050565b611ad682826040518060200160405280600081525061206d565b5050565b6001816000016000828254019250508190555050565b60008060009054906101000a900473ffffffffffffffffffffffffffffffffffffffff169050816000806101000a81548173ffffffffffffffffffffffffffffffffffffffff021916908373ffffffffffffffffffffffffffffffffffffffff1602179055508173ffffffffffffffffffffffffffffffffffffffff168173ffffffffffffffffffffffffffffffffffffffff167f8be0079c531659141344cd1fd0a4f28419497f9722a3daafe3b4186f6b6457e060405160405180910390a35050565b8173ffffffffffffffffffffffffffffffffffffffff168373ffffffffffffffffffffffffffffffffffffffff161415611c23576040517f08c379a0000000000000000000000000000000000000000000000000000000008152600401611c1a906135be565b60405180910390fd5b80600660008573ffffffffffffffffffffffffffffffffffffffff1673ffffffffffffffffffffffffffffffffffffffff16815260200190815260200160002060008473ffffffffffffffffffffffffffffffffffffffff1673ffffffffffffffffffffffffffffffffffffffff16815260200190815260200160002060006101000a81548160ff0219169083151502179055508173ffffffffffffffffffffffffffffffffffffffff168373ffffffffffffffffffffffffffffffffffffffff167f17307eab39ab6107e8899845ad3d59bd9653f200f220920489ca2b5937696c3183604051611d149190613439565b60405180910390a3505050565b611d2c848484611609565b611d38848484846120c8565b611d77576040517f08c379a0000000000000000000000000000000000000000000000000000000008152600401611d6e9061351e565b60405180910390fd5b50505050565b6060600c8054611d8c90613ab7565b80601f0160208091040260200160405190810160405280929190818152602001828054611db890613ab7565b8015611e055780601f10611dda57610100808354040283529160200191611e05565b820191906000526020600020905b815481529060010190602001808311611de857829003601f168201915b5050505050905090565b60606000821415611e57576040518060400160405280600181526020017f30000000000000000000000000000000000000000000000000000000000000008152509050611f6b565b600082905060005b60008214611e89578080611e7290613b1a565b915050600a82611e829190613981565b9150611e5f565b60008167ffffffffffffffff811115611ea557611ea4613c7f565b5b6040519080825280601f01601f191660200182016040528015611ed75781602001600182028036833780820191505090505b5090505b60008514611f6457600182611ef091906139b2565b9150600a85611eff9190613b63565b6030611f0b919061392b565b60f81b818381518110611f2157611f20613c50565b5b60200101907effffffffffffffffffffffffffffffffffffffffffffffffffffffffffffff1916908160001a905350600a85611f5d9190613981565b9450611edb565b8093505050505b919050565b611f7b83838361225f565b8273ffffffffffffffffffffffffffffffffffffffff168273ffffffffffffffffffffffffffffffffffffffff161461206357611fb88282612264565b600073ffffffffffffffffffffffffffffffffffffffff168373ffffffffffffffffffffffffffffffffffffffff1614611ffb57611ff683826122ef565b612014565b6008600081548092919061200e90613b1a565b91905055505b600073ffffffffffffffffffffffffffffffffffffffff168273ffffffffffffffffffffffffffffffffffffffff161415612062576009600081548092919061205c90613b1a565b91905055505b5b505050565b505050565b61207783836124ee565b61208460008484846120c8565b6120c3576040517f08c379a00000000000000000000000000000000000000000000000000000000081526004016120ba9061351e565b60405180910390fd5b505050565b60006120e98473ffffffffffffffffffffffffffffffffffffffff166126c8565b15612252578373ffffffffffffffffffffffffffffffffffffffff1663150b7a0261211261146a565b8786866040518563ffffffff1660e01b815260040161213494939291906133a9565b602060405180830381600087803b15801561214e57600080fd5b505af192505050801561217f57506040513d601f19601f8201168201806040525081019061217c9190612cd1565b60015b612202573d80600081146121af576040519150601f19603f3d011682016040523d82523d6000602084013e6121b4565b606091505b506000815114156121fa576040517f08c379a00000000000000000000000000000000000000000000000000000000081526004016121f19061351e565b60405180910390fd5b805181602001fd5b63150b7a0260e01b7bffffffffffffffffffffffffffffffffffffffffffffffffffffffff1916817bffffffffffffffffffffffffffffffffffffffffffffffffffffffff191614915050612257565b600190505b949350505050565b505050565b600760008373ffffffffffffffffffffffffffffffffffffffff1673ffffffffffffffffffffffffffffffffffffffff1681526020019081526020016000208190806001815401808255809150506001900390600052602060002090601091828204019190066002029091909190916101000a81548161ffff021916908361ffff1602179055505050565b6000600760008473ffffffffffffffffffffffffffffffffffffffff1673ffffffffffffffffffffffffffffffffffffffff168152602001908152602001600020905060008180549050905060005b82805490508110156123ab578361ffff1683828154811061236257612361613c50565b5b90600052602060002090601091828204019190066002029054906101000a900461ffff1661ffff161415612398578091506123ab565b80806123a390613b1a565b91505061233e565b50818054905081106123f2576040517f08c379a00000000000000000000000000000000000000000000000000000000081526004016123e9906134fe565b60405180910390fd5b60008190505b6001838054905061240991906139b2565b8110156124a8578260018261241e919061392b565b8154811061242f5761242e613c50565b5b90600052602060002090601091828204019190066002029054906101000a900461ffff1683828154811061246657612465613c50565b5b90600052602060002090601091828204019190066002026101000a81548161ffff021916908361ffff16021790555080806124a090613b1a565b9150506123f8565b50818054806124ba576124b9613c21565b5b60019003818190600052602060002090601091828204019190066002026101000a81549061ffff0219169055905550505050565b600073ffffffffffffffffffffffffffffffffffffffff168273ffffffffffffffffffffffffffffffffffffffff16141561255e576040517f08c379a00000000000000000000000000000000000000000000000000000000081526004016125559061365e565b60405180910390fd5b612567816113fe565b156125a7576040517f08c379a000000000000000000000000000000000000000000000000000000000815260040161259e9061357e565b60405180910390fd5b6125b360008383611f70565b6001600460008473ffffffffffffffffffffffffffffffffffffffff1673ffffffffffffffffffffffffffffffffffffffff1681526020019081526020016000206000828254612603919061392b565b92505081905550816003600083815260200190815260200160002060006101000a81548173ffffffffffffffffffffffffffffffffffffffff021916908373ffffffffffffffffffffffffffffffffffffffff160217905550808273ffffffffffffffffffffffffffffffffffffffff16600073ffffffffffffffffffffffffffffffffffffffff167fddf252ad1be2c89b69c2b068fc378daa952ba7f163c4a11628f55a4df523b3ef60405160405180910390a46126c460008383612068565b5050565b6000808273ffffffffffffffffffffffffffffffffffffffff163b119050919050565b8280546126f790613ab7565b90600052602060002090601f0160209004810192826127195760008555612760565b82601f1061273257803560ff1916838001178555612760565b82800160010185558215612760579182015b8281111561275f578235825591602001919060010190612744565b5b50905061276d91906127f7565b5090565b82805461277d90613ab7565b90600052602060002090601f01602090048101928261279f57600085556127e6565b82601f106127b857805160ff19168380011785556127e6565b828001600101855582156127e6579182015b828111156127e55782518255916020019190600101906127ca565b5b5090506127f391906127f7565b5090565b5b808211156128105760008160009055506001016127f8565b5090565b600061282761282284613814565b6137ef565b90508281526020810184848401111561284357612842613cbd565b5b61284e848285613a75565b509392505050565b600061286961286484613845565b6137ef565b90508281526020810184848401111561288557612884613cbd565b5b612890848285613a84565b509392505050565b6000813590506128a7816141fc565b92915050565b6000813590506128bc81614213565b92915050565b6000813590506128d18161422a565b92915050565b6000815190506128e68161422a565b92915050565b600082601f83011261290157612900613cb3565b5b8135612911848260208601612814565b91505092915050565b60008083601f8401126129305761292f613cb3565b5b8235905067ffffffffffffffff81111561294d5761294c613cae565b5b60208301915083600182028301111561296957612968613cb8565b5b9250929050565b600082601f83011261298557612984613cb3565b5b8151612995848260208601612856565b91505092915050565b6000813590506129ad81614241565b92915050565b6000813590506129c281614258565b92915050565b6000813590506129d78161426f565b92915050565b6000815190506129ec8161426f565b92915050565b600060208284031215612a0857612a07613cc7565b5b6000612a1684828501612898565b91505092915050565b60008060408385031215612a3657612a35613cc7565b5b6000612a4485828601612898565b9250506020612a5585828601612898565b9150509250929050565b600080600060608486031215612a7857612a77613cc7565b5b6000612a8686828701612898565b9350506020612a9786828701612898565b9250506040612aa8868287016129b3565b9150509250925092565b60008060008060808587031215612acc57612acb613cc7565b5b6000612ada87828801612898565b9450506020612aeb87828801612898565b9350506040612afc878288016129b3565b925050606085013567ffffffffffffffff811115612b1d57612b1c613cc2565b5b612b29878288016128ec565b91505092959194509250565b60008060408385031215612b4c57612b4b613cc7565b5b6000612b5a85828601612898565b9250506020612b6b858286016128ad565b9150509250929050565b600080600080600080600080600060c08a8c031215612b9757612b96613cc7565b5b6000612ba58c828d01612898565b99505060208a013567ffffffffffffffff811115612bc657612bc5613cc2565b5b612bd28c828d0161291a565b98509850506040612be58c828d016129c8565b96505060608a013567ffffffffffffffff811115612c0657612c05613cc2565b5b612c128c828d0161291a565b955095505060808a013567ffffffffffffffff811115612c3557612c34613cc2565b5b612c418c828d0161291a565b935093505060a0612c548c828d016129c8565b9150509295985092959850929598565b60008060408385031215612c7b57612c7a613cc7565b5b6000612c8985828601612898565b9250506020612c9a858286016129b3565b9150509250929050565b600060208284031215612cba57612cb9613cc7565b5b6000612cc8848285016128c2565b91505092915050565b600060208284031215612ce757612ce6613cc7565b5b6000612cf5848285016128d7565b91505092915050565b60008060208385031215612d1557612d14613cc7565b5b600083013567ffffffffffffffff811115612d3357612d32613cc2565b5b612d3f8582860161291a565b92509250509250929050565b600080600080600060a08688031215612d6757612d66613cc7565b5b600086015167ffffffffffffffff811115612d8557612d84613cc2565b5b612d9188828901612970565b9550506020612da2888289016129dd565b945050604086015167ffffffffffffffff811115612dc357612dc2613cc2565b5b612dcf88828901612970565b935050606086015167ffffffffffffffff811115612df057612def613cc2565b5b612dfc88828901612970565b9250506080612e0d888289016129dd565b9150509295509295909350565b600060208284031215612e3057612e2f613cc7565b5b6000612e3e848285016129b3565b91505092915050565b60008060408385031215612e5e57612e5d613cc7565b5b6000612e6c858286016129b3565b9250506020612e7d8582860161299e565b9150509250929050565b600060208284031215612e9d57612e9c613cc7565b5b6000612eab848285016129dd565b91505092915050565b6000612ec08383613301565b60208301905092915050565b6000612ed8838361332e565b60208301905092915050565b612eed816139e6565b82525050565b6000612efe82613896565b612f0881856138dc565b9350612f1383613876565b8060005b83811015612f44578151612f2b8882612eb4565b9750612f36836138c2565b925050600181019050612f17565b5085935050505092915050565b6000612f5c826138a1565b612f6681856138ed565b9350612f7183613886565b8060005b83811015612fa2578151612f898882612ecc565b9750612f94836138cf565b925050600181019050612f75565b5085935050505092915050565b612fb8816139f8565b82525050565b6000612fc9826138ac565b612fd381856138fe565b9350612fe3818560208601613a84565b612fec81613ccc565b840191505092915050565b6000613002826138b7565b61300c818561390f565b935061301c818560208601613a84565b61302581613ccc565b840191505092915050565b600061303b826138b7565b6130458185613920565b9350613055818560208601613a84565b80840191505092915050565b600061306e60168361390f565b915061307982613cdd565b602082019050919050565b600061309160378361390f565b915061309c82613d06565b604082019050919050565b60006130b460328361390f565b91506130bf82613d55565b604082019050919050565b60006130d760268361390f565b91506130e282613da4565b604082019050919050565b60006130fa60258361390f565b915061310582613df3565b604082019050919050565b600061311d601c8361390f565b915061312882613e42565b602082019050919050565b600061314060248361390f565b915061314b82613e6b565b604082019050919050565b600061316360198361390f565b915061316e82613eba565b602082019050919050565b6000613186602c8361390f565b915061319182613ee3565b604082019050919050565b60006131a960388361390f565b91506131b482613f32565b604082019050919050565b60006131cc602a8361390f565b91506131d782613f81565b604082019050919050565b60006131ef60298361390f565b91506131fa82613fd0565b604082019050919050565b600061321260208361390f565b915061321d8261401f565b602082019050919050565b6000613235602c8361390f565b915061324082614048565b604082019050919050565b600061325860208361390f565b915061326382614097565b602082019050919050565b600061327b602f8361390f565b9150613286826140c0565b604082019050919050565b600061329e60318361390f565b91506132a98261410f565b604082019050919050565b60006132c160218361390f565b91506132cc8261415e565b604082019050919050565b60006132e460318361390f565b91506132ef826141ad565b604082019050919050565b8082525050565b61330a81613a30565b82525050565b61331981613a30565b82525050565b61332881613a30565b82525050565b61333781613a5e565b82525050565b61334681613a5e565b82525050565b61335581613a5e565b82525050565b61336481613a68565b82525050565b60006133768285613030565b91506133828284613030565b91508190509392505050565b60006020820190506133a36000830184612ee4565b92915050565b60006080820190506133be6000830187612ee4565b6133cb6020830186612ee4565b6133d8604083018561333d565b81810360608301526133ea8184612fbe565b905095945050505050565b6000602082019050818103600083015261340f8184612ef3565b905092915050565b600060208201905081810360008301526134318184612f51565b905092915050565b600060208201905061344e6000830184612faf565b92915050565b6000602082019050818103600083015261346e8184612ff7565b905092915050565b600060a08201905081810360008301526134908188612ff7565b905061349f602083018761335b565b81810360408301526134b18186612ff7565b905081810360608301526134c58185612ff7565b90506134d4608083018461335b565b9695505050505050565b600060208201905081810360008301526134f781613061565b9050919050565b6000602082019050818103600083015261351781613084565b9050919050565b60006020820190508181036000830152613537816130a7565b9050919050565b60006020820190508181036000830152613557816130ca565b9050919050565b60006020820190508181036000830152613577816130ed565b9050919050565b6000602082019050818103600083015261359781613110565b9050919050565b600060208201905081810360008301526135b781613133565b9050919050565b600060208201905081810360008301526135d781613156565b9050919050565b600060208201905081810360008301526135f781613179565b9050919050565b600060208201905081810360008301526136178161319c565b9050919050565b60006020820190508181036000830152613637816131bf565b9050919050565b60006020820190508181036000830152613657816131e2565b9050919050565b6000602082019050818103600083015261367781613205565b9050919050565b6000602082019050818103600083015261369781613228565b9050919050565b600060208201905081810360008301526136b78161324b565b9050919050565b600060208201905081810360008301526136d78161326e565b9050919050565b600060208201905081810360008301526136f781613291565b9050919050565b60006020820190508181036000830152613717816132b4565b9050919050565b60006020820190508181036000830152613737816132d7565b9050919050565b600060408201905061375360008301856132fa565b613760602083018461334c565b9392505050565b600060608201905061377c60008301866132fa565b613789602083018561334c565b613796604083018461331f565b949350505050565b60006020820190506137b36000830184613310565b92915050565b60006020820190506137ce600083018461333d565b92915050565b60006020820190506137e9600083018461335b565b92915050565b60006137f961380a565b90506138058282613ae9565b919050565b6000604051905090565b600067ffffffffffffffff82111561382f5761382e613c7f565b5b61383882613ccc565b9050602081019050919050565b600067ffffffffffffffff8211156138605761385f613c7f565b5b61386982613ccc565b9050602081019050919050565b6000819050602082019050919050565b6000819050602082019050919050565b600081519050919050565b600081519050919050565b600081519050919050565b600081519050919050565b6000602082019050919050565b6000602082019050919050565b600082825260208201905092915050565b600082825260208201905092915050565b600082825260208201905092915050565b600082825260208201905092915050565b600081905092915050565b600061393682613a5e565b915061394183613a5e565b9250827fffffffffffffffffffffffffffffffffffffffffffffffffffffffffffffffff0382111561397657613975613b94565b5b828201905092915050565b600061398c82613a5e565b915061399783613a5e565b9250826139a7576139a6613bc3565b5b828204905092915050565b60006139bd82613a5e565b91506139c883613a5e565b9250828210156139db576139da613b94565b5b828203905092915050565b60006139f182613a3e565b9050919050565b60008115159050919050565b60007fffffffff0000000000000000000000000000000000000000000000000000000082169050919050565b600061ffff82169050919050565b600073ffffffffffffffffffffffffffffffffffffffff82169050919050565b6000819050919050565b600060ff82169050919050565b82818337600083830152505050565b60005b83811015613aa2578082015181840152602081019050613a87565b83811115613ab1576000848401525b50505050565b60006002820490506001821680613acf57607f821691505b60208210811415613ae357613ae2613bf2565b5b50919050565b613af282613ccc565b810181811067ffffffffffffffff82111715613b1157613b10613c7f565b5b80604052505050565b6000613b2582613a5e565b91507fffffffffffffffffffffffffffffffffffffffffffffffffffffffffffffffff821415613b5857613b57613b94565b5b600182019050919050565b6000613b6e82613a5e565b9150613b7983613a5e565b925082613b8957613b88613bc3565b5b828206905092915050565b7f4e487b7100000000000000000000000000000000000000000000000000000000600052601160045260246000fd5b7f4e487b7100000000000000000000000000000000000000000000000000000000600052601260045260246000fd5b7f4e487b7100000000000000000000000000000000000000000000000000000000600052602260045260246000fd5b7f4e487b7100000000000000000000000000000000000000000000000000000000600052603160045260246000fd5b7f4e487b7100000000000000000000000000000000000000000000000000000000600052603260045260246000fd5b7f4e487b7100000000000000000000000000000000000000000000000000000000600052604160045260246000fd5b600080fd5b600080fd5b600080fd5b600080fd5b600080fd5b600080fd5b6000601f19601f8301169050919050565b7f5369646573206d757374206265206e6f6e2d7a65726f00000000000000000000600082015250565b7f45524337323153696d706c65456e756d657261626c653a20746f6b656e49642060008201527f6e6f7420666f756e6420696e206f776e6572206c697374000000000000000000602082015250565b7f4552433732313a207472616e7366657220746f206e6f6e20455243373231526560008201527f63656976657220696d706c656d656e7465720000000000000000000000000000602082015250565b7f4f776e61626c653a206e6577206f776e657220697320746865207a65726f206160008201527f6464726573730000000000000000000000000000000000000000000000000000602082015250565b7f4552433732313a207472616e736665722066726f6d20696e636f72726563742060008201527f6f776e6572000000000000000000000000000000000000000000000000000000602082015250565b7f4552433732313a20746f6b656e20616c7265616479206d696e74656400000000600082015250565b7f4552433732313a207472616e7366657220746f20746865207a65726f2061646460008201527f7265737300000000000000000000000000000000000000000000000000000000602082015250565b7f4552433732313a20617070726f766520746f2063616c6c657200000000000000600082015250565b7f4552433732313a206f70657261746f7220717565727920666f72206e6f6e657860008201527f697374656e7420746f6b656e0000000000000000000000000000000000000000602082015250565b7f4552433732313a20617070726f76652063616c6c6572206973206e6f74206f7760008201527f6e6572206e6f7220617070726f76656420666f7220616c6c0000000000000000602082015250565b7f4552433732313a2062616c616e636520717565727920666f7220746865207a6560008201527f726f206164647265737300000000000000000000000000000000000000000000602082015250565b7f4552433732313a206f776e657220717565727920666f72206e6f6e657869737460008201527f656e7420746f6b656e0000000000000000000000000000000000000000000000602082015250565b7f4552433732313a206d696e7420746f20746865207a65726f2061646472657373600082015250565b7f4552433732313a20617070726f76656420717565727920666f72206e6f6e657860008201527f697374656e7420746f6b656e0000000000000000000000000000000000000000602082015250565b7f4f776e61626c653a2063616c6c6572206973206e6f7420746865206f776e6572600082015250565b7f4552433732314d657461646174613a2055524920717565727920666f72206e6f60008201527f6e6578697374656e7420746f6b656e0000000000000000000000000000000000602082015250565b7f45524337323153696d706c65456e756d657261626c653a206f776e657220696e60008201527f646578206f7574206f6620626f756e6473000000000000000000000000000000602082015250565b7f4552433732313a20617070726f76616c20746f2063757272656e74206f776e6560008201527f7200000000000000000000000000000000000000000000000000000000000000602082015250565b7f4552433732313a207472616e736665722063616c6c6572206973206e6f74206f60008201527f776e6572206e6f7220617070726f766564000000000000000000000000000000602082015250565b614205816139e6565b811461421057600080fd5b50565b61421c816139f8565b811461422757600080fd5b50565b61423381613a04565b811461423e57600080fd5b50565b61424a81613a30565b811461425557600080fd5b50565b61426181613a5e565b811461426c57600080fd5b50565b61427881613a68565b811461428357600080fd5b5056fea26469706673582212204de8a1edd735d4285f394852b21645ff7165864a6519520b4a993de77131d4af64736f6c63430008060033",
  "linkReferences": {
    "contracts/DiceLibrary.sol": {
      "DiceLibrary": [
        {
          "length": 20,
          "start": 4563
        },
        {
          "length": 20,
          "start": 5169
        }
      ]
    }
  },
  "deployedLinkReferences": {
    "contracts/DiceLibrary.sol": {
      "DiceLibrary": [
        {
          "length": 20,
          "start": 3850
        },
        {
          "length": 20,
          "start": 4456
        }
      ]
    }
  }
}