{
  "_format": "hh-sol-artifact-1",
  "contractName": "TabletopDiceNFT",
  "sourceName": "contracts/Dice.sol",
  "abi": [
    {
      "inputs": [],
      "stateMutability": "nonpayable",
      "type": "constructor"
    },
    {
      "anonymous": false,
      "inputs": [
        {
          "indexed": true,
          "internalType": "address",
          "name": "owner",
          "type": "address"
        },
        {
          "indexed": true,
          "internalType": "address",
          "name": "approved",
          "type": "address"
        },
        {
          "indexed": true,
          "internalType": "uint256",
          "name": "tokenId",
          "type": "uint256"
        }
      ],
      "name": "Approval",
      "type": "event"
    },
    {
      "anonymous": false,
      "inputs": [
        {
          "indexed": true,
          "internalType": "address",
          "name": "owner",
          "type": "address"
        },
        {
          "indexed": true,
          "internalType": "address",
          "name": "operator",
          "type": "address"
        },
        {
          "indexed": false,
          "internalType": "bool",
          "name": "approved",
          "type": "bool"
        }
      ],
      "name": "ApprovalForAll",
      "type": "event"
    },
    {
      "anonymous": false,
      "inputs": [
        {
          "indexed": true,
          "internalType": "address",
          "name": "previousOwner",
          "type": "address"
        },
        {
          "indexed": true,
          "internalType": "address",
          "name": "newOwner",
          "type": "address"
        }
      ],
      "name": "OwnershipTransferred",
      "type": "event"
    },
    {
      "anonymous": false,
      "inputs": [
        {
          "indexed": true,
          "internalType": "address",
          "name": "from",
          "type": "address"
        },
        {
          "indexed": true,
          "internalType": "address",
          "name": "to",
          "type": "address"
        },
        {
          "indexed": true,
          "internalType": "uint256",
          "name": "tokenId",
          "type": "uint256"
        }
      ],
      "name": "Transfer",
      "type": "event"
    },
    {
      "inputs": [
        {
          "internalType": "address",
          "name": "to",
          "type": "address"
        },
        {
          "internalType": "uint256",
          "name": "tokenId",
          "type": "uint256"
        }
      ],
      "name": "approve",
      "outputs": [],
      "stateMutability": "nonpayable",
      "type": "function"
    },
    {
      "inputs": [
        {
          "internalType": "address",
          "name": "owner",
          "type": "address"
        }
      ],
      "name": "balanceOf",
      "outputs": [
        {
          "internalType": "uint256",
          "name": "",
          "type": "uint256"
        }
      ],
      "stateMutability": "view",
      "type": "function"
    },
    {
      "inputs": [
        {
          "internalType": "uint256",
          "name": "tokenId",
          "type": "uint256"
        }
      ],
      "name": "getApproved",
      "outputs": [
        {
          "internalType": "address",
          "name": "",
          "type": "address"
        }
      ],
      "stateMutability": "view",
      "type": "function"
    },
    {
      "inputs": [],
      "name": "getOwnedTokenIds",
      "outputs": [
        {
          "internalType": "uint256[]",
          "name": "",
          "type": "uint256[]"
        }
      ],
      "stateMutability": "view",
      "type": "function"
    },
    {
      "inputs": [
        {
          "internalType": "uint256",
          "name": "tokenId",
          "type": "uint256"
        }
      ],
      "name": "getTraits",
      "outputs": [
        {
          "internalType": "string",
          "name": "name",
          "type": "string"
        },
        {
          "internalType": "string",
          "name": "tokenURI",
          "type": "string"
        },
        {
          "internalType": "uint8",
          "name": "sides",
          "type": "uint8"
        }
      ],
      "stateMutability": "view",
      "type": "function"
    },
    {
      "inputs": [
        {
          "internalType": "address",
          "name": "owner",
          "type": "address"
        },
        {
          "internalType": "address",
          "name": "operator",
          "type": "address"
        }
      ],
      "name": "isApprovedForAll",
      "outputs": [
        {
          "internalType": "bool",
          "name": "",
          "type": "bool"
        }
      ],
      "stateMutability": "view",
      "type": "function"
    },
    {
      "inputs": [
        {
          "internalType": "address",
          "name": "owner",
          "type": "address"
        },
        {
          "internalType": "string",
          "name": "name",
          "type": "string"
        },
        {
          "internalType": "uint8",
          "name": "sides",
          "type": "uint8"
        }
      ],
      "name": "mintNFT",
      "outputs": [
        {
          "internalType": "uint256",
          "name": "",
          "type": "uint256"
        }
      ],
      "stateMutability": "nonpayable",
      "type": "function"
    },
    {
      "inputs": [],
      "name": "name",
      "outputs": [
        {
          "internalType": "string",
          "name": "",
          "type": "string"
        }
      ],
      "stateMutability": "view",
      "type": "function"
    },
    {
      "inputs": [],
      "name": "owner",
      "outputs": [
        {
          "internalType": "address",
          "name": "",
          "type": "address"
        }
      ],
      "stateMutability": "view",
      "type": "function"
    },
    {
      "inputs": [
        {
          "internalType": "uint256",
          "name": "tokenId",
          "type": "uint256"
        }
      ],
      "name": "ownerOf",
      "outputs": [
        {
          "internalType": "address",
          "name": "",
          "type": "address"
        }
      ],
      "stateMutability": "view",
      "type": "function"
    },
    {
      "inputs": [],
      "name": "renounceOwnership",
      "outputs": [],
      "stateMutability": "nonpayable",
      "type": "function"
    },
    {
      "inputs": [
        {
          "internalType": "uint256",
          "name": "tokenId",
          "type": "uint256"
        },
        {
          "internalType": "uint256",
          "name": "nonce",
          "type": "uint256"
        }
      ],
      "name": "roll",
      "outputs": [
        {
          "internalType": "uint8",
          "name": "",
          "type": "uint8"
        }
      ],
      "stateMutability": "view",
      "type": "function"
    },
    {
      "inputs": [
        {
          "internalType": "address",
          "name": "from",
          "type": "address"
        },
        {
          "internalType": "address",
          "name": "to",
          "type": "address"
        },
        {
          "internalType": "uint256",
          "name": "tokenId",
          "type": "uint256"
        }
      ],
      "name": "safeTransferFrom",
      "outputs": [],
      "stateMutability": "nonpayable",
      "type": "function"
    },
    {
      "inputs": [
        {
          "internalType": "address",
          "name": "from",
          "type": "address"
        },
        {
          "internalType": "address",
          "name": "to",
          "type": "address"
        },
        {
          "internalType": "uint256",
          "name": "tokenId",
          "type": "uint256"
        },
        {
          "internalType": "bytes",
          "name": "_data",
          "type": "bytes"
        }
      ],
      "name": "safeTransferFrom",
      "outputs": [],
      "stateMutability": "nonpayable",
      "type": "function"
    },
    {
      "inputs": [
        {
          "internalType": "address",
          "name": "operator",
          "type": "address"
        },
        {
          "internalType": "bool",
          "name": "approved",
          "type": "bool"
        }
      ],
      "name": "setApprovalForAll",
      "outputs": [],
      "stateMutability": "nonpayable",
      "type": "function"
    },
    {
      "inputs": [
        {
          "internalType": "string",
          "name": "baseURI",
          "type": "string"
        }
      ],
      "name": "setBaseURI",
      "outputs": [],
      "stateMutability": "nonpayable",
      "type": "function"
    },
    {
      "inputs": [
        {
          "internalType": "bytes4",
          "name": "interfaceId",
          "type": "bytes4"
        }
      ],
      "name": "supportsInterface",
      "outputs": [
        {
          "internalType": "bool",
          "name": "",
          "type": "bool"
        }
      ],
      "stateMutability": "view",
      "type": "function"
    },
    {
      "inputs": [],
      "name": "symbol",
      "outputs": [
        {
          "internalType": "string",
          "name": "",
          "type": "string"
        }
      ],
      "stateMutability": "view",
      "type": "function"
    },
    {
      "inputs": [
        {
          "internalType": "address",
          "name": "owner",
          "type": "address"
        }
      ],
      "name": "tokenListOfOwner",
      "outputs": [
        {
          "internalType": "uint16[]",
          "name": "",
          "type": "uint16[]"
        }
      ],
      "stateMutability": "view",
      "type": "function"
    },
    {
      "inputs": [
        {
          "internalType": "address",
          "name": "owner",
          "type": "address"
        },
        {
          "internalType": "uint256",
          "name": "index",
          "type": "uint256"
        }
      ],
      "name": "tokenOfOwnerByIndex",
      "outputs": [
        {
          "internalType": "uint16",
          "name": "",
          "type": "uint16"
        }
      ],
      "stateMutability": "view",
      "type": "function"
    },
    {
      "inputs": [
        {
          "internalType": "uint256",
          "name": "tokenId",
          "type": "uint256"
        }
      ],
      "name": "tokenURI",
      "outputs": [
        {
          "internalType": "string",
          "name": "",
          "type": "string"
        }
      ],
      "stateMutability": "view",
      "type": "function"
    },
    {
      "inputs": [],
      "name": "tokensBurnt",
      "outputs": [
        {
          "internalType": "uint256",
          "name": "",
          "type": "uint256"
        }
      ],
      "stateMutability": "view",
      "type": "function"
    },
    {
      "inputs": [],
      "name": "tokensMinted",
      "outputs": [
        {
          "internalType": "uint256",
          "name": "",
          "type": "uint256"
        }
      ],
      "stateMutability": "view",
      "type": "function"
    },
    {
      "inputs": [],
      "name": "totalSupply",
      "outputs": [
        {
          "internalType": "uint256",
          "name": "",
          "type": "uint256"
        }
      ],
      "stateMutability": "view",
      "type": "function"
    },
    {
      "inputs": [
        {
          "internalType": "address",
          "name": "from",
          "type": "address"
        },
        {
          "internalType": "address",
          "name": "to",
          "type": "address"
        },
        {
          "internalType": "uint256",
          "name": "tokenId",
          "type": "uint256"
        }
      ],
      "name": "transferFrom",
      "outputs": [],
      "stateMutability": "nonpayable",
      "type": "function"
    },
    {
      "inputs": [
        {
          "internalType": "address",
          "name": "newOwner",
          "type": "address"
        }
      ],
      "name": "transferOwnership",
      "outputs": [],
      "stateMutability": "nonpayable",
      "type": "function"
    }
  ],
  "bytecode": "0x60806040523480156200001157600080fd5b506040518060400160405280600f81526020017f5461626c65746f70446963654e465400000000000000000000000000000000008152506040518060400160405280600c81526020017f5461626c65746f704469636500000000000000000000000000000000000000008152506200009e62000092620000d860201b60201c565b620000e060201b60201c565b8160019080519060200190620000b6929190620001a4565b508060029080519060200190620000cf929190620001a4565b505050620002b9565b600033905090565b60008060009054906101000a900473ffffffffffffffffffffffffffffffffffffffff169050816000806101000a81548173ffffffffffffffffffffffffffffffffffffffff021916908373ffffffffffffffffffffffffffffffffffffffff1602179055508173ffffffffffffffffffffffffffffffffffffffff168173ffffffffffffffffffffffffffffffffffffffff167f8be0079c531659141344cd1fd0a4f28419497f9722a3daafe3b4186f6b6457e060405160405180910390a35050565b828054620001b29062000254565b90600052602060002090601f016020900481019282620001d6576000855562000222565b82601f10620001f157805160ff191683800117855562000222565b8280016001018555821562000222579182015b828111156200022157825182559160200191906001019062000204565b5b50905062000231919062000235565b5090565b5b808211156200025057600081600090555060010162000236565b5090565b600060028204905060018216806200026d57607f821691505b602082108114156200028457620002836200028a565b5b50919050565b7f4e487b7100000000000000000000000000000000000000000000000000000000600052602260045260246000fd5b61435980620002c96000396000f3fe608060405234801561001057600080fd5b506004361061018e5760003560e01c806370a08231116100de578063b0d8b51f11610097578063c87b56dd11610071578063c87b56dd14610497578063e1dc0761146104c7578063e985e9c5146104f9578063f2fde38b146105295761018e565b8063b0d8b51f1461043f578063b88d4fde1461045d578063c6ead8af146104795761018e565b806370a082311461037d578063715018a6146103ad5780638da5cb5b146103b757806395d89b41146103d5578063a22cb465146103f3578063a689e8c21461040f5761018e565b80632f745c591161014b5780636352211e116101255780636352211e146102cf5780636618196c146102ff5780636de9f32b1461032f5780636ec9b8971461034d5761018e565b80632f745c591461026757806342842e0e1461029757806355f804b3146102b35761018e565b806301ffc9a71461019357806306fdde03146101c3578063081812fc146101e1578063095ea7b31461021157806318160ddd1461022d57806323b872dd1461024b575b600080fd5b6101ad60048036038101906101a89190612d31565b610545565b6040516101ba9190613473565b60405180910390f35b6101cb610627565b6040516101d8919061348e565b60405180910390f35b6101fb60048036038101906101f69190612e63565b6106b9565b60405161020891906133c8565b60405180910390f35b61022b60048036038101906102269190612cf1565b61073e565b005b610235610856565b604051610242919061383e565b60405180910390f35b61026560048036038101906102609190612b6c565b61086d565b005b610281600480360381019061027c9190612cf1565b6108cd565b60405161028e9190613823565b60405180910390f35b6102b160048036038101906102ac9190612b6c565b610996565b005b6102cd60048036038101906102c89190612d8b565b6109b6565b005b6102e960048036038101906102e49190612e63565b610a48565b6040516102f691906133c8565b60405180910390f35b61031960048036038101906103149190612aff565b610afa565b604051610326919061342f565b60405180910390f35b610337610bb9565b604051610344919061383e565b60405180910390f35b61036760048036038101906103629190612e90565b610bbf565b6040516103749190613859565b60405180910390f35b61039760048036038101906103929190612aff565b610c96565b6040516103a4919061383e565b60405180910390f35b6103b5610d4e565b005b6103bf610dd6565b6040516103cc91906133c8565b60405180910390f35b6103dd610dff565b6040516103ea919061348e565b60405180910390f35b61040d60048036038101906104089190612c42565b610e91565b005b61042960048036038101906104249190612c82565b610ea7565b604051610436919061383e565b60405180910390f35b610447610fad565b6040516104549190613451565b60405180910390f35b61047760048036038101906104729190612bbf565b61105d565b005b6104816110bf565b60405161048e919061383e565b60405180910390f35b6104b160048036038101906104ac9190612e63565b6110c5565b6040516104be919061348e565b60405180910390f35b6104e160048036038101906104dc9190612e63565b61116c565b6040516104f0939291906134b0565b60405180910390f35b610513600480360381019061050e9190612b2c565b61120f565b6040516105209190613473565b60405180910390f35b610543600480360381019061053e9190612aff565b6112a3565b005b60007f80ac58cd000000000000000000000000000000000000000000000000000000007bffffffffffffffffffffffffffffffffffffffffffffffffffffffff1916827bffffffffffffffffffffffffffffffffffffffffffffffffffffffff1916148061061057507f5b5e139f000000000000000000000000000000000000000000000000000000007bffffffffffffffffffffffffffffffffffffffffffffffffffffffff1916827bffffffffffffffffffffffffffffffffffffffffffffffffffffffff1916145b80610620575061061f8261139b565b5b9050919050565b60606001805461063690613b3c565b80601f016020809104026020016040519081016040528092919081815260200182805461066290613b3c565b80156106af5780601f10610684576101008083540402835291602001916106af565b820191906000526020600020905b81548152906001019060200180831161069257829003601f168201915b5050505050905090565b60006106c482611405565b610703576040517f08c379a00000000000000000000000000000000000000000000000000000000081526004016106fa90613703565b60405180910390fd5b6005600083815260200190815260200160002060009054906101000a900473ffffffffffffffffffffffffffffffffffffffff169050919050565b600061074982610a48565b90508073ffffffffffffffffffffffffffffffffffffffff168373ffffffffffffffffffffffffffffffffffffffff1614156107ba576040517f08c379a00000000000000000000000000000000000000000000000000000000081526004016107b190613783565b60405180910390fd5b8073ffffffffffffffffffffffffffffffffffffffff166107d9611471565b73ffffffffffffffffffffffffffffffffffffffff161480610808575061080781610802611471565b61120f565b5b610847576040517f08c379a000000000000000000000000000000000000000000000000000000000815260040161083e90613683565b60405180910390fd5b6108518383611479565b505050565b60006009546008546108689190613a37565b905090565b61087e610878611471565b82611532565b6108bd576040517f08c379a00000000000000000000000000000000000000000000000000000000081526004016108b4906137a3565b60405180910390fd5b6108c8838383611610565b505050565b60006108d883610c96565b8210610919576040517f08c379a000000000000000000000000000000000000000000000000000000000815260040161091090613763565b60405180910390fd5b600760008473ffffffffffffffffffffffffffffffffffffffff1673ffffffffffffffffffffffffffffffffffffffff168152602001908152602001600020828154811061096a57610969613d04565b5b90600052602060002090601091828204019190066002029054906101000a900461ffff16905092915050565b6109b18383836040518060200160405280600081525061105d565b505050565b6109be611471565b73ffffffffffffffffffffffffffffffffffffffff166109dc610dd6565b73ffffffffffffffffffffffffffffffffffffffff1614610a32576040517f08c379a0000000000000000000000000000000000000000000000000000000008152600401610a2990613723565b60405180910390fd5b8181600c9190610a4392919061279d565b505050565b6000806003600084815260200190815260200160002060009054906101000a900473ffffffffffffffffffffffffffffffffffffffff169050600073ffffffffffffffffffffffffffffffffffffffff168173ffffffffffffffffffffffffffffffffffffffff161415610af1576040517f08c379a0000000000000000000000000000000000000000000000000000000008152600401610ae8906136c3565b60405180910390fd5b80915050919050565b6060600760008373ffffffffffffffffffffffffffffffffffffffff1673ffffffffffffffffffffffffffffffffffffffff168152602001908152602001600020805480602002602001604051908101604052809291908181526020018280548015610bad57602002820191906000526020600020906000905b82829054906101000a900461ffff1661ffff1681526020019060020190602082600101049283019260010382029150808411610b745790505b50505050509050919050565b60085481565b6000610c006040518060400160405280600d81526020017f524f4c4c494e47204e465420230000000000000000000000000000000000000081525084611877565b600a73__$3b68987207f559b9bfdbbec8c00268de72$__632b9074c2909185856040518463ffffffff1660e01b8152600401610c3e939291906137ec565b60206040518083038186803b158015610c5657600080fd5b505af4158015610c6a573d6000803e3d6000fd5b505050506040513d601f19601f82011682018060405250810190610c8e9190612ed0565b905092915050565b60008073ffffffffffffffffffffffffffffffffffffffff168273ffffffffffffffffffffffffffffffffffffffff161415610d07576040517f08c379a0000000000000000000000000000000000000000000000000000000008152600401610cfe906136a3565b60405180910390fd5b600460008373ffffffffffffffffffffffffffffffffffffffff1673ffffffffffffffffffffffffffffffffffffffff168152602001908152602001600020549050919050565b610d56611471565b73ffffffffffffffffffffffffffffffffffffffff16610d74610dd6565b73ffffffffffffffffffffffffffffffffffffffff1614610dca576040517f08c379a0000000000000000000000000000000000000000000000000000000008152600401610dc190613723565b60405180910390fd5b610dd46000611913565b565b60008060009054906101000a900473ffffffffffffffffffffffffffffffffffffffff16905090565b606060028054610e0e90613b3c565b80601f0160208091040260200160405190810160405280929190818152602001828054610e3a90613b3c565b8015610e875780601f10610e5c57610100808354040283529160200191610e87565b820191906000526020600020905b815481529060010190602001808311610e6a57829003601f168201915b5050505050905090565b610ea3610e9c611471565b83836119d7565b5050565b6000610eb1611471565b73ffffffffffffffffffffffffffffffffffffffff16610ecf610dd6565b73ffffffffffffffffffffffffffffffffffffffff1614610f25576040517f08c379a0000000000000000000000000000000000000000000000000000000008152600401610f1c90613723565b60405180910390fd5b6000610f31600b611b44565b9050610f4b848285600a611b52909392919063ffffffff16565b610f558582611cd7565b610f986040518060400160405280601b81526020017f43726561746564204e46543a202325733b2053696465733a2025730000000000815250828560ff16611cf5565b610fa2600b611d94565b809150509392505050565b60606000610fba33610c96565b905060008167ffffffffffffffff811115610fd857610fd7613d33565b5b6040519080825280602002602001820160405280156110065781602001602082028036833780820191505090505b50905060005b828110156110545761101e33826108cd565b61ffff1682828151811061103557611034613d04565b5b602002602001018181525050808061104c90613b9f565b91505061100c565b50809250505090565b61106e611068611471565b83611532565b6110ad576040517f08c379a00000000000000000000000000000000000000000000000000000000081526004016110a4906137a3565b60405180910390fd5b6110b984848484611daa565b50505050565b60095481565b60606110d082611405565b61110f576040517f08c379a000000000000000000000000000000000000000000000000000000000815260040161110690613743565b60405180910390fd5b6000611119611e06565b905060008151116111395760405180602001604052806000815250611164565b8061114384611e98565b6040516020016111549291906133a4565b6040516020818303038152906040525b915050919050565b6060806000600a73__$3b68987207f559b9bfdbbec8c00268de72$__6323f5b9fc9091866040518363ffffffff1660e01b81526004016111ad9291906137c3565b60006040518083038186803b1580156111c557600080fd5b505af41580156111d9573d6000803e3d6000fd5b505050506040513d6000823e3d601f19601f820116820180604052508101906112029190612dd8565b9250925092509193909250565b6000600660008473ffffffffffffffffffffffffffffffffffffffff1673ffffffffffffffffffffffffffffffffffffffff16815260200190815260200160002060008373ffffffffffffffffffffffffffffffffffffffff1673ffffffffffffffffffffffffffffffffffffffff16815260200190815260200160002060009054906101000a900460ff16905092915050565b6112ab611471565b73ffffffffffffffffffffffffffffffffffffffff166112c9610dd6565b73ffffffffffffffffffffffffffffffffffffffff161461131f576040517f08c379a000000000000000000000000000000000000000000000000000000000815260040161131690613723565b60405180910390fd5b600073ffffffffffffffffffffffffffffffffffffffff168173ffffffffffffffffffffffffffffffffffffffff16141561138f576040517f08c379a0000000000000000000000000000000000000000000000000000000008152600401611386906135c3565b60405180910390fd5b61139881611913565b50565b60007f01ffc9a7000000000000000000000000000000000000000000000000000000007bffffffffffffffffffffffffffffffffffffffffffffffffffffffff1916827bffffffffffffffffffffffffffffffffffffffffffffffffffffffff1916149050919050565b60008073ffffffffffffffffffffffffffffffffffffffff166003600084815260200190815260200160002060009054906101000a900473ffffffffffffffffffffffffffffffffffffffff1673ffffffffffffffffffffffffffffffffffffffff1614159050919050565b600033905090565b816005600083815260200190815260200160002060006101000a81548173ffffffffffffffffffffffffffffffffffffffff021916908373ffffffffffffffffffffffffffffffffffffffff160217905550808273ffffffffffffffffffffffffffffffffffffffff166114ec83610a48565b73ffffffffffffffffffffffffffffffffffffffff167f8c5be1e5ebec7d5bd14f71427d1e84f3dd0314c0f7b2291e5b200ac8c7c3b92560405160405180910390a45050565b600061153d82611405565b61157c576040517f08c379a000000000000000000000000000000000000000000000000000000000815260040161157390613663565b60405180910390fd5b600061158783610a48565b90508073ffffffffffffffffffffffffffffffffffffffff168473ffffffffffffffffffffffffffffffffffffffff1614806115f657508373ffffffffffffffffffffffffffffffffffffffff166115de846106b9565b73ffffffffffffffffffffffffffffffffffffffff16145b806116075750611606818561120f565b5b91505092915050565b8273ffffffffffffffffffffffffffffffffffffffff1661163082610a48565b73ffffffffffffffffffffffffffffffffffffffff1614611686576040517f08c379a000000000000000000000000000000000000000000000000000000000815260040161167d906135e3565b60405180910390fd5b600073ffffffffffffffffffffffffffffffffffffffff168273ffffffffffffffffffffffffffffffffffffffff1614156116f6576040517f08c379a00000000000000000000000000000000000000000000000000000000081526004016116ed90613623565b60405180910390fd5b611701838383611ff9565b61170c600082611479565b6001600460008573ffffffffffffffffffffffffffffffffffffffff1673ffffffffffffffffffffffffffffffffffffffff168152602001908152602001600020600082825461175c9190613a37565b925050819055506001600460008473ffffffffffffffffffffffffffffffffffffffff1673ffffffffffffffffffffffffffffffffffffffff16815260200190815260200160002060008282546117b391906139b0565b92505081905550816003600083815260200190815260200160002060006101000a81548173ffffffffffffffffffffffffffffffffffffffff021916908373ffffffffffffffffffffffffffffffffffffffff160217905550808273ffffffffffffffffffffffffffffffffffffffff168473ffffffffffffffffffffffffffffffffffffffff167fddf252ad1be2c89b69c2b068fc378daa952ba7f163c4a11628f55a4df523b3ef60405160405180910390a46118728383836120f1565b505050565b61190f828260405160240161188d9291906134f5565b6040516020818303038152906040527f9710a9d0000000000000000000000000000000000000000000000000000000007bffffffffffffffffffffffffffffffffffffffffffffffffffffffff19166020820180517bffffffffffffffffffffffffffffffffffffffffffffffffffffffff83818316178352505050506120f6565b5050565b60008060009054906101000a900473ffffffffffffffffffffffffffffffffffffffff169050816000806101000a81548173ffffffffffffffffffffffffffffffffffffffff021916908373ffffffffffffffffffffffffffffffffffffffff1602179055508173ffffffffffffffffffffffffffffffffffffffff168173ffffffffffffffffffffffffffffffffffffffff167f8be0079c531659141344cd1fd0a4f28419497f9722a3daafe3b4186f6b6457e060405160405180910390a35050565b8173ffffffffffffffffffffffffffffffffffffffff168373ffffffffffffffffffffffffffffffffffffffff161415611a46576040517f08c379a0000000000000000000000000000000000000000000000000000000008152600401611a3d90613643565b60405180910390fd5b80600660008573ffffffffffffffffffffffffffffffffffffffff1673ffffffffffffffffffffffffffffffffffffffff16815260200190815260200160002060008473ffffffffffffffffffffffffffffffffffffffff1673ffffffffffffffffffffffffffffffffffffffff16815260200190815260200160002060006101000a81548160ff0219169083151502179055508173ffffffffffffffffffffffffffffffffffffffff168373ffffffffffffffffffffffffffffffffffffffff167f17307eab39ab6107e8899845ad3d59bd9653f200f220920489ca2b5937696c3183604051611b379190613473565b60405180910390a3505050565b600081600001549050919050565b60008160ff1611611b98576040517f08c379a0000000000000000000000000000000000000000000000000000000008152600401611b8f90613563565b60405180910390fd5b611bd76040518060400160405280601481526020017f4372656174696e672044696520772f2069643a2000000000000000000000000081525083611877565b600080600a8360ff1614611bec576000611bef565b60015b905060405180608001604052808681526020018460ff1681526020018215158152602001836002811115611c2657611c25613c77565b5b8152508660000160008681526020019081526020016000206000820151816000019080519060200190611c5a929190612823565b5060208201518160010160006101000a81548160ff021916908360ff16021790555060408201518160010160016101000a81548160ff02191690831515021790555060608201518160010160026101000a81548160ff02191690836002811115611cc757611cc6613c77565b5b0217905550905050505050505050565b611cf182826040518060200160405280600081525061211f565b5050565b611d8f838383604051602401611d0d93929190613525565b6040516020818303038152906040527f969cdd03000000000000000000000000000000000000000000000000000000007bffffffffffffffffffffffffffffffffffffffffffffffffffffffff19166020820180517bffffffffffffffffffffffffffffffffffffffffffffffffffffffff83818316178352505050506120f6565b505050565b6001816000016000828254019250508190555050565b611db5848484611610565b611dc18484848461217a565b611e00576040517f08c379a0000000000000000000000000000000000000000000000000000000008152600401611df7906135a3565b60405180910390fd5b50505050565b6060600c8054611e1590613b3c565b80601f0160208091040260200160405190810160405280929190818152602001828054611e4190613b3c565b8015611e8e5780601f10611e6357610100808354040283529160200191611e8e565b820191906000526020600020905b815481529060010190602001808311611e7157829003601f168201915b5050505050905090565b60606000821415611ee0576040518060400160405280600181526020017f30000000000000000000000000000000000000000000000000000000000000008152509050611ff4565b600082905060005b60008214611f12578080611efb90613b9f565b915050600a82611f0b9190613a06565b9150611ee8565b60008167ffffffffffffffff811115611f2e57611f2d613d33565b5b6040519080825280601f01601f191660200182016040528015611f605781602001600182028036833780820191505090505b5090505b60008514611fed57600182611f799190613a37565b9150600a85611f889190613be8565b6030611f9491906139b0565b60f81b818381518110611faa57611fa9613d04565b5b60200101907effffffffffffffffffffffffffffffffffffffffffffffffffffffffffffff1916908160001a905350600a85611fe69190613a06565b9450611f64565b8093505050505b919050565b612004838383612311565b8273ffffffffffffffffffffffffffffffffffffffff168273ffffffffffffffffffffffffffffffffffffffff16146120ec576120418282612316565b600073ffffffffffffffffffffffffffffffffffffffff168373ffffffffffffffffffffffffffffffffffffffff16146120845761207f83826123a1565b61209d565b6008600081548092919061209790613b9f565b91905055505b600073ffffffffffffffffffffffffffffffffffffffff168273ffffffffffffffffffffffffffffffffffffffff1614156120eb57600960008154809291906120e590613b9f565b91905055505b5b505050565b505050565b60008151905060006a636f6e736f6c652e6c6f679050602083016000808483855afa5050505050565b61212983836125a0565b612136600084848461217a565b612175576040517f08c379a000000000000000000000000000000000000000000000000000000000815260040161216c906135a3565b60405180910390fd5b505050565b600061219b8473ffffffffffffffffffffffffffffffffffffffff1661277a565b15612304578373ffffffffffffffffffffffffffffffffffffffff1663150b7a026121c4611471565b8786866040518563ffffffff1660e01b81526004016121e694939291906133e3565b602060405180830381600087803b15801561220057600080fd5b505af192505050801561223157506040513d601f19601f8201168201806040525081019061222e9190612d5e565b60015b6122b4573d8060008114612261576040519150601f19603f3d011682016040523d82523d6000602084013e612266565b606091505b506000815114156122ac576040517f08c379a00000000000000000000000000000000000000000000000000000000081526004016122a3906135a3565b60405180910390fd5b805181602001fd5b63150b7a0260e01b7bffffffffffffffffffffffffffffffffffffffffffffffffffffffff1916817bffffffffffffffffffffffffffffffffffffffffffffffffffffffff191614915050612309565b600190505b949350505050565b505050565b600760008373ffffffffffffffffffffffffffffffffffffffff1673ffffffffffffffffffffffffffffffffffffffff1681526020019081526020016000208190806001815401808255809150506001900390600052602060002090601091828204019190066002029091909190916101000a81548161ffff021916908361ffff1602179055505050565b6000600760008473ffffffffffffffffffffffffffffffffffffffff1673ffffffffffffffffffffffffffffffffffffffff168152602001908152602001600020905060008180549050905060005b828054905081101561245d578361ffff1683828154811061241457612413613d04565b5b90600052602060002090601091828204019190066002029054906101000a900461ffff1661ffff16141561244a5780915061245d565b808061245590613b9f565b9150506123f0565b50818054905081106124a4576040517f08c379a000000000000000000000000000000000000000000000000000000000815260040161249b90613583565b60405180910390fd5b60008190505b600183805490506124bb9190613a37565b81101561255a57826001826124d091906139b0565b815481106124e1576124e0613d04565b5b90600052602060002090601091828204019190066002029054906101000a900461ffff1683828154811061251857612517613d04565b5b90600052602060002090601091828204019190066002026101000a81548161ffff021916908361ffff160217905550808061255290613b9f565b9150506124aa565b508180548061256c5761256b613cd5565b5b60019003818190600052602060002090601091828204019190066002026101000a81549061ffff0219169055905550505050565b600073ffffffffffffffffffffffffffffffffffffffff168273ffffffffffffffffffffffffffffffffffffffff161415612610576040517f08c379a0000000000000000000000000000000000000000000000000000000008152600401612607906136e3565b60405180910390fd5b61261981611405565b15612659576040517f08c379a000000000000000000000000000000000000000000000000000000000815260040161265090613603565b60405180910390fd5b61266560008383611ff9565b6001600460008473ffffffffffffffffffffffffffffffffffffffff1673ffffffffffffffffffffffffffffffffffffffff16815260200190815260200160002060008282546126b591906139b0565b92505081905550816003600083815260200190815260200160002060006101000a81548173ffffffffffffffffffffffffffffffffffffffff021916908373ffffffffffffffffffffffffffffffffffffffff160217905550808273ffffffffffffffffffffffffffffffffffffffff16600073ffffffffffffffffffffffffffffffffffffffff167fddf252ad1be2c89b69c2b068fc378daa952ba7f163c4a11628f55a4df523b3ef60405160405180910390a4612776600083836120f1565b5050565b6000808273ffffffffffffffffffffffffffffffffffffffff163b119050919050565b8280546127a990613b3c565b90600052602060002090601f0160209004810192826127cb5760008555612812565b82601f106127e457803560ff1916838001178555612812565b82800160010185558215612812579182015b828111156128115782358255916020019190600101906127f6565b5b50905061281f91906128a9565b5090565b82805461282f90613b3c565b90600052602060002090601f0160209004810192826128515760008555612898565b82601f1061286a57805160ff1916838001178555612898565b82800160010185558215612898579182015b8281111561289757825182559160200191906001019061287c565b5b5090506128a591906128a9565b5090565b5b808211156128c25760008160009055506001016128aa565b5090565b60006128d96128d484613899565b613874565b9050828152602081018484840111156128f5576128f4613d71565b5b612900848285613afa565b509392505050565b600061291b612916846138ca565b613874565b90508281526020810184848401111561293757612936613d71565b5b612942848285613afa565b509392505050565b600061295d612958846138ca565b613874565b90508281526020810184848401111561297957612978613d71565b5b612984848285613b09565b509392505050565b60008135905061299b816142b0565b92915050565b6000813590506129b0816142c7565b92915050565b6000813590506129c5816142de565b92915050565b6000815190506129da816142de565b92915050565b600082601f8301126129f5576129f4613d67565b5b8135612a058482602086016128c6565b91505092915050565b60008083601f840112612a2457612a23613d67565b5b8235905067ffffffffffffffff811115612a4157612a40613d62565b5b602083019150836001820283011115612a5d57612a5c613d6c565b5b9250929050565b600082601f830112612a7957612a78613d67565b5b8135612a89848260208601612908565b91505092915050565b600082601f830112612aa757612aa6613d67565b5b8151612ab784826020860161294a565b91505092915050565b600081359050612acf816142f5565b92915050565b600081359050612ae48161430c565b92915050565b600081519050612af98161430c565b92915050565b600060208284031215612b1557612b14613d7b565b5b6000612b238482850161298c565b91505092915050565b60008060408385031215612b4357612b42613d7b565b5b6000612b518582860161298c565b9250506020612b628582860161298c565b9150509250929050565b600080600060608486031215612b8557612b84613d7b565b5b6000612b938682870161298c565b9350506020612ba48682870161298c565b9250506040612bb586828701612ac0565b9150509250925092565b60008060008060808587031215612bd957612bd8613d7b565b5b6000612be78782880161298c565b9450506020612bf88782880161298c565b9350506040612c0987828801612ac0565b925050606085013567ffffffffffffffff811115612c2a57612c29613d76565b5b612c36878288016129e0565b91505092959194509250565b60008060408385031215612c5957612c58613d7b565b5b6000612c678582860161298c565b9250506020612c78858286016129a1565b9150509250929050565b600080600060608486031215612c9b57612c9a613d7b565b5b6000612ca98682870161298c565b935050602084013567ffffffffffffffff811115612cca57612cc9613d76565b5b612cd686828701612a64565b9250506040612ce786828701612ad5565b9150509250925092565b60008060408385031215612d0857612d07613d7b565b5b6000612d168582860161298c565b9250506020612d2785828601612ac0565b9150509250929050565b600060208284031215612d4757612d46613d7b565b5b6000612d55848285016129b6565b91505092915050565b600060208284031215612d7457612d73613d7b565b5b6000612d82848285016129cb565b91505092915050565b60008060208385031215612da257612da1613d7b565b5b600083013567ffffffffffffffff811115612dc057612dbf613d76565b5b612dcc85828601612a0e565b92509250509250929050565b600080600060608486031215612df157612df0613d7b565b5b600084015167ffffffffffffffff811115612e0f57612e0e613d76565b5b612e1b86828701612a92565b935050602084015167ffffffffffffffff811115612e3c57612e3b613d76565b5b612e4886828701612a92565b9250506040612e5986828701612aea565b9150509250925092565b600060208284031215612e7957612e78613d7b565b5b6000612e8784828501612ac0565b91505092915050565b60008060408385031215612ea757612ea6613d7b565b5b6000612eb585828601612ac0565b9250506020612ec685828601612ac0565b9150509250929050565b600060208284031215612ee657612ee5613d7b565b5b6000612ef484828501612aea565b91505092915050565b6000612f09838361334a565b60208301905092915050565b6000612f218383613368565b60208301905092915050565b612f3681613a6b565b82525050565b6000612f478261391b565b612f518185613961565b9350612f5c836138fb565b8060005b83811015612f8d578151612f748882612efd565b9750612f7f83613947565b925050600181019050612f60565b5085935050505092915050565b6000612fa582613926565b612faf8185613972565b9350612fba8361390b565b8060005b83811015612feb578151612fd28882612f15565b9750612fdd83613954565b925050600181019050612fbe565b5085935050505092915050565b61300181613a7d565b82525050565b600061301282613931565b61301c8185613983565b935061302c818560208601613b09565b61303581613d80565b840191505092915050565b600061304b8261393c565b6130558185613994565b9350613065818560208601613b09565b61306e81613d80565b840191505092915050565b60006130848261393c565b61308e81856139a5565b935061309e818560208601613b09565b80840191505092915050565b60006130b7601683613994565b91506130c282613d91565b602082019050919050565b60006130da603783613994565b91506130e582613dba565b604082019050919050565b60006130fd603283613994565b915061310882613e09565b604082019050919050565b6000613120602683613994565b915061312b82613e58565b604082019050919050565b6000613143602583613994565b915061314e82613ea7565b604082019050919050565b6000613166601c83613994565b915061317182613ef6565b602082019050919050565b6000613189602483613994565b915061319482613f1f565b604082019050919050565b60006131ac601983613994565b91506131b782613f6e565b602082019050919050565b60006131cf602c83613994565b91506131da82613f97565b604082019050919050565b60006131f2603883613994565b91506131fd82613fe6565b604082019050919050565b6000613215602a83613994565b915061322082614035565b604082019050919050565b6000613238602983613994565b915061324382614084565b604082019050919050565b600061325b602083613994565b9150613266826140d3565b602082019050919050565b600061327e602c83613994565b9150613289826140fc565b604082019050919050565b60006132a1602083613994565b91506132ac8261414b565b602082019050919050565b60006132c4602f83613994565b91506132cf82614174565b604082019050919050565b60006132e7603183613994565b91506132f2826141c3565b604082019050919050565b600061330a602183613994565b915061331582614212565b604082019050919050565b600061332d603183613994565b915061333882614261565b604082019050919050565b8082525050565b61335381613ab5565b82525050565b61336281613ab5565b82525050565b61337181613ae3565b82525050565b61338081613ae3565b82525050565b61338f81613ae3565b82525050565b61339e81613aed565b82525050565b60006133b08285613079565b91506133bc8284613079565b91508190509392505050565b60006020820190506133dd6000830184612f2d565b92915050565b60006080820190506133f86000830187612f2d565b6134056020830186612f2d565b6134126040830185613377565b81810360608301526134248184613007565b905095945050505050565b600060208201905081810360008301526134498184612f3c565b905092915050565b6000602082019050818103600083015261346b8184612f9a565b905092915050565b60006020820190506134886000830184612ff8565b92915050565b600060208201905081810360008301526134a88184613040565b905092915050565b600060608201905081810360008301526134ca8186613040565b905081810360208301526134de8185613040565b90506134ed6040830184613395565b949350505050565b6000604082019050818103600083015261350f8185613040565b905061351e6020830184613377565b9392505050565b6000606082019050818103600083015261353f8186613040565b905061354e6020830185613377565b61355b6040830184613377565b949350505050565b6000602082019050818103600083015261357c816130aa565b9050919050565b6000602082019050818103600083015261359c816130cd565b9050919050565b600060208201905081810360008301526135bc816130f0565b9050919050565b600060208201905081810360008301526135dc81613113565b9050919050565b600060208201905081810360008301526135fc81613136565b9050919050565b6000602082019050818103600083015261361c81613159565b9050919050565b6000602082019050818103600083015261363c8161317c565b9050919050565b6000602082019050818103600083015261365c8161319f565b9050919050565b6000602082019050818103600083015261367c816131c2565b9050919050565b6000602082019050818103600083015261369c816131e5565b9050919050565b600060208201905081810360008301526136bc81613208565b9050919050565b600060208201905081810360008301526136dc8161322b565b9050919050565b600060208201905081810360008301526136fc8161324e565b9050919050565b6000602082019050818103600083015261371c81613271565b9050919050565b6000602082019050818103600083015261373c81613294565b9050919050565b6000602082019050818103600083015261375c816132b7565b9050919050565b6000602082019050818103600083015261377c816132da565b9050919050565b6000602082019050818103600083015261379c816132fd565b9050919050565b600060208201905081810360008301526137bc81613320565b9050919050565b60006040820190506137d86000830185613343565b6137e56020830184613386565b9392505050565b60006060820190506138016000830186613343565b61380e6020830185613386565b61381b6040830184613386565b949350505050565b60006020820190506138386000830184613359565b92915050565b60006020820190506138536000830184613377565b92915050565b600060208201905061386e6000830184613395565b92915050565b600061387e61388f565b905061388a8282613b6e565b919050565b6000604051905090565b600067ffffffffffffffff8211156138b4576138b3613d33565b5b6138bd82613d80565b9050602081019050919050565b600067ffffffffffffffff8211156138e5576138e4613d33565b5b6138ee82613d80565b9050602081019050919050565b6000819050602082019050919050565b6000819050602082019050919050565b600081519050919050565b600081519050919050565b600081519050919050565b600081519050919050565b6000602082019050919050565b6000602082019050919050565b600082825260208201905092915050565b600082825260208201905092915050565b600082825260208201905092915050565b600082825260208201905092915050565b600081905092915050565b60006139bb82613ae3565b91506139c683613ae3565b9250827fffffffffffffffffffffffffffffffffffffffffffffffffffffffffffffffff038211156139fb576139fa613c19565b5b828201905092915050565b6000613a1182613ae3565b9150613a1c83613ae3565b925082613a2c57613a2b613c48565b5b828204905092915050565b6000613a4282613ae3565b9150613a4d83613ae3565b925082821015613a6057613a5f613c19565b5b828203905092915050565b6000613a7682613ac3565b9050919050565b60008115159050919050565b60007fffffffff0000000000000000000000000000000000000000000000000000000082169050919050565b600061ffff82169050919050565b600073ffffffffffffffffffffffffffffffffffffffff82169050919050565b6000819050919050565b600060ff82169050919050565b82818337600083830152505050565b60005b83811015613b27578082015181840152602081019050613b0c565b83811115613b36576000848401525b50505050565b60006002820490506001821680613b5457607f821691505b60208210811415613b6857613b67613ca6565b5b50919050565b613b7782613d80565b810181811067ffffffffffffffff82111715613b9657613b95613d33565b5b80604052505050565b6000613baa82613ae3565b91507fffffffffffffffffffffffffffffffffffffffffffffffffffffffffffffffff821415613bdd57613bdc613c19565b5b600182019050919050565b6000613bf382613ae3565b9150613bfe83613ae3565b925082613c0e57613c0d613c48565b5b828206905092915050565b7f4e487b7100000000000000000000000000000000000000000000000000000000600052601160045260246000fd5b7f4e487b7100000000000000000000000000000000000000000000000000000000600052601260045260246000fd5b7f4e487b7100000000000000000000000000000000000000000000000000000000600052602160045260246000fd5b7f4e487b7100000000000000000000000000000000000000000000000000000000600052602260045260246000fd5b7f4e487b7100000000000000000000000000000000000000000000000000000000600052603160045260246000fd5b7f4e487b7100000000000000000000000000000000000000000000000000000000600052603260045260246000fd5b7f4e487b7100000000000000000000000000000000000000000000000000000000600052604160045260246000fd5b600080fd5b600080fd5b600080fd5b600080fd5b600080fd5b600080fd5b6000601f19601f8301169050919050565b7f5369646573206d757374206265206e6f6e2d7a65726f00000000000000000000600082015250565b7f45524337323153696d706c65456e756d657261626c653a20746f6b656e49642060008201527f6e6f7420666f756e6420696e206f776e6572206c697374000000000000000000602082015250565b7f4552433732313a207472616e7366657220746f206e6f6e20455243373231526560008201527f63656976657220696d706c656d656e7465720000000000000000000000000000602082015250565b7f4f776e61626c653a206e6577206f776e657220697320746865207a65726f206160008201527f6464726573730000000000000000000000000000000000000000000000000000602082015250565b7f4552433732313a207472616e736665722066726f6d20696e636f72726563742060008201527f6f776e6572000000000000000000000000000000000000000000000000000000602082015250565b7f4552433732313a20746f6b656e20616c7265616479206d696e74656400000000600082015250565b7f4552433732313a207472616e7366657220746f20746865207a65726f2061646460008201527f7265737300000000000000000000000000000000000000000000000000000000602082015250565b7f4552433732313a20617070726f766520746f2063616c6c657200000000000000600082015250565b7f4552433732313a206f70657261746f7220717565727920666f72206e6f6e657860008201527f697374656e7420746f6b656e0000000000000000000000000000000000000000602082015250565b7f4552433732313a20617070726f76652063616c6c6572206973206e6f74206f7760008201527f6e6572206e6f7220617070726f76656420666f7220616c6c0000000000000000602082015250565b7f4552433732313a2062616c616e636520717565727920666f7220746865207a6560008201527f726f206164647265737300000000000000000000000000000000000000000000602082015250565b7f4552433732313a206f776e657220717565727920666f72206e6f6e657869737460008201527f656e7420746f6b656e0000000000000000000000000000000000000000000000602082015250565b7f4552433732313a206d696e7420746f20746865207a65726f2061646472657373600082015250565b7f4552433732313a20617070726f76656420717565727920666f72206e6f6e657860008201527f697374656e7420746f6b656e0000000000000000000000000000000000000000602082015250565b7f4f776e61626c653a2063616c6c6572206973206e6f7420746865206f776e6572600082015250565b7f4552433732314d657461646174613a2055524920717565727920666f72206e6f60008201527f6e6578697374656e7420746f6b656e0000000000000000000000000000000000602082015250565b7f45524337323153696d706c65456e756d657261626c653a206f776e657220696e60008201527f646578206f7574206f6620626f756e6473000000000000000000000000000000602082015250565b7f4552433732313a20617070726f76616c20746f2063757272656e74206f776e6560008201527f7200000000000000000000000000000000000000000000000000000000000000602082015250565b7f4552433732313a207472616e736665722063616c6c6572206973206e6f74206f60008201527f776e6572206e6f7220617070726f766564000000000000000000000000000000602082015250565b6142b981613a6b565b81146142c457600080fd5b50565b6142d081613a7d565b81146142db57600080fd5b50565b6142e781613a89565b81146142f257600080fd5b50565b6142fe81613ae3565b811461430957600080fd5b50565b61431581613aed565b811461432057600080fd5b5056fea2646970667358221220a5a7ac06047bbbf5ef522d3efe83b8df7926b6ab611ed2c88c5ab4b68b5f2de864736f6c63430008060033",
  "linkReferences": {
    "contracts/DiceLibrary.sol": {
      "DiceLibrary": [
        {
          "length": 20,
          "start": 3789
        },
        {
          "length": 20,
          "start": 5182
        }
      ]
    }
  },
  "deployedLinkReferences": {
    "contracts/DiceLibrary.sol": {
      "DiceLibrary": [
        {
          "length": 20,
          "start": 3076
        },
        {
          "length": 20,
          "start": 4469
        }
      ]
    }
  }
}