{
  "_format": "hh-sol-artifact-1",
  "contractName": "TabletopDiceNFT",
  "sourceName": "contracts/Dice.sol",
  "abi": [
    {
      "inputs": [],
      "stateMutability": "nonpayable",
      "type": "constructor"
    },
    {
      "anonymous": false,
      "inputs": [
        {
          "indexed": true,
          "internalType": "address",
          "name": "owner",
          "type": "address"
        },
        {
          "indexed": true,
          "internalType": "address",
          "name": "approved",
          "type": "address"
        },
        {
          "indexed": true,
          "internalType": "uint256",
          "name": "tokenId",
          "type": "uint256"
        }
      ],
      "name": "Approval",
      "type": "event"
    },
    {
      "anonymous": false,
      "inputs": [
        {
          "indexed": true,
          "internalType": "address",
          "name": "owner",
          "type": "address"
        },
        {
          "indexed": true,
          "internalType": "address",
          "name": "operator",
          "type": "address"
        },
        {
          "indexed": false,
          "internalType": "bool",
          "name": "approved",
          "type": "bool"
        }
      ],
      "name": "ApprovalForAll",
      "type": "event"
    },
    {
      "anonymous": false,
      "inputs": [
        {
          "indexed": true,
          "internalType": "address",
          "name": "previousOwner",
          "type": "address"
        },
        {
          "indexed": true,
          "internalType": "address",
          "name": "newOwner",
          "type": "address"
        }
      ],
      "name": "OwnershipTransferred",
      "type": "event"
    },
    {
      "anonymous": false,
      "inputs": [
        {
          "indexed": true,
          "internalType": "address",
          "name": "from",
          "type": "address"
        },
        {
          "indexed": true,
          "internalType": "address",
          "name": "to",
          "type": "address"
        },
        {
          "indexed": true,
          "internalType": "uint256",
          "name": "tokenId",
          "type": "uint256"
        }
      ],
      "name": "Transfer",
      "type": "event"
    },
    {
      "inputs": [
        {
          "internalType": "address",
          "name": "to",
          "type": "address"
        },
        {
          "internalType": "uint256",
          "name": "tokenId",
          "type": "uint256"
        }
      ],
      "name": "approve",
      "outputs": [],
      "stateMutability": "nonpayable",
      "type": "function"
    },
    {
      "inputs": [
        {
          "internalType": "address",
          "name": "owner",
          "type": "address"
        }
      ],
      "name": "balanceOf",
      "outputs": [
        {
          "internalType": "uint256",
          "name": "",
          "type": "uint256"
        }
      ],
      "stateMutability": "view",
      "type": "function"
    },
    {
      "inputs": [
        {
          "internalType": "uint256",
          "name": "tokenId",
          "type": "uint256"
        }
      ],
      "name": "getApproved",
      "outputs": [
        {
          "internalType": "address",
          "name": "",
          "type": "address"
        }
      ],
      "stateMutability": "view",
      "type": "function"
    },
    {
      "inputs": [
        {
          "internalType": "uint256",
          "name": "styleId",
          "type": "uint256"
        }
      ],
      "name": "getColorTheme",
      "outputs": [
        {
          "internalType": "string",
          "name": "background",
          "type": "string"
        },
        {
          "internalType": "string",
          "name": "forground",
          "type": "string"
        }
      ],
      "stateMutability": "pure",
      "type": "function"
    },
    {
      "inputs": [],
      "name": "getOwnedTokenIds",
      "outputs": [
        {
          "internalType": "uint256[]",
          "name": "",
          "type": "uint256[]"
        }
      ],
      "stateMutability": "view",
      "type": "function"
    },
    {
      "inputs": [
        {
          "internalType": "uint256",
          "name": "tokenId",
          "type": "uint256"
        }
      ],
      "name": "getTraits",
      "outputs": [
        {
          "internalType": "string",
          "name": "name",
          "type": "string"
        },
        {
          "internalType": "string",
          "name": "tokenURI",
          "type": "string"
        },
        {
          "internalType": "uint8",
          "name": "sides",
          "type": "uint8"
        }
      ],
      "stateMutability": "view",
      "type": "function"
    },
    {
      "inputs": [
        {
          "internalType": "address",
          "name": "owner",
          "type": "address"
        },
        {
          "internalType": "address",
          "name": "operator",
          "type": "address"
        }
      ],
      "name": "isApprovedForAll",
      "outputs": [
        {
          "internalType": "bool",
          "name": "",
          "type": "bool"
        }
      ],
      "stateMutability": "view",
      "type": "function"
    },
    {
      "inputs": [
        {
          "internalType": "address",
          "name": "owner",
          "type": "address"
        },
        {
          "internalType": "string",
          "name": "name",
          "type": "string"
        },
        {
          "internalType": "uint8",
          "name": "sides",
          "type": "uint8"
        }
      ],
      "name": "mintNFT",
      "outputs": [
        {
          "internalType": "uint256",
          "name": "",
          "type": "uint256"
        }
      ],
      "stateMutability": "nonpayable",
      "type": "function"
    },
    {
      "inputs": [],
      "name": "name",
      "outputs": [
        {
          "internalType": "string",
          "name": "",
          "type": "string"
        }
      ],
      "stateMutability": "view",
      "type": "function"
    },
    {
      "inputs": [],
      "name": "owner",
      "outputs": [
        {
          "internalType": "address",
          "name": "",
          "type": "address"
        }
      ],
      "stateMutability": "view",
      "type": "function"
    },
    {
      "inputs": [
        {
          "internalType": "uint256",
          "name": "tokenId",
          "type": "uint256"
        }
      ],
      "name": "ownerOf",
      "outputs": [
        {
          "internalType": "address",
          "name": "",
          "type": "address"
        }
      ],
      "stateMutability": "view",
      "type": "function"
    },
    {
      "inputs": [],
      "name": "renounceOwnership",
      "outputs": [],
      "stateMutability": "nonpayable",
      "type": "function"
    },
    {
      "inputs": [
        {
          "internalType": "uint256",
          "name": "tokenId",
          "type": "uint256"
        },
        {
          "internalType": "uint16",
          "name": "nonce",
          "type": "uint16"
        }
      ],
      "name": "roll",
      "outputs": [
        {
          "internalType": "uint8",
          "name": "",
          "type": "uint8"
        }
      ],
      "stateMutability": "view",
      "type": "function"
    },
    {
      "inputs": [
        {
          "internalType": "address",
          "name": "from",
          "type": "address"
        },
        {
          "internalType": "address",
          "name": "to",
          "type": "address"
        },
        {
          "internalType": "uint256",
          "name": "tokenId",
          "type": "uint256"
        }
      ],
      "name": "safeTransferFrom",
      "outputs": [],
      "stateMutability": "nonpayable",
      "type": "function"
    },
    {
      "inputs": [
        {
          "internalType": "address",
          "name": "from",
          "type": "address"
        },
        {
          "internalType": "address",
          "name": "to",
          "type": "address"
        },
        {
          "internalType": "uint256",
          "name": "tokenId",
          "type": "uint256"
        },
        {
          "internalType": "bytes",
          "name": "_data",
          "type": "bytes"
        }
      ],
      "name": "safeTransferFrom",
      "outputs": [],
      "stateMutability": "nonpayable",
      "type": "function"
    },
    {
      "inputs": [
        {
          "internalType": "address",
          "name": "operator",
          "type": "address"
        },
        {
          "internalType": "bool",
          "name": "approved",
          "type": "bool"
        }
      ],
      "name": "setApprovalForAll",
      "outputs": [],
      "stateMutability": "nonpayable",
      "type": "function"
    },
    {
      "inputs": [
        {
          "internalType": "string",
          "name": "baseURI",
          "type": "string"
        }
      ],
      "name": "setBaseURI",
      "outputs": [],
      "stateMutability": "nonpayable",
      "type": "function"
    },
    {
      "inputs": [
        {
          "internalType": "bytes4",
          "name": "interfaceId",
          "type": "bytes4"
        }
      ],
      "name": "supportsInterface",
      "outputs": [
        {
          "internalType": "bool",
          "name": "",
          "type": "bool"
        }
      ],
      "stateMutability": "view",
      "type": "function"
    },
    {
      "inputs": [],
      "name": "symbol",
      "outputs": [
        {
          "internalType": "string",
          "name": "",
          "type": "string"
        }
      ],
      "stateMutability": "view",
      "type": "function"
    },
    {
      "inputs": [
        {
          "internalType": "address",
          "name": "owner",
          "type": "address"
        }
      ],
      "name": "tokenListOfOwner",
      "outputs": [
        {
          "internalType": "uint16[]",
          "name": "",
          "type": "uint16[]"
        }
      ],
      "stateMutability": "view",
      "type": "function"
    },
    {
      "inputs": [
        {
          "internalType": "address",
          "name": "owner",
          "type": "address"
        },
        {
          "internalType": "uint256",
          "name": "index",
          "type": "uint256"
        }
      ],
      "name": "tokenOfOwnerByIndex",
      "outputs": [
        {
          "internalType": "uint16",
          "name": "",
          "type": "uint16"
        }
      ],
      "stateMutability": "view",
      "type": "function"
    },
    {
      "inputs": [
        {
          "internalType": "uint256",
          "name": "tokenId",
          "type": "uint256"
        }
      ],
      "name": "tokenURI",
      "outputs": [
        {
          "internalType": "string",
          "name": "",
          "type": "string"
        }
      ],
      "stateMutability": "view",
      "type": "function"
    },
    {
      "inputs": [],
      "name": "tokensBurnt",
      "outputs": [
        {
          "internalType": "uint256",
          "name": "",
          "type": "uint256"
        }
      ],
      "stateMutability": "view",
      "type": "function"
    },
    {
      "inputs": [],
      "name": "tokensMinted",
      "outputs": [
        {
          "internalType": "uint256",
          "name": "",
          "type": "uint256"
        }
      ],
      "stateMutability": "view",
      "type": "function"
    },
    {
      "inputs": [],
      "name": "totalSupply",
      "outputs": [
        {
          "internalType": "uint256",
          "name": "",
          "type": "uint256"
        }
      ],
      "stateMutability": "view",
      "type": "function"
    },
    {
      "inputs": [
        {
          "internalType": "address",
          "name": "from",
          "type": "address"
        },
        {
          "internalType": "address",
          "name": "to",
          "type": "address"
        },
        {
          "internalType": "uint256",
          "name": "tokenId",
          "type": "uint256"
        }
      ],
      "name": "transferFrom",
      "outputs": [],
      "stateMutability": "nonpayable",
      "type": "function"
    },
    {
      "inputs": [
        {
          "internalType": "address",
          "name": "newOwner",
          "type": "address"
        }
      ],
      "name": "transferOwnership",
      "outputs": [],
      "stateMutability": "nonpayable",
      "type": "function"
    }
  ],
  "bytecode": "0x60806040523480156200001157600080fd5b506040518060400160405280601b81526020017f506f6c79446963653a204469636520526f6c6c696e67204461707000000000008152506040518060400160405280600881526020017f506f6c79446963650000000000000000000000000000000000000000000000008152506200009e62000092620000d860201b60201c565b620000e060201b60201c565b8160019080519060200190620000b6929190620001a4565b508060029080519060200190620000cf929190620001a4565b505050620002b9565b600033905090565b60008060009054906101000a900473ffffffffffffffffffffffffffffffffffffffff169050816000806101000a81548173ffffffffffffffffffffffffffffffffffffffff021916908373ffffffffffffffffffffffffffffffffffffffff1602179055508173ffffffffffffffffffffffffffffffffffffffff168173ffffffffffffffffffffffffffffffffffffffff167f8be0079c531659141344cd1fd0a4f28419497f9722a3daafe3b4186f6b6457e060405160405180910390a35050565b828054620001b29062000254565b90600052602060002090601f016020900481019282620001d6576000855562000222565b82601f10620001f157805160ff191683800117855562000222565b8280016001018555821562000222579182015b828111156200022157825182559160200191906001019062000204565b5b50905062000231919062000235565b5090565b5b808211156200025057600081600090555060010162000236565b5090565b600060028204905060018216806200026d57607f821691505b602082108114156200028457620002836200028a565b5b50919050565b7f4e487b7100000000000000000000000000000000000000000000000000000000600052602260045260246000fd5b614adb80620002c96000396000f3fe608060405234801561001057600080fd5b50600436106101a95760003560e01c8063715018a6116100f9578063b0d8b51f11610097578063c87b56dd11610071578063c87b56dd146104e3578063e1dc076114610513578063e985e9c514610545578063f2fde38b14610575576101a9565b8063b0d8b51f1461048b578063b88d4fde146104a9578063c6ead8af146104c5576101a9565b80639a3d406c116100d35780639a3d406c146103de578063a22cb4651461040f578063a689e8c21461042b578063af6f8e7d1461045b576101a9565b8063715018a6146103985780638da5cb5b146103a257806395d89b41146103c0576101a9565b80632f745c59116101665780636352211e116101405780636352211e146102ea5780636618196c1461031a5780636de9f32b1461034a57806370a0823114610368576101a9565b80632f745c591461028257806342842e0e146102b257806355f804b3146102ce576101a9565b806301ffc9a7146101ae57806306fdde03146101de578063081812fc146101fc578063095ea7b31461022c57806318160ddd1461024857806323b872dd14610266575b600080fd5b6101c860048036038101906101c391906133c6565b610591565b6040516101d59190613b5d565b60405180910390f35b6101e6610673565b6040516101f39190613b78565b60405180910390f35b610216600480360381019061021191906134f8565b610705565b6040516102239190613ab2565b60405180910390f35b61024660048036038101906102419190613386565b61078a565b005b6102506108a2565b60405161025d9190613f31565b60405180910390f35b610280600480360381019061027b9190613201565b6108b9565b005b61029c60048036038101906102979190613386565b610919565b6040516102a99190613f16565b60405180910390f35b6102cc60048036038101906102c79190613201565b6109e2565b005b6102e860048036038101906102e39190613420565b610a02565b005b61030460048036038101906102ff91906134f8565b610a94565b6040516103119190613ab2565b60405180910390f35b610334600480360381019061032f9190613194565b610b46565b6040516103419190613b19565b60405180910390f35b610352610c05565b60405161035f9190613f31565b60405180910390f35b610382600480360381019061037d9190613194565b610c0b565b60405161038f9190613f31565b60405180910390f35b6103a0610cc3565b005b6103aa610d4b565b6040516103b79190613ab2565b60405180910390f35b6103c8610d74565b6040516103d59190613b78565b60405180910390f35b6103f860048036038101906103f391906134f8565b610e06565b604051610406929190613b9a565b60405180910390f35b610429600480360381019061042491906132d7565b610e1b565b005b61044560048036038101906104409190613317565b610e31565b6040516104529190613f31565b60405180910390f35b61047560048036038101906104709190613525565b610ef4565b6040516104829190613f4c565b60405180910390f35b610493611002565b6040516104a09190613b3b565b60405180910390f35b6104c360048036038101906104be9190613254565b6110b2565b005b6104cd611114565b6040516104da9190613f31565b60405180910390f35b6104fd60048036038101906104f891906134f8565b61111a565b60405161050a9190613b78565b60405180910390f35b61052d600480360381019061052891906134f8565b6111c1565b60405161053c93929190613bd1565b60405180910390f35b61055f600480360381019061055a91906131c1565b611264565b60405161056c9190613b5d565b60405180910390f35b61058f600480360381019061058a9190613194565b6112f8565b005b60007f80ac58cd000000000000000000000000000000000000000000000000000000007bffffffffffffffffffffffffffffffffffffffffffffffffffffffff1916827bffffffffffffffffffffffffffffffffffffffffffffffffffffffff1916148061065c57507f5b5e139f000000000000000000000000000000000000000000000000000000007bffffffffffffffffffffffffffffffffffffffffffffffffffffffff1916827bffffffffffffffffffffffffffffffffffffffffffffffffffffffff1916145b8061066c575061066b826113f0565b5b9050919050565b6060600180546106829061422f565b80601f01602080910402602001604051908101604052809291908181526020018280546106ae9061422f565b80156106fb5780601f106106d0576101008083540402835291602001916106fb565b820191906000526020600020905b8154815290600101906020018083116106de57829003601f168201915b5050505050905090565b60006107108261145a565b61074f576040517f08c379a000000000000000000000000000000000000000000000000000000000815260040161074690613dd6565b60405180910390fd5b6005600083815260200190815260200160002060009054906101000a900473ffffffffffffffffffffffffffffffffffffffff169050919050565b600061079582610a94565b90508073ffffffffffffffffffffffffffffffffffffffff168373ffffffffffffffffffffffffffffffffffffffff161415610806576040517f08c379a00000000000000000000000000000000000000000000000000000000081526004016107fd90613e56565b60405180910390fd5b8073ffffffffffffffffffffffffffffffffffffffff166108256114c6565b73ffffffffffffffffffffffffffffffffffffffff16148061085457506108538161084e6114c6565b611264565b5b610893576040517f08c379a000000000000000000000000000000000000000000000000000000000815260040161088a90613d56565b60405180910390fd5b61089d83836114ce565b505050565b60006009546008546108b4919061412a565b905090565b6108ca6108c46114c6565b82611587565b610909576040517f08c379a000000000000000000000000000000000000000000000000000000000815260040161090090613e76565b60405180910390fd5b610914838383611665565b505050565b600061092483610c0b565b8210610965576040517f08c379a000000000000000000000000000000000000000000000000000000000815260040161095c90613e36565b60405180910390fd5b600760008473ffffffffffffffffffffffffffffffffffffffff1673ffffffffffffffffffffffffffffffffffffffff16815260200190815260200160002082815481106109b6576109b56143f7565b5b90600052602060002090601091828204019190066002029054906101000a900461ffff16905092915050565b6109fd838383604051806020016040528060008152506110b2565b505050565b610a0a6114c6565b73ffffffffffffffffffffffffffffffffffffffff16610a28610d4b565b73ffffffffffffffffffffffffffffffffffffffff1614610a7e576040517f08c379a0000000000000000000000000000000000000000000000000000000008152600401610a7590613df6565b60405180910390fd5b8181600c9190610a8f929190612e1d565b505050565b6000806003600084815260200190815260200160002060009054906101000a900473ffffffffffffffffffffffffffffffffffffffff169050600073ffffffffffffffffffffffffffffffffffffffff168173ffffffffffffffffffffffffffffffffffffffff161415610b3d576040517f08c379a0000000000000000000000000000000000000000000000000000000008152600401610b3490613d96565b60405180910390fd5b80915050919050565b6060600760008373ffffffffffffffffffffffffffffffffffffffff1673ffffffffffffffffffffffffffffffffffffffff168152602001908152602001600020805480602002602001604051908101604052809291908181526020018280548015610bf957602002820191906000526020600020906000905b82829054906101000a900461ffff1661ffff1681526020019060020190602082600101049283019260010382029150808411610bc05790505b50505050509050919050565b60085481565b60008073ffffffffffffffffffffffffffffffffffffffff168273ffffffffffffffffffffffffffffffffffffffff161415610c7c576040517f08c379a0000000000000000000000000000000000000000000000000000000008152600401610c7390613d76565b60405180910390fd5b600460008373ffffffffffffffffffffffffffffffffffffffff1673ffffffffffffffffffffffffffffffffffffffff168152602001908152602001600020549050919050565b610ccb6114c6565b73ffffffffffffffffffffffffffffffffffffffff16610ce9610d4b565b73ffffffffffffffffffffffffffffffffffffffff1614610d3f576040517f08c379a0000000000000000000000000000000000000000000000000000000008152600401610d3690613df6565b60405180910390fd5b610d4960006118cc565b565b60008060009054906101000a900473ffffffffffffffffffffffffffffffffffffffff16905090565b606060028054610d839061422f565b80601f0160208091040260200160405190810160405280929190818152602001828054610daf9061422f565b8015610dfc5780601f10610dd157610100808354040283529160200191610dfc565b820191906000526020600020905b815481529060010190602001808311610ddf57829003601f168201915b5050505050905090565b606080610e1283611990565b91509150915091565b610e2d610e266114c6565b838361215e565b5050565b6000610e3b6114c6565b73ffffffffffffffffffffffffffffffffffffffff16610e59610d4b565b73ffffffffffffffffffffffffffffffffffffffff1614610eaf576040517f08c379a0000000000000000000000000000000000000000000000000000000008152600401610ea690613df6565b60405180910390fd5b6000610ebb600b6122cb565b9050610ed5848285600a6122d9909392919063ffffffff16565b610edf858261241f565b610ee9600b61243d565b809150509392505050565b6000610eff83610a94565b73ffffffffffffffffffffffffffffffffffffffff163373ffffffffffffffffffffffffffffffffffffffff1614610f6c576040517f08c379a0000000000000000000000000000000000000000000000000000000008152600401610f6390613e96565b60405180910390fd5b600a73__$3b68987207f559b9bfdbbec8c00268de72$__63d20f53f1909185856040518463ffffffff1660e01b8152600401610faa93929190613edf565b60206040518083038186803b158015610fc257600080fd5b505af4158015610fd6573d6000803e3d6000fd5b505050506040513d601f19601f82011682018060405250810190610ffa9190613565565b905092915050565b6060600061100f33610c0b565b905060008167ffffffffffffffff81111561102d5761102c614426565b5b60405190808252806020026020018201604052801561105b5781602001602082028036833780820191505090505b50905060005b828110156110a9576110733382610919565b61ffff1682828151811061108a576110896143f7565b5b60200260200101818152505080806110a190614292565b915050611061565b50809250505090565b6110c36110bd6114c6565b83611587565b611102576040517f08c379a00000000000000000000000000000000000000000000000000000000081526004016110f990613e76565b60405180910390fd5b61110e84848484612453565b50505050565b60095481565b60606111258261145a565b611164576040517f08c379a000000000000000000000000000000000000000000000000000000000815260040161115b90613e16565b60405180910390fd5b600061116e6124af565b9050600081511161118e57604051806020016040528060008152506111b9565b8061119884612541565b6040516020016111a9929190613a8e565b6040516020818303038152906040525b915050919050565b6060806000600a73__$3b68987207f559b9bfdbbec8c00268de72$__6323f5b9fc9091866040518363ffffffff1660e01b8152600401611202929190613eb6565b60006040518083038186803b15801561121a57600080fd5b505af415801561122e573d6000803e3d6000fd5b505050506040513d6000823e3d601f19601f82011682018060405250810190611257919061346d565b9250925092509193909250565b6000600660008473ffffffffffffffffffffffffffffffffffffffff1673ffffffffffffffffffffffffffffffffffffffff16815260200190815260200160002060008373ffffffffffffffffffffffffffffffffffffffff1673ffffffffffffffffffffffffffffffffffffffff16815260200190815260200160002060009054906101000a900460ff16905092915050565b6113006114c6565b73ffffffffffffffffffffffffffffffffffffffff1661131e610d4b565b73ffffffffffffffffffffffffffffffffffffffff1614611374576040517f08c379a000000000000000000000000000000000000000000000000000000000815260040161136b90613df6565b60405180910390fd5b600073ffffffffffffffffffffffffffffffffffffffff168173ffffffffffffffffffffffffffffffffffffffff1614156113e4576040517f08c379a00000000000000000000000000000000000000000000000000000000081526004016113db90613c76565b60405180910390fd5b6113ed816118cc565b50565b60007f01ffc9a7000000000000000000000000000000000000000000000000000000007bffffffffffffffffffffffffffffffffffffffffffffffffffffffff1916827bffffffffffffffffffffffffffffffffffffffffffffffffffffffff1916149050919050565b60008073ffffffffffffffffffffffffffffffffffffffff166003600084815260200190815260200160002060009054906101000a900473ffffffffffffffffffffffffffffffffffffffff1673ffffffffffffffffffffffffffffffffffffffff1614159050919050565b600033905090565b816005600083815260200190815260200160002060006101000a81548173ffffffffffffffffffffffffffffffffffffffff021916908373ffffffffffffffffffffffffffffffffffffffff160217905550808273ffffffffffffffffffffffffffffffffffffffff1661154183610a94565b73ffffffffffffffffffffffffffffffffffffffff167f8c5be1e5ebec7d5bd14f71427d1e84f3dd0314c0f7b2291e5b200ac8c7c3b92560405160405180910390a45050565b60006115928261145a565b6115d1576040517f08c379a00000000000000000000000000000000000000000000000000000000081526004016115c890613d36565b60405180910390fd5b60006115dc83610a94565b90508073ffffffffffffffffffffffffffffffffffffffff168473ffffffffffffffffffffffffffffffffffffffff16148061164b57508373ffffffffffffffffffffffffffffffffffffffff1661163384610705565b73ffffffffffffffffffffffffffffffffffffffff16145b8061165c575061165b8185611264565b5b91505092915050565b8273ffffffffffffffffffffffffffffffffffffffff1661168582610a94565b73ffffffffffffffffffffffffffffffffffffffff16146116db576040517f08c379a00000000000000000000000000000000000000000000000000000000081526004016116d290613c96565b60405180910390fd5b600073ffffffffffffffffffffffffffffffffffffffff168273ffffffffffffffffffffffffffffffffffffffff16141561174b576040517f08c379a000000000000000000000000000000000000000000000000000000000815260040161174290613cf6565b60405180910390fd5b6117568383836126a2565b6117616000826114ce565b6001600460008573ffffffffffffffffffffffffffffffffffffffff1673ffffffffffffffffffffffffffffffffffffffff16815260200190815260200160002060008282546117b1919061412a565b925050819055506001600460008473ffffffffffffffffffffffffffffffffffffffff1673ffffffffffffffffffffffffffffffffffffffff168152602001908152602001600020600082825461180891906140a3565b92505081905550816003600083815260200190815260200160002060006101000a81548173ffffffffffffffffffffffffffffffffffffffff021916908373ffffffffffffffffffffffffffffffffffffffff160217905550808273ffffffffffffffffffffffffffffffffffffffff168473ffffffffffffffffffffffffffffffffffffffff167fddf252ad1be2c89b69c2b068fc378daa952ba7f163c4a11628f55a4df523b3ef60405160405180910390a46118c783838361279a565b505050565b60008060009054906101000a900473ffffffffffffffffffffffffffffffffffffffff169050816000806101000a81548173ffffffffffffffffffffffffffffffffffffffff021916908373ffffffffffffffffffffffffffffffffffffffff1602179055508173ffffffffffffffffffffffffffffffffffffffff168173ffffffffffffffffffffffffffffffffffffffff167f8be0079c531659141344cd1fd0a4f28419497f9722a3daafe3b4186f6b6457e060405160405180910390a35050565b606080601e8311156119d7576040517f08c379a00000000000000000000000000000000000000000000000000000000081526004016119ce90613cd6565b60405180910390fd5b600083101580156119e9575060038311155b15611a2b576040518060400160405280600681526020017f30303133346500000000000000000000000000000000000000000000000000008152509150611e29565b60048310158015611a3d575060078311155b15611a7f576040518060400160405280600681526020017f31613161316100000000000000000000000000000000000000000000000000008152509150611e28565b60088310158015611a915750600a8311155b15611ad3576040518060400160405280600681526020017f66666666666600000000000000000000000000000000000000000000000000008152509150611e27565b600b8310158015611ae55750600d8311155b15611b27576040518060400160405280600681526020017f35353537353300000000000000000000000000000000000000000000000000008152509150611e26565b600e8310158015611b39575060108311155b15611b7b576040518060400160405280600681526020017f38623130643000000000000000000000000000000000000000000000000000008152509150611e25565b60118310158015611b8d575060138311155b15611bcf576040518060400160405280600681526020017f65636463313900000000000000000000000000000000000000000000000000008152509150611e24565b6014831480611bde5750601583145b15611c20576040518060400160405280600681526020017f34303866646400000000000000000000000000000000000000000000000000008152509150611e23565b6016831480611c2f5750601783145b15611c71576040518060400160405280600681526020017f33313761323600000000000000000000000000000000000000000000000000008152509150611e22565b6018831480611c805750601983145b15611cc2576040518060400160405280600681526020017f66323164306100000000000000000000000000000000000000000000000000008152509150611e21565b601a831415611d08576040518060400160405280600681526020017f38386666343400000000000000000000000000000000000000000000000000008152509150611e20565b601b831415611d4e576040518060400160405280600681526020017f64303963313000000000000000000000000000000000000000000000000000008152509150611e1f565b601c831415611d94576040518060400160405280600681526020017f65663534646100000000000000000000000000000000000000000000000000008152509150611e1e565b601d831415611dda576040518060400160405280600681526020017f34653030303000000000000000000000000000000000000000000000000000008152509150611e1d565b601e831415611e1c576040518060400160405280600681526020017f303030306666000000000000000000000000000000000000000000000000000081525091505b5b5b5b5b5b5b5b5b5b5b5b5b5b6000831480611e385750600483145b80611e435750600883145b80611e4e5750601183145b80611e595750601a83145b15611e9b576040518060400160405280600681526020017f30303030666600000000000000000000000000000000000000000000000000008152509050612159565b6001831480611eaa5750600583145b15611eec576040518060400160405280600681526020017f30306666303000000000000000000000000000000000000000000000000000008152509050612158565b6002831480611efb5750600683145b80611f065750600a83145b80611f115750601383145b80611f1c5750601c83145b15611f5e576040518060400160405280600681526020017f66663030303000000000000000000000000000000000000000000000000000008152509050612157565b6003831480611f6d5750600783145b80611f785750600d83145b80611f835750601083145b80611f8e5750601583145b80611f995750601783145b80611fa45750601983145b80611faf5750601d83145b80611fba5750601e83145b15611ffc576040518060400160405280600681526020017f66666666666600000000000000000000000000000000000000000000000000008152509050612156565b600983148061200b5750600b83145b806120165750600e83145b806120215750601283145b8061202c5750601483145b806120375750601b83145b15612079576040518060400160405280600681526020017f30303030303000000000000000000000000000000000000000000000000000008152509050612155565b600c8314806120885750601683145b156120ca576040518060400160405280600681526020017f38386666383800000000000000000000000000000000000000000000000000008152509050612154565b600f831415612110576040518060400160405280600681526020017f36366363363600000000000000000000000000000000000000000000000000008152509050612153565b6018831415612152576040518060400160405280600681526020017f383830303030000000000000000000000000000000000000000000000000000081525090505b5b5b5b5b5b5b5b915091565b8173ffffffffffffffffffffffffffffffffffffffff168373ffffffffffffffffffffffffffffffffffffffff1614156121cd576040517f08c379a00000000000000000000000000000000000000000000000000000000081526004016121c490613d16565b60405180910390fd5b80600660008573ffffffffffffffffffffffffffffffffffffffff1673ffffffffffffffffffffffffffffffffffffffff16815260200190815260200160002060008473ffffffffffffffffffffffffffffffffffffffff1673ffffffffffffffffffffffffffffffffffffffff16815260200190815260200160002060006101000a81548160ff0219169083151502179055508173ffffffffffffffffffffffffffffffffffffffff168373ffffffffffffffffffffffffffffffffffffffff167f17307eab39ab6107e8899845ad3d59bd9653f200f220920489ca2b5937696c31836040516122be9190613b5d565b60405180910390a3505050565b600081600001549050919050565b60008160ff161161231f576040517f08c379a000000000000000000000000000000000000000000000000000000000815260040161231690613c16565b60405180910390fd5b600080600a8360ff1614612334576000612337565b60015b905060405180608001604052808681526020018460ff168152602001821515815260200183600281111561236e5761236d61436a565b5b81525086600001600086815260200190815260200160002060008201518160000190805190602001906123a2929190612ea3565b5060208201518160010160006101000a81548160ff021916908360ff16021790555060408201518160010160016101000a81548160ff02191690831515021790555060608201518160010160026101000a81548160ff0219169083600281111561240f5761240e61436a565b5b0217905550905050505050505050565b61243982826040518060200160405280600081525061279f565b5050565b6001816000016000828254019250508190555050565b61245e848484611665565b61246a848484846127fa565b6124a9576040517f08c379a00000000000000000000000000000000000000000000000000000000081526004016124a090613c56565b60405180910390fd5b50505050565b6060600c80546124be9061422f565b80601f01602080910402602001604051908101604052809291908181526020018280546124ea9061422f565b80156125375780601f1061250c57610100808354040283529160200191612537565b820191906000526020600020905b81548152906001019060200180831161251a57829003601f168201915b5050505050905090565b60606000821415612589576040518060400160405280600181526020017f3000000000000000000000000000000000000000000000000000000000000000815250905061269d565b600082905060005b600082146125bb5780806125a490614292565b915050600a826125b491906140f9565b9150612591565b60008167ffffffffffffffff8111156125d7576125d6614426565b5b6040519080825280601f01601f1916602001820160405280156126095781602001600182028036833780820191505090505b5090505b6000851461269657600182612622919061412a565b9150600a8561263191906142db565b603061263d91906140a3565b60f81b818381518110612653576126526143f7565b5b60200101907effffffffffffffffffffffffffffffffffffffffffffffffffffffffffffff1916908160001a905350600a8561268f91906140f9565b945061260d565b8093505050505b919050565b6126ad838383612991565b8273ffffffffffffffffffffffffffffffffffffffff168273ffffffffffffffffffffffffffffffffffffffff1614612795576126ea8282612996565b600073ffffffffffffffffffffffffffffffffffffffff168373ffffffffffffffffffffffffffffffffffffffff161461272d576127288382612a21565b612746565b6008600081548092919061274090614292565b91905055505b600073ffffffffffffffffffffffffffffffffffffffff168273ffffffffffffffffffffffffffffffffffffffff161415612794576009600081548092919061278e90614292565b91905055505b5b505050565b505050565b6127a98383612c20565b6127b660008484846127fa565b6127f5576040517f08c379a00000000000000000000000000000000000000000000000000000000081526004016127ec90613c56565b60405180910390fd5b505050565b600061281b8473ffffffffffffffffffffffffffffffffffffffff16612dfa565b15612984578373ffffffffffffffffffffffffffffffffffffffff1663150b7a026128446114c6565b8786866040518563ffffffff1660e01b81526004016128669493929190613acd565b602060405180830381600087803b15801561288057600080fd5b505af19250505080156128b157506040513d601f19601f820116820180604052508101906128ae91906133f3565b60015b612934573d80600081146128e1576040519150601f19603f3d011682016040523d82523d6000602084013e6128e6565b606091505b5060008151141561292c576040517f08c379a000000000000000000000000000000000000000000000000000000000815260040161292390613c56565b60405180910390fd5b805181602001fd5b63150b7a0260e01b7bffffffffffffffffffffffffffffffffffffffffffffffffffffffff1916817bffffffffffffffffffffffffffffffffffffffffffffffffffffffff191614915050612989565b600190505b949350505050565b505050565b600760008373ffffffffffffffffffffffffffffffffffffffff1673ffffffffffffffffffffffffffffffffffffffff1681526020019081526020016000208190806001815401808255809150506001900390600052602060002090601091828204019190066002029091909190916101000a81548161ffff021916908361ffff1602179055505050565b6000600760008473ffffffffffffffffffffffffffffffffffffffff1673ffffffffffffffffffffffffffffffffffffffff168152602001908152602001600020905060008180549050905060005b8280549050811015612add578361ffff16838281548110612a9457612a936143f7565b5b90600052602060002090601091828204019190066002029054906101000a900461ffff1661ffff161415612aca57809150612add565b8080612ad590614292565b915050612a70565b5081805490508110612b24576040517f08c379a0000000000000000000000000000000000000000000000000000000008152600401612b1b90613c36565b60405180910390fd5b60008190505b60018380549050612b3b919061412a565b811015612bda5782600182612b5091906140a3565b81548110612b6157612b606143f7565b5b90600052602060002090601091828204019190066002029054906101000a900461ffff16838281548110612b9857612b976143f7565b5b90600052602060002090601091828204019190066002026101000a81548161ffff021916908361ffff1602179055508080612bd290614292565b915050612b2a565b5081805480612bec57612beb6143c8565b5b60019003818190600052602060002090601091828204019190066002026101000a81549061ffff0219169055905550505050565b600073ffffffffffffffffffffffffffffffffffffffff168273ffffffffffffffffffffffffffffffffffffffff161415612c90576040517f08c379a0000000000000000000000000000000000000000000000000000000008152600401612c8790613db6565b60405180910390fd5b612c998161145a565b15612cd9576040517f08c379a0000000000000000000000000000000000000000000000000000000008152600401612cd090613cb6565b60405180910390fd5b612ce5600083836126a2565b6001600460008473ffffffffffffffffffffffffffffffffffffffff1673ffffffffffffffffffffffffffffffffffffffff1681526020019081526020016000206000828254612d3591906140a3565b92505081905550816003600083815260200190815260200160002060006101000a81548173ffffffffffffffffffffffffffffffffffffffff021916908373ffffffffffffffffffffffffffffffffffffffff160217905550808273ffffffffffffffffffffffffffffffffffffffff16600073ffffffffffffffffffffffffffffffffffffffff167fddf252ad1be2c89b69c2b068fc378daa952ba7f163c4a11628f55a4df523b3ef60405160405180910390a4612df66000838361279a565b5050565b6000808273ffffffffffffffffffffffffffffffffffffffff163b119050919050565b828054612e299061422f565b90600052602060002090601f016020900481019282612e4b5760008555612e92565b82601f10612e6457803560ff1916838001178555612e92565b82800160010185558215612e92579182015b82811115612e91578235825591602001919060010190612e76565b5b509050612e9f9190612f29565b5090565b828054612eaf9061422f565b90600052602060002090601f016020900481019282612ed15760008555612f18565b82601f10612eea57805160ff1916838001178555612f18565b82800160010185558215612f18579182015b82811115612f17578251825591602001919060010190612efc565b5b509050612f259190612f29565b5090565b5b80821115612f42576000816000905550600101612f2a565b5090565b6000612f59612f5484613f8c565b613f67565b905082815260208101848484011115612f7557612f74614464565b5b612f808482856141ed565b509392505050565b6000612f9b612f9684613fbd565b613f67565b905082815260208101848484011115612fb757612fb6614464565b5b612fc28482856141ed565b509392505050565b6000612fdd612fd884613fbd565b613f67565b905082815260208101848484011115612ff957612ff8614464565b5b6130048482856141fc565b509392505050565b60008135905061301b81614a1b565b92915050565b60008135905061303081614a32565b92915050565b60008135905061304581614a49565b92915050565b60008151905061305a81614a49565b92915050565b600082601f8301126130755761307461445a565b5b8135613085848260208601612f46565b91505092915050565b60008083601f8401126130a4576130a361445a565b5b8235905067ffffffffffffffff8111156130c1576130c0614455565b5b6020830191508360018202830111156130dd576130dc61445f565b5b9250929050565b600082601f8301126130f9576130f861445a565b5b8135613109848260208601612f88565b91505092915050565b600082601f8301126131275761312661445a565b5b8151613137848260208601612fca565b91505092915050565b60008135905061314f81614a60565b92915050565b60008135905061316481614a77565b92915050565b60008135905061317981614a8e565b92915050565b60008151905061318e81614a8e565b92915050565b6000602082840312156131aa576131a961446e565b5b60006131b88482850161300c565b91505092915050565b600080604083850312156131d8576131d761446e565b5b60006131e68582860161300c565b92505060206131f78582860161300c565b9150509250929050565b60008060006060848603121561321a5761321961446e565b5b60006132288682870161300c565b93505060206132398682870161300c565b925050604061324a86828701613155565b9150509250925092565b6000806000806080858703121561326e5761326d61446e565b5b600061327c8782880161300c565b945050602061328d8782880161300c565b935050604061329e87828801613155565b925050606085013567ffffffffffffffff8111156132bf576132be614469565b5b6132cb87828801613060565b91505092959194509250565b600080604083850312156132ee576132ed61446e565b5b60006132fc8582860161300c565b925050602061330d85828601613021565b9150509250929050565b6000806000606084860312156133305761332f61446e565b5b600061333e8682870161300c565b935050602084013567ffffffffffffffff81111561335f5761335e614469565b5b61336b868287016130e4565b925050604061337c8682870161316a565b9150509250925092565b6000806040838503121561339d5761339c61446e565b5b60006133ab8582860161300c565b92505060206133bc85828601613155565b9150509250929050565b6000602082840312156133dc576133db61446e565b5b60006133ea84828501613036565b91505092915050565b6000602082840312156134095761340861446e565b5b60006134178482850161304b565b91505092915050565b600080602083850312156134375761343661446e565b5b600083013567ffffffffffffffff81111561345557613454614469565b5b6134618582860161308e565b92509250509250929050565b6000806000606084860312156134865761348561446e565b5b600084015167ffffffffffffffff8111156134a4576134a3614469565b5b6134b086828701613112565b935050602084015167ffffffffffffffff8111156134d1576134d0614469565b5b6134dd86828701613112565b92505060406134ee8682870161317f565b9150509250925092565b60006020828403121561350e5761350d61446e565b5b600061351c84828501613155565b91505092915050565b6000806040838503121561353c5761353b61446e565b5b600061354a85828601613155565b925050602061355b85828601613140565b9150509250929050565b60006020828403121561357b5761357a61446e565b5b60006135898482850161317f565b91505092915050565b600061359e8383613a25565b60208301905092915050565b60006135b68383613a52565b60208301905092915050565b6135cb8161415e565b82525050565b60006135dc8261400e565b6135e68185614054565b93506135f183613fee565b8060005b838110156136225781516136098882613592565b97506136148361403a565b9250506001810190506135f5565b5085935050505092915050565b600061363a82614019565b6136448185614065565b935061364f83613ffe565b8060005b8381101561368057815161366788826135aa565b975061367283614047565b925050600181019050613653565b5085935050505092915050565b61369681614170565b82525050565b60006136a782614024565b6136b18185614076565b93506136c18185602086016141fc565b6136ca81614473565b840191505092915050565b60006136e08261402f565b6136ea8185614087565b93506136fa8185602086016141fc565b61370381614473565b840191505092915050565b60006137198261402f565b6137238185614098565b93506137338185602086016141fc565b80840191505092915050565b600061374c601683614087565b915061375782614484565b602082019050919050565b600061376f603783614087565b915061377a826144ad565b604082019050919050565b6000613792603283614087565b915061379d826144fc565b604082019050919050565b60006137b5602683614087565b91506137c08261454b565b604082019050919050565b60006137d8602583614087565b91506137e38261459a565b604082019050919050565b60006137fb601c83614087565b9150613806826145e9565b602082019050919050565b600061381e601283614087565b915061382982614612565b602082019050919050565b6000613841602483614087565b915061384c8261463b565b604082019050919050565b6000613864601983614087565b915061386f8261468a565b602082019050919050565b6000613887602c83614087565b9150613892826146b3565b604082019050919050565b60006138aa603883614087565b91506138b582614702565b604082019050919050565b60006138cd602a83614087565b91506138d882614751565b604082019050919050565b60006138f0602983614087565b91506138fb826147a0565b604082019050919050565b6000613913602083614087565b915061391e826147ef565b602082019050919050565b6000613936602c83614087565b915061394182614818565b604082019050919050565b6000613959602083614087565b915061396482614867565b602082019050919050565b600061397c602f83614087565b915061398782614890565b604082019050919050565b600061399f603183614087565b91506139aa826148df565b604082019050919050565b60006139c2602183614087565b91506139cd8261492e565b604082019050919050565b60006139e5603183614087565b91506139f08261497d565b604082019050919050565b6000613a08603f83614087565b9150613a13826149cc565b604082019050919050565b8082525050565b613a2e816141a8565b82525050565b613a3d816141a8565b82525050565b613a4c816141a8565b82525050565b613a5b816141d6565b82525050565b613a6a816141d6565b82525050565b613a79816141d6565b82525050565b613a88816141e0565b82525050565b6000613a9a828561370e565b9150613aa6828461370e565b91508190509392505050565b6000602082019050613ac760008301846135c2565b92915050565b6000608082019050613ae260008301876135c2565b613aef60208301866135c2565b613afc6040830185613a61565b8181036060830152613b0e818461369c565b905095945050505050565b60006020820190508181036000830152613b3381846135d1565b905092915050565b60006020820190508181036000830152613b55818461362f565b905092915050565b6000602082019050613b72600083018461368d565b92915050565b60006020820190508181036000830152613b9281846136d5565b905092915050565b60006040820190508181036000830152613bb481856136d5565b90508181036020830152613bc881846136d5565b90509392505050565b60006060820190508181036000830152613beb81866136d5565b90508181036020830152613bff81856136d5565b9050613c0e6040830184613a7f565b949350505050565b60006020820190508181036000830152613c2f8161373f565b9050919050565b60006020820190508181036000830152613c4f81613762565b9050919050565b60006020820190508181036000830152613c6f81613785565b9050919050565b60006020820190508181036000830152613c8f816137a8565b9050919050565b60006020820190508181036000830152613caf816137cb565b9050919050565b60006020820190508181036000830152613ccf816137ee565b9050919050565b60006020820190508181036000830152613cef81613811565b9050919050565b60006020820190508181036000830152613d0f81613834565b9050919050565b60006020820190508181036000830152613d2f81613857565b9050919050565b60006020820190508181036000830152613d4f8161387a565b9050919050565b60006020820190508181036000830152613d6f8161389d565b9050919050565b60006020820190508181036000830152613d8f816138c0565b9050919050565b60006020820190508181036000830152613daf816138e3565b9050919050565b60006020820190508181036000830152613dcf81613906565b9050919050565b60006020820190508181036000830152613def81613929565b9050919050565b60006020820190508181036000830152613e0f8161394c565b9050919050565b60006020820190508181036000830152613e2f8161396f565b9050919050565b60006020820190508181036000830152613e4f81613992565b9050919050565b60006020820190508181036000830152613e6f816139b5565b9050919050565b60006020820190508181036000830152613e8f816139d8565b9050919050565b60006020820190508181036000830152613eaf816139fb565b9050919050565b6000604082019050613ecb6000830185613a1e565b613ed86020830184613a70565b9392505050565b6000606082019050613ef46000830186613a1e565b613f016020830185613a70565b613f0e6040830184613a43565b949350505050565b6000602082019050613f2b6000830184613a34565b92915050565b6000602082019050613f466000830184613a61565b92915050565b6000602082019050613f616000830184613a7f565b92915050565b6000613f71613f82565b9050613f7d8282614261565b919050565b6000604051905090565b600067ffffffffffffffff821115613fa757613fa6614426565b5b613fb082614473565b9050602081019050919050565b600067ffffffffffffffff821115613fd857613fd7614426565b5b613fe182614473565b9050602081019050919050565b6000819050602082019050919050565b6000819050602082019050919050565b600081519050919050565b600081519050919050565b600081519050919050565b600081519050919050565b6000602082019050919050565b6000602082019050919050565b600082825260208201905092915050565b600082825260208201905092915050565b600082825260208201905092915050565b600082825260208201905092915050565b600081905092915050565b60006140ae826141d6565b91506140b9836141d6565b9250827fffffffffffffffffffffffffffffffffffffffffffffffffffffffffffffffff038211156140ee576140ed61430c565b5b828201905092915050565b6000614104826141d6565b915061410f836141d6565b92508261411f5761411e61433b565b5b828204905092915050565b6000614135826141d6565b9150614140836141d6565b9250828210156141535761415261430c565b5b828203905092915050565b6000614169826141b6565b9050919050565b60008115159050919050565b60007fffffffff0000000000000000000000000000000000000000000000000000000082169050919050565b600061ffff82169050919050565b600073ffffffffffffffffffffffffffffffffffffffff82169050919050565b6000819050919050565b600060ff82169050919050565b82818337600083830152505050565b60005b8381101561421a5780820151818401526020810190506141ff565b83811115614229576000848401525b50505050565b6000600282049050600182168061424757607f821691505b6020821081141561425b5761425a614399565b5b50919050565b61426a82614473565b810181811067ffffffffffffffff8211171561428957614288614426565b5b80604052505050565b600061429d826141d6565b91507fffffffffffffffffffffffffffffffffffffffffffffffffffffffffffffffff8214156142d0576142cf61430c565b5b600182019050919050565b60006142e6826141d6565b91506142f1836141d6565b9250826143015761430061433b565b5b828206905092915050565b7f4e487b7100000000000000000000000000000000000000000000000000000000600052601160045260246000fd5b7f4e487b7100000000000000000000000000000000000000000000000000000000600052601260045260246000fd5b7f4e487b7100000000000000000000000000000000000000000000000000000000600052602160045260246000fd5b7f4e487b7100000000000000000000000000000000000000000000000000000000600052602260045260246000fd5b7f4e487b7100000000000000000000000000000000000000000000000000000000600052603160045260246000fd5b7f4e487b7100000000000000000000000000000000000000000000000000000000600052603260045260246000fd5b7f4e487b7100000000000000000000000000000000000000000000000000000000600052604160045260246000fd5b600080fd5b600080fd5b600080fd5b600080fd5b600080fd5b600080fd5b6000601f19601f8301169050919050565b7f5369646573206d757374206265206e6f6e2d7a65726f00000000000000000000600082015250565b7f45524337323153696d706c65456e756d657261626c653a20746f6b656e49642060008201527f6e6f7420666f756e6420696e206f776e6572206c697374000000000000000000602082015250565b7f4552433732313a207472616e7366657220746f206e6f6e20455243373231526560008201527f63656976657220696d706c656d656e7465720000000000000000000000000000602082015250565b7f4f776e61626c653a206e6577206f776e657220697320746865207a65726f206160008201527f6464726573730000000000000000000000000000000000000000000000000000602082015250565b7f4552433732313a207472616e736665722066726f6d20696e636f72726563742060008201527f6f776e6572000000000000000000000000000000000000000000000000000000602082015250565b7f4552433732313a20746f6b656e20616c7265616479206d696e74656400000000600082015250565b7f7374796c65206f7574206f662072616e67650000000000000000000000000000600082015250565b7f4552433732313a207472616e7366657220746f20746865207a65726f2061646460008201527f7265737300000000000000000000000000000000000000000000000000000000602082015250565b7f4552433732313a20617070726f766520746f2063616c6c657200000000000000600082015250565b7f4552433732313a206f70657261746f7220717565727920666f72206e6f6e657860008201527f697374656e7420746f6b656e0000000000000000000000000000000000000000602082015250565b7f4552433732313a20617070726f76652063616c6c6572206973206e6f74206f7760008201527f6e6572206e6f7220617070726f76656420666f7220616c6c0000000000000000602082015250565b7f4552433732313a2062616c616e636520717565727920666f7220746865207a6560008201527f726f206164647265737300000000000000000000000000000000000000000000602082015250565b7f4552433732313a206f776e657220717565727920666f72206e6f6e657869737460008201527f656e7420746f6b656e0000000000000000000000000000000000000000000000602082015250565b7f4552433732313a206d696e7420746f20746865207a65726f2061646472657373600082015250565b7f4552433732313a20617070726f76656420717565727920666f72206e6f6e657860008201527f697374656e7420746f6b656e0000000000000000000000000000000000000000602082015250565b7f4f776e61626c653a2063616c6c6572206973206e6f7420746865206f776e6572600082015250565b7f4552433732314d657461646174613a2055524920717565727920666f72206e6f60008201527f6e6578697374656e7420746f6b656e0000000000000000000000000000000000602082015250565b7f45524337323153696d706c65456e756d657261626c653a206f776e657220696e60008201527f646578206f7574206f6620626f756e6473000000000000000000000000000000602082015250565b7f4552433732313a20617070726f76616c20746f2063757272656e74206f776e6560008201527f7200000000000000000000000000000000000000000000000000000000000000602082015250565b7f4552433732313a207472616e736665722063616c6c6572206973206e6f74206f60008201527f776e6572206e6f7220617070726f766564000000000000000000000000000000602082015250565b7f41682041682041682c20796f75206469646e27742073617920746865206d616760008201527f696320776f7264212028546869732069736e277420796f7572204e46542e2900602082015250565b614a248161415e565b8114614a2f57600080fd5b50565b614a3b81614170565b8114614a4657600080fd5b50565b614a528161417c565b8114614a5d57600080fd5b50565b614a69816141a8565b8114614a7457600080fd5b50565b614a80816141d6565b8114614a8b57600080fd5b50565b614a97816141e0565b8114614aa257600080fd5b5056fea2646970667358221220602919cb8134cc7d9d36329629a78ee2af43eb352b1528ed2254e3481323bdf764736f6c63430008060033",
  "linkReferences": {
    "contracts/DiceLibrary.sol": {
      "DiceLibrary": [
        {
          "length": 20,
          "start": 4665
        },
        {
          "length": 20,
          "start": 5267
        }
      ]
    }
  },
  "deployedLinkReferences": {
    "contracts/DiceLibrary.sol": {
      "DiceLibrary": [
        {
          "length": 20,
          "start": 3952
        },
        {
          "length": 20,
          "start": 4554
        }
      ]
    }
  }
}