{
  "_format": "hh-sol-artifact-1",
  "contractName": "TabletopDiceNFT",
  "sourceName": "contracts/Dice.sol",
  "abi": [
    {
      "inputs": [],
      "stateMutability": "nonpayable",
      "type": "constructor"
    },
    {
      "anonymous": false,
      "inputs": [
        {
          "indexed": true,
          "internalType": "address",
          "name": "owner",
          "type": "address"
        },
        {
          "indexed": true,
          "internalType": "address",
          "name": "approved",
          "type": "address"
        },
        {
          "indexed": true,
          "internalType": "uint256",
          "name": "tokenId",
          "type": "uint256"
        }
      ],
      "name": "Approval",
      "type": "event"
    },
    {
      "anonymous": false,
      "inputs": [
        {
          "indexed": true,
          "internalType": "address",
          "name": "owner",
          "type": "address"
        },
        {
          "indexed": true,
          "internalType": "address",
          "name": "operator",
          "type": "address"
        },
        {
          "indexed": false,
          "internalType": "bool",
          "name": "approved",
          "type": "bool"
        }
      ],
      "name": "ApprovalForAll",
      "type": "event"
    },
    {
      "anonymous": false,
      "inputs": [
        {
          "indexed": true,
          "internalType": "address",
          "name": "previousOwner",
          "type": "address"
        },
        {
          "indexed": true,
          "internalType": "address",
          "name": "newOwner",
          "type": "address"
        }
      ],
      "name": "OwnershipTransferred",
      "type": "event"
    },
    {
      "anonymous": false,
      "inputs": [
        {
          "indexed": true,
          "internalType": "address",
          "name": "from",
          "type": "address"
        },
        {
          "indexed": true,
          "internalType": "address",
          "name": "to",
          "type": "address"
        },
        {
          "indexed": true,
          "internalType": "uint256",
          "name": "tokenId",
          "type": "uint256"
        }
      ],
      "name": "Transfer",
      "type": "event"
    },
    {
      "inputs": [
        {
          "internalType": "address",
          "name": "to",
          "type": "address"
        },
        {
          "internalType": "uint256",
          "name": "tokenId",
          "type": "uint256"
        }
      ],
      "name": "approve",
      "outputs": [],
      "stateMutability": "nonpayable",
      "type": "function"
    },
    {
      "inputs": [
        {
          "internalType": "address",
          "name": "owner",
          "type": "address"
        }
      ],
      "name": "balanceOf",
      "outputs": [
        {
          "internalType": "uint256",
          "name": "",
          "type": "uint256"
        }
      ],
      "stateMutability": "view",
      "type": "function"
    },
    {
      "inputs": [
        {
          "internalType": "uint256",
          "name": "tokenId",
          "type": "uint256"
        }
      ],
      "name": "getApproved",
      "outputs": [
        {
          "internalType": "address",
          "name": "",
          "type": "address"
        }
      ],
      "stateMutability": "view",
      "type": "function"
    },
    {
      "inputs": [
        {
          "internalType": "uint8",
          "name": "styleId",
          "type": "uint8"
        }
      ],
      "name": "getColorTheme",
      "outputs": [
        {
          "internalType": "string",
          "name": "foreground",
          "type": "string"
        },
        {
          "internalType": "string",
          "name": "background",
          "type": "string"
        }
      ],
      "stateMutability": "pure",
      "type": "function"
    },
    {
      "inputs": [],
      "name": "getOwnedTokenIds",
      "outputs": [
        {
          "internalType": "uint256[]",
          "name": "",
          "type": "uint256[]"
        }
      ],
      "stateMutability": "view",
      "type": "function"
    },
    {
      "inputs": [
        {
          "internalType": "uint256",
          "name": "tokenId",
          "type": "uint256"
        }
      ],
      "name": "getOwnerOf",
      "outputs": [
        {
          "internalType": "address",
          "name": "",
          "type": "address"
        }
      ],
      "stateMutability": "view",
      "type": "function"
    },
    {
      "inputs": [
        {
          "internalType": "uint256",
          "name": "tokenId",
          "type": "uint256"
        }
      ],
      "name": "getTraits",
      "outputs": [
        {
          "internalType": "string",
          "name": "name",
          "type": "string"
        },
        {
          "internalType": "uint8",
          "name": "sides",
          "type": "uint8"
        },
        {
          "internalType": "string",
          "name": "fgColor",
          "type": "string"
        },
        {
          "internalType": "string",
          "name": "bgColor",
          "type": "string"
        },
        {
          "internalType": "uint8",
          "name": "font",
          "type": "uint8"
        }
      ],
      "stateMutability": "view",
      "type": "function"
    },
    {
      "inputs": [
        {
          "internalType": "address",
          "name": "owner",
          "type": "address"
        },
        {
          "internalType": "address",
          "name": "operator",
          "type": "address"
        }
      ],
      "name": "isApprovedForAll",
      "outputs": [
        {
          "internalType": "bool",
          "name": "",
          "type": "bool"
        }
      ],
      "stateMutability": "view",
      "type": "function"
    },
    {
      "inputs": [
        {
          "internalType": "address",
          "name": "owner",
          "type": "address"
        },
        {
          "internalType": "string",
          "name": "name",
          "type": "string"
        },
        {
          "internalType": "uint8",
          "name": "sides",
          "type": "uint8"
        },
        {
          "internalType": "uint8",
          "name": "styleId",
          "type": "uint8"
        },
        {
          "internalType": "uint8",
          "name": "font",
          "type": "uint8"
        }
      ],
      "name": "mintNFT",
      "outputs": [
        {
          "internalType": "uint256",
          "name": "",
          "type": "uint256"
        }
      ],
      "stateMutability": "nonpayable",
      "type": "function"
    },
    {
      "inputs": [],
      "name": "name",
      "outputs": [
        {
          "internalType": "string",
          "name": "",
          "type": "string"
        }
      ],
      "stateMutability": "view",
      "type": "function"
    },
    {
      "inputs": [],
      "name": "owner",
      "outputs": [
        {
          "internalType": "address",
          "name": "",
          "type": "address"
        }
      ],
      "stateMutability": "view",
      "type": "function"
    },
    {
      "inputs": [
        {
          "internalType": "uint256",
          "name": "tokenId",
          "type": "uint256"
        }
      ],
      "name": "ownerOf",
      "outputs": [
        {
          "internalType": "address",
          "name": "",
          "type": "address"
        }
      ],
      "stateMutability": "view",
      "type": "function"
    },
    {
      "inputs": [],
      "name": "renounceOwnership",
      "outputs": [],
      "stateMutability": "nonpayable",
      "type": "function"
    },
    {
      "inputs": [
        {
          "internalType": "uint256",
          "name": "tokenId",
          "type": "uint256"
        },
        {
          "internalType": "uint16",
          "name": "nonce",
          "type": "uint16"
        }
      ],
      "name": "roll",
      "outputs": [
        {
          "internalType": "uint8",
          "name": "",
          "type": "uint8"
        }
      ],
      "stateMutability": "view",
      "type": "function"
    },
    {
      "inputs": [
        {
          "internalType": "address",
          "name": "from",
          "type": "address"
        },
        {
          "internalType": "address",
          "name": "to",
          "type": "address"
        },
        {
          "internalType": "uint256",
          "name": "tokenId",
          "type": "uint256"
        }
      ],
      "name": "safeTransferFrom",
      "outputs": [],
      "stateMutability": "nonpayable",
      "type": "function"
    },
    {
      "inputs": [
        {
          "internalType": "address",
          "name": "from",
          "type": "address"
        },
        {
          "internalType": "address",
          "name": "to",
          "type": "address"
        },
        {
          "internalType": "uint256",
          "name": "tokenId",
          "type": "uint256"
        },
        {
          "internalType": "bytes",
          "name": "_data",
          "type": "bytes"
        }
      ],
      "name": "safeTransferFrom",
      "outputs": [],
      "stateMutability": "nonpayable",
      "type": "function"
    },
    {
      "inputs": [
        {
          "internalType": "address",
          "name": "operator",
          "type": "address"
        },
        {
          "internalType": "bool",
          "name": "approved",
          "type": "bool"
        }
      ],
      "name": "setApprovalForAll",
      "outputs": [],
      "stateMutability": "nonpayable",
      "type": "function"
    },
    {
      "inputs": [
        {
          "internalType": "string",
          "name": "baseURI",
          "type": "string"
        }
      ],
      "name": "setBaseURI",
      "outputs": [],
      "stateMutability": "nonpayable",
      "type": "function"
    },
    {
      "inputs": [
        {
          "internalType": "bytes4",
          "name": "interfaceId",
          "type": "bytes4"
        }
      ],
      "name": "supportsInterface",
      "outputs": [
        {
          "internalType": "bool",
          "name": "",
          "type": "bool"
        }
      ],
      "stateMutability": "view",
      "type": "function"
    },
    {
      "inputs": [],
      "name": "symbol",
      "outputs": [
        {
          "internalType": "string",
          "name": "",
          "type": "string"
        }
      ],
      "stateMutability": "view",
      "type": "function"
    },
    {
      "inputs": [
        {
          "internalType": "address",
          "name": "owner",
          "type": "address"
        }
      ],
      "name": "tokenListOfOwner",
      "outputs": [
        {
          "internalType": "uint16[]",
          "name": "",
          "type": "uint16[]"
        }
      ],
      "stateMutability": "view",
      "type": "function"
    },
    {
      "inputs": [
        {
          "internalType": "address",
          "name": "owner",
          "type": "address"
        },
        {
          "internalType": "uint256",
          "name": "index",
          "type": "uint256"
        }
      ],
      "name": "tokenOfOwnerByIndex",
      "outputs": [
        {
          "internalType": "uint16",
          "name": "",
          "type": "uint16"
        }
      ],
      "stateMutability": "view",
      "type": "function"
    },
    {
      "inputs": [
        {
          "internalType": "uint256",
          "name": "tokenId",
          "type": "uint256"
        }
      ],
      "name": "tokenURI",
      "outputs": [
        {
          "internalType": "string",
          "name": "",
          "type": "string"
        }
      ],
      "stateMutability": "view",
      "type": "function"
    },
    {
      "inputs": [],
      "name": "tokensBurnt",
      "outputs": [
        {
          "internalType": "uint256",
          "name": "",
          "type": "uint256"
        }
      ],
      "stateMutability": "view",
      "type": "function"
    },
    {
      "inputs": [],
      "name": "tokensMinted",
      "outputs": [
        {
          "internalType": "uint256",
          "name": "",
          "type": "uint256"
        }
      ],
      "stateMutability": "view",
      "type": "function"
    },
    {
      "inputs": [],
      "name": "totalSupply",
      "outputs": [
        {
          "internalType": "uint256",
          "name": "",
          "type": "uint256"
        }
      ],
      "stateMutability": "view",
      "type": "function"
    },
    {
      "inputs": [
        {
          "internalType": "address",
          "name": "from",
          "type": "address"
        },
        {
          "internalType": "address",
          "name": "to",
          "type": "address"
        },
        {
          "internalType": "uint256",
          "name": "tokenId",
          "type": "uint256"
        }
      ],
      "name": "transferFrom",
      "outputs": [],
      "stateMutability": "nonpayable",
      "type": "function"
    },
    {
      "inputs": [
        {
          "internalType": "address",
          "name": "newOwner",
          "type": "address"
        }
      ],
      "name": "transferOwnership",
      "outputs": [],
      "stateMutability": "nonpayable",
      "type": "function"
    }
  ],
  "bytecode": "0x60806040523480156200001157600080fd5b506040518060400160405280601b81526020017f506f6c79446963653a204469636520526f6c6c696e67204461707000000000008152506040518060400160405280600881526020017f506f6c79446963650000000000000000000000000000000000000000000000008152506200009e620000926200012660201b60201c565b6200012e60201b60201c565b8160019080519060200190620000b6929190620001f2565b508060029080519060200190620000cf929190620001f2565b5050506040518060400160405280601a81526020017f68747470733a2f2f646963652e7061727461766174652e636f6d000000000000815250600c90805190602001906200011f929190620001f2565b5062000307565b600033905090565b60008060009054906101000a900473ffffffffffffffffffffffffffffffffffffffff169050816000806101000a81548173ffffffffffffffffffffffffffffffffffffffff021916908373ffffffffffffffffffffffffffffffffffffffff1602179055508173ffffffffffffffffffffffffffffffffffffffff168173ffffffffffffffffffffffffffffffffffffffff167f8be0079c531659141344cd1fd0a4f28419497f9722a3daafe3b4186f6b6457e060405160405180910390a35050565b8280546200020090620002a2565b90600052602060002090601f01602090048101928262000224576000855562000270565b82601f106200023f57805160ff191683800117855562000270565b8280016001018555821562000270579182015b828111156200026f57825182559160200191906001019062000252565b5b5090506200027f919062000283565b5090565b5b808211156200029e57600081600090555060010162000284565b5090565b60006002820490506001821680620002bb57607f821691505b60208210811415620002d257620002d1620002d8565b5b50919050565b7f4e487b7100000000000000000000000000000000000000000000000000000000600052602260045260246000fd5b614dda80620003176000396000f3fe608060405234801561001057600080fd5b50600436106101c45760003560e01c8063715018a6116100f9578063b0d8b51f11610097578063c87b56dd11610071578063c87b56dd1461052e578063e1dc07611461055e578063e985e9c514610592578063f2fde38b146105c2576101c4565b8063b0d8b51f146104d6578063b88d4fde146104f4578063c6ead8af14610510576101c4565b80638da5cb5b116100d35780638da5cb5b1461044e57806395d89b411461046c578063a22cb4651461048a578063af6f8e7d146104a6576101c4565b8063715018a6146103e457806372b22b9d146103ee578063836387101461041e576101c4565b806334c9d34e116101665780636352211e116101405780636352211e146103365780636618196c146103665780636de9f32b1461039657806370a08231146103b4576101c4565b806334c9d34e146102cd57806342842e0e146102fe57806355f804b31461031a576101c4565b8063095ea7b3116101a2578063095ea7b31461024757806318160ddd1461026357806323b872dd146102815780632f745c591461029d576101c4565b806301ffc9a7146101c957806306fdde03146101f9578063081812fc14610217575b600080fd5b6101e360048036038101906101de9190613539565b6105de565b6040516101f09190613e70565b60405180910390f35b6102016106c0565b60405161020e9190613e8b565b60405180910390f35b610231600480360381019061022c91906136af565b610752565b60405161023e9190613dc5565b60405180910390f35b610261600480360381019061025c91906134f9565b6107d7565b005b61026b6108ef565b6040516102789190614247565b60405180910390f35b61029b60048036038101906102969190613349565b610906565b005b6102b760048036038101906102b291906134f9565b610966565b6040516102c4919061422c565b60405180910390f35b6102e760048036038101906102e2919061371c565b610a2f565b6040516102f5929190613ead565b60405180910390f35b61031860048036038101906103139190613349565b610a44565b005b610334600480360381019061032f9190613593565b610a64565b005b610350600480360381019061034b91906136af565b610af6565b60405161035d9190613dc5565b60405180910390f35b610380600480360381019061037b91906132dc565b610ba8565b60405161038d9190613e2c565b60405180910390f35b61039e610c67565b6040516103ab9190614247565b60405180910390f35b6103ce60048036038101906103c991906132dc565b610c6d565b6040516103db9190614247565b60405180910390f35b6103ec610d25565b005b6104086004803603810190610403919061345f565b610dad565b6040516104159190614247565b60405180910390f35b610438600480360381019061043391906136af565b610e79565b6040516104459190613dc5565b60405180910390f35b610456610e8b565b6040516104639190613dc5565b60405180910390f35b610474610eb4565b6040516104819190613e8b565b60405180910390f35b6104a4600480360381019061049f919061341f565b610f46565b005b6104c060048036038101906104bb91906136dc565b610f5c565b6040516104cd9190614262565b60405180910390f35b6104de610ff4565b6040516104eb9190613e4e565b60405180910390f35b61050e6004803603810190610509919061339c565b6110a4565b005b610518611106565b6040516105259190614247565b60405180910390f35b610548600480360381019061054391906136af565b61110c565b6040516105559190613e8b565b60405180910390f35b610578600480360381019061057391906136af565b611199565b604051610589959493929190613ee4565b60405180910390f35b6105ac60048036038101906105a79190613309565b611246565b6040516105b99190613e70565b60405180910390f35b6105dc60048036038101906105d791906132dc565b6112da565b005b60007f80ac58cd000000000000000000000000000000000000000000000000000000007bffffffffffffffffffffffffffffffffffffffffffffffffffffffff1916827bffffffffffffffffffffffffffffffffffffffffffffffffffffffff191614806106a957507f5b5e139f000000000000000000000000000000000000000000000000000000007bffffffffffffffffffffffffffffffffffffffffffffffffffffffff1916827bffffffffffffffffffffffffffffffffffffffffffffffffffffffff1916145b806106b957506106b8826113d2565b5b9050919050565b6060600180546106cf9061455a565b80601f01602080910402602001604051908101604052809291908181526020018280546106fb9061455a565b80156107485780601f1061071d57610100808354040283529160200191610748565b820191906000526020600020905b81548152906001019060200180831161072b57829003601f168201915b5050505050905090565b600061075d8261143c565b61079c576040517f08c379a00000000000000000000000000000000000000000000000000000000081526004016107939061410c565b60405180910390fd5b6005600083815260200190815260200160002060009054906101000a900473ffffffffffffffffffffffffffffffffffffffff169050919050565b60006107e282610af6565b90508073ffffffffffffffffffffffffffffffffffffffff168373ffffffffffffffffffffffffffffffffffffffff161415610853576040517f08c379a000000000000000000000000000000000000000000000000000000000815260040161084a9061418c565b60405180910390fd5b8073ffffffffffffffffffffffffffffffffffffffff166108726114a8565b73ffffffffffffffffffffffffffffffffffffffff1614806108a157506108a08161089b6114a8565b611246565b5b6108e0576040517f08c379a00000000000000000000000000000000000000000000000000000000081526004016108d79061408c565b60405180910390fd5b6108ea83836114b0565b505050565b60006009546008546109019190614455565b905090565b6109176109116114a8565b82611569565b610956576040517f08c379a000000000000000000000000000000000000000000000000000000000815260040161094d906141ac565b60405180910390fd5b610961838383611647565b505050565b600061097183610c6d565b82106109b2576040517f08c379a00000000000000000000000000000000000000000000000000000000081526004016109a99061416c565b60405180910390fd5b600760008473ffffffffffffffffffffffffffffffffffffffff1673ffffffffffffffffffffffffffffffffffffffff1681526020019081526020016000208281548110610a0357610a026146f3565b5b90600052602060002090601091828204019190066002029054906101000a900461ffff16905092915050565b606080610a3b836118ae565b91509150915091565b610a5f838383604051806020016040528060008152506110a4565b505050565b610a6c6114a8565b73ffffffffffffffffffffffffffffffffffffffff16610a8a610e8b565b73ffffffffffffffffffffffffffffffffffffffff1614610ae0576040517f08c379a0000000000000000000000000000000000000000000000000000000008152600401610ad79061412c565b60405180910390fd5b8181600c9190610af1929190612fd5565b505050565b6000806003600084815260200190815260200160002060009054906101000a900473ffffffffffffffffffffffffffffffffffffffff169050600073ffffffffffffffffffffffffffffffffffffffff168173ffffffffffffffffffffffffffffffffffffffff161415610b9f576040517f08c379a0000000000000000000000000000000000000000000000000000000008152600401610b96906140cc565b60405180910390fd5b80915050919050565b6060600760008373ffffffffffffffffffffffffffffffffffffffff1673ffffffffffffffffffffffffffffffffffffffff168152602001908152602001600020805480602002602001604051908101604052809291908181526020018280548015610c5b57602002820191906000526020600020906000905b82829054906101000a900461ffff1661ffff1681526020019060020190602082600101049283019260010382029150808411610c225790505b50505050509050919050565b60085481565b60008073ffffffffffffffffffffffffffffffffffffffff168273ffffffffffffffffffffffffffffffffffffffff161415610cde576040517f08c379a0000000000000000000000000000000000000000000000000000000008152600401610cd5906140ac565b60405180910390fd5b600460008373ffffffffffffffffffffffffffffffffffffffff1673ffffffffffffffffffffffffffffffffffffffff168152602001908152602001600020549050919050565b610d2d6114a8565b73ffffffffffffffffffffffffffffffffffffffff16610d4b610e8b565b73ffffffffffffffffffffffffffffffffffffffff1614610da1576040517f08c379a0000000000000000000000000000000000000000000000000000000008152600401610d989061412c565b60405180910390fd5b610dab6000612121565b565b6000610db76114a8565b73ffffffffffffffffffffffffffffffffffffffff16610dd5610e8b565b73ffffffffffffffffffffffffffffffffffffffff1614610e2b576040517f08c379a0000000000000000000000000000000000000000000000000000000008152600401610e229061412c565b60405180910390fd5b6000610e37600b6121e5565b9050610e57818888888888600a6121f3909695949392919063ffffffff16565b610e61888261238a565b610e6b600b6123a8565b809150509695505050505050565b6000610e8482610af6565b9050919050565b60008060009054906101000a900473ffffffffffffffffffffffffffffffffffffffff16905090565b606060028054610ec39061455a565b80601f0160208091040260200160405190810160405280929190818152602001828054610eef9061455a565b8015610f3c5780601f10610f1157610100808354040283529160200191610f3c565b820191906000526020600020905b815481529060010190602001808311610f1f57829003601f168201915b5050505050905090565b610f58610f516114a8565b83836123be565b5050565b6000600a73__$3b68987207f559b9bfdbbec8c00268de72$__63d20f53f1909185856040518463ffffffff1660e01b8152600401610f9c939291906141f5565b60206040518083038186803b158015610fb457600080fd5b505af4158015610fc8573d6000803e3d6000fd5b505050506040513d601f19601f82011682018060405250810190610fec9190613749565b905092915050565b6060600061100133610c6d565b905060008167ffffffffffffffff81111561101f5761101e614722565b5b60405190808252806020026020018201604052801561104d5781602001602082028036833780820191505090505b50905060005b8281101561109b576110653382610966565b61ffff1682828151811061107c5761107b6146f3565b5b6020026020010181815250508080611093906145bd565b915050611053565b50809250505090565b6110b56110af6114a8565b83611569565b6110f4576040517f08c379a00000000000000000000000000000000000000000000000000000000081526004016110eb906141ac565b60405180910390fd5b6111008484848461252b565b50505050565b60095481565b60606111178261143c565b611156576040517f08c379a000000000000000000000000000000000000000000000000000000000815260040161114d9061414c565b60405180910390fd5b61115e612587565b61117283600a61261990919063ffffffff16565b604051602001611183929190613d14565b6040516020818303038152906040529050919050565b606060006060806000600a73__$3b68987207f559b9bfdbbec8c00268de72$__6323f5b9fc9091886040518363ffffffff1660e01b81526004016111de9291906141cc565b60006040518083038186803b1580156111f657600080fd5b505af415801561120a573d6000803e3d6000fd5b505050506040513d6000823e3d601f19601f8201168201806040525081019061123391906135e0565b9450945094509450945091939590929450565b6000600660008473ffffffffffffffffffffffffffffffffffffffff1673ffffffffffffffffffffffffffffffffffffffff16815260200190815260200160002060008373ffffffffffffffffffffffffffffffffffffffff1673ffffffffffffffffffffffffffffffffffffffff16815260200190815260200160002060009054906101000a900460ff16905092915050565b6112e26114a8565b73ffffffffffffffffffffffffffffffffffffffff16611300610e8b565b73ffffffffffffffffffffffffffffffffffffffff1614611356576040517f08c379a000000000000000000000000000000000000000000000000000000000815260040161134d9061412c565b60405180910390fd5b600073ffffffffffffffffffffffffffffffffffffffff168173ffffffffffffffffffffffffffffffffffffffff1614156113c6576040517f08c379a00000000000000000000000000000000000000000000000000000000081526004016113bd90613fac565b60405180910390fd5b6113cf81612121565b50565b60007f01ffc9a7000000000000000000000000000000000000000000000000000000007bffffffffffffffffffffffffffffffffffffffffffffffffffffffff1916827bffffffffffffffffffffffffffffffffffffffffffffffffffffffff1916149050919050565b60008073ffffffffffffffffffffffffffffffffffffffff166003600084815260200190815260200160002060009054906101000a900473ffffffffffffffffffffffffffffffffffffffff1673ffffffffffffffffffffffffffffffffffffffff1614159050919050565b600033905090565b816005600083815260200190815260200160002060006101000a81548173ffffffffffffffffffffffffffffffffffffffff021916908373ffffffffffffffffffffffffffffffffffffffff160217905550808273ffffffffffffffffffffffffffffffffffffffff1661152383610af6565b73ffffffffffffffffffffffffffffffffffffffff167f8c5be1e5ebec7d5bd14f71427d1e84f3dd0314c0f7b2291e5b200ac8c7c3b92560405160405180910390a45050565b60006115748261143c565b6115b3576040517f08c379a00000000000000000000000000000000000000000000000000000000081526004016115aa9061406c565b60405180910390fd5b60006115be83610af6565b90508073ffffffffffffffffffffffffffffffffffffffff168473ffffffffffffffffffffffffffffffffffffffff16148061162d57508373ffffffffffffffffffffffffffffffffffffffff1661161584610752565b73ffffffffffffffffffffffffffffffffffffffff16145b8061163e575061163d8185611246565b5b91505092915050565b8273ffffffffffffffffffffffffffffffffffffffff1661166782610af6565b73ffffffffffffffffffffffffffffffffffffffff16146116bd576040517f08c379a00000000000000000000000000000000000000000000000000000000081526004016116b490613fcc565b60405180910390fd5b600073ffffffffffffffffffffffffffffffffffffffff168273ffffffffffffffffffffffffffffffffffffffff16141561172d576040517f08c379a00000000000000000000000000000000000000000000000000000000081526004016117249061402c565b60405180910390fd5b6117388383836126f9565b6117436000826114b0565b6001600460008573ffffffffffffffffffffffffffffffffffffffff1673ffffffffffffffffffffffffffffffffffffffff16815260200190815260200160002060008282546117939190614455565b925050819055506001600460008473ffffffffffffffffffffffffffffffffffffffff1673ffffffffffffffffffffffffffffffffffffffff16815260200190815260200160002060008282546117ea91906143ce565b92505081905550816003600083815260200190815260200160002060006101000a81548173ffffffffffffffffffffffffffffffffffffffff021916908373ffffffffffffffffffffffffffffffffffffffff160217905550808273ffffffffffffffffffffffffffffffffffffffff168473ffffffffffffffffffffffffffffffffffffffff167fddf252ad1be2c89b69c2b068fc378daa952ba7f163c4a11628f55a4df523b3ef60405160405180910390a46118a98383836127f1565b505050565b606080601e8360ff1611156118f8576040517f08c379a00000000000000000000000000000000000000000000000000000000081526004016118ef9061400c565b60405180910390fd5b60008360ff1610158015611910575060038360ff1611155b15611952576040518060400160405280600681526020017f30303133346500000000000000000000000000000000000000000000000000008152509050611d8f565b60048360ff161015801561196a575060078360ff1611155b156119ac576040518060400160405280600681526020017f31613161316100000000000000000000000000000000000000000000000000008152509050611d8e565b60088360ff16101580156119c45750600a8360ff1611155b15611a06576040518060400160405280600681526020017f66666666666600000000000000000000000000000000000000000000000000008152509050611d8d565b600b8360ff1610158015611a1e5750600d8360ff1611155b15611a60576040518060400160405280600681526020017f35353537353300000000000000000000000000000000000000000000000000008152509050611d8c565b600e8360ff1610158015611a78575060108360ff1611155b15611aba576040518060400160405280600681526020017f38623130643000000000000000000000000000000000000000000000000000008152509050611d8b565b60118360ff1610158015611ad2575060138360ff1611155b15611b14576040518060400160405280600681526020017f65636463313900000000000000000000000000000000000000000000000000008152509050611d8a565b60148360ff161480611b29575060158360ff16145b15611b6b576040518060400160405280600681526020017f34303866646400000000000000000000000000000000000000000000000000008152509050611d89565b60168360ff161480611b80575060178360ff16145b15611bc2576040518060400160405280600681526020017f33313761323600000000000000000000000000000000000000000000000000008152509050611d88565b60188360ff161480611bd7575060198360ff16145b15611c19576040518060400160405280600681526020017f66323164306100000000000000000000000000000000000000000000000000008152509050611d87565b601a8360ff161415611c62576040518060400160405280600681526020017f38386666343400000000000000000000000000000000000000000000000000008152509050611d86565b601b8360ff161415611cab576040518060400160405280600681526020017f64303963313000000000000000000000000000000000000000000000000000008152509050611d85565b601c8360ff161415611cf4576040518060400160405280600681526020017f65663534646100000000000000000000000000000000000000000000000000008152509050611d84565b601d8360ff161415611d3d576040518060400160405280600681526020017f34653030303000000000000000000000000000000000000000000000000000008152509050611d83565b601e8360ff161415611d82576040518060400160405280600681526020017f303030306666000000000000000000000000000000000000000000000000000081525090505b5b5b5b5b5b5b5b5b5b5b5b5b5b60008360ff161480611da4575060048360ff16145b80611db2575060088360ff16145b80611dc0575060118360ff16145b80611dce5750601a8360ff16145b15611e10576040518060400160405280600681526020017f3030303066660000000000000000000000000000000000000000000000000000815250915061211c565b60018360ff161480611e25575060058360ff16145b15611e67576040518060400160405280600681526020017f3030666630300000000000000000000000000000000000000000000000000000815250915061211b565b60028360ff161480611e7c575060068360ff16145b80611e8a5750600a8360ff16145b80611e98575060138360ff16145b80611ea65750601c8360ff16145b15611ee8576040518060400160405280600681526020017f6666303030300000000000000000000000000000000000000000000000000000815250915061211a565b60038360ff161480611efd575060078360ff16145b80611f0b5750600d8360ff16145b80611f19575060108360ff16145b80611f27575060158360ff16145b80611f35575060178360ff16145b80611f43575060198360ff16145b80611f515750601d8360ff16145b80611f5f5750601e8360ff16145b15611fa1576040518060400160405280600681526020017f66666666666600000000000000000000000000000000000000000000000000008152509150612119565b60098360ff161480611fb65750600b8360ff16145b80611fc45750600e8360ff16145b80611fd2575060128360ff16145b80611fe0575060148360ff16145b80611fee5750601b8360ff16145b15612030576040518060400160405280600681526020017f30303030303000000000000000000000000000000000000000000000000000008152509150612118565b600c8360ff161480612045575060168360ff16145b15612087576040518060400160405280600681526020017f38386666383800000000000000000000000000000000000000000000000000008152509150612117565b600f8360ff1614156120d0576040518060400160405280600681526020017f36366363363600000000000000000000000000000000000000000000000000008152509150612116565b60188360ff161415612115576040518060400160405280600681526020017f383830303030000000000000000000000000000000000000000000000000000081525091505b5b5b5b5b5b5b5b915091565b60008060009054906101000a900473ffffffffffffffffffffffffffffffffffffffff169050816000806101000a81548173ffffffffffffffffffffffffffffffffffffffff021916908373ffffffffffffffffffffffffffffffffffffffff1602179055508173ffffffffffffffffffffffffffffffffffffffff168173ffffffffffffffffffffffffffffffffffffffff167f8be0079c531659141344cd1fd0a4f28419497f9722a3daafe3b4186f6b6457e060405160405180910390a35050565b600081600001549050919050565b60008360ff1611612239576040517f08c379a000000000000000000000000000000000000000000000000000000000815260040161223090613f4c565b60405180910390fd5b6000600a8460ff161461224d576000612250565b60015b90506040518060a0016040528087878080601f016020809104026020016040519081016040528093929190818152602001838380828437600081840152601f19601f8201169050808301925050505050505081526020018560ff1681526020018460ff1681526020018360ff16815260200182151581525088600001600089815260200190815260200160002060008201518160000190805190602001906122f992919061305b565b5060208201518160010160006101000a81548160ff021916908360ff16021790555060408201518160010160016101000a81548160ff021916908360ff16021790555060608201518160010160026101000a81548160ff021916908360ff16021790555060808201518160010160036101000a81548160ff0219169083151502179055509050505050505050505050565b6123a48282604051806020016040528060008152506127f6565b5050565b6001816000016000828254019250508190555050565b8173ffffffffffffffffffffffffffffffffffffffff168373ffffffffffffffffffffffffffffffffffffffff16141561242d576040517f08c379a00000000000000000000000000000000000000000000000000000000081526004016124249061404c565b60405180910390fd5b80600660008573ffffffffffffffffffffffffffffffffffffffff1673ffffffffffffffffffffffffffffffffffffffff16815260200190815260200160002060008473ffffffffffffffffffffffffffffffffffffffff1673ffffffffffffffffffffffffffffffffffffffff16815260200190815260200160002060006101000a81548160ff0219169083151502179055508173ffffffffffffffffffffffffffffffffffffffff168373ffffffffffffffffffffffffffffffffffffffff167f17307eab39ab6107e8899845ad3d59bd9653f200f220920489ca2b5937696c318360405161251e9190613e70565b60405180910390a3505050565b612536848484611647565b61254284848484612851565b612581576040517f08c379a000000000000000000000000000000000000000000000000000000000815260040161257890613f8c565b60405180910390fd5b50505050565b6060600c80546125969061455a565b80601f01602080910402602001604051908101604052809291908181526020018280546125c29061455a565b801561260f5780601f106125e45761010080835404028352916020019161260f565b820191906000526020600020905b8154815290600101906020018083116125f257829003601f168201915b5050505050905090565b606060008061264c85600001600086815260200190815260200160002060010160019054906101000a900460ff166118ae565b9150915084600001600085815260200190815260200160002060000161269986600001600087815260200190815260200160002060010160009054906101000a900460ff1660ff166129e8565b83836126cc8960000160008a815260200190815260200160002060010160029054906101000a900460ff1660ff166129e8565b6040516020016126e0959493929190613d38565b6040516020818303038152906040529250505092915050565b612704838383612b49565b8273ffffffffffffffffffffffffffffffffffffffff168273ffffffffffffffffffffffffffffffffffffffff16146127ec576127418282612b4e565b600073ffffffffffffffffffffffffffffffffffffffff168373ffffffffffffffffffffffffffffffffffffffff16146127845761277f8382612bd9565b61279d565b60086000815480929190612797906145bd565b91905055505b600073ffffffffffffffffffffffffffffffffffffffff168273ffffffffffffffffffffffffffffffffffffffff1614156127eb57600960008154809291906127e5906145bd565b91905055505b5b505050565b505050565b6128008383612dd8565b61280d6000848484612851565b61284c576040517f08c379a000000000000000000000000000000000000000000000000000000000815260040161284390613f8c565b60405180910390fd5b505050565b60006128728473ffffffffffffffffffffffffffffffffffffffff16612fb2565b156129db578373ffffffffffffffffffffffffffffffffffffffff1663150b7a0261289b6114a8565b8786866040518563ffffffff1660e01b81526004016128bd9493929190613de0565b602060405180830381600087803b1580156128d757600080fd5b505af192505050801561290857506040513d601f19601f820116820180604052508101906129059190613566565b60015b61298b573d8060008114612938576040519150601f19603f3d011682016040523d82523d6000602084013e61293d565b606091505b50600081511415612983576040517f08c379a000000000000000000000000000000000000000000000000000000000815260040161297a90613f8c565b60405180910390fd5b805181602001fd5b63150b7a0260e01b7bffffffffffffffffffffffffffffffffffffffffffffffffffffffff1916817bffffffffffffffffffffffffffffffffffffffffffffffffffffffff1916149150506129e0565b600190505b949350505050565b60606000821415612a30576040518060400160405280600181526020017f30000000000000000000000000000000000000000000000000000000000000008152509050612b44565b600082905060005b60008214612a62578080612a4b906145bd565b915050600a82612a5b9190614424565b9150612a38565b60008167ffffffffffffffff811115612a7e57612a7d614722565b5b6040519080825280601f01601f191660200182016040528015612ab05781602001600182028036833780820191505090505b5090505b60008514612b3d57600182612ac99190614455565b9150600a85612ad89190614606565b6030612ae491906143ce565b60f81b818381518110612afa57612af96146f3565b5b60200101907effffffffffffffffffffffffffffffffffffffffffffffffffffffffffffff1916908160001a905350600a85612b369190614424565b9450612ab4565b8093505050505b919050565b505050565b600760008373ffffffffffffffffffffffffffffffffffffffff1673ffffffffffffffffffffffffffffffffffffffff1681526020019081526020016000208190806001815401808255809150506001900390600052602060002090601091828204019190066002029091909190916101000a81548161ffff021916908361ffff1602179055505050565b6000600760008473ffffffffffffffffffffffffffffffffffffffff1673ffffffffffffffffffffffffffffffffffffffff168152602001908152602001600020905060008180549050905060005b8280549050811015612c95578361ffff16838281548110612c4c57612c4b6146f3565b5b90600052602060002090601091828204019190066002029054906101000a900461ffff1661ffff161415612c8257809150612c95565b8080612c8d906145bd565b915050612c28565b5081805490508110612cdc576040517f08c379a0000000000000000000000000000000000000000000000000000000008152600401612cd390613f6c565b60405180910390fd5b60008190505b60018380549050612cf39190614455565b811015612d925782600182612d0891906143ce565b81548110612d1957612d186146f3565b5b90600052602060002090601091828204019190066002029054906101000a900461ffff16838281548110612d5057612d4f6146f3565b5b90600052602060002090601091828204019190066002026101000a81548161ffff021916908361ffff1602179055508080612d8a906145bd565b915050612ce2565b5081805480612da457612da36146c4565b5b60019003818190600052602060002090601091828204019190066002026101000a81549061ffff0219169055905550505050565b600073ffffffffffffffffffffffffffffffffffffffff168273ffffffffffffffffffffffffffffffffffffffff161415612e48576040517f08c379a0000000000000000000000000000000000000000000000000000000008152600401612e3f906140ec565b60405180910390fd5b612e518161143c565b15612e91576040517f08c379a0000000000000000000000000000000000000000000000000000000008152600401612e8890613fec565b60405180910390fd5b612e9d600083836126f9565b6001600460008473ffffffffffffffffffffffffffffffffffffffff1673ffffffffffffffffffffffffffffffffffffffff1681526020019081526020016000206000828254612eed91906143ce565b92505081905550816003600083815260200190815260200160002060006101000a81548173ffffffffffffffffffffffffffffffffffffffff021916908373ffffffffffffffffffffffffffffffffffffffff160217905550808273ffffffffffffffffffffffffffffffffffffffff16600073ffffffffffffffffffffffffffffffffffffffff167fddf252ad1be2c89b69c2b068fc378daa952ba7f163c4a11628f55a4df523b3ef60405160405180910390a4612fae600083836127f1565b5050565b6000808273ffffffffffffffffffffffffffffffffffffffff163b119050919050565b828054612fe19061455a565b90600052602060002090601f016020900481019282613003576000855561304a565b82601f1061301c57803560ff191683800117855561304a565b8280016001018555821561304a579182015b8281111561304957823582559160200191906001019061302e565b5b50905061305791906130e1565b5090565b8280546130679061455a565b90600052602060002090601f01602090048101928261308957600085556130d0565b82601f106130a257805160ff19168380011785556130d0565b828001600101855582156130d0579182015b828111156130cf5782518255916020019190600101906130b4565b5b5090506130dd91906130e1565b5090565b5b808211156130fa5760008160009055506001016130e2565b5090565b600061311161310c846142a2565b61427d565b90508281526020810184848401111561312d5761312c614760565b5b613138848285614518565b509392505050565b600061315361314e846142d3565b61427d565b90508281526020810184848401111561316f5761316e614760565b5b61317a848285614527565b509392505050565b60008135905061319181614d1a565b92915050565b6000813590506131a681614d31565b92915050565b6000813590506131bb81614d48565b92915050565b6000815190506131d081614d48565b92915050565b600082601f8301126131eb576131ea614756565b5b81356131fb8482602086016130fe565b91505092915050565b60008083601f84011261321a57613219614756565b5b8235905067ffffffffffffffff81111561323757613236614751565b5b6020830191508360018202830111156132535761325261475b565b5b9250929050565b600082601f83011261326f5761326e614756565b5b815161327f848260208601613140565b91505092915050565b60008135905061329781614d5f565b92915050565b6000813590506132ac81614d76565b92915050565b6000813590506132c181614d8d565b92915050565b6000815190506132d681614d8d565b92915050565b6000602082840312156132f2576132f161476a565b5b600061330084828501613182565b91505092915050565b600080604083850312156133205761331f61476a565b5b600061332e85828601613182565b925050602061333f85828601613182565b9150509250929050565b6000806000606084860312156133625761336161476a565b5b600061337086828701613182565b935050602061338186828701613182565b92505060406133928682870161329d565b9150509250925092565b600080600080608085870312156133b6576133b561476a565b5b60006133c487828801613182565b94505060206133d587828801613182565b93505060406133e68782880161329d565b925050606085013567ffffffffffffffff81111561340757613406614765565b5b613413878288016131d6565b91505092959194509250565b600080604083850312156134365761343561476a565b5b600061344485828601613182565b925050602061345585828601613197565b9150509250929050565b60008060008060008060a0878903121561347c5761347b61476a565b5b600061348a89828a01613182565b965050602087013567ffffffffffffffff8111156134ab576134aa614765565b5b6134b789828a01613204565b955095505060406134ca89828a016132b2565b93505060606134db89828a016132b2565b92505060806134ec89828a016132b2565b9150509295509295509295565b600080604083850312156135105761350f61476a565b5b600061351e85828601613182565b925050602061352f8582860161329d565b9150509250929050565b60006020828403121561354f5761354e61476a565b5b600061355d848285016131ac565b91505092915050565b60006020828403121561357c5761357b61476a565b5b600061358a848285016131c1565b91505092915050565b600080602083850312156135aa576135a961476a565b5b600083013567ffffffffffffffff8111156135c8576135c7614765565b5b6135d485828601613204565b92509250509250929050565b600080600080600060a086880312156135fc576135fb61476a565b5b600086015167ffffffffffffffff81111561361a57613619614765565b5b6136268882890161325a565b9550506020613637888289016132c7565b945050604086015167ffffffffffffffff81111561365857613657614765565b5b6136648882890161325a565b935050606086015167ffffffffffffffff81111561368557613684614765565b5b6136918882890161325a565b92505060806136a2888289016132c7565b9150509295509295909350565b6000602082840312156136c5576136c461476a565b5b60006136d38482850161329d565b91505092915050565b600080604083850312156136f3576136f261476a565b5b60006137018582860161329d565b925050602061371285828601613288565b9150509250929050565b6000602082840312156137325761373161476a565b5b6000613740848285016132b2565b91505092915050565b60006020828403121561375f5761375e61476a565b5b600061376d848285016132c7565b91505092915050565b60006137828383613cab565b60208301905092915050565b600061379a8383613cd8565b60208301905092915050565b6137af81614489565b82525050565b60006137c082614339565b6137ca818561437f565b93506137d583614304565b8060005b838110156138065781516137ed8882613776565b97506137f883614365565b9250506001810190506137d9565b5085935050505092915050565b600061381e82614344565b6138288185614390565b935061383383614314565b8060005b8381101561386457815161384b888261378e565b975061385683614372565b925050600181019050613837565b5085935050505092915050565b61387a8161449b565b82525050565b600061388b8261434f565b61389581856143a1565b93506138a5818560208601614527565b6138ae8161476f565b840191505092915050565b60006138c48261435a565b6138ce81856143b2565b93506138de818560208601614527565b6138e78161476f565b840191505092915050565b60006138fd8261435a565b61390781856143c3565b9350613917818560208601614527565b80840191505092915050565b600081546139308161455a565b61393a81866143c3565b94506001821660008114613955576001811461396657613999565b60ff19831686528186019350613999565b61396f85614324565b60005b8381101561399157815481890152600182019150602081019050613972565b838801955050505b50505092915050565b60006139af6016836143b2565b91506139ba82614780565b602082019050919050565b60006139d26037836143b2565b91506139dd826147a9565b604082019050919050565b60006139f56032836143b2565b9150613a00826147f8565b604082019050919050565b6000613a186026836143b2565b9150613a2382614847565b604082019050919050565b6000613a3b6025836143b2565b9150613a4682614896565b604082019050919050565b6000613a5e601c836143b2565b9150613a69826148e5565b602082019050919050565b6000613a816012836143b2565b9150613a8c8261490e565b602082019050919050565b6000613aa46009836143c3565b9150613aaf82614937565b600982019050919050565b6000613ac76024836143b2565b9150613ad282614960565b604082019050919050565b6000613aea6019836143b2565b9150613af5826149af565b602082019050919050565b6000613b0d602c836143b2565b9150613b18826149d8565b604082019050919050565b6000613b306038836143b2565b9150613b3b82614a27565b604082019050919050565b6000613b53602a836143b2565b9150613b5e82614a76565b604082019050919050565b6000613b766029836143b2565b9150613b8182614ac5565b604082019050919050565b6000613b996020836143b2565b9150613ba482614b14565b602082019050919050565b6000613bbc602c836143b2565b9150613bc782614b3d565b604082019050919050565b6000613bdf6020836143b2565b9150613bea82614b8c565b602082019050919050565b6000613c02602f836143b2565b9150613c0d82614bb5565b604082019050919050565b6000613c256031836143b2565b9150613c3082614c04565b604082019050919050565b6000613c486021836143b2565b9150613c5382614c53565b604082019050919050565b6000613c6b6031836143b2565b9150613c7682614ca2565b604082019050919050565b6000613c8e6001836143c3565b9150613c9982614cf1565b600182019050919050565b8082525050565b613cb4816144d3565b82525050565b613cc3816144d3565b82525050565b613cd2816144d3565b82525050565b613ce181614501565b82525050565b613cf081614501565b82525050565b613cff81614501565b82525050565b613d0e8161450b565b82525050565b6000613d2082856138f2565b9150613d2c82846138f2565b91508190509392505050565b6000613d4382613a97565b9150613d4e82613c81565b9150613d5a8288613923565b9150613d6582613c81565b9150613d7182876138f2565b9150613d7c82613c81565b9150613d8882866138f2565b9150613d9382613c81565b9150613d9f82856138f2565b9150613daa82613c81565b9150613db682846138f2565b91508190509695505050505050565b6000602082019050613dda60008301846137a6565b92915050565b6000608082019050613df560008301876137a6565b613e0260208301866137a6565b613e0f6040830185613ce7565b8181036060830152613e218184613880565b905095945050505050565b60006020820190508181036000830152613e4681846137b5565b905092915050565b60006020820190508181036000830152613e688184613813565b905092915050565b6000602082019050613e856000830184613871565b92915050565b60006020820190508181036000830152613ea581846138b9565b905092915050565b60006040820190508181036000830152613ec781856138b9565b90508181036020830152613edb81846138b9565b90509392505050565b600060a0820190508181036000830152613efe81886138b9565b9050613f0d6020830187613d05565b8181036040830152613f1f81866138b9565b90508181036060830152613f3381856138b9565b9050613f426080830184613d05565b9695505050505050565b60006020820190508181036000830152613f65816139a2565b9050919050565b60006020820190508181036000830152613f85816139c5565b9050919050565b60006020820190508181036000830152613fa5816139e8565b9050919050565b60006020820190508181036000830152613fc581613a0b565b9050919050565b60006020820190508181036000830152613fe581613a2e565b9050919050565b6000602082019050818103600083015261400581613a51565b9050919050565b6000602082019050818103600083015261402581613a74565b9050919050565b6000602082019050818103600083015261404581613aba565b9050919050565b6000602082019050818103600083015261406581613add565b9050919050565b6000602082019050818103600083015261408581613b00565b9050919050565b600060208201905081810360008301526140a581613b23565b9050919050565b600060208201905081810360008301526140c581613b46565b9050919050565b600060208201905081810360008301526140e581613b69565b9050919050565b6000602082019050818103600083015261410581613b8c565b9050919050565b6000602082019050818103600083015261412581613baf565b9050919050565b6000602082019050818103600083015261414581613bd2565b9050919050565b6000602082019050818103600083015261416581613bf5565b9050919050565b6000602082019050818103600083015261418581613c18565b9050919050565b600060208201905081810360008301526141a581613c3b565b9050919050565b600060208201905081810360008301526141c581613c5e565b9050919050565b60006040820190506141e16000830185613ca4565b6141ee6020830184613cf6565b9392505050565b600060608201905061420a6000830186613ca4565b6142176020830185613cf6565b6142246040830184613cc9565b949350505050565b60006020820190506142416000830184613cba565b92915050565b600060208201905061425c6000830184613ce7565b92915050565b60006020820190506142776000830184613d05565b92915050565b6000614287614298565b9050614293828261458c565b919050565b6000604051905090565b600067ffffffffffffffff8211156142bd576142bc614722565b5b6142c68261476f565b9050602081019050919050565b600067ffffffffffffffff8211156142ee576142ed614722565b5b6142f78261476f565b9050602081019050919050565b6000819050602082019050919050565b6000819050602082019050919050565b60008190508160005260206000209050919050565b600081519050919050565b600081519050919050565b600081519050919050565b600081519050919050565b6000602082019050919050565b6000602082019050919050565b600082825260208201905092915050565b600082825260208201905092915050565b600082825260208201905092915050565b600082825260208201905092915050565b600081905092915050565b60006143d982614501565b91506143e483614501565b9250827fffffffffffffffffffffffffffffffffffffffffffffffffffffffffffffffff0382111561441957614418614637565b5b828201905092915050565b600061442f82614501565b915061443a83614501565b92508261444a57614449614666565b5b828204905092915050565b600061446082614501565b915061446b83614501565b92508282101561447e5761447d614637565b5b828203905092915050565b6000614494826144e1565b9050919050565b60008115159050919050565b60007fffffffff0000000000000000000000000000000000000000000000000000000082169050919050565b600061ffff82169050919050565b600073ffffffffffffffffffffffffffffffffffffffff82169050919050565b6000819050919050565b600060ff82169050919050565b82818337600083830152505050565b60005b8381101561454557808201518184015260208101905061452a565b83811115614554576000848401525b50505050565b6000600282049050600182168061457257607f821691505b6020821081141561458657614585614695565b5b50919050565b6145958261476f565b810181811067ffffffffffffffff821117156145b4576145b3614722565b5b80604052505050565b60006145c882614501565b91507fffffffffffffffffffffffffffffffffffffffffffffffffffffffffffffffff8214156145fb576145fa614637565b5b600182019050919050565b600061461182614501565b915061461c83614501565b92508261462c5761462b614666565b5b828206905092915050565b7f4e487b7100000000000000000000000000000000000000000000000000000000600052601160045260246000fd5b7f4e487b7100000000000000000000000000000000000000000000000000000000600052601260045260246000fd5b7f4e487b7100000000000000000000000000000000000000000000000000000000600052602260045260246000fd5b7f4e487b7100000000000000000000000000000000000000000000000000000000600052603160045260246000fd5b7f4e487b7100000000000000000000000000000000000000000000000000000000600052603260045260246000fd5b7f4e487b7100000000000000000000000000000000000000000000000000000000600052604160045260246000fd5b600080fd5b600080fd5b600080fd5b600080fd5b600080fd5b600080fd5b6000601f19601f8301169050919050565b7f5369646573206d757374206265206e6f6e2d7a65726f00000000000000000000600082015250565b7f45524337323153696d706c65456e756d657261626c653a20746f6b656e49642060008201527f6e6f7420666f756e6420696e206f776e6572206c697374000000000000000000602082015250565b7f4552433732313a207472616e7366657220746f206e6f6e20455243373231526560008201527f63656976657220696d706c656d656e7465720000000000000000000000000000602082015250565b7f4f776e61626c653a206e6577206f776e657220697320746865207a65726f206160008201527f6464726573730000000000000000000000000000000000000000000000000000602082015250565b7f4552433732313a207472616e736665722066726f6d20696e636f72726563742060008201527f6f776e6572000000000000000000000000000000000000000000000000000000602082015250565b7f4552433732313a20746f6b656e20616c7265616479206d696e74656400000000600082015250565b7f7374796c65206f7574206f662072616e67650000000000000000000000000000600082015250565b7f2f6d657461646174610000000000000000000000000000000000000000000000600082015250565b7f4552433732313a207472616e7366657220746f20746865207a65726f2061646460008201527f7265737300000000000000000000000000000000000000000000000000000000602082015250565b7f4552433732313a20617070726f766520746f2063616c6c657200000000000000600082015250565b7f4552433732313a206f70657261746f7220717565727920666f72206e6f6e657860008201527f697374656e7420746f6b656e0000000000000000000000000000000000000000602082015250565b7f4552433732313a20617070726f76652063616c6c6572206973206e6f74206f7760008201527f6e6572206e6f7220617070726f76656420666f7220616c6c0000000000000000602082015250565b7f4552433732313a2062616c616e636520717565727920666f7220746865207a6560008201527f726f206164647265737300000000000000000000000000000000000000000000602082015250565b7f4552433732313a206f776e657220717565727920666f72206e6f6e657869737460008201527f656e7420746f6b656e0000000000000000000000000000000000000000000000602082015250565b7f4552433732313a206d696e7420746f20746865207a65726f2061646472657373600082015250565b7f4552433732313a20617070726f76656420717565727920666f72206e6f6e657860008201527f697374656e7420746f6b656e0000000000000000000000000000000000000000602082015250565b7f4f776e61626c653a2063616c6c6572206973206e6f7420746865206f776e6572600082015250565b7f4552433732314d657461646174613a2055524920717565727920666f72206e6f60008201527f6e6578697374656e7420746f6b656e0000000000000000000000000000000000602082015250565b7f45524337323153696d706c65456e756d657261626c653a206f776e657220696e60008201527f646578206f7574206f6620626f756e6473000000000000000000000000000000602082015250565b7f4552433732313a20617070726f76616c20746f2063757272656e74206f776e6560008201527f7200000000000000000000000000000000000000000000000000000000000000602082015250565b7f4552433732313a207472616e736665722063616c6c6572206973206e6f74206f60008201527f776e6572206e6f7220617070726f766564000000000000000000000000000000602082015250565b7f2f00000000000000000000000000000000000000000000000000000000000000600082015250565b614d2381614489565b8114614d2e57600080fd5b50565b614d3a8161449b565b8114614d4557600080fd5b50565b614d51816144a7565b8114614d5c57600080fd5b50565b614d68816144d3565b8114614d7357600080fd5b50565b614d7f81614501565b8114614d8a57600080fd5b50565b614d968161450b565b8114614da157600080fd5b5056fea2646970667358221220064f4cce39918e2dab5572a8b9fccce5e2a498935ffb00fce9b098aee165e7de64736f6c63430008060033",
  "linkReferences": {
    "contracts/DiceLibrary.sol": {
      "DiceLibrary": [
        {
          "length": 20,
          "start": 4729
        },
        {
          "length": 20,
          "start": 5309
        }
      ]
    }
  },
  "deployedLinkReferences": {
    "contracts/DiceLibrary.sol": {
      "DiceLibrary": [
        {
          "length": 20,
          "start": 3938
        },
        {
          "length": 20,
          "start": 4518
        }
      ]
    }
  }
}