{
  "_format": "hh-sol-artifact-1",
  "contractName": "TabletopDiceNFT",
  "sourceName": "contracts/Dice.sol",
  "abi": [
    {
      "inputs": [
        {
          "internalType": "string[]",
          "name": "adjectives",
          "type": "string[]"
        },
        {
          "internalType": "string[]",
          "name": "nouns",
          "type": "string[]"
        }
      ],
      "stateMutability": "nonpayable",
      "type": "constructor"
    },
    {
      "anonymous": false,
      "inputs": [
        {
          "indexed": true,
          "internalType": "address",
          "name": "owner",
          "type": "address"
        },
        {
          "indexed": true,
          "internalType": "address",
          "name": "approved",
          "type": "address"
        },
        {
          "indexed": true,
          "internalType": "uint256",
          "name": "tokenId",
          "type": "uint256"
        }
      ],
      "name": "Approval",
      "type": "event"
    },
    {
      "anonymous": false,
      "inputs": [
        {
          "indexed": true,
          "internalType": "address",
          "name": "owner",
          "type": "address"
        },
        {
          "indexed": true,
          "internalType": "address",
          "name": "operator",
          "type": "address"
        },
        {
          "indexed": false,
          "internalType": "bool",
          "name": "approved",
          "type": "bool"
        }
      ],
      "name": "ApprovalForAll",
      "type": "event"
    },
    {
      "anonymous": false,
      "inputs": [
        {
          "indexed": true,
          "internalType": "address",
          "name": "previousOwner",
          "type": "address"
        },
        {
          "indexed": true,
          "internalType": "address",
          "name": "newOwner",
          "type": "address"
        }
      ],
      "name": "OwnershipTransferred",
      "type": "event"
    },
    {
      "anonymous": false,
      "inputs": [
        {
          "indexed": true,
          "internalType": "address",
          "name": "from",
          "type": "address"
        },
        {
          "indexed": true,
          "internalType": "address",
          "name": "to",
          "type": "address"
        },
        {
          "indexed": true,
          "internalType": "uint256",
          "name": "tokenId",
          "type": "uint256"
        }
      ],
      "name": "Transfer",
      "type": "event"
    },
    {
      "inputs": [
        {
          "internalType": "uint8",
          "name": "sides",
          "type": "uint8"
        }
      ],
      "name": "addPossibleSides",
      "outputs": [],
      "stateMutability": "nonpayable",
      "type": "function"
    },
    {
      "inputs": [
        {
          "internalType": "string[]",
          "name": "adjectives",
          "type": "string[]"
        },
        {
          "internalType": "string[]",
          "name": "nouns",
          "type": "string[]"
        }
      ],
      "name": "addWords",
      "outputs": [],
      "stateMutability": "nonpayable",
      "type": "function"
    },
    {
      "inputs": [
        {
          "internalType": "address",
          "name": "to",
          "type": "address"
        },
        {
          "internalType": "uint256",
          "name": "tokenId",
          "type": "uint256"
        }
      ],
      "name": "approve",
      "outputs": [],
      "stateMutability": "nonpayable",
      "type": "function"
    },
    {
      "inputs": [
        {
          "internalType": "address",
          "name": "owner",
          "type": "address"
        }
      ],
      "name": "balanceOf",
      "outputs": [
        {
          "internalType": "uint256",
          "name": "",
          "type": "uint256"
        }
      ],
      "stateMutability": "view",
      "type": "function"
    },
    {
      "inputs": [
        {
          "internalType": "uint8",
          "name": "count",
          "type": "uint8"
        }
      ],
      "name": "buyRandomDice",
      "outputs": [],
      "stateMutability": "payable",
      "type": "function"
    },
    {
      "inputs": [
        {
          "internalType": "uint256",
          "name": "tokenId",
          "type": "uint256"
        }
      ],
      "name": "getApproved",
      "outputs": [
        {
          "internalType": "address",
          "name": "",
          "type": "address"
        }
      ],
      "stateMutability": "view",
      "type": "function"
    },
    {
      "inputs": [],
      "name": "getMintingCost",
      "outputs": [
        {
          "internalType": "uint256",
          "name": "cost",
          "type": "uint256"
        }
      ],
      "stateMutability": "view",
      "type": "function"
    },
    {
      "inputs": [],
      "name": "getOwnedTokenIds",
      "outputs": [
        {
          "internalType": "uint256[]",
          "name": "",
          "type": "uint256[]"
        }
      ],
      "stateMutability": "view",
      "type": "function"
    },
    {
      "inputs": [
        {
          "internalType": "uint256",
          "name": "tokenId",
          "type": "uint256"
        },
        {
          "internalType": "uint16",
          "name": "nonce",
          "type": "uint16"
        }
      ],
      "name": "getRoll",
      "outputs": [
        {
          "internalType": "uint8",
          "name": "",
          "type": "uint8"
        }
      ],
      "stateMutability": "view",
      "type": "function"
    },
    {
      "inputs": [
        {
          "internalType": "uint256",
          "name": "tokenId",
          "type": "uint256"
        }
      ],
      "name": "getTraits",
      "outputs": [
        {
          "internalType": "string",
          "name": "name",
          "type": "string"
        },
        {
          "internalType": "uint8",
          "name": "sides",
          "type": "uint8"
        },
        {
          "internalType": "string",
          "name": "fgColor",
          "type": "string"
        },
        {
          "internalType": "string",
          "name": "bgColor",
          "type": "string"
        },
        {
          "internalType": "uint8",
          "name": "font",
          "type": "uint8"
        }
      ],
      "stateMutability": "view",
      "type": "function"
    },
    {
      "inputs": [
        {
          "internalType": "address",
          "name": "owner",
          "type": "address"
        },
        {
          "internalType": "address",
          "name": "operator",
          "type": "address"
        }
      ],
      "name": "isApprovedForAll",
      "outputs": [
        {
          "internalType": "bool",
          "name": "",
          "type": "bool"
        }
      ],
      "stateMutability": "view",
      "type": "function"
    },
    {
      "inputs": [
        {
          "internalType": "string",
          "name": "name",
          "type": "string"
        },
        {
          "internalType": "uint8",
          "name": "sides",
          "type": "uint8"
        },
        {
          "internalType": "uint8",
          "name": "styleId",
          "type": "uint8"
        },
        {
          "internalType": "uint8",
          "name": "font",
          "type": "uint8"
        },
        {
          "internalType": "address",
          "name": "reciever",
          "type": "address"
        }
      ],
      "name": "mintDie",
      "outputs": [
        {
          "internalType": "uint256",
          "name": "tokenId",
          "type": "uint256"
        }
      ],
      "stateMutability": "nonpayable",
      "type": "function"
    },
    {
      "inputs": [
        {
          "internalType": "uint8",
          "name": "count",
          "type": "uint8"
        },
        {
          "internalType": "address",
          "name": "reciever",
          "type": "address"
        }
      ],
      "name": "mintRandomDice",
      "outputs": [],
      "stateMutability": "nonpayable",
      "type": "function"
    },
    {
      "inputs": [
        {
          "internalType": "address",
          "name": "reciever",
          "type": "address"
        }
      ],
      "name": "mintRandomDie",
      "outputs": [
        {
          "internalType": "uint256",
          "name": "tokenId",
          "type": "uint256"
        }
      ],
      "stateMutability": "nonpayable",
      "type": "function"
    },
    {
      "inputs": [],
      "name": "name",
      "outputs": [
        {
          "internalType": "string",
          "name": "",
          "type": "string"
        }
      ],
      "stateMutability": "view",
      "type": "function"
    },
    {
      "inputs": [],
      "name": "owner",
      "outputs": [
        {
          "internalType": "address",
          "name": "",
          "type": "address"
        }
      ],
      "stateMutability": "view",
      "type": "function"
    },
    {
      "inputs": [
        {
          "internalType": "uint256",
          "name": "tokenId",
          "type": "uint256"
        }
      ],
      "name": "ownerOf",
      "outputs": [
        {
          "internalType": "address",
          "name": "",
          "type": "address"
        }
      ],
      "stateMutability": "view",
      "type": "function"
    },
    {
      "inputs": [],
      "name": "renounceOwnership",
      "outputs": [],
      "stateMutability": "nonpayable",
      "type": "function"
    },
    {
      "inputs": [
        {
          "internalType": "address",
          "name": "from",
          "type": "address"
        },
        {
          "internalType": "address",
          "name": "to",
          "type": "address"
        },
        {
          "internalType": "uint256",
          "name": "tokenId",
          "type": "uint256"
        }
      ],
      "name": "safeTransferFrom",
      "outputs": [],
      "stateMutability": "nonpayable",
      "type": "function"
    },
    {
      "inputs": [
        {
          "internalType": "address",
          "name": "from",
          "type": "address"
        },
        {
          "internalType": "address",
          "name": "to",
          "type": "address"
        },
        {
          "internalType": "uint256",
          "name": "tokenId",
          "type": "uint256"
        },
        {
          "internalType": "bytes",
          "name": "_data",
          "type": "bytes"
        }
      ],
      "name": "safeTransferFrom",
      "outputs": [],
      "stateMutability": "nonpayable",
      "type": "function"
    },
    {
      "inputs": [
        {
          "internalType": "address payable",
          "name": "newReciver",
          "type": "address"
        }
      ],
      "name": "setAccountsRecievable",
      "outputs": [],
      "stateMutability": "nonpayable",
      "type": "function"
    },
    {
      "inputs": [
        {
          "internalType": "address",
          "name": "operator",
          "type": "address"
        },
        {
          "internalType": "bool",
          "name": "approved",
          "type": "bool"
        }
      ],
      "name": "setApprovalForAll",
      "outputs": [],
      "stateMutability": "nonpayable",
      "type": "function"
    },
    {
      "inputs": [
        {
          "internalType": "string",
          "name": "baseURI",
          "type": "string"
        }
      ],
      "name": "setBaseURI",
      "outputs": [],
      "stateMutability": "nonpayable",
      "type": "function"
    },
    {
      "inputs": [
        {
          "internalType": "uint256",
          "name": "newCost",
          "type": "uint256"
        }
      ],
      "name": "setDiePrice",
      "outputs": [],
      "stateMutability": "nonpayable",
      "type": "function"
    },
    {
      "inputs": [
        {
          "internalType": "bytes4",
          "name": "interfaceId",
          "type": "bytes4"
        }
      ],
      "name": "supportsInterface",
      "outputs": [
        {
          "internalType": "bool",
          "name": "",
          "type": "bool"
        }
      ],
      "stateMutability": "view",
      "type": "function"
    },
    {
      "inputs": [],
      "name": "symbol",
      "outputs": [
        {
          "internalType": "string",
          "name": "",
          "type": "string"
        }
      ],
      "stateMutability": "view",
      "type": "function"
    },
    {
      "inputs": [
        {
          "internalType": "address",
          "name": "owner",
          "type": "address"
        }
      ],
      "name": "tokenListOfOwner",
      "outputs": [
        {
          "internalType": "uint16[]",
          "name": "",
          "type": "uint16[]"
        }
      ],
      "stateMutability": "view",
      "type": "function"
    },
    {
      "inputs": [
        {
          "internalType": "address",
          "name": "owner",
          "type": "address"
        },
        {
          "internalType": "uint256",
          "name": "index",
          "type": "uint256"
        }
      ],
      "name": "tokenOfOwnerByIndex",
      "outputs": [
        {
          "internalType": "uint16",
          "name": "",
          "type": "uint16"
        }
      ],
      "stateMutability": "view",
      "type": "function"
    },
    {
      "inputs": [
        {
          "internalType": "uint256",
          "name": "tokenId",
          "type": "uint256"
        }
      ],
      "name": "tokenURI",
      "outputs": [
        {
          "internalType": "string",
          "name": "",
          "type": "string"
        }
      ],
      "stateMutability": "view",
      "type": "function"
    },
    {
      "inputs": [],
      "name": "tokensBurnt",
      "outputs": [
        {
          "internalType": "uint256",
          "name": "",
          "type": "uint256"
        }
      ],
      "stateMutability": "view",
      "type": "function"
    },
    {
      "inputs": [],
      "name": "tokensMinted",
      "outputs": [
        {
          "internalType": "uint256",
          "name": "",
          "type": "uint256"
        }
      ],
      "stateMutability": "view",
      "type": "function"
    },
    {
      "inputs": [],
      "name": "totalSupply",
      "outputs": [
        {
          "internalType": "uint256",
          "name": "",
          "type": "uint256"
        }
      ],
      "stateMutability": "view",
      "type": "function"
    },
    {
      "inputs": [
        {
          "internalType": "address",
          "name": "from",
          "type": "address"
        },
        {
          "internalType": "address",
          "name": "to",
          "type": "address"
        },
        {
          "internalType": "uint256",
          "name": "tokenId",
          "type": "uint256"
        }
      ],
      "name": "transferFrom",
      "outputs": [],
      "stateMutability": "nonpayable",
      "type": "function"
    },
    {
      "inputs": [
        {
          "internalType": "address",
          "name": "newOwner",
          "type": "address"
        }
      ],
      "name": "transferOwnership",
      "outputs": [],
      "stateMutability": "nonpayable",
      "type": "function"
    }
  ],
  "bytecode": "0x60c06040526005608081905264181719171960d91b60a0908152620000289160019190620003bd565b506702669e955a248000600b553480156200004257600080fd5b50604051620044613803806200446183398101604081905262000065916200058c565b6001604051602001620000799190620005f6565b60408051808303601f190181528282019091526008825267506f6c794469636560c01b602083015290620000ad33620001d6565b8151620000c2906002906020850190620003bd565b508051620000d8906003906020840190620003bd565b505060408051808201909152601a8082527f68747470733a2f2f646963652e7061727461766174652e636f6d000000000000602090920191825262000122925060159190620003bd565b50600c80546001600160a01b0319163317905562000141828262000226565b5050600f805460018181018355600083905260208083047f8d1108e10bcb7c27dddfc02ed9d693a074039d026cf4ea4240b40f7d581ac8029081018054601f95861661010090810a6006810260ff9182021990931692909217909255865494850190965591830401805492909316900a60148102930219169190911790556010805461011e61ffff1990911617905562000781565b600080546001600160a01b038381166001600160a01b0319831681178455604051919092169283917f8be0079c531659141344cd1fd0a4f28419497f9722a3daafe3b4186f6b6457e09190a35050565b6000546001600160a01b03163314620002855760405162461bcd60e51b815260206004820181905260248201527f4f776e61626c653a2063616c6c6572206973206e6f7420746865206f776e6572604482015260640160405180910390fd5b60005b8251811015620002de57620002c9838281518110620002ab57620002ab62000755565b602002602001015160116200033d60201b620016881790919060201c565b80620002d5816200072b565b91505062000288565b5060005b815181101562000338576200032382828151811062000305576200030562000755565b602002602001015160116200035e60201b620016921790919060201c565b806200032f816200072b565b915050620002e2565b505050565b6200035a81836000016200037b60201b6200169b1790919060201c565b5050565b6200035a81836002016200037b60201b6200169b1790919060201c565b600182015460009081526020838152604090912082516200039f92840190620003bd565b50600182018054906000620003b4836200072b565b91905055505050565b828054620003cb90620006ee565b90600052602060002090601f016020900481019282620003ef57600085556200043a565b82601f106200040a57805160ff19168380011785556200043a565b828001600101855582156200043a579182015b828111156200043a5782518255916020019190600101906200041d565b50620004489291506200044c565b5090565b5b808211156200044857600081556001016200044d565b6000601f83818401126200047657600080fd5b825160206001600160401b03808311156200049557620004956200076b565b8260051b620004a6838201620006bb565b84815283810190888501838a0186018b1015620004c257600080fd5b600093505b868410156200057e57805185811115620004e057600080fd5b8a01603f81018c13620004f257600080fd5b86810151868111156200050957620005096200076b565b6200051c818b01601f19168901620006bb565b81815260408e818486010111156200053357600080fd5b60005b8381101562000553578481018201518382018c01528a0162000536565b83811115620005655760008b85850101525b50508552505060019390930192918501918501620004c7565b509998505050505050505050565b60008060408385031215620005a057600080fd5b82516001600160401b0380821115620005b857600080fd5b620005c68683870162000463565b93506020850151915080821115620005dd57600080fd5b50620005ec8582860162000463565b9150509250929050565b6e2837b63ca234b1b2903220b838103b60891b81526000600f6000845481600182811c9150808316806200062b57607f831692505b60208084108214156200064c57634e487b7160e01b86526022600452602486fd5b8180156200066357600181146200067957620006ac565b60ff1986168a890152848a0188019650620006ac565b60008b81526020902060005b86811015620006a25781548c82018b015290850190830162000685565b505087858b010196505b50949998505050505050505050565b604051601f8201601f191681016001600160401b0381118282101715620006e657620006e66200076b565b604052919050565b600181811c908216806200070357607f821691505b602082108114156200072557634e487b7160e01b600052602260045260246000fd5b50919050565b60006000198214156200074e57634e487b7160e01b600052601160045260246000fd5b5060010190565b634e487b7160e01b600052603260045260246000fd5b634e487b7160e01b600052604160045260246000fd5b613cd080620007916000396000f3fe6080604052600436106102195760003560e01c8063715018a61161011d578063c85718c4116100b0578063e1dc07611161007f578063e985e9c511610064578063e985e9c514610640578063f2fde38b14610689578063fce8019a146106a957600080fd5b8063e1dc0761146105fa578063e66fcda81461062b57600080fd5b8063c85718c414610568578063c87b56dd14610588578063d4dd562e146105a8578063dc2c1989146105da57600080fd5b8063a22cb465116100ec578063a22cb465146104f0578063b0d8b51f14610510578063b88d4fde14610532578063c6ead8af1461055257600080fd5b8063715018a61461048857806386ce316b1461049d5780638da5cb5b146104bd57806395d89b41146104db57600080fd5b80632848f6e4116101b057806355f804b31161017f5780636618196c116101645780636618196c146104255780636de9f32b1461045257806370a082311461046857600080fd5b806355f804b3146103e55780636352211e1461040557600080fd5b80632848f6e4146103525780632f745c5914610372578063360dd460146103a557806342842e0e146103c557600080fd5b80630b2cbe61116101ec5780630b2cbe61146102cf578063156221b4146102ef57806318160ddd1461030f57806323b872dd1461033257600080fd5b806301ffc9a71461021e57806306fdde0314610253578063081812fc14610275578063095ea7b3146102ad575b600080fd5b34801561022a57600080fd5b5061023e610239366004613587565b6106bc565b60405190151581526020015b60405180910390f35b34801561025f57600080fd5b50610268610759565b60405161024a91906139dc565b34801561028157600080fd5b506102956102903660046136b7565b6107eb565b6040516001600160a01b03909116815260200161024a565b3480156102b957600080fd5b506102cd6102c83660046134f7565b610885565b005b3480156102db57600080fd5b506102cd6102ea366004613717565b6109b7565b3480156102fb57600080fd5b506102cd61030a3660046133ad565b610a3e565b34801561031b57600080fd5b50610324610aba565b60405190815260200161024a565b34801561033e57600080fd5b506102cd61034d366004613403565b610ad1565b34801561035e57600080fd5b506102cd61036d3660046136fc565b610b58565b34801561037e57600080fd5b5061039261038d3660046134f7565b610c0b565b60405161ffff909116815260200161024a565b3480156103b157600080fd5b506103246103c0366004613633565b610ce0565b3480156103d157600080fd5b506102cd6103e0366004613403565b610d54565b3480156103f157600080fd5b506102cd6104003660046135c1565b610d6f565b34801561041157600080fd5b506102956104203660046136b7565b610dd5565b34801561043157600080fd5b506104456104403660046133ad565b610e60565b60405161024a919061395c565b34801561045e57600080fd5b5061032460095481565b34801561047457600080fd5b506103246104833660046133ad565b610ef4565b34801561049457600080fd5b506102cd610f8e565b3480156104a957600080fd5b506103246104b83660046133ad565b610ff4565b3480156104c957600080fd5b506000546001600160a01b0316610295565b3480156104e757600080fd5b5061026861109a565b3480156104fc57600080fd5b506102cd61050b3660046134c4565b6110a9565b34801561051c57600080fd5b506105256110b8565b60405161024a91906139a4565b34801561053e57600080fd5b506102cd61054d366004613444565b61115d565b34801561055e57600080fd5b50610324600a5481565b34801561057457600080fd5b506102cd6105833660046136b7565b6111eb565b34801561059457600080fd5b506102686105a33660046136b7565b61124a565b3480156105b457600080fd5b506105c86105c33660046136d0565b6112e5565b60405160ff909116815260200161024a565b3480156105e657600080fd5b506102cd6105f5366004613523565b611363565b34801561060657600080fd5b5061061a6106153660046136b7565b611454565b60405161024a9594939291906139ef565b34801561063757600080fd5b50600b54610324565b34801561064c57600080fd5b5061023e61065b3660046133ca565b6001600160a01b03918216600090815260076020908152604080832093909416825291909152205460ff1690565b34801561069557600080fd5b506102cd6106a43660046133ad565b611478565b6102cd6106b73660046136fc565b61155a565b60006001600160e01b031982167f80ac58cd00000000000000000000000000000000000000000000000000000000148061071f57506001600160e01b031982167f5b5e139f00000000000000000000000000000000000000000000000000000000145b8061075357507f01ffc9a7000000000000000000000000000000000000000000000000000000006001600160e01b03198316145b92915050565b60606002805461076890613b55565b80601f016020809104026020016040519081016040528092919081815260200182805461079490613b55565b80156107e15780601f106107b6576101008083540402835291602001916107e1565b820191906000526020600020905b8154815290600101906020018083116107c457829003601f168201915b5050505050905090565b6000818152600460205260408120546001600160a01b03166108695760405162461bcd60e51b815260206004820152602c60248201527f4552433732313a20617070726f76656420717565727920666f72206e6f6e657860448201526b34b9ba32b73a103a37b5b2b760a11b60648201526084015b60405180910390fd5b506000908152600660205260409020546001600160a01b031690565b600061089082610dd5565b9050806001600160a01b0316836001600160a01b0316141561091a5760405162461bcd60e51b815260206004820152602160248201527f4552433732313a20617070726f76616c20746f2063757272656e74206f776e6560448201527f72000000000000000000000000000000000000000000000000000000000000006064820152608401610860565b336001600160a01b03821614806109365750610936813361065b565b6109a85760405162461bcd60e51b815260206004820152603860248201527f4552433732313a20617070726f76652063616c6c6572206973206e6f74206f7760448201527f6e6572206e6f7220617070726f76656420666f7220616c6c00000000000000006064820152608401610860565b6109b283836116d9565b505050565b6000546001600160a01b03163314610a115760405162461bcd60e51b815260206004820181905260248201527f4f776e61626c653a2063616c6c6572206973206e6f7420746865206f776e65726044820152606401610860565b60005b8260ff168160ff1610156109b257610a2b82611747565b5080610a3681613bab565b915050610a14565b6000546001600160a01b03163314610a985760405162461bcd60e51b815260206004820181905260248201527f4f776e61626c653a2063616c6c6572206973206e6f7420746865206f776e65726044820152606401610860565b600c80546001600160a01b0319166001600160a01b0392909216919091179055565b6000600a54600954610acc9190613b12565b905090565b610adb3382611753565b610b4d5760405162461bcd60e51b815260206004820152603160248201527f4552433732313a207472616e736665722063616c6c6572206973206e6f74206f60448201527f776e6572206e6f7220617070726f7665640000000000000000000000000000006064820152608401610860565b6109b283838361184a565b6000546001600160a01b03163314610bb25760405162461bcd60e51b815260206004820181905260248201527f4f776e61626c653a2063616c6c6572206973206e6f7420746865206f776e65726044820152606401610860565b600f8054600181018255600091909152602081047f8d1108e10bcb7c27dddfc02ed9d693a074039d026cf4ea4240b40f7d581ac80201805460ff938416601f9093166101000a9283029390920219909116919091179055565b6000610c1683610ef4565b8210610c8a5760405162461bcd60e51b815260206004820152603160248201527f45524337323153696d706c65456e756d657261626c653a206f776e657220696e60448201527f646578206f7574206f6620626f756e64730000000000000000000000000000006064820152608401610860565b6001600160a01b0383166000908152600860205260409020805483908110610cb457610cb4613c43565b90600052602060002090601091828204019190066002029054906101000a900461ffff16905092915050565b600080546001600160a01b03163314610d3b5760405162461bcd60e51b815260206004820181905260248201527f4f776e61626c653a2063616c6c6572206973206e6f7420746865206f776e65726044820152606401610860565b610d488686868686611a22565b90505b95945050505050565b6109b28383836040518060200160405280600081525061115d565b6000546001600160a01b03163314610dc95760405162461bcd60e51b815260206004820181905260248201527f4f776e61626c653a2063616c6c6572206973206e6f7420746865206f776e65726044820152606401610860565b6109b260158383613173565b6000818152600460205260408120546001600160a01b0316806107535760405162461bcd60e51b815260206004820152602960248201527f4552433732313a206f776e657220717565727920666f72206e6f6e657869737460448201527f656e7420746f6b656e00000000000000000000000000000000000000000000006064820152608401610860565b6001600160a01b038116600090815260086020908152604091829020805483518184028101840190945280845260609392830182828015610ee857602002820191906000526020600020906000905b82829054906101000a900461ffff1661ffff1681526020019060020190602082600101049283019260010382029150808411610eaf5790505b50505050509050919050565b60006001600160a01b038216610f725760405162461bcd60e51b815260206004820152602a60248201527f4552433732313a2062616c616e636520717565727920666f7220746865207a6560448201527f726f2061646472657373000000000000000000000000000000000000000000006064820152608401610860565b506001600160a01b031660009081526005602052604090205490565b6000546001600160a01b03163314610fe85760405162461bcd60e51b815260206004820181905260248201527f4f776e61626c653a2063616c6c6572206973206e6f7420746865206f776e65726044820152606401610860565b610ff26000611a56565b565b600080546001600160a01b0316331461104f5760405162461bcd60e51b815260206004820181905260248201527f4f776e61626c653a2063616c6c6572206973206e6f7420746865206f776e65726044820152606401610860565b600061105a600d5490565b90506000611069601183611aa6565b90506000808061107a600e86611ae7565b92509250925061108d848484848b611a22565b955050505050505b919050565b60606003805461076890613b55565b6110b4338383611c22565b5050565b606060006110c533610ef4565b905060008167ffffffffffffffff8111156110e2576110e2613c59565b60405190808252806020026020018201604052801561110b578160200160208202803683370190505b50905060005b82811015611156576111233382610c0b565b61ffff1682828151811061113957611139613c43565b60209081029190910101528061114e81613b90565b915050611111565b5092915050565b6111673383611753565b6111d95760405162461bcd60e51b815260206004820152603160248201527f4552433732313a207472616e736665722063616c6c6572206973206e6f74206f60448201527f776e6572206e6f7220617070726f7665640000000000000000000000000000006064820152608401610860565b6111e584848484611cf1565b50505050565b6000546001600160a01b031633146112455760405162461bcd60e51b815260206004820181905260248201527f4f776e61626c653a2063616c6c6572206973206e6f7420746865206f776e65726044820152606401610860565b600b55565b6000818152600460205260409020546060906001600160a01b03166112b15760405162461bcd60e51b815260206004820152601160248201527f6e6f6e6578697374656e7420746f6b656e0000000000000000000000000000006044820152606401610860565b60156112be600e84611d6f565b6040516020016112cf929190613834565b6040516020818303038152906040529050919050565b60006112f083610dd5565b6001600160a01b0316336001600160a01b0316146113505760405162461bcd60e51b815260206004820152600a60248201527f4e6f7420796f7572732e000000000000000000000000000000000000000000006044820152606401610860565b61135c600e8484611e13565b9392505050565b6000546001600160a01b031633146113bd5760405162461bcd60e51b815260206004820181905260248201527f4f776e61626c653a2063616c6c6572206973206e6f7420746865206f776e65726044820152606401610860565b60005b8251811015611408576113f68382815181106113de576113de613c43565b6020026020010151601161168890919063ffffffff16565b8061140081613b90565b9150506113c0565b5060005b81518110156109b25761144282828151811061142a5761142a613c43565b6020026020010151601161169290919063ffffffff16565b8061144c81613b90565b91505061140c565b60606000818082611466600e87611eb2565b939a9299509097509550909350915050565b6000546001600160a01b031633146114d25760405162461bcd60e51b815260206004820181905260248201527f4f776e61626c653a2063616c6c6572206973206e6f7420746865206f776e65726044820152606401610860565b6001600160a01b03811661154e5760405162461bcd60e51b815260206004820152602660248201527f4f776e61626c653a206e6577206f776e657220697320746865207a65726f206160448201527f64647265737300000000000000000000000000000000000000000000000000006064820152608401610860565b61155781611a56565b50565b8060ff16600b5461156b9190613af3565b3410156115ba5760405162461bcd60e51b815260206004820152600f60248201527f6e6f7420656e6f756768206361736800000000000000000000000000000000006044820152606401610860565b60005b8160ff168110156115e4576115d133611747565b50806115dc81613b90565b9150506115bd565b50600c546040516000916001600160a01b03169034908381818185875af1925050503d8060008114611632576040519150601f19603f3d011682016040523d82523d6000602084013e611637565b606091505b50509050806110b45760405162461bcd60e51b815260206004820152601a60248201527f4661696c656420746f20666f7277617264207061796d656e742e0000000000006044820152606401610860565b6110b4828261169b565b6110b460028301825b600182015460009081526020838152604090912082516116bd928401906131f7565b506001820180549060006116d083613b90565b91905055505050565b600081815260066020526040902080546001600160a01b0319166001600160a01b038416908117909155819061170e82610dd5565b6001600160a01b03167f8c5be1e5ebec7d5bd14f71427d1e84f3dd0314c0f7b2291e5b200ac8c7c3b92560405160405180910390a45050565b60008061105a600d5490565b6000818152600460205260408120546001600160a01b03166117cc5760405162461bcd60e51b815260206004820152602c60248201527f4552433732313a206f70657261746f7220717565727920666f72206e6f6e657860448201526b34b9ba32b73a103a37b5b2b760a11b6064820152608401610860565b60006117d783610dd5565b9050806001600160a01b0316846001600160a01b031614806118125750836001600160a01b0316611807846107eb565b6001600160a01b0316145b8061184257506001600160a01b0380821660009081526007602090815260408083209388168352929052205460ff165b949350505050565b826001600160a01b031661185d82610dd5565b6001600160a01b0316146118d95760405162461bcd60e51b815260206004820152602560248201527f4552433732313a207472616e736665722066726f6d20696e636f72726563742060448201527f6f776e65720000000000000000000000000000000000000000000000000000006064820152608401610860565b6001600160a01b0382166119545760405162461bcd60e51b8152602060048201526024808201527f4552433732313a207472616e7366657220746f20746865207a65726f2061646460448201527f72657373000000000000000000000000000000000000000000000000000000006064820152608401610860565b61195f838383611fb5565b61196a6000826116d9565b6001600160a01b0383166000908152600560205260408120805460019290611993908490613b12565b90915550506001600160a01b03821660009081526005602052604081208054600192906119c1908490613a78565b909155505060008181526004602052604080822080546001600160a01b0319166001600160a01b0386811691821790925591518493918716917fddf252ad1be2c89b69c2b068fc378daa952ba7f163c4a11628f55a4df523b3ef91a4505050565b6000611a2d600d5490565b9050611a3e600e8288888888612078565b611a48828261221e565b610d4b600d80546001019055565b600080546001600160a01b038381166001600160a01b0319831681178455604051919092169283917f8be0079c531659141344cd1fd0a4f28419497f9722a3daafe3b4186f6b6457e09190a35050565b6060611ab28383612238565b611abf6002850184612238565b604051602001611ad09291906137f8565b604051602081830303815290604052905092915050565b6001820180546040805144602080830191909152428284015233606083015261ffff86166080808401919091528351808403909101815260a090920190925280519101206000928392839260ff16611b3f9190613bcb565b81548110611b4f57611b4f613c43565b600091825260209182902091810490910154600287015460ff601f9093166101000a90910482169450611b8491166001613a90565b611bda611b9460ff861687613ac9565b60408051446020820152429181019190915233606082015261ffff8216608082015260009060a00160408051601f19818403018152919052805160209091012092915050565b611be49190613bdf565b6002860154909250611bff90610100900460ff166001613a90565b611c0f611b9460ff851687613ac9565b611c199190613bdf565b90509250925092565b816001600160a01b0316836001600160a01b03161415611c845760405162461bcd60e51b815260206004820152601960248201527f4552433732313a20617070726f766520746f2063616c6c6572000000000000006044820152606401610860565b6001600160a01b03838116600081815260076020908152604080832094871680845294825291829020805460ff191686151590811790915591519182527f17307eab39ab6107e8899845ad3d59bd9653f200f220920489ca2b5937696c31910160405180910390a3505050565b611cfc84848461184a565b611d08848484846122f2565b6111e55760405162461bcd60e51b815260206004820152603260248201527f4552433732313a207472616e7366657220746f206e6f6e20455243373231526560448201527131b2b4bb32b91034b6b83632b6b2b73a32b960711b6064820152608401610860565b600081815260208390526040812060010154606091908190611d9890610100900460ff1661244a565b6000868152602088905260409020600181015492945090925090611dbe9060ff16612c1c565b60008681526020889052604090206001015484908490611de69062010000900460ff16612c1c565b604051602001611dfa959493929190613859565b6040516020818303038152906040529250505092915050565b600082815260208490526040812060010154819060ff16600a14611e38576001611e3b565b60005b6000858152602087815260408083206001015481514481850152428184015233606082015261ffff89166080808301919091528351808303909101815260a090910190925281519190920120929350909160ff808516921690611e9e9190613bcb565b611ea89190613a78565b9695505050505050565b6000818152602083905260408120600101546060919082908190839081908190611ee390610100900460ff1661244a565b60008a815260208c905260409020600181015481549395509193509160ff808316928692869262010000909204909116908590611f1f90613b55565b80601f0160208091040260200160405190810160405280929190818152602001828054611f4b90613b55565b8015611f985780601f10611f6d57610100808354040283529160200191611f98565b820191906000526020600020905b815481529060010190602001808311611f7b57829003601f168201915b505050505094509650965096509650965050509295509295909350565b826001600160a01b0316826001600160a01b0316146109b2576001600160a01b038216600090815260086020908152604082208054600181018255908352912060108204018054600f9092166002026101000a61ffff81810219909316928416029190911790556001600160a01b0383161561203a576120358382612d4e565b612050565b6009805490600061204a83613b90565b91905055505b6001600160a01b0382166109b257600a805490600061206e83613b90565b9190505550505050565b600286015460ff90811690831611156120d35760405162461bcd60e51b815260206004820152601360248201527f496e76616c696420636f6c6f72207468656d65000000000000000000000000006044820152606401610860565b600286015460ff610100909104811690821611156121335760405162461bcd60e51b815260206004820152601360248201527f496e76616c696420636f6c6f72207468656d65000000000000000000000000006044820152606401610860565b61213d8684612f32565b6121895760405162461bcd60e51b815260206004820152601760248201527f496e76616c6964206e756d626572206f662073696465730000000000000000006044820152606401610860565b6040805160808101825285815260ff80861660208084019190915285821683850152908416606083015260008881528982529290922081518051929391926121d492849201906131f7565b50602082015160019091018054604084015160609094015160ff908116620100000262ff0000199582166101000261ffff1990931691909416171792909216179055505050505050565b6110b4828260405180602001604052806000815250612fa7565b60008083600101541161228d5760405162461bcd60e51b815260206004820152600860248201527f6e6f20776f7264730000000000000000000000000000000000000000000000006044820152606401610860565b6001830154604080514460208201524291810191909152336060820152608081018490526000919060a0016040516020818303038152906040528051906020012060001c6122db9190613bcb565b600090815260208590526040902091505092915050565b60006001600160a01b0384163b1561243f57604051630a85bd0160e11b81526001600160a01b0385169063150b7a029061233690339089908890889060040161392a565b602060405180830381600087803b15801561235057600080fd5b505af1925050508015612380575060408051601f3d908101601f1916820190925261237d918101906135a4565b60015b612425573d8080156123ae576040519150601f19603f3d011682016040523d82523d6000602084013e6123b3565b606091505b50805161241d5760405162461bcd60e51b815260206004820152603260248201527f4552433732313a207472616e7366657220746f206e6f6e20455243373231526560448201527131b2b4bb32b91034b6b83632b6b2b73a32b960711b6064820152608401610860565b805181602001fd5b6001600160e01b031916630a85bd0160e11b149050611842565b506001949350505050565b606080601e8360ff1611156124a15760405162461bcd60e51b815260206004820152601260248201527f7374796c65206f7574206f662072616e676500000000000000000000000000006044820152606401610860565b60038360ff16116124e6575060408051808201909152600681527f303031333465000000000000000000000000000000000000000000000000000060208201526128c1565b60048360ff16101580156124fe575060078360ff1611155b1561253d575060408051808201909152600681527f316131613161000000000000000000000000000000000000000000000000000060208201526128c1565b60088360ff16101580156125555750600a8360ff1611155b1561257d575060408051808201909152600681526533333333333360d11b60208201526128c1565b600b8360ff16101580156125955750600d8360ff1611155b156125d4575060408051808201909152600681527f353535373533000000000000000000000000000000000000000000000000000060208201526128c1565b600e8360ff16101580156125ec575060108360ff1611155b1561262b575060408051808201909152600681527f386231306430000000000000000000000000000000000000000000000000000060208201526128c1565b60118360ff1610158015612643575060138360ff1611155b15612682575060408051808201909152600681527f656364633139000000000000000000000000000000000000000000000000000060208201526128c1565b8260ff166014148061269757508260ff166015145b156126d6575060408051808201909152600681527f343038666464000000000000000000000000000000000000000000000000000060208201526128c1565b8260ff16601614806126eb57508260ff166017145b1561272a575060408051808201909152600681527f333137613236000000000000000000000000000000000000000000000000000060208201526128c1565b8260ff166018148061273f57508260ff166019145b1561277e575060408051808201909152600681527f663231643061000000000000000000000000000000000000000000000000000060208201526128c1565b8260ff16601a14156127c4575060408051808201909152600681527f383866663434000000000000000000000000000000000000000000000000000060208201526128c1565b8260ff16601b141561280a575060408051808201909152600681527f643039633130000000000000000000000000000000000000000000000000000060208201526128c1565b8260ff16601c1415612850575060408051808201909152600681527f656635346461000000000000000000000000000000000000000000000000000060208201526128c1565b8260ff16601d1415612896575060408051808201909152600681527f346530303030000000000000000000000000000000000000000000000000000060208201526128c1565b8260ff16601e14156128c1575060408051808201909152600681526518181818333360d11b60208201525b60ff831615806128d457508260ff166004145b806128e257508260ff166008145b806128f057508260ff166011145b806128fe57508260ff16601a145b15612929576040518060400160405280600681526020016518181818333360d11b8152509150915091565b8260ff166001148061293e57508260ff166005145b15612980576040518060400160405280600681526020017f30306666303000000000000000000000000000000000000000000000000000008152509150915091565b8260ff166002148061299557508260ff166006145b806129a357508260ff16600a145b806129b157508260ff166013145b806129bf57508260ff16601c145b15612a01576040518060400160405280600681526020017f66663030303000000000000000000000000000000000000000000000000000008152509150915091565b8260ff1660031480612a1657508260ff166007145b80612a2457508260ff16600d145b80612a3257508260ff166010145b80612a4057508260ff166015145b80612a4e57508260ff166017145b80612a5c57508260ff166019145b80612a6a57508260ff16601d145b80612a7857508260ff16601e145b15612aa3576040518060400160405280600681526020016533333333333360d11b8152509150915091565b8260ff1660091480612ab857508260ff16600b145b80612ac657508260ff16600e145b80612ad457508260ff166012145b80612ae257508260ff166014145b80612af057508260ff16601b145b15612b32576040518060400160405280600681526020017f30303030303000000000000000000000000000000000000000000000000000008152509150915091565b8260ff16600c1480612b4757508260ff166016145b15612b89576040518060400160405280600681526020017f38386666383800000000000000000000000000000000000000000000000000008152509150915091565b8260ff16600f1415612bd2576040518060400160405280600681526020017f36366363363600000000000000000000000000000000000000000000000000008152509150915091565b8260ff1660181415612c17576040518060400160405280600681526020017f383830303030000000000000000000000000000000000000000000000000000081525091505b915091565b606081612c5c57505060408051808201909152600181527f3000000000000000000000000000000000000000000000000000000000000000602082015290565b8160005b8115612c865780612c7081613b90565b9150612c7f9050600a83613ab5565b9150612c60565b60008167ffffffffffffffff811115612ca157612ca1613c59565b6040519080825280601f01601f191660200182016040528015612ccb576020820181803683370190505b5090505b841561184257612ce0600183613b12565b9150612ced600a86613bcb565b612cf8906030613a78565b60f81b818381518110612d0d57612d0d613c43565b60200101907effffffffffffffffffffffffffffffffffffffffffffffffffffffffffffff1916908160001a905350612d47600a86613ab5565b9450612ccf565b6001600160a01b0382166000908152600860205260408120805490915b8254811015612dcd578361ffff16838281548110612d8b57612d8b613c43565b60009182526020909120601082040154600f9091166002026101000a900461ffff161415612dbb57809150612dcd565b80612dc581613b90565b915050612d6b565b5081548110612e445760405162461bcd60e51b815260206004820152603760248201527f45524337323153696d706c65456e756d657261626c653a20746f6b656e49642060448201527f6e6f7420666f756e6420696e206f776e6572206c6973740000000000000000006064820152608401610860565b805b8254612e5490600190613b12565b811015612eef5782612e67826001613a78565b81548110612e7757612e77613c43565b90600052602060002090601091828204019190066002029054906101000a900461ffff16838281548110612ead57612ead613c43565b90600052602060002090601091828204019190066002026101000a81548161ffff021916908361ffff1602179055508080612ee790613b90565b915050612e46565b5081805480612f0057612f00613c2d565b600082815260209020601060001990920191820401805461ffff6002600f8516026101000a0219169055905550505050565b6000805b6001840154811015612f9d578260ff16846001018281548110612f5b57612f5b613c43565b60009182526020918290209181049091015460ff601f9092166101000a9004161415612f8b576001915050610753565b80612f9581613b90565b915050612f36565b5060009392505050565b612fb18383613025565b612fbe60008484846122f2565b6109b25760405162461bcd60e51b815260206004820152603260248201527f4552433732313a207472616e7366657220746f206e6f6e20455243373231526560448201527131b2b4bb32b91034b6b83632b6b2b73a32b960711b6064820152608401610860565b6001600160a01b03821661307b5760405162461bcd60e51b815260206004820181905260248201527f4552433732313a206d696e7420746f20746865207a65726f20616464726573736044820152606401610860565b6000818152600460205260409020546001600160a01b0316156130e05760405162461bcd60e51b815260206004820152601c60248201527f4552433732313a20746f6b656e20616c7265616479206d696e746564000000006044820152606401610860565b6130ec60008383611fb5565b6001600160a01b0382166000908152600560205260408120805460019290613115908490613a78565b909155505060008181526004602052604080822080546001600160a01b0319166001600160a01b03861690811790915590518392907fddf252ad1be2c89b69c2b068fc378daa952ba7f163c4a11628f55a4df523b3ef908290a45050565b82805461317f90613b55565b90600052602060002090601f0160209004810192826131a157600085556131e7565b82601f106131ba5782800160ff198235161785556131e7565b828001600101855582156131e7579182015b828111156131e75782358255916020019190600101906131cc565b506131f392915061326b565b5090565b82805461320390613b55565b90600052602060002090601f01602090048101928261322557600085556131e7565b82601f1061323e57805160ff19168380011785556131e7565b828001600101855582156131e7579182015b828111156131e7578251825591602001919060010190613250565b5b808211156131f3576000815560010161326c565b600067ffffffffffffffff83111561329a5761329a613c59565b6132ad601f8401601f1916602001613a47565b90508281528383830111156132c157600080fd5b828260208301376000602084830101529392505050565b600082601f8301126132e957600080fd5b8135602067ffffffffffffffff8083111561330657613306613c59565b8260051b613315838201613a47565b8481528381019087850183890186018a101561333057600080fd5b60009350835b8781101561336d5781358681111561334c578586fd5b61335a8c89838e010161337c565b8552509286019290860190600101613336565b50909998505050505050505050565b600082601f83011261338d57600080fd5b61135c83833560208501613280565b803560ff8116811461109557600080fd5b6000602082840312156133bf57600080fd5b813561135c81613c6f565b600080604083850312156133dd57600080fd5b82356133e881613c6f565b915060208301356133f881613c6f565b809150509250929050565b60008060006060848603121561341857600080fd5b833561342381613c6f565b9250602084013561343381613c6f565b929592945050506040919091013590565b6000806000806080858703121561345a57600080fd5b843561346581613c6f565b9350602085013561347581613c6f565b925060408501359150606085013567ffffffffffffffff81111561349857600080fd5b8501601f810187136134a957600080fd5b6134b887823560208401613280565b91505092959194509250565b600080604083850312156134d757600080fd5b82356134e281613c6f565b9150602083013580151581146133f857600080fd5b6000806040838503121561350a57600080fd5b823561351581613c6f565b946020939093013593505050565b6000806040838503121561353657600080fd5b823567ffffffffffffffff8082111561354e57600080fd5b61355a868387016132d8565b9350602085013591508082111561357057600080fd5b5061357d858286016132d8565b9150509250929050565b60006020828403121561359957600080fd5b813561135c81613c84565b6000602082840312156135b657600080fd5b815161135c81613c84565b600080602083850312156135d457600080fd5b823567ffffffffffffffff808211156135ec57600080fd5b818501915085601f83011261360057600080fd5b81358181111561360f57600080fd5b86602082850101111561362157600080fd5b60209290920196919550909350505050565b600080600080600060a0868803121561364b57600080fd5b853567ffffffffffffffff81111561366257600080fd5b61366e8882890161337c565b95505061367d6020870161339c565b935061368b6040870161339c565b92506136996060870161339c565b915060808601356136a981613c6f565b809150509295509295909350565b6000602082840312156136c957600080fd5b5035919050565b600080604083850312156136e357600080fd5b82359150602083013561ffff811681146133f857600080fd5b60006020828403121561370e57600080fd5b61135c8261339c565b6000806040838503121561372a57600080fd5b6133e88361339c565b6000815180845261374b816020860160208601613b29565b601f01601f19169290920160200192915050565b8054600090600181811c908083168061377957607f831692505b602080841082141561379b57634e487b7160e01b600052602260045260246000fd5b8180156137af57600181146137c0576137ec565b60ff198616895284890196506137ec565b876000528160002060005b868110156137e45781548b8201529085019083016137cb565b505084890196505b50505050505092915050565b6000613804828561375f565b7f20000000000000000000000000000000000000000000000000000000000000008152610d4b600182018561375f565b6000613840828561375f565b8351613850818360208801613b29565b01949350505050565b7f2f6d657461646174610000000000000000000000000000000000000000000000815260007f2f000000000000000000000000000000000000000000000000000000000000008060098401526138b2600a84018961375f565b81815287516138c8816001840160208c01613b29565b016001810182905286516138e3816002840160208b01613b29565b016002810182905285516138fe816003840160208a01613b29565b01600381019190915283519061391b826004830160208801613b29565b01600401979650505050505050565b60006001600160a01b03808716835280861660208401525083604083015260806060830152610d486080830184613733565b6020808252825182820181905260009190848201906040850190845b8181101561399857835161ffff1683529284019291840191600101613978565b50909695505050505050565b6020808252825182820181905260009190848201906040850190845b81811015613998578351835292840192918401916001016139c0565b60208152600061135c6020830184613733565b60a081526000613a0260a0830188613733565b60ff871660208401528281036040840152613a1d8187613733565b90508281036060840152613a318186613733565b91505060ff831660808301529695505050505050565b604051601f8201601f1916810167ffffffffffffffff81118282101715613a7057613a70613c59565b604052919050565b60008219821115613a8b57613a8b613c01565b500190565b600060ff821660ff84168060ff03821115613aad57613aad613c01565b019392505050565b600082613ac457613ac4613c17565b500490565b600061ffff80831681851681830481118215151615613aea57613aea613c01565b02949350505050565b6000816000190483118215151615613b0d57613b0d613c01565b500290565b600082821015613b2457613b24613c01565b500390565b60005b83811015613b44578181015183820152602001613b2c565b838111156111e55750506000910152565b600181811c90821680613b6957607f821691505b60208210811415613b8a57634e487b7160e01b600052602260045260246000fd5b50919050565b6000600019821415613ba457613ba4613c01565b5060010190565b600060ff821660ff811415613bc257613bc2613c01565b60010192915050565b600082613bda57613bda613c17565b500690565b600060ff831680613bf257613bf2613c17565b8060ff84160691505092915050565b634e487b7160e01b600052601160045260246000fd5b634e487b7160e01b600052601260045260246000fd5b634e487b7160e01b600052603160045260246000fd5b634e487b7160e01b600052603260045260246000fd5b634e487b7160e01b600052604160045260246000fd5b6001600160a01b038116811461155757600080fd5b6001600160e01b03198116811461155757600080fdfea26469706673582212201327b32e80f32155a04aefbba8fa31512bfbee771e5f66aba1d40eeed7c2301b64736f6c63430008060033",
  "linkReferences": {},
  "deployedLinkReferences": {}
}