{
  "_format": "hh-sol-artifact-1",
  "contractName": "TabletopDiceNFT",
  "sourceName": "contracts/Dice.sol",
  "abi": [
    {
      "inputs": [
        {
          "internalType": "string[]",
          "name": "adjectives",
          "type": "string[]"
        },
        {
          "internalType": "string[]",
          "name": "nouns",
          "type": "string[]"
        }
      ],
      "stateMutability": "nonpayable",
      "type": "constructor"
    },
    {
      "anonymous": false,
      "inputs": [
        {
          "indexed": true,
          "internalType": "address",
          "name": "owner",
          "type": "address"
        },
        {
          "indexed": true,
          "internalType": "address",
          "name": "approved",
          "type": "address"
        },
        {
          "indexed": true,
          "internalType": "uint256",
          "name": "tokenId",
          "type": "uint256"
        }
      ],
      "name": "Approval",
      "type": "event"
    },
    {
      "anonymous": false,
      "inputs": [
        {
          "indexed": true,
          "internalType": "address",
          "name": "owner",
          "type": "address"
        },
        {
          "indexed": true,
          "internalType": "address",
          "name": "operator",
          "type": "address"
        },
        {
          "indexed": false,
          "internalType": "bool",
          "name": "approved",
          "type": "bool"
        }
      ],
      "name": "ApprovalForAll",
      "type": "event"
    },
    {
      "anonymous": false,
      "inputs": [
        {
          "indexed": true,
          "internalType": "address",
          "name": "previousOwner",
          "type": "address"
        },
        {
          "indexed": true,
          "internalType": "address",
          "name": "newOwner",
          "type": "address"
        }
      ],
      "name": "OwnershipTransferred",
      "type": "event"
    },
    {
      "anonymous": false,
      "inputs": [
        {
          "indexed": true,
          "internalType": "address",
          "name": "from",
          "type": "address"
        },
        {
          "indexed": true,
          "internalType": "address",
          "name": "to",
          "type": "address"
        },
        {
          "indexed": true,
          "internalType": "uint256",
          "name": "tokenId",
          "type": "uint256"
        }
      ],
      "name": "Transfer",
      "type": "event"
    },
    {
      "inputs": [
        {
          "internalType": "string[]",
          "name": "adjectives",
          "type": "string[]"
        }
      ],
      "name": "addAdjectives",
      "outputs": [],
      "stateMutability": "nonpayable",
      "type": "function"
    },
    {
      "inputs": [
        {
          "internalType": "string[]",
          "name": "nouns",
          "type": "string[]"
        }
      ],
      "name": "addNouns",
      "outputs": [],
      "stateMutability": "nonpayable",
      "type": "function"
    },
    {
      "inputs": [
        {
          "internalType": "address",
          "name": "to",
          "type": "address"
        },
        {
          "internalType": "uint256",
          "name": "tokenId",
          "type": "uint256"
        }
      ],
      "name": "approve",
      "outputs": [],
      "stateMutability": "nonpayable",
      "type": "function"
    },
    {
      "inputs": [
        {
          "internalType": "address",
          "name": "owner",
          "type": "address"
        }
      ],
      "name": "balanceOf",
      "outputs": [
        {
          "internalType": "uint256",
          "name": "",
          "type": "uint256"
        }
      ],
      "stateMutability": "view",
      "type": "function"
    },
    {
      "inputs": [
        {
          "internalType": "uint256",
          "name": "tokenId",
          "type": "uint256"
        }
      ],
      "name": "getApproved",
      "outputs": [
        {
          "internalType": "address",
          "name": "",
          "type": "address"
        }
      ],
      "stateMutability": "view",
      "type": "function"
    },
    {
      "inputs": [
        {
          "internalType": "uint8",
          "name": "styleId",
          "type": "uint8"
        }
      ],
      "name": "getColorTheme",
      "outputs": [
        {
          "internalType": "string",
          "name": "foreground",
          "type": "string"
        },
        {
          "internalType": "string",
          "name": "background",
          "type": "string"
        }
      ],
      "stateMutability": "pure",
      "type": "function"
    },
    {
      "inputs": [],
      "name": "getOwnedTokenIds",
      "outputs": [
        {
          "internalType": "uint256[]",
          "name": "",
          "type": "uint256[]"
        }
      ],
      "stateMutability": "view",
      "type": "function"
    },
    {
      "inputs": [
        {
          "internalType": "uint256",
          "name": "tokenId",
          "type": "uint256"
        }
      ],
      "name": "getOwnerOf",
      "outputs": [
        {
          "internalType": "address",
          "name": "",
          "type": "address"
        }
      ],
      "stateMutability": "view",
      "type": "function"
    },
    {
      "inputs": [
        {
          "internalType": "uint256",
          "name": "tokenId",
          "type": "uint256"
        }
      ],
      "name": "getTraits",
      "outputs": [
        {
          "internalType": "string",
          "name": "name",
          "type": "string"
        },
        {
          "internalType": "uint8",
          "name": "sides",
          "type": "uint8"
        },
        {
          "internalType": "string",
          "name": "fgColor",
          "type": "string"
        },
        {
          "internalType": "string",
          "name": "bgColor",
          "type": "string"
        },
        {
          "internalType": "uint8",
          "name": "font",
          "type": "uint8"
        }
      ],
      "stateMutability": "view",
      "type": "function"
    },
    {
      "inputs": [
        {
          "internalType": "address",
          "name": "owner",
          "type": "address"
        },
        {
          "internalType": "address",
          "name": "operator",
          "type": "address"
        }
      ],
      "name": "isApprovedForAll",
      "outputs": [
        {
          "internalType": "bool",
          "name": "",
          "type": "bool"
        }
      ],
      "stateMutability": "view",
      "type": "function"
    },
    {
      "inputs": [
        {
          "internalType": "address",
          "name": "owner",
          "type": "address"
        },
        {
          "internalType": "string",
          "name": "name",
          "type": "string"
        },
        {
          "internalType": "uint8",
          "name": "sides",
          "type": "uint8"
        },
        {
          "internalType": "uint8",
          "name": "styleId",
          "type": "uint8"
        },
        {
          "internalType": "uint8",
          "name": "font",
          "type": "uint8"
        }
      ],
      "name": "mintNFT",
      "outputs": [
        {
          "internalType": "uint256",
          "name": "",
          "type": "uint256"
        }
      ],
      "stateMutability": "nonpayable",
      "type": "function"
    },
    {
      "inputs": [
        {
          "internalType": "address",
          "name": "owner",
          "type": "address"
        },
        {
          "internalType": "string",
          "name": "name",
          "type": "string"
        },
        {
          "internalType": "uint8",
          "name": "sides",
          "type": "uint8"
        },
        {
          "internalType": "uint8",
          "name": "styleId",
          "type": "uint8"
        },
        {
          "internalType": "uint8",
          "name": "font",
          "type": "uint8"
        },
        {
          "internalType": "uint16",
          "name": "count",
          "type": "uint16"
        }
      ],
      "name": "mintNFTBatch",
      "outputs": [],
      "stateMutability": "nonpayable",
      "type": "function"
    },
    {
      "inputs": [],
      "name": "mintRandomDice",
      "outputs": [
        {
          "internalType": "uint256",
          "name": "count",
          "type": "uint256"
        }
      ],
      "stateMutability": "payable",
      "type": "function"
    },
    {
      "inputs": [],
      "name": "mintRandomDie",
      "outputs": [
        {
          "internalType": "uint256",
          "name": "",
          "type": "uint256"
        }
      ],
      "stateMutability": "nonpayable",
      "type": "function"
    },
    {
      "inputs": [],
      "name": "name",
      "outputs": [
        {
          "internalType": "string",
          "name": "",
          "type": "string"
        }
      ],
      "stateMutability": "view",
      "type": "function"
    },
    {
      "inputs": [],
      "name": "owner",
      "outputs": [
        {
          "internalType": "address",
          "name": "",
          "type": "address"
        }
      ],
      "stateMutability": "view",
      "type": "function"
    },
    {
      "inputs": [
        {
          "internalType": "uint256",
          "name": "tokenId",
          "type": "uint256"
        }
      ],
      "name": "ownerOf",
      "outputs": [
        {
          "internalType": "address",
          "name": "",
          "type": "address"
        }
      ],
      "stateMutability": "view",
      "type": "function"
    },
    {
      "inputs": [],
      "name": "renounceOwnership",
      "outputs": [],
      "stateMutability": "nonpayable",
      "type": "function"
    },
    {
      "inputs": [
        {
          "internalType": "uint256",
          "name": "tokenId",
          "type": "uint256"
        },
        {
          "internalType": "uint16",
          "name": "nonce",
          "type": "uint16"
        }
      ],
      "name": "roll",
      "outputs": [
        {
          "internalType": "uint8",
          "name": "",
          "type": "uint8"
        }
      ],
      "stateMutability": "view",
      "type": "function"
    },
    {
      "inputs": [
        {
          "internalType": "address",
          "name": "from",
          "type": "address"
        },
        {
          "internalType": "address",
          "name": "to",
          "type": "address"
        },
        {
          "internalType": "uint256",
          "name": "tokenId",
          "type": "uint256"
        }
      ],
      "name": "safeTransferFrom",
      "outputs": [],
      "stateMutability": "nonpayable",
      "type": "function"
    },
    {
      "inputs": [
        {
          "internalType": "address",
          "name": "from",
          "type": "address"
        },
        {
          "internalType": "address",
          "name": "to",
          "type": "address"
        },
        {
          "internalType": "uint256",
          "name": "tokenId",
          "type": "uint256"
        },
        {
          "internalType": "bytes",
          "name": "_data",
          "type": "bytes"
        }
      ],
      "name": "safeTransferFrom",
      "outputs": [],
      "stateMutability": "nonpayable",
      "type": "function"
    },
    {
      "inputs": [
        {
          "internalType": "address",
          "name": "operator",
          "type": "address"
        },
        {
          "internalType": "bool",
          "name": "approved",
          "type": "bool"
        }
      ],
      "name": "setApprovalForAll",
      "outputs": [],
      "stateMutability": "nonpayable",
      "type": "function"
    },
    {
      "inputs": [
        {
          "internalType": "string",
          "name": "baseURI",
          "type": "string"
        }
      ],
      "name": "setBaseURI",
      "outputs": [],
      "stateMutability": "nonpayable",
      "type": "function"
    },
    {
      "inputs": [
        {
          "internalType": "bytes4",
          "name": "interfaceId",
          "type": "bytes4"
        }
      ],
      "name": "supportsInterface",
      "outputs": [
        {
          "internalType": "bool",
          "name": "",
          "type": "bool"
        }
      ],
      "stateMutability": "view",
      "type": "function"
    },
    {
      "inputs": [],
      "name": "symbol",
      "outputs": [
        {
          "internalType": "string",
          "name": "",
          "type": "string"
        }
      ],
      "stateMutability": "view",
      "type": "function"
    },
    {
      "inputs": [
        {
          "internalType": "address",
          "name": "owner",
          "type": "address"
        }
      ],
      "name": "tokenListOfOwner",
      "outputs": [
        {
          "internalType": "uint16[]",
          "name": "",
          "type": "uint16[]"
        }
      ],
      "stateMutability": "view",
      "type": "function"
    },
    {
      "inputs": [
        {
          "internalType": "address",
          "name": "owner",
          "type": "address"
        },
        {
          "internalType": "uint256",
          "name": "index",
          "type": "uint256"
        }
      ],
      "name": "tokenOfOwnerByIndex",
      "outputs": [
        {
          "internalType": "uint16",
          "name": "",
          "type": "uint16"
        }
      ],
      "stateMutability": "view",
      "type": "function"
    },
    {
      "inputs": [
        {
          "internalType": "uint256",
          "name": "tokenId",
          "type": "uint256"
        }
      ],
      "name": "tokenURI",
      "outputs": [
        {
          "internalType": "string",
          "name": "",
          "type": "string"
        }
      ],
      "stateMutability": "view",
      "type": "function"
    },
    {
      "inputs": [],
      "name": "tokensBurnt",
      "outputs": [
        {
          "internalType": "uint256",
          "name": "",
          "type": "uint256"
        }
      ],
      "stateMutability": "view",
      "type": "function"
    },
    {
      "inputs": [],
      "name": "tokensMinted",
      "outputs": [
        {
          "internalType": "uint256",
          "name": "",
          "type": "uint256"
        }
      ],
      "stateMutability": "view",
      "type": "function"
    },
    {
      "inputs": [],
      "name": "totalSupply",
      "outputs": [
        {
          "internalType": "uint256",
          "name": "",
          "type": "uint256"
        }
      ],
      "stateMutability": "view",
      "type": "function"
    },
    {
      "inputs": [
        {
          "internalType": "address",
          "name": "from",
          "type": "address"
        },
        {
          "internalType": "address",
          "name": "to",
          "type": "address"
        },
        {
          "internalType": "uint256",
          "name": "tokenId",
          "type": "uint256"
        }
      ],
      "name": "transferFrom",
      "outputs": [],
      "stateMutability": "nonpayable",
      "type": "function"
    },
    {
      "inputs": [
        {
          "internalType": "address",
          "name": "newOwner",
          "type": "address"
        }
      ],
      "name": "transferOwnership",
      "outputs": [],
      "stateMutability": "nonpayable",
      "type": "function"
    }
  ],
  "bytecode": "0x60806040523480156200001157600080fd5b506040516200670938038062006709833981810160405281019062000037919062000710565b6040518060400160405280600d81526020017f506f6c79446963652064417070000000000000000000000000000000000000008152506040518060400160405280600881526020017f506f6c7944696365000000000000000000000000000000000000000000000000815250620000c3620000b7620001b060201b60201c565b620001b860201b60201c565b8160019080519060200190620000db92919062000513565b508060029080519060200190620000f492919062000513565b5050506040518060400160405280601a81526020017f68747470733a2f2f646963652e7061727461766174652e636f6d000000000000815250601190805190602001906200014492919062000513565b5033600a60006101000a81548173ffffffffffffffffffffffffffffffffffffffff021916908373ffffffffffffffffffffffffffffffffffffffff16021790555062000197826200027c60201b60201c565b620001a8816200036a60201b60201c565b505062000a86565b600033905090565b60008060009054906101000a900473ffffffffffffffffffffffffffffffffffffffff169050816000806101000a81548173ffffffffffffffffffffffffffffffffffffffff021916908373ffffffffffffffffffffffffffffffffffffffff1602179055508173ffffffffffffffffffffffffffffffffffffffff168173ffffffffffffffffffffffffffffffffffffffff167f8be0079c531659141344cd1fd0a4f28419497f9722a3daafe3b4186f6b6457e060405160405180910390a35050565b6200028c620001b060201b60201c565b73ffffffffffffffffffffffffffffffffffffffff16620002b26200045860201b60201c565b73ffffffffffffffffffffffffffffffffffffffff16146200030b576040517f08c379a00000000000000000000000000000000000000000000000000000000081526004016200030290620007bc565b60405180910390fd5b60005b8151811015620003665762000350828281518110620003325762000331620009d5565b5b6020026020010151600d6200048160201b620019b01790919060201c565b80806200035d9062000929565b9150506200030e565b5050565b6200037a620001b060201b60201c565b73ffffffffffffffffffffffffffffffffffffffff16620003a06200045860201b60201c565b73ffffffffffffffffffffffffffffffffffffffff1614620003f9576040517f08c379a0000000000000000000000000000000000000000000000000000000008152600401620003f090620007bc565b60405180910390fd5b60005b815181101562000454576200043e82828151811062000420576200041f620009d5565b5b6020026020010151600d620004a260201b620019ca1790919060201c565b80806200044b9062000929565b915050620003fc565b5050565b60008060009054906101000a900473ffffffffffffffffffffffffffffffffffffffff16905090565b6200049e8183600001620004c360201b620019e41790919060201c565b5050565b620004bf8183600201620004c360201b620019e41790919060201c565b5050565b80826000016000846001015481526020019081526020016000209080519060200190620004f292919062000513565b508160010160008154809291906200050a9062000929565b91905055505050565b8280546200052190620008bd565b90600052602060002090601f01602090048101928262000545576000855562000591565b82601f106200056057805160ff191683800117855562000591565b8280016001018555821562000591579182015b828111156200059057825182559160200191906001019062000573565b5b509050620005a09190620005a4565b5090565b5b80821115620005bf576000816000905550600101620005a5565b5090565b6000620005da620005d48462000807565b620007de565b905080838252602082019050828560208602820111156200060057620005ff62000a38565b5b60005b858110156200065557815167ffffffffffffffff8111156200062a576200062962000a33565b5b808601620006398982620006dd565b8552602085019450602084019350505060018101905062000603565b5050509392505050565b600062000676620006708462000836565b620007de565b90508281526020810184848401111562000695576200069462000a3d565b5b620006a284828562000887565b509392505050565b600082601f830112620006c257620006c162000a33565b5b8151620006d4848260208601620005c3565b91505092915050565b600082601f830112620006f557620006f462000a33565b5b8151620007078482602086016200065f565b91505092915050565b600080604083850312156200072a576200072962000a47565b5b600083015167ffffffffffffffff8111156200074b576200074a62000a42565b5b6200075985828601620006aa565b925050602083015167ffffffffffffffff8111156200077d576200077c62000a42565b5b6200078b85828601620006aa565b9150509250929050565b6000620007a46020836200086c565b9150620007b18262000a5d565b602082019050919050565b60006020820190508181036000830152620007d78162000795565b9050919050565b6000620007ea620007fd565b9050620007f88282620008f3565b919050565b6000604051905090565b600067ffffffffffffffff82111562000825576200082462000a04565b5b602082029050602081019050919050565b600067ffffffffffffffff82111562000854576200085362000a04565b5b6200085f8262000a4c565b9050602081019050919050565b600082825260208201905092915050565b6000819050919050565b60005b83811015620008a75780820151818401526020810190506200088a565b83811115620008b7576000848401525b50505050565b60006002820490506001821680620008d657607f821691505b60208210811415620008ed57620008ec620009a6565b5b50919050565b620008fe8262000a4c565b810181811067ffffffffffffffff8211171562000920576200091f62000a04565b5b80604052505050565b600062000936826200087d565b91507fffffffffffffffffffffffffffffffffffffffffffffffffffffffffffffffff8214156200096c576200096b62000977565b5b600182019050919050565b7f4e487b7100000000000000000000000000000000000000000000000000000000600052601160045260246000fd5b7f4e487b7100000000000000000000000000000000000000000000000000000000600052602260045260246000fd5b7f4e487b7100000000000000000000000000000000000000000000000000000000600052603260045260246000fd5b7f4e487b7100000000000000000000000000000000000000000000000000000000600052604160045260246000fd5b600080fd5b600080fd5b600080fd5b600080fd5b600080fd5b6000601f19601f8301169050919050565b7f4f776e61626c653a2063616c6c6572206973206e6f7420746865206f776e6572600082015250565b615c738062000a966000396000f3fe6080604052600436106101ee5760003560e01c8063715018a61161010d578063b0d8b51f116100a0578063e0db03be1161006f578063e0db03be1461073d578063e1dc076114610768578063e985e9c5146107a9578063f2fde38b146107e6578063ff7afe871461080f576101ee565b8063b0d8b51f14610681578063b88d4fde146106ac578063c6ead8af146106d5578063c87b56dd14610700576101ee565b80638da5cb5b116100dc5780638da5cb5b146105c557806395d89b41146105f0578063a22cb4651461061b578063af6f8e7d14610644576101ee565b8063715018a61461050b57806372b22b9d14610522578063836387101461055f5780638d13a70a1461059c576101ee565b806334c9d34e116101855780636352211e116101545780636352211e146104295780636618196c146104665780636de9f32b146104a357806370a08231146104ce576101ee565b806334c9d34e1461037057806338eba42a146103ae57806342842e0e146103d757806355f804b314610400576101ee565b806318160ddd116101c157806318160ddd146102c15780631b04f34c146102ec57806323b872dd1461030a5780632f745c5914610333576101ee565b806301ffc9a7146101f357806306fdde0314610230578063081812fc1461025b578063095ea7b314610298575b600080fd5b3480156101ff57600080fd5b5061021a60048036038101906102159190614205565b610838565b6040516102279190614b0e565b60405180910390f35b34801561023c57600080fd5b5061024561091a565b6040516102529190614b29565b60405180910390f35b34801561026757600080fd5b50610282600480360381019061027d91906142ac565b6109ac565b60405161028f9190614a63565b60405180910390f35b3480156102a457600080fd5b506102bf60048036038101906102ba919061417c565b610a31565b005b3480156102cd57600080fd5b506102d6610b49565b6040516102e39190614ee5565b60405180910390f35b6102f4610b60565b6040516103019190614ee5565b60405180910390f35b34801561031657600080fd5b50610331600480360381019061032c9190613f1d565b610cb9565b005b34801561033f57600080fd5b5061035a6004803603810190610355919061417c565b610d19565b6040516103679190614eca565b60405180910390f35b34801561037c57600080fd5b5061039760048036038101906103929190614319565b610de2565b6040516103a5929190614b4b565b60405180910390f35b3480156103ba57600080fd5b506103d560048036038101906103d091906140cd565b610df7565b005b3480156103e357600080fd5b506103fe60048036038101906103f99190613f1d565b610eb2565b005b34801561040c57600080fd5b506104276004803603810190610422919061425f565b610ed2565b005b34801561043557600080fd5b50610450600480360381019061044b91906142ac565b610f64565b60405161045d9190614a63565b60405180910390f35b34801561047257600080fd5b5061048d60048036038101906104889190613eb0565b611016565b60405161049a9190614aca565b60405180910390f35b3480156104af57600080fd5b506104b86110d5565b6040516104c59190614ee5565b60405180910390f35b3480156104da57600080fd5b506104f560048036038101906104f09190613eb0565b6110db565b6040516105029190614ee5565b60405180910390f35b34801561051757600080fd5b50610520611193565b005b34801561052e57600080fd5b5061054960048036038101906105449190614033565b61121b565b6040516105569190614ee5565b60405180910390f35b34801561056b57600080fd5b50610586600480360381019061058191906142ac565b611329565b6040516105939190614a63565b60405180910390f35b3480156105a857600080fd5b506105c360048036038101906105be91906141bc565b61133b565b005b3480156105d157600080fd5b506105da611408565b6040516105e79190614a63565b60405180910390f35b3480156105fc57600080fd5b50610605611431565b6040516106129190614b29565b60405180910390f35b34801561062757600080fd5b50610642600480360381019061063d9190613ff3565b6114c3565b005b34801561065057600080fd5b5061066b600480360381019061066691906142d9565b6114d9565b6040516106789190614f8a565b60405180910390f35b34801561068d57600080fd5b506106966114f9565b6040516106a39190614aec565b60405180910390f35b3480156106b857600080fd5b506106d360048036038101906106ce9190613f70565b6115a9565b005b3480156106e157600080fd5b506106ea61160b565b6040516106f79190614ee5565b60405180910390f35b34801561070c57600080fd5b50610727600480360381019061072291906142ac565b611611565b6040516107349190614b29565b60405180910390f35b34801561074957600080fd5b5061075261169e565b60405161075f9190614ee5565b60405180910390f35b34801561077457600080fd5b5061078f600480360381019061078a91906142ac565b611727565b6040516107a0959493929190614b82565b60405180910390f35b3480156107b557600080fd5b506107d060048036038101906107cb9190613edd565b611757565b6040516107dd9190614b0e565b60405180910390f35b3480156107f257600080fd5b5061080d60048036038101906108089190613eb0565b6117eb565b005b34801561081b57600080fd5b50610836600480360381019061083191906141bc565b6118e3565b005b60007f80ac58cd000000000000000000000000000000000000000000000000000000007bffffffffffffffffffffffffffffffffffffffffffffffffffffffff1916827bffffffffffffffffffffffffffffffffffffffffffffffffffffffff1916148061090357507f5b5e139f000000000000000000000000000000000000000000000000000000007bffffffffffffffffffffffffffffffffffffffffffffffffffffffff1916827bffffffffffffffffffffffffffffffffffffffffffffffffffffffff1916145b80610913575061091282611a30565b5b9050919050565b606060018054610929906152f0565b80601f0160208091040260200160405190810160405280929190818152602001828054610955906152f0565b80156109a25780601f10610977576101008083540402835291602001916109a2565b820191906000526020600020905b81548152906001019060200180831161098557829003601f168201915b5050505050905090565b60006109b782611a9a565b6109f6576040517f08c379a00000000000000000000000000000000000000000000000000000000081526004016109ed90614dca565b60405180910390fd5b6005600083815260200190815260200160002060009054906101000a900473ffffffffffffffffffffffffffffffffffffffff169050919050565b6000610a3c82610f64565b90508073ffffffffffffffffffffffffffffffffffffffff168373ffffffffffffffffffffffffffffffffffffffff161415610aad576040517f08c379a0000000000000000000000000000000000000000000000000000000008152600401610aa490614e6a565b60405180910390fd5b8073ffffffffffffffffffffffffffffffffffffffff16610acc611b06565b73ffffffffffffffffffffffffffffffffffffffff161480610afb5750610afa81610af5611b06565b611757565b5b610b3a576040517f08c379a0000000000000000000000000000000000000000000000000000000008152600401610b3190614d4a565b60405180910390fd5b610b448383611b0e565b505050565b6000600954600854610b5b91906151eb565b905090565b60008066038d7ea4c68000905080341015610bb0576040517f08c379a0000000000000000000000000000000000000000000000000000000008152600401610ba790614eaa565b60405180910390fd5b8034610bbc91906151ba565b915060005b82811015610be557610bd161169e565b508080610bdd9061537e565b915050610bc1565b506000600a60009054906101000a900473ffffffffffffffffffffffffffffffffffffffff1673ffffffffffffffffffffffffffffffffffffffff1634604051610c2e90614a4e565b60006040518083038185875af1925050503d8060008114610c6b576040519150601f19603f3d011682016040523d82523d6000602084013e610c70565b606091505b5050905080610cb4576040517f08c379a0000000000000000000000000000000000000000000000000000000008152600401610cab90614cca565b60405180910390fd5b505090565b610cca610cc4611b06565b82611bc7565b610d09576040517f08c379a0000000000000000000000000000000000000000000000000000000008152600401610d0090614e8a565b60405180910390fd5b610d14838383611ca5565b505050565b6000610d24836110db565b8210610d65576040517f08c379a0000000000000000000000000000000000000000000000000000000008152600401610d5c90614e4a565b60405180910390fd5b600760008473ffffffffffffffffffffffffffffffffffffffff1673ffffffffffffffffffffffffffffffffffffffff1681526020019081526020016000208281548110610db657610db56154e5565b5b90600052602060002090601091828204019190066002029054906101000a900461ffff16905092915050565b606080610dee83611f0c565b91509150915091565b610dff611b06565b73ffffffffffffffffffffffffffffffffffffffff16610e1d611408565b73ffffffffffffffffffffffffffffffffffffffff1614610e73576040517f08c379a0000000000000000000000000000000000000000000000000000000008152600401610e6a90614dea565b60405180910390fd5b60005b8161ffff168161ffff161015610ea857610e9488888888888861121b565b508080610ea090615353565b915050610e76565b5050505050505050565b610ecd838383604051806020016040528060008152506115a9565b505050565b610eda611b06565b73ffffffffffffffffffffffffffffffffffffffff16610ef8611408565b73ffffffffffffffffffffffffffffffffffffffff1614610f4e576040517f08c379a0000000000000000000000000000000000000000000000000000000008152600401610f4590614dea565b60405180910390fd5b818160119190610f5f929190613b02565b505050565b6000806003600084815260200190815260200160002060009054906101000a900473ffffffffffffffffffffffffffffffffffffffff169050600073ffffffffffffffffffffffffffffffffffffffff168173ffffffffffffffffffffffffffffffffffffffff16141561100d576040517f08c379a000000000000000000000000000000000000000000000000000000000815260040161100490614d8a565b60405180910390fd5b80915050919050565b6060600760008373ffffffffffffffffffffffffffffffffffffffff1673ffffffffffffffffffffffffffffffffffffffff1681526020019081526020016000208054806020026020016040519081016040528092919081815260200182805480156110c957602002820191906000526020600020906000905b82829054906101000a900461ffff1661ffff16815260200190600201906020826001010492830192600103820291508084116110905790505b50505050509050919050565b60085481565b60008073ffffffffffffffffffffffffffffffffffffffff168273ffffffffffffffffffffffffffffffffffffffff16141561114c576040517f08c379a000000000000000000000000000000000000000000000000000000000815260040161114390614d6a565b60405180910390fd5b600460008373ffffffffffffffffffffffffffffffffffffffff1673ffffffffffffffffffffffffffffffffffffffff168152602001908152602001600020549050919050565b61119b611b06565b73ffffffffffffffffffffffffffffffffffffffff166111b9611408565b73ffffffffffffffffffffffffffffffffffffffff161461120f576040517f08c379a000000000000000000000000000000000000000000000000000000000815260040161120690614dea565b60405180910390fd5b611219600061277f565b565b6000611225611b06565b73ffffffffffffffffffffffffffffffffffffffff16611243611408565b73ffffffffffffffffffffffffffffffffffffffff1614611299576040517f08c379a000000000000000000000000000000000000000000000000000000000815260040161129090614dea565b60405180910390fd5b60006112a5600b612843565b90506113078188888080601f016020809104026020016040519081016040528093929190818152602001838380828437600081840152601f19601f82011690508083019250505050505050878787600c6128519095949392919063ffffffff16565b61131188826129a3565b61131b600b6129c1565b809150509695505050505050565b600061133482610f64565b9050919050565b611343611b06565b73ffffffffffffffffffffffffffffffffffffffff16611361611408565b73ffffffffffffffffffffffffffffffffffffffff16146113b7576040517f08c379a00000000000000000000000000000000000000000000000000000000081526004016113ae90614dea565b60405180910390fd5b60005b8151811015611404576113f18282815181106113d9576113d86154e5565b5b6020026020010151600d6119ca90919063ffffffff16565b80806113fc9061537e565b9150506113ba565b5050565b60008060009054906101000a900473ffffffffffffffffffffffffffffffffffffffff16905090565b606060028054611440906152f0565b80601f016020809104026020016040519081016040528092919081815260200182805461146c906152f0565b80156114b95780601f1061148e576101008083540402835291602001916114b9565b820191906000526020600020905b81548152906001019060200180831161149c57829003601f168201915b5050505050905090565b6114d56114ce611b06565b83836129d7565b5050565b60006114f18383600c612b449092919063ffffffff16565b905092915050565b60606000611506336110db565b905060008167ffffffffffffffff81111561152457611523615514565b5b6040519080825280602002602001820160405280156115525781602001602082028036833780820191505090505b50905060005b828110156115a05761156a3382610d19565b61ffff16828281518110611581576115806154e5565b5b60200260200101818152505080806115989061537e565b915050611558565b50809250505090565b6115ba6115b4611b06565b83611bc7565b6115f9576040517f08c379a00000000000000000000000000000000000000000000000000000000081526004016115f090614e8a565b60405180910390fd5b61160584848484612bd7565b50505050565b60095481565b606061161c82611a9a565b61165b576040517f08c379a000000000000000000000000000000000000000000000000000000000815260040161165290614e0a565b60405180910390fd5b611663612c33565b61167783600c612cc590919063ffffffff16565b60405160200161168892919061496e565b6040516020818303038152906040529050919050565b6000806116ab600b612843565b905060006116c382600d612da590919063ffffffff16565b905060006116d083612de3565b905060006116dd84612e42565b905060006116ea85612e77565b90506117088585858585600c6128519095949392919063ffffffff16565b61171233866129a3565b61171c600b6129c1565b849550505050505090565b60606000606080600061174486600c612eac90919063ffffffff16565b9450945094509450945091939590929450565b6000600660008473ffffffffffffffffffffffffffffffffffffffff1673ffffffffffffffffffffffffffffffffffffffff16815260200190815260200160002060008373ffffffffffffffffffffffffffffffffffffffff1673ffffffffffffffffffffffffffffffffffffffff16815260200190815260200160002060009054906101000a900460ff16905092915050565b6117f3611b06565b73ffffffffffffffffffffffffffffffffffffffff16611811611408565b73ffffffffffffffffffffffffffffffffffffffff1614611867576040517f08c379a000000000000000000000000000000000000000000000000000000000815260040161185e90614dea565b60405180910390fd5b600073ffffffffffffffffffffffffffffffffffffffff168173ffffffffffffffffffffffffffffffffffffffff1614156118d7576040517f08c379a00000000000000000000000000000000000000000000000000000000081526004016118ce90614c4a565b60405180910390fd5b6118e08161277f565b50565b6118eb611b06565b73ffffffffffffffffffffffffffffffffffffffff16611909611408565b73ffffffffffffffffffffffffffffffffffffffff161461195f576040517f08c379a000000000000000000000000000000000000000000000000000000000815260040161195690614dea565b60405180910390fd5b60005b81518110156119ac57611999828281518110611981576119806154e5565b5b6020026020010151600d6119b090919063ffffffff16565b80806119a49061537e565b915050611962565b5050565b6119c681836000016119e490919063ffffffff16565b5050565b6119e081836002016119e490919063ffffffff16565b5050565b80826000016000846001015481526020019081526020016000209080519060200190611a11929190613b88565b50816001016000815480929190611a279061537e565b91905055505050565b60007f01ffc9a7000000000000000000000000000000000000000000000000000000007bffffffffffffffffffffffffffffffffffffffffffffffffffffffff1916827bffffffffffffffffffffffffffffffffffffffffffffffffffffffff1916149050919050565b60008073ffffffffffffffffffffffffffffffffffffffff166003600084815260200190815260200160002060009054906101000a900473ffffffffffffffffffffffffffffffffffffffff1673ffffffffffffffffffffffffffffffffffffffff1614159050919050565b600033905090565b816005600083815260200190815260200160002060006101000a81548173ffffffffffffffffffffffffffffffffffffffff021916908373ffffffffffffffffffffffffffffffffffffffff160217905550808273ffffffffffffffffffffffffffffffffffffffff16611b8183610f64565b73ffffffffffffffffffffffffffffffffffffffff167f8c5be1e5ebec7d5bd14f71427d1e84f3dd0314c0f7b2291e5b200ac8c7c3b92560405160405180910390a45050565b6000611bd282611a9a565b611c11576040517f08c379a0000000000000000000000000000000000000000000000000000000008152600401611c0890614d2a565b60405180910390fd5b6000611c1c83610f64565b90508073ffffffffffffffffffffffffffffffffffffffff168473ffffffffffffffffffffffffffffffffffffffff161480611c8b57508373ffffffffffffffffffffffffffffffffffffffff16611c73846109ac565b73ffffffffffffffffffffffffffffffffffffffff16145b80611c9c5750611c9b8185611757565b5b91505092915050565b8273ffffffffffffffffffffffffffffffffffffffff16611cc582610f64565b73ffffffffffffffffffffffffffffffffffffffff1614611d1b576040517f08c379a0000000000000000000000000000000000000000000000000000000008152600401611d1290614c6a565b60405180910390fd5b600073ffffffffffffffffffffffffffffffffffffffff168273ffffffffffffffffffffffffffffffffffffffff161415611d8b576040517f08c379a0000000000000000000000000000000000000000000000000000000008152600401611d8290614cea565b60405180910390fd5b611d96838383612ff2565b611da1600082611b0e565b6001600460008573ffffffffffffffffffffffffffffffffffffffff1673ffffffffffffffffffffffffffffffffffffffff1681526020019081526020016000206000828254611df191906151eb565b925050819055506001600460008473ffffffffffffffffffffffffffffffffffffffff1673ffffffffffffffffffffffffffffffffffffffff1681526020019081526020016000206000828254611e48919061512d565b92505081905550816003600083815260200190815260200160002060006101000a81548173ffffffffffffffffffffffffffffffffffffffff021916908373ffffffffffffffffffffffffffffffffffffffff160217905550808273ffffffffffffffffffffffffffffffffffffffff168473ffffffffffffffffffffffffffffffffffffffff167fddf252ad1be2c89b69c2b068fc378daa952ba7f163c4a11628f55a4df523b3ef60405160405180910390a4611f078383836130ea565b505050565b606080601e8360ff161115611f56576040517f08c379a0000000000000000000000000000000000000000000000000000000008152600401611f4d90614caa565b60405180910390fd5b60008360ff1610158015611f6e575060038360ff1611155b15611fb0576040518060400160405280600681526020017f303031333465000000000000000000000000000000000000000000000000000081525090506123ed565b60048360ff1610158015611fc8575060078360ff1611155b1561200a576040518060400160405280600681526020017f316131613161000000000000000000000000000000000000000000000000000081525090506123ec565b60088360ff16101580156120225750600a8360ff1611155b15612064576040518060400160405280600681526020017f666666666666000000000000000000000000000000000000000000000000000081525090506123eb565b600b8360ff161015801561207c5750600d8360ff1611155b156120be576040518060400160405280600681526020017f353535373533000000000000000000000000000000000000000000000000000081525090506123ea565b600e8360ff16101580156120d6575060108360ff1611155b15612118576040518060400160405280600681526020017f386231306430000000000000000000000000000000000000000000000000000081525090506123e9565b60118360ff1610158015612130575060138360ff1611155b15612172576040518060400160405280600681526020017f656364633139000000000000000000000000000000000000000000000000000081525090506123e8565b60148360ff161480612187575060158360ff16145b156121c9576040518060400160405280600681526020017f343038666464000000000000000000000000000000000000000000000000000081525090506123e7565b60168360ff1614806121de575060178360ff16145b15612220576040518060400160405280600681526020017f333137613236000000000000000000000000000000000000000000000000000081525090506123e6565b60188360ff161480612235575060198360ff16145b15612277576040518060400160405280600681526020017f663231643061000000000000000000000000000000000000000000000000000081525090506123e5565b601a8360ff1614156122c0576040518060400160405280600681526020017f383866663434000000000000000000000000000000000000000000000000000081525090506123e4565b601b8360ff161415612309576040518060400160405280600681526020017f643039633130000000000000000000000000000000000000000000000000000081525090506123e3565b601c8360ff161415612352576040518060400160405280600681526020017f656635346461000000000000000000000000000000000000000000000000000081525090506123e2565b601d8360ff16141561239b576040518060400160405280600681526020017f346530303030000000000000000000000000000000000000000000000000000081525090506123e1565b601e8360ff1614156123e0576040518060400160405280600681526020017f303030306666000000000000000000000000000000000000000000000000000081525090505b5b5b5b5b5b5b5b5b5b5b5b5b5b60008360ff161480612402575060048360ff16145b80612410575060088360ff16145b8061241e575060118360ff16145b8061242c5750601a8360ff16145b1561246e576040518060400160405280600681526020017f3030303066660000000000000000000000000000000000000000000000000000815250915061277a565b60018360ff161480612483575060058360ff16145b156124c5576040518060400160405280600681526020017f30306666303000000000000000000000000000000000000000000000000000008152509150612779565b60028360ff1614806124da575060068360ff16145b806124e85750600a8360ff16145b806124f6575060138360ff16145b806125045750601c8360ff16145b15612546576040518060400160405280600681526020017f66663030303000000000000000000000000000000000000000000000000000008152509150612778565b60038360ff16148061255b575060078360ff16145b806125695750600d8360ff16145b80612577575060108360ff16145b80612585575060158360ff16145b80612593575060178360ff16145b806125a1575060198360ff16145b806125af5750601d8360ff16145b806125bd5750601e8360ff16145b156125ff576040518060400160405280600681526020017f66666666666600000000000000000000000000000000000000000000000000008152509150612777565b60098360ff1614806126145750600b8360ff16145b806126225750600e8360ff16145b80612630575060128360ff16145b8061263e575060148360ff16145b8061264c5750601b8360ff16145b1561268e576040518060400160405280600681526020017f30303030303000000000000000000000000000000000000000000000000000008152509150612776565b600c8360ff1614806126a3575060168360ff16145b156126e5576040518060400160405280600681526020017f38386666383800000000000000000000000000000000000000000000000000008152509150612775565b600f8360ff16141561272e576040518060400160405280600681526020017f36366363363600000000000000000000000000000000000000000000000000008152509150612774565b60188360ff161415612773576040518060400160405280600681526020017f383830303030000000000000000000000000000000000000000000000000000081525091505b5b5b5b5b5b5b5b915091565b60008060009054906101000a900473ffffffffffffffffffffffffffffffffffffffff169050816000806101000a81548173ffffffffffffffffffffffffffffffffffffffff021916908373ffffffffffffffffffffffffffffffffffffffff1602179055508173ffffffffffffffffffffffffffffffffffffffff168173ffffffffffffffffffffffffffffffffffffffff167f8be0079c531659141344cd1fd0a4f28419497f9722a3daafe3b4186f6b6457e060405160405180910390a35050565b600081600001549050919050565b60008360ff1611612897576040517f08c379a000000000000000000000000000000000000000000000000000000000815260040161288e90614bea565b60405180910390fd5b6000600a8460ff16146128ab5760006128ae565b60015b90506040518060a001604052808681526020018560ff1681526020018460ff1681526020018360ff1681526020018215158152508760000160008881526020019081526020016000206000820151816000019080519060200190612913929190613b88565b5060208201518160010160006101000a81548160ff021916908360ff16021790555060408201518160010160016101000a81548160ff021916908360ff16021790555060608201518160010160026101000a81548160ff021916908360ff16021790555060808201518160010160036101000a81548160ff02191690831515021790555090505050505050505050565b6129bd8282604051806020016040528060008152506130ef565b5050565b6001816000016000828254019250508190555050565b8173ffffffffffffffffffffffffffffffffffffffff168373ffffffffffffffffffffffffffffffffffffffff161415612a46576040517f08c379a0000000000000000000000000000000000000000000000000000000008152600401612a3d90614d0a565b60405180910390fd5b80600660008573ffffffffffffffffffffffffffffffffffffffff1673ffffffffffffffffffffffffffffffffffffffff16815260200190815260200160002060008473ffffffffffffffffffffffffffffffffffffffff1673ffffffffffffffffffffffffffffffffffffffff16815260200190815260200160002060006101000a81548160ff0219169083151502179055508173ffffffffffffffffffffffffffffffffffffffff168373ffffffffffffffffffffffffffffffffffffffff167f17307eab39ab6107e8899845ad3d59bd9653f200f220920489ca2b5937696c3183604051612b379190614b0e565b60405180910390a3505050565b60008084600001600085815260200190815260200160002060010160039054906101000a900460ff16612b78576001612b7b565b60005b905060008160ff1686600001600087815260200190815260200160002060010160009054906101000a900460ff1660ff16612bb58661314a565b612bbf91906153c7565b612bc9919061512d565b905080925050509392505050565b612be2848484611ca5565b612bee84848484613183565b612c2d576040517f08c379a0000000000000000000000000000000000000000000000000000000008152600401612c2490614c2a565b60405180910390fd5b50505050565b606060118054612c42906152f0565b80601f0160208091040260200160405190810160405280929190818152602001828054612c6e906152f0565b8015612cbb5780601f10612c9057610100808354040283529160200191612cbb565b820191906000526020600020905b815481529060010190602001808311612c9e57829003601f168201915b5050505050905090565b6060600080612cf885600001600086815260200190815260200160002060010160019054906101000a900460ff16611f0c565b91509150846000016000858152602001908152602001600020600001612d4586600001600087815260200190815260200160002060010160009054906101000a900460ff1660ff1661331a565b8383612d788960000160008a815260200190815260200160002060010160029054906101000a900460ff1660ff1661331a565b604051602001612d8c9594939291906149c1565b6040516020818303038152906040529250505092915050565b6060612db1838361347b565b612dbb8484613524565b604051602001612dcc929190614992565b604051602081830303815290604052905092915050565b6000806040518060400160405280600660ff168152602001601460ff16815250905060006002612e128561314a565b612e1c91906153f8565b9050818160ff1660028110612e3457612e336154e5565b5b602002015192505050919050565b600080601e90506000600182612e589190615183565b612e618561314a565b612e6b91906153f8565b90508092505050919050565b600080600190506000600182612e8d9190615183565b612e968561314a565b612ea091906153f8565b90508092505050919050565b606060006060806000806000612ee68960000160008a815260200190815260200160002060010160019054906101000a900460ff16611f0c565b915091508860000160008981526020019081526020016000206000018960000160008a815260200190815260200160002060010160009054906101000a900460ff1683838c60000160008d815260200190815260200160002060010160029054906101000a900460ff16848054612f5c906152f0565b80601f0160208091040260200160405190810160405280929190818152602001828054612f88906152f0565b8015612fd55780601f10612faa57610100808354040283529160200191612fd5565b820191906000526020600020905b815481529060010190602001808311612fb857829003601f168201915b505050505094509650965096509650965050509295509295909350565b612ffd8383836135cd565b8273ffffffffffffffffffffffffffffffffffffffff168273ffffffffffffffffffffffffffffffffffffffff16146130e55761303a82826135d2565b600073ffffffffffffffffffffffffffffffffffffffff168373ffffffffffffffffffffffffffffffffffffffff161461307d57613078838261365d565b613096565b600860008154809291906130909061537e565b91905055505b600073ffffffffffffffffffffffffffffffffffffffff168273ffffffffffffffffffffffffffffffffffffffff1614156130e457600960008154809291906130de9061537e565b91905055505b5b505050565b505050565b6130f9838361385c565b6131066000848484613183565b613145576040517f08c379a000000000000000000000000000000000000000000000000000000000815260040161313c90614c2a565b60405180910390fd5b505050565b6000444233846040516020016131639493929190614f00565b6040516020818303038152906040528051906020012060001c9050919050565b60006131a48473ffffffffffffffffffffffffffffffffffffffff16613a36565b1561330d578373ffffffffffffffffffffffffffffffffffffffff1663150b7a026131cd611b06565b8786866040518563ffffffff1660e01b81526004016131ef9493929190614a7e565b602060405180830381600087803b15801561320957600080fd5b505af192505050801561323a57506040513d601f19601f820116820180604052508101906132379190614232565b60015b6132bd573d806000811461326a576040519150601f19603f3d011682016040523d82523d6000602084013e61326f565b606091505b506000815114156132b5576040517f08c379a00000000000000000000000000000000000000000000000000000000081526004016132ac90614c2a565b60405180910390fd5b805181602001fd5b63150b7a0260e01b7bffffffffffffffffffffffffffffffffffffffffffffffffffffffff1916817bffffffffffffffffffffffffffffffffffffffffffffffffffffffff191614915050613312565b600190505b949350505050565b60606000821415613362576040518060400160405280600181526020017f30000000000000000000000000000000000000000000000000000000000000008152509050613476565b600082905060005b6000821461339457808061337d9061537e565b915050600a8261338d91906151ba565b915061336a565b60008167ffffffffffffffff8111156133b0576133af615514565b5b6040519080825280601f01601f1916602001820160405280156133e25781602001600182028036833780820191505090505b5090505b6000851461346f576001826133fb91906151eb565b9150600a8561340a91906153c7565b6030613416919061512d565b60f81b81838151811061342c5761342b6154e5565b5b60200101907effffffffffffffffffffffffffffffffffffffffffffffffffffffffffffff1916908160001a905350600a8561346891906151ba565b94506133e6565b8093505050505b919050565b60606134938284600001613a5990919063ffffffff16565b805461349e906152f0565b80601f01602080910402602001604051908101604052809291908181526020018280546134ca906152f0565b80156135175780601f106134ec57610100808354040283529160200191613517565b820191906000526020600020905b8154815290600101906020018083116134fa57829003601f168201915b5050505050905092915050565b606061353c8284600201613a5990919063ffffffff16565b8054613547906152f0565b80601f0160208091040260200160405190810160405280929190818152602001828054613573906152f0565b80156135c05780601f10613595576101008083540402835291602001916135c0565b820191906000526020600020905b8154815290600101906020018083116135a357829003601f168201915b5050505050905092915050565b505050565b600760008373ffffffffffffffffffffffffffffffffffffffff1673ffffffffffffffffffffffffffffffffffffffff1681526020019081526020016000208190806001815401808255809150506001900390600052602060002090601091828204019190066002029091909190916101000a81548161ffff021916908361ffff1602179055505050565b6000600760008473ffffffffffffffffffffffffffffffffffffffff1673ffffffffffffffffffffffffffffffffffffffff168152602001908152602001600020905060008180549050905060005b8280549050811015613719578361ffff168382815481106136d0576136cf6154e5565b5b90600052602060002090601091828204019190066002029054906101000a900461ffff1661ffff16141561370657809150613719565b80806137119061537e565b9150506136ac565b5081805490508110613760576040517f08c379a000000000000000000000000000000000000000000000000000000000815260040161375790614c0a565b60405180910390fd5b60008190505b6001838054905061377791906151eb565b811015613816578260018261378c919061512d565b8154811061379d5761379c6154e5565b5b90600052602060002090601091828204019190066002029054906101000a900461ffff168382815481106137d4576137d36154e5565b5b90600052602060002090601091828204019190066002026101000a81548161ffff021916908361ffff160217905550808061380e9061537e565b915050613766565b5081805480613828576138276154b6565b5b60019003818190600052602060002090601091828204019190066002026101000a81549061ffff0219169055905550505050565b600073ffffffffffffffffffffffffffffffffffffffff168273ffffffffffffffffffffffffffffffffffffffff1614156138cc576040517f08c379a00000000000000000000000000000000000000000000000000000000081526004016138c390614daa565b60405180910390fd5b6138d581611a9a565b15613915576040517f08c379a000000000000000000000000000000000000000000000000000000000815260040161390c90614c8a565b60405180910390fd5b61392160008383612ff2565b6001600460008473ffffffffffffffffffffffffffffffffffffffff1673ffffffffffffffffffffffffffffffffffffffff1681526020019081526020016000206000828254613971919061512d565b92505081905550816003600083815260200190815260200160002060006101000a81548173ffffffffffffffffffffffffffffffffffffffff021916908373ffffffffffffffffffffffffffffffffffffffff160217905550808273ffffffffffffffffffffffffffffffffffffffff16600073ffffffffffffffffffffffffffffffffffffffff167fddf252ad1be2c89b69c2b068fc378daa952ba7f163c4a11628f55a4df523b3ef60405160405180910390a4613a32600083836130ea565b5050565b6000808273ffffffffffffffffffffffffffffffffffffffff163b119050919050565b600080836001015411613aa1576040517f08c379a0000000000000000000000000000000000000000000000000000000008152600401613a9890614e2a565b60405180910390fd5b6000836001015444423386604051602001613abf9493929190614f45565b6040516020818303038152906040528051906020012060001c613ae291906153c7565b905083600001600082815260200190815260200160002091505092915050565b828054613b0e906152f0565b90600052602060002090601f016020900481019282613b305760008555613b77565b82601f10613b4957803560ff1916838001178555613b77565b82800160010185558215613b77579182015b82811115613b76578235825591602001919060010190613b5b565b5b509050613b849190613c0e565b5090565b828054613b94906152f0565b90600052602060002090601f016020900481019282613bb65760008555613bfd565b82601f10613bcf57805160ff1916838001178555613bfd565b82800160010185558215613bfd579182015b82811115613bfc578251825591602001919060010190613be1565b5b509050613c0a9190613c0e565b5090565b5b80821115613c27576000816000905550600101613c0f565b5090565b6000613c3e613c3984614fca565b614fa5565b90508083825260208201905082856020860282011115613c6157613c6061554d565b5b60005b85811015613caf57813567ffffffffffffffff811115613c8757613c86615548565b5b808601613c948982613e43565b85526020850194506020840193505050600181019050613c64565b5050509392505050565b6000613ccc613cc784614ff6565b614fa5565b905082815260208101848484011115613ce857613ce7615552565b5b613cf38482856152ae565b509392505050565b6000613d0e613d0984615027565b614fa5565b905082815260208101848484011115613d2a57613d29615552565b5b613d358482856152ae565b509392505050565b600081359050613d4c81615bb3565b92915050565b600082601f830112613d6757613d66615548565b5b8135613d77848260208601613c2b565b91505092915050565b600081359050613d8f81615bca565b92915050565b600081359050613da481615be1565b92915050565b600081519050613db981615be1565b92915050565b600082601f830112613dd457613dd3615548565b5b8135613de4848260208601613cb9565b91505092915050565b60008083601f840112613e0357613e02615548565b5b8235905067ffffffffffffffff811115613e2057613e1f615543565b5b602083019150836001820283011115613e3c57613e3b61554d565b5b9250929050565b600082601f830112613e5857613e57615548565b5b8135613e68848260208601613cfb565b91505092915050565b600081359050613e8081615bf8565b92915050565b600081359050613e9581615c0f565b92915050565b600081359050613eaa81615c26565b92915050565b600060208284031215613ec657613ec561555c565b5b6000613ed484828501613d3d565b91505092915050565b60008060408385031215613ef457613ef361555c565b5b6000613f0285828601613d3d565b9250506020613f1385828601613d3d565b9150509250929050565b600080600060608486031215613f3657613f3561555c565b5b6000613f4486828701613d3d565b9350506020613f5586828701613d3d565b9250506040613f6686828701613e86565b9150509250925092565b60008060008060808587031215613f8a57613f8961555c565b5b6000613f9887828801613d3d565b9450506020613fa987828801613d3d565b9350506040613fba87828801613e86565b925050606085013567ffffffffffffffff811115613fdb57613fda615557565b5b613fe787828801613dbf565b91505092959194509250565b6000806040838503121561400a5761400961555c565b5b600061401885828601613d3d565b925050602061402985828601613d80565b9150509250929050565b60008060008060008060a087890312156140505761404f61555c565b5b600061405e89828a01613d3d565b965050602087013567ffffffffffffffff81111561407f5761407e615557565b5b61408b89828a01613ded565b9550955050604061409e89828a01613e9b565b93505060606140af89828a01613e9b565b92505060806140c089828a01613e9b565b9150509295509295509295565b600080600080600080600060c0888a0312156140ec576140eb61555c565b5b60006140fa8a828b01613d3d565b975050602088013567ffffffffffffffff81111561411b5761411a615557565b5b6141278a828b01613ded565b9650965050604061413a8a828b01613e9b565b945050606061414b8a828b01613e9b565b935050608061415c8a828b01613e9b565b92505060a061416d8a828b01613e71565b91505092959891949750929550565b600080604083850312156141935761419261555c565b5b60006141a185828601613d3d565b92505060206141b285828601613e86565b9150509250929050565b6000602082840312156141d2576141d161555c565b5b600082013567ffffffffffffffff8111156141f0576141ef615557565b5b6141fc84828501613d52565b91505092915050565b60006020828403121561421b5761421a61555c565b5b600061422984828501613d95565b91505092915050565b6000602082840312156142485761424761555c565b5b600061425684828501613daa565b91505092915050565b600080602083850312156142765761427561555c565b5b600083013567ffffffffffffffff81111561429457614293615557565b5b6142a085828601613ded565b92509250509250929050565b6000602082840312156142c2576142c161555c565b5b60006142d084828501613e86565b91505092915050565b600080604083850312156142f0576142ef61555c565b5b60006142fe85828601613e86565b925050602061430f85828601613e71565b9150509250929050565b60006020828403121561432f5761432e61555c565b5b600061433d84828501613e9b565b91505092915050565b60006143528383614923565b60208301905092915050565b600061436a8383614941565b60208301905092915050565b61437f8161521f565b82525050565b60006143908261508d565b61439a81856150d3565b93506143a583615058565b8060005b838110156143d65781516143bd8882614346565b97506143c8836150b9565b9250506001810190506143a9565b5085935050505092915050565b60006143ee82615098565b6143f881856150e4565b935061440383615068565b8060005b8381101561443457815161441b888261435e565b9750614426836150c6565b925050600181019050614407565b5085935050505092915050565b61444a81615231565b82525050565b600061445b826150a3565b61446581856150f5565b93506144758185602086016152bd565b61447e81615561565b840191505092915050565b6000614494826150ae565b61449e8185615111565b93506144ae8185602086016152bd565b6144b781615561565b840191505092915050565b60006144cd826150ae565b6144d78185615122565b93506144e78185602086016152bd565b80840191505092915050565b60008154614500816152f0565b61450a8186615122565b94506001821660008114614525576001811461453657614569565b60ff19831686528186019350614569565b61453f85615078565b60005b8381101561456157815481890152600182019150602081019050614542565b838801955050505b50505092915050565b600061457f601683615111565b915061458a82615572565b602082019050919050565b60006145a2603783615111565b91506145ad8261559b565b604082019050919050565b60006145c5603283615111565b91506145d0826155ea565b604082019050919050565b60006145e8602683615111565b91506145f382615639565b604082019050919050565b600061460b602583615111565b915061461682615688565b604082019050919050565b600061462e601c83615111565b9150614639826156d7565b602082019050919050565b6000614651601283615111565b915061465c82615700565b602082019050919050565b6000614674600983615122565b915061467f82615729565b600982019050919050565b6000614697601483615111565b91506146a282615752565b602082019050919050565b60006146ba602483615111565b91506146c58261577b565b604082019050919050565b60006146dd601983615111565b91506146e8826157ca565b602082019050919050565b6000614700602c83615111565b915061470b826157f3565b604082019050919050565b6000614723600183615122565b915061472e82615842565b600182019050919050565b6000614746603883615111565b91506147518261586b565b604082019050919050565b6000614769602a83615111565b9150614774826158ba565b604082019050919050565b600061478c602983615111565b915061479782615909565b604082019050919050565b60006147af602083615111565b91506147ba82615958565b602082019050919050565b60006147d2602c83615111565b91506147dd82615981565b604082019050919050565b60006147f5602083615111565b9150614800826159d0565b602082019050919050565b6000614818602f83615111565b9150614823826159f9565b604082019050919050565b600061483b600883615111565b915061484682615a48565b602082019050919050565b600061485e603183615111565b915061486982615a71565b604082019050919050565b6000614881602183615111565b915061488c82615ac0565b604082019050919050565b60006148a4600083615106565b91506148af82615b0f565b600082019050919050565b60006148c7603183615111565b91506148d282615b12565b604082019050919050565b60006148ea600f83615111565b91506148f582615b61565b602082019050919050565b600061490d600183615122565b915061491882615b8a565b600182019050919050565b61492c81615269565b82525050565b61493b81615269565b82525050565b61494a81615297565b82525050565b61495981615297565b82525050565b614968816152a1565b82525050565b600061497a82856144c2565b915061498682846144c2565b91508190509392505050565b600061499e82856144c2565b91506149a982614716565b91506149b582846144c2565b91508190509392505050565b60006149cc82614667565b91506149d782614900565b91506149e382886144f3565b91506149ee82614900565b91506149fa82876144c2565b9150614a0582614900565b9150614a1182866144c2565b9150614a1c82614900565b9150614a2882856144c2565b9150614a3382614900565b9150614a3f82846144c2565b91508190509695505050505050565b6000614a5982614897565b9150819050919050565b6000602082019050614a786000830184614376565b92915050565b6000608082019050614a936000830187614376565b614aa06020830186614376565b614aad6040830185614950565b8181036060830152614abf8184614450565b905095945050505050565b60006020820190508181036000830152614ae48184614385565b905092915050565b60006020820190508181036000830152614b0681846143e3565b905092915050565b6000602082019050614b236000830184614441565b92915050565b60006020820190508181036000830152614b438184614489565b905092915050565b60006040820190508181036000830152614b658185614489565b90508181036020830152614b798184614489565b90509392505050565b600060a0820190508181036000830152614b9c8188614489565b9050614bab602083018761495f565b8181036040830152614bbd8186614489565b90508181036060830152614bd18185614489565b9050614be0608083018461495f565b9695505050505050565b60006020820190508181036000830152614c0381614572565b9050919050565b60006020820190508181036000830152614c2381614595565b9050919050565b60006020820190508181036000830152614c43816145b8565b9050919050565b60006020820190508181036000830152614c63816145db565b9050919050565b60006020820190508181036000830152614c83816145fe565b9050919050565b60006020820190508181036000830152614ca381614621565b9050919050565b60006020820190508181036000830152614cc381614644565b9050919050565b60006020820190508181036000830152614ce38161468a565b9050919050565b60006020820190508181036000830152614d03816146ad565b9050919050565b60006020820190508181036000830152614d23816146d0565b9050919050565b60006020820190508181036000830152614d43816146f3565b9050919050565b60006020820190508181036000830152614d6381614739565b9050919050565b60006020820190508181036000830152614d838161475c565b9050919050565b60006020820190508181036000830152614da38161477f565b9050919050565b60006020820190508181036000830152614dc3816147a2565b9050919050565b60006020820190508181036000830152614de3816147c5565b9050919050565b60006020820190508181036000830152614e03816147e8565b9050919050565b60006020820190508181036000830152614e238161480b565b9050919050565b60006020820190508181036000830152614e438161482e565b9050919050565b60006020820190508181036000830152614e6381614851565b9050919050565b60006020820190508181036000830152614e8381614874565b9050919050565b60006020820190508181036000830152614ea3816148ba565b9050919050565b60006020820190508181036000830152614ec3816148dd565b9050919050565b6000602082019050614edf6000830184614932565b92915050565b6000602082019050614efa6000830184614950565b92915050565b6000608082019050614f156000830187614950565b614f226020830186614950565b614f2f6040830185614376565b614f3c6060830184614932565b95945050505050565b6000608082019050614f5a6000830187614950565b614f676020830186614950565b614f746040830185614376565b614f816060830184614950565b95945050505050565b6000602082019050614f9f600083018461495f565b92915050565b6000614faf614fc0565b9050614fbb8282615322565b919050565b6000604051905090565b600067ffffffffffffffff821115614fe557614fe4615514565b5b602082029050602081019050919050565b600067ffffffffffffffff82111561501157615010615514565b5b61501a82615561565b9050602081019050919050565b600067ffffffffffffffff82111561504257615041615514565b5b61504b82615561565b9050602081019050919050565b6000819050602082019050919050565b6000819050602082019050919050565b60008190508160005260206000209050919050565b600081519050919050565b600081519050919050565b600081519050919050565b600081519050919050565b6000602082019050919050565b6000602082019050919050565b600082825260208201905092915050565b600082825260208201905092915050565b600082825260208201905092915050565b600081905092915050565b600082825260208201905092915050565b600081905092915050565b600061513882615297565b915061514383615297565b9250827fffffffffffffffffffffffffffffffffffffffffffffffffffffffffffffffff0382111561517857615177615429565b5b828201905092915050565b600061518e826152a1565b9150615199836152a1565b92508260ff038211156151af576151ae615429565b5b828201905092915050565b60006151c582615297565b91506151d083615297565b9250826151e0576151df615458565b5b828204905092915050565b60006151f682615297565b915061520183615297565b92508282101561521457615213615429565b5b828203905092915050565b600061522a82615277565b9050919050565b60008115159050919050565b60007fffffffff0000000000000000000000000000000000000000000000000000000082169050919050565b600061ffff82169050919050565b600073ffffffffffffffffffffffffffffffffffffffff82169050919050565b6000819050919050565b600060ff82169050919050565b82818337600083830152505050565b60005b838110156152db5780820151818401526020810190506152c0565b838111156152ea576000848401525b50505050565b6000600282049050600182168061530857607f821691505b6020821081141561531c5761531b615487565b5b50919050565b61532b82615561565b810181811067ffffffffffffffff8211171561534a57615349615514565b5b80604052505050565b600061535e82615269565b915061ffff82141561537357615372615429565b5b600182019050919050565b600061538982615297565b91507fffffffffffffffffffffffffffffffffffffffffffffffffffffffffffffffff8214156153bc576153bb615429565b5b600182019050919050565b60006153d282615297565b91506153dd83615297565b9250826153ed576153ec615458565b5b828206905092915050565b6000615403826152a1565b915061540e836152a1565b92508261541e5761541d615458565b5b828206905092915050565b7f4e487b7100000000000000000000000000000000000000000000000000000000600052601160045260246000fd5b7f4e487b7100000000000000000000000000000000000000000000000000000000600052601260045260246000fd5b7f4e487b7100000000000000000000000000000000000000000000000000000000600052602260045260246000fd5b7f4e487b7100000000000000000000000000000000000000000000000000000000600052603160045260246000fd5b7f4e487b7100000000000000000000000000000000000000000000000000000000600052603260045260246000fd5b7f4e487b7100000000000000000000000000000000000000000000000000000000600052604160045260246000fd5b600080fd5b600080fd5b600080fd5b600080fd5b600080fd5b600080fd5b6000601f19601f8301169050919050565b7f5369646573206d757374206265206e6f6e2d7a65726f00000000000000000000600082015250565b7f45524337323153696d706c65456e756d657261626c653a20746f6b656e49642060008201527f6e6f7420666f756e6420696e206f776e6572206c697374000000000000000000602082015250565b7f4552433732313a207472616e7366657220746f206e6f6e20455243373231526560008201527f63656976657220696d706c656d656e7465720000000000000000000000000000602082015250565b7f4f776e61626c653a206e6577206f776e657220697320746865207a65726f206160008201527f6464726573730000000000000000000000000000000000000000000000000000602082015250565b7f4552433732313a207472616e736665722066726f6d20696e636f72726563742060008201527f6f776e6572000000000000000000000000000000000000000000000000000000602082015250565b7f4552433732313a20746f6b656e20616c7265616479206d696e74656400000000600082015250565b7f7374796c65206f7574206f662072616e67650000000000000000000000000000600082015250565b7f2f6d657461646174610000000000000000000000000000000000000000000000600082015250565b7f4661696c656420746f2073656e64206d6f6e6579000000000000000000000000600082015250565b7f4552433732313a207472616e7366657220746f20746865207a65726f2061646460008201527f7265737300000000000000000000000000000000000000000000000000000000602082015250565b7f4552433732313a20617070726f766520746f2063616c6c657200000000000000600082015250565b7f4552433732313a206f70657261746f7220717565727920666f72206e6f6e657860008201527f697374656e7420746f6b656e0000000000000000000000000000000000000000602082015250565b7f2000000000000000000000000000000000000000000000000000000000000000600082015250565b7f4552433732313a20617070726f76652063616c6c6572206973206e6f74206f7760008201527f6e6572206e6f7220617070726f76656420666f7220616c6c0000000000000000602082015250565b7f4552433732313a2062616c616e636520717565727920666f7220746865207a6560008201527f726f206164647265737300000000000000000000000000000000000000000000602082015250565b7f4552433732313a206f776e657220717565727920666f72206e6f6e657869737460008201527f656e7420746f6b656e0000000000000000000000000000000000000000000000602082015250565b7f4552433732313a206d696e7420746f20746865207a65726f2061646472657373600082015250565b7f4552433732313a20617070726f76656420717565727920666f72206e6f6e657860008201527f697374656e7420746f6b656e0000000000000000000000000000000000000000602082015250565b7f4f776e61626c653a2063616c6c6572206973206e6f7420746865206f776e6572600082015250565b7f4552433732314d657461646174613a2055524920717565727920666f72206e6f60008201527f6e6578697374656e7420746f6b656e0000000000000000000000000000000000602082015250565b7f6e6f20776f726473000000000000000000000000000000000000000000000000600082015250565b7f45524337323153696d706c65456e756d657261626c653a206f776e657220696e60008201527f646578206f7574206f6620626f756e6473000000000000000000000000000000602082015250565b7f4552433732313a20617070726f76616c20746f2063757272656e74206f776e6560008201527f7200000000000000000000000000000000000000000000000000000000000000602082015250565b50565b7f4552433732313a207472616e736665722063616c6c6572206973206e6f74206f60008201527f776e6572206e6f7220617070726f766564000000000000000000000000000000602082015250565b7f6e6f7420656e6f75676820636173680000000000000000000000000000000000600082015250565b7f2f00000000000000000000000000000000000000000000000000000000000000600082015250565b615bbc8161521f565b8114615bc757600080fd5b50565b615bd381615231565b8114615bde57600080fd5b50565b615bea8161523d565b8114615bf557600080fd5b50565b615c0181615269565b8114615c0c57600080fd5b50565b615c1881615297565b8114615c2357600080fd5b50565b615c2f816152a1565b8114615c3a57600080fd5b5056fea264697066735822122066709dccca345cc73f6817fa7f9b22fdab58c0309e80fc157cb84f03b57df5ee64736f6c63430008060033",
  "linkReferences": {},
  "deployedLinkReferences": {}
}