{
  "_format": "hh-sol-artifact-1",
  "contractName": "TabletopDiceNFT",
  "sourceName": "contracts/Dice.sol",
  "abi": [
    {
      "inputs": [],
      "stateMutability": "nonpayable",
      "type": "constructor"
    },
    {
      "anonymous": false,
      "inputs": [
        {
          "indexed": true,
          "internalType": "address",
          "name": "owner",
          "type": "address"
        },
        {
          "indexed": true,
          "internalType": "address",
          "name": "approved",
          "type": "address"
        },
        {
          "indexed": true,
          "internalType": "uint256",
          "name": "tokenId",
          "type": "uint256"
        }
      ],
      "name": "Approval",
      "type": "event"
    },
    {
      "anonymous": false,
      "inputs": [
        {
          "indexed": true,
          "internalType": "address",
          "name": "owner",
          "type": "address"
        },
        {
          "indexed": true,
          "internalType": "address",
          "name": "operator",
          "type": "address"
        },
        {
          "indexed": false,
          "internalType": "bool",
          "name": "approved",
          "type": "bool"
        }
      ],
      "name": "ApprovalForAll",
      "type": "event"
    },
    {
      "anonymous": false,
      "inputs": [
        {
          "indexed": true,
          "internalType": "address",
          "name": "previousOwner",
          "type": "address"
        },
        {
          "indexed": true,
          "internalType": "address",
          "name": "newOwner",
          "type": "address"
        }
      ],
      "name": "OwnershipTransferred",
      "type": "event"
    },
    {
      "anonymous": false,
      "inputs": [
        {
          "indexed": true,
          "internalType": "address",
          "name": "from",
          "type": "address"
        },
        {
          "indexed": true,
          "internalType": "address",
          "name": "to",
          "type": "address"
        },
        {
          "indexed": true,
          "internalType": "uint256",
          "name": "tokenId",
          "type": "uint256"
        }
      ],
      "name": "Transfer",
      "type": "event"
    },
    {
      "inputs": [
        {
          "internalType": "address",
          "name": "to",
          "type": "address"
        },
        {
          "internalType": "uint256",
          "name": "tokenId",
          "type": "uint256"
        }
      ],
      "name": "approve",
      "outputs": [],
      "stateMutability": "nonpayable",
      "type": "function"
    },
    {
      "inputs": [
        {
          "internalType": "address",
          "name": "owner",
          "type": "address"
        }
      ],
      "name": "balanceOf",
      "outputs": [
        {
          "internalType": "uint256",
          "name": "",
          "type": "uint256"
        }
      ],
      "stateMutability": "view",
      "type": "function"
    },
    {
      "inputs": [
        {
          "internalType": "uint256",
          "name": "tokenId",
          "type": "uint256"
        }
      ],
      "name": "getApproved",
      "outputs": [
        {
          "internalType": "address",
          "name": "",
          "type": "address"
        }
      ],
      "stateMutability": "view",
      "type": "function"
    },
    {
      "inputs": [
        {
          "internalType": "uint8",
          "name": "styleId",
          "type": "uint8"
        }
      ],
      "name": "getColorTheme",
      "outputs": [
        {
          "internalType": "string",
          "name": "foreground",
          "type": "string"
        },
        {
          "internalType": "string",
          "name": "background",
          "type": "string"
        }
      ],
      "stateMutability": "pure",
      "type": "function"
    },
    {
      "inputs": [],
      "name": "getOwnedTokenIds",
      "outputs": [
        {
          "internalType": "uint256[]",
          "name": "",
          "type": "uint256[]"
        }
      ],
      "stateMutability": "view",
      "type": "function"
    },
    {
      "inputs": [
        {
          "internalType": "uint256",
          "name": "tokenId",
          "type": "uint256"
        }
      ],
      "name": "getOwnerOf",
      "outputs": [
        {
          "internalType": "address",
          "name": "",
          "type": "address"
        }
      ],
      "stateMutability": "view",
      "type": "function"
    },
    {
      "inputs": [
        {
          "internalType": "uint256",
          "name": "tokenId",
          "type": "uint256"
        }
      ],
      "name": "getTraits",
      "outputs": [
        {
          "internalType": "string",
          "name": "name",
          "type": "string"
        },
        {
          "internalType": "uint8",
          "name": "sides",
          "type": "uint8"
        },
        {
          "internalType": "string",
          "name": "fgColor",
          "type": "string"
        },
        {
          "internalType": "string",
          "name": "bgColor",
          "type": "string"
        },
        {
          "internalType": "uint8",
          "name": "font",
          "type": "uint8"
        }
      ],
      "stateMutability": "view",
      "type": "function"
    },
    {
      "inputs": [
        {
          "internalType": "address",
          "name": "owner",
          "type": "address"
        },
        {
          "internalType": "address",
          "name": "operator",
          "type": "address"
        }
      ],
      "name": "isApprovedForAll",
      "outputs": [
        {
          "internalType": "bool",
          "name": "",
          "type": "bool"
        }
      ],
      "stateMutability": "view",
      "type": "function"
    },
    {
      "inputs": [
        {
          "internalType": "address",
          "name": "owner",
          "type": "address"
        },
        {
          "internalType": "string",
          "name": "name",
          "type": "string"
        },
        {
          "internalType": "uint8",
          "name": "sides",
          "type": "uint8"
        },
        {
          "internalType": "uint8",
          "name": "styleId",
          "type": "uint8"
        },
        {
          "internalType": "uint8",
          "name": "font",
          "type": "uint8"
        }
      ],
      "name": "mintNFT",
      "outputs": [
        {
          "internalType": "uint256",
          "name": "",
          "type": "uint256"
        }
      ],
      "stateMutability": "nonpayable",
      "type": "function"
    },
    {
      "inputs": [
        {
          "internalType": "address",
          "name": "owner",
          "type": "address"
        },
        {
          "internalType": "string",
          "name": "name",
          "type": "string"
        },
        {
          "internalType": "uint8",
          "name": "sides",
          "type": "uint8"
        },
        {
          "internalType": "uint8",
          "name": "styleId",
          "type": "uint8"
        },
        {
          "internalType": "uint8",
          "name": "font",
          "type": "uint8"
        },
        {
          "internalType": "uint16",
          "name": "count",
          "type": "uint16"
        }
      ],
      "name": "mintNFTBatch",
      "outputs": [],
      "stateMutability": "nonpayable",
      "type": "function"
    },
    {
      "inputs": [],
      "name": "name",
      "outputs": [
        {
          "internalType": "string",
          "name": "",
          "type": "string"
        }
      ],
      "stateMutability": "view",
      "type": "function"
    },
    {
      "inputs": [],
      "name": "owner",
      "outputs": [
        {
          "internalType": "address",
          "name": "",
          "type": "address"
        }
      ],
      "stateMutability": "view",
      "type": "function"
    },
    {
      "inputs": [
        {
          "internalType": "uint256",
          "name": "tokenId",
          "type": "uint256"
        }
      ],
      "name": "ownerOf",
      "outputs": [
        {
          "internalType": "address",
          "name": "",
          "type": "address"
        }
      ],
      "stateMutability": "view",
      "type": "function"
    },
    {
      "inputs": [],
      "name": "renounceOwnership",
      "outputs": [],
      "stateMutability": "nonpayable",
      "type": "function"
    },
    {
      "inputs": [
        {
          "internalType": "uint256",
          "name": "tokenId",
          "type": "uint256"
        },
        {
          "internalType": "uint16",
          "name": "nonce",
          "type": "uint16"
        }
      ],
      "name": "roll",
      "outputs": [
        {
          "internalType": "uint8",
          "name": "",
          "type": "uint8"
        }
      ],
      "stateMutability": "view",
      "type": "function"
    },
    {
      "inputs": [
        {
          "internalType": "address",
          "name": "from",
          "type": "address"
        },
        {
          "internalType": "address",
          "name": "to",
          "type": "address"
        },
        {
          "internalType": "uint256",
          "name": "tokenId",
          "type": "uint256"
        }
      ],
      "name": "safeTransferFrom",
      "outputs": [],
      "stateMutability": "nonpayable",
      "type": "function"
    },
    {
      "inputs": [
        {
          "internalType": "address",
          "name": "from",
          "type": "address"
        },
        {
          "internalType": "address",
          "name": "to",
          "type": "address"
        },
        {
          "internalType": "uint256",
          "name": "tokenId",
          "type": "uint256"
        },
        {
          "internalType": "bytes",
          "name": "_data",
          "type": "bytes"
        }
      ],
      "name": "safeTransferFrom",
      "outputs": [],
      "stateMutability": "nonpayable",
      "type": "function"
    },
    {
      "inputs": [
        {
          "internalType": "address",
          "name": "operator",
          "type": "address"
        },
        {
          "internalType": "bool",
          "name": "approved",
          "type": "bool"
        }
      ],
      "name": "setApprovalForAll",
      "outputs": [],
      "stateMutability": "nonpayable",
      "type": "function"
    },
    {
      "inputs": [
        {
          "internalType": "string",
          "name": "baseURI",
          "type": "string"
        }
      ],
      "name": "setBaseURI",
      "outputs": [],
      "stateMutability": "nonpayable",
      "type": "function"
    },
    {
      "inputs": [
        {
          "internalType": "bytes4",
          "name": "interfaceId",
          "type": "bytes4"
        }
      ],
      "name": "supportsInterface",
      "outputs": [
        {
          "internalType": "bool",
          "name": "",
          "type": "bool"
        }
      ],
      "stateMutability": "view",
      "type": "function"
    },
    {
      "inputs": [],
      "name": "symbol",
      "outputs": [
        {
          "internalType": "string",
          "name": "",
          "type": "string"
        }
      ],
      "stateMutability": "view",
      "type": "function"
    },
    {
      "inputs": [
        {
          "internalType": "address",
          "name": "owner",
          "type": "address"
        }
      ],
      "name": "tokenListOfOwner",
      "outputs": [
        {
          "internalType": "uint16[]",
          "name": "",
          "type": "uint16[]"
        }
      ],
      "stateMutability": "view",
      "type": "function"
    },
    {
      "inputs": [
        {
          "internalType": "address",
          "name": "owner",
          "type": "address"
        },
        {
          "internalType": "uint256",
          "name": "index",
          "type": "uint256"
        }
      ],
      "name": "tokenOfOwnerByIndex",
      "outputs": [
        {
          "internalType": "uint16",
          "name": "",
          "type": "uint16"
        }
      ],
      "stateMutability": "view",
      "type": "function"
    },
    {
      "inputs": [
        {
          "internalType": "uint256",
          "name": "tokenId",
          "type": "uint256"
        }
      ],
      "name": "tokenURI",
      "outputs": [
        {
          "internalType": "string",
          "name": "",
          "type": "string"
        }
      ],
      "stateMutability": "view",
      "type": "function"
    },
    {
      "inputs": [],
      "name": "tokensBurnt",
      "outputs": [
        {
          "internalType": "uint256",
          "name": "",
          "type": "uint256"
        }
      ],
      "stateMutability": "view",
      "type": "function"
    },
    {
      "inputs": [],
      "name": "tokensMinted",
      "outputs": [
        {
          "internalType": "uint256",
          "name": "",
          "type": "uint256"
        }
      ],
      "stateMutability": "view",
      "type": "function"
    },
    {
      "inputs": [],
      "name": "totalSupply",
      "outputs": [
        {
          "internalType": "uint256",
          "name": "",
          "type": "uint256"
        }
      ],
      "stateMutability": "view",
      "type": "function"
    },
    {
      "inputs": [
        {
          "internalType": "address",
          "name": "from",
          "type": "address"
        },
        {
          "internalType": "address",
          "name": "to",
          "type": "address"
        },
        {
          "internalType": "uint256",
          "name": "tokenId",
          "type": "uint256"
        }
      ],
      "name": "transferFrom",
      "outputs": [],
      "stateMutability": "nonpayable",
      "type": "function"
    },
    {
      "inputs": [
        {
          "internalType": "address",
          "name": "newOwner",
          "type": "address"
        }
      ],
      "name": "transferOwnership",
      "outputs": [],
      "stateMutability": "nonpayable",
      "type": "function"
    }
  ],
  "bytecode": "0x60806040523480156200001157600080fd5b506040518060400160405280600d81526020017f506f6c79446963652064417070000000000000000000000000000000000000008152506040518060400160405280600881526020017f506f6c79446963650000000000000000000000000000000000000000000000008152506200009e620000926200012660201b60201c565b6200012e60201b60201c565b8160019080519060200190620000b6929190620001f2565b508060029080519060200190620000cf929190620001f2565b5050506040518060400160405280601a81526020017f68747470733a2f2f646963652e7061727461766174652e636f6d000000000000815250600c90805190602001906200011f929190620001f2565b5062000307565b600033905090565b60008060009054906101000a900473ffffffffffffffffffffffffffffffffffffffff169050816000806101000a81548173ffffffffffffffffffffffffffffffffffffffff021916908373ffffffffffffffffffffffffffffffffffffffff1602179055508173ffffffffffffffffffffffffffffffffffffffff168173ffffffffffffffffffffffffffffffffffffffff167f8be0079c531659141344cd1fd0a4f28419497f9722a3daafe3b4186f6b6457e060405160405180910390a35050565b8280546200020090620002a2565b90600052602060002090601f01602090048101928262000224576000855562000270565b82601f106200023f57805160ff191683800117855562000270565b8280016001018555821562000270579182015b828111156200026f57825182559160200191906001019062000252565b5b5090506200027f919062000283565b5090565b5b808211156200029e57600081600090555060010162000284565b5090565b60006002820490506001821680620002bb57607f821691505b60208210811415620002d257620002d1620002d8565b5b50919050565b7f4e487b7100000000000000000000000000000000000000000000000000000000600052602260045260246000fd5b614f9680620003176000396000f3fe608060405234801561001057600080fd5b50600436106101cf5760003560e01c806370a0823111610104578063af6f8e7d116100a2578063c87b56dd11610071578063c87b56dd14610555578063e1dc076114610585578063e985e9c5146105b9578063f2fde38b146105e9576101cf565b8063af6f8e7d146104cd578063b0d8b51f146104fd578063b88d4fde1461051b578063c6ead8af14610537576101cf565b806383638710116100de57806383638710146104455780638da5cb5b1461047557806395d89b4114610493578063a22cb465146104b1576101cf565b806370a08231146103db578063715018a61461040b57806372b22b9d14610415576101cf565b806334c9d34e1161017157806355f804b31161014b57806355f804b3146103415780636352211e1461035d5780636618196c1461038d5780636de9f32b146103bd576101cf565b806334c9d34e146102d857806338eba42a1461030957806342842e0e14610325576101cf565b8063095ea7b3116101ad578063095ea7b31461025257806318160ddd1461026e57806323b872dd1461028c5780632f745c59146102a8576101cf565b806301ffc9a7146101d457806306fdde0314610204578063081812fc14610222575b600080fd5b6101ee60048036038101906101e991906136ca565b610605565b6040516101fb9190614001565b60405180910390f35b61020c6106e7565b604051610219919061401c565b60405180910390f35b61023c60048036038101906102379190613840565b610779565b6040516102499190613f56565b60405180910390f35b61026c6004803603810190610267919061368a565b6107fe565b005b610276610916565b60405161028391906143d8565b60405180910390f35b6102a660048036038101906102a1919061342b565b61092d565b005b6102c260048036038101906102bd919061368a565b61098d565b6040516102cf91906143bd565b60405180910390f35b6102f260048036038101906102ed91906138ad565b610a56565b60405161030092919061403e565b60405180910390f35b610323600480360381019061031e91906135db565b610a6b565b005b61033f600480360381019061033a919061342b565b610b26565b005b61035b60048036038101906103569190613724565b610b46565b005b61037760048036038101906103729190613840565b610bd8565b6040516103849190613f56565b60405180910390f35b6103a760048036038101906103a291906133be565b610c8a565b6040516103b49190613fbd565b60405180910390f35b6103c5610d49565b6040516103d291906143d8565b60405180910390f35b6103f560048036038101906103f091906133be565b610d4f565b60405161040291906143d8565b60405180910390f35b610413610e07565b005b61042f600480360381019061042a9190613541565b610e8f565b60405161043c91906143d8565b60405180910390f35b61045f600480360381019061045a9190613840565b610f5b565b60405161046c9190613f56565b60405180910390f35b61047d610f6d565b60405161048a9190613f56565b60405180910390f35b61049b610f96565b6040516104a8919061401c565b60405180910390f35b6104cb60048036038101906104c69190613501565b611028565b005b6104e760048036038101906104e2919061386d565b61103e565b6040516104f491906143f3565b60405180910390f35b6105056110d6565b6040516105129190613fdf565b60405180910390f35b6105356004803603810190610530919061347e565b611186565b005b61053f6111e8565b60405161054c91906143d8565b60405180910390f35b61056f600480360381019061056a9190613840565b6111ee565b60405161057c919061401c565b60405180910390f35b61059f600480360381019061059a9190613840565b61127b565b6040516105b0959493929190614075565b60405180910390f35b6105d360048036038101906105ce91906133eb565b611328565b6040516105e09190614001565b60405180910390f35b61060360048036038101906105fe91906133be565b6113bc565b005b60007f80ac58cd000000000000000000000000000000000000000000000000000000007bffffffffffffffffffffffffffffffffffffffffffffffffffffffff1916827bffffffffffffffffffffffffffffffffffffffffffffffffffffffff191614806106d057507f5b5e139f000000000000000000000000000000000000000000000000000000007bffffffffffffffffffffffffffffffffffffffffffffffffffffffff1916827bffffffffffffffffffffffffffffffffffffffffffffffffffffffff1916145b806106e057506106df826114b4565b5b9050919050565b6060600180546106f6906146eb565b80601f0160208091040260200160405190810160405280929190818152602001828054610722906146eb565b801561076f5780601f106107445761010080835404028352916020019161076f565b820191906000526020600020905b81548152906001019060200180831161075257829003601f168201915b5050505050905090565b60006107848261151e565b6107c3576040517f08c379a00000000000000000000000000000000000000000000000000000000081526004016107ba9061429d565b60405180910390fd5b6005600083815260200190815260200160002060009054906101000a900473ffffffffffffffffffffffffffffffffffffffff169050919050565b600061080982610bd8565b90508073ffffffffffffffffffffffffffffffffffffffff168373ffffffffffffffffffffffffffffffffffffffff16141561087a576040517f08c379a00000000000000000000000000000000000000000000000000000000081526004016108719061431d565b60405180910390fd5b8073ffffffffffffffffffffffffffffffffffffffff1661089961158a565b73ffffffffffffffffffffffffffffffffffffffff1614806108c857506108c7816108c261158a565b611328565b5b610907576040517f08c379a00000000000000000000000000000000000000000000000000000000081526004016108fe9061421d565b60405180910390fd5b6109118383611592565b505050565b600060095460085461092891906145e6565b905090565b61093e61093861158a565b8261164b565b61097d576040517f08c379a00000000000000000000000000000000000000000000000000000000081526004016109749061433d565b60405180910390fd5b610988838383611729565b505050565b600061099883610d4f565b82106109d9576040517f08c379a00000000000000000000000000000000000000000000000000000000081526004016109d0906142fd565b60405180910390fd5b600760008473ffffffffffffffffffffffffffffffffffffffff1673ffffffffffffffffffffffffffffffffffffffff1681526020019081526020016000208281548110610a2a57610a296148af565b5b90600052602060002090601091828204019190066002029054906101000a900461ffff16905092915050565b606080610a6283611990565b91509150915091565b610a7361158a565b73ffffffffffffffffffffffffffffffffffffffff16610a91610f6d565b73ffffffffffffffffffffffffffffffffffffffff1614610ae7576040517f08c379a0000000000000000000000000000000000000000000000000000000008152600401610ade906142bd565b60405180910390fd5b60005b8161ffff168161ffff161015610b1c57610b08888888888888610e8f565b508080610b149061474e565b915050610aea565b5050505050505050565b610b4183838360405180602001604052806000815250611186565b505050565b610b4e61158a565b73ffffffffffffffffffffffffffffffffffffffff16610b6c610f6d565b73ffffffffffffffffffffffffffffffffffffffff1614610bc2576040517f08c379a0000000000000000000000000000000000000000000000000000000008152600401610bb9906142bd565b60405180910390fd5b8181600c9190610bd39291906130b7565b505050565b6000806003600084815260200190815260200160002060009054906101000a900473ffffffffffffffffffffffffffffffffffffffff169050600073ffffffffffffffffffffffffffffffffffffffff168173ffffffffffffffffffffffffffffffffffffffff161415610c81576040517f08c379a0000000000000000000000000000000000000000000000000000000008152600401610c789061425d565b60405180910390fd5b80915050919050565b6060600760008373ffffffffffffffffffffffffffffffffffffffff1673ffffffffffffffffffffffffffffffffffffffff168152602001908152602001600020805480602002602001604051908101604052809291908181526020018280548015610d3d57602002820191906000526020600020906000905b82829054906101000a900461ffff1661ffff1681526020019060020190602082600101049283019260010382029150808411610d045790505b50505050509050919050565b60085481565b60008073ffffffffffffffffffffffffffffffffffffffff168273ffffffffffffffffffffffffffffffffffffffff161415610dc0576040517f08c379a0000000000000000000000000000000000000000000000000000000008152600401610db79061423d565b60405180910390fd5b600460008373ffffffffffffffffffffffffffffffffffffffff1673ffffffffffffffffffffffffffffffffffffffff168152602001908152602001600020549050919050565b610e0f61158a565b73ffffffffffffffffffffffffffffffffffffffff16610e2d610f6d565b73ffffffffffffffffffffffffffffffffffffffff1614610e83576040517f08c379a0000000000000000000000000000000000000000000000000000000008152600401610e7a906142bd565b60405180910390fd5b610e8d6000612203565b565b6000610e9961158a565b73ffffffffffffffffffffffffffffffffffffffff16610eb7610f6d565b73ffffffffffffffffffffffffffffffffffffffff1614610f0d576040517f08c379a0000000000000000000000000000000000000000000000000000000008152600401610f04906142bd565b60405180910390fd5b6000610f19600b6122c7565b9050610f39818888888888600a6122d5909695949392919063ffffffff16565b610f43888261246c565b610f4d600b61248a565b809150509695505050505050565b6000610f6682610bd8565b9050919050565b60008060009054906101000a900473ffffffffffffffffffffffffffffffffffffffff16905090565b606060028054610fa5906146eb565b80601f0160208091040260200160405190810160405280929190818152602001828054610fd1906146eb565b801561101e5780601f10610ff35761010080835404028352916020019161101e565b820191906000526020600020905b81548152906001019060200180831161100157829003601f168201915b5050505050905090565b61103a61103361158a565b83836124a0565b5050565b6000600a73__$3b68987207f559b9bfdbbec8c00268de72$__63d20f53f1909185856040518463ffffffff1660e01b815260040161107e93929190614386565b60206040518083038186803b15801561109657600080fd5b505af41580156110aa573d6000803e3d6000fd5b505050506040513d601f19601f820116820180604052508101906110ce91906138da565b905092915050565b606060006110e333610d4f565b905060008167ffffffffffffffff811115611101576111006148de565b5b60405190808252806020026020018201604052801561112f5781602001602082028036833780820191505090505b50905060005b8281101561117d57611147338261098d565b61ffff1682828151811061115e5761115d6148af565b5b602002602001018181525050808061117590614779565b915050611135565b50809250505090565b61119761119161158a565b8361164b565b6111d6576040517f08c379a00000000000000000000000000000000000000000000000000000000081526004016111cd9061433d565b60405180910390fd5b6111e28484848461260d565b50505050565b60095481565b60606111f98261151e565b611238576040517f08c379a000000000000000000000000000000000000000000000000000000000815260040161122f906142dd565b60405180910390fd5b611240612669565b61125483600a6126fb90919063ffffffff16565b604051602001611265929190613ea5565b6040516020818303038152906040529050919050565b606060006060806000600a73__$3b68987207f559b9bfdbbec8c00268de72$__6323f5b9fc9091886040518363ffffffff1660e01b81526004016112c092919061435d565b60006040518083038186803b1580156112d857600080fd5b505af41580156112ec573d6000803e3d6000fd5b505050506040513d6000823e3d601f19601f820116820180604052508101906113159190613771565b9450945094509450945091939590929450565b6000600660008473ffffffffffffffffffffffffffffffffffffffff1673ffffffffffffffffffffffffffffffffffffffff16815260200190815260200160002060008373ffffffffffffffffffffffffffffffffffffffff1673ffffffffffffffffffffffffffffffffffffffff16815260200190815260200160002060009054906101000a900460ff16905092915050565b6113c461158a565b73ffffffffffffffffffffffffffffffffffffffff166113e2610f6d565b73ffffffffffffffffffffffffffffffffffffffff1614611438576040517f08c379a000000000000000000000000000000000000000000000000000000000815260040161142f906142bd565b60405180910390fd5b600073ffffffffffffffffffffffffffffffffffffffff168173ffffffffffffffffffffffffffffffffffffffff1614156114a8576040517f08c379a000000000000000000000000000000000000000000000000000000000815260040161149f9061413d565b60405180910390fd5b6114b181612203565b50565b60007f01ffc9a7000000000000000000000000000000000000000000000000000000007bffffffffffffffffffffffffffffffffffffffffffffffffffffffff1916827bffffffffffffffffffffffffffffffffffffffffffffffffffffffff1916149050919050565b60008073ffffffffffffffffffffffffffffffffffffffff166003600084815260200190815260200160002060009054906101000a900473ffffffffffffffffffffffffffffffffffffffff1673ffffffffffffffffffffffffffffffffffffffff1614159050919050565b600033905090565b816005600083815260200190815260200160002060006101000a81548173ffffffffffffffffffffffffffffffffffffffff021916908373ffffffffffffffffffffffffffffffffffffffff160217905550808273ffffffffffffffffffffffffffffffffffffffff1661160583610bd8565b73ffffffffffffffffffffffffffffffffffffffff167f8c5be1e5ebec7d5bd14f71427d1e84f3dd0314c0f7b2291e5b200ac8c7c3b92560405160405180910390a45050565b60006116568261151e565b611695576040517f08c379a000000000000000000000000000000000000000000000000000000000815260040161168c906141fd565b60405180910390fd5b60006116a083610bd8565b90508073ffffffffffffffffffffffffffffffffffffffff168473ffffffffffffffffffffffffffffffffffffffff16148061170f57508373ffffffffffffffffffffffffffffffffffffffff166116f784610779565b73ffffffffffffffffffffffffffffffffffffffff16145b80611720575061171f8185611328565b5b91505092915050565b8273ffffffffffffffffffffffffffffffffffffffff1661174982610bd8565b73ffffffffffffffffffffffffffffffffffffffff161461179f576040517f08c379a00000000000000000000000000000000000000000000000000000000081526004016117969061415d565b60405180910390fd5b600073ffffffffffffffffffffffffffffffffffffffff168273ffffffffffffffffffffffffffffffffffffffff16141561180f576040517f08c379a0000000000000000000000000000000000000000000000000000000008152600401611806906141bd565b60405180910390fd5b61181a8383836127db565b611825600082611592565b6001600460008573ffffffffffffffffffffffffffffffffffffffff1673ffffffffffffffffffffffffffffffffffffffff168152602001908152602001600020600082825461187591906145e6565b925050819055506001600460008473ffffffffffffffffffffffffffffffffffffffff1673ffffffffffffffffffffffffffffffffffffffff16815260200190815260200160002060008282546118cc919061455f565b92505081905550816003600083815260200190815260200160002060006101000a81548173ffffffffffffffffffffffffffffffffffffffff021916908373ffffffffffffffffffffffffffffffffffffffff160217905550808273ffffffffffffffffffffffffffffffffffffffff168473ffffffffffffffffffffffffffffffffffffffff167fddf252ad1be2c89b69c2b068fc378daa952ba7f163c4a11628f55a4df523b3ef60405160405180910390a461198b8383836128d3565b505050565b606080601e8360ff1611156119da576040517f08c379a00000000000000000000000000000000000000000000000000000000081526004016119d19061419d565b60405180910390fd5b60008360ff16101580156119f2575060038360ff1611155b15611a34576040518060400160405280600681526020017f30303133346500000000000000000000000000000000000000000000000000008152509050611e71565b60048360ff1610158015611a4c575060078360ff1611155b15611a8e576040518060400160405280600681526020017f31613161316100000000000000000000000000000000000000000000000000008152509050611e70565b60088360ff1610158015611aa65750600a8360ff1611155b15611ae8576040518060400160405280600681526020017f66666666666600000000000000000000000000000000000000000000000000008152509050611e6f565b600b8360ff1610158015611b005750600d8360ff1611155b15611b42576040518060400160405280600681526020017f35353537353300000000000000000000000000000000000000000000000000008152509050611e6e565b600e8360ff1610158015611b5a575060108360ff1611155b15611b9c576040518060400160405280600681526020017f38623130643000000000000000000000000000000000000000000000000000008152509050611e6d565b60118360ff1610158015611bb4575060138360ff1611155b15611bf6576040518060400160405280600681526020017f65636463313900000000000000000000000000000000000000000000000000008152509050611e6c565b60148360ff161480611c0b575060158360ff16145b15611c4d576040518060400160405280600681526020017f34303866646400000000000000000000000000000000000000000000000000008152509050611e6b565b60168360ff161480611c62575060178360ff16145b15611ca4576040518060400160405280600681526020017f33313761323600000000000000000000000000000000000000000000000000008152509050611e6a565b60188360ff161480611cb9575060198360ff16145b15611cfb576040518060400160405280600681526020017f66323164306100000000000000000000000000000000000000000000000000008152509050611e69565b601a8360ff161415611d44576040518060400160405280600681526020017f38386666343400000000000000000000000000000000000000000000000000008152509050611e68565b601b8360ff161415611d8d576040518060400160405280600681526020017f64303963313000000000000000000000000000000000000000000000000000008152509050611e67565b601c8360ff161415611dd6576040518060400160405280600681526020017f65663534646100000000000000000000000000000000000000000000000000008152509050611e66565b601d8360ff161415611e1f576040518060400160405280600681526020017f34653030303000000000000000000000000000000000000000000000000000008152509050611e65565b601e8360ff161415611e64576040518060400160405280600681526020017f303030306666000000000000000000000000000000000000000000000000000081525090505b5b5b5b5b5b5b5b5b5b5b5b5b5b60008360ff161480611e86575060048360ff16145b80611e94575060088360ff16145b80611ea2575060118360ff16145b80611eb05750601a8360ff16145b15611ef2576040518060400160405280600681526020017f303030306666000000000000000000000000000000000000000000000000000081525091506121fe565b60018360ff161480611f07575060058360ff16145b15611f49576040518060400160405280600681526020017f303066663030000000000000000000000000000000000000000000000000000081525091506121fd565b60028360ff161480611f5e575060068360ff16145b80611f6c5750600a8360ff16145b80611f7a575060138360ff16145b80611f885750601c8360ff16145b15611fca576040518060400160405280600681526020017f666630303030000000000000000000000000000000000000000000000000000081525091506121fc565b60038360ff161480611fdf575060078360ff16145b80611fed5750600d8360ff16145b80611ffb575060108360ff16145b80612009575060158360ff16145b80612017575060178360ff16145b80612025575060198360ff16145b806120335750601d8360ff16145b806120415750601e8360ff16145b15612083576040518060400160405280600681526020017f666666666666000000000000000000000000000000000000000000000000000081525091506121fb565b60098360ff1614806120985750600b8360ff16145b806120a65750600e8360ff16145b806120b4575060128360ff16145b806120c2575060148360ff16145b806120d05750601b8360ff16145b15612112576040518060400160405280600681526020017f303030303030000000000000000000000000000000000000000000000000000081525091506121fa565b600c8360ff161480612127575060168360ff16145b15612169576040518060400160405280600681526020017f383866663838000000000000000000000000000000000000000000000000000081525091506121f9565b600f8360ff1614156121b2576040518060400160405280600681526020017f363663633636000000000000000000000000000000000000000000000000000081525091506121f8565b60188360ff1614156121f7576040518060400160405280600681526020017f383830303030000000000000000000000000000000000000000000000000000081525091505b5b5b5b5b5b5b5b915091565b60008060009054906101000a900473ffffffffffffffffffffffffffffffffffffffff169050816000806101000a81548173ffffffffffffffffffffffffffffffffffffffff021916908373ffffffffffffffffffffffffffffffffffffffff1602179055508173ffffffffffffffffffffffffffffffffffffffff168173ffffffffffffffffffffffffffffffffffffffff167f8be0079c531659141344cd1fd0a4f28419497f9722a3daafe3b4186f6b6457e060405160405180910390a35050565b600081600001549050919050565b60008360ff161161231b576040517f08c379a0000000000000000000000000000000000000000000000000000000008152600401612312906140dd565b60405180910390fd5b6000600a8460ff161461232f576000612332565b60015b90506040518060a0016040528087878080601f016020809104026020016040519081016040528093929190818152602001838380828437600081840152601f19601f8201169050808301925050505050505081526020018560ff1681526020018460ff1681526020018360ff16815260200182151581525088600001600089815260200190815260200160002060008201518160000190805190602001906123db92919061313d565b5060208201518160010160006101000a81548160ff021916908360ff16021790555060408201518160010160016101000a81548160ff021916908360ff16021790555060608201518160010160026101000a81548160ff021916908360ff16021790555060808201518160010160036101000a81548160ff0219169083151502179055509050505050505050505050565b6124868282604051806020016040528060008152506128d8565b5050565b6001816000016000828254019250508190555050565b8173ffffffffffffffffffffffffffffffffffffffff168373ffffffffffffffffffffffffffffffffffffffff16141561250f576040517f08c379a0000000000000000000000000000000000000000000000000000000008152600401612506906141dd565b60405180910390fd5b80600660008573ffffffffffffffffffffffffffffffffffffffff1673ffffffffffffffffffffffffffffffffffffffff16815260200190815260200160002060008473ffffffffffffffffffffffffffffffffffffffff1673ffffffffffffffffffffffffffffffffffffffff16815260200190815260200160002060006101000a81548160ff0219169083151502179055508173ffffffffffffffffffffffffffffffffffffffff168373ffffffffffffffffffffffffffffffffffffffff167f17307eab39ab6107e8899845ad3d59bd9653f200f220920489ca2b5937696c31836040516126009190614001565b60405180910390a3505050565b612618848484611729565b61262484848484612933565b612663576040517f08c379a000000000000000000000000000000000000000000000000000000000815260040161265a9061411d565b60405180910390fd5b50505050565b6060600c8054612678906146eb565b80601f01602080910402602001604051908101604052809291908181526020018280546126a4906146eb565b80156126f15780601f106126c6576101008083540402835291602001916126f1565b820191906000526020600020905b8154815290600101906020018083116126d457829003601f168201915b5050505050905090565b606060008061272e85600001600086815260200190815260200160002060010160019054906101000a900460ff16611990565b9150915084600001600085815260200190815260200160002060000161277b86600001600087815260200190815260200160002060010160009054906101000a900460ff1660ff16612aca565b83836127ae8960000160008a815260200190815260200160002060010160029054906101000a900460ff1660ff16612aca565b6040516020016127c2959493929190613ec9565b6040516020818303038152906040529250505092915050565b6127e6838383612c2b565b8273ffffffffffffffffffffffffffffffffffffffff168273ffffffffffffffffffffffffffffffffffffffff16146128ce576128238282612c30565b600073ffffffffffffffffffffffffffffffffffffffff168373ffffffffffffffffffffffffffffffffffffffff1614612866576128618382612cbb565b61287f565b6008600081548092919061287990614779565b91905055505b600073ffffffffffffffffffffffffffffffffffffffff168273ffffffffffffffffffffffffffffffffffffffff1614156128cd57600960008154809291906128c790614779565b91905055505b5b505050565b505050565b6128e28383612eba565b6128ef6000848484612933565b61292e576040517f08c379a00000000000000000000000000000000000000000000000000000000081526004016129259061411d565b60405180910390fd5b505050565b60006129548473ffffffffffffffffffffffffffffffffffffffff16613094565b15612abd578373ffffffffffffffffffffffffffffffffffffffff1663150b7a0261297d61158a565b8786866040518563ffffffff1660e01b815260040161299f9493929190613f71565b602060405180830381600087803b1580156129b957600080fd5b505af19250505080156129ea57506040513d601f19601f820116820180604052508101906129e791906136f7565b60015b612a6d573d8060008114612a1a576040519150601f19603f3d011682016040523d82523d6000602084013e612a1f565b606091505b50600081511415612a65576040517f08c379a0000000000000000000000000000000000000000000000000000000008152600401612a5c9061411d565b60405180910390fd5b805181602001fd5b63150b7a0260e01b7bffffffffffffffffffffffffffffffffffffffffffffffffffffffff1916817bffffffffffffffffffffffffffffffffffffffffffffffffffffffff191614915050612ac2565b600190505b949350505050565b60606000821415612b12576040518060400160405280600181526020017f30000000000000000000000000000000000000000000000000000000000000008152509050612c26565b600082905060005b60008214612b44578080612b2d90614779565b915050600a82612b3d91906145b5565b9150612b1a565b60008167ffffffffffffffff811115612b6057612b5f6148de565b5b6040519080825280601f01601f191660200182016040528015612b925781602001600182028036833780820191505090505b5090505b60008514612c1f57600182612bab91906145e6565b9150600a85612bba91906147c2565b6030612bc6919061455f565b60f81b818381518110612bdc57612bdb6148af565b5b60200101907effffffffffffffffffffffffffffffffffffffffffffffffffffffffffffff1916908160001a905350600a85612c1891906145b5565b9450612b96565b8093505050505b919050565b505050565b600760008373ffffffffffffffffffffffffffffffffffffffff1673ffffffffffffffffffffffffffffffffffffffff1681526020019081526020016000208190806001815401808255809150506001900390600052602060002090601091828204019190066002029091909190916101000a81548161ffff021916908361ffff1602179055505050565b6000600760008473ffffffffffffffffffffffffffffffffffffffff1673ffffffffffffffffffffffffffffffffffffffff168152602001908152602001600020905060008180549050905060005b8280549050811015612d77578361ffff16838281548110612d2e57612d2d6148af565b5b90600052602060002090601091828204019190066002029054906101000a900461ffff1661ffff161415612d6457809150612d77565b8080612d6f90614779565b915050612d0a565b5081805490508110612dbe576040517f08c379a0000000000000000000000000000000000000000000000000000000008152600401612db5906140fd565b60405180910390fd5b60008190505b60018380549050612dd591906145e6565b811015612e745782600182612dea919061455f565b81548110612dfb57612dfa6148af565b5b90600052602060002090601091828204019190066002029054906101000a900461ffff16838281548110612e3257612e316148af565b5b90600052602060002090601091828204019190066002026101000a81548161ffff021916908361ffff1602179055508080612e6c90614779565b915050612dc4565b5081805480612e8657612e85614880565b5b60019003818190600052602060002090601091828204019190066002026101000a81549061ffff0219169055905550505050565b600073ffffffffffffffffffffffffffffffffffffffff168273ffffffffffffffffffffffffffffffffffffffff161415612f2a576040517f08c379a0000000000000000000000000000000000000000000000000000000008152600401612f219061427d565b60405180910390fd5b612f338161151e565b15612f73576040517f08c379a0000000000000000000000000000000000000000000000000000000008152600401612f6a9061417d565b60405180910390fd5b612f7f600083836127db565b6001600460008473ffffffffffffffffffffffffffffffffffffffff1673ffffffffffffffffffffffffffffffffffffffff1681526020019081526020016000206000828254612fcf919061455f565b92505081905550816003600083815260200190815260200160002060006101000a81548173ffffffffffffffffffffffffffffffffffffffff021916908373ffffffffffffffffffffffffffffffffffffffff160217905550808273ffffffffffffffffffffffffffffffffffffffff16600073ffffffffffffffffffffffffffffffffffffffff167fddf252ad1be2c89b69c2b068fc378daa952ba7f163c4a11628f55a4df523b3ef60405160405180910390a4613090600083836128d3565b5050565b6000808273ffffffffffffffffffffffffffffffffffffffff163b119050919050565b8280546130c3906146eb565b90600052602060002090601f0160209004810192826130e5576000855561312c565b82601f106130fe57803560ff191683800117855561312c565b8280016001018555821561312c579182015b8281111561312b578235825591602001919060010190613110565b5b50905061313991906131c3565b5090565b828054613149906146eb565b90600052602060002090601f01602090048101928261316b57600085556131b2565b82601f1061318457805160ff19168380011785556131b2565b828001600101855582156131b2579182015b828111156131b1578251825591602001919060010190613196565b5b5090506131bf91906131c3565b5090565b5b808211156131dc5760008160009055506001016131c4565b5090565b60006131f36131ee84614433565b61440e565b90508281526020810184848401111561320f5761320e61491c565b5b61321a8482856146a9565b509392505050565b600061323561323084614464565b61440e565b9050828152602081018484840111156132515761325061491c565b5b61325c8482856146b8565b509392505050565b60008135905061327381614ed6565b92915050565b60008135905061328881614eed565b92915050565b60008135905061329d81614f04565b92915050565b6000815190506132b281614f04565b92915050565b600082601f8301126132cd576132cc614912565b5b81356132dd8482602086016131e0565b91505092915050565b60008083601f8401126132fc576132fb614912565b5b8235905067ffffffffffffffff8111156133195761331861490d565b5b60208301915083600182028301111561333557613334614917565b5b9250929050565b600082601f83011261335157613350614912565b5b8151613361848260208601613222565b91505092915050565b60008135905061337981614f1b565b92915050565b60008135905061338e81614f32565b92915050565b6000813590506133a381614f49565b92915050565b6000815190506133b881614f49565b92915050565b6000602082840312156133d4576133d3614926565b5b60006133e284828501613264565b91505092915050565b6000806040838503121561340257613401614926565b5b600061341085828601613264565b925050602061342185828601613264565b9150509250929050565b60008060006060848603121561344457613443614926565b5b600061345286828701613264565b935050602061346386828701613264565b92505060406134748682870161337f565b9150509250925092565b6000806000806080858703121561349857613497614926565b5b60006134a687828801613264565b94505060206134b787828801613264565b93505060406134c88782880161337f565b925050606085013567ffffffffffffffff8111156134e9576134e8614921565b5b6134f5878288016132b8565b91505092959194509250565b6000806040838503121561351857613517614926565b5b600061352685828601613264565b925050602061353785828601613279565b9150509250929050565b60008060008060008060a0878903121561355e5761355d614926565b5b600061356c89828a01613264565b965050602087013567ffffffffffffffff81111561358d5761358c614921565b5b61359989828a016132e6565b955095505060406135ac89828a01613394565b93505060606135bd89828a01613394565b92505060806135ce89828a01613394565b9150509295509295509295565b600080600080600080600060c0888a0312156135fa576135f9614926565b5b60006136088a828b01613264565b975050602088013567ffffffffffffffff81111561362957613628614921565b5b6136358a828b016132e6565b965096505060406136488a828b01613394565b94505060606136598a828b01613394565b935050608061366a8a828b01613394565b92505060a061367b8a828b0161336a565b91505092959891949750929550565b600080604083850312156136a1576136a0614926565b5b60006136af85828601613264565b92505060206136c08582860161337f565b9150509250929050565b6000602082840312156136e0576136df614926565b5b60006136ee8482850161328e565b91505092915050565b60006020828403121561370d5761370c614926565b5b600061371b848285016132a3565b91505092915050565b6000806020838503121561373b5761373a614926565b5b600083013567ffffffffffffffff81111561375957613758614921565b5b613765858286016132e6565b92509250509250929050565b600080600080600060a0868803121561378d5761378c614926565b5b600086015167ffffffffffffffff8111156137ab576137aa614921565b5b6137b78882890161333c565b95505060206137c8888289016133a9565b945050604086015167ffffffffffffffff8111156137e9576137e8614921565b5b6137f58882890161333c565b935050606086015167ffffffffffffffff81111561381657613815614921565b5b6138228882890161333c565b9250506080613833888289016133a9565b9150509295509295909350565b60006020828403121561385657613855614926565b5b60006138648482850161337f565b91505092915050565b6000806040838503121561388457613883614926565b5b60006138928582860161337f565b92505060206138a38582860161336a565b9150509250929050565b6000602082840312156138c3576138c2614926565b5b60006138d184828501613394565b91505092915050565b6000602082840312156138f0576138ef614926565b5b60006138fe848285016133a9565b91505092915050565b60006139138383613e3c565b60208301905092915050565b600061392b8383613e69565b60208301905092915050565b6139408161461a565b82525050565b6000613951826144ca565b61395b8185614510565b935061396683614495565b8060005b8381101561399757815161397e8882613907565b9750613989836144f6565b92505060018101905061396a565b5085935050505092915050565b60006139af826144d5565b6139b98185614521565b93506139c4836144a5565b8060005b838110156139f55781516139dc888261391f565b97506139e783614503565b9250506001810190506139c8565b5085935050505092915050565b613a0b8161462c565b82525050565b6000613a1c826144e0565b613a268185614532565b9350613a368185602086016146b8565b613a3f8161492b565b840191505092915050565b6000613a55826144eb565b613a5f8185614543565b9350613a6f8185602086016146b8565b613a788161492b565b840191505092915050565b6000613a8e826144eb565b613a988185614554565b9350613aa88185602086016146b8565b80840191505092915050565b60008154613ac1816146eb565b613acb8186614554565b94506001821660008114613ae65760018114613af757613b2a565b60ff19831686528186019350613b2a565b613b00856144b5565b60005b83811015613b2257815481890152600182019150602081019050613b03565b838801955050505b50505092915050565b6000613b40601683614543565b9150613b4b8261493c565b602082019050919050565b6000613b63603783614543565b9150613b6e82614965565b604082019050919050565b6000613b86603283614543565b9150613b91826149b4565b604082019050919050565b6000613ba9602683614543565b9150613bb482614a03565b604082019050919050565b6000613bcc602583614543565b9150613bd782614a52565b604082019050919050565b6000613bef601c83614543565b9150613bfa82614aa1565b602082019050919050565b6000613c12601283614543565b9150613c1d82614aca565b602082019050919050565b6000613c35600983614554565b9150613c4082614af3565b600982019050919050565b6000613c58602483614543565b9150613c6382614b1c565b604082019050919050565b6000613c7b601983614543565b9150613c8682614b6b565b602082019050919050565b6000613c9e602c83614543565b9150613ca982614b94565b604082019050919050565b6000613cc1603883614543565b9150613ccc82614be3565b604082019050919050565b6000613ce4602a83614543565b9150613cef82614c32565b604082019050919050565b6000613d07602983614543565b9150613d1282614c81565b604082019050919050565b6000613d2a602083614543565b9150613d3582614cd0565b602082019050919050565b6000613d4d602c83614543565b9150613d5882614cf9565b604082019050919050565b6000613d70602083614543565b9150613d7b82614d48565b602082019050919050565b6000613d93602f83614543565b9150613d9e82614d71565b604082019050919050565b6000613db6603183614543565b9150613dc182614dc0565b604082019050919050565b6000613dd9602183614543565b9150613de482614e0f565b604082019050919050565b6000613dfc603183614543565b9150613e0782614e5e565b604082019050919050565b6000613e1f600183614554565b9150613e2a82614ead565b600182019050919050565b8082525050565b613e4581614664565b82525050565b613e5481614664565b82525050565b613e6381614664565b82525050565b613e7281614692565b82525050565b613e8181614692565b82525050565b613e9081614692565b82525050565b613e9f8161469c565b82525050565b6000613eb18285613a83565b9150613ebd8284613a83565b91508190509392505050565b6000613ed482613c28565b9150613edf82613e12565b9150613eeb8288613ab4565b9150613ef682613e12565b9150613f028287613a83565b9150613f0d82613e12565b9150613f198286613a83565b9150613f2482613e12565b9150613f308285613a83565b9150613f3b82613e12565b9150613f478284613a83565b91508190509695505050505050565b6000602082019050613f6b6000830184613937565b92915050565b6000608082019050613f866000830187613937565b613f936020830186613937565b613fa06040830185613e78565b8181036060830152613fb28184613a11565b905095945050505050565b60006020820190508181036000830152613fd78184613946565b905092915050565b60006020820190508181036000830152613ff981846139a4565b905092915050565b60006020820190506140166000830184613a02565b92915050565b600060208201905081810360008301526140368184613a4a565b905092915050565b600060408201905081810360008301526140588185613a4a565b9050818103602083015261406c8184613a4a565b90509392505050565b600060a082019050818103600083015261408f8188613a4a565b905061409e6020830187613e96565b81810360408301526140b08186613a4a565b905081810360608301526140c48185613a4a565b90506140d36080830184613e96565b9695505050505050565b600060208201905081810360008301526140f681613b33565b9050919050565b6000602082019050818103600083015261411681613b56565b9050919050565b6000602082019050818103600083015261413681613b79565b9050919050565b6000602082019050818103600083015261415681613b9c565b9050919050565b6000602082019050818103600083015261417681613bbf565b9050919050565b6000602082019050818103600083015261419681613be2565b9050919050565b600060208201905081810360008301526141b681613c05565b9050919050565b600060208201905081810360008301526141d681613c4b565b9050919050565b600060208201905081810360008301526141f681613c6e565b9050919050565b6000602082019050818103600083015261421681613c91565b9050919050565b6000602082019050818103600083015261423681613cb4565b9050919050565b6000602082019050818103600083015261425681613cd7565b9050919050565b6000602082019050818103600083015261427681613cfa565b9050919050565b6000602082019050818103600083015261429681613d1d565b9050919050565b600060208201905081810360008301526142b681613d40565b9050919050565b600060208201905081810360008301526142d681613d63565b9050919050565b600060208201905081810360008301526142f681613d86565b9050919050565b6000602082019050818103600083015261431681613da9565b9050919050565b6000602082019050818103600083015261433681613dcc565b9050919050565b6000602082019050818103600083015261435681613def565b9050919050565b60006040820190506143726000830185613e35565b61437f6020830184613e87565b9392505050565b600060608201905061439b6000830186613e35565b6143a86020830185613e87565b6143b56040830184613e5a565b949350505050565b60006020820190506143d26000830184613e4b565b92915050565b60006020820190506143ed6000830184613e78565b92915050565b60006020820190506144086000830184613e96565b92915050565b6000614418614429565b9050614424828261471d565b919050565b6000604051905090565b600067ffffffffffffffff82111561444e5761444d6148de565b5b6144578261492b565b9050602081019050919050565b600067ffffffffffffffff82111561447f5761447e6148de565b5b6144888261492b565b9050602081019050919050565b6000819050602082019050919050565b6000819050602082019050919050565b60008190508160005260206000209050919050565b600081519050919050565b600081519050919050565b600081519050919050565b600081519050919050565b6000602082019050919050565b6000602082019050919050565b600082825260208201905092915050565b600082825260208201905092915050565b600082825260208201905092915050565b600082825260208201905092915050565b600081905092915050565b600061456a82614692565b915061457583614692565b9250827fffffffffffffffffffffffffffffffffffffffffffffffffffffffffffffffff038211156145aa576145a96147f3565b5b828201905092915050565b60006145c082614692565b91506145cb83614692565b9250826145db576145da614822565b5b828204905092915050565b60006145f182614692565b91506145fc83614692565b92508282101561460f5761460e6147f3565b5b828203905092915050565b600061462582614672565b9050919050565b60008115159050919050565b60007fffffffff0000000000000000000000000000000000000000000000000000000082169050919050565b600061ffff82169050919050565b600073ffffffffffffffffffffffffffffffffffffffff82169050919050565b6000819050919050565b600060ff82169050919050565b82818337600083830152505050565b60005b838110156146d65780820151818401526020810190506146bb565b838111156146e5576000848401525b50505050565b6000600282049050600182168061470357607f821691505b6020821081141561471757614716614851565b5b50919050565b6147268261492b565b810181811067ffffffffffffffff82111715614745576147446148de565b5b80604052505050565b600061475982614664565b915061ffff82141561476e5761476d6147f3565b5b600182019050919050565b600061478482614692565b91507fffffffffffffffffffffffffffffffffffffffffffffffffffffffffffffffff8214156147b7576147b66147f3565b5b600182019050919050565b60006147cd82614692565b91506147d883614692565b9250826147e8576147e7614822565b5b828206905092915050565b7f4e487b7100000000000000000000000000000000000000000000000000000000600052601160045260246000fd5b7f4e487b7100000000000000000000000000000000000000000000000000000000600052601260045260246000fd5b7f4e487b7100000000000000000000000000000000000000000000000000000000600052602260045260246000fd5b7f4e487b7100000000000000000000000000000000000000000000000000000000600052603160045260246000fd5b7f4e487b7100000000000000000000000000000000000000000000000000000000600052603260045260246000fd5b7f4e487b7100000000000000000000000000000000000000000000000000000000600052604160045260246000fd5b600080fd5b600080fd5b600080fd5b600080fd5b600080fd5b600080fd5b6000601f19601f8301169050919050565b7f5369646573206d757374206265206e6f6e2d7a65726f00000000000000000000600082015250565b7f45524337323153696d706c65456e756d657261626c653a20746f6b656e49642060008201527f6e6f7420666f756e6420696e206f776e6572206c697374000000000000000000602082015250565b7f4552433732313a207472616e7366657220746f206e6f6e20455243373231526560008201527f63656976657220696d706c656d656e7465720000000000000000000000000000602082015250565b7f4f776e61626c653a206e6577206f776e657220697320746865207a65726f206160008201527f6464726573730000000000000000000000000000000000000000000000000000602082015250565b7f4552433732313a207472616e736665722066726f6d20696e636f72726563742060008201527f6f776e6572000000000000000000000000000000000000000000000000000000602082015250565b7f4552433732313a20746f6b656e20616c7265616479206d696e74656400000000600082015250565b7f7374796c65206f7574206f662072616e67650000000000000000000000000000600082015250565b7f2f6d657461646174610000000000000000000000000000000000000000000000600082015250565b7f4552433732313a207472616e7366657220746f20746865207a65726f2061646460008201527f7265737300000000000000000000000000000000000000000000000000000000602082015250565b7f4552433732313a20617070726f766520746f2063616c6c657200000000000000600082015250565b7f4552433732313a206f70657261746f7220717565727920666f72206e6f6e657860008201527f697374656e7420746f6b656e0000000000000000000000000000000000000000602082015250565b7f4552433732313a20617070726f76652063616c6c6572206973206e6f74206f7760008201527f6e6572206e6f7220617070726f76656420666f7220616c6c0000000000000000602082015250565b7f4552433732313a2062616c616e636520717565727920666f7220746865207a6560008201527f726f206164647265737300000000000000000000000000000000000000000000602082015250565b7f4552433732313a206f776e657220717565727920666f72206e6f6e657869737460008201527f656e7420746f6b656e0000000000000000000000000000000000000000000000602082015250565b7f4552433732313a206d696e7420746f20746865207a65726f2061646472657373600082015250565b7f4552433732313a20617070726f76656420717565727920666f72206e6f6e657860008201527f697374656e7420746f6b656e0000000000000000000000000000000000000000602082015250565b7f4f776e61626c653a2063616c6c6572206973206e6f7420746865206f776e6572600082015250565b7f4552433732314d657461646174613a2055524920717565727920666f72206e6f60008201527f6e6578697374656e7420746f6b656e0000000000000000000000000000000000602082015250565b7f45524337323153696d706c65456e756d657261626c653a206f776e657220696e60008201527f646578206f7574206f6620626f756e6473000000000000000000000000000000602082015250565b7f4552433732313a20617070726f76616c20746f2063757272656e74206f776e6560008201527f7200000000000000000000000000000000000000000000000000000000000000602082015250565b7f4552433732313a207472616e736665722063616c6c6572206973206e6f74206f60008201527f776e6572206e6f7220617070726f766564000000000000000000000000000000602082015250565b7f2f00000000000000000000000000000000000000000000000000000000000000600082015250565b614edf8161461a565b8114614eea57600080fd5b50565b614ef68161462c565b8114614f0157600080fd5b50565b614f0d81614638565b8114614f1857600080fd5b50565b614f2481614664565b8114614f2f57600080fd5b50565b614f3b81614692565b8114614f4657600080fd5b50565b614f528161469c565b8114614f5d57600080fd5b5056fea264697066735822122079d75f824254c38e62a90a273e8d2c9687da4bc78af5569980606442bce571a664736f6c63430008060033",
  "linkReferences": {
    "contracts/DiceLibrary.sol": {
      "DiceLibrary": [
        {
          "length": 20,
          "start": 4955
        },
        {
          "length": 20,
          "start": 5535
        }
      ]
    }
  },
  "deployedLinkReferences": {
    "contracts/DiceLibrary.sol": {
      "DiceLibrary": [
        {
          "length": 20,
          "start": 4164
        },
        {
          "length": 20,
          "start": 4744
        }
      ]
    }
  }
}