{
  "_format": "hh-sol-artifact-1",
  "contractName": "TabletopDiceNFT",
  "sourceName": "contracts/Dice.sol",
  "abi": [
    {
      "inputs": [
        {
          "internalType": "string[]",
          "name": "adjectives",
          "type": "string[]"
        },
        {
          "internalType": "string[]",
          "name": "nouns",
          "type": "string[]"
        }
      ],
      "stateMutability": "nonpayable",
      "type": "constructor"
    },
    {
      "anonymous": false,
      "inputs": [
        {
          "indexed": true,
          "internalType": "address",
          "name": "owner",
          "type": "address"
        },
        {
          "indexed": true,
          "internalType": "address",
          "name": "approved",
          "type": "address"
        },
        {
          "indexed": true,
          "internalType": "uint256",
          "name": "tokenId",
          "type": "uint256"
        }
      ],
      "name": "Approval",
      "type": "event"
    },
    {
      "anonymous": false,
      "inputs": [
        {
          "indexed": true,
          "internalType": "address",
          "name": "owner",
          "type": "address"
        },
        {
          "indexed": true,
          "internalType": "address",
          "name": "operator",
          "type": "address"
        },
        {
          "indexed": false,
          "internalType": "bool",
          "name": "approved",
          "type": "bool"
        }
      ],
      "name": "ApprovalForAll",
      "type": "event"
    },
    {
      "anonymous": false,
      "inputs": [
        {
          "indexed": true,
          "internalType": "address",
          "name": "previousOwner",
          "type": "address"
        },
        {
          "indexed": true,
          "internalType": "address",
          "name": "newOwner",
          "type": "address"
        }
      ],
      "name": "OwnershipTransferred",
      "type": "event"
    },
    {
      "anonymous": false,
      "inputs": [
        {
          "indexed": true,
          "internalType": "address",
          "name": "from",
          "type": "address"
        },
        {
          "indexed": true,
          "internalType": "address",
          "name": "to",
          "type": "address"
        },
        {
          "indexed": true,
          "internalType": "uint256",
          "name": "tokenId",
          "type": "uint256"
        }
      ],
      "name": "Transfer",
      "type": "event"
    },
    {
      "inputs": [
        {
          "internalType": "uint8",
          "name": "sides",
          "type": "uint8"
        }
      ],
      "name": "addPossibleSides",
      "outputs": [],
      "stateMutability": "nonpayable",
      "type": "function"
    },
    {
      "inputs": [
        {
          "internalType": "string[]",
          "name": "adjectives",
          "type": "string[]"
        },
        {
          "internalType": "string[]",
          "name": "nouns",
          "type": "string[]"
        }
      ],
      "name": "addWords",
      "outputs": [],
      "stateMutability": "nonpayable",
      "type": "function"
    },
    {
      "inputs": [
        {
          "internalType": "address",
          "name": "to",
          "type": "address"
        },
        {
          "internalType": "uint256",
          "name": "tokenId",
          "type": "uint256"
        }
      ],
      "name": "approve",
      "outputs": [],
      "stateMutability": "nonpayable",
      "type": "function"
    },
    {
      "inputs": [
        {
          "internalType": "address",
          "name": "owner",
          "type": "address"
        }
      ],
      "name": "balanceOf",
      "outputs": [
        {
          "internalType": "uint256",
          "name": "",
          "type": "uint256"
        }
      ],
      "stateMutability": "view",
      "type": "function"
    },
    {
      "inputs": [
        {
          "internalType": "uint8",
          "name": "count",
          "type": "uint8"
        }
      ],
      "name": "buyRandomDice",
      "outputs": [],
      "stateMutability": "payable",
      "type": "function"
    },
    {
      "inputs": [
        {
          "internalType": "uint256",
          "name": "tokenId",
          "type": "uint256"
        }
      ],
      "name": "getApproved",
      "outputs": [
        {
          "internalType": "address",
          "name": "",
          "type": "address"
        }
      ],
      "stateMutability": "view",
      "type": "function"
    },
    {
      "inputs": [],
      "name": "getMintingCost",
      "outputs": [
        {
          "internalType": "uint256",
          "name": "cost",
          "type": "uint256"
        }
      ],
      "stateMutability": "view",
      "type": "function"
    },
    {
      "inputs": [],
      "name": "getOwnedTokenIds",
      "outputs": [
        {
          "internalType": "uint256[]",
          "name": "",
          "type": "uint256[]"
        }
      ],
      "stateMutability": "view",
      "type": "function"
    },
    {
      "inputs": [
        {
          "internalType": "uint256",
          "name": "tokenId",
          "type": "uint256"
        },
        {
          "internalType": "uint16",
          "name": "nonce",
          "type": "uint16"
        }
      ],
      "name": "getRoll",
      "outputs": [
        {
          "internalType": "uint8",
          "name": "",
          "type": "uint8"
        }
      ],
      "stateMutability": "view",
      "type": "function"
    },
    {
      "inputs": [
        {
          "internalType": "uint256",
          "name": "tokenId",
          "type": "uint256"
        }
      ],
      "name": "getTraits",
      "outputs": [
        {
          "internalType": "string",
          "name": "name",
          "type": "string"
        },
        {
          "internalType": "uint8",
          "name": "sides",
          "type": "uint8"
        },
        {
          "internalType": "string",
          "name": "fgColor",
          "type": "string"
        },
        {
          "internalType": "string",
          "name": "bgColor",
          "type": "string"
        },
        {
          "internalType": "uint8",
          "name": "font",
          "type": "uint8"
        }
      ],
      "stateMutability": "view",
      "type": "function"
    },
    {
      "inputs": [
        {
          "internalType": "address",
          "name": "owner",
          "type": "address"
        },
        {
          "internalType": "address",
          "name": "operator",
          "type": "address"
        }
      ],
      "name": "isApprovedForAll",
      "outputs": [
        {
          "internalType": "bool",
          "name": "",
          "type": "bool"
        }
      ],
      "stateMutability": "view",
      "type": "function"
    },
    {
      "inputs": [
        {
          "internalType": "string",
          "name": "name",
          "type": "string"
        },
        {
          "internalType": "uint8",
          "name": "sides",
          "type": "uint8"
        },
        {
          "internalType": "uint8",
          "name": "styleId",
          "type": "uint8"
        },
        {
          "internalType": "uint8",
          "name": "font",
          "type": "uint8"
        },
        {
          "internalType": "address",
          "name": "reciever",
          "type": "address"
        }
      ],
      "name": "mintDie",
      "outputs": [
        {
          "internalType": "uint256",
          "name": "tokenId",
          "type": "uint256"
        }
      ],
      "stateMutability": "nonpayable",
      "type": "function"
    },
    {
      "inputs": [
        {
          "internalType": "uint8",
          "name": "count",
          "type": "uint8"
        },
        {
          "internalType": "address",
          "name": "reciever",
          "type": "address"
        }
      ],
      "name": "mintRandomDice",
      "outputs": [],
      "stateMutability": "nonpayable",
      "type": "function"
    },
    {
      "inputs": [
        {
          "internalType": "address",
          "name": "reciever",
          "type": "address"
        }
      ],
      "name": "mintRandomDie",
      "outputs": [
        {
          "internalType": "uint256",
          "name": "tokenId",
          "type": "uint256"
        }
      ],
      "stateMutability": "nonpayable",
      "type": "function"
    },
    {
      "inputs": [],
      "name": "name",
      "outputs": [
        {
          "internalType": "string",
          "name": "",
          "type": "string"
        }
      ],
      "stateMutability": "view",
      "type": "function"
    },
    {
      "inputs": [],
      "name": "owner",
      "outputs": [
        {
          "internalType": "address",
          "name": "",
          "type": "address"
        }
      ],
      "stateMutability": "view",
      "type": "function"
    },
    {
      "inputs": [
        {
          "internalType": "uint256",
          "name": "tokenId",
          "type": "uint256"
        }
      ],
      "name": "ownerOf",
      "outputs": [
        {
          "internalType": "address",
          "name": "",
          "type": "address"
        }
      ],
      "stateMutability": "view",
      "type": "function"
    },
    {
      "inputs": [],
      "name": "renounceOwnership",
      "outputs": [],
      "stateMutability": "nonpayable",
      "type": "function"
    },
    {
      "inputs": [
        {
          "internalType": "address",
          "name": "from",
          "type": "address"
        },
        {
          "internalType": "address",
          "name": "to",
          "type": "address"
        },
        {
          "internalType": "uint256",
          "name": "tokenId",
          "type": "uint256"
        }
      ],
      "name": "safeTransferFrom",
      "outputs": [],
      "stateMutability": "nonpayable",
      "type": "function"
    },
    {
      "inputs": [
        {
          "internalType": "address",
          "name": "from",
          "type": "address"
        },
        {
          "internalType": "address",
          "name": "to",
          "type": "address"
        },
        {
          "internalType": "uint256",
          "name": "tokenId",
          "type": "uint256"
        },
        {
          "internalType": "bytes",
          "name": "_data",
          "type": "bytes"
        }
      ],
      "name": "safeTransferFrom",
      "outputs": [],
      "stateMutability": "nonpayable",
      "type": "function"
    },
    {
      "inputs": [
        {
          "internalType": "address payable",
          "name": "newReciver",
          "type": "address"
        }
      ],
      "name": "setAccountsRecievable",
      "outputs": [],
      "stateMutability": "nonpayable",
      "type": "function"
    },
    {
      "inputs": [
        {
          "internalType": "address",
          "name": "operator",
          "type": "address"
        },
        {
          "internalType": "bool",
          "name": "approved",
          "type": "bool"
        }
      ],
      "name": "setApprovalForAll",
      "outputs": [],
      "stateMutability": "nonpayable",
      "type": "function"
    },
    {
      "inputs": [
        {
          "internalType": "string",
          "name": "baseURI",
          "type": "string"
        }
      ],
      "name": "setBaseURI",
      "outputs": [],
      "stateMutability": "nonpayable",
      "type": "function"
    },
    {
      "inputs": [
        {
          "internalType": "uint256",
          "name": "newCost",
          "type": "uint256"
        }
      ],
      "name": "setDiePrice",
      "outputs": [],
      "stateMutability": "nonpayable",
      "type": "function"
    },
    {
      "inputs": [
        {
          "internalType": "bytes4",
          "name": "interfaceId",
          "type": "bytes4"
        }
      ],
      "name": "supportsInterface",
      "outputs": [
        {
          "internalType": "bool",
          "name": "",
          "type": "bool"
        }
      ],
      "stateMutability": "view",
      "type": "function"
    },
    {
      "inputs": [],
      "name": "symbol",
      "outputs": [
        {
          "internalType": "string",
          "name": "",
          "type": "string"
        }
      ],
      "stateMutability": "view",
      "type": "function"
    },
    {
      "inputs": [
        {
          "internalType": "address",
          "name": "owner",
          "type": "address"
        }
      ],
      "name": "tokenListOfOwner",
      "outputs": [
        {
          "internalType": "uint16[]",
          "name": "",
          "type": "uint16[]"
        }
      ],
      "stateMutability": "view",
      "type": "function"
    },
    {
      "inputs": [
        {
          "internalType": "address",
          "name": "owner",
          "type": "address"
        },
        {
          "internalType": "uint256",
          "name": "index",
          "type": "uint256"
        }
      ],
      "name": "tokenOfOwnerByIndex",
      "outputs": [
        {
          "internalType": "uint16",
          "name": "",
          "type": "uint16"
        }
      ],
      "stateMutability": "view",
      "type": "function"
    },
    {
      "inputs": [
        {
          "internalType": "uint256",
          "name": "tokenId",
          "type": "uint256"
        }
      ],
      "name": "tokenURI",
      "outputs": [
        {
          "internalType": "string",
          "name": "",
          "type": "string"
        }
      ],
      "stateMutability": "view",
      "type": "function"
    },
    {
      "inputs": [],
      "name": "tokensBurnt",
      "outputs": [
        {
          "internalType": "uint256",
          "name": "",
          "type": "uint256"
        }
      ],
      "stateMutability": "view",
      "type": "function"
    },
    {
      "inputs": [],
      "name": "tokensMinted",
      "outputs": [
        {
          "internalType": "uint256",
          "name": "",
          "type": "uint256"
        }
      ],
      "stateMutability": "view",
      "type": "function"
    },
    {
      "inputs": [],
      "name": "totalSupply",
      "outputs": [
        {
          "internalType": "uint256",
          "name": "",
          "type": "uint256"
        }
      ],
      "stateMutability": "view",
      "type": "function"
    },
    {
      "inputs": [
        {
          "internalType": "address",
          "name": "from",
          "type": "address"
        },
        {
          "internalType": "address",
          "name": "to",
          "type": "address"
        },
        {
          "internalType": "uint256",
          "name": "tokenId",
          "type": "uint256"
        }
      ],
      "name": "transferFrom",
      "outputs": [],
      "stateMutability": "nonpayable",
      "type": "function"
    },
    {
      "inputs": [
        {
          "internalType": "address",
          "name": "newOwner",
          "type": "address"
        }
      ],
      "name": "transferOwnership",
      "outputs": [],
      "stateMutability": "nonpayable",
      "type": "function"
    }
  ],
  "bytecode": "0x60c0604052600360808190526218171960e91b60a0908152620000269160019190620003bb565b506702669e955a248000600b553480156200004057600080fd5b506040516200447f3803806200447f83398101604081905262000063916200058a565b6001604051602001620000779190620005f4565b60408051808303601f190181528282019091526008825267506f6c794469636560c01b602083015290620000ab33620001d4565b8151620000c0906002906020850190620003bb565b508051620000d6906003906020840190620003bb565b505060408051808201909152601a8082527f68747470733a2f2f646963652e7061727461766174652e636f6d000000000000602090920191825262000120925060159190620003bb565b50600c80546001600160a01b031916331790556200013f828262000224565b5050600f805460018181018355600083905260208083047f8d1108e10bcb7c27dddfc02ed9d693a074039d026cf4ea4240b40f7d581ac8029081018054601f95861661010090810a6006810260ff9182021990931692909217909255865494850190965591830401805492909316900a60148102930219169190911790556010805461011e61ffff199091161790556200077f565b600080546001600160a01b038381166001600160a01b0319831681178455604051919092169283917f8be0079c531659141344cd1fd0a4f28419497f9722a3daafe3b4186f6b6457e09190a35050565b6000546001600160a01b03163314620002835760405162461bcd60e51b815260206004820181905260248201527f4f776e61626c653a2063616c6c6572206973206e6f7420746865206f776e6572604482015260640160405180910390fd5b60005b8251811015620002dc57620002c7838281518110620002a957620002a962000753565b602002602001015160116200033b60201b620016a81790919060201c565b80620002d38162000729565b91505062000286565b5060005b815181101562000336576200032182828151811062000303576200030362000753565b602002602001015160116200035c60201b620016b21790919060201c565b806200032d8162000729565b915050620002e0565b505050565b6200035881836000016200037960201b620016bb1790919060201c565b5050565b6200035881836002016200037960201b620016bb1790919060201c565b600182015460009081526020838152604090912082516200039d92840190620003bb565b50600182018054906000620003b28362000729565b91905055505050565b828054620003c990620006ec565b90600052602060002090601f016020900481019282620003ed576000855562000438565b82601f106200040857805160ff191683800117855562000438565b8280016001018555821562000438579182015b82811115620004385782518255916020019190600101906200041b565b50620004469291506200044a565b5090565b5b808211156200044657600081556001016200044b565b6000601f83818401126200047457600080fd5b825160206001600160401b038083111562000493576200049362000769565b8260051b620004a4838201620006b9565b84815283810190888501838a0186018b1015620004c057600080fd5b600093505b868410156200057c57805185811115620004de57600080fd5b8a01603f81018c13620004f057600080fd5b868101518681111562000507576200050762000769565b6200051a818b01601f19168901620006b9565b81815260408e818486010111156200053157600080fd5b60005b8381101562000551578481018201518382018c01528a0162000534565b83811115620005635760008b85850101525b50508552505060019390930192918501918501620004c5565b509998505050505050505050565b600080604083850312156200059e57600080fd5b82516001600160401b0380821115620005b657600080fd5b620005c48683870162000461565b93506020850151915080821115620005db57600080fd5b50620005ea8582860162000461565b9150509250929050565b6e2837b63ca234b1b2903220b838103b60891b81526000600f6000845481600182811c9150808316806200062957607f831692505b60208084108214156200064a57634e487b7160e01b86526022600452602486fd5b8180156200066157600181146200067757620006aa565b60ff1986168a890152848a0188019650620006aa565b60008b81526020902060005b86811015620006a05781548c82018b015290850190830162000683565b505087858b010196505b50949998505050505050505050565b604051601f8201601f191681016001600160401b0381118282101715620006e457620006e462000769565b604052919050565b600181811c908216806200070157607f821691505b602082108114156200072357634e487b7160e01b600052602260045260246000fd5b50919050565b60006000198214156200074c57634e487b7160e01b600052601160045260246000fd5b5060010190565b634e487b7160e01b600052603260045260246000fd5b634e487b7160e01b600052604160045260246000fd5b613cf0806200078f6000396000f3fe6080604052600436106102195760003560e01c8063715018a61161011d578063c85718c4116100b0578063e1dc07611161007f578063e985e9c511610064578063e985e9c514610640578063f2fde38b14610689578063fce8019a146106a957600080fd5b8063e1dc0761146105fa578063e66fcda81461062b57600080fd5b8063c85718c414610568578063c87b56dd14610588578063d4dd562e146105a8578063dc2c1989146105da57600080fd5b8063a22cb465116100ec578063a22cb465146104f0578063b0d8b51f14610510578063b88d4fde14610532578063c6ead8af1461055257600080fd5b8063715018a61461048857806386ce316b1461049d5780638da5cb5b146104bd57806395d89b41146104db57600080fd5b80632848f6e4116101b057806355f804b31161017f5780636618196c116101645780636618196c146104255780636de9f32b1461045257806370a082311461046857600080fd5b806355f804b3146103e55780636352211e1461040557600080fd5b80632848f6e4146103525780632f745c5914610372578063360dd460146103a557806342842e0e146103c557600080fd5b80630b2cbe61116101ec5780630b2cbe61146102cf578063156221b4146102ef57806318160ddd1461030f57806323b872dd1461033257600080fd5b806301ffc9a71461021e57806306fdde0314610253578063081812fc14610275578063095ea7b3146102ad575b600080fd5b34801561022a57600080fd5b5061023e6102393660046135a7565b6106bc565b60405190151581526020015b60405180910390f35b34801561025f57600080fd5b50610268610759565b60405161024a91906139fc565b34801561028157600080fd5b506102956102903660046136d7565b6107eb565b6040516001600160a01b03909116815260200161024a565b3480156102b957600080fd5b506102cd6102c8366004613517565b610885565b005b3480156102db57600080fd5b506102cd6102ea366004613737565b6109b7565b3480156102fb57600080fd5b506102cd61030a3660046133cd565b610a3e565b34801561031b57600080fd5b50610324610aba565b60405190815260200161024a565b34801561033e57600080fd5b506102cd61034d366004613423565b610ad1565b34801561035e57600080fd5b506102cd61036d36600461371c565b610b58565b34801561037e57600080fd5b5061039261038d366004613517565b610c0b565b60405161ffff909116815260200161024a565b3480156103b157600080fd5b506103246103c0366004613653565b610ce0565b3480156103d157600080fd5b506102cd6103e0366004613423565b610d54565b3480156103f157600080fd5b506102cd6104003660046135e1565b610d6f565b34801561041157600080fd5b506102956104203660046136d7565b610dd5565b34801561043157600080fd5b506104456104403660046133cd565b610e60565b60405161024a919061397c565b34801561045e57600080fd5b5061032460095481565b34801561047457600080fd5b506103246104833660046133cd565b610ef4565b34801561049457600080fd5b506102cd610f8e565b3480156104a957600080fd5b506103246104b83660046133cd565b610ff4565b3480156104c957600080fd5b506000546001600160a01b0316610295565b3480156104e757600080fd5b5061026861109a565b3480156104fc57600080fd5b506102cd61050b3660046134e4565b6110a9565b34801561051c57600080fd5b506105256110b8565b60405161024a91906139c4565b34801561053e57600080fd5b506102cd61054d366004613464565b61115d565b34801561055e57600080fd5b50610324600a5481565b34801561057457600080fd5b506102cd6105833660046136d7565b6111eb565b34801561059457600080fd5b506102686105a33660046136d7565b61124a565b3480156105b457600080fd5b506105c86105c33660046136f0565b6112e5565b60405160ff909116815260200161024a565b3480156105e657600080fd5b506102cd6105f5366004613543565b611363565b34801561060657600080fd5b5061061a6106153660046136d7565b611454565b60405161024a959493929190613a0f565b34801561063757600080fd5b50600b54610324565b34801561064c57600080fd5b5061023e61065b3660046133ea565b6001600160a01b03918216600090815260076020908152604080832093909416825291909152205460ff1690565b34801561069557600080fd5b506102cd6106a43660046133cd565b611478565b6102cd6106b736600461371c565b61155a565b60006001600160e01b031982167f80ac58cd00000000000000000000000000000000000000000000000000000000148061071f57506001600160e01b031982167f5b5e139f00000000000000000000000000000000000000000000000000000000145b8061075357507f01ffc9a7000000000000000000000000000000000000000000000000000000006001600160e01b03198316145b92915050565b60606002805461076890613b75565b80601f016020809104026020016040519081016040528092919081815260200182805461079490613b75565b80156107e15780601f106107b6576101008083540402835291602001916107e1565b820191906000526020600020905b8154815290600101906020018083116107c457829003601f168201915b5050505050905090565b6000818152600460205260408120546001600160a01b03166108695760405162461bcd60e51b815260206004820152602c60248201527f4552433732313a20617070726f76656420717565727920666f72206e6f6e657860448201526b34b9ba32b73a103a37b5b2b760a11b60648201526084015b60405180910390fd5b506000908152600660205260409020546001600160a01b031690565b600061089082610dd5565b9050806001600160a01b0316836001600160a01b0316141561091a5760405162461bcd60e51b815260206004820152602160248201527f4552433732313a20617070726f76616c20746f2063757272656e74206f776e6560448201527f72000000000000000000000000000000000000000000000000000000000000006064820152608401610860565b336001600160a01b03821614806109365750610936813361065b565b6109a85760405162461bcd60e51b815260206004820152603860248201527f4552433732313a20617070726f76652063616c6c6572206973206e6f74206f7760448201527f6e6572206e6f7220617070726f76656420666f7220616c6c00000000000000006064820152608401610860565b6109b283836116f9565b505050565b6000546001600160a01b03163314610a115760405162461bcd60e51b815260206004820181905260248201527f4f776e61626c653a2063616c6c6572206973206e6f7420746865206f776e65726044820152606401610860565b60005b8260ff168160ff1610156109b257610a2b82611767565b5080610a3681613bcb565b915050610a14565b6000546001600160a01b03163314610a985760405162461bcd60e51b815260206004820181905260248201527f4f776e61626c653a2063616c6c6572206973206e6f7420746865206f776e65726044820152606401610860565b600c80546001600160a01b0319166001600160a01b0392909216919091179055565b6000600a54600954610acc9190613b32565b905090565b610adb3382611773565b610b4d5760405162461bcd60e51b815260206004820152603160248201527f4552433732313a207472616e736665722063616c6c6572206973206e6f74206f60448201527f776e6572206e6f7220617070726f7665640000000000000000000000000000006064820152608401610860565b6109b283838361186a565b6000546001600160a01b03163314610bb25760405162461bcd60e51b815260206004820181905260248201527f4f776e61626c653a2063616c6c6572206973206e6f7420746865206f776e65726044820152606401610860565b600f8054600181018255600091909152602081047f8d1108e10bcb7c27dddfc02ed9d693a074039d026cf4ea4240b40f7d581ac80201805460ff938416601f9093166101000a9283029390920219909116919091179055565b6000610c1683610ef4565b8210610c8a5760405162461bcd60e51b815260206004820152603160248201527f45524337323153696d706c65456e756d657261626c653a206f776e657220696e60448201527f646578206f7574206f6620626f756e64730000000000000000000000000000006064820152608401610860565b6001600160a01b0383166000908152600860205260409020805483908110610cb457610cb4613c63565b90600052602060002090601091828204019190066002029054906101000a900461ffff16905092915050565b600080546001600160a01b03163314610d3b5760405162461bcd60e51b815260206004820181905260248201527f4f776e61626c653a2063616c6c6572206973206e6f7420746865206f776e65726044820152606401610860565b610d488686868686611a42565b90505b95945050505050565b6109b28383836040518060200160405280600081525061115d565b6000546001600160a01b03163314610dc95760405162461bcd60e51b815260206004820181905260248201527f4f776e61626c653a2063616c6c6572206973206e6f7420746865206f776e65726044820152606401610860565b6109b260158383613193565b6000818152600460205260408120546001600160a01b0316806107535760405162461bcd60e51b815260206004820152602960248201527f4552433732313a206f776e657220717565727920666f72206e6f6e657869737460448201527f656e7420746f6b656e00000000000000000000000000000000000000000000006064820152608401610860565b6001600160a01b038116600090815260086020908152604091829020805483518184028101840190945280845260609392830182828015610ee857602002820191906000526020600020906000905b82829054906101000a900461ffff1661ffff1681526020019060020190602082600101049283019260010382029150808411610eaf5790505b50505050509050919050565b60006001600160a01b038216610f725760405162461bcd60e51b815260206004820152602a60248201527f4552433732313a2062616c616e636520717565727920666f7220746865207a6560448201527f726f2061646472657373000000000000000000000000000000000000000000006064820152608401610860565b506001600160a01b031660009081526005602052604090205490565b6000546001600160a01b03163314610fe85760405162461bcd60e51b815260206004820181905260248201527f4f776e61626c653a2063616c6c6572206973206e6f7420746865206f776e65726044820152606401610860565b610ff26000611a76565b565b600080546001600160a01b0316331461104f5760405162461bcd60e51b815260206004820181905260248201527f4f776e61626c653a2063616c6c6572206973206e6f7420746865206f776e65726044820152606401610860565b600061105a600d5490565b90506000611069601183611ac6565b90506000808061107a600e86611b07565b92509250925061108d848484848b611a42565b955050505050505b919050565b60606003805461076890613b75565b6110b4338383611c42565b5050565b606060006110c533610ef4565b905060008167ffffffffffffffff8111156110e2576110e2613c79565b60405190808252806020026020018201604052801561110b578160200160208202803683370190505b50905060005b82811015611156576111233382610c0b565b61ffff1682828151811061113957611139613c63565b60209081029190910101528061114e81613bb0565b915050611111565b5092915050565b6111673383611773565b6111d95760405162461bcd60e51b815260206004820152603160248201527f4552433732313a207472616e736665722063616c6c6572206973206e6f74206f60448201527f776e6572206e6f7220617070726f7665640000000000000000000000000000006064820152608401610860565b6111e584848484611d11565b50505050565b6000546001600160a01b031633146112455760405162461bcd60e51b815260206004820181905260248201527f4f776e61626c653a2063616c6c6572206973206e6f7420746865206f776e65726044820152606401610860565b600b55565b6000818152600460205260409020546060906001600160a01b03166112b15760405162461bcd60e51b815260206004820152601160248201527f6e6f6e6578697374656e7420746f6b656e0000000000000000000000000000006044820152606401610860565b60156112be600e84611d8f565b6040516020016112cf929190613854565b6040516020818303038152906040529050919050565b60006112f083610dd5565b6001600160a01b0316336001600160a01b0316146113505760405162461bcd60e51b815260206004820152600a60248201527f4e6f7420796f7572732e000000000000000000000000000000000000000000006044820152606401610860565b61135c600e8484611e33565b9392505050565b6000546001600160a01b031633146113bd5760405162461bcd60e51b815260206004820181905260248201527f4f776e61626c653a2063616c6c6572206973206e6f7420746865206f776e65726044820152606401610860565b60005b8251811015611408576113f68382815181106113de576113de613c63565b602002602001015160116116a890919063ffffffff16565b8061140081613bb0565b9150506113c0565b5060005b81518110156109b25761144282828151811061142a5761142a613c63565b602002602001015160116116b290919063ffffffff16565b8061144c81613bb0565b91505061140c565b60606000818082611466600e87611ed2565b939a9299509097509550909350915050565b6000546001600160a01b031633146114d25760405162461bcd60e51b815260206004820181905260248201527f4f776e61626c653a2063616c6c6572206973206e6f7420746865206f776e65726044820152606401610860565b6001600160a01b03811661154e5760405162461bcd60e51b815260206004820152602660248201527f4f776e61626c653a206e6577206f776e657220697320746865207a65726f206160448201527f64647265737300000000000000000000000000000000000000000000000000006064820152608401610860565b61155781611a76565b50565b8060ff16600b5461156b9190613b13565b3410156115ba5760405162461bcd60e51b815260206004820152600f60248201527f6e6f7420656e6f756768206361736800000000000000000000000000000000006044820152606401610860565b60005b8160ff168110156115e4576115d133611767565b50806115dc81613bb0565b9150506115bd565b50612710600b546127296115f89190613b13565b6116029190613ad5565b600b55600c546040516000916001600160a01b03169034908381818185875af1925050503d8060008114611652576040519150601f19603f3d011682016040523d82523d6000602084013e611657565b606091505b50509050806110b45760405162461bcd60e51b815260206004820152601a60248201527f4661696c656420746f20666f7277617264207061796d656e742e0000000000006044820152606401610860565b6110b482826116bb565b6110b460028301825b600182015460009081526020838152604090912082516116dd92840190613217565b506001820180549060006116f083613bb0565b91905055505050565b600081815260066020526040902080546001600160a01b0319166001600160a01b038416908117909155819061172e82610dd5565b6001600160a01b03167f8c5be1e5ebec7d5bd14f71427d1e84f3dd0314c0f7b2291e5b200ac8c7c3b92560405160405180910390a45050565b60008061105a600d5490565b6000818152600460205260408120546001600160a01b03166117ec5760405162461bcd60e51b815260206004820152602c60248201527f4552433732313a206f70657261746f7220717565727920666f72206e6f6e657860448201526b34b9ba32b73a103a37b5b2b760a11b6064820152608401610860565b60006117f783610dd5565b9050806001600160a01b0316846001600160a01b031614806118325750836001600160a01b0316611827846107eb565b6001600160a01b0316145b8061186257506001600160a01b0380821660009081526007602090815260408083209388168352929052205460ff165b949350505050565b826001600160a01b031661187d82610dd5565b6001600160a01b0316146118f95760405162461bcd60e51b815260206004820152602560248201527f4552433732313a207472616e736665722066726f6d20696e636f72726563742060448201527f6f776e65720000000000000000000000000000000000000000000000000000006064820152608401610860565b6001600160a01b0382166119745760405162461bcd60e51b8152602060048201526024808201527f4552433732313a207472616e7366657220746f20746865207a65726f2061646460448201527f72657373000000000000000000000000000000000000000000000000000000006064820152608401610860565b61197f838383611fd5565b61198a6000826116f9565b6001600160a01b03831660009081526005602052604081208054600192906119b3908490613b32565b90915550506001600160a01b03821660009081526005602052604081208054600192906119e1908490613a98565b909155505060008181526004602052604080822080546001600160a01b0319166001600160a01b0386811691821790925591518493918716917fddf252ad1be2c89b69c2b068fc378daa952ba7f163c4a11628f55a4df523b3ef91a4505050565b6000611a4d600d5490565b9050611a5e600e8288888888612098565b611a68828261223e565b610d4b600d80546001019055565b600080546001600160a01b038381166001600160a01b0319831681178455604051919092169283917f8be0079c531659141344cd1fd0a4f28419497f9722a3daafe3b4186f6b6457e09190a35050565b6060611ad28383612258565b611adf6002850184612258565b604051602001611af0929190613818565b604051602081830303815290604052905092915050565b6001820180546040805144602080830191909152428284015233606083015261ffff86166080808401919091528351808403909101815260a090920190925280519101206000928392839260ff16611b5f9190613beb565b81548110611b6f57611b6f613c63565b600091825260209182902091810490910154600287015460ff601f9093166101000a90910482169450611ba491166001613ab0565b611bfa611bb460ff861687613ae9565b60408051446020820152429181019190915233606082015261ffff8216608082015260009060a00160408051601f19818403018152919052805160209091012092915050565b611c049190613bff565b6002860154909250611c1f90610100900460ff166001613ab0565b611c2f611bb460ff851687613ae9565b611c399190613bff565b90509250925092565b816001600160a01b0316836001600160a01b03161415611ca45760405162461bcd60e51b815260206004820152601960248201527f4552433732313a20617070726f766520746f2063616c6c6572000000000000006044820152606401610860565b6001600160a01b03838116600081815260076020908152604080832094871680845294825291829020805460ff191686151590811790915591519182527f17307eab39ab6107e8899845ad3d59bd9653f200f220920489ca2b5937696c31910160405180910390a3505050565b611d1c84848461186a565b611d2884848484612312565b6111e55760405162461bcd60e51b815260206004820152603260248201527f4552433732313a207472616e7366657220746f206e6f6e20455243373231526560448201527131b2b4bb32b91034b6b83632b6b2b73a32b960711b6064820152608401610860565b600081815260208390526040812060010154606091908190611db890610100900460ff1661246a565b6000868152602088905260409020600181015492945090925090611dde9060ff16612c3c565b60008681526020889052604090206001015484908490611e069062010000900460ff16612c3c565b604051602001611e1a959493929190613879565b6040516020818303038152906040529250505092915050565b600082815260208490526040812060010154819060ff16600a14611e58576001611e5b565b60005b6000858152602087815260408083206001015481514481850152428184015233606082015261ffff89166080808301919091528351808303909101815260a090910190925281519190920120929350909160ff808516921690611ebe9190613beb565b611ec89190613a98565b9695505050505050565b6000818152602083905260408120600101546060919082908190839081908190611f0390610100900460ff1661246a565b60008a815260208c905260409020600181015481549395509193509160ff808316928692869262010000909204909116908590611f3f90613b75565b80601f0160208091040260200160405190810160405280929190818152602001828054611f6b90613b75565b8015611fb85780601f10611f8d57610100808354040283529160200191611fb8565b820191906000526020600020905b815481529060010190602001808311611f9b57829003601f168201915b505050505094509650965096509650965050509295509295909350565b826001600160a01b0316826001600160a01b0316146109b2576001600160a01b038216600090815260086020908152604082208054600181018255908352912060108204018054600f9092166002026101000a61ffff81810219909316928416029190911790556001600160a01b0383161561205a576120558382612d6e565b612070565b6009805490600061206a83613bb0565b91905055505b6001600160a01b0382166109b257600a805490600061208e83613bb0565b9190505550505050565b600286015460ff90811690831611156120f35760405162461bcd60e51b815260206004820152601360248201527f496e76616c696420636f6c6f72207468656d65000000000000000000000000006044820152606401610860565b600286015460ff610100909104811690821611156121535760405162461bcd60e51b815260206004820152601360248201527f496e76616c696420636f6c6f72207468656d65000000000000000000000000006044820152606401610860565b61215d8684612f52565b6121a95760405162461bcd60e51b815260206004820152601760248201527f496e76616c6964206e756d626572206f662073696465730000000000000000006044820152606401610860565b6040805160808101825285815260ff80861660208084019190915285821683850152908416606083015260008881528982529290922081518051929391926121f49284920190613217565b50602082015160019091018054604084015160609094015160ff908116620100000262ff0000199582166101000261ffff1990931691909416171792909216179055505050505050565b6110b4828260405180602001604052806000815250612fc7565b6000808360010154116122ad5760405162461bcd60e51b815260206004820152600860248201527f6e6f20776f7264730000000000000000000000000000000000000000000000006044820152606401610860565b6001830154604080514460208201524291810191909152336060820152608081018490526000919060a0016040516020818303038152906040528051906020012060001c6122fb9190613beb565b600090815260208590526040902091505092915050565b60006001600160a01b0384163b1561245f57604051630a85bd0160e11b81526001600160a01b0385169063150b7a029061235690339089908890889060040161394a565b602060405180830381600087803b15801561237057600080fd5b505af19250505080156123a0575060408051601f3d908101601f1916820190925261239d918101906135c4565b60015b612445573d8080156123ce576040519150601f19603f3d011682016040523d82523d6000602084013e6123d3565b606091505b50805161243d5760405162461bcd60e51b815260206004820152603260248201527f4552433732313a207472616e7366657220746f206e6f6e20455243373231526560448201527131b2b4bb32b91034b6b83632b6b2b73a32b960711b6064820152608401610860565b805181602001fd5b6001600160e01b031916630a85bd0160e11b149050611862565b506001949350505050565b606080601e8360ff1611156124c15760405162461bcd60e51b815260206004820152601260248201527f7374796c65206f7574206f662072616e676500000000000000000000000000006044820152606401610860565b60038360ff1611612506575060408051808201909152600681527f303031333465000000000000000000000000000000000000000000000000000060208201526128e1565b60048360ff161015801561251e575060078360ff1611155b1561255d575060408051808201909152600681527f316131613161000000000000000000000000000000000000000000000000000060208201526128e1565b60088360ff16101580156125755750600a8360ff1611155b1561259d575060408051808201909152600681526533333333333360d11b60208201526128e1565b600b8360ff16101580156125b55750600d8360ff1611155b156125f4575060408051808201909152600681527f353535373533000000000000000000000000000000000000000000000000000060208201526128e1565b600e8360ff161015801561260c575060108360ff1611155b1561264b575060408051808201909152600681527f386231306430000000000000000000000000000000000000000000000000000060208201526128e1565b60118360ff1610158015612663575060138360ff1611155b156126a2575060408051808201909152600681527f656364633139000000000000000000000000000000000000000000000000000060208201526128e1565b8260ff16601414806126b757508260ff166015145b156126f6575060408051808201909152600681527f343038666464000000000000000000000000000000000000000000000000000060208201526128e1565b8260ff166016148061270b57508260ff166017145b1561274a575060408051808201909152600681527f333137613236000000000000000000000000000000000000000000000000000060208201526128e1565b8260ff166018148061275f57508260ff166019145b1561279e575060408051808201909152600681527f663231643061000000000000000000000000000000000000000000000000000060208201526128e1565b8260ff16601a14156127e4575060408051808201909152600681527f383866663434000000000000000000000000000000000000000000000000000060208201526128e1565b8260ff16601b141561282a575060408051808201909152600681527f643039633130000000000000000000000000000000000000000000000000000060208201526128e1565b8260ff16601c1415612870575060408051808201909152600681527f656635346461000000000000000000000000000000000000000000000000000060208201526128e1565b8260ff16601d14156128b6575060408051808201909152600681527f346530303030000000000000000000000000000000000000000000000000000060208201526128e1565b8260ff16601e14156128e1575060408051808201909152600681526518181818333360d11b60208201525b60ff831615806128f457508260ff166004145b8061290257508260ff166008145b8061291057508260ff166011145b8061291e57508260ff16601a145b15612949576040518060400160405280600681526020016518181818333360d11b8152509150915091565b8260ff166001148061295e57508260ff166005145b156129a0576040518060400160405280600681526020017f30306666303000000000000000000000000000000000000000000000000000008152509150915091565b8260ff16600214806129b557508260ff166006145b806129c357508260ff16600a145b806129d157508260ff166013145b806129df57508260ff16601c145b15612a21576040518060400160405280600681526020017f66663030303000000000000000000000000000000000000000000000000000008152509150915091565b8260ff1660031480612a3657508260ff166007145b80612a4457508260ff16600d145b80612a5257508260ff166010145b80612a6057508260ff166015145b80612a6e57508260ff166017145b80612a7c57508260ff166019145b80612a8a57508260ff16601d145b80612a9857508260ff16601e145b15612ac3576040518060400160405280600681526020016533333333333360d11b8152509150915091565b8260ff1660091480612ad857508260ff16600b145b80612ae657508260ff16600e145b80612af457508260ff166012145b80612b0257508260ff166014145b80612b1057508260ff16601b145b15612b52576040518060400160405280600681526020017f30303030303000000000000000000000000000000000000000000000000000008152509150915091565b8260ff16600c1480612b6757508260ff166016145b15612ba9576040518060400160405280600681526020017f38386666383800000000000000000000000000000000000000000000000000008152509150915091565b8260ff16600f1415612bf2576040518060400160405280600681526020017f36366363363600000000000000000000000000000000000000000000000000008152509150915091565b8260ff1660181415612c37576040518060400160405280600681526020017f383830303030000000000000000000000000000000000000000000000000000081525091505b915091565b606081612c7c57505060408051808201909152600181527f3000000000000000000000000000000000000000000000000000000000000000602082015290565b8160005b8115612ca65780612c9081613bb0565b9150612c9f9050600a83613ad5565b9150612c80565b60008167ffffffffffffffff811115612cc157612cc1613c79565b6040519080825280601f01601f191660200182016040528015612ceb576020820181803683370190505b5090505b841561186257612d00600183613b32565b9150612d0d600a86613beb565b612d18906030613a98565b60f81b818381518110612d2d57612d2d613c63565b60200101907effffffffffffffffffffffffffffffffffffffffffffffffffffffffffffff1916908160001a905350612d67600a86613ad5565b9450612cef565b6001600160a01b0382166000908152600860205260408120805490915b8254811015612ded578361ffff16838281548110612dab57612dab613c63565b60009182526020909120601082040154600f9091166002026101000a900461ffff161415612ddb57809150612ded565b80612de581613bb0565b915050612d8b565b5081548110612e645760405162461bcd60e51b815260206004820152603760248201527f45524337323153696d706c65456e756d657261626c653a20746f6b656e49642060448201527f6e6f7420666f756e6420696e206f776e6572206c6973740000000000000000006064820152608401610860565b805b8254612e7490600190613b32565b811015612f0f5782612e87826001613a98565b81548110612e9757612e97613c63565b90600052602060002090601091828204019190066002029054906101000a900461ffff16838281548110612ecd57612ecd613c63565b90600052602060002090601091828204019190066002026101000a81548161ffff021916908361ffff1602179055508080612f0790613bb0565b915050612e66565b5081805480612f2057612f20613c4d565b600082815260209020601060001990920191820401805461ffff6002600f8516026101000a0219169055905550505050565b6000805b6001840154811015612fbd578260ff16846001018281548110612f7b57612f7b613c63565b60009182526020918290209181049091015460ff601f9092166101000a9004161415612fab576001915050610753565b80612fb581613bb0565b915050612f56565b5060009392505050565b612fd18383613045565b612fde6000848484612312565b6109b25760405162461bcd60e51b815260206004820152603260248201527f4552433732313a207472616e7366657220746f206e6f6e20455243373231526560448201527131b2b4bb32b91034b6b83632b6b2b73a32b960711b6064820152608401610860565b6001600160a01b03821661309b5760405162461bcd60e51b815260206004820181905260248201527f4552433732313a206d696e7420746f20746865207a65726f20616464726573736044820152606401610860565b6000818152600460205260409020546001600160a01b0316156131005760405162461bcd60e51b815260206004820152601c60248201527f4552433732313a20746f6b656e20616c7265616479206d696e746564000000006044820152606401610860565b61310c60008383611fd5565b6001600160a01b0382166000908152600560205260408120805460019290613135908490613a98565b909155505060008181526004602052604080822080546001600160a01b0319166001600160a01b03861690811790915590518392907fddf252ad1be2c89b69c2b068fc378daa952ba7f163c4a11628f55a4df523b3ef908290a45050565b82805461319f90613b75565b90600052602060002090601f0160209004810192826131c15760008555613207565b82601f106131da5782800160ff19823516178555613207565b82800160010185558215613207579182015b828111156132075782358255916020019190600101906131ec565b5061321392915061328b565b5090565b82805461322390613b75565b90600052602060002090601f0160209004810192826132455760008555613207565b82601f1061325e57805160ff1916838001178555613207565b82800160010185558215613207579182015b82811115613207578251825591602001919060010190613270565b5b80821115613213576000815560010161328c565b600067ffffffffffffffff8311156132ba576132ba613c79565b6132cd601f8401601f1916602001613a67565b90508281528383830111156132e157600080fd5b828260208301376000602084830101529392505050565b600082601f83011261330957600080fd5b8135602067ffffffffffffffff8083111561332657613326613c79565b8260051b613335838201613a67565b8481528381019087850183890186018a101561335057600080fd5b60009350835b8781101561338d5781358681111561336c578586fd5b61337a8c89838e010161339c565b8552509286019290860190600101613356565b50909998505050505050505050565b600082601f8301126133ad57600080fd5b61135c838335602085016132a0565b803560ff8116811461109557600080fd5b6000602082840312156133df57600080fd5b813561135c81613c8f565b600080604083850312156133fd57600080fd5b823561340881613c8f565b9150602083013561341881613c8f565b809150509250929050565b60008060006060848603121561343857600080fd5b833561344381613c8f565b9250602084013561345381613c8f565b929592945050506040919091013590565b6000806000806080858703121561347a57600080fd5b843561348581613c8f565b9350602085013561349581613c8f565b925060408501359150606085013567ffffffffffffffff8111156134b857600080fd5b8501601f810187136134c957600080fd5b6134d8878235602084016132a0565b91505092959194509250565b600080604083850312156134f757600080fd5b823561350281613c8f565b91506020830135801515811461341857600080fd5b6000806040838503121561352a57600080fd5b823561353581613c8f565b946020939093013593505050565b6000806040838503121561355657600080fd5b823567ffffffffffffffff8082111561356e57600080fd5b61357a868387016132f8565b9350602085013591508082111561359057600080fd5b5061359d858286016132f8565b9150509250929050565b6000602082840312156135b957600080fd5b813561135c81613ca4565b6000602082840312156135d657600080fd5b815161135c81613ca4565b600080602083850312156135f457600080fd5b823567ffffffffffffffff8082111561360c57600080fd5b818501915085601f83011261362057600080fd5b81358181111561362f57600080fd5b86602082850101111561364157600080fd5b60209290920196919550909350505050565b600080600080600060a0868803121561366b57600080fd5b853567ffffffffffffffff81111561368257600080fd5b61368e8882890161339c565b95505061369d602087016133bc565b93506136ab604087016133bc565b92506136b9606087016133bc565b915060808601356136c981613c8f565b809150509295509295909350565b6000602082840312156136e957600080fd5b5035919050565b6000806040838503121561370357600080fd5b82359150602083013561ffff8116811461341857600080fd5b60006020828403121561372e57600080fd5b61135c826133bc565b6000806040838503121561374a57600080fd5b613408836133bc565b6000815180845261376b816020860160208601613b49565b601f01601f19169290920160200192915050565b8054600090600181811c908083168061379957607f831692505b60208084108214156137bb57634e487b7160e01b600052602260045260246000fd5b8180156137cf57600181146137e05761380c565b60ff1986168952848901965061380c565b876000528160002060005b868110156138045781548b8201529085019083016137eb565b505084890196505b50505050505092915050565b6000613824828561377f565b7f20000000000000000000000000000000000000000000000000000000000000008152610d4b600182018561377f565b6000613860828561377f565b8351613870818360208801613b49565b01949350505050565b7f2f6d657461646174610000000000000000000000000000000000000000000000815260007f2f000000000000000000000000000000000000000000000000000000000000008060098401526138d2600a84018961377f565b81815287516138e8816001840160208c01613b49565b01600181018290528651613903816002840160208b01613b49565b0160028101829052855161391e816003840160208a01613b49565b01600381019190915283519061393b826004830160208801613b49565b01600401979650505050505050565b60006001600160a01b03808716835280861660208401525083604083015260806060830152610d486080830184613753565b6020808252825182820181905260009190848201906040850190845b818110156139b857835161ffff1683529284019291840191600101613998565b50909695505050505050565b6020808252825182820181905260009190848201906040850190845b818110156139b8578351835292840192918401916001016139e0565b60208152600061135c6020830184613753565b60a081526000613a2260a0830188613753565b60ff871660208401528281036040840152613a3d8187613753565b90508281036060840152613a518186613753565b91505060ff831660808301529695505050505050565b604051601f8201601f1916810167ffffffffffffffff81118282101715613a9057613a90613c79565b604052919050565b60008219821115613aab57613aab613c21565b500190565b600060ff821660ff84168060ff03821115613acd57613acd613c21565b019392505050565b600082613ae457613ae4613c37565b500490565b600061ffff80831681851681830481118215151615613b0a57613b0a613c21565b02949350505050565b6000816000190483118215151615613b2d57613b2d613c21565b500290565b600082821015613b4457613b44613c21565b500390565b60005b83811015613b64578181015183820152602001613b4c565b838111156111e55750506000910152565b600181811c90821680613b8957607f821691505b60208210811415613baa57634e487b7160e01b600052602260045260246000fd5b50919050565b6000600019821415613bc457613bc4613c21565b5060010190565b600060ff821660ff811415613be257613be2613c21565b60010192915050565b600082613bfa57613bfa613c37565b500690565b600060ff831680613c1257613c12613c37565b8060ff84160691505092915050565b634e487b7160e01b600052601160045260246000fd5b634e487b7160e01b600052601260045260246000fd5b634e487b7160e01b600052603160045260246000fd5b634e487b7160e01b600052603260045260246000fd5b634e487b7160e01b600052604160045260246000fd5b6001600160a01b038116811461155757600080fd5b6001600160e01b03198116811461155757600080fdfea2646970667358221220f5238f5f0f8dfaad714b350901c4575acdd2fe6fb1d88ac2cdd20a9c1db6631b64736f6c63430008060033",
  "linkReferences": {},
  "deployedLinkReferences": {}
}