{
  "_format": "hh-sol-artifact-1",
  "contractName": "TabletopDiceNFT",
  "sourceName": "contracts/Dice.sol",
  "abi": [
    {
      "inputs": [
        {
          "internalType": "string[]",
          "name": "adjectives",
          "type": "string[]"
        },
        {
          "internalType": "string[]",
          "name": "nouns",
          "type": "string[]"
        }
      ],
      "stateMutability": "nonpayable",
      "type": "constructor"
    },
    {
      "anonymous": false,
      "inputs": [
        {
          "indexed": true,
          "internalType": "address",
          "name": "owner",
          "type": "address"
        },
        {
          "indexed": true,
          "internalType": "address",
          "name": "approved",
          "type": "address"
        },
        {
          "indexed": true,
          "internalType": "uint256",
          "name": "tokenId",
          "type": "uint256"
        }
      ],
      "name": "Approval",
      "type": "event"
    },
    {
      "anonymous": false,
      "inputs": [
        {
          "indexed": true,
          "internalType": "address",
          "name": "owner",
          "type": "address"
        },
        {
          "indexed": true,
          "internalType": "address",
          "name": "operator",
          "type": "address"
        },
        {
          "indexed": false,
          "internalType": "bool",
          "name": "approved",
          "type": "bool"
        }
      ],
      "name": "ApprovalForAll",
      "type": "event"
    },
    {
      "anonymous": false,
      "inputs": [
        {
          "indexed": true,
          "internalType": "address",
          "name": "previousOwner",
          "type": "address"
        },
        {
          "indexed": true,
          "internalType": "address",
          "name": "newOwner",
          "type": "address"
        }
      ],
      "name": "OwnershipTransferred",
      "type": "event"
    },
    {
      "anonymous": false,
      "inputs": [
        {
          "indexed": true,
          "internalType": "address",
          "name": "from",
          "type": "address"
        },
        {
          "indexed": true,
          "internalType": "address",
          "name": "to",
          "type": "address"
        },
        {
          "indexed": true,
          "internalType": "uint256",
          "name": "tokenId",
          "type": "uint256"
        }
      ],
      "name": "Transfer",
      "type": "event"
    },
    {
      "inputs": [
        {
          "internalType": "string[]",
          "name": "adjectives",
          "type": "string[]"
        }
      ],
      "name": "addAdjectives",
      "outputs": [],
      "stateMutability": "nonpayable",
      "type": "function"
    },
    {
      "inputs": [
        {
          "internalType": "string[]",
          "name": "nouns",
          "type": "string[]"
        }
      ],
      "name": "addNouns",
      "outputs": [],
      "stateMutability": "nonpayable",
      "type": "function"
    },
    {
      "inputs": [
        {
          "internalType": "address",
          "name": "to",
          "type": "address"
        },
        {
          "internalType": "uint256",
          "name": "tokenId",
          "type": "uint256"
        }
      ],
      "name": "approve",
      "outputs": [],
      "stateMutability": "nonpayable",
      "type": "function"
    },
    {
      "inputs": [
        {
          "internalType": "address",
          "name": "owner",
          "type": "address"
        }
      ],
      "name": "balanceOf",
      "outputs": [
        {
          "internalType": "uint256",
          "name": "",
          "type": "uint256"
        }
      ],
      "stateMutability": "view",
      "type": "function"
    },
    {
      "inputs": [
        {
          "internalType": "uint256",
          "name": "tokenId",
          "type": "uint256"
        }
      ],
      "name": "getApproved",
      "outputs": [
        {
          "internalType": "address",
          "name": "",
          "type": "address"
        }
      ],
      "stateMutability": "view",
      "type": "function"
    },
    {
      "inputs": [
        {
          "internalType": "uint8",
          "name": "styleId",
          "type": "uint8"
        }
      ],
      "name": "getColorTheme",
      "outputs": [
        {
          "internalType": "string",
          "name": "foreground",
          "type": "string"
        },
        {
          "internalType": "string",
          "name": "background",
          "type": "string"
        }
      ],
      "stateMutability": "pure",
      "type": "function"
    },
    {
      "inputs": [],
      "name": "getOwnedTokenIds",
      "outputs": [
        {
          "internalType": "uint256[]",
          "name": "",
          "type": "uint256[]"
        }
      ],
      "stateMutability": "view",
      "type": "function"
    },
    {
      "inputs": [
        {
          "internalType": "uint256",
          "name": "tokenId",
          "type": "uint256"
        }
      ],
      "name": "getOwnerOf",
      "outputs": [
        {
          "internalType": "address",
          "name": "",
          "type": "address"
        }
      ],
      "stateMutability": "view",
      "type": "function"
    },
    {
      "inputs": [
        {
          "internalType": "uint256",
          "name": "tokenId",
          "type": "uint256"
        }
      ],
      "name": "getTraits",
      "outputs": [
        {
          "internalType": "string",
          "name": "name",
          "type": "string"
        },
        {
          "internalType": "uint8",
          "name": "sides",
          "type": "uint8"
        },
        {
          "internalType": "string",
          "name": "fgColor",
          "type": "string"
        },
        {
          "internalType": "string",
          "name": "bgColor",
          "type": "string"
        },
        {
          "internalType": "uint8",
          "name": "font",
          "type": "uint8"
        }
      ],
      "stateMutability": "view",
      "type": "function"
    },
    {
      "inputs": [
        {
          "internalType": "address",
          "name": "owner",
          "type": "address"
        },
        {
          "internalType": "address",
          "name": "operator",
          "type": "address"
        }
      ],
      "name": "isApprovedForAll",
      "outputs": [
        {
          "internalType": "bool",
          "name": "",
          "type": "bool"
        }
      ],
      "stateMutability": "view",
      "type": "function"
    },
    {
      "inputs": [
        {
          "internalType": "address",
          "name": "owner",
          "type": "address"
        },
        {
          "internalType": "string",
          "name": "name",
          "type": "string"
        },
        {
          "internalType": "uint8",
          "name": "sides",
          "type": "uint8"
        },
        {
          "internalType": "uint8",
          "name": "styleId",
          "type": "uint8"
        },
        {
          "internalType": "uint8",
          "name": "font",
          "type": "uint8"
        }
      ],
      "name": "mintNFT",
      "outputs": [
        {
          "internalType": "uint256",
          "name": "",
          "type": "uint256"
        }
      ],
      "stateMutability": "nonpayable",
      "type": "function"
    },
    {
      "inputs": [
        {
          "internalType": "address",
          "name": "owner",
          "type": "address"
        },
        {
          "internalType": "string",
          "name": "name",
          "type": "string"
        },
        {
          "internalType": "uint8",
          "name": "sides",
          "type": "uint8"
        },
        {
          "internalType": "uint8",
          "name": "styleId",
          "type": "uint8"
        },
        {
          "internalType": "uint8",
          "name": "font",
          "type": "uint8"
        },
        {
          "internalType": "uint16",
          "name": "count",
          "type": "uint16"
        }
      ],
      "name": "mintNFTBatch",
      "outputs": [],
      "stateMutability": "nonpayable",
      "type": "function"
    },
    {
      "inputs": [],
      "name": "mintRandomDice",
      "outputs": [
        {
          "internalType": "uint256",
          "name": "count",
          "type": "uint256"
        }
      ],
      "stateMutability": "payable",
      "type": "function"
    },
    {
      "inputs": [],
      "name": "mintRandomDie",
      "outputs": [
        {
          "internalType": "uint256",
          "name": "",
          "type": "uint256"
        }
      ],
      "stateMutability": "nonpayable",
      "type": "function"
    },
    {
      "inputs": [],
      "name": "name",
      "outputs": [
        {
          "internalType": "string",
          "name": "",
          "type": "string"
        }
      ],
      "stateMutability": "view",
      "type": "function"
    },
    {
      "inputs": [],
      "name": "owner",
      "outputs": [
        {
          "internalType": "address",
          "name": "",
          "type": "address"
        }
      ],
      "stateMutability": "view",
      "type": "function"
    },
    {
      "inputs": [
        {
          "internalType": "uint256",
          "name": "tokenId",
          "type": "uint256"
        }
      ],
      "name": "ownerOf",
      "outputs": [
        {
          "internalType": "address",
          "name": "",
          "type": "address"
        }
      ],
      "stateMutability": "view",
      "type": "function"
    },
    {
      "inputs": [],
      "name": "renounceOwnership",
      "outputs": [],
      "stateMutability": "nonpayable",
      "type": "function"
    },
    {
      "inputs": [
        {
          "internalType": "uint256",
          "name": "tokenId",
          "type": "uint256"
        },
        {
          "internalType": "uint16",
          "name": "nonce",
          "type": "uint16"
        }
      ],
      "name": "roll",
      "outputs": [
        {
          "internalType": "uint8",
          "name": "",
          "type": "uint8"
        }
      ],
      "stateMutability": "view",
      "type": "function"
    },
    {
      "inputs": [
        {
          "internalType": "address",
          "name": "from",
          "type": "address"
        },
        {
          "internalType": "address",
          "name": "to",
          "type": "address"
        },
        {
          "internalType": "uint256",
          "name": "tokenId",
          "type": "uint256"
        }
      ],
      "name": "safeTransferFrom",
      "outputs": [],
      "stateMutability": "nonpayable",
      "type": "function"
    },
    {
      "inputs": [
        {
          "internalType": "address",
          "name": "from",
          "type": "address"
        },
        {
          "internalType": "address",
          "name": "to",
          "type": "address"
        },
        {
          "internalType": "uint256",
          "name": "tokenId",
          "type": "uint256"
        },
        {
          "internalType": "bytes",
          "name": "_data",
          "type": "bytes"
        }
      ],
      "name": "safeTransferFrom",
      "outputs": [],
      "stateMutability": "nonpayable",
      "type": "function"
    },
    {
      "inputs": [
        {
          "internalType": "address",
          "name": "operator",
          "type": "address"
        },
        {
          "internalType": "bool",
          "name": "approved",
          "type": "bool"
        }
      ],
      "name": "setApprovalForAll",
      "outputs": [],
      "stateMutability": "nonpayable",
      "type": "function"
    },
    {
      "inputs": [
        {
          "internalType": "string",
          "name": "baseURI",
          "type": "string"
        }
      ],
      "name": "setBaseURI",
      "outputs": [],
      "stateMutability": "nonpayable",
      "type": "function"
    },
    {
      "inputs": [
        {
          "internalType": "bytes4",
          "name": "interfaceId",
          "type": "bytes4"
        }
      ],
      "name": "supportsInterface",
      "outputs": [
        {
          "internalType": "bool",
          "name": "",
          "type": "bool"
        }
      ],
      "stateMutability": "view",
      "type": "function"
    },
    {
      "inputs": [],
      "name": "symbol",
      "outputs": [
        {
          "internalType": "string",
          "name": "",
          "type": "string"
        }
      ],
      "stateMutability": "view",
      "type": "function"
    },
    {
      "inputs": [
        {
          "internalType": "address",
          "name": "owner",
          "type": "address"
        }
      ],
      "name": "tokenListOfOwner",
      "outputs": [
        {
          "internalType": "uint16[]",
          "name": "",
          "type": "uint16[]"
        }
      ],
      "stateMutability": "view",
      "type": "function"
    },
    {
      "inputs": [
        {
          "internalType": "address",
          "name": "owner",
          "type": "address"
        },
        {
          "internalType": "uint256",
          "name": "index",
          "type": "uint256"
        }
      ],
      "name": "tokenOfOwnerByIndex",
      "outputs": [
        {
          "internalType": "uint16",
          "name": "",
          "type": "uint16"
        }
      ],
      "stateMutability": "view",
      "type": "function"
    },
    {
      "inputs": [
        {
          "internalType": "uint256",
          "name": "tokenId",
          "type": "uint256"
        }
      ],
      "name": "tokenURI",
      "outputs": [
        {
          "internalType": "string",
          "name": "",
          "type": "string"
        }
      ],
      "stateMutability": "view",
      "type": "function"
    },
    {
      "inputs": [],
      "name": "tokensBurnt",
      "outputs": [
        {
          "internalType": "uint256",
          "name": "",
          "type": "uint256"
        }
      ],
      "stateMutability": "view",
      "type": "function"
    },
    {
      "inputs": [],
      "name": "tokensMinted",
      "outputs": [
        {
          "internalType": "uint256",
          "name": "",
          "type": "uint256"
        }
      ],
      "stateMutability": "view",
      "type": "function"
    },
    {
      "inputs": [],
      "name": "totalSupply",
      "outputs": [
        {
          "internalType": "uint256",
          "name": "",
          "type": "uint256"
        }
      ],
      "stateMutability": "view",
      "type": "function"
    },
    {
      "inputs": [
        {
          "internalType": "address",
          "name": "from",
          "type": "address"
        },
        {
          "internalType": "address",
          "name": "to",
          "type": "address"
        },
        {
          "internalType": "uint256",
          "name": "tokenId",
          "type": "uint256"
        }
      ],
      "name": "transferFrom",
      "outputs": [],
      "stateMutability": "nonpayable",
      "type": "function"
    },
    {
      "inputs": [
        {
          "internalType": "address",
          "name": "newOwner",
          "type": "address"
        }
      ],
      "name": "transferOwnership",
      "outputs": [],
      "stateMutability": "nonpayable",
      "type": "function"
    }
  ],
  "bytecode": "0x60806040526040518060400160405280600381526020017f302e31000000000000000000000000000000000000000000000000000000000081525060019080519060200190620000519291906200054e565b503480156200005f57600080fd5b50604051620068db380380620068db83398181016040528101906200008591906200074b565b6001604051602001620000999190620008a9565b6040516020818303038152906040526040518060400160405280600881526020017f506f6c7944696365000000000000000000000000000000000000000000000000815250620000fe620000f2620001eb60201b60201c565b620001f360201b60201c565b8160029080519060200190620001169291906200054e565b5080600390805190602001906200012f9291906200054e565b5050506040518060400160405280601a81526020017f68747470733a2f2f646963652e7061727461766174652e636f6d000000000000815250601290805190602001906200017f9291906200054e565b5033600b60006101000a81548173ffffffffffffffffffffffffffffffffffffffff021916908373ffffffffffffffffffffffffffffffffffffffff160217905550620001d282620002b760201b60201c565b620001e381620003a560201b60201c565b505062000be2565b600033905090565b60008060009054906101000a900473ffffffffffffffffffffffffffffffffffffffff169050816000806101000a81548173ffffffffffffffffffffffffffffffffffffffff021916908373ffffffffffffffffffffffffffffffffffffffff1602179055508173ffffffffffffffffffffffffffffffffffffffff168173ffffffffffffffffffffffffffffffffffffffff167f8be0079c531659141344cd1fd0a4f28419497f9722a3daafe3b4186f6b6457e060405160405180910390a35050565b620002c7620001eb60201b60201c565b73ffffffffffffffffffffffffffffffffffffffff16620002ed6200049360201b60201c565b73ffffffffffffffffffffffffffffffffffffffff161462000346576040517f08c379a00000000000000000000000000000000000000000000000000000000081526004016200033d90620008cf565b60405180910390fd5b60005b8151811015620003a1576200038b8282815181106200036d576200036c62000b08565b5b6020026020010151600e620004bc60201b620019cc1790919060201c565b8080620003989062000a5c565b91505062000349565b5050565b620003b5620001eb60201b60201c565b73ffffffffffffffffffffffffffffffffffffffff16620003db6200049360201b60201c565b73ffffffffffffffffffffffffffffffffffffffff161462000434576040517f08c379a00000000000000000000000000000000000000000000000000000000081526004016200042b90620008cf565b60405180910390fd5b60005b81518110156200048f57620004798282815181106200045b576200045a62000b08565b5b6020026020010151600e620004dd60201b620019e61790919060201c565b8080620004869062000a5c565b91505062000437565b5050565b60008060009054906101000a900473ffffffffffffffffffffffffffffffffffffffff16905090565b620004d98183600001620004fe60201b62001a001790919060201c565b5050565b620004fa8183600201620004fe60201b62001a001790919060201c565b5050565b808260000160008460010154815260200190815260200160002090805190602001906200052d9291906200054e565b50816001016000815480929190620005459062000a5c565b91905055505050565b8280546200055c90620009f0565b90600052602060002090601f016020900481019282620005805760008555620005cc565b82601f106200059b57805160ff1916838001178555620005cc565b82800160010185558215620005cc579182015b82811115620005cb578251825591602001919060010190620005ae565b5b509050620005db9190620005df565b5090565b5b80821115620005fa576000816000905550600101620005e0565b5090565b6000620006156200060f846200091a565b620008f1565b905080838252602082019050828560208602820111156200063b576200063a62000b6b565b5b60005b858110156200069057815167ffffffffffffffff81111562000665576200066462000b66565b5b80860162000674898262000718565b855260208501945060208401935050506001810190506200063e565b5050509392505050565b6000620006b1620006ab8462000949565b620008f1565b905082815260208101848484011115620006d057620006cf62000b70565b5b620006dd848285620009ba565b509392505050565b600082601f830112620006fd57620006fc62000b66565b5b81516200070f848260208601620005fe565b91505092915050565b600082601f83011262000730576200072f62000b66565b5b8151620007428482602086016200069a565b91505092915050565b6000806040838503121562000765576200076462000b7a565b5b600083015167ffffffffffffffff81111562000786576200078562000b75565b5b6200079485828601620006e5565b925050602083015167ffffffffffffffff811115620007b857620007b762000b75565b5b620007c685828601620006e5565b9150509250929050565b60008154620007df81620009f0565b620007eb8186620009a5565b945060018216600081146200080957600181146200081b5762000852565b60ff1983168652818601935062000852565b62000826856200097f565b60005b838110156200084a5781548189015260018201915060208101905062000829565b838801955050505b50505092915050565b60006200086a600f83620009a5565b9150620008778262000b90565b600f82019050919050565b60006200089160208362000994565b91506200089e8262000bb9565b602082019050919050565b6000620008b6826200085b565b9150620008c48284620007d0565b915081905092915050565b60006020820190508181036000830152620008ea8162000882565b9050919050565b6000620008fd62000910565b90506200090b828262000a26565b919050565b6000604051905090565b600067ffffffffffffffff82111562000938576200093762000b37565b5b602082029050602081019050919050565b600067ffffffffffffffff82111562000967576200096662000b37565b5b620009728262000b7f565b9050602081019050919050565b60008190508160005260206000209050919050565b600082825260208201905092915050565b600081905092915050565b6000819050919050565b60005b83811015620009da578082015181840152602081019050620009bd565b83811115620009ea576000848401525b50505050565b6000600282049050600182168062000a0957607f821691505b6020821081141562000a205762000a1f62000ad9565b5b50919050565b62000a318262000b7f565b810181811067ffffffffffffffff8211171562000a535762000a5262000b37565b5b80604052505050565b600062000a6982620009b0565b91507fffffffffffffffffffffffffffffffffffffffffffffffffffffffffffffffff82141562000a9f5762000a9e62000aaa565b5b600182019050919050565b7f4e487b7100000000000000000000000000000000000000000000000000000000600052601160045260246000fd5b7f4e487b7100000000000000000000000000000000000000000000000000000000600052602260045260246000fd5b7f4e487b7100000000000000000000000000000000000000000000000000000000600052603260045260246000fd5b7f4e487b7100000000000000000000000000000000000000000000000000000000600052604160045260246000fd5b600080fd5b600080fd5b600080fd5b600080fd5b600080fd5b6000601f19601f8301169050919050565b7f506f6c7944696365206441707020760000000000000000000000000000000000600082015250565b7f4f776e61626c653a2063616c6c6572206973206e6f7420746865206f776e6572600082015250565b615ce98062000bf26000396000f3fe6080604052600436106101ee5760003560e01c8063715018a61161010d578063b0d8b51f116100a0578063e0db03be1161006f578063e0db03be1461073d578063e1dc076114610768578063e985e9c5146107a9578063f2fde38b146107e6578063ff7afe871461080f576101ee565b8063b0d8b51f14610681578063b88d4fde146106ac578063c6ead8af146106d5578063c87b56dd14610700576101ee565b80638da5cb5b116100dc5780638da5cb5b146105c557806395d89b41146105f0578063a22cb4651461061b578063af6f8e7d14610644576101ee565b8063715018a61461050b57806372b22b9d14610522578063836387101461055f5780638d13a70a1461059c576101ee565b806334c9d34e116101855780636352211e116101545780636352211e146104295780636618196c146104665780636de9f32b146104a357806370a08231146104ce576101ee565b806334c9d34e1461037057806338eba42a146103ae57806342842e0e146103d757806355f804b314610400576101ee565b806318160ddd116101c157806318160ddd146102c15780631b04f34c146102ec57806323b872dd1461030a5780632f745c5914610333576101ee565b806301ffc9a7146101f357806306fdde0314610230578063081812fc1461025b578063095ea7b314610298575b600080fd5b3480156101ff57600080fd5b5061021a60048036038101906102159190614221565b610838565b6040516102279190614b2a565b60405180910390f35b34801561023c57600080fd5b5061024561091a565b6040516102529190614b45565b60405180910390f35b34801561026757600080fd5b50610282600480360381019061027d91906142c8565b6109ac565b60405161028f9190614a7f565b60405180910390f35b3480156102a457600080fd5b506102bf60048036038101906102ba9190614198565b610a31565b005b3480156102cd57600080fd5b506102d6610b49565b6040516102e39190614f01565b60405180910390f35b6102f4610b60565b6040516103019190614f01565b60405180910390f35b34801561031657600080fd5b50610331600480360381019061032c9190613f39565b610cb9565b005b34801561033f57600080fd5b5061035a60048036038101906103559190614198565b610d19565b6040516103679190614ee6565b60405180910390f35b34801561037c57600080fd5b5061039760048036038101906103929190614335565b610de2565b6040516103a5929190614b67565b60405180910390f35b3480156103ba57600080fd5b506103d560048036038101906103d091906140e9565b610df7565b005b3480156103e357600080fd5b506103fe60048036038101906103f99190613f39565b610eb2565b005b34801561040c57600080fd5b506104276004803603810190610422919061427b565b610ed2565b005b34801561043557600080fd5b50610450600480360381019061044b91906142c8565b610f64565b60405161045d9190614a7f565b60405180910390f35b34801561047257600080fd5b5061048d60048036038101906104889190613ecc565b611016565b60405161049a9190614ae6565b60405180910390f35b3480156104af57600080fd5b506104b86110d5565b6040516104c59190614f01565b60405180910390f35b3480156104da57600080fd5b506104f560048036038101906104f09190613ecc565b6110db565b6040516105029190614f01565b60405180910390f35b34801561051757600080fd5b50610520611193565b005b34801561052e57600080fd5b506105496004803603810190610544919061404f565b61121b565b6040516105569190614f01565b60405180910390f35b34801561056b57600080fd5b50610586600480360381019061058191906142c8565b611329565b6040516105939190614a7f565b60405180910390f35b3480156105a857600080fd5b506105c360048036038101906105be91906141d8565b61133b565b005b3480156105d157600080fd5b506105da611408565b6040516105e79190614a7f565b60405180910390f35b3480156105fc57600080fd5b50610605611431565b6040516106129190614b45565b60405180910390f35b34801561062757600080fd5b50610642600480360381019061063d919061400f565b6114c3565b005b34801561065057600080fd5b5061066b600480360381019061066691906142f5565b6114d9565b6040516106789190614fa6565b60405180910390f35b34801561068d57600080fd5b506106966114f9565b6040516106a39190614b08565b60405180910390f35b3480156106b857600080fd5b506106d360048036038101906106ce9190613f8c565b6115a9565b005b3480156106e157600080fd5b506106ea61160b565b6040516106f79190614f01565b60405180910390f35b34801561070c57600080fd5b50610727600480360381019061072291906142c8565b611611565b6040516107349190614b45565b60405180910390f35b34801561074957600080fd5b5061075261169e565b60405161075f9190614f01565b60405180910390f35b34801561077457600080fd5b5061078f600480360381019061078a91906142c8565b611743565b6040516107a0959493929190614b9e565b60405180910390f35b3480156107b557600080fd5b506107d060048036038101906107cb9190613ef9565b611773565b6040516107dd9190614b2a565b60405180910390f35b3480156107f257600080fd5b5061080d60048036038101906108089190613ecc565b611807565b005b34801561081b57600080fd5b50610836600480360381019061083191906141d8565b6118ff565b005b60007f80ac58cd000000000000000000000000000000000000000000000000000000007bffffffffffffffffffffffffffffffffffffffffffffffffffffffff1916827bffffffffffffffffffffffffffffffffffffffffffffffffffffffff1916148061090357507f5b5e139f000000000000000000000000000000000000000000000000000000007bffffffffffffffffffffffffffffffffffffffffffffffffffffffff1916827bffffffffffffffffffffffffffffffffffffffffffffffffffffffff1916145b80610913575061091282611a4c565b5b9050919050565b60606002805461092990615366565b80601f016020809104026020016040519081016040528092919081815260200182805461095590615366565b80156109a25780601f10610977576101008083540402835291602001916109a2565b820191906000526020600020905b81548152906001019060200180831161098557829003601f168201915b5050505050905090565b60006109b782611ab6565b6109f6576040517f08c379a00000000000000000000000000000000000000000000000000000000081526004016109ed90614de6565b60405180910390fd5b6006600083815260200190815260200160002060009054906101000a900473ffffffffffffffffffffffffffffffffffffffff169050919050565b6000610a3c82610f64565b90508073ffffffffffffffffffffffffffffffffffffffff168373ffffffffffffffffffffffffffffffffffffffff161415610aad576040517f08c379a0000000000000000000000000000000000000000000000000000000008152600401610aa490614e86565b60405180910390fd5b8073ffffffffffffffffffffffffffffffffffffffff16610acc611b22565b73ffffffffffffffffffffffffffffffffffffffff161480610afb5750610afa81610af5611b22565b611773565b5b610b3a576040517f08c379a0000000000000000000000000000000000000000000000000000000008152600401610b3190614d66565b60405180910390fd5b610b448383611b2a565b505050565b6000600a54600954610b5b9190615261565b905090565b60008066038d7ea4c68000905080341015610bb0576040517f08c379a0000000000000000000000000000000000000000000000000000000008152600401610ba790614ec6565b60405180910390fd5b8034610bbc91906151d6565b915060005b82811015610be557610bd161169e565b508080610bdd906153f4565b915050610bc1565b506000600b60009054906101000a900473ffffffffffffffffffffffffffffffffffffffff1673ffffffffffffffffffffffffffffffffffffffff1634604051610c2e90614a6a565b60006040518083038185875af1925050503d8060008114610c6b576040519150601f19603f3d011682016040523d82523d6000602084013e610c70565b606091505b5050905080610cb4576040517f08c379a0000000000000000000000000000000000000000000000000000000008152600401610cab90614ce6565b60405180910390fd5b505090565b610cca610cc4611b22565b82611be3565b610d09576040517f08c379a0000000000000000000000000000000000000000000000000000000008152600401610d0090614ea6565b60405180910390fd5b610d14838383611cc1565b505050565b6000610d24836110db565b8210610d65576040517f08c379a0000000000000000000000000000000000000000000000000000000008152600401610d5c90614e66565b60405180910390fd5b600860008473ffffffffffffffffffffffffffffffffffffffff1673ffffffffffffffffffffffffffffffffffffffff1681526020019081526020016000208281548110610db657610db561555b565b5b90600052602060002090601091828204019190066002029054906101000a900461ffff16905092915050565b606080610dee83611f28565b91509150915091565b610dff611b22565b73ffffffffffffffffffffffffffffffffffffffff16610e1d611408565b73ffffffffffffffffffffffffffffffffffffffff1614610e73576040517f08c379a0000000000000000000000000000000000000000000000000000000008152600401610e6a90614e06565b60405180910390fd5b60005b8161ffff168161ffff161015610ea857610e9488888888888861121b565b508080610ea0906153c9565b915050610e76565b5050505050505050565b610ecd838383604051806020016040528060008152506115a9565b505050565b610eda611b22565b73ffffffffffffffffffffffffffffffffffffffff16610ef8611408565b73ffffffffffffffffffffffffffffffffffffffff1614610f4e576040517f08c379a0000000000000000000000000000000000000000000000000000000008152600401610f4590614e06565b60405180910390fd5b818160129190610f5f929190613b1e565b505050565b6000806004600084815260200190815260200160002060009054906101000a900473ffffffffffffffffffffffffffffffffffffffff169050600073ffffffffffffffffffffffffffffffffffffffff168173ffffffffffffffffffffffffffffffffffffffff16141561100d576040517f08c379a000000000000000000000000000000000000000000000000000000000815260040161100490614da6565b60405180910390fd5b80915050919050565b6060600860008373ffffffffffffffffffffffffffffffffffffffff1673ffffffffffffffffffffffffffffffffffffffff1681526020019081526020016000208054806020026020016040519081016040528092919081815260200182805480156110c957602002820191906000526020600020906000905b82829054906101000a900461ffff1661ffff16815260200190600201906020826001010492830192600103820291508084116110905790505b50505050509050919050565b60095481565b60008073ffffffffffffffffffffffffffffffffffffffff168273ffffffffffffffffffffffffffffffffffffffff16141561114c576040517f08c379a000000000000000000000000000000000000000000000000000000000815260040161114390614d86565b60405180910390fd5b600560008373ffffffffffffffffffffffffffffffffffffffff1673ffffffffffffffffffffffffffffffffffffffff168152602001908152602001600020549050919050565b61119b611b22565b73ffffffffffffffffffffffffffffffffffffffff166111b9611408565b73ffffffffffffffffffffffffffffffffffffffff161461120f576040517f08c379a000000000000000000000000000000000000000000000000000000000815260040161120690614e06565b60405180910390fd5b611219600061279b565b565b6000611225611b22565b73ffffffffffffffffffffffffffffffffffffffff16611243611408565b73ffffffffffffffffffffffffffffffffffffffff1614611299576040517f08c379a000000000000000000000000000000000000000000000000000000000815260040161129090614e06565b60405180910390fd5b60006112a5600c61285f565b90506113078188888080601f016020809104026020016040519081016040528093929190818152602001838380828437600081840152601f19601f82011690508083019250505050505050878787600d61286d9095949392919063ffffffff16565b61131188826129bf565b61131b600c6129dd565b809150509695505050505050565b600061133482610f64565b9050919050565b611343611b22565b73ffffffffffffffffffffffffffffffffffffffff16611361611408565b73ffffffffffffffffffffffffffffffffffffffff16146113b7576040517f08c379a00000000000000000000000000000000000000000000000000000000081526004016113ae90614e06565b60405180910390fd5b60005b8151811015611404576113f18282815181106113d9576113d861555b565b5b6020026020010151600e6119e690919063ffffffff16565b80806113fc906153f4565b9150506113ba565b5050565b60008060009054906101000a900473ffffffffffffffffffffffffffffffffffffffff16905090565b60606003805461144090615366565b80601f016020809104026020016040519081016040528092919081815260200182805461146c90615366565b80156114b95780601f1061148e576101008083540402835291602001916114b9565b820191906000526020600020905b81548152906001019060200180831161149c57829003601f168201915b5050505050905090565b6114d56114ce611b22565b83836129f3565b5050565b60006114f18383600d612b609092919063ffffffff16565b905092915050565b60606000611506336110db565b905060008167ffffffffffffffff8111156115245761152361558a565b5b6040519080825280602002602001820160405280156115525781602001602082028036833780820191505090505b50905060005b828110156115a05761156a3382610d19565b61ffff168282815181106115815761158061555b565b5b6020026020010181815250508080611598906153f4565b915050611558565b50809250505090565b6115ba6115b4611b22565b83611be3565b6115f9576040517f08c379a00000000000000000000000000000000000000000000000000000000081526004016115f090614ea6565b60405180910390fd5b61160584848484612bf3565b50505050565b600a5481565b606061161c82611ab6565b61165b576040517f08c379a000000000000000000000000000000000000000000000000000000000815260040161165290614e26565b60405180910390fd5b611663612c4f565b61167783600d612ce190919063ffffffff16565b60405160200161168892919061498a565b6040516020818303038152906040529050919050565b6000806116ab600c61285f565b905060006116c382600e612dc190919063ffffffff16565b905060006116d083612dff565b905060006116eb8260ff16856116e69190615207565b612e5e565b905060006117068260ff16866117019190615207565b612e93565b90506117248585858585600d61286d9095949392919063ffffffff16565b61172e33866129bf565b611738600c6129dd565b849550505050505090565b60606000606080600061176086600d612ec890919063ffffffff16565b9450945094509450945091939590929450565b6000600760008473ffffffffffffffffffffffffffffffffffffffff1673ffffffffffffffffffffffffffffffffffffffff16815260200190815260200160002060008373ffffffffffffffffffffffffffffffffffffffff1673ffffffffffffffffffffffffffffffffffffffff16815260200190815260200160002060009054906101000a900460ff16905092915050565b61180f611b22565b73ffffffffffffffffffffffffffffffffffffffff1661182d611408565b73ffffffffffffffffffffffffffffffffffffffff1614611883576040517f08c379a000000000000000000000000000000000000000000000000000000000815260040161187a90614e06565b60405180910390fd5b600073ffffffffffffffffffffffffffffffffffffffff168173ffffffffffffffffffffffffffffffffffffffff1614156118f3576040517f08c379a00000000000000000000000000000000000000000000000000000000081526004016118ea90614c66565b60405180910390fd5b6118fc8161279b565b50565b611907611b22565b73ffffffffffffffffffffffffffffffffffffffff16611925611408565b73ffffffffffffffffffffffffffffffffffffffff161461197b576040517f08c379a000000000000000000000000000000000000000000000000000000000815260040161197290614e06565b60405180910390fd5b60005b81518110156119c8576119b582828151811061199d5761199c61555b565b5b6020026020010151600e6119cc90919063ffffffff16565b80806119c0906153f4565b91505061197e565b5050565b6119e28183600001611a0090919063ffffffff16565b5050565b6119fc8183600201611a0090919063ffffffff16565b5050565b80826000016000846001015481526020019081526020016000209080519060200190611a2d929190613ba4565b50816001016000815480929190611a43906153f4565b91905055505050565b60007f01ffc9a7000000000000000000000000000000000000000000000000000000007bffffffffffffffffffffffffffffffffffffffffffffffffffffffff1916827bffffffffffffffffffffffffffffffffffffffffffffffffffffffff1916149050919050565b60008073ffffffffffffffffffffffffffffffffffffffff166004600084815260200190815260200160002060009054906101000a900473ffffffffffffffffffffffffffffffffffffffff1673ffffffffffffffffffffffffffffffffffffffff1614159050919050565b600033905090565b816006600083815260200190815260200160002060006101000a81548173ffffffffffffffffffffffffffffffffffffffff021916908373ffffffffffffffffffffffffffffffffffffffff160217905550808273ffffffffffffffffffffffffffffffffffffffff16611b9d83610f64565b73ffffffffffffffffffffffffffffffffffffffff167f8c5be1e5ebec7d5bd14f71427d1e84f3dd0314c0f7b2291e5b200ac8c7c3b92560405160405180910390a45050565b6000611bee82611ab6565b611c2d576040517f08c379a0000000000000000000000000000000000000000000000000000000008152600401611c2490614d46565b60405180910390fd5b6000611c3883610f64565b90508073ffffffffffffffffffffffffffffffffffffffff168473ffffffffffffffffffffffffffffffffffffffff161480611ca757508373ffffffffffffffffffffffffffffffffffffffff16611c8f846109ac565b73ffffffffffffffffffffffffffffffffffffffff16145b80611cb85750611cb78185611773565b5b91505092915050565b8273ffffffffffffffffffffffffffffffffffffffff16611ce182610f64565b73ffffffffffffffffffffffffffffffffffffffff1614611d37576040517f08c379a0000000000000000000000000000000000000000000000000000000008152600401611d2e90614c86565b60405180910390fd5b600073ffffffffffffffffffffffffffffffffffffffff168273ffffffffffffffffffffffffffffffffffffffff161415611da7576040517f08c379a0000000000000000000000000000000000000000000000000000000008152600401611d9e90614d06565b60405180910390fd5b611db283838361300e565b611dbd600082611b2a565b6001600560008573ffffffffffffffffffffffffffffffffffffffff1673ffffffffffffffffffffffffffffffffffffffff1681526020019081526020016000206000828254611e0d9190615261565b925050819055506001600560008473ffffffffffffffffffffffffffffffffffffffff1673ffffffffffffffffffffffffffffffffffffffff1681526020019081526020016000206000828254611e649190615149565b92505081905550816004600083815260200190815260200160002060006101000a81548173ffffffffffffffffffffffffffffffffffffffff021916908373ffffffffffffffffffffffffffffffffffffffff160217905550808273ffffffffffffffffffffffffffffffffffffffff168473ffffffffffffffffffffffffffffffffffffffff167fddf252ad1be2c89b69c2b068fc378daa952ba7f163c4a11628f55a4df523b3ef60405160405180910390a4611f23838383613106565b505050565b606080601e8360ff161115611f72576040517f08c379a0000000000000000000000000000000000000000000000000000000008152600401611f6990614cc6565b60405180910390fd5b60008360ff1610158015611f8a575060038360ff1611155b15611fcc576040518060400160405280600681526020017f30303133346500000000000000000000000000000000000000000000000000008152509050612409565b60048360ff1610158015611fe4575060078360ff1611155b15612026576040518060400160405280600681526020017f31613161316100000000000000000000000000000000000000000000000000008152509050612408565b60088360ff161015801561203e5750600a8360ff1611155b15612080576040518060400160405280600681526020017f66666666666600000000000000000000000000000000000000000000000000008152509050612407565b600b8360ff16101580156120985750600d8360ff1611155b156120da576040518060400160405280600681526020017f35353537353300000000000000000000000000000000000000000000000000008152509050612406565b600e8360ff16101580156120f2575060108360ff1611155b15612134576040518060400160405280600681526020017f38623130643000000000000000000000000000000000000000000000000000008152509050612405565b60118360ff161015801561214c575060138360ff1611155b1561218e576040518060400160405280600681526020017f65636463313900000000000000000000000000000000000000000000000000008152509050612404565b60148360ff1614806121a3575060158360ff16145b156121e5576040518060400160405280600681526020017f34303866646400000000000000000000000000000000000000000000000000008152509050612403565b60168360ff1614806121fa575060178360ff16145b1561223c576040518060400160405280600681526020017f33313761323600000000000000000000000000000000000000000000000000008152509050612402565b60188360ff161480612251575060198360ff16145b15612293576040518060400160405280600681526020017f66323164306100000000000000000000000000000000000000000000000000008152509050612401565b601a8360ff1614156122dc576040518060400160405280600681526020017f38386666343400000000000000000000000000000000000000000000000000008152509050612400565b601b8360ff161415612325576040518060400160405280600681526020017f643039633130000000000000000000000000000000000000000000000000000081525090506123ff565b601c8360ff16141561236e576040518060400160405280600681526020017f656635346461000000000000000000000000000000000000000000000000000081525090506123fe565b601d8360ff1614156123b7576040518060400160405280600681526020017f346530303030000000000000000000000000000000000000000000000000000081525090506123fd565b601e8360ff1614156123fc576040518060400160405280600681526020017f303030306666000000000000000000000000000000000000000000000000000081525090505b5b5b5b5b5b5b5b5b5b5b5b5b5b60008360ff16148061241e575060048360ff16145b8061242c575060088360ff16145b8061243a575060118360ff16145b806124485750601a8360ff16145b1561248a576040518060400160405280600681526020017f30303030666600000000000000000000000000000000000000000000000000008152509150612796565b60018360ff16148061249f575060058360ff16145b156124e1576040518060400160405280600681526020017f30306666303000000000000000000000000000000000000000000000000000008152509150612795565b60028360ff1614806124f6575060068360ff16145b806125045750600a8360ff16145b80612512575060138360ff16145b806125205750601c8360ff16145b15612562576040518060400160405280600681526020017f66663030303000000000000000000000000000000000000000000000000000008152509150612794565b60038360ff161480612577575060078360ff16145b806125855750600d8360ff16145b80612593575060108360ff16145b806125a1575060158360ff16145b806125af575060178360ff16145b806125bd575060198360ff16145b806125cb5750601d8360ff16145b806125d95750601e8360ff16145b1561261b576040518060400160405280600681526020017f66666666666600000000000000000000000000000000000000000000000000008152509150612793565b60098360ff1614806126305750600b8360ff16145b8061263e5750600e8360ff16145b8061264c575060128360ff16145b8061265a575060148360ff16145b806126685750601b8360ff16145b156126aa576040518060400160405280600681526020017f30303030303000000000000000000000000000000000000000000000000000008152509150612792565b600c8360ff1614806126bf575060168360ff16145b15612701576040518060400160405280600681526020017f38386666383800000000000000000000000000000000000000000000000000008152509150612791565b600f8360ff16141561274a576040518060400160405280600681526020017f36366363363600000000000000000000000000000000000000000000000000008152509150612790565b60188360ff16141561278f576040518060400160405280600681526020017f383830303030000000000000000000000000000000000000000000000000000081525091505b5b5b5b5b5b5b5b915091565b60008060009054906101000a900473ffffffffffffffffffffffffffffffffffffffff169050816000806101000a81548173ffffffffffffffffffffffffffffffffffffffff021916908373ffffffffffffffffffffffffffffffffffffffff1602179055508173ffffffffffffffffffffffffffffffffffffffff168173ffffffffffffffffffffffffffffffffffffffff167f8be0079c531659141344cd1fd0a4f28419497f9722a3daafe3b4186f6b6457e060405160405180910390a35050565b600081600001549050919050565b60008360ff16116128b3576040517f08c379a00000000000000000000000000000000000000000000000000000000081526004016128aa90614c06565b60405180910390fd5b6000600a8460ff16146128c75760006128ca565b60015b90506040518060a001604052808681526020018560ff1681526020018460ff1681526020018360ff168152602001821515815250876000016000888152602001908152602001600020600082015181600001908051906020019061292f929190613ba4565b5060208201518160010160006101000a81548160ff021916908360ff16021790555060408201518160010160016101000a81548160ff021916908360ff16021790555060608201518160010160026101000a81548160ff021916908360ff16021790555060808201518160010160036101000a81548160ff02191690831515021790555090505050505050505050565b6129d982826040518060200160405280600081525061310b565b5050565b6001816000016000828254019250508190555050565b8173ffffffffffffffffffffffffffffffffffffffff168373ffffffffffffffffffffffffffffffffffffffff161415612a62576040517f08c379a0000000000000000000000000000000000000000000000000000000008152600401612a5990614d26565b60405180910390fd5b80600760008573ffffffffffffffffffffffffffffffffffffffff1673ffffffffffffffffffffffffffffffffffffffff16815260200190815260200160002060008473ffffffffffffffffffffffffffffffffffffffff1673ffffffffffffffffffffffffffffffffffffffff16815260200190815260200160002060006101000a81548160ff0219169083151502179055508173ffffffffffffffffffffffffffffffffffffffff168373ffffffffffffffffffffffffffffffffffffffff167f17307eab39ab6107e8899845ad3d59bd9653f200f220920489ca2b5937696c3183604051612b539190614b2a565b60405180910390a3505050565b60008084600001600085815260200190815260200160002060010160039054906101000a900460ff16612b94576001612b97565b60005b905060008160ff1686600001600087815260200190815260200160002060010160009054906101000a900460ff1660ff16612bd186613166565b612bdb919061543d565b612be59190615149565b905080925050509392505050565b612bfe848484611cc1565b612c0a8484848461319f565b612c49576040517f08c379a0000000000000000000000000000000000000000000000000000000008152600401612c4090614c46565b60405180910390fd5b50505050565b606060128054612c5e90615366565b80601f0160208091040260200160405190810160405280929190818152602001828054612c8a90615366565b8015612cd75780601f10612cac57610100808354040283529160200191612cd7565b820191906000526020600020905b815481529060010190602001808311612cba57829003601f168201915b5050505050905090565b6060600080612d1485600001600086815260200190815260200160002060010160019054906101000a900460ff16611f28565b91509150846000016000858152602001908152602001600020600001612d6186600001600087815260200190815260200160002060010160009054906101000a900460ff1660ff16613336565b8383612d948960000160008a815260200190815260200160002060010160029054906101000a900460ff1660ff16613336565b604051602001612da89594939291906149dd565b6040516020818303038152906040529250505092915050565b6060612dcd8383613497565b612dd78484613540565b604051602001612de89291906149ae565b604051602081830303815290604052905092915050565b6000806040518060400160405280600660ff168152602001601460ff16815250905060006002612e2e85613166565b612e38919061546e565b9050818160ff1660028110612e5057612e4f61555b565b5b602002015192505050919050565b600080601e90506000600182612e74919061519f565b612e7d85613166565b612e87919061546e565b90508092505050919050565b600080600190506000600182612ea9919061519f565b612eb285613166565b612ebc919061546e565b90508092505050919050565b606060006060806000806000612f028960000160008a815260200190815260200160002060010160019054906101000a900460ff16611f28565b915091508860000160008981526020019081526020016000206000018960000160008a815260200190815260200160002060010160009054906101000a900460ff1683838c60000160008d815260200190815260200160002060010160029054906101000a900460ff16848054612f7890615366565b80601f0160208091040260200160405190810160405280929190818152602001828054612fa490615366565b8015612ff15780601f10612fc657610100808354040283529160200191612ff1565b820191906000526020600020905b815481529060010190602001808311612fd457829003601f168201915b505050505094509650965096509650965050509295509295909350565b6130198383836135e9565b8273ffffffffffffffffffffffffffffffffffffffff168273ffffffffffffffffffffffffffffffffffffffff16146131015761305682826135ee565b600073ffffffffffffffffffffffffffffffffffffffff168373ffffffffffffffffffffffffffffffffffffffff1614613099576130948382613679565b6130b2565b600960008154809291906130ac906153f4565b91905055505b600073ffffffffffffffffffffffffffffffffffffffff168273ffffffffffffffffffffffffffffffffffffffff16141561310057600a60008154809291906130fa906153f4565b91905055505b5b505050565b505050565b6131158383613878565b613122600084848461319f565b613161576040517f08c379a000000000000000000000000000000000000000000000000000000000815260040161315890614c46565b60405180910390fd5b505050565b60004442338460405160200161317f9493929190614f1c565b6040516020818303038152906040528051906020012060001c9050919050565b60006131c08473ffffffffffffffffffffffffffffffffffffffff16613a52565b15613329578373ffffffffffffffffffffffffffffffffffffffff1663150b7a026131e9611b22565b8786866040518563ffffffff1660e01b815260040161320b9493929190614a9a565b602060405180830381600087803b15801561322557600080fd5b505af192505050801561325657506040513d601f19601f82011682018060405250810190613253919061424e565b60015b6132d9573d8060008114613286576040519150601f19603f3d011682016040523d82523d6000602084013e61328b565b606091505b506000815114156132d1576040517f08c379a00000000000000000000000000000000000000000000000000000000081526004016132c890614c46565b60405180910390fd5b805181602001fd5b63150b7a0260e01b7bffffffffffffffffffffffffffffffffffffffffffffffffffffffff1916817bffffffffffffffffffffffffffffffffffffffffffffffffffffffff19161491505061332e565b600190505b949350505050565b6060600082141561337e576040518060400160405280600181526020017f30000000000000000000000000000000000000000000000000000000000000008152509050613492565b600082905060005b600082146133b0578080613399906153f4565b915050600a826133a991906151d6565b9150613386565b60008167ffffffffffffffff8111156133cc576133cb61558a565b5b6040519080825280601f01601f1916602001820160405280156133fe5781602001600182028036833780820191505090505b5090505b6000851461348b576001826134179190615261565b9150600a85613426919061543d565b60306134329190615149565b60f81b8183815181106134485761344761555b565b5b60200101907effffffffffffffffffffffffffffffffffffffffffffffffffffffffffffff1916908160001a905350600a8561348491906151d6565b9450613402565b8093505050505b919050565b60606134af8284600001613a7590919063ffffffff16565b80546134ba90615366565b80601f01602080910402602001604051908101604052809291908181526020018280546134e690615366565b80156135335780601f1061350857610100808354040283529160200191613533565b820191906000526020600020905b81548152906001019060200180831161351657829003601f168201915b5050505050905092915050565b60606135588284600201613a7590919063ffffffff16565b805461356390615366565b80601f016020809104026020016040519081016040528092919081815260200182805461358f90615366565b80156135dc5780601f106135b1576101008083540402835291602001916135dc565b820191906000526020600020905b8154815290600101906020018083116135bf57829003601f168201915b5050505050905092915050565b505050565b600860008373ffffffffffffffffffffffffffffffffffffffff1673ffffffffffffffffffffffffffffffffffffffff1681526020019081526020016000208190806001815401808255809150506001900390600052602060002090601091828204019190066002029091909190916101000a81548161ffff021916908361ffff1602179055505050565b6000600860008473ffffffffffffffffffffffffffffffffffffffff1673ffffffffffffffffffffffffffffffffffffffff168152602001908152602001600020905060008180549050905060005b8280549050811015613735578361ffff168382815481106136ec576136eb61555b565b5b90600052602060002090601091828204019190066002029054906101000a900461ffff1661ffff16141561372257809150613735565b808061372d906153f4565b9150506136c8565b508180549050811061377c576040517f08c379a000000000000000000000000000000000000000000000000000000000815260040161377390614c26565b60405180910390fd5b60008190505b600183805490506137939190615261565b81101561383257826001826137a89190615149565b815481106137b9576137b861555b565b5b90600052602060002090601091828204019190066002029054906101000a900461ffff168382815481106137f0576137ef61555b565b5b90600052602060002090601091828204019190066002026101000a81548161ffff021916908361ffff160217905550808061382a906153f4565b915050613782565b50818054806138445761384361552c565b5b60019003818190600052602060002090601091828204019190066002026101000a81549061ffff0219169055905550505050565b600073ffffffffffffffffffffffffffffffffffffffff168273ffffffffffffffffffffffffffffffffffffffff1614156138e8576040517f08c379a00000000000000000000000000000000000000000000000000000000081526004016138df90614dc6565b60405180910390fd5b6138f181611ab6565b15613931576040517f08c379a000000000000000000000000000000000000000000000000000000000815260040161392890614ca6565b60405180910390fd5b61393d6000838361300e565b6001600560008473ffffffffffffffffffffffffffffffffffffffff1673ffffffffffffffffffffffffffffffffffffffff168152602001908152602001600020600082825461398d9190615149565b92505081905550816004600083815260200190815260200160002060006101000a81548173ffffffffffffffffffffffffffffffffffffffff021916908373ffffffffffffffffffffffffffffffffffffffff160217905550808273ffffffffffffffffffffffffffffffffffffffff16600073ffffffffffffffffffffffffffffffffffffffff167fddf252ad1be2c89b69c2b068fc378daa952ba7f163c4a11628f55a4df523b3ef60405160405180910390a4613a4e60008383613106565b5050565b6000808273ffffffffffffffffffffffffffffffffffffffff163b119050919050565b600080836001015411613abd576040517f08c379a0000000000000000000000000000000000000000000000000000000008152600401613ab490614e46565b60405180910390fd5b6000836001015444423386604051602001613adb9493929190614f61565b6040516020818303038152906040528051906020012060001c613afe919061543d565b905083600001600082815260200190815260200160002091505092915050565b828054613b2a90615366565b90600052602060002090601f016020900481019282613b4c5760008555613b93565b82601f10613b6557803560ff1916838001178555613b93565b82800160010185558215613b93579182015b82811115613b92578235825591602001919060010190613b77565b5b509050613ba09190613c2a565b5090565b828054613bb090615366565b90600052602060002090601f016020900481019282613bd25760008555613c19565b82601f10613beb57805160ff1916838001178555613c19565b82800160010185558215613c19579182015b82811115613c18578251825591602001919060010190613bfd565b5b509050613c269190613c2a565b5090565b5b80821115613c43576000816000905550600101613c2b565b5090565b6000613c5a613c5584614fe6565b614fc1565b90508083825260208201905082856020860282011115613c7d57613c7c6155c3565b5b60005b85811015613ccb57813567ffffffffffffffff811115613ca357613ca26155be565b5b808601613cb08982613e5f565b85526020850194506020840193505050600181019050613c80565b5050509392505050565b6000613ce8613ce384615012565b614fc1565b905082815260208101848484011115613d0457613d036155c8565b5b613d0f848285615324565b509392505050565b6000613d2a613d2584615043565b614fc1565b905082815260208101848484011115613d4657613d456155c8565b5b613d51848285615324565b509392505050565b600081359050613d6881615c29565b92915050565b600082601f830112613d8357613d826155be565b5b8135613d93848260208601613c47565b91505092915050565b600081359050613dab81615c40565b92915050565b600081359050613dc081615c57565b92915050565b600081519050613dd581615c57565b92915050565b600082601f830112613df057613def6155be565b5b8135613e00848260208601613cd5565b91505092915050565b60008083601f840112613e1f57613e1e6155be565b5b8235905067ffffffffffffffff811115613e3c57613e3b6155b9565b5b602083019150836001820283011115613e5857613e576155c3565b5b9250929050565b600082601f830112613e7457613e736155be565b5b8135613e84848260208601613d17565b91505092915050565b600081359050613e9c81615c6e565b92915050565b600081359050613eb181615c85565b92915050565b600081359050613ec681615c9c565b92915050565b600060208284031215613ee257613ee16155d2565b5b6000613ef084828501613d59565b91505092915050565b60008060408385031215613f1057613f0f6155d2565b5b6000613f1e85828601613d59565b9250506020613f2f85828601613d59565b9150509250929050565b600080600060608486031215613f5257613f516155d2565b5b6000613f6086828701613d59565b9350506020613f7186828701613d59565b9250506040613f8286828701613ea2565b9150509250925092565b60008060008060808587031215613fa657613fa56155d2565b5b6000613fb487828801613d59565b9450506020613fc587828801613d59565b9350506040613fd687828801613ea2565b925050606085013567ffffffffffffffff811115613ff757613ff66155cd565b5b61400387828801613ddb565b91505092959194509250565b60008060408385031215614026576140256155d2565b5b600061403485828601613d59565b925050602061404585828601613d9c565b9150509250929050565b60008060008060008060a0878903121561406c5761406b6155d2565b5b600061407a89828a01613d59565b965050602087013567ffffffffffffffff81111561409b5761409a6155cd565b5b6140a789828a01613e09565b955095505060406140ba89828a01613eb7565b93505060606140cb89828a01613eb7565b92505060806140dc89828a01613eb7565b9150509295509295509295565b600080600080600080600060c0888a031215614108576141076155d2565b5b60006141168a828b01613d59565b975050602088013567ffffffffffffffff811115614137576141366155cd565b5b6141438a828b01613e09565b965096505060406141568a828b01613eb7565b94505060606141678a828b01613eb7565b93505060806141788a828b01613eb7565b92505060a06141898a828b01613e8d565b91505092959891949750929550565b600080604083850312156141af576141ae6155d2565b5b60006141bd85828601613d59565b92505060206141ce85828601613ea2565b9150509250929050565b6000602082840312156141ee576141ed6155d2565b5b600082013567ffffffffffffffff81111561420c5761420b6155cd565b5b61421884828501613d6e565b91505092915050565b600060208284031215614237576142366155d2565b5b600061424584828501613db1565b91505092915050565b600060208284031215614264576142636155d2565b5b600061427284828501613dc6565b91505092915050565b60008060208385031215614292576142916155d2565b5b600083013567ffffffffffffffff8111156142b0576142af6155cd565b5b6142bc85828601613e09565b92509250509250929050565b6000602082840312156142de576142dd6155d2565b5b60006142ec84828501613ea2565b91505092915050565b6000806040838503121561430c5761430b6155d2565b5b600061431a85828601613ea2565b925050602061432b85828601613e8d565b9150509250929050565b60006020828403121561434b5761434a6155d2565b5b600061435984828501613eb7565b91505092915050565b600061436e838361493f565b60208301905092915050565b6000614386838361495d565b60208301905092915050565b61439b81615295565b82525050565b60006143ac826150a9565b6143b681856150ef565b93506143c183615074565b8060005b838110156143f25781516143d98882614362565b97506143e4836150d5565b9250506001810190506143c5565b5085935050505092915050565b600061440a826150b4565b6144148185615100565b935061441f83615084565b8060005b83811015614450578151614437888261437a565b9750614442836150e2565b925050600181019050614423565b5085935050505092915050565b614466816152a7565b82525050565b6000614477826150bf565b6144818185615111565b9350614491818560208601615333565b61449a816155d7565b840191505092915050565b60006144b0826150ca565b6144ba818561512d565b93506144ca818560208601615333565b6144d3816155d7565b840191505092915050565b60006144e9826150ca565b6144f3818561513e565b9350614503818560208601615333565b80840191505092915050565b6000815461451c81615366565b614526818661513e565b94506001821660008114614541576001811461455257614585565b60ff19831686528186019350614585565b61455b85615094565b60005b8381101561457d5781548189015260018201915060208101905061455e565b838801955050505b50505092915050565b600061459b60168361512d565b91506145a6826155e8565b602082019050919050565b60006145be60378361512d565b91506145c982615611565b604082019050919050565b60006145e160328361512d565b91506145ec82615660565b604082019050919050565b600061460460268361512d565b915061460f826156af565b604082019050919050565b600061462760258361512d565b9150614632826156fe565b604082019050919050565b600061464a601c8361512d565b91506146558261574d565b602082019050919050565b600061466d60128361512d565b915061467882615776565b602082019050919050565b600061469060098361513e565b915061469b8261579f565b600982019050919050565b60006146b360148361512d565b91506146be826157c8565b602082019050919050565b60006146d660248361512d565b91506146e1826157f1565b604082019050919050565b60006146f960198361512d565b915061470482615840565b602082019050919050565b600061471c602c8361512d565b915061472782615869565b604082019050919050565b600061473f60018361513e565b915061474a826158b8565b600182019050919050565b600061476260388361512d565b915061476d826158e1565b604082019050919050565b6000614785602a8361512d565b915061479082615930565b604082019050919050565b60006147a860298361512d565b91506147b38261597f565b604082019050919050565b60006147cb60208361512d565b91506147d6826159ce565b602082019050919050565b60006147ee602c8361512d565b91506147f9826159f7565b604082019050919050565b600061481160208361512d565b915061481c82615a46565b602082019050919050565b6000614834602f8361512d565b915061483f82615a6f565b604082019050919050565b600061485760088361512d565b915061486282615abe565b602082019050919050565b600061487a60318361512d565b915061488582615ae7565b604082019050919050565b600061489d60218361512d565b91506148a882615b36565b604082019050919050565b60006148c0600083615122565b91506148cb82615b85565b600082019050919050565b60006148e360318361512d565b91506148ee82615b88565b604082019050919050565b6000614906600f8361512d565b915061491182615bd7565b602082019050919050565b600061492960018361513e565b915061493482615c00565b600182019050919050565b614948816152df565b82525050565b614957816152df565b82525050565b6149668161530d565b82525050565b6149758161530d565b82525050565b61498481615317565b82525050565b600061499682856144de565b91506149a282846144de565b91508190509392505050565b60006149ba82856144de565b91506149c582614732565b91506149d182846144de565b91508190509392505050565b60006149e882614683565b91506149f38261491c565b91506149ff828861450f565b9150614a0a8261491c565b9150614a1682876144de565b9150614a218261491c565b9150614a2d82866144de565b9150614a388261491c565b9150614a4482856144de565b9150614a4f8261491c565b9150614a5b82846144de565b91508190509695505050505050565b6000614a75826148b3565b9150819050919050565b6000602082019050614a946000830184614392565b92915050565b6000608082019050614aaf6000830187614392565b614abc6020830186614392565b614ac9604083018561496c565b8181036060830152614adb818461446c565b905095945050505050565b60006020820190508181036000830152614b0081846143a1565b905092915050565b60006020820190508181036000830152614b2281846143ff565b905092915050565b6000602082019050614b3f600083018461445d565b92915050565b60006020820190508181036000830152614b5f81846144a5565b905092915050565b60006040820190508181036000830152614b8181856144a5565b90508181036020830152614b9581846144a5565b90509392505050565b600060a0820190508181036000830152614bb881886144a5565b9050614bc7602083018761497b565b8181036040830152614bd981866144a5565b90508181036060830152614bed81856144a5565b9050614bfc608083018461497b565b9695505050505050565b60006020820190508181036000830152614c1f8161458e565b9050919050565b60006020820190508181036000830152614c3f816145b1565b9050919050565b60006020820190508181036000830152614c5f816145d4565b9050919050565b60006020820190508181036000830152614c7f816145f7565b9050919050565b60006020820190508181036000830152614c9f8161461a565b9050919050565b60006020820190508181036000830152614cbf8161463d565b9050919050565b60006020820190508181036000830152614cdf81614660565b9050919050565b60006020820190508181036000830152614cff816146a6565b9050919050565b60006020820190508181036000830152614d1f816146c9565b9050919050565b60006020820190508181036000830152614d3f816146ec565b9050919050565b60006020820190508181036000830152614d5f8161470f565b9050919050565b60006020820190508181036000830152614d7f81614755565b9050919050565b60006020820190508181036000830152614d9f81614778565b9050919050565b60006020820190508181036000830152614dbf8161479b565b9050919050565b60006020820190508181036000830152614ddf816147be565b9050919050565b60006020820190508181036000830152614dff816147e1565b9050919050565b60006020820190508181036000830152614e1f81614804565b9050919050565b60006020820190508181036000830152614e3f81614827565b9050919050565b60006020820190508181036000830152614e5f8161484a565b9050919050565b60006020820190508181036000830152614e7f8161486d565b9050919050565b60006020820190508181036000830152614e9f81614890565b9050919050565b60006020820190508181036000830152614ebf816148d6565b9050919050565b60006020820190508181036000830152614edf816148f9565b9050919050565b6000602082019050614efb600083018461494e565b92915050565b6000602082019050614f16600083018461496c565b92915050565b6000608082019050614f31600083018761496c565b614f3e602083018661496c565b614f4b6040830185614392565b614f58606083018461494e565b95945050505050565b6000608082019050614f76600083018761496c565b614f83602083018661496c565b614f906040830185614392565b614f9d606083018461496c565b95945050505050565b6000602082019050614fbb600083018461497b565b92915050565b6000614fcb614fdc565b9050614fd78282615398565b919050565b6000604051905090565b600067ffffffffffffffff8211156150015761500061558a565b5b602082029050602081019050919050565b600067ffffffffffffffff82111561502d5761502c61558a565b5b615036826155d7565b9050602081019050919050565b600067ffffffffffffffff82111561505e5761505d61558a565b5b615067826155d7565b9050602081019050919050565b6000819050602082019050919050565b6000819050602082019050919050565b60008190508160005260206000209050919050565b600081519050919050565b600081519050919050565b600081519050919050565b600081519050919050565b6000602082019050919050565b6000602082019050919050565b600082825260208201905092915050565b600082825260208201905092915050565b600082825260208201905092915050565b600081905092915050565b600082825260208201905092915050565b600081905092915050565b60006151548261530d565b915061515f8361530d565b9250827fffffffffffffffffffffffffffffffffffffffffffffffffffffffffffffffff038211156151945761519361549f565b5b828201905092915050565b60006151aa82615317565b91506151b583615317565b92508260ff038211156151cb576151ca61549f565b5b828201905092915050565b60006151e18261530d565b91506151ec8361530d565b9250826151fc576151fb6154ce565b5b828204905092915050565b60006152128261530d565b915061521d8361530d565b9250817fffffffffffffffffffffffffffffffffffffffffffffffffffffffffffffffff04831182151516156152565761525561549f565b5b828202905092915050565b600061526c8261530d565b91506152778361530d565b92508282101561528a5761528961549f565b5b828203905092915050565b60006152a0826152ed565b9050919050565b60008115159050919050565b60007fffffffff0000000000000000000000000000000000000000000000000000000082169050919050565b600061ffff82169050919050565b600073ffffffffffffffffffffffffffffffffffffffff82169050919050565b6000819050919050565b600060ff82169050919050565b82818337600083830152505050565b60005b83811015615351578082015181840152602081019050615336565b83811115615360576000848401525b50505050565b6000600282049050600182168061537e57607f821691505b60208210811415615392576153916154fd565b5b50919050565b6153a1826155d7565b810181811067ffffffffffffffff821117156153c0576153bf61558a565b5b80604052505050565b60006153d4826152df565b915061ffff8214156153e9576153e861549f565b5b600182019050919050565b60006153ff8261530d565b91507fffffffffffffffffffffffffffffffffffffffffffffffffffffffffffffffff8214156154325761543161549f565b5b600182019050919050565b60006154488261530d565b91506154538361530d565b925082615463576154626154ce565b5b828206905092915050565b600061547982615317565b915061548483615317565b925082615494576154936154ce565b5b828206905092915050565b7f4e487b7100000000000000000000000000000000000000000000000000000000600052601160045260246000fd5b7f4e487b7100000000000000000000000000000000000000000000000000000000600052601260045260246000fd5b7f4e487b7100000000000000000000000000000000000000000000000000000000600052602260045260246000fd5b7f4e487b7100000000000000000000000000000000000000000000000000000000600052603160045260246000fd5b7f4e487b7100000000000000000000000000000000000000000000000000000000600052603260045260246000fd5b7f4e487b7100000000000000000000000000000000000000000000000000000000600052604160045260246000fd5b600080fd5b600080fd5b600080fd5b600080fd5b600080fd5b600080fd5b6000601f19601f8301169050919050565b7f5369646573206d757374206265206e6f6e2d7a65726f00000000000000000000600082015250565b7f45524337323153696d706c65456e756d657261626c653a20746f6b656e49642060008201527f6e6f7420666f756e6420696e206f776e6572206c697374000000000000000000602082015250565b7f4552433732313a207472616e7366657220746f206e6f6e20455243373231526560008201527f63656976657220696d706c656d656e7465720000000000000000000000000000602082015250565b7f4f776e61626c653a206e6577206f776e657220697320746865207a65726f206160008201527f6464726573730000000000000000000000000000000000000000000000000000602082015250565b7f4552433732313a207472616e736665722066726f6d20696e636f72726563742060008201527f6f776e6572000000000000000000000000000000000000000000000000000000602082015250565b7f4552433732313a20746f6b656e20616c7265616479206d696e74656400000000600082015250565b7f7374796c65206f7574206f662072616e67650000000000000000000000000000600082015250565b7f2f6d657461646174610000000000000000000000000000000000000000000000600082015250565b7f4661696c656420746f2073656e64206d6f6e6579000000000000000000000000600082015250565b7f4552433732313a207472616e7366657220746f20746865207a65726f2061646460008201527f7265737300000000000000000000000000000000000000000000000000000000602082015250565b7f4552433732313a20617070726f766520746f2063616c6c657200000000000000600082015250565b7f4552433732313a206f70657261746f7220717565727920666f72206e6f6e657860008201527f697374656e7420746f6b656e0000000000000000000000000000000000000000602082015250565b7f2000000000000000000000000000000000000000000000000000000000000000600082015250565b7f4552433732313a20617070726f76652063616c6c6572206973206e6f74206f7760008201527f6e6572206e6f7220617070726f76656420666f7220616c6c0000000000000000602082015250565b7f4552433732313a2062616c616e636520717565727920666f7220746865207a6560008201527f726f206164647265737300000000000000000000000000000000000000000000602082015250565b7f4552433732313a206f776e657220717565727920666f72206e6f6e657869737460008201527f656e7420746f6b656e0000000000000000000000000000000000000000000000602082015250565b7f4552433732313a206d696e7420746f20746865207a65726f2061646472657373600082015250565b7f4552433732313a20617070726f76656420717565727920666f72206e6f6e657860008201527f697374656e7420746f6b656e0000000000000000000000000000000000000000602082015250565b7f4f776e61626c653a2063616c6c6572206973206e6f7420746865206f776e6572600082015250565b7f4552433732314d657461646174613a2055524920717565727920666f72206e6f60008201527f6e6578697374656e7420746f6b656e0000000000000000000000000000000000602082015250565b7f6e6f20776f726473000000000000000000000000000000000000000000000000600082015250565b7f45524337323153696d706c65456e756d657261626c653a206f776e657220696e60008201527f646578206f7574206f6620626f756e6473000000000000000000000000000000602082015250565b7f4552433732313a20617070726f76616c20746f2063757272656e74206f776e6560008201527f7200000000000000000000000000000000000000000000000000000000000000602082015250565b50565b7f4552433732313a207472616e736665722063616c6c6572206973206e6f74206f60008201527f776e6572206e6f7220617070726f766564000000000000000000000000000000602082015250565b7f6e6f7420656e6f75676820636173680000000000000000000000000000000000600082015250565b7f2f00000000000000000000000000000000000000000000000000000000000000600082015250565b615c3281615295565b8114615c3d57600080fd5b50565b615c49816152a7565b8114615c5457600080fd5b50565b615c60816152b3565b8114615c6b57600080fd5b50565b615c77816152df565b8114615c8257600080fd5b50565b615c8e8161530d565b8114615c9957600080fd5b50565b615ca581615317565b8114615cb057600080fd5b5056fea2646970667358221220ffb1cc5183ad1b53298159706f5eea4b13fc98d5de8c85355637a5b0a4b6fad364736f6c63430008060033",
  "linkReferences": {},
  "deployedLinkReferences": {}
}