{
  "_format": "hh-sol-artifact-1",
  "contractName": "TabletopDiceNFT",
  "sourceName": "contracts/Dice.sol",
  "abi": [
    {
      "inputs": [
        {
          "internalType": "string[]",
          "name": "adjectives",
          "type": "string[]"
        },
        {
          "internalType": "string[]",
          "name": "nouns",
          "type": "string[]"
        }
      ],
      "stateMutability": "nonpayable",
      "type": "constructor"
    },
    {
      "anonymous": false,
      "inputs": [
        {
          "indexed": true,
          "internalType": "address",
          "name": "owner",
          "type": "address"
        },
        {
          "indexed": true,
          "internalType": "address",
          "name": "approved",
          "type": "address"
        },
        {
          "indexed": true,
          "internalType": "uint256",
          "name": "tokenId",
          "type": "uint256"
        }
      ],
      "name": "Approval",
      "type": "event"
    },
    {
      "anonymous": false,
      "inputs": [
        {
          "indexed": true,
          "internalType": "address",
          "name": "owner",
          "type": "address"
        },
        {
          "indexed": true,
          "internalType": "address",
          "name": "operator",
          "type": "address"
        },
        {
          "indexed": false,
          "internalType": "bool",
          "name": "approved",
          "type": "bool"
        }
      ],
      "name": "ApprovalForAll",
      "type": "event"
    },
    {
      "anonymous": false,
      "inputs": [
        {
          "indexed": true,
          "internalType": "address",
          "name": "previousOwner",
          "type": "address"
        },
        {
          "indexed": true,
          "internalType": "address",
          "name": "newOwner",
          "type": "address"
        }
      ],
      "name": "OwnershipTransferred",
      "type": "event"
    },
    {
      "anonymous": false,
      "inputs": [
        {
          "indexed": true,
          "internalType": "address",
          "name": "from",
          "type": "address"
        },
        {
          "indexed": true,
          "internalType": "address",
          "name": "to",
          "type": "address"
        },
        {
          "indexed": true,
          "internalType": "uint256",
          "name": "tokenId",
          "type": "uint256"
        }
      ],
      "name": "Transfer",
      "type": "event"
    },
    {
      "inputs": [
        {
          "internalType": "uint8",
          "name": "sides",
          "type": "uint8"
        }
      ],
      "name": "addPossibleSides",
      "outputs": [],
      "stateMutability": "nonpayable",
      "type": "function"
    },
    {
      "inputs": [
        {
          "internalType": "string[]",
          "name": "adjectives",
          "type": "string[]"
        },
        {
          "internalType": "string[]",
          "name": "nouns",
          "type": "string[]"
        }
      ],
      "name": "addWords",
      "outputs": [],
      "stateMutability": "nonpayable",
      "type": "function"
    },
    {
      "inputs": [
        {
          "internalType": "address",
          "name": "to",
          "type": "address"
        },
        {
          "internalType": "uint256",
          "name": "tokenId",
          "type": "uint256"
        }
      ],
      "name": "approve",
      "outputs": [],
      "stateMutability": "nonpayable",
      "type": "function"
    },
    {
      "inputs": [
        {
          "internalType": "address",
          "name": "owner",
          "type": "address"
        }
      ],
      "name": "balanceOf",
      "outputs": [
        {
          "internalType": "uint256",
          "name": "",
          "type": "uint256"
        }
      ],
      "stateMutability": "view",
      "type": "function"
    },
    {
      "inputs": [
        {
          "internalType": "uint8",
          "name": "count",
          "type": "uint8"
        }
      ],
      "name": "buyRandomDice",
      "outputs": [],
      "stateMutability": "payable",
      "type": "function"
    },
    {
      "inputs": [
        {
          "internalType": "uint256",
          "name": "tokenId",
          "type": "uint256"
        }
      ],
      "name": "getApproved",
      "outputs": [
        {
          "internalType": "address",
          "name": "",
          "type": "address"
        }
      ],
      "stateMutability": "view",
      "type": "function"
    },
    {
      "inputs": [
        {
          "internalType": "uint8",
          "name": "qty",
          "type": "uint8"
        }
      ],
      "name": "getMintingCost",
      "outputs": [
        {
          "internalType": "uint256",
          "name": "cost",
          "type": "uint256"
        }
      ],
      "stateMutability": "view",
      "type": "function"
    },
    {
      "inputs": [],
      "name": "getOwnedTokenIds",
      "outputs": [
        {
          "internalType": "uint256[]",
          "name": "",
          "type": "uint256[]"
        }
      ],
      "stateMutability": "view",
      "type": "function"
    },
    {
      "inputs": [
        {
          "internalType": "uint256",
          "name": "tokenId",
          "type": "uint256"
        },
        {
          "internalType": "uint16",
          "name": "nonce",
          "type": "uint16"
        }
      ],
      "name": "getRoll",
      "outputs": [
        {
          "internalType": "uint8",
          "name": "",
          "type": "uint8"
        }
      ],
      "stateMutability": "view",
      "type": "function"
    },
    {
      "inputs": [
        {
          "internalType": "uint256",
          "name": "tokenId",
          "type": "uint256"
        }
      ],
      "name": "getTraits",
      "outputs": [
        {
          "internalType": "string",
          "name": "name",
          "type": "string"
        },
        {
          "internalType": "uint8",
          "name": "sides",
          "type": "uint8"
        },
        {
          "internalType": "string",
          "name": "fgColor",
          "type": "string"
        },
        {
          "internalType": "string",
          "name": "bgColor",
          "type": "string"
        },
        {
          "internalType": "uint8",
          "name": "font",
          "type": "uint8"
        }
      ],
      "stateMutability": "view",
      "type": "function"
    },
    {
      "inputs": [
        {
          "internalType": "address",
          "name": "owner",
          "type": "address"
        },
        {
          "internalType": "address",
          "name": "operator",
          "type": "address"
        }
      ],
      "name": "isApprovedForAll",
      "outputs": [
        {
          "internalType": "bool",
          "name": "",
          "type": "bool"
        }
      ],
      "stateMutability": "view",
      "type": "function"
    },
    {
      "inputs": [
        {
          "internalType": "string",
          "name": "name",
          "type": "string"
        },
        {
          "internalType": "uint8",
          "name": "sides",
          "type": "uint8"
        },
        {
          "internalType": "uint8",
          "name": "styleId",
          "type": "uint8"
        },
        {
          "internalType": "uint8",
          "name": "font",
          "type": "uint8"
        },
        {
          "internalType": "address",
          "name": "reciever",
          "type": "address"
        }
      ],
      "name": "mintDie",
      "outputs": [
        {
          "internalType": "uint256",
          "name": "tokenId",
          "type": "uint256"
        }
      ],
      "stateMutability": "nonpayable",
      "type": "function"
    },
    {
      "inputs": [
        {
          "internalType": "uint8",
          "name": "count",
          "type": "uint8"
        },
        {
          "internalType": "address",
          "name": "reciever",
          "type": "address"
        }
      ],
      "name": "mintRandomDice",
      "outputs": [],
      "stateMutability": "nonpayable",
      "type": "function"
    },
    {
      "inputs": [
        {
          "internalType": "address",
          "name": "reciever",
          "type": "address"
        }
      ],
      "name": "mintRandomDie",
      "outputs": [
        {
          "internalType": "uint256",
          "name": "tokenId",
          "type": "uint256"
        }
      ],
      "stateMutability": "nonpayable",
      "type": "function"
    },
    {
      "inputs": [],
      "name": "name",
      "outputs": [
        {
          "internalType": "string",
          "name": "",
          "type": "string"
        }
      ],
      "stateMutability": "view",
      "type": "function"
    },
    {
      "inputs": [],
      "name": "owner",
      "outputs": [
        {
          "internalType": "address",
          "name": "",
          "type": "address"
        }
      ],
      "stateMutability": "view",
      "type": "function"
    },
    {
      "inputs": [
        {
          "internalType": "uint256",
          "name": "tokenId",
          "type": "uint256"
        }
      ],
      "name": "ownerOf",
      "outputs": [
        {
          "internalType": "address",
          "name": "",
          "type": "address"
        }
      ],
      "stateMutability": "view",
      "type": "function"
    },
    {
      "inputs": [],
      "name": "renounceOwnership",
      "outputs": [],
      "stateMutability": "nonpayable",
      "type": "function"
    },
    {
      "inputs": [
        {
          "internalType": "address",
          "name": "from",
          "type": "address"
        },
        {
          "internalType": "address",
          "name": "to",
          "type": "address"
        },
        {
          "internalType": "uint256",
          "name": "tokenId",
          "type": "uint256"
        }
      ],
      "name": "safeTransferFrom",
      "outputs": [],
      "stateMutability": "nonpayable",
      "type": "function"
    },
    {
      "inputs": [
        {
          "internalType": "address",
          "name": "from",
          "type": "address"
        },
        {
          "internalType": "address",
          "name": "to",
          "type": "address"
        },
        {
          "internalType": "uint256",
          "name": "tokenId",
          "type": "uint256"
        },
        {
          "internalType": "bytes",
          "name": "_data",
          "type": "bytes"
        }
      ],
      "name": "safeTransferFrom",
      "outputs": [],
      "stateMutability": "nonpayable",
      "type": "function"
    },
    {
      "inputs": [
        {
          "internalType": "address payable",
          "name": "newReciver",
          "type": "address"
        }
      ],
      "name": "setAccountsRecievable",
      "outputs": [],
      "stateMutability": "nonpayable",
      "type": "function"
    },
    {
      "inputs": [
        {
          "internalType": "address",
          "name": "operator",
          "type": "address"
        },
        {
          "internalType": "bool",
          "name": "approved",
          "type": "bool"
        }
      ],
      "name": "setApprovalForAll",
      "outputs": [],
      "stateMutability": "nonpayable",
      "type": "function"
    },
    {
      "inputs": [
        {
          "internalType": "string",
          "name": "baseURI",
          "type": "string"
        }
      ],
      "name": "setBaseURI",
      "outputs": [],
      "stateMutability": "nonpayable",
      "type": "function"
    },
    {
      "inputs": [
        {
          "internalType": "uint256",
          "name": "newCost",
          "type": "uint256"
        }
      ],
      "name": "setDiePrice",
      "outputs": [],
      "stateMutability": "nonpayable",
      "type": "function"
    },
    {
      "inputs": [
        {
          "internalType": "bytes4",
          "name": "interfaceId",
          "type": "bytes4"
        }
      ],
      "name": "supportsInterface",
      "outputs": [
        {
          "internalType": "bool",
          "name": "",
          "type": "bool"
        }
      ],
      "stateMutability": "view",
      "type": "function"
    },
    {
      "inputs": [],
      "name": "symbol",
      "outputs": [
        {
          "internalType": "string",
          "name": "",
          "type": "string"
        }
      ],
      "stateMutability": "view",
      "type": "function"
    },
    {
      "inputs": [
        {
          "internalType": "address",
          "name": "owner",
          "type": "address"
        }
      ],
      "name": "tokenListOfOwner",
      "outputs": [
        {
          "internalType": "uint16[]",
          "name": "",
          "type": "uint16[]"
        }
      ],
      "stateMutability": "view",
      "type": "function"
    },
    {
      "inputs": [
        {
          "internalType": "address",
          "name": "owner",
          "type": "address"
        },
        {
          "internalType": "uint256",
          "name": "index",
          "type": "uint256"
        }
      ],
      "name": "tokenOfOwnerByIndex",
      "outputs": [
        {
          "internalType": "uint16",
          "name": "",
          "type": "uint16"
        }
      ],
      "stateMutability": "view",
      "type": "function"
    },
    {
      "inputs": [
        {
          "internalType": "uint256",
          "name": "tokenId",
          "type": "uint256"
        }
      ],
      "name": "tokenURI",
      "outputs": [
        {
          "internalType": "string",
          "name": "",
          "type": "string"
        }
      ],
      "stateMutability": "view",
      "type": "function"
    },
    {
      "inputs": [],
      "name": "tokensBurnt",
      "outputs": [
        {
          "internalType": "uint256",
          "name": "",
          "type": "uint256"
        }
      ],
      "stateMutability": "view",
      "type": "function"
    },
    {
      "inputs": [],
      "name": "tokensMinted",
      "outputs": [
        {
          "internalType": "uint256",
          "name": "",
          "type": "uint256"
        }
      ],
      "stateMutability": "view",
      "type": "function"
    },
    {
      "inputs": [],
      "name": "totalSupply",
      "outputs": [
        {
          "internalType": "uint256",
          "name": "",
          "type": "uint256"
        }
      ],
      "stateMutability": "view",
      "type": "function"
    },
    {
      "inputs": [
        {
          "internalType": "address",
          "name": "from",
          "type": "address"
        },
        {
          "internalType": "address",
          "name": "to",
          "type": "address"
        },
        {
          "internalType": "uint256",
          "name": "tokenId",
          "type": "uint256"
        }
      ],
      "name": "transferFrom",
      "outputs": [],
      "stateMutability": "nonpayable",
      "type": "function"
    },
    {
      "inputs": [
        {
          "internalType": "address",
          "name": "newOwner",
          "type": "address"
        }
      ],
      "name": "transferOwnership",
      "outputs": [],
      "stateMutability": "nonpayable",
      "type": "function"
    }
  ],
  "bytecode": "0x60c0604052600360808190526218171960e91b60a0908152620000269160019190620003bb565b506702669e955a248000600b553480156200004057600080fd5b50604051620044753803806200447583398101604081905262000063916200058a565b6001604051602001620000779190620005f4565b60408051808303601f190181528282019091526008825267506f6c794469636560c01b602083015290620000ab33620001d4565b8151620000c0906002906020850190620003bb565b508051620000d6906003906020840190620003bb565b505060408051808201909152601a8082527f68747470733a2f2f646963652e7061727461766174652e636f6d000000000000602090920191825262000120925060159190620003bb565b50600c80546001600160a01b031916331790556200013f828262000224565b5050600f805460018181018355600083905260208083047f8d1108e10bcb7c27dddfc02ed9d693a074039d026cf4ea4240b40f7d581ac8029081018054601f95861661010090810a6006810260ff9182021990931692909217909255865494850190965591830401805492909316900a60148102930219169190911790556010805461011e61ffff199091161790556200077f565b600080546001600160a01b038381166001600160a01b0319831681178455604051919092169283917f8be0079c531659141344cd1fd0a4f28419497f9722a3daafe3b4186f6b6457e09190a35050565b6000546001600160a01b03163314620002835760405162461bcd60e51b815260206004820181905260248201527f4f776e61626c653a2063616c6c6572206973206e6f7420746865206f776e6572604482015260640160405180910390fd5b60005b8251811015620002dc57620002c7838281518110620002a957620002a962000753565b602002602001015160116200033b60201b6200169e1790919060201c565b80620002d38162000729565b91505062000286565b5060005b815181101562000336576200032182828151811062000303576200030362000753565b602002602001015160116200035c60201b620016a81790919060201c565b806200032d8162000729565b915050620002e0565b505050565b6200035881836000016200037960201b620016b11790919060201c565b5050565b6200035881836002016200037960201b620016b11790919060201c565b600182015460009081526020838152604090912082516200039d92840190620003bb565b50600182018054906000620003b28362000729565b91905055505050565b828054620003c990620006ec565b90600052602060002090601f016020900481019282620003ed576000855562000438565b82601f106200040857805160ff191683800117855562000438565b8280016001018555821562000438579182015b82811115620004385782518255916020019190600101906200041b565b50620004469291506200044a565b5090565b5b808211156200044657600081556001016200044b565b6000601f83818401126200047457600080fd5b825160206001600160401b038083111562000493576200049362000769565b8260051b620004a4838201620006b9565b84815283810190888501838a0186018b1015620004c057600080fd5b600093505b868410156200057c57805185811115620004de57600080fd5b8a01603f81018c13620004f057600080fd5b868101518681111562000507576200050762000769565b6200051a818b01601f19168901620006b9565b81815260408e818486010111156200053157600080fd5b60005b8381101562000551578481018201518382018c01528a0162000534565b83811115620005635760008b85850101525b50508552505060019390930192918501918501620004c5565b509998505050505050505050565b600080604083850312156200059e57600080fd5b82516001600160401b0380821115620005b657600080fd5b620005c48683870162000461565b93506020850151915080821115620005db57600080fd5b50620005ea8582860162000461565b9150509250929050565b6e2837b63ca234b1b2903220b838103b60891b81526000600f6000845481600182811c9150808316806200062957607f831692505b60208084108214156200064a57634e487b7160e01b86526022600452602486fd5b8180156200066157600181146200067757620006aa565b60ff1986168a890152848a0188019650620006aa565b60008b81526020902060005b86811015620006a05781548c82018b015290850190830162000683565b505087858b010196505b50949998505050505050505050565b604051601f8201601f191681016001600160401b0381118282101715620006e457620006e462000769565b604052919050565b600181811c908216806200070157607f821691505b602082108114156200072357634e487b7160e01b600052602260045260246000fd5b50919050565b60006000198214156200074c57634e487b7160e01b600052601160045260246000fd5b5060010190565b634e487b7160e01b600052603260045260246000fd5b634e487b7160e01b600052604160045260246000fd5b613ce6806200078f6000396000f3fe6080604052600436106102195760003560e01c8063715018a61161011d578063c6ead8af116100b0578063dc2c19891161007f578063e985e9c511610064578063e985e9c51461064b578063f2fde38b14610694578063fce8019a146106b457600080fd5b8063dc2c1989146105fa578063e1dc07611461061a57600080fd5b8063c6ead8af14610572578063c85718c414610588578063c87b56dd146105a8578063d4dd562e146105c857600080fd5b8063a22cb465116100ec578063a22cb465146104f0578063b0d8b51f14610510578063b88d4fde14610532578063be7e50a81461055257600080fd5b8063715018a61461048857806386ce316b1461049d5780638da5cb5b146104bd57806395d89b41146104db57600080fd5b80632848f6e4116101b057806355f804b31161017f5780636618196c116101645780636618196c146104255780636de9f32b1461045257806370a082311461046857600080fd5b806355f804b3146103e55780636352211e1461040557600080fd5b80632848f6e4146103525780632f745c5914610372578063360dd460146103a557806342842e0e146103c557600080fd5b80630b2cbe61116101ec5780630b2cbe61146102cf578063156221b4146102ef57806318160ddd1461030f57806323b872dd1461033257600080fd5b806301ffc9a71461021e57806306fdde0314610253578063081812fc14610275578063095ea7b3146102ad575b600080fd5b34801561022a57600080fd5b5061023e61023936600461359d565b6106c7565b60405190151581526020015b60405180910390f35b34801561025f57600080fd5b50610268610764565b60405161024a91906139f2565b34801561028157600080fd5b506102956102903660046136cd565b6107f6565b6040516001600160a01b03909116815260200161024a565b3480156102b957600080fd5b506102cd6102c836600461350d565b610890565b005b3480156102db57600080fd5b506102cd6102ea36600461372d565b6109c2565b3480156102fb57600080fd5b506102cd61030a3660046133c3565b610a49565b34801561031b57600080fd5b50610324610ac5565b60405190815260200161024a565b34801561033e57600080fd5b506102cd61034d366004613419565b610adc565b34801561035e57600080fd5b506102cd61036d366004613712565b610b63565b34801561037e57600080fd5b5061039261038d36600461350d565b610c16565b60405161ffff909116815260200161024a565b3480156103b157600080fd5b506103246103c0366004613649565b610ceb565b3480156103d157600080fd5b506102cd6103e0366004613419565b610d5f565b3480156103f157600080fd5b506102cd6104003660046135d7565b610d7a565b34801561041157600080fd5b506102956104203660046136cd565b610de0565b34801561043157600080fd5b506104456104403660046133c3565b610e6b565b60405161024a9190613972565b34801561045e57600080fd5b5061032460095481565b34801561047457600080fd5b506103246104833660046133c3565b610eff565b34801561049457600080fd5b506102cd610f99565b3480156104a957600080fd5b506103246104b83660046133c3565b610fff565b3480156104c957600080fd5b506000546001600160a01b0316610295565b3480156104e757600080fd5b506102686110a5565b3480156104fc57600080fd5b506102cd61050b3660046134da565b6110b4565b34801561051c57600080fd5b506105256110c3565b60405161024a91906139ba565b34801561053e57600080fd5b506102cd61054d36600461345a565b611168565b34801561055e57600080fd5b5061032461056d366004613712565b6111f6565b34801561057e57600080fd5b50610324600a5481565b34801561059457600080fd5b506102cd6105a33660046136cd565b611209565b3480156105b457600080fd5b506102686105c33660046136cd565b611268565b3480156105d457600080fd5b506105e86105e33660046136e6565b611303565b60405160ff909116815260200161024a565b34801561060657600080fd5b506102cd610615366004613539565b611381565b34801561062657600080fd5b5061063a6106353660046136cd565b611472565b60405161024a959493929190613a05565b34801561065757600080fd5b5061023e6106663660046133e0565b6001600160a01b03918216600090815260076020908152604080832093909416825291909152205460ff1690565b3480156106a057600080fd5b506102cd6106af3660046133c3565b611496565b6102cd6106c2366004613712565b611578565b60006001600160e01b031982167f80ac58cd00000000000000000000000000000000000000000000000000000000148061072a57506001600160e01b031982167f5b5e139f00000000000000000000000000000000000000000000000000000000145b8061075e57507f01ffc9a7000000000000000000000000000000000000000000000000000000006001600160e01b03198316145b92915050565b60606002805461077390613b6b565b80601f016020809104026020016040519081016040528092919081815260200182805461079f90613b6b565b80156107ec5780601f106107c1576101008083540402835291602001916107ec565b820191906000526020600020905b8154815290600101906020018083116107cf57829003601f168201915b5050505050905090565b6000818152600460205260408120546001600160a01b03166108745760405162461bcd60e51b815260206004820152602c60248201527f4552433732313a20617070726f76656420717565727920666f72206e6f6e657860448201526b34b9ba32b73a103a37b5b2b760a11b60648201526084015b60405180910390fd5b506000908152600660205260409020546001600160a01b031690565b600061089b82610de0565b9050806001600160a01b0316836001600160a01b031614156109255760405162461bcd60e51b815260206004820152602160248201527f4552433732313a20617070726f76616c20746f2063757272656e74206f776e6560448201527f7200000000000000000000000000000000000000000000000000000000000000606482015260840161086b565b336001600160a01b038216148061094157506109418133610666565b6109b35760405162461bcd60e51b815260206004820152603860248201527f4552433732313a20617070726f76652063616c6c6572206973206e6f74206f7760448201527f6e6572206e6f7220617070726f76656420666f7220616c6c0000000000000000606482015260840161086b565b6109bd83836116ef565b505050565b6000546001600160a01b03163314610a1c5760405162461bcd60e51b815260206004820181905260248201527f4f776e61626c653a2063616c6c6572206973206e6f7420746865206f776e6572604482015260640161086b565b60005b8260ff168160ff1610156109bd57610a368261175d565b5080610a4181613bc1565b915050610a1f565b6000546001600160a01b03163314610aa35760405162461bcd60e51b815260206004820181905260248201527f4f776e61626c653a2063616c6c6572206973206e6f7420746865206f776e6572604482015260640161086b565b600c80546001600160a01b0319166001600160a01b0392909216919091179055565b6000600a54600954610ad79190613b28565b905090565b610ae63382611769565b610b585760405162461bcd60e51b815260206004820152603160248201527f4552433732313a207472616e736665722063616c6c6572206973206e6f74206f60448201527f776e6572206e6f7220617070726f766564000000000000000000000000000000606482015260840161086b565b6109bd838383611860565b6000546001600160a01b03163314610bbd5760405162461bcd60e51b815260206004820181905260248201527f4f776e61626c653a2063616c6c6572206973206e6f7420746865206f776e6572604482015260640161086b565b600f8054600181018255600091909152602081047f8d1108e10bcb7c27dddfc02ed9d693a074039d026cf4ea4240b40f7d581ac80201805460ff938416601f9093166101000a9283029390920219909116919091179055565b6000610c2183610eff565b8210610c955760405162461bcd60e51b815260206004820152603160248201527f45524337323153696d706c65456e756d657261626c653a206f776e657220696e60448201527f646578206f7574206f6620626f756e6473000000000000000000000000000000606482015260840161086b565b6001600160a01b0383166000908152600860205260409020805483908110610cbf57610cbf613c59565b90600052602060002090601091828204019190066002029054906101000a900461ffff16905092915050565b600080546001600160a01b03163314610d465760405162461bcd60e51b815260206004820181905260248201527f4f776e61626c653a2063616c6c6572206973206e6f7420746865206f776e6572604482015260640161086b565b610d538686868686611a38565b90505b95945050505050565b6109bd83838360405180602001604052806000815250611168565b6000546001600160a01b03163314610dd45760405162461bcd60e51b815260206004820181905260248201527f4f776e61626c653a2063616c6c6572206973206e6f7420746865206f776e6572604482015260640161086b565b6109bd60158383613189565b6000818152600460205260408120546001600160a01b03168061075e5760405162461bcd60e51b815260206004820152602960248201527f4552433732313a206f776e657220717565727920666f72206e6f6e657869737460448201527f656e7420746f6b656e0000000000000000000000000000000000000000000000606482015260840161086b565b6001600160a01b038116600090815260086020908152604091829020805483518184028101840190945280845260609392830182828015610ef357602002820191906000526020600020906000905b82829054906101000a900461ffff1661ffff1681526020019060020190602082600101049283019260010382029150808411610eba5790505b50505050509050919050565b60006001600160a01b038216610f7d5760405162461bcd60e51b815260206004820152602a60248201527f4552433732313a2062616c616e636520717565727920666f7220746865207a6560448201527f726f206164647265737300000000000000000000000000000000000000000000606482015260840161086b565b506001600160a01b031660009081526005602052604090205490565b6000546001600160a01b03163314610ff35760405162461bcd60e51b815260206004820181905260248201527f4f776e61626c653a2063616c6c6572206973206e6f7420746865206f776e6572604482015260640161086b565b610ffd6000611a6c565b565b600080546001600160a01b0316331461105a5760405162461bcd60e51b815260206004820181905260248201527f4f776e61626c653a2063616c6c6572206973206e6f7420746865206f776e6572604482015260640161086b565b6000611065600d5490565b90506000611074601183611abc565b905060008080611085600e86611afd565b925092509250611098848484848b611a38565b955050505050505b919050565b60606003805461077390613b6b565b6110bf338383611c38565b5050565b606060006110d033610eff565b905060008167ffffffffffffffff8111156110ed576110ed613c6f565b604051908082528060200260200182016040528015611116578160200160208202803683370190505b50905060005b828110156111615761112e3382610c16565b61ffff1682828151811061114457611144613c59565b60209081029190910101528061115981613ba6565b91505061111c565b5092915050565b6111723383611769565b6111e45760405162461bcd60e51b815260206004820152603160248201527f4552433732313a207472616e736665722063616c6c6572206973206e6f74206f60448201527f776e6572206e6f7220617070726f766564000000000000000000000000000000606482015260840161086b565b6111f084848484611d07565b50505050565b60008160ff16600b5461075e9190613b09565b6000546001600160a01b031633146112635760405162461bcd60e51b815260206004820181905260248201527f4f776e61626c653a2063616c6c6572206973206e6f7420746865206f776e6572604482015260640161086b565b600b55565b6000818152600460205260409020546060906001600160a01b03166112cf5760405162461bcd60e51b815260206004820152601160248201527f6e6f6e6578697374656e7420746f6b656e000000000000000000000000000000604482015260640161086b565b60156112dc600e84611d85565b6040516020016112ed92919061384a565b6040516020818303038152906040529050919050565b600061130e83610de0565b6001600160a01b0316336001600160a01b03161461136e5760405162461bcd60e51b815260206004820152600a60248201527f4e6f7420796f7572732e00000000000000000000000000000000000000000000604482015260640161086b565b61137a600e8484611e29565b9392505050565b6000546001600160a01b031633146113db5760405162461bcd60e51b815260206004820181905260248201527f4f776e61626c653a2063616c6c6572206973206e6f7420746865206f776e6572604482015260640161086b565b60005b8251811015611426576114148382815181106113fc576113fc613c59565b6020026020010151601161169e90919063ffffffff16565b8061141e81613ba6565b9150506113de565b5060005b81518110156109bd5761146082828151811061144857611448613c59565b602002602001015160116116a890919063ffffffff16565b8061146a81613ba6565b91505061142a565b60606000818082611484600e87611ec8565b939a9299509097509550909350915050565b6000546001600160a01b031633146114f05760405162461bcd60e51b815260206004820181905260248201527f4f776e61626c653a2063616c6c6572206973206e6f7420746865206f776e6572604482015260640161086b565b6001600160a01b03811661156c5760405162461bcd60e51b815260206004820152602660248201527f4f776e61626c653a206e6577206f776e657220697320746865207a65726f206160448201527f6464726573730000000000000000000000000000000000000000000000000000606482015260840161086b565b61157581611a6c565b50565b611581816111f6565b3410156115d05760405162461bcd60e51b815260206004820152600f60248201527f6e6f7420656e6f75676820636173680000000000000000000000000000000000604482015260640161086b565b60005b8160ff168110156115fa576115e73361175d565b50806115f281613ba6565b9150506115d3565b50600c546040516000916001600160a01b03169034908381818185875af1925050503d8060008114611648576040519150601f19603f3d011682016040523d82523d6000602084013e61164d565b606091505b50509050806110bf5760405162461bcd60e51b815260206004820152601a60248201527f4661696c656420746f20666f7277617264207061796d656e742e000000000000604482015260640161086b565b6110bf82826116b1565b6110bf60028301825b600182015460009081526020838152604090912082516116d39284019061320d565b506001820180549060006116e683613ba6565b91905055505050565b600081815260066020526040902080546001600160a01b0319166001600160a01b038416908117909155819061172482610de0565b6001600160a01b03167f8c5be1e5ebec7d5bd14f71427d1e84f3dd0314c0f7b2291e5b200ac8c7c3b92560405160405180910390a45050565b600080611065600d5490565b6000818152600460205260408120546001600160a01b03166117e25760405162461bcd60e51b815260206004820152602c60248201527f4552433732313a206f70657261746f7220717565727920666f72206e6f6e657860448201526b34b9ba32b73a103a37b5b2b760a11b606482015260840161086b565b60006117ed83610de0565b9050806001600160a01b0316846001600160a01b031614806118285750836001600160a01b031661181d846107f6565b6001600160a01b0316145b8061185857506001600160a01b0380821660009081526007602090815260408083209388168352929052205460ff165b949350505050565b826001600160a01b031661187382610de0565b6001600160a01b0316146118ef5760405162461bcd60e51b815260206004820152602560248201527f4552433732313a207472616e736665722066726f6d20696e636f72726563742060448201527f6f776e6572000000000000000000000000000000000000000000000000000000606482015260840161086b565b6001600160a01b03821661196a5760405162461bcd60e51b8152602060048201526024808201527f4552433732313a207472616e7366657220746f20746865207a65726f2061646460448201527f7265737300000000000000000000000000000000000000000000000000000000606482015260840161086b565b611975838383611fcb565b6119806000826116ef565b6001600160a01b03831660009081526005602052604081208054600192906119a9908490613b28565b90915550506001600160a01b03821660009081526005602052604081208054600192906119d7908490613a8e565b909155505060008181526004602052604080822080546001600160a01b0319166001600160a01b0386811691821790925591518493918716917fddf252ad1be2c89b69c2b068fc378daa952ba7f163c4a11628f55a4df523b3ef91a4505050565b6000611a43600d5490565b9050611a54600e828888888861208e565b611a5e8282612234565b610d56600d80546001019055565b600080546001600160a01b038381166001600160a01b0319831681178455604051919092169283917f8be0079c531659141344cd1fd0a4f28419497f9722a3daafe3b4186f6b6457e09190a35050565b6060611ac8838361224e565b611ad5600285018461224e565b604051602001611ae692919061380e565b604051602081830303815290604052905092915050565b6001820180546040805144602080830191909152428284015233606083015261ffff86166080808401919091528351808403909101815260a090920190925280519101206000928392839260ff16611b559190613be1565b81548110611b6557611b65613c59565b600091825260209182902091810490910154600287015460ff601f9093166101000a90910482169450611b9a91166001613aa6565b611bf0611baa60ff861687613adf565b60408051446020820152429181019190915233606082015261ffff8216608082015260009060a00160408051601f19818403018152919052805160209091012092915050565b611bfa9190613bf5565b6002860154909250611c1590610100900460ff166001613aa6565b611c25611baa60ff851687613adf565b611c2f9190613bf5565b90509250925092565b816001600160a01b0316836001600160a01b03161415611c9a5760405162461bcd60e51b815260206004820152601960248201527f4552433732313a20617070726f766520746f2063616c6c657200000000000000604482015260640161086b565b6001600160a01b03838116600081815260076020908152604080832094871680845294825291829020805460ff191686151590811790915591519182527f17307eab39ab6107e8899845ad3d59bd9653f200f220920489ca2b5937696c31910160405180910390a3505050565b611d12848484611860565b611d1e84848484612308565b6111f05760405162461bcd60e51b815260206004820152603260248201527f4552433732313a207472616e7366657220746f206e6f6e20455243373231526560448201527131b2b4bb32b91034b6b83632b6b2b73a32b960711b606482015260840161086b565b600081815260208390526040812060010154606091908190611dae90610100900460ff16612460565b6000868152602088905260409020600181015492945090925090611dd49060ff16612c32565b60008681526020889052604090206001015484908490611dfc9062010000900460ff16612c32565b604051602001611e1095949392919061386f565b6040516020818303038152906040529250505092915050565b600082815260208490526040812060010154819060ff16600a14611e4e576001611e51565b60005b6000858152602087815260408083206001015481514481850152428184015233606082015261ffff89166080808301919091528351808303909101815260a090910190925281519190920120929350909160ff808516921690611eb49190613be1565b611ebe9190613a8e565b9695505050505050565b6000818152602083905260408120600101546060919082908190839081908190611ef990610100900460ff16612460565b60008a815260208c905260409020600181015481549395509193509160ff808316928692869262010000909204909116908590611f3590613b6b565b80601f0160208091040260200160405190810160405280929190818152602001828054611f6190613b6b565b8015611fae5780601f10611f8357610100808354040283529160200191611fae565b820191906000526020600020905b815481529060010190602001808311611f9157829003601f168201915b505050505094509650965096509650965050509295509295909350565b826001600160a01b0316826001600160a01b0316146109bd576001600160a01b038216600090815260086020908152604082208054600181018255908352912060108204018054600f9092166002026101000a61ffff81810219909316928416029190911790556001600160a01b038316156120505761204b8382612d64565b612066565b6009805490600061206083613ba6565b91905055505b6001600160a01b0382166109bd57600a805490600061208483613ba6565b9190505550505050565b600286015460ff90811690831611156120e95760405162461bcd60e51b815260206004820152601360248201527f496e76616c696420636f6c6f72207468656d6500000000000000000000000000604482015260640161086b565b600286015460ff610100909104811690821611156121495760405162461bcd60e51b815260206004820152601360248201527f496e76616c696420636f6c6f72207468656d6500000000000000000000000000604482015260640161086b565b6121538684612f48565b61219f5760405162461bcd60e51b815260206004820152601760248201527f496e76616c6964206e756d626572206f66207369646573000000000000000000604482015260640161086b565b6040805160808101825285815260ff80861660208084019190915285821683850152908416606083015260008881528982529290922081518051929391926121ea928492019061320d565b50602082015160019091018054604084015160609094015160ff908116620100000262ff0000199582166101000261ffff1990931691909416171792909216179055505050505050565b6110bf828260405180602001604052806000815250612fbd565b6000808360010154116122a35760405162461bcd60e51b815260206004820152600860248201527f6e6f20776f726473000000000000000000000000000000000000000000000000604482015260640161086b565b6001830154604080514460208201524291810191909152336060820152608081018490526000919060a0016040516020818303038152906040528051906020012060001c6122f19190613be1565b600090815260208590526040902091505092915050565b60006001600160a01b0384163b1561245557604051630a85bd0160e11b81526001600160a01b0385169063150b7a029061234c903390899088908890600401613940565b602060405180830381600087803b15801561236657600080fd5b505af1925050508015612396575060408051601f3d908101601f19168201909252612393918101906135ba565b60015b61243b573d8080156123c4576040519150601f19603f3d011682016040523d82523d6000602084013e6123c9565b606091505b5080516124335760405162461bcd60e51b815260206004820152603260248201527f4552433732313a207472616e7366657220746f206e6f6e20455243373231526560448201527131b2b4bb32b91034b6b83632b6b2b73a32b960711b606482015260840161086b565b805181602001fd5b6001600160e01b031916630a85bd0160e11b149050611858565b506001949350505050565b606080601e8360ff1611156124b75760405162461bcd60e51b815260206004820152601260248201527f7374796c65206f7574206f662072616e67650000000000000000000000000000604482015260640161086b565b60038360ff16116124fc575060408051808201909152600681527f303031333465000000000000000000000000000000000000000000000000000060208201526128d7565b60048360ff1610158015612514575060078360ff1611155b15612553575060408051808201909152600681527f316131613161000000000000000000000000000000000000000000000000000060208201526128d7565b60088360ff161015801561256b5750600a8360ff1611155b15612593575060408051808201909152600681526533333333333360d11b60208201526128d7565b600b8360ff16101580156125ab5750600d8360ff1611155b156125ea575060408051808201909152600681527f353535373533000000000000000000000000000000000000000000000000000060208201526128d7565b600e8360ff1610158015612602575060108360ff1611155b15612641575060408051808201909152600681527f386231306430000000000000000000000000000000000000000000000000000060208201526128d7565b60118360ff1610158015612659575060138360ff1611155b15612698575060408051808201909152600681527f656364633139000000000000000000000000000000000000000000000000000060208201526128d7565b8260ff16601414806126ad57508260ff166015145b156126ec575060408051808201909152600681527f343038666464000000000000000000000000000000000000000000000000000060208201526128d7565b8260ff166016148061270157508260ff166017145b15612740575060408051808201909152600681527f333137613236000000000000000000000000000000000000000000000000000060208201526128d7565b8260ff166018148061275557508260ff166019145b15612794575060408051808201909152600681527f663231643061000000000000000000000000000000000000000000000000000060208201526128d7565b8260ff16601a14156127da575060408051808201909152600681527f383866663434000000000000000000000000000000000000000000000000000060208201526128d7565b8260ff16601b1415612820575060408051808201909152600681527f643039633130000000000000000000000000000000000000000000000000000060208201526128d7565b8260ff16601c1415612866575060408051808201909152600681527f656635346461000000000000000000000000000000000000000000000000000060208201526128d7565b8260ff16601d14156128ac575060408051808201909152600681527f346530303030000000000000000000000000000000000000000000000000000060208201526128d7565b8260ff16601e14156128d7575060408051808201909152600681526518181818333360d11b60208201525b60ff831615806128ea57508260ff166004145b806128f857508260ff166008145b8061290657508260ff166011145b8061291457508260ff16601a145b1561293f576040518060400160405280600681526020016518181818333360d11b8152509150915091565b8260ff166001148061295457508260ff166005145b15612996576040518060400160405280600681526020017f30306666303000000000000000000000000000000000000000000000000000008152509150915091565b8260ff16600214806129ab57508260ff166006145b806129b957508260ff16600a145b806129c757508260ff166013145b806129d557508260ff16601c145b15612a17576040518060400160405280600681526020017f66663030303000000000000000000000000000000000000000000000000000008152509150915091565b8260ff1660031480612a2c57508260ff166007145b80612a3a57508260ff16600d145b80612a4857508260ff166010145b80612a5657508260ff166015145b80612a6457508260ff166017145b80612a7257508260ff166019145b80612a8057508260ff16601d145b80612a8e57508260ff16601e145b15612ab9576040518060400160405280600681526020016533333333333360d11b8152509150915091565b8260ff1660091480612ace57508260ff16600b145b80612adc57508260ff16600e145b80612aea57508260ff166012145b80612af857508260ff166014145b80612b0657508260ff16601b145b15612b48576040518060400160405280600681526020017f30303030303000000000000000000000000000000000000000000000000000008152509150915091565b8260ff16600c1480612b5d57508260ff166016145b15612b9f576040518060400160405280600681526020017f38386666383800000000000000000000000000000000000000000000000000008152509150915091565b8260ff16600f1415612be8576040518060400160405280600681526020017f36366363363600000000000000000000000000000000000000000000000000008152509150915091565b8260ff1660181415612c2d576040518060400160405280600681526020017f383830303030000000000000000000000000000000000000000000000000000081525091505b915091565b606081612c7257505060408051808201909152600181527f3000000000000000000000000000000000000000000000000000000000000000602082015290565b8160005b8115612c9c5780612c8681613ba6565b9150612c959050600a83613acb565b9150612c76565b60008167ffffffffffffffff811115612cb757612cb7613c6f565b6040519080825280601f01601f191660200182016040528015612ce1576020820181803683370190505b5090505b841561185857612cf6600183613b28565b9150612d03600a86613be1565b612d0e906030613a8e565b60f81b818381518110612d2357612d23613c59565b60200101907effffffffffffffffffffffffffffffffffffffffffffffffffffffffffffff1916908160001a905350612d5d600a86613acb565b9450612ce5565b6001600160a01b0382166000908152600860205260408120805490915b8254811015612de3578361ffff16838281548110612da157612da1613c59565b60009182526020909120601082040154600f9091166002026101000a900461ffff161415612dd157809150612de3565b80612ddb81613ba6565b915050612d81565b5081548110612e5a5760405162461bcd60e51b815260206004820152603760248201527f45524337323153696d706c65456e756d657261626c653a20746f6b656e49642060448201527f6e6f7420666f756e6420696e206f776e6572206c697374000000000000000000606482015260840161086b565b805b8254612e6a90600190613b28565b811015612f055782612e7d826001613a8e565b81548110612e8d57612e8d613c59565b90600052602060002090601091828204019190066002029054906101000a900461ffff16838281548110612ec357612ec3613c59565b90600052602060002090601091828204019190066002026101000a81548161ffff021916908361ffff1602179055508080612efd90613ba6565b915050612e5c565b5081805480612f1657612f16613c43565b600082815260209020601060001990920191820401805461ffff6002600f8516026101000a0219169055905550505050565b6000805b6001840154811015612fb3578260ff16846001018281548110612f7157612f71613c59565b60009182526020918290209181049091015460ff601f9092166101000a9004161415612fa157600191505061075e565b80612fab81613ba6565b915050612f4c565b5060009392505050565b612fc7838361303b565b612fd46000848484612308565b6109bd5760405162461bcd60e51b815260206004820152603260248201527f4552433732313a207472616e7366657220746f206e6f6e20455243373231526560448201527131b2b4bb32b91034b6b83632b6b2b73a32b960711b606482015260840161086b565b6001600160a01b0382166130915760405162461bcd60e51b815260206004820181905260248201527f4552433732313a206d696e7420746f20746865207a65726f2061646472657373604482015260640161086b565b6000818152600460205260409020546001600160a01b0316156130f65760405162461bcd60e51b815260206004820152601c60248201527f4552433732313a20746f6b656e20616c7265616479206d696e74656400000000604482015260640161086b565b61310260008383611fcb565b6001600160a01b038216600090815260056020526040812080546001929061312b908490613a8e565b909155505060008181526004602052604080822080546001600160a01b0319166001600160a01b03861690811790915590518392907fddf252ad1be2c89b69c2b068fc378daa952ba7f163c4a11628f55a4df523b3ef908290a45050565b82805461319590613b6b565b90600052602060002090601f0160209004810192826131b757600085556131fd565b82601f106131d05782800160ff198235161785556131fd565b828001600101855582156131fd579182015b828111156131fd5782358255916020019190600101906131e2565b50613209929150613281565b5090565b82805461321990613b6b565b90600052602060002090601f01602090048101928261323b57600085556131fd565b82601f1061325457805160ff19168380011785556131fd565b828001600101855582156131fd579182015b828111156131fd578251825591602001919060010190613266565b5b808211156132095760008155600101613282565b600067ffffffffffffffff8311156132b0576132b0613c6f565b6132c3601f8401601f1916602001613a5d565b90508281528383830111156132d757600080fd5b828260208301376000602084830101529392505050565b600082601f8301126132ff57600080fd5b8135602067ffffffffffffffff8083111561331c5761331c613c6f565b8260051b61332b838201613a5d565b8481528381019087850183890186018a101561334657600080fd5b60009350835b8781101561338357813586811115613362578586fd5b6133708c89838e0101613392565b855250928601929086019060010161334c565b50909998505050505050505050565b600082601f8301126133a357600080fd5b61137a83833560208501613296565b803560ff811681146110a057600080fd5b6000602082840312156133d557600080fd5b813561137a81613c85565b600080604083850312156133f357600080fd5b82356133fe81613c85565b9150602083013561340e81613c85565b809150509250929050565b60008060006060848603121561342e57600080fd5b833561343981613c85565b9250602084013561344981613c85565b929592945050506040919091013590565b6000806000806080858703121561347057600080fd5b843561347b81613c85565b9350602085013561348b81613c85565b925060408501359150606085013567ffffffffffffffff8111156134ae57600080fd5b8501601f810187136134bf57600080fd5b6134ce87823560208401613296565b91505092959194509250565b600080604083850312156134ed57600080fd5b82356134f881613c85565b91506020830135801515811461340e57600080fd5b6000806040838503121561352057600080fd5b823561352b81613c85565b946020939093013593505050565b6000806040838503121561354c57600080fd5b823567ffffffffffffffff8082111561356457600080fd5b613570868387016132ee565b9350602085013591508082111561358657600080fd5b50613593858286016132ee565b9150509250929050565b6000602082840312156135af57600080fd5b813561137a81613c9a565b6000602082840312156135cc57600080fd5b815161137a81613c9a565b600080602083850312156135ea57600080fd5b823567ffffffffffffffff8082111561360257600080fd5b818501915085601f83011261361657600080fd5b81358181111561362557600080fd5b86602082850101111561363757600080fd5b60209290920196919550909350505050565b600080600080600060a0868803121561366157600080fd5b853567ffffffffffffffff81111561367857600080fd5b61368488828901613392565b955050613693602087016133b2565b93506136a1604087016133b2565b92506136af606087016133b2565b915060808601356136bf81613c85565b809150509295509295909350565b6000602082840312156136df57600080fd5b5035919050565b600080604083850312156136f957600080fd5b82359150602083013561ffff8116811461340e57600080fd5b60006020828403121561372457600080fd5b61137a826133b2565b6000806040838503121561374057600080fd5b6133fe836133b2565b60008151808452613761816020860160208601613b3f565b601f01601f19169290920160200192915050565b8054600090600181811c908083168061378f57607f831692505b60208084108214156137b157634e487b7160e01b600052602260045260246000fd5b8180156137c557600181146137d657613802565b60ff19861689528489019650613802565b876000528160002060005b868110156137fa5781548b8201529085019083016137e1565b505084890196505b50505050505092915050565b600061381a8285613775565b7f20000000000000000000000000000000000000000000000000000000000000008152610d566001820185613775565b60006138568285613775565b8351613866818360208801613b3f565b01949350505050565b7f2f6d657461646174610000000000000000000000000000000000000000000000815260007f2f000000000000000000000000000000000000000000000000000000000000008060098401526138c8600a840189613775565b81815287516138de816001840160208c01613b3f565b016001810182905286516138f9816002840160208b01613b3f565b01600281018290528551613914816003840160208a01613b3f565b016003810191909152835190613931826004830160208801613b3f565b01600401979650505050505050565b60006001600160a01b03808716835280861660208401525083604083015260806060830152610d536080830184613749565b6020808252825182820181905260009190848201906040850190845b818110156139ae57835161ffff168352928401929184019160010161398e565b50909695505050505050565b6020808252825182820181905260009190848201906040850190845b818110156139ae578351835292840192918401916001016139d6565b60208152600061137a6020830184613749565b60a081526000613a1860a0830188613749565b60ff871660208401528281036040840152613a338187613749565b90508281036060840152613a478186613749565b91505060ff831660808301529695505050505050565b604051601f8201601f1916810167ffffffffffffffff81118282101715613a8657613a86613c6f565b604052919050565b60008219821115613aa157613aa1613c17565b500190565b600060ff821660ff84168060ff03821115613ac357613ac3613c17565b019392505050565b600082613ada57613ada613c2d565b500490565b600061ffff80831681851681830481118215151615613b0057613b00613c17565b02949350505050565b6000816000190483118215151615613b2357613b23613c17565b500290565b600082821015613b3a57613b3a613c17565b500390565b60005b83811015613b5a578181015183820152602001613b42565b838111156111f05750506000910152565b600181811c90821680613b7f57607f821691505b60208210811415613ba057634e487b7160e01b600052602260045260246000fd5b50919050565b6000600019821415613bba57613bba613c17565b5060010190565b600060ff821660ff811415613bd857613bd8613c17565b60010192915050565b600082613bf057613bf0613c2d565b500690565b600060ff831680613c0857613c08613c2d565b8060ff84160691505092915050565b634e487b7160e01b600052601160045260246000fd5b634e487b7160e01b600052601260045260246000fd5b634e487b7160e01b600052603160045260246000fd5b634e487b7160e01b600052603260045260246000fd5b634e487b7160e01b600052604160045260246000fd5b6001600160a01b038116811461157557600080fd5b6001600160e01b03198116811461157557600080fdfea26469706673582212204fc263a32154e57e652d7e306b8e116fa67243f280792a8895fcc864d176c97a64736f6c63430008060033",
  "linkReferences": {},
  "deployedLinkReferences": {}
}