{
  "_format": "hh-sol-artifact-1",
  "contractName": "TabletopDiceNFT",
  "sourceName": "contracts/Dice.sol",
  "abi": [
    {
      "inputs": [
        {
          "internalType": "string[]",
          "name": "adjectives",
          "type": "string[]"
        },
        {
          "internalType": "string[]",
          "name": "nouns",
          "type": "string[]"
        }
      ],
      "stateMutability": "nonpayable",
      "type": "constructor"
    },
    {
      "anonymous": false,
      "inputs": [
        {
          "indexed": true,
          "internalType": "address",
          "name": "owner",
          "type": "address"
        },
        {
          "indexed": true,
          "internalType": "address",
          "name": "approved",
          "type": "address"
        },
        {
          "indexed": true,
          "internalType": "uint256",
          "name": "tokenId",
          "type": "uint256"
        }
      ],
      "name": "Approval",
      "type": "event"
    },
    {
      "anonymous": false,
      "inputs": [
        {
          "indexed": true,
          "internalType": "address",
          "name": "owner",
          "type": "address"
        },
        {
          "indexed": true,
          "internalType": "address",
          "name": "operator",
          "type": "address"
        },
        {
          "indexed": false,
          "internalType": "bool",
          "name": "approved",
          "type": "bool"
        }
      ],
      "name": "ApprovalForAll",
      "type": "event"
    },
    {
      "anonymous": false,
      "inputs": [
        {
          "indexed": true,
          "internalType": "address",
          "name": "previousOwner",
          "type": "address"
        },
        {
          "indexed": true,
          "internalType": "address",
          "name": "newOwner",
          "type": "address"
        }
      ],
      "name": "OwnershipTransferred",
      "type": "event"
    },
    {
      "anonymous": false,
      "inputs": [
        {
          "indexed": true,
          "internalType": "address",
          "name": "from",
          "type": "address"
        },
        {
          "indexed": true,
          "internalType": "address",
          "name": "to",
          "type": "address"
        },
        {
          "indexed": true,
          "internalType": "uint256",
          "name": "tokenId",
          "type": "uint256"
        }
      ],
      "name": "Transfer",
      "type": "event"
    },
    {
      "inputs": [
        {
          "internalType": "string[]",
          "name": "adjectives",
          "type": "string[]"
        }
      ],
      "name": "addAdjectives",
      "outputs": [],
      "stateMutability": "nonpayable",
      "type": "function"
    },
    {
      "inputs": [
        {
          "internalType": "string[]",
          "name": "nouns",
          "type": "string[]"
        }
      ],
      "name": "addNouns",
      "outputs": [],
      "stateMutability": "nonpayable",
      "type": "function"
    },
    {
      "inputs": [
        {
          "internalType": "address",
          "name": "to",
          "type": "address"
        },
        {
          "internalType": "uint256",
          "name": "tokenId",
          "type": "uint256"
        }
      ],
      "name": "approve",
      "outputs": [],
      "stateMutability": "nonpayable",
      "type": "function"
    },
    {
      "inputs": [
        {
          "internalType": "address",
          "name": "owner",
          "type": "address"
        }
      ],
      "name": "balanceOf",
      "outputs": [
        {
          "internalType": "uint256",
          "name": "",
          "type": "uint256"
        }
      ],
      "stateMutability": "view",
      "type": "function"
    },
    {
      "inputs": [],
      "name": "buyRandomDice",
      "outputs": [
        {
          "internalType": "uint256",
          "name": "count",
          "type": "uint256"
        }
      ],
      "stateMutability": "payable",
      "type": "function"
    },
    {
      "inputs": [
        {
          "internalType": "uint256",
          "name": "tokenId",
          "type": "uint256"
        }
      ],
      "name": "getApproved",
      "outputs": [
        {
          "internalType": "address",
          "name": "",
          "type": "address"
        }
      ],
      "stateMutability": "view",
      "type": "function"
    },
    {
      "inputs": [
        {
          "internalType": "uint8",
          "name": "styleId",
          "type": "uint8"
        }
      ],
      "name": "getColorTheme",
      "outputs": [
        {
          "internalType": "string",
          "name": "foreground",
          "type": "string"
        },
        {
          "internalType": "string",
          "name": "background",
          "type": "string"
        }
      ],
      "stateMutability": "pure",
      "type": "function"
    },
    {
      "inputs": [
        {
          "internalType": "uint8",
          "name": "number",
          "type": "uint8"
        }
      ],
      "name": "getMintingCost",
      "outputs": [
        {
          "internalType": "uint256",
          "name": "cost",
          "type": "uint256"
        }
      ],
      "stateMutability": "view",
      "type": "function"
    },
    {
      "inputs": [],
      "name": "getOwnedTokenIds",
      "outputs": [
        {
          "internalType": "uint256[]",
          "name": "",
          "type": "uint256[]"
        }
      ],
      "stateMutability": "view",
      "type": "function"
    },
    {
      "inputs": [
        {
          "internalType": "uint256",
          "name": "tokenId",
          "type": "uint256"
        }
      ],
      "name": "getOwnerOf",
      "outputs": [
        {
          "internalType": "address",
          "name": "",
          "type": "address"
        }
      ],
      "stateMutability": "view",
      "type": "function"
    },
    {
      "inputs": [
        {
          "internalType": "uint256",
          "name": "tokenId",
          "type": "uint256"
        }
      ],
      "name": "getTraits",
      "outputs": [
        {
          "internalType": "string",
          "name": "name",
          "type": "string"
        },
        {
          "internalType": "uint8",
          "name": "sides",
          "type": "uint8"
        },
        {
          "internalType": "string",
          "name": "fgColor",
          "type": "string"
        },
        {
          "internalType": "string",
          "name": "bgColor",
          "type": "string"
        },
        {
          "internalType": "uint8",
          "name": "font",
          "type": "uint8"
        }
      ],
      "stateMutability": "view",
      "type": "function"
    },
    {
      "inputs": [
        {
          "internalType": "address",
          "name": "owner",
          "type": "address"
        },
        {
          "internalType": "address",
          "name": "operator",
          "type": "address"
        }
      ],
      "name": "isApprovedForAll",
      "outputs": [
        {
          "internalType": "bool",
          "name": "",
          "type": "bool"
        }
      ],
      "stateMutability": "view",
      "type": "function"
    },
    {
      "inputs": [
        {
          "internalType": "string",
          "name": "name",
          "type": "string"
        },
        {
          "internalType": "uint8",
          "name": "sides",
          "type": "uint8"
        },
        {
          "internalType": "uint8",
          "name": "styleId",
          "type": "uint8"
        },
        {
          "internalType": "uint8",
          "name": "font",
          "type": "uint8"
        },
        {
          "internalType": "address",
          "name": "reciever",
          "type": "address"
        }
      ],
      "name": "mintDie",
      "outputs": [
        {
          "internalType": "uint256",
          "name": "tokenId",
          "type": "uint256"
        }
      ],
      "stateMutability": "nonpayable",
      "type": "function"
    },
    {
      "inputs": [
        {
          "internalType": "address",
          "name": "reciever",
          "type": "address"
        }
      ],
      "name": "mintRandomDie",
      "outputs": [
        {
          "internalType": "uint256",
          "name": "tokenId",
          "type": "uint256"
        }
      ],
      "stateMutability": "nonpayable",
      "type": "function"
    },
    {
      "inputs": [],
      "name": "name",
      "outputs": [
        {
          "internalType": "string",
          "name": "",
          "type": "string"
        }
      ],
      "stateMutability": "view",
      "type": "function"
    },
    {
      "inputs": [],
      "name": "owner",
      "outputs": [
        {
          "internalType": "address",
          "name": "",
          "type": "address"
        }
      ],
      "stateMutability": "view",
      "type": "function"
    },
    {
      "inputs": [
        {
          "internalType": "uint256",
          "name": "tokenId",
          "type": "uint256"
        }
      ],
      "name": "ownerOf",
      "outputs": [
        {
          "internalType": "address",
          "name": "",
          "type": "address"
        }
      ],
      "stateMutability": "view",
      "type": "function"
    },
    {
      "inputs": [],
      "name": "renounceOwnership",
      "outputs": [],
      "stateMutability": "nonpayable",
      "type": "function"
    },
    {
      "inputs": [
        {
          "internalType": "uint256",
          "name": "tokenId",
          "type": "uint256"
        },
        {
          "internalType": "uint16",
          "name": "nonce",
          "type": "uint16"
        }
      ],
      "name": "roll",
      "outputs": [
        {
          "internalType": "uint8",
          "name": "",
          "type": "uint8"
        }
      ],
      "stateMutability": "view",
      "type": "function"
    },
    {
      "inputs": [
        {
          "internalType": "address",
          "name": "from",
          "type": "address"
        },
        {
          "internalType": "address",
          "name": "to",
          "type": "address"
        },
        {
          "internalType": "uint256",
          "name": "tokenId",
          "type": "uint256"
        }
      ],
      "name": "safeTransferFrom",
      "outputs": [],
      "stateMutability": "nonpayable",
      "type": "function"
    },
    {
      "inputs": [
        {
          "internalType": "address",
          "name": "from",
          "type": "address"
        },
        {
          "internalType": "address",
          "name": "to",
          "type": "address"
        },
        {
          "internalType": "uint256",
          "name": "tokenId",
          "type": "uint256"
        },
        {
          "internalType": "bytes",
          "name": "_data",
          "type": "bytes"
        }
      ],
      "name": "safeTransferFrom",
      "outputs": [],
      "stateMutability": "nonpayable",
      "type": "function"
    },
    {
      "inputs": [
        {
          "internalType": "address",
          "name": "operator",
          "type": "address"
        },
        {
          "internalType": "bool",
          "name": "approved",
          "type": "bool"
        }
      ],
      "name": "setApprovalForAll",
      "outputs": [],
      "stateMutability": "nonpayable",
      "type": "function"
    },
    {
      "inputs": [
        {
          "internalType": "string",
          "name": "baseURI",
          "type": "string"
        }
      ],
      "name": "setBaseURI",
      "outputs": [],
      "stateMutability": "nonpayable",
      "type": "function"
    },
    {
      "inputs": [
        {
          "internalType": "bytes4",
          "name": "interfaceId",
          "type": "bytes4"
        }
      ],
      "name": "supportsInterface",
      "outputs": [
        {
          "internalType": "bool",
          "name": "",
          "type": "bool"
        }
      ],
      "stateMutability": "view",
      "type": "function"
    },
    {
      "inputs": [],
      "name": "symbol",
      "outputs": [
        {
          "internalType": "string",
          "name": "",
          "type": "string"
        }
      ],
      "stateMutability": "view",
      "type": "function"
    },
    {
      "inputs": [
        {
          "internalType": "address",
          "name": "owner",
          "type": "address"
        }
      ],
      "name": "tokenListOfOwner",
      "outputs": [
        {
          "internalType": "uint16[]",
          "name": "",
          "type": "uint16[]"
        }
      ],
      "stateMutability": "view",
      "type": "function"
    },
    {
      "inputs": [
        {
          "internalType": "address",
          "name": "owner",
          "type": "address"
        },
        {
          "internalType": "uint256",
          "name": "index",
          "type": "uint256"
        }
      ],
      "name": "tokenOfOwnerByIndex",
      "outputs": [
        {
          "internalType": "uint16",
          "name": "",
          "type": "uint16"
        }
      ],
      "stateMutability": "view",
      "type": "function"
    },
    {
      "inputs": [
        {
          "internalType": "uint256",
          "name": "tokenId",
          "type": "uint256"
        }
      ],
      "name": "tokenURI",
      "outputs": [
        {
          "internalType": "string",
          "name": "",
          "type": "string"
        }
      ],
      "stateMutability": "view",
      "type": "function"
    },
    {
      "inputs": [],
      "name": "tokensBurnt",
      "outputs": [
        {
          "internalType": "uint256",
          "name": "",
          "type": "uint256"
        }
      ],
      "stateMutability": "view",
      "type": "function"
    },
    {
      "inputs": [],
      "name": "tokensMinted",
      "outputs": [
        {
          "internalType": "uint256",
          "name": "",
          "type": "uint256"
        }
      ],
      "stateMutability": "view",
      "type": "function"
    },
    {
      "inputs": [],
      "name": "totalSupply",
      "outputs": [
        {
          "internalType": "uint256",
          "name": "",
          "type": "uint256"
        }
      ],
      "stateMutability": "view",
      "type": "function"
    },
    {
      "inputs": [
        {
          "internalType": "address",
          "name": "from",
          "type": "address"
        },
        {
          "internalType": "address",
          "name": "to",
          "type": "address"
        },
        {
          "internalType": "uint256",
          "name": "tokenId",
          "type": "uint256"
        }
      ],
      "name": "transferFrom",
      "outputs": [],
      "stateMutability": "nonpayable",
      "type": "function"
    },
    {
      "inputs": [
        {
          "internalType": "address",
          "name": "newOwner",
          "type": "address"
        }
      ],
      "name": "transferOwnership",
      "outputs": [],
      "stateMutability": "nonpayable",
      "type": "function"
    },
    {
      "inputs": [
        {
          "internalType": "uint256",
          "name": "newCost",
          "type": "uint256"
        }
      ],
      "name": "updateMintingCost",
      "outputs": [],
      "stateMutability": "nonpayable",
      "type": "function"
    }
  ],
  "bytecode": "0x60806040526040518060400160405280600381526020017f302e32000000000000000000000000000000000000000000000000000000000081525060019080519060200190620000519291906200055c565b503480156200005f57600080fd5b50604051620069f6380380620069f6833981810160405281019062000085919062000759565b6001604051602001620000999190620008b7565b6040516020818303038152906040526040518060400160405280600881526020017f506f6c7944696365000000000000000000000000000000000000000000000000815250620000fe620000f2620001f960201b60201c565b6200020160201b60201c565b8160029080519060200190620001169291906200055c565b5080600390805190602001906200012f9291906200055c565b5050506040518060400160405280601a81526020017f68747470733a2f2f646963652e7061727461766174652e636f6d000000000000815250601390805190602001906200017f9291906200055c565b5033600c60006101000a81548173ffffffffffffffffffffffffffffffffffffffff021916908373ffffffffffffffffffffffffffffffffffffffff160217905550620001d282620002c560201b60201c565b620001e381620003b360201b60201c565b66038d7ea4c68000600b81905550505062000bf0565b600033905090565b60008060009054906101000a900473ffffffffffffffffffffffffffffffffffffffff169050816000806101000a81548173ffffffffffffffffffffffffffffffffffffffff021916908373ffffffffffffffffffffffffffffffffffffffff1602179055508173ffffffffffffffffffffffffffffffffffffffff168173ffffffffffffffffffffffffffffffffffffffff167f8be0079c531659141344cd1fd0a4f28419497f9722a3daafe3b4186f6b6457e060405160405180910390a35050565b620002d5620001f960201b60201c565b73ffffffffffffffffffffffffffffffffffffffff16620002fb620004a160201b60201c565b73ffffffffffffffffffffffffffffffffffffffff161462000354576040517f08c379a00000000000000000000000000000000000000000000000000000000081526004016200034b90620008dd565b60405180910390fd5b60005b8151811015620003af57620003998282815181106200037b576200037a62000b16565b5b6020026020010151600f620004ca60201b62001a501790919060201c565b8080620003a69062000a6a565b91505062000357565b5050565b620003c3620001f960201b60201c565b73ffffffffffffffffffffffffffffffffffffffff16620003e9620004a160201b60201c565b73ffffffffffffffffffffffffffffffffffffffff161462000442576040517f08c379a00000000000000000000000000000000000000000000000000000000081526004016200043990620008dd565b60405180910390fd5b60005b81518110156200049d576200048782828151811062000469576200046862000b16565b5b6020026020010151600f620004eb60201b62001a6a1790919060201c565b8080620004949062000a6a565b91505062000445565b5050565b60008060009054906101000a900473ffffffffffffffffffffffffffffffffffffffff16905090565b620004e781836000016200050c60201b62001a841790919060201c565b5050565b6200050881836002016200050c60201b62001a841790919060201c565b5050565b808260000160008460010154815260200190815260200160002090805190602001906200053b9291906200055c565b50816001016000815480929190620005539062000a6a565b91905055505050565b8280546200056a90620009fe565b90600052602060002090601f0160209004810192826200058e5760008555620005da565b82601f10620005a957805160ff1916838001178555620005da565b82800160010185558215620005da579182015b82811115620005d9578251825591602001919060010190620005bc565b5b509050620005e99190620005ed565b5090565b5b8082111562000608576000816000905550600101620005ee565b5090565b6000620006236200061d8462000928565b620008ff565b9050808382526020820190508285602086028201111562000649576200064862000b79565b5b60005b858110156200069e57815167ffffffffffffffff81111562000673576200067262000b74565b5b80860162000682898262000726565b855260208501945060208401935050506001810190506200064c565b5050509392505050565b6000620006bf620006b98462000957565b620008ff565b905082815260208101848484011115620006de57620006dd62000b7e565b5b620006eb848285620009c8565b509392505050565b600082601f8301126200070b576200070a62000b74565b5b81516200071d8482602086016200060c565b91505092915050565b600082601f8301126200073e576200073d62000b74565b5b815162000750848260208601620006a8565b91505092915050565b6000806040838503121562000773576200077262000b88565b5b600083015167ffffffffffffffff81111562000794576200079362000b83565b5b620007a285828601620006f3565b925050602083015167ffffffffffffffff811115620007c657620007c562000b83565b5b620007d485828601620006f3565b9150509250929050565b60008154620007ed81620009fe565b620007f98186620009b3565b94506001821660008114620008175760018114620008295762000860565b60ff1983168652818601935062000860565b62000834856200098d565b60005b83811015620008585781548189015260018201915060208101905062000837565b838801955050505b50505092915050565b600062000878600f83620009b3565b9150620008858262000b9e565b600f82019050919050565b60006200089f602083620009a2565b9150620008ac8262000bc7565b602082019050919050565b6000620008c48262000869565b9150620008d28284620007de565b915081905092915050565b60006020820190508181036000830152620008f88162000890565b9050919050565b60006200090b6200091e565b905062000919828262000a34565b919050565b6000604051905090565b600067ffffffffffffffff82111562000946576200094562000b45565b5b602082029050602081019050919050565b600067ffffffffffffffff82111562000975576200097462000b45565b5b620009808262000b8d565b9050602081019050919050565b60008190508160005260206000209050919050565b600082825260208201905092915050565b600081905092915050565b6000819050919050565b60005b83811015620009e8578082015181840152602081019050620009cb565b83811115620009f8576000848401525b50505050565b6000600282049050600182168062000a1757607f821691505b6020821081141562000a2e5762000a2d62000ae7565b5b50919050565b62000a3f8262000b8d565b810181811067ffffffffffffffff8211171562000a615762000a6062000b45565b5b80604052505050565b600062000a7782620009be565b91507fffffffffffffffffffffffffffffffffffffffffffffffffffffffffffffffff82141562000aad5762000aac62000ab8565b5b600182019050919050565b7f4e487b7100000000000000000000000000000000000000000000000000000000600052601160045260246000fd5b7f4e487b7100000000000000000000000000000000000000000000000000000000600052602260045260246000fd5b7f4e487b7100000000000000000000000000000000000000000000000000000000600052603260045260246000fd5b7f4e487b7100000000000000000000000000000000000000000000000000000000600052604160045260246000fd5b600080fd5b600080fd5b600080fd5b600080fd5b600080fd5b6000601f19601f8301169050919050565b7f506f6c7944696365206441707020760000000000000000000000000000000000600082015250565b7f4f776e61626c653a2063616c6c6572206973206e6f7420746865206f776e6572600082015250565b615df68062000c006000396000f3fe6080604052600436106101f95760003560e01c8063715018a61161010d578063b0d8b51f116100a0578063c87b56dd1161006f578063c87b56dd14610785578063e1dc0761146107c2578063e985e9c514610803578063f2fde38b14610840578063ff7afe8714610869576101f9565b8063b0d8b51f146106c9578063b88d4fde146106f4578063be7e50a81461071d578063c6ead8af1461075a576101f9565b80638da5cb5b116100dc5780638da5cb5b1461060d57806395d89b4114610638578063a22cb46514610663578063af6f8e7d1461068c576101f9565b8063715018a614610553578063836387101461056a57806386ce316b146105a75780638d13a70a146105e4576101f9565b8063360dd460116101905780636352211e1161015f5780636352211e14610448578063645b770d146104855780636618196c146104ae5780636de9f32b146104eb57806370a0823114610516576101f9565b8063360dd4601461039b5780633d71e80b146103d857806342842e0e146103f657806355f804b31461041f576101f9565b806318160ddd116101cc57806318160ddd146102cc57806323b872dd146102f75780632f745c591461032057806334c9d34e1461035d576101f9565b806301ffc9a7146101fe57806306fdde031461023b578063081812fc14610266578063095ea7b3146102a3575b600080fd5b34801561020a57600080fd5b50610225600480360381019061022091906141ea565b610892565b6040516102329190614bd0565b60405180910390f35b34801561024757600080fd5b50610250610974565b60405161025d9190614beb565b60405180910390f35b34801561027257600080fd5b5061028d60048036038101906102889190614328565b610a06565b60405161029a9190614b25565b60405180910390f35b3480156102af57600080fd5b506102ca60048036038101906102c59190614161565b610a8b565b005b3480156102d857600080fd5b506102e1610ba3565b6040516102ee9190614fe7565b60405180910390f35b34801561030357600080fd5b5061031e6004803603810190610319919061404b565b610bba565b005b34801561032c57600080fd5b5061034760048036038101906103429190614161565b610c1a565b6040516103549190614fcc565b60405180910390f35b34801561036957600080fd5b50610384600480360381019061037f9190614395565b610ce3565b604051610392929190614c0d565b60405180910390f35b3480156103a757600080fd5b506103c260048036038101906103bd9190614291565b610cf8565b6040516103cf9190614fe7565b60405180910390f35b6103e0610d8e565b6040516103ed9190614fe7565b60405180910390f35b34801561040257600080fd5b5061041d6004803603810190610418919061404b565b610eff565b005b34801561042b57600080fd5b5061044660048036038101906104419190614244565b610f1f565b005b34801561045457600080fd5b5061046f600480360381019061046a9190614328565b610fb1565b60405161047c9190614b25565b60405180910390f35b34801561049157600080fd5b506104ac60048036038101906104a79190614328565b611063565b005b3480156104ba57600080fd5b506104d560048036038101906104d09190613fde565b6110e9565b6040516104e29190614b8c565b60405180910390f35b3480156104f757600080fd5b506105006111a8565b60405161050d9190614fe7565b60405180910390f35b34801561052257600080fd5b5061053d60048036038101906105389190613fde565b6111ae565b60405161054a9190614fe7565b60405180910390f35b34801561055f57600080fd5b50610568611266565b005b34801561057657600080fd5b50610591600480360381019061058c9190614328565b6112ee565b60405161059e9190614b25565b60405180910390f35b3480156105b357600080fd5b506105ce60048036038101906105c99190613fde565b611300565b6040516105db9190614fe7565b60405180910390f35b3480156105f057600080fd5b5061060b600480360381019061060691906141a1565b61138e565b005b34801561061957600080fd5b5061062261145b565b60405161062f9190614b25565b60405180910390f35b34801561064457600080fd5b5061064d611484565b60405161065a9190614beb565b60405180910390f35b34801561066f57600080fd5b5061068a60048036038101906106859190614121565b611516565b005b34801561069857600080fd5b506106b360048036038101906106ae9190614355565b61152c565b6040516106c0919061508c565b60405180910390f35b3480156106d557600080fd5b506106de61154c565b6040516106eb9190614bae565b60405180910390f35b34801561070057600080fd5b5061071b6004803603810190610716919061409e565b6115fc565b005b34801561072957600080fd5b50610744600480360381019061073f9190614395565b61165e565b6040516107519190614fe7565b60405180910390f35b34801561076657600080fd5b5061076f611734565b60405161077c9190614fe7565b60405180910390f35b34801561079157600080fd5b506107ac60048036038101906107a79190614328565b61173a565b6040516107b99190614beb565b60405180910390f35b3480156107ce57600080fd5b506107e960048036038101906107e49190614328565b6117c7565b6040516107fa959493929190614c44565b60405180910390f35b34801561080f57600080fd5b5061082a6004803603810190610825919061400b565b6117f7565b6040516108379190614bd0565b60405180910390f35b34801561084c57600080fd5b5061086760048036038101906108629190613fde565b61188b565b005b34801561087557600080fd5b50610890600480360381019061088b91906141a1565b611983565b005b60007f80ac58cd000000000000000000000000000000000000000000000000000000007bffffffffffffffffffffffffffffffffffffffffffffffffffffffff1916827bffffffffffffffffffffffffffffffffffffffffffffffffffffffff1916148061095d57507f5b5e139f000000000000000000000000000000000000000000000000000000007bffffffffffffffffffffffffffffffffffffffffffffffffffffffff1916827bffffffffffffffffffffffffffffffffffffffffffffffffffffffff1916145b8061096d575061096c82611ad0565b5b9050919050565b6060600280546109839061544c565b80601f01602080910402602001604051908101604052809291908181526020018280546109af9061544c565b80156109fc5780601f106109d1576101008083540402835291602001916109fc565b820191906000526020600020905b8154815290600101906020018083116109df57829003601f168201915b5050505050905090565b6000610a1182611b3a565b610a50576040517f08c379a0000000000000000000000000000000000000000000000000000000008152600401610a4790614e8c565b60405180910390fd5b6006600083815260200190815260200160002060009054906101000a900473ffffffffffffffffffffffffffffffffffffffff169050919050565b6000610a9682610fb1565b90508073ffffffffffffffffffffffffffffffffffffffff168373ffffffffffffffffffffffffffffffffffffffff161415610b07576040517f08c379a0000000000000000000000000000000000000000000000000000000008152600401610afe90614f4c565b60405180910390fd5b8073ffffffffffffffffffffffffffffffffffffffff16610b26611ba6565b73ffffffffffffffffffffffffffffffffffffffff161480610b555750610b5481610b4f611ba6565b6117f7565b5b610b94576040517f08c379a0000000000000000000000000000000000000000000000000000000008152600401610b8b90614e0c565b60405180910390fd5b610b9e8383611bae565b505050565b6000600a54600954610bb59190615347565b905090565b610bcb610bc5611ba6565b82611c67565b610c0a576040517f08c379a0000000000000000000000000000000000000000000000000000000008152600401610c0190614f6c565b60405180910390fd5b610c15838383611d45565b505050565b6000610c25836111ae565b8210610c66576040517f08c379a0000000000000000000000000000000000000000000000000000000008152600401610c5d90614f2c565b60405180910390fd5b600860008473ffffffffffffffffffffffffffffffffffffffff1673ffffffffffffffffffffffffffffffffffffffff1681526020019081526020016000208281548110610cb757610cb6615616565b5b90600052602060002090601091828204019190066002029054906101000a900461ffff16905092915050565b606080610cef83611fac565b91509150915091565b6000610d02611ba6565b73ffffffffffffffffffffffffffffffffffffffff16610d2061145b565b73ffffffffffffffffffffffffffffffffffffffff1614610d76576040517f08c379a0000000000000000000000000000000000000000000000000000000008152600401610d6d90614ecc565b60405180910390fd5b610d83868686868661281f565b905095945050505050565b6000610d9a600161165e565b341015610ddc576040517f08c379a0000000000000000000000000000000000000000000000000000000008152600401610dd390614f8c565b60405180910390fd5b60016003610dea919061522f565b600b5434610df891906152bc565b610e0291906154f8565b905060005b81811015610e2c57610e1833612866565b508080610e24906154af565b915050610e07565b506000600c60009054906101000a900473ffffffffffffffffffffffffffffffffffffffff1673ffffffffffffffffffffffffffffffffffffffff1634604051610e7590614b10565b60006040518083038185875af1925050503d8060008114610eb2576040519150601f19603f3d011682016040523d82523d6000602084013e610eb7565b606091505b5050905080610efb576040517f08c379a0000000000000000000000000000000000000000000000000000000008152600401610ef290614dcc565b60405180910390fd5b5090565b610f1a838383604051806020016040528060008152506115fc565b505050565b610f27611ba6565b73ffffffffffffffffffffffffffffffffffffffff16610f4561145b565b73ffffffffffffffffffffffffffffffffffffffff1614610f9b576040517f08c379a0000000000000000000000000000000000000000000000000000000008152600401610f9290614ecc565b60405180910390fd5b818160139190610fac929190613c30565b505050565b6000806004600084815260200190815260200160002060009054906101000a900473ffffffffffffffffffffffffffffffffffffffff169050600073ffffffffffffffffffffffffffffffffffffffff168173ffffffffffffffffffffffffffffffffffffffff16141561105a576040517f08c379a000000000000000000000000000000000000000000000000000000000815260040161105190614e4c565b60405180910390fd5b80915050919050565b61106b611ba6565b73ffffffffffffffffffffffffffffffffffffffff1661108961145b565b73ffffffffffffffffffffffffffffffffffffffff16146110df576040517f08c379a00000000000000000000000000000000000000000000000000000000081526004016110d690614ecc565b60405180910390fd5b80600b8190555050565b6060600860008373ffffffffffffffffffffffffffffffffffffffff1673ffffffffffffffffffffffffffffffffffffffff16815260200190815260200160002080548060200260200160405190810160405280929190818152602001828054801561119c57602002820191906000526020600020906000905b82829054906101000a900461ffff1661ffff16815260200190600201906020826001010492830192600103820291508084116111635790505b50505050509050919050565b60095481565b60008073ffffffffffffffffffffffffffffffffffffffff168273ffffffffffffffffffffffffffffffffffffffff16141561121f576040517f08c379a000000000000000000000000000000000000000000000000000000000815260040161121690614e2c565b60405180910390fd5b600560008373ffffffffffffffffffffffffffffffffffffffff1673ffffffffffffffffffffffffffffffffffffffff168152602001908152602001600020549050919050565b61126e611ba6565b73ffffffffffffffffffffffffffffffffffffffff1661128c61145b565b73ffffffffffffffffffffffffffffffffffffffff16146112e2576040517f08c379a00000000000000000000000000000000000000000000000000000000081526004016112d990614ecc565b60405180910390fd5b6112ec60006128e9565b565b60006112f982610fb1565b9050919050565b600061130a611ba6565b73ffffffffffffffffffffffffffffffffffffffff1661132861145b565b73ffffffffffffffffffffffffffffffffffffffff161461137e576040517f08c379a000000000000000000000000000000000000000000000000000000000815260040161137590614ecc565b60405180910390fd5b61138782612866565b9050919050565b611396611ba6565b73ffffffffffffffffffffffffffffffffffffffff166113b461145b565b73ffffffffffffffffffffffffffffffffffffffff161461140a576040517f08c379a000000000000000000000000000000000000000000000000000000000815260040161140190614ecc565b60405180910390fd5b60005b81518110156114575761144482828151811061142c5761142b615616565b5b6020026020010151600f611a6a90919063ffffffff16565b808061144f906154af565b91505061140d565b5050565b60008060009054906101000a900473ffffffffffffffffffffffffffffffffffffffff16905090565b6060600380546114939061544c565b80601f01602080910402602001604051908101604052809291908181526020018280546114bf9061544c565b801561150c5780601f106114e15761010080835404028352916020019161150c565b820191906000526020600020905b8154815290600101906020018083116114ef57829003601f168201915b5050505050905090565b611528611521611ba6565b83836129ad565b5050565b60006115448383600e612b1a9092919063ffffffff16565b905092915050565b60606000611559336111ae565b905060008167ffffffffffffffff81111561157757611576615645565b5b6040519080825280602002602001820160405280156115a55781602001602082028036833780820191505090505b50905060005b828110156115f3576115bd3382610c1a565b61ffff168282815181106115d4576115d3615616565b5b60200260200101818152505080806115eb906154af565b9150506115ab565b50809250505090565b61160d611607611ba6565b83611c67565b61164c576040517f08c379a000000000000000000000000000000000000000000000000000000000815260040161164390614f6c565b60405180910390fd5b61165884848484612bb3565b50505050565b600060018260ff1610156116a7576040517f08c379a000000000000000000000000000000000000000000000000000000000815260040161169e90614eac565b60405180910390fd5b60038260ff1611156116ee576040517f08c379a00000000000000000000000000000000000000000000000000000000081526004016116e590614fac565b60405180910390fd5b6000905060005b8260ff1681101561172e5780600b5461170e91906152bc565b82611719919061522f565b91508080611726906154af565b9150506116f5565b50919050565b600a5481565b606061174582611b3a565b611784576040517f08c379a000000000000000000000000000000000000000000000000000000000815260040161177b90614eec565b60405180910390fd5b61178c612c0f565b6117a083600e612ca190919063ffffffff16565b6040516020016117b1929190614a30565b6040516020818303038152906040529050919050565b6060600060608060006117e486600e612d8190919063ffffffff16565b9450945094509450945091939590929450565b6000600760008473ffffffffffffffffffffffffffffffffffffffff1673ffffffffffffffffffffffffffffffffffffffff16815260200190815260200160002060008373ffffffffffffffffffffffffffffffffffffffff1673ffffffffffffffffffffffffffffffffffffffff16815260200190815260200160002060009054906101000a900460ff16905092915050565b611893611ba6565b73ffffffffffffffffffffffffffffffffffffffff166118b161145b565b73ffffffffffffffffffffffffffffffffffffffff1614611907576040517f08c379a00000000000000000000000000000000000000000000000000000000081526004016118fe90614ecc565b60405180910390fd5b600073ffffffffffffffffffffffffffffffffffffffff168173ffffffffffffffffffffffffffffffffffffffff161415611977576040517f08c379a000000000000000000000000000000000000000000000000000000000815260040161196e90614d0c565b60405180910390fd5b611980816128e9565b50565b61198b611ba6565b73ffffffffffffffffffffffffffffffffffffffff166119a961145b565b73ffffffffffffffffffffffffffffffffffffffff16146119ff576040517f08c379a00000000000000000000000000000000000000000000000000000000081526004016119f690614ecc565b60405180910390fd5b60005b8151811015611a4c57611a39828281518110611a2157611a20615616565b5b6020026020010151600f611a5090919063ffffffff16565b8080611a44906154af565b915050611a02565b5050565b611a668183600001611a8490919063ffffffff16565b5050565b611a808183600201611a8490919063ffffffff16565b5050565b80826000016000846001015481526020019081526020016000209080519060200190611ab1929190613cb6565b50816001016000815480929190611ac7906154af565b91905055505050565b60007f01ffc9a7000000000000000000000000000000000000000000000000000000007bffffffffffffffffffffffffffffffffffffffffffffffffffffffff1916827bffffffffffffffffffffffffffffffffffffffffffffffffffffffff1916149050919050565b60008073ffffffffffffffffffffffffffffffffffffffff166004600084815260200190815260200160002060009054906101000a900473ffffffffffffffffffffffffffffffffffffffff1673ffffffffffffffffffffffffffffffffffffffff1614159050919050565b600033905090565b816006600083815260200190815260200160002060006101000a81548173ffffffffffffffffffffffffffffffffffffffff021916908373ffffffffffffffffffffffffffffffffffffffff160217905550808273ffffffffffffffffffffffffffffffffffffffff16611c2183610fb1565b73ffffffffffffffffffffffffffffffffffffffff167f8c5be1e5ebec7d5bd14f71427d1e84f3dd0314c0f7b2291e5b200ac8c7c3b92560405160405180910390a45050565b6000611c7282611b3a565b611cb1576040517f08c379a0000000000000000000000000000000000000000000000000000000008152600401611ca890614dec565b60405180910390fd5b6000611cbc83610fb1565b90508073ffffffffffffffffffffffffffffffffffffffff168473ffffffffffffffffffffffffffffffffffffffff161480611d2b57508373ffffffffffffffffffffffffffffffffffffffff16611d1384610a06565b73ffffffffffffffffffffffffffffffffffffffff16145b80611d3c5750611d3b81856117f7565b5b91505092915050565b8273ffffffffffffffffffffffffffffffffffffffff16611d6582610fb1565b73ffffffffffffffffffffffffffffffffffffffff1614611dbb576040517f08c379a0000000000000000000000000000000000000000000000000000000008152600401611db290614d2c565b60405180910390fd5b600073ffffffffffffffffffffffffffffffffffffffff168273ffffffffffffffffffffffffffffffffffffffff161415611e2b576040517f08c379a0000000000000000000000000000000000000000000000000000000008152600401611e2290614d8c565b60405180910390fd5b611e36838383612ec7565b611e41600082611bae565b6001600560008573ffffffffffffffffffffffffffffffffffffffff1673ffffffffffffffffffffffffffffffffffffffff1681526020019081526020016000206000828254611e919190615347565b925050819055506001600560008473ffffffffffffffffffffffffffffffffffffffff1673ffffffffffffffffffffffffffffffffffffffff1681526020019081526020016000206000828254611ee8919061522f565b92505081905550816004600083815260200190815260200160002060006101000a81548173ffffffffffffffffffffffffffffffffffffffff021916908373ffffffffffffffffffffffffffffffffffffffff160217905550808273ffffffffffffffffffffffffffffffffffffffff168473ffffffffffffffffffffffffffffffffffffffff167fddf252ad1be2c89b69c2b068fc378daa952ba7f163c4a11628f55a4df523b3ef60405160405180910390a4611fa7838383612fbf565b505050565b606080601e8360ff161115611ff6576040517f08c379a0000000000000000000000000000000000000000000000000000000008152600401611fed90614d6c565b60405180910390fd5b60008360ff161015801561200e575060038360ff1611155b15612050576040518060400160405280600681526020017f3030313334650000000000000000000000000000000000000000000000000000815250905061248d565b60048360ff1610158015612068575060078360ff1611155b156120aa576040518060400160405280600681526020017f3161316131610000000000000000000000000000000000000000000000000000815250905061248c565b60088360ff16101580156120c25750600a8360ff1611155b15612104576040518060400160405280600681526020017f6666666666660000000000000000000000000000000000000000000000000000815250905061248b565b600b8360ff161015801561211c5750600d8360ff1611155b1561215e576040518060400160405280600681526020017f3535353735330000000000000000000000000000000000000000000000000000815250905061248a565b600e8360ff1610158015612176575060108360ff1611155b156121b8576040518060400160405280600681526020017f38623130643000000000000000000000000000000000000000000000000000008152509050612489565b60118360ff16101580156121d0575060138360ff1611155b15612212576040518060400160405280600681526020017f65636463313900000000000000000000000000000000000000000000000000008152509050612488565b60148360ff161480612227575060158360ff16145b15612269576040518060400160405280600681526020017f34303866646400000000000000000000000000000000000000000000000000008152509050612487565b60168360ff16148061227e575060178360ff16145b156122c0576040518060400160405280600681526020017f33313761323600000000000000000000000000000000000000000000000000008152509050612486565b60188360ff1614806122d5575060198360ff16145b15612317576040518060400160405280600681526020017f66323164306100000000000000000000000000000000000000000000000000008152509050612485565b601a8360ff161415612360576040518060400160405280600681526020017f38386666343400000000000000000000000000000000000000000000000000008152509050612484565b601b8360ff1614156123a9576040518060400160405280600681526020017f64303963313000000000000000000000000000000000000000000000000000008152509050612483565b601c8360ff1614156123f2576040518060400160405280600681526020017f65663534646100000000000000000000000000000000000000000000000000008152509050612482565b601d8360ff16141561243b576040518060400160405280600681526020017f34653030303000000000000000000000000000000000000000000000000000008152509050612481565b601e8360ff161415612480576040518060400160405280600681526020017f303030306666000000000000000000000000000000000000000000000000000081525090505b5b5b5b5b5b5b5b5b5b5b5b5b5b60008360ff1614806124a2575060048360ff16145b806124b0575060088360ff16145b806124be575060118360ff16145b806124cc5750601a8360ff16145b1561250e576040518060400160405280600681526020017f3030303066660000000000000000000000000000000000000000000000000000815250915061281a565b60018360ff161480612523575060058360ff16145b15612565576040518060400160405280600681526020017f30306666303000000000000000000000000000000000000000000000000000008152509150612819565b60028360ff16148061257a575060068360ff16145b806125885750600a8360ff16145b80612596575060138360ff16145b806125a45750601c8360ff16145b156125e6576040518060400160405280600681526020017f66663030303000000000000000000000000000000000000000000000000000008152509150612818565b60038360ff1614806125fb575060078360ff16145b806126095750600d8360ff16145b80612617575060108360ff16145b80612625575060158360ff16145b80612633575060178360ff16145b80612641575060198360ff16145b8061264f5750601d8360ff16145b8061265d5750601e8360ff16145b1561269f576040518060400160405280600681526020017f66666666666600000000000000000000000000000000000000000000000000008152509150612817565b60098360ff1614806126b45750600b8360ff16145b806126c25750600e8360ff16145b806126d0575060128360ff16145b806126de575060148360ff16145b806126ec5750601b8360ff16145b1561272e576040518060400160405280600681526020017f30303030303000000000000000000000000000000000000000000000000000008152509150612816565b600c8360ff161480612743575060168360ff16145b15612785576040518060400160405280600681526020017f38386666383800000000000000000000000000000000000000000000000000008152509150612815565b600f8360ff1614156127ce576040518060400160405280600681526020017f36366363363600000000000000000000000000000000000000000000000000008152509150612814565b60188360ff161415612813576040518060400160405280600681526020017f383830303030000000000000000000000000000000000000000000000000000081525091505b5b5b5b5b5b5b5b915091565b600061282b600d612fc4565b90506128498187878787600e612fd29095949392919063ffffffff16565b61285382826130e2565b61285d600d613100565b95945050505050565b600080612873600d612fc4565b9050600061288b82600f61311690919063ffffffff16565b9050600061289883613154565b905060006128b38260ff16856128ae91906152ed565b6131b3565b905060006128ce8260ff16866128c991906152ed565b6131e8565b90506128dd848484848b61281f565b95505050505050919050565b60008060009054906101000a900473ffffffffffffffffffffffffffffffffffffffff169050816000806101000a81548173ffffffffffffffffffffffffffffffffffffffff021916908373ffffffffffffffffffffffffffffffffffffffff1602179055508173ffffffffffffffffffffffffffffffffffffffff168173ffffffffffffffffffffffffffffffffffffffff167f8be0079c531659141344cd1fd0a4f28419497f9722a3daafe3b4186f6b6457e060405160405180910390a35050565b8173ffffffffffffffffffffffffffffffffffffffff168373ffffffffffffffffffffffffffffffffffffffff161415612a1c576040517f08c379a0000000000000000000000000000000000000000000000000000000008152600401612a1390614dac565b60405180910390fd5b80600760008573ffffffffffffffffffffffffffffffffffffffff1673ffffffffffffffffffffffffffffffffffffffff16815260200190815260200160002060008473ffffffffffffffffffffffffffffffffffffffff1673ffffffffffffffffffffffffffffffffffffffff16815260200190815260200160002060006101000a81548160ff0219169083151502179055508173ffffffffffffffffffffffffffffffffffffffff168373ffffffffffffffffffffffffffffffffffffffff167f17307eab39ab6107e8899845ad3d59bd9653f200f220920489ca2b5937696c3183604051612b0d9190614bd0565b60405180910390a3505050565b600080600a85600001600086815260200190815260200160002060010160009054906101000a900460ff1660ff1614612b54576001612b57565b60005b905060008160ff1686600001600087815260200190815260200160002060010160009054906101000a900460ff1660ff16612b918661321d565b612b9b91906154f8565b612ba5919061522f565b905080925050509392505050565b612bbe848484611d45565b612bca84848484613256565b612c09576040517f08c379a0000000000000000000000000000000000000000000000000000000008152600401612c0090614cec565b60405180910390fd5b50505050565b606060138054612c1e9061544c565b80601f0160208091040260200160405190810160405280929190818152602001828054612c4a9061544c565b8015612c975780601f10612c6c57610100808354040283529160200191612c97565b820191906000526020600020905b815481529060010190602001808311612c7a57829003601f168201915b5050505050905090565b6060600080612cd485600001600086815260200190815260200160002060010160019054906101000a900460ff16611fac565b91509150846000016000858152602001908152602001600020600001612d2186600001600087815260200190815260200160002060010160009054906101000a900460ff1660ff166133ed565b8383612d548960000160008a815260200190815260200160002060010160029054906101000a900460ff1660ff166133ed565b604051602001612d68959493929190614a83565b6040516020818303038152906040529250505092915050565b606060006060806000806000612dbb8960000160008a815260200190815260200160002060010160019054906101000a900460ff16611fac565b915091508860000160008981526020019081526020016000206000018960000160008a815260200190815260200160002060010160009054906101000a900460ff1683838c60000160008d815260200190815260200160002060010160029054906101000a900460ff16848054612e319061544c565b80601f0160208091040260200160405190810160405280929190818152602001828054612e5d9061544c565b8015612eaa5780601f10612e7f57610100808354040283529160200191612eaa565b820191906000526020600020905b815481529060010190602001808311612e8d57829003601f168201915b505050505094509650965096509650965050509295509295909350565b612ed283838361354e565b8273ffffffffffffffffffffffffffffffffffffffff168273ffffffffffffffffffffffffffffffffffffffff1614612fba57612f0f8282613553565b600073ffffffffffffffffffffffffffffffffffffffff168373ffffffffffffffffffffffffffffffffffffffff1614612f5257612f4d83826135de565b612f6b565b60096000815480929190612f65906154af565b91905055505b600073ffffffffffffffffffffffffffffffffffffffff168273ffffffffffffffffffffffffffffffffffffffff161415612fb957600a6000815480929190612fb3906154af565b91905055505b5b505050565b505050565b600081600001549050919050565b60008360ff1611613018576040517f08c379a000000000000000000000000000000000000000000000000000000000815260040161300f90614cac565b60405180910390fd5b60405180608001604052808581526020018460ff1681526020018360ff1681526020018260ff168152508660000160008781526020019081526020016000206000820151816000019080519060200190613073929190613cb6565b5060208201518160010160006101000a81548160ff021916908360ff16021790555060408201518160010160016101000a81548160ff021916908360ff16021790555060608201518160010160026101000a81548160ff021916908360ff160217905550905050505050505050565b6130fc8282604051806020016040528060008152506137dd565b5050565b6001816000016000828254019250508190555050565b60606131228383613838565b61312c84846138e1565b60405160200161313d929190614a54565b604051602081830303815290604052905092915050565b6000806040518060400160405280600660ff168152602001601460ff168152509050600060026131838561321d565b61318d9190615529565b9050818160ff16600281106131a5576131a4615616565b5b602002015192505050919050565b600080601e905060006001826131c99190615285565b6131d28561321d565b6131dc9190615529565b90508092505050919050565b6000806001905060006001826131fe9190615285565b6132078561321d565b6132119190615529565b90508092505050919050565b6000444233846040516020016132369493929190615002565b6040516020818303038152906040528051906020012060001c9050919050565b60006132778473ffffffffffffffffffffffffffffffffffffffff1661398a565b156133e0578373ffffffffffffffffffffffffffffffffffffffff1663150b7a026132a0611ba6565b8786866040518563ffffffff1660e01b81526004016132c29493929190614b40565b602060405180830381600087803b1580156132dc57600080fd5b505af192505050801561330d57506040513d601f19601f8201168201806040525081019061330a9190614217565b60015b613390573d806000811461333d576040519150601f19603f3d011682016040523d82523d6000602084013e613342565b606091505b50600081511415613388576040517f08c379a000000000000000000000000000000000000000000000000000000000815260040161337f90614cec565b60405180910390fd5b805181602001fd5b63150b7a0260e01b7bffffffffffffffffffffffffffffffffffffffffffffffffffffffff1916817bffffffffffffffffffffffffffffffffffffffffffffffffffffffff1916149150506133e5565b600190505b949350505050565b60606000821415613435576040518060400160405280600181526020017f30000000000000000000000000000000000000000000000000000000000000008152509050613549565b600082905060005b60008214613467578080613450906154af565b915050600a8261346091906152bc565b915061343d565b60008167ffffffffffffffff81111561348357613482615645565b5b6040519080825280601f01601f1916602001820160405280156134b55781602001600182028036833780820191505090505b5090505b60008514613542576001826134ce9190615347565b9150600a856134dd91906154f8565b60306134e9919061522f565b60f81b8183815181106134ff576134fe615616565b5b60200101907effffffffffffffffffffffffffffffffffffffffffffffffffffffffffffff1916908160001a905350600a8561353b91906152bc565b94506134b9565b8093505050505b919050565b505050565b600860008373ffffffffffffffffffffffffffffffffffffffff1673ffffffffffffffffffffffffffffffffffffffff1681526020019081526020016000208190806001815401808255809150506001900390600052602060002090601091828204019190066002029091909190916101000a81548161ffff021916908361ffff1602179055505050565b6000600860008473ffffffffffffffffffffffffffffffffffffffff1673ffffffffffffffffffffffffffffffffffffffff168152602001908152602001600020905060008180549050905060005b828054905081101561369a578361ffff1683828154811061365157613650615616565b5b90600052602060002090601091828204019190066002029054906101000a900461ffff1661ffff1614156136875780915061369a565b8080613692906154af565b91505061362d565b50818054905081106136e1576040517f08c379a00000000000000000000000000000000000000000000000000000000081526004016136d890614ccc565b60405180910390fd5b60008190505b600183805490506136f89190615347565b811015613797578260018261370d919061522f565b8154811061371e5761371d615616565b5b90600052602060002090601091828204019190066002029054906101000a900461ffff1683828154811061375557613754615616565b5b90600052602060002090601091828204019190066002026101000a81548161ffff021916908361ffff160217905550808061378f906154af565b9150506136e7565b50818054806137a9576137a86155e7565b5b60019003818190600052602060002090601091828204019190066002026101000a81549061ffff0219169055905550505050565b6137e783836139ad565b6137f46000848484613256565b613833576040517f08c379a000000000000000000000000000000000000000000000000000000000815260040161382a90614cec565b60405180910390fd5b505050565b60606138508284600001613b8790919063ffffffff16565b805461385b9061544c565b80601f01602080910402602001604051908101604052809291908181526020018280546138879061544c565b80156138d45780601f106138a9576101008083540402835291602001916138d4565b820191906000526020600020905b8154815290600101906020018083116138b757829003601f168201915b5050505050905092915050565b60606138f98284600201613b8790919063ffffffff16565b80546139049061544c565b80601f01602080910402602001604051908101604052809291908181526020018280546139309061544c565b801561397d5780601f106139525761010080835404028352916020019161397d565b820191906000526020600020905b81548152906001019060200180831161396057829003601f168201915b5050505050905092915050565b6000808273ffffffffffffffffffffffffffffffffffffffff163b119050919050565b600073ffffffffffffffffffffffffffffffffffffffff168273ffffffffffffffffffffffffffffffffffffffff161415613a1d576040517f08c379a0000000000000000000000000000000000000000000000000000000008152600401613a1490614e6c565b60405180910390fd5b613a2681611b3a565b15613a66576040517f08c379a0000000000000000000000000000000000000000000000000000000008152600401613a5d90614d4c565b60405180910390fd5b613a7260008383612ec7565b6001600560008473ffffffffffffffffffffffffffffffffffffffff1673ffffffffffffffffffffffffffffffffffffffff1681526020019081526020016000206000828254613ac2919061522f565b92505081905550816004600083815260200190815260200160002060006101000a81548173ffffffffffffffffffffffffffffffffffffffff021916908373ffffffffffffffffffffffffffffffffffffffff160217905550808273ffffffffffffffffffffffffffffffffffffffff16600073ffffffffffffffffffffffffffffffffffffffff167fddf252ad1be2c89b69c2b068fc378daa952ba7f163c4a11628f55a4df523b3ef60405160405180910390a4613b8360008383612fbf565b5050565b600080836001015411613bcf576040517f08c379a0000000000000000000000000000000000000000000000000000000008152600401613bc690614f0c565b60405180910390fd5b6000836001015444423386604051602001613bed9493929190615047565b6040516020818303038152906040528051906020012060001c613c1091906154f8565b905083600001600082815260200190815260200160002091505092915050565b828054613c3c9061544c565b90600052602060002090601f016020900481019282613c5e5760008555613ca5565b82601f10613c7757803560ff1916838001178555613ca5565b82800160010185558215613ca5579182015b82811115613ca4578235825591602001919060010190613c89565b5b509050613cb29190613d3c565b5090565b828054613cc29061544c565b90600052602060002090601f016020900481019282613ce45760008555613d2b565b82601f10613cfd57805160ff1916838001178555613d2b565b82800160010185558215613d2b579182015b82811115613d2a578251825591602001919060010190613d0f565b5b509050613d389190613d3c565b5090565b5b80821115613d55576000816000905550600101613d3d565b5090565b6000613d6c613d67846150cc565b6150a7565b90508083825260208201905082856020860282011115613d8f57613d8e61567e565b5b60005b85811015613ddd57813567ffffffffffffffff811115613db557613db4615679565b5b808601613dc28982613f71565b85526020850194506020840193505050600181019050613d92565b5050509392505050565b6000613dfa613df5846150f8565b6150a7565b905082815260208101848484011115613e1657613e15615683565b5b613e2184828561540a565b509392505050565b6000613e3c613e3784615129565b6150a7565b905082815260208101848484011115613e5857613e57615683565b5b613e6384828561540a565b509392505050565b600081359050613e7a81615d36565b92915050565b600082601f830112613e9557613e94615679565b5b8135613ea5848260208601613d59565b91505092915050565b600081359050613ebd81615d4d565b92915050565b600081359050613ed281615d64565b92915050565b600081519050613ee781615d64565b92915050565b600082601f830112613f0257613f01615679565b5b8135613f12848260208601613de7565b91505092915050565b60008083601f840112613f3157613f30615679565b5b8235905067ffffffffffffffff811115613f4e57613f4d615674565b5b602083019150836001820283011115613f6a57613f6961567e565b5b9250929050565b600082601f830112613f8657613f85615679565b5b8135613f96848260208601613e29565b91505092915050565b600081359050613fae81615d7b565b92915050565b600081359050613fc381615d92565b92915050565b600081359050613fd881615da9565b92915050565b600060208284031215613ff457613ff361568d565b5b600061400284828501613e6b565b91505092915050565b600080604083850312156140225761402161568d565b5b600061403085828601613e6b565b925050602061404185828601613e6b565b9150509250929050565b6000806000606084860312156140645761406361568d565b5b600061407286828701613e6b565b935050602061408386828701613e6b565b925050604061409486828701613fb4565b9150509250925092565b600080600080608085870312156140b8576140b761568d565b5b60006140c687828801613e6b565b94505060206140d787828801613e6b565b93505060406140e887828801613fb4565b925050606085013567ffffffffffffffff81111561410957614108615688565b5b61411587828801613eed565b91505092959194509250565b600080604083850312156141385761413761568d565b5b600061414685828601613e6b565b925050602061415785828601613eae565b9150509250929050565b600080604083850312156141785761417761568d565b5b600061418685828601613e6b565b925050602061419785828601613fb4565b9150509250929050565b6000602082840312156141b7576141b661568d565b5b600082013567ffffffffffffffff8111156141d5576141d4615688565b5b6141e184828501613e80565b91505092915050565b600060208284031215614200576141ff61568d565b5b600061420e84828501613ec3565b91505092915050565b60006020828403121561422d5761422c61568d565b5b600061423b84828501613ed8565b91505092915050565b6000806020838503121561425b5761425a61568d565b5b600083013567ffffffffffffffff81111561427957614278615688565b5b61428585828601613f1b565b92509250509250929050565b600080600080600060a086880312156142ad576142ac61568d565b5b600086013567ffffffffffffffff8111156142cb576142ca615688565b5b6142d788828901613f71565b95505060206142e888828901613fc9565b94505060406142f988828901613fc9565b935050606061430a88828901613fc9565b925050608061431b88828901613e6b565b9150509295509295909350565b60006020828403121561433e5761433d61568d565b5b600061434c84828501613fb4565b91505092915050565b6000806040838503121561436c5761436b61568d565b5b600061437a85828601613fb4565b925050602061438b85828601613f9f565b9150509250929050565b6000602082840312156143ab576143aa61568d565b5b60006143b984828501613fc9565b91505092915050565b60006143ce83836149e5565b60208301905092915050565b60006143e68383614a03565b60208301905092915050565b6143fb8161537b565b82525050565b600061440c8261518f565b61441681856151d5565b93506144218361515a565b8060005b8381101561445257815161443988826143c2565b9750614444836151bb565b925050600181019050614425565b5085935050505092915050565b600061446a8261519a565b61447481856151e6565b935061447f8361516a565b8060005b838110156144b057815161449788826143da565b97506144a2836151c8565b925050600181019050614483565b5085935050505092915050565b6144c68161538d565b82525050565b60006144d7826151a5565b6144e181856151f7565b93506144f1818560208601615419565b6144fa81615692565b840191505092915050565b6000614510826151b0565b61451a8185615213565b935061452a818560208601615419565b61453381615692565b840191505092915050565b6000614549826151b0565b6145538185615224565b9350614563818560208601615419565b80840191505092915050565b6000815461457c8161544c565b6145868186615224565b945060018216600081146145a157600181146145b2576145e5565b60ff198316865281860193506145e5565b6145bb8561517a565b60005b838110156145dd578154818901526001820191506020810190506145be565b838801955050505b50505092915050565b60006145fb601683615213565b9150614606826156a3565b602082019050919050565b600061461e603783615213565b9150614629826156cc565b604082019050919050565b6000614641603283615213565b915061464c8261571b565b604082019050919050565b6000614664602683615213565b915061466f8261576a565b604082019050919050565b6000614687602583615213565b9150614692826157b9565b604082019050919050565b60006146aa601c83615213565b91506146b582615808565b602082019050919050565b60006146cd601283615213565b91506146d882615831565b602082019050919050565b60006146f0600983615224565b91506146fb8261585a565b600982019050919050565b6000614713602483615213565b915061471e82615883565b604082019050919050565b6000614736601983615213565b9150614741826158d2565b602082019050919050565b6000614759601a83615213565b9150614764826158fb565b602082019050919050565b600061477c602c83615213565b915061478782615924565b604082019050919050565b600061479f600183615224565b91506147aa82615973565b600182019050919050565b60006147c2603883615213565b91506147cd8261599c565b604082019050919050565b60006147e5602a83615213565b91506147f0826159eb565b604082019050919050565b6000614808602983615213565b915061481382615a3a565b604082019050919050565b600061482b602083615213565b915061483682615a89565b602082019050919050565b600061484e602c83615213565b915061485982615ab2565b604082019050919050565b6000614871601083615213565b915061487c82615b01565b602082019050919050565b6000614894602083615213565b915061489f82615b2a565b602082019050919050565b60006148b7602f83615213565b91506148c282615b53565b604082019050919050565b60006148da600883615213565b91506148e582615ba2565b602082019050919050565b60006148fd603183615213565b915061490882615bcb565b604082019050919050565b6000614920602183615213565b915061492b82615c1a565b604082019050919050565b6000614943600083615208565b915061494e82615c69565b600082019050919050565b6000614966603183615213565b915061497182615c6c565b604082019050919050565b6000614989600f83615213565b915061499482615cbb565b602082019050919050565b60006149ac600e83615213565b91506149b782615ce4565b602082019050919050565b60006149cf600183615224565b91506149da82615d0d565b600182019050919050565b6149ee816153c5565b82525050565b6149fd816153c5565b82525050565b614a0c816153f3565b82525050565b614a1b816153f3565b82525050565b614a2a816153fd565b82525050565b6000614a3c828561453e565b9150614a48828461453e565b91508190509392505050565b6000614a60828561453e565b9150614a6b82614792565b9150614a77828461453e565b91508190509392505050565b6000614a8e826146e3565b9150614a99826149c2565b9150614aa5828861456f565b9150614ab0826149c2565b9150614abc828761453e565b9150614ac7826149c2565b9150614ad3828661453e565b9150614ade826149c2565b9150614aea828561453e565b9150614af5826149c2565b9150614b01828461453e565b91508190509695505050505050565b6000614b1b82614936565b9150819050919050565b6000602082019050614b3a60008301846143f2565b92915050565b6000608082019050614b5560008301876143f2565b614b6260208301866143f2565b614b6f6040830185614a12565b8181036060830152614b8181846144cc565b905095945050505050565b60006020820190508181036000830152614ba68184614401565b905092915050565b60006020820190508181036000830152614bc8818461445f565b905092915050565b6000602082019050614be560008301846144bd565b92915050565b60006020820190508181036000830152614c058184614505565b905092915050565b60006040820190508181036000830152614c278185614505565b90508181036020830152614c3b8184614505565b90509392505050565b600060a0820190508181036000830152614c5e8188614505565b9050614c6d6020830187614a21565b8181036040830152614c7f8186614505565b90508181036060830152614c938185614505565b9050614ca26080830184614a21565b9695505050505050565b60006020820190508181036000830152614cc5816145ee565b9050919050565b60006020820190508181036000830152614ce581614611565b9050919050565b60006020820190508181036000830152614d0581614634565b9050919050565b60006020820190508181036000830152614d2581614657565b9050919050565b60006020820190508181036000830152614d458161467a565b9050919050565b60006020820190508181036000830152614d658161469d565b9050919050565b60006020820190508181036000830152614d85816146c0565b9050919050565b60006020820190508181036000830152614da581614706565b9050919050565b60006020820190508181036000830152614dc581614729565b9050919050565b60006020820190508181036000830152614de58161474c565b9050919050565b60006020820190508181036000830152614e058161476f565b9050919050565b60006020820190508181036000830152614e25816147b5565b9050919050565b60006020820190508181036000830152614e45816147d8565b9050919050565b60006020820190508181036000830152614e65816147fb565b9050919050565b60006020820190508181036000830152614e858161481e565b9050919050565b60006020820190508181036000830152614ea581614841565b9050919050565b60006020820190508181036000830152614ec581614864565b9050919050565b60006020820190508181036000830152614ee581614887565b9050919050565b60006020820190508181036000830152614f05816148aa565b9050919050565b60006020820190508181036000830152614f25816148cd565b9050919050565b60006020820190508181036000830152614f45816148f0565b9050919050565b60006020820190508181036000830152614f6581614913565b9050919050565b60006020820190508181036000830152614f8581614959565b9050919050565b60006020820190508181036000830152614fa58161497c565b9050919050565b60006020820190508181036000830152614fc58161499f565b9050919050565b6000602082019050614fe160008301846149f4565b92915050565b6000602082019050614ffc6000830184614a12565b92915050565b60006080820190506150176000830187614a12565b6150246020830186614a12565b61503160408301856143f2565b61503e60608301846149f4565b95945050505050565b600060808201905061505c6000830187614a12565b6150696020830186614a12565b61507660408301856143f2565b6150836060830184614a12565b95945050505050565b60006020820190506150a16000830184614a21565b92915050565b60006150b16150c2565b90506150bd828261547e565b919050565b6000604051905090565b600067ffffffffffffffff8211156150e7576150e6615645565b5b602082029050602081019050919050565b600067ffffffffffffffff82111561511357615112615645565b5b61511c82615692565b9050602081019050919050565b600067ffffffffffffffff82111561514457615143615645565b5b61514d82615692565b9050602081019050919050565b6000819050602082019050919050565b6000819050602082019050919050565b60008190508160005260206000209050919050565b600081519050919050565b600081519050919050565b600081519050919050565b600081519050919050565b6000602082019050919050565b6000602082019050919050565b600082825260208201905092915050565b600082825260208201905092915050565b600082825260208201905092915050565b600081905092915050565b600082825260208201905092915050565b600081905092915050565b600061523a826153f3565b9150615245836153f3565b9250827fffffffffffffffffffffffffffffffffffffffffffffffffffffffffffffffff0382111561527a5761527961555a565b5b828201905092915050565b6000615290826153fd565b915061529b836153fd565b92508260ff038211156152b1576152b061555a565b5b828201905092915050565b60006152c7826153f3565b91506152d2836153f3565b9250826152e2576152e1615589565b5b828204905092915050565b60006152f8826153f3565b9150615303836153f3565b9250817fffffffffffffffffffffffffffffffffffffffffffffffffffffffffffffffff048311821515161561533c5761533b61555a565b5b828202905092915050565b6000615352826153f3565b915061535d836153f3565b9250828210156153705761536f61555a565b5b828203905092915050565b6000615386826153d3565b9050919050565b60008115159050919050565b60007fffffffff0000000000000000000000000000000000000000000000000000000082169050919050565b600061ffff82169050919050565b600073ffffffffffffffffffffffffffffffffffffffff82169050919050565b6000819050919050565b600060ff82169050919050565b82818337600083830152505050565b60005b8381101561543757808201518184015260208101905061541c565b83811115615446576000848401525b50505050565b6000600282049050600182168061546457607f821691505b60208210811415615478576154776155b8565b5b50919050565b61548782615692565b810181811067ffffffffffffffff821117156154a6576154a5615645565b5b80604052505050565b60006154ba826153f3565b91507fffffffffffffffffffffffffffffffffffffffffffffffffffffffffffffffff8214156154ed576154ec61555a565b5b600182019050919050565b6000615503826153f3565b915061550e836153f3565b92508261551e5761551d615589565b5b828206905092915050565b6000615534826153fd565b915061553f836153fd565b92508261554f5761554e615589565b5b828206905092915050565b7f4e487b7100000000000000000000000000000000000000000000000000000000600052601160045260246000fd5b7f4e487b7100000000000000000000000000000000000000000000000000000000600052601260045260246000fd5b7f4e487b7100000000000000000000000000000000000000000000000000000000600052602260045260246000fd5b7f4e487b7100000000000000000000000000000000000000000000000000000000600052603160045260246000fd5b7f4e487b7100000000000000000000000000000000000000000000000000000000600052603260045260246000fd5b7f4e487b7100000000000000000000000000000000000000000000000000000000600052604160045260246000fd5b600080fd5b600080fd5b600080fd5b600080fd5b600080fd5b600080fd5b6000601f19601f8301169050919050565b7f5369646573206d757374206265206e6f6e2d7a65726f00000000000000000000600082015250565b7f45524337323153696d706c65456e756d657261626c653a20746f6b656e49642060008201527f6e6f7420666f756e6420696e206f776e6572206c697374000000000000000000602082015250565b7f4552433732313a207472616e7366657220746f206e6f6e20455243373231526560008201527f63656976657220696d706c656d656e7465720000000000000000000000000000602082015250565b7f4f776e61626c653a206e6577206f776e657220697320746865207a65726f206160008201527f6464726573730000000000000000000000000000000000000000000000000000602082015250565b7f4552433732313a207472616e736665722066726f6d20696e636f72726563742060008201527f6f776e6572000000000000000000000000000000000000000000000000000000602082015250565b7f4552433732313a20746f6b656e20616c7265616479206d696e74656400000000600082015250565b7f7374796c65206f7574206f662072616e67650000000000000000000000000000600082015250565b7f2f6d657461646174610000000000000000000000000000000000000000000000600082015250565b7f4552433732313a207472616e7366657220746f20746865207a65726f2061646460008201527f7265737300000000000000000000000000000000000000000000000000000000602082015250565b7f4552433732313a20617070726f766520746f2063616c6c657200000000000000600082015250565b7f4661696c656420746f20666f7277617264207061796d656e742e000000000000600082015250565b7f4552433732313a206f70657261746f7220717565727920666f72206e6f6e657860008201527f697374656e7420746f6b656e0000000000000000000000000000000000000000602082015250565b7f2000000000000000000000000000000000000000000000000000000000000000600082015250565b7f4552433732313a20617070726f76652063616c6c6572206973206e6f74206f7760008201527f6e6572206e6f7220617070726f76656420666f7220616c6c0000000000000000602082015250565b7f4552433732313a2062616c616e636520717565727920666f7220746865207a6560008201527f726f206164647265737300000000000000000000000000000000000000000000602082015250565b7f4552433732313a206f776e657220717565727920666f72206e6f6e657869737460008201527f656e7420746f6b656e0000000000000000000000000000000000000000000000602082015250565b7f4552433732313a206d696e7420746f20746865207a65726f2061646472657373600082015250565b7f4552433732313a20617070726f76656420717565727920666f72206e6f6e657860008201527f697374656e7420746f6b656e0000000000000000000000000000000000000000602082015250565b7f4e6f7420656e6f75676820646963652e00000000000000000000000000000000600082015250565b7f4f776e61626c653a2063616c6c6572206973206e6f7420746865206f776e6572600082015250565b7f4552433732314d657461646174613a2055524920717565727920666f72206e6f60008201527f6e6578697374656e7420746f6b656e0000000000000000000000000000000000602082015250565b7f6e6f20776f726473000000000000000000000000000000000000000000000000600082015250565b7f45524337323153696d706c65456e756d657261626c653a206f776e657220696e60008201527f646578206f7574206f6620626f756e6473000000000000000000000000000000602082015250565b7f4552433732313a20617070726f76616c20746f2063757272656e74206f776e6560008201527f7200000000000000000000000000000000000000000000000000000000000000602082015250565b50565b7f4552433732313a207472616e736665722063616c6c6572206973206e6f74206f60008201527f776e6572206e6f7220617070726f766564000000000000000000000000000000602082015250565b7f6e6f7420656e6f75676820636173680000000000000000000000000000000000600082015250565b7f546f6f206d616e7920646963652e000000000000000000000000000000000000600082015250565b7f2f00000000000000000000000000000000000000000000000000000000000000600082015250565b615d3f8161537b565b8114615d4a57600080fd5b50565b615d568161538d565b8114615d6157600080fd5b50565b615d6d81615399565b8114615d7857600080fd5b50565b615d84816153c5565b8114615d8f57600080fd5b50565b615d9b816153f3565b8114615da657600080fd5b50565b615db2816153fd565b8114615dbd57600080fd5b5056fea264697066735822122074ab6abb709d2773f9ee054f56c06a50e1ff1b19cef8d73ee28f606fd0a3e5b664736f6c63430008060033",
  "linkReferences": {},
  "deployedLinkReferences": {}
}