{
  "_format": "hh-sol-artifact-1",
  "contractName": "TabletopDiceNFT",
  "sourceName": "contracts/Dice.sol",
  "abi": [
    {
      "inputs": [
        {
          "internalType": "string[]",
          "name": "adjectives",
          "type": "string[]"
        },
        {
          "internalType": "string[]",
          "name": "nouns",
          "type": "string[]"
        }
      ],
      "stateMutability": "nonpayable",
      "type": "constructor"
    },
    {
      "anonymous": false,
      "inputs": [
        {
          "indexed": true,
          "internalType": "address",
          "name": "owner",
          "type": "address"
        },
        {
          "indexed": true,
          "internalType": "address",
          "name": "approved",
          "type": "address"
        },
        {
          "indexed": true,
          "internalType": "uint256",
          "name": "tokenId",
          "type": "uint256"
        }
      ],
      "name": "Approval",
      "type": "event"
    },
    {
      "anonymous": false,
      "inputs": [
        {
          "indexed": true,
          "internalType": "address",
          "name": "owner",
          "type": "address"
        },
        {
          "indexed": true,
          "internalType": "address",
          "name": "operator",
          "type": "address"
        },
        {
          "indexed": false,
          "internalType": "bool",
          "name": "approved",
          "type": "bool"
        }
      ],
      "name": "ApprovalForAll",
      "type": "event"
    },
    {
      "anonymous": false,
      "inputs": [
        {
          "indexed": true,
          "internalType": "address",
          "name": "previousOwner",
          "type": "address"
        },
        {
          "indexed": true,
          "internalType": "address",
          "name": "newOwner",
          "type": "address"
        }
      ],
      "name": "OwnershipTransferred",
      "type": "event"
    },
    {
      "anonymous": false,
      "inputs": [
        {
          "indexed": true,
          "internalType": "address",
          "name": "from",
          "type": "address"
        },
        {
          "indexed": true,
          "internalType": "address",
          "name": "to",
          "type": "address"
        },
        {
          "indexed": true,
          "internalType": "uint256",
          "name": "tokenId",
          "type": "uint256"
        }
      ],
      "name": "Transfer",
      "type": "event"
    },
    {
      "inputs": [
        {
          "internalType": "uint8",
          "name": "sides",
          "type": "uint8"
        }
      ],
      "name": "addPossibleSides",
      "outputs": [],
      "stateMutability": "nonpayable",
      "type": "function"
    },
    {
      "inputs": [
        {
          "internalType": "string[]",
          "name": "adjectives",
          "type": "string[]"
        },
        {
          "internalType": "string[]",
          "name": "nouns",
          "type": "string[]"
        }
      ],
      "name": "addWords",
      "outputs": [],
      "stateMutability": "nonpayable",
      "type": "function"
    },
    {
      "inputs": [
        {
          "internalType": "address",
          "name": "to",
          "type": "address"
        },
        {
          "internalType": "uint256",
          "name": "tokenId",
          "type": "uint256"
        }
      ],
      "name": "approve",
      "outputs": [],
      "stateMutability": "nonpayable",
      "type": "function"
    },
    {
      "inputs": [
        {
          "internalType": "address",
          "name": "owner",
          "type": "address"
        }
      ],
      "name": "balanceOf",
      "outputs": [
        {
          "internalType": "uint256",
          "name": "",
          "type": "uint256"
        }
      ],
      "stateMutability": "view",
      "type": "function"
    },
    {
      "inputs": [],
      "name": "buyRandomDice",
      "outputs": [
        {
          "internalType": "uint256",
          "name": "count",
          "type": "uint256"
        }
      ],
      "stateMutability": "payable",
      "type": "function"
    },
    {
      "inputs": [
        {
          "internalType": "uint256",
          "name": "tokenId",
          "type": "uint256"
        }
      ],
      "name": "getApproved",
      "outputs": [
        {
          "internalType": "address",
          "name": "",
          "type": "address"
        }
      ],
      "stateMutability": "view",
      "type": "function"
    },
    {
      "inputs": [
        {
          "internalType": "uint8",
          "name": "number",
          "type": "uint8"
        }
      ],
      "name": "getMintingCost",
      "outputs": [
        {
          "internalType": "uint256",
          "name": "cost",
          "type": "uint256"
        }
      ],
      "stateMutability": "view",
      "type": "function"
    },
    {
      "inputs": [],
      "name": "getOwnedTokenIds",
      "outputs": [
        {
          "internalType": "uint256[]",
          "name": "",
          "type": "uint256[]"
        }
      ],
      "stateMutability": "view",
      "type": "function"
    },
    {
      "inputs": [
        {
          "internalType": "uint256",
          "name": "tokenId",
          "type": "uint256"
        },
        {
          "internalType": "uint16",
          "name": "nonce",
          "type": "uint16"
        }
      ],
      "name": "getRoll",
      "outputs": [
        {
          "internalType": "uint8",
          "name": "",
          "type": "uint8"
        }
      ],
      "stateMutability": "view",
      "type": "function"
    },
    {
      "inputs": [
        {
          "internalType": "uint256",
          "name": "tokenId",
          "type": "uint256"
        }
      ],
      "name": "getTraits",
      "outputs": [
        {
          "internalType": "string",
          "name": "name",
          "type": "string"
        },
        {
          "internalType": "uint8",
          "name": "sides",
          "type": "uint8"
        },
        {
          "internalType": "string",
          "name": "fgColor",
          "type": "string"
        },
        {
          "internalType": "string",
          "name": "bgColor",
          "type": "string"
        },
        {
          "internalType": "uint8",
          "name": "font",
          "type": "uint8"
        }
      ],
      "stateMutability": "view",
      "type": "function"
    },
    {
      "inputs": [
        {
          "internalType": "address",
          "name": "owner",
          "type": "address"
        },
        {
          "internalType": "address",
          "name": "operator",
          "type": "address"
        }
      ],
      "name": "isApprovedForAll",
      "outputs": [
        {
          "internalType": "bool",
          "name": "",
          "type": "bool"
        }
      ],
      "stateMutability": "view",
      "type": "function"
    },
    {
      "inputs": [
        {
          "internalType": "string",
          "name": "name",
          "type": "string"
        },
        {
          "internalType": "uint8",
          "name": "sides",
          "type": "uint8"
        },
        {
          "internalType": "uint8",
          "name": "styleId",
          "type": "uint8"
        },
        {
          "internalType": "uint8",
          "name": "font",
          "type": "uint8"
        },
        {
          "internalType": "address",
          "name": "reciever",
          "type": "address"
        }
      ],
      "name": "mintDie",
      "outputs": [
        {
          "internalType": "uint256",
          "name": "tokenId",
          "type": "uint256"
        }
      ],
      "stateMutability": "nonpayable",
      "type": "function"
    },
    {
      "inputs": [
        {
          "internalType": "uint8",
          "name": "count",
          "type": "uint8"
        },
        {
          "internalType": "address",
          "name": "reciever",
          "type": "address"
        }
      ],
      "name": "mintRandomDice",
      "outputs": [],
      "stateMutability": "nonpayable",
      "type": "function"
    },
    {
      "inputs": [
        {
          "internalType": "address",
          "name": "reciever",
          "type": "address"
        }
      ],
      "name": "mintRandomDie",
      "outputs": [
        {
          "internalType": "uint256",
          "name": "tokenId",
          "type": "uint256"
        }
      ],
      "stateMutability": "nonpayable",
      "type": "function"
    },
    {
      "inputs": [],
      "name": "name",
      "outputs": [
        {
          "internalType": "string",
          "name": "",
          "type": "string"
        }
      ],
      "stateMutability": "view",
      "type": "function"
    },
    {
      "inputs": [],
      "name": "owner",
      "outputs": [
        {
          "internalType": "address",
          "name": "",
          "type": "address"
        }
      ],
      "stateMutability": "view",
      "type": "function"
    },
    {
      "inputs": [
        {
          "internalType": "uint256",
          "name": "tokenId",
          "type": "uint256"
        }
      ],
      "name": "ownerOf",
      "outputs": [
        {
          "internalType": "address",
          "name": "",
          "type": "address"
        }
      ],
      "stateMutability": "view",
      "type": "function"
    },
    {
      "inputs": [],
      "name": "renounceOwnership",
      "outputs": [],
      "stateMutability": "nonpayable",
      "type": "function"
    },
    {
      "inputs": [
        {
          "internalType": "address",
          "name": "from",
          "type": "address"
        },
        {
          "internalType": "address",
          "name": "to",
          "type": "address"
        },
        {
          "internalType": "uint256",
          "name": "tokenId",
          "type": "uint256"
        }
      ],
      "name": "safeTransferFrom",
      "outputs": [],
      "stateMutability": "nonpayable",
      "type": "function"
    },
    {
      "inputs": [
        {
          "internalType": "address",
          "name": "from",
          "type": "address"
        },
        {
          "internalType": "address",
          "name": "to",
          "type": "address"
        },
        {
          "internalType": "uint256",
          "name": "tokenId",
          "type": "uint256"
        },
        {
          "internalType": "bytes",
          "name": "_data",
          "type": "bytes"
        }
      ],
      "name": "safeTransferFrom",
      "outputs": [],
      "stateMutability": "nonpayable",
      "type": "function"
    },
    {
      "inputs": [
        {
          "internalType": "address payable",
          "name": "newReciver",
          "type": "address"
        }
      ],
      "name": "setAccountsRecievable",
      "outputs": [],
      "stateMutability": "nonpayable",
      "type": "function"
    },
    {
      "inputs": [
        {
          "internalType": "address",
          "name": "operator",
          "type": "address"
        },
        {
          "internalType": "bool",
          "name": "approved",
          "type": "bool"
        }
      ],
      "name": "setApprovalForAll",
      "outputs": [],
      "stateMutability": "nonpayable",
      "type": "function"
    },
    {
      "inputs": [
        {
          "internalType": "string",
          "name": "baseURI",
          "type": "string"
        }
      ],
      "name": "setBaseURI",
      "outputs": [],
      "stateMutability": "nonpayable",
      "type": "function"
    },
    {
      "inputs": [
        {
          "internalType": "uint256",
          "name": "newCost",
          "type": "uint256"
        }
      ],
      "name": "setDiePrice",
      "outputs": [],
      "stateMutability": "nonpayable",
      "type": "function"
    },
    {
      "inputs": [
        {
          "internalType": "bytes4",
          "name": "interfaceId",
          "type": "bytes4"
        }
      ],
      "name": "supportsInterface",
      "outputs": [
        {
          "internalType": "bool",
          "name": "",
          "type": "bool"
        }
      ],
      "stateMutability": "view",
      "type": "function"
    },
    {
      "inputs": [],
      "name": "symbol",
      "outputs": [
        {
          "internalType": "string",
          "name": "",
          "type": "string"
        }
      ],
      "stateMutability": "view",
      "type": "function"
    },
    {
      "inputs": [
        {
          "internalType": "address",
          "name": "owner",
          "type": "address"
        }
      ],
      "name": "tokenListOfOwner",
      "outputs": [
        {
          "internalType": "uint16[]",
          "name": "",
          "type": "uint16[]"
        }
      ],
      "stateMutability": "view",
      "type": "function"
    },
    {
      "inputs": [
        {
          "internalType": "address",
          "name": "owner",
          "type": "address"
        },
        {
          "internalType": "uint256",
          "name": "index",
          "type": "uint256"
        }
      ],
      "name": "tokenOfOwnerByIndex",
      "outputs": [
        {
          "internalType": "uint16",
          "name": "",
          "type": "uint16"
        }
      ],
      "stateMutability": "view",
      "type": "function"
    },
    {
      "inputs": [
        {
          "internalType": "uint256",
          "name": "tokenId",
          "type": "uint256"
        }
      ],
      "name": "tokenURI",
      "outputs": [
        {
          "internalType": "string",
          "name": "",
          "type": "string"
        }
      ],
      "stateMutability": "view",
      "type": "function"
    },
    {
      "inputs": [],
      "name": "tokensBurnt",
      "outputs": [
        {
          "internalType": "uint256",
          "name": "",
          "type": "uint256"
        }
      ],
      "stateMutability": "view",
      "type": "function"
    },
    {
      "inputs": [],
      "name": "tokensMinted",
      "outputs": [
        {
          "internalType": "uint256",
          "name": "",
          "type": "uint256"
        }
      ],
      "stateMutability": "view",
      "type": "function"
    },
    {
      "inputs": [],
      "name": "totalSupply",
      "outputs": [
        {
          "internalType": "uint256",
          "name": "",
          "type": "uint256"
        }
      ],
      "stateMutability": "view",
      "type": "function"
    },
    {
      "inputs": [
        {
          "internalType": "address",
          "name": "from",
          "type": "address"
        },
        {
          "internalType": "address",
          "name": "to",
          "type": "address"
        },
        {
          "internalType": "uint256",
          "name": "tokenId",
          "type": "uint256"
        }
      ],
      "name": "transferFrom",
      "outputs": [],
      "stateMutability": "nonpayable",
      "type": "function"
    },
    {
      "inputs": [
        {
          "internalType": "address",
          "name": "newOwner",
          "type": "address"
        }
      ],
      "name": "transferOwnership",
      "outputs": [],
      "stateMutability": "nonpayable",
      "type": "function"
    }
  ],
  "bytecode": "0x60c0604052600360808190526218171960e91b60a0908152620000269160019190620003c5565b5066038d7ea4c68000600b553480156200003f57600080fd5b506040516200454d3803806200454d833981016040819052620000629162000594565b6001604051602001620000769190620005fe565b60408051808303601f190181528282019091526008825267506f6c794469636560c01b602083015290620000aa33620001de565b8151620000bf906002906020850190620003c5565b508051620000d5906003906020840190620003c5565b505060408051808201909152601a8082527f68747470733a2f2f646963652e7061727461766174652e636f6d00000000000060209092019182526200011f925060159190620003c5565b50600c80546001600160a01b031916331790556200013e82826200022e565b505066038d7ea4c68000600b55600f805460018181018355600083905260208083047f8d1108e10bcb7c27dddfc02ed9d693a074039d026cf4ea4240b40f7d581ac8029081018054601f95861661010090810a6006810260ff9182021990931692909217909255865494850190965591830401805492909316900a60148102930219169190911790556010805461011e61ffff1990911617905562000789565b600080546001600160a01b038381166001600160a01b0319831681178455604051919092169283917f8be0079c531659141344cd1fd0a4f28419497f9722a3daafe3b4186f6b6457e09190a35050565b6000546001600160a01b031633146200028d5760405162461bcd60e51b815260206004820181905260248201527f4f776e61626c653a2063616c6c6572206973206e6f7420746865206f776e6572604482015260640160405180910390fd5b60005b8251811015620002e657620002d1838281518110620002b357620002b36200075d565b602002602001015160116200034560201b620017951790919060201c565b80620002dd8162000733565b91505062000290565b5060005b815181101562000340576200032b8282815181106200030d576200030d6200075d565b602002602001015160116200036660201b6200179f1790919060201c565b80620003378162000733565b915050620002ea565b505050565b6200036281836000016200038360201b620017a81790919060201c565b5050565b6200036281836002016200038360201b620017a81790919060201c565b60018201546000908152602083815260409091208251620003a792840190620003c5565b50600182018054906000620003bc8362000733565b91905055505050565b828054620003d390620006f6565b90600052602060002090601f016020900481019282620003f7576000855562000442565b82601f106200041257805160ff191683800117855562000442565b8280016001018555821562000442579182015b828111156200044257825182559160200191906001019062000425565b506200045092915062000454565b5090565b5b8082111562000450576000815560010162000455565b6000601f83818401126200047e57600080fd5b825160206001600160401b03808311156200049d576200049d62000773565b8260051b620004ae838201620006c3565b84815283810190888501838a0186018b1015620004ca57600080fd5b600093505b868410156200058657805185811115620004e857600080fd5b8a01603f81018c13620004fa57600080fd5b868101518681111562000511576200051162000773565b62000524818b01601f19168901620006c3565b81815260408e818486010111156200053b57600080fd5b60005b838110156200055b578481018201518382018c01528a016200053e565b838111156200056d5760008b85850101525b50508552505060019390930192918501918501620004cf565b509998505050505050505050565b60008060408385031215620005a857600080fd5b82516001600160401b0380821115620005c057600080fd5b620005ce868387016200046b565b93506020850151915080821115620005e557600080fd5b50620005f4858286016200046b565b9150509250929050565b6e2837b63ca234b1b2903220b838103b60891b81526000600f6000845481600182811c9150808316806200063357607f831692505b60208084108214156200065457634e487b7160e01b86526022600452602486fd5b8180156200066b57600181146200068157620006b4565b60ff1986168a890152848a0188019650620006b4565b60008b81526020902060005b86811015620006aa5781548c82018b01529085019083016200068d565b505087858b010196505b50949998505050505050505050565b604051601f8201601f191681016001600160401b0381118282101715620006ee57620006ee62000773565b604052919050565b600181811c908216806200070b57607f821691505b602082108114156200072d57634e487b7160e01b600052602260045260246000fd5b50919050565b60006000198214156200075657634e487b7160e01b600052601160045260246000fd5b5060010190565b634e487b7160e01b600052603260045260246000fd5b634e487b7160e01b600052604160045260246000fd5b613db480620007996000396000f3fe6080604052600436106102195760003560e01c806370a082311161011d578063be7e50a8116100b0578063d4dd562e1161007f578063e1dc076111610064578063e1dc076114610622578063e985e9c514610653578063f2fde38b1461069c57600080fd5b8063d4dd562e146105d0578063dc2c19891461060257600080fd5b8063be7e50a81461055a578063c6ead8af1461057a578063c85718c414610590578063c87b56dd146105b057600080fd5b806395d89b41116100ec57806395d89b41146104e3578063a22cb465146104f8578063b0d8b51f14610518578063b88d4fde1461053a57600080fd5b806370a0823114610470578063715018a61461049057806386ce316b146104a55780638da5cb5b146104c557600080fd5b80632848f6e4116101b057806342842e0e1161017f5780636352211e116101645780636352211e1461040d5780636618196c1461042d5780636de9f32b1461045a57600080fd5b806342842e0e146103cd57806355f804b3146103ed57600080fd5b80632848f6e4146103525780632f745c5914610372578063360dd460146103a55780633d71e80b146103c557600080fd5b80630b2cbe61116101ec5780630b2cbe61146102cf578063156221b4146102ef57806318160ddd1461030f57806323b872dd1461033257600080fd5b806301ffc9a71461021e57806306fdde0314610253578063081812fc14610275578063095ea7b3146102ad575b600080fd5b34801561022a57600080fd5b5061023e610239366004613690565b6106bc565b60405190151581526020015b60405180910390f35b34801561025f57600080fd5b50610268610759565b60405161024a9190613ae5565b34801561028157600080fd5b506102956102903660046137c0565b6107eb565b6040516001600160a01b03909116815260200161024a565b3480156102b957600080fd5b506102cd6102c8366004613600565b610885565b005b3480156102db57600080fd5b506102cd6102ea366004613820565b6109b7565b3480156102fb57600080fd5b506102cd61030a3660046134b6565b610a3e565b34801561031b57600080fd5b50610324610aba565b60405190815260200161024a565b34801561033e57600080fd5b506102cd61034d36600461350c565b610ad1565b34801561035e57600080fd5b506102cd61036d366004613805565b610b58565b34801561037e57600080fd5b5061039261038d366004613600565b610c0b565b60405161ffff909116815260200161024a565b3480156103b157600080fd5b506103246103c036600461373c565b610ce0565b610324610d54565b3480156103d957600080fd5b506102cd6103e836600461350c565b610ea3565b3480156103f957600080fd5b506102cd6104083660046136ca565b610ebe565b34801561041957600080fd5b506102956104283660046137c0565b610f24565b34801561043957600080fd5b5061044d6104483660046134b6565b610faf565b60405161024a9190613a65565b34801561046657600080fd5b5061032460095481565b34801561047c57600080fd5b5061032461048b3660046134b6565b611043565b34801561049c57600080fd5b506102cd6110dd565b3480156104b157600080fd5b506103246104c03660046134b6565b611143565b3480156104d157600080fd5b506000546001600160a01b0316610295565b3480156104ef57600080fd5b506102686111e9565b34801561050457600080fd5b506102cd6105133660046135cd565b6111f8565b34801561052457600080fd5b5061052d611207565b60405161024a9190613aad565b34801561054657600080fd5b506102cd61055536600461354d565b6112ac565b34801561056657600080fd5b50610324610575366004613805565b61133a565b34801561058657600080fd5b50610324600a5481565b34801561059c57600080fd5b506102cd6105ab3660046137c0565b611426565b3480156105bc57600080fd5b506102686105cb3660046137c0565b611485565b3480156105dc57600080fd5b506105f06105eb3660046137d9565b611520565b60405160ff909116815260200161024a565b34801561060e57600080fd5b506102cd61061d36600461362c565b61159e565b34801561062e57600080fd5b5061064261063d3660046137c0565b61168f565b60405161024a959493929190613af8565b34801561065f57600080fd5b5061023e61066e3660046134d3565b6001600160a01b03918216600090815260076020908152604080832093909416825291909152205460ff1690565b3480156106a857600080fd5b506102cd6106b73660046134b6565b6116b3565b60006001600160e01b031982167f80ac58cd00000000000000000000000000000000000000000000000000000000148061071f57506001600160e01b031982167f5b5e139f00000000000000000000000000000000000000000000000000000000145b8061075357507f01ffc9a7000000000000000000000000000000000000000000000000000000006001600160e01b03198316145b92915050565b60606002805461076890613c3f565b80601f016020809104026020016040519081016040528092919081815260200182805461079490613c3f565b80156107e15780601f106107b6576101008083540402835291602001916107e1565b820191906000526020600020905b8154815290600101906020018083116107c457829003601f168201915b5050505050905090565b6000818152600460205260408120546001600160a01b03166108695760405162461bcd60e51b815260206004820152602c60248201527f4552433732313a20617070726f76656420717565727920666f72206e6f6e657860448201526b34b9ba32b73a103a37b5b2b760a11b60648201526084015b60405180910390fd5b506000908152600660205260409020546001600160a01b031690565b600061089082610f24565b9050806001600160a01b0316836001600160a01b0316141561091a5760405162461bcd60e51b815260206004820152602160248201527f4552433732313a20617070726f76616c20746f2063757272656e74206f776e6560448201527f72000000000000000000000000000000000000000000000000000000000000006064820152608401610860565b336001600160a01b03821614806109365750610936813361066e565b6109a85760405162461bcd60e51b815260206004820152603860248201527f4552433732313a20617070726f76652063616c6c6572206973206e6f74206f7760448201527f6e6572206e6f7220617070726f76656420666f7220616c6c00000000000000006064820152608401610860565b6109b283836117e6565b505050565b6000546001600160a01b03163314610a115760405162461bcd60e51b815260206004820181905260248201527f4f776e61626c653a2063616c6c6572206973206e6f7420746865206f776e65726044820152606401610860565b60005b8260ff168160ff1610156109b257610a2b82611854565b5080610a3681613c8f565b915050610a14565b6000546001600160a01b03163314610a985760405162461bcd60e51b815260206004820181905260248201527f4f776e61626c653a2063616c6c6572206973206e6f7420746865206f776e65726044820152606401610860565b600c80546001600160a01b0319166001600160a01b0392909216919091179055565b6000600a54600954610acc9190613bfc565b905090565b610adb3382611860565b610b4d5760405162461bcd60e51b815260206004820152603160248201527f4552433732313a207472616e736665722063616c6c6572206973206e6f74206f60448201527f776e6572206e6f7220617070726f7665640000000000000000000000000000006064820152608401610860565b6109b2838383611957565b6000546001600160a01b03163314610bb25760405162461bcd60e51b815260206004820181905260248201527f4f776e61626c653a2063616c6c6572206973206e6f7420746865206f776e65726044820152606401610860565b600f8054600181018255600091909152602081047f8d1108e10bcb7c27dddfc02ed9d693a074039d026cf4ea4240b40f7d581ac80201805460ff938416601f9093166101000a9283029390920219909116919091179055565b6000610c1683611043565b8210610c8a5760405162461bcd60e51b815260206004820152603160248201527f45524337323153696d706c65456e756d657261626c653a206f776e657220696e60448201527f646578206f7574206f6620626f756e64730000000000000000000000000000006064820152608401610860565b6001600160a01b0383166000908152600860205260409020805483908110610cb457610cb4613d27565b90600052602060002090601091828204019190066002029054906101000a900461ffff16905092915050565b600080546001600160a01b03163314610d3b5760405162461bcd60e51b815260206004820181905260248201527f4f776e61626c653a2063616c6c6572206973206e6f7420746865206f776e65726044820152606401610860565b610d488686868686611b2f565b90505b95945050505050565b6000610d60600161133a565b341015610daf5760405162461bcd60e51b815260206004820152600f60248201527f6e6f7420656e6f756768206361736800000000000000000000000000000000006044820152606401610860565b610dbb60036001613b81565b600b54610dc89034613bbe565b610dd29190613caf565b905060005b81811015610dfb57610de833611854565b5080610df381613c74565b915050610dd7565b50600c546040516000916001600160a01b03169034908381818185875af1925050503d8060008114610e49576040519150601f19603f3d011682016040523d82523d6000602084013e610e4e565b606091505b5050905080610e9f5760405162461bcd60e51b815260206004820152601a60248201527f4661696c656420746f20666f7277617264207061796d656e742e0000000000006044820152606401610860565b5090565b6109b2838383604051806020016040528060008152506112ac565b6000546001600160a01b03163314610f185760405162461bcd60e51b815260206004820181905260248201527f4f776e61626c653a2063616c6c6572206973206e6f7420746865206f776e65726044820152606401610860565b6109b260158383613280565b6000818152600460205260408120546001600160a01b0316806107535760405162461bcd60e51b815260206004820152602960248201527f4552433732313a206f776e657220717565727920666f72206e6f6e657869737460448201527f656e7420746f6b656e00000000000000000000000000000000000000000000006064820152608401610860565b6001600160a01b03811660009081526008602090815260409182902080548351818402810184019094528084526060939283018282801561103757602002820191906000526020600020906000905b82829054906101000a900461ffff1661ffff1681526020019060020190602082600101049283019260010382029150808411610ffe5790505b50505050509050919050565b60006001600160a01b0382166110c15760405162461bcd60e51b815260206004820152602a60248201527f4552433732313a2062616c616e636520717565727920666f7220746865207a6560448201527f726f2061646472657373000000000000000000000000000000000000000000006064820152608401610860565b506001600160a01b031660009081526005602052604090205490565b6000546001600160a01b031633146111375760405162461bcd60e51b815260206004820181905260248201527f4f776e61626c653a2063616c6c6572206973206e6f7420746865206f776e65726044820152606401610860565b6111416000611b63565b565b600080546001600160a01b0316331461119e5760405162461bcd60e51b815260206004820181905260248201527f4f776e61626c653a2063616c6c6572206973206e6f7420746865206f776e65726044820152606401610860565b60006111a9600d5490565b905060006111b8601183611bb3565b9050600080806111c9600e86611bf4565b9250925092506111dc848484848b611b2f565b955050505050505b919050565b60606003805461076890613c3f565b611203338383611d2f565b5050565b6060600061121433611043565b905060008167ffffffffffffffff81111561123157611231613d3d565b60405190808252806020026020018201604052801561125a578160200160208202803683370190505b50905060005b828110156112a5576112723382610c0b565b61ffff1682828151811061128857611288613d27565b60209081029190910101528061129d81613c74565b915050611260565b5092915050565b6112b63383611860565b6113285760405162461bcd60e51b815260206004820152603160248201527f4552433732313a207472616e736665722063616c6c6572206973206e6f74206f60448201527f776e6572206e6f7220617070726f7665640000000000000000000000000000006064820152608401610860565b61133484848484611dfe565b50505050565b600060018260ff1610156113905760405162461bcd60e51b815260206004820152601060248201527f4e6f7420656e6f75676820646963652e000000000000000000000000000000006044820152606401610860565b60038260ff1611156113e45760405162461bcd60e51b815260206004820152600e60248201527f546f6f206d616e7920646963652e0000000000000000000000000000000000006044820152606401610860565b506000805b8260ff168110156114205780600b546114029190613bbe565b61140c9083613b81565b91508061141881613c74565b9150506113e9565b50919050565b6000546001600160a01b031633146114805760405162461bcd60e51b815260206004820181905260248201527f4f776e61626c653a2063616c6c6572206973206e6f7420746865206f776e65726044820152606401610860565b600b55565b6000818152600460205260409020546060906001600160a01b03166114ec5760405162461bcd60e51b815260206004820152601160248201527f6e6f6e6578697374656e7420746f6b656e0000000000000000000000000000006044820152606401610860565b60156114f9600e84611e7c565b60405160200161150a92919061393d565b6040516020818303038152906040529050919050565b600061152b83610f24565b6001600160a01b0316336001600160a01b03161461158b5760405162461bcd60e51b815260206004820152600a60248201527f4e6f7420796f7572732e000000000000000000000000000000000000000000006044820152606401610860565b611597600e8484611f20565b9392505050565b6000546001600160a01b031633146115f85760405162461bcd60e51b815260206004820181905260248201527f4f776e61626c653a2063616c6c6572206973206e6f7420746865206f776e65726044820152606401610860565b60005b82518110156116435761163183828151811061161957611619613d27565b6020026020010151601161179590919063ffffffff16565b8061163b81613c74565b9150506115fb565b5060005b81518110156109b25761167d82828151811061166557611665613d27565b6020026020010151601161179f90919063ffffffff16565b8061168781613c74565b915050611647565b606060008180826116a1600e87611fbf565b939a9299509097509550909350915050565b6000546001600160a01b0316331461170d5760405162461bcd60e51b815260206004820181905260248201527f4f776e61626c653a2063616c6c6572206973206e6f7420746865206f776e65726044820152606401610860565b6001600160a01b0381166117895760405162461bcd60e51b815260206004820152602660248201527f4f776e61626c653a206e6577206f776e657220697320746865207a65726f206160448201527f64647265737300000000000000000000000000000000000000000000000000006064820152608401610860565b61179281611b63565b50565b61120382826117a8565b61120360028301825b600182015460009081526020838152604090912082516117ca92840190613300565b506001820180549060006117dd83613c74565b91905055505050565b600081815260066020526040902080546001600160a01b0319166001600160a01b038416908117909155819061181b82610f24565b6001600160a01b03167f8c5be1e5ebec7d5bd14f71427d1e84f3dd0314c0f7b2291e5b200ac8c7c3b92560405160405180910390a45050565b6000806111a9600d5490565b6000818152600460205260408120546001600160a01b03166118d95760405162461bcd60e51b815260206004820152602c60248201527f4552433732313a206f70657261746f7220717565727920666f72206e6f6e657860448201526b34b9ba32b73a103a37b5b2b760a11b6064820152608401610860565b60006118e483610f24565b9050806001600160a01b0316846001600160a01b0316148061191f5750836001600160a01b0316611914846107eb565b6001600160a01b0316145b8061194f57506001600160a01b0380821660009081526007602090815260408083209388168352929052205460ff165b949350505050565b826001600160a01b031661196a82610f24565b6001600160a01b0316146119e65760405162461bcd60e51b815260206004820152602560248201527f4552433732313a207472616e736665722066726f6d20696e636f72726563742060448201527f6f776e65720000000000000000000000000000000000000000000000000000006064820152608401610860565b6001600160a01b038216611a615760405162461bcd60e51b8152602060048201526024808201527f4552433732313a207472616e7366657220746f20746865207a65726f2061646460448201527f72657373000000000000000000000000000000000000000000000000000000006064820152608401610860565b611a6c8383836120c2565b611a776000826117e6565b6001600160a01b0383166000908152600560205260408120805460019290611aa0908490613bfc565b90915550506001600160a01b0382166000908152600560205260408120805460019290611ace908490613b81565b909155505060008181526004602052604080822080546001600160a01b0319166001600160a01b0386811691821790925591518493918716917fddf252ad1be2c89b69c2b068fc378daa952ba7f163c4a11628f55a4df523b3ef91a4505050565b6000611b3a600d5490565b9050611b4b600e8288888888612185565b611b55828261232b565b610d4b600d80546001019055565b600080546001600160a01b038381166001600160a01b0319831681178455604051919092169283917f8be0079c531659141344cd1fd0a4f28419497f9722a3daafe3b4186f6b6457e09190a35050565b6060611bbf8383612345565b611bcc6002850184612345565b604051602001611bdd929190613901565b604051602081830303815290604052905092915050565b6001820180546040805144602080830191909152428284015233606083015261ffff86166080808401919091528351808403909101815260a090920190925280519101206000928392839260ff16611c4c9190613caf565b81548110611c5c57611c5c613d27565b600091825260209182902091810490910154600287015460ff601f9093166101000a90910482169450611c9191166001613b99565b611ce7611ca160ff861687613bd2565b60408051446020820152429181019190915233606082015261ffff8216608082015260009060a00160408051601f19818403018152919052805160209091012092915050565b611cf19190613cc3565b6002860154909250611d0c90610100900460ff166001613b99565b611d1c611ca160ff851687613bd2565b611d269190613cc3565b90509250925092565b816001600160a01b0316836001600160a01b03161415611d915760405162461bcd60e51b815260206004820152601960248201527f4552433732313a20617070726f766520746f2063616c6c6572000000000000006044820152606401610860565b6001600160a01b03838116600081815260076020908152604080832094871680845294825291829020805460ff191686151590811790915591519182527f17307eab39ab6107e8899845ad3d59bd9653f200f220920489ca2b5937696c31910160405180910390a3505050565b611e09848484611957565b611e15848484846123ff565b6113345760405162461bcd60e51b815260206004820152603260248201527f4552433732313a207472616e7366657220746f206e6f6e20455243373231526560448201527131b2b4bb32b91034b6b83632b6b2b73a32b960711b6064820152608401610860565b600081815260208390526040812060010154606091908190611ea590610100900460ff16612557565b6000868152602088905260409020600181015492945090925090611ecb9060ff16612d29565b60008681526020889052604090206001015484908490611ef39062010000900460ff16612d29565b604051602001611f07959493929190613962565b6040516020818303038152906040529250505092915050565b600082815260208490526040812060010154819060ff16600a14611f45576001611f48565b60005b6000858152602087815260408083206001015481514481850152428184015233606082015261ffff89166080808301919091528351808303909101815260a090910190925281519190920120929350909160ff808516921690611fab9190613caf565b611fb59190613b81565b9695505050505050565b6000818152602083905260408120600101546060919082908190839081908190611ff090610100900460ff16612557565b60008a815260208c905260409020600181015481549395509193509160ff80831692869286926201000090920490911690859061202c90613c3f565b80601f016020809104026020016040519081016040528092919081815260200182805461205890613c3f565b80156120a55780601f1061207a576101008083540402835291602001916120a5565b820191906000526020600020905b81548152906001019060200180831161208857829003601f168201915b505050505094509650965096509650965050509295509295909350565b826001600160a01b0316826001600160a01b0316146109b2576001600160a01b038216600090815260086020908152604082208054600181018255908352912060108204018054600f9092166002026101000a61ffff81810219909316928416029190911790556001600160a01b03831615612147576121428382612e5b565b61215d565b6009805490600061215783613c74565b91905055505b6001600160a01b0382166109b257600a805490600061217b83613c74565b9190505550505050565b600286015460ff90811690831611156121e05760405162461bcd60e51b815260206004820152601360248201527f496e76616c696420636f6c6f72207468656d65000000000000000000000000006044820152606401610860565b600286015460ff610100909104811690821611156122405760405162461bcd60e51b815260206004820152601360248201527f496e76616c696420636f6c6f72207468656d65000000000000000000000000006044820152606401610860565b61224a868461303f565b6122965760405162461bcd60e51b815260206004820152601760248201527f496e76616c6964206e756d626572206f662073696465730000000000000000006044820152606401610860565b6040805160808101825285815260ff80861660208084019190915285821683850152908416606083015260008881528982529290922081518051929391926122e19284920190613300565b50602082015160019091018054604084015160609094015160ff908116620100000262ff0000199582166101000261ffff1990931691909416171792909216179055505050505050565b6112038282604051806020016040528060008152506130b4565b60008083600101541161239a5760405162461bcd60e51b815260206004820152600860248201527f6e6f20776f7264730000000000000000000000000000000000000000000000006044820152606401610860565b6001830154604080514460208201524291810191909152336060820152608081018490526000919060a0016040516020818303038152906040528051906020012060001c6123e89190613caf565b600090815260208590526040902091505092915050565b60006001600160a01b0384163b1561254c57604051630a85bd0160e11b81526001600160a01b0385169063150b7a0290612443903390899088908890600401613a33565b602060405180830381600087803b15801561245d57600080fd5b505af192505050801561248d575060408051601f3d908101601f1916820190925261248a918101906136ad565b60015b612532573d8080156124bb576040519150601f19603f3d011682016040523d82523d6000602084013e6124c0565b606091505b50805161252a5760405162461bcd60e51b815260206004820152603260248201527f4552433732313a207472616e7366657220746f206e6f6e20455243373231526560448201527131b2b4bb32b91034b6b83632b6b2b73a32b960711b6064820152608401610860565b805181602001fd5b6001600160e01b031916630a85bd0160e11b14905061194f565b506001949350505050565b606080601e8360ff1611156125ae5760405162461bcd60e51b815260206004820152601260248201527f7374796c65206f7574206f662072616e676500000000000000000000000000006044820152606401610860565b60038360ff16116125f3575060408051808201909152600681527f303031333465000000000000000000000000000000000000000000000000000060208201526129ce565b60048360ff161015801561260b575060078360ff1611155b1561264a575060408051808201909152600681527f316131613161000000000000000000000000000000000000000000000000000060208201526129ce565b60088360ff16101580156126625750600a8360ff1611155b1561268a575060408051808201909152600681526533333333333360d11b60208201526129ce565b600b8360ff16101580156126a25750600d8360ff1611155b156126e1575060408051808201909152600681527f353535373533000000000000000000000000000000000000000000000000000060208201526129ce565b600e8360ff16101580156126f9575060108360ff1611155b15612738575060408051808201909152600681527f386231306430000000000000000000000000000000000000000000000000000060208201526129ce565b60118360ff1610158015612750575060138360ff1611155b1561278f575060408051808201909152600681527f656364633139000000000000000000000000000000000000000000000000000060208201526129ce565b8260ff16601414806127a457508260ff166015145b156127e3575060408051808201909152600681527f343038666464000000000000000000000000000000000000000000000000000060208201526129ce565b8260ff16601614806127f857508260ff166017145b15612837575060408051808201909152600681527f333137613236000000000000000000000000000000000000000000000000000060208201526129ce565b8260ff166018148061284c57508260ff166019145b1561288b575060408051808201909152600681527f663231643061000000000000000000000000000000000000000000000000000060208201526129ce565b8260ff16601a14156128d1575060408051808201909152600681527f383866663434000000000000000000000000000000000000000000000000000060208201526129ce565b8260ff16601b1415612917575060408051808201909152600681527f643039633130000000000000000000000000000000000000000000000000000060208201526129ce565b8260ff16601c141561295d575060408051808201909152600681527f656635346461000000000000000000000000000000000000000000000000000060208201526129ce565b8260ff16601d14156129a3575060408051808201909152600681527f346530303030000000000000000000000000000000000000000000000000000060208201526129ce565b8260ff16601e14156129ce575060408051808201909152600681526518181818333360d11b60208201525b60ff831615806129e157508260ff166004145b806129ef57508260ff166008145b806129fd57508260ff166011145b80612a0b57508260ff16601a145b15612a36576040518060400160405280600681526020016518181818333360d11b8152509150915091565b8260ff1660011480612a4b57508260ff166005145b15612a8d576040518060400160405280600681526020017f30306666303000000000000000000000000000000000000000000000000000008152509150915091565b8260ff1660021480612aa257508260ff166006145b80612ab057508260ff16600a145b80612abe57508260ff166013145b80612acc57508260ff16601c145b15612b0e576040518060400160405280600681526020017f66663030303000000000000000000000000000000000000000000000000000008152509150915091565b8260ff1660031480612b2357508260ff166007145b80612b3157508260ff16600d145b80612b3f57508260ff166010145b80612b4d57508260ff166015145b80612b5b57508260ff166017145b80612b6957508260ff166019145b80612b7757508260ff16601d145b80612b8557508260ff16601e145b15612bb0576040518060400160405280600681526020016533333333333360d11b8152509150915091565b8260ff1660091480612bc557508260ff16600b145b80612bd357508260ff16600e145b80612be157508260ff166012145b80612bef57508260ff166014145b80612bfd57508260ff16601b145b15612c3f576040518060400160405280600681526020017f30303030303000000000000000000000000000000000000000000000000000008152509150915091565b8260ff16600c1480612c5457508260ff166016145b15612c96576040518060400160405280600681526020017f38386666383800000000000000000000000000000000000000000000000000008152509150915091565b8260ff16600f1415612cdf576040518060400160405280600681526020017f36366363363600000000000000000000000000000000000000000000000000008152509150915091565b8260ff1660181415612d24576040518060400160405280600681526020017f383830303030000000000000000000000000000000000000000000000000000081525091505b915091565b606081612d6957505060408051808201909152600181527f3000000000000000000000000000000000000000000000000000000000000000602082015290565b8160005b8115612d935780612d7d81613c74565b9150612d8c9050600a83613bbe565b9150612d6d565b60008167ffffffffffffffff811115612dae57612dae613d3d565b6040519080825280601f01601f191660200182016040528015612dd8576020820181803683370190505b5090505b841561194f57612ded600183613bfc565b9150612dfa600a86613caf565b612e05906030613b81565b60f81b818381518110612e1a57612e1a613d27565b60200101907effffffffffffffffffffffffffffffffffffffffffffffffffffffffffffff1916908160001a905350612e54600a86613bbe565b9450612ddc565b6001600160a01b0382166000908152600860205260408120805490915b8254811015612eda578361ffff16838281548110612e9857612e98613d27565b60009182526020909120601082040154600f9091166002026101000a900461ffff161415612ec857809150612eda565b80612ed281613c74565b915050612e78565b5081548110612f515760405162461bcd60e51b815260206004820152603760248201527f45524337323153696d706c65456e756d657261626c653a20746f6b656e49642060448201527f6e6f7420666f756e6420696e206f776e6572206c6973740000000000000000006064820152608401610860565b805b8254612f6190600190613bfc565b811015612ffc5782612f74826001613b81565b81548110612f8457612f84613d27565b90600052602060002090601091828204019190066002029054906101000a900461ffff16838281548110612fba57612fba613d27565b90600052602060002090601091828204019190066002026101000a81548161ffff021916908361ffff1602179055508080612ff490613c74565b915050612f53565b508180548061300d5761300d613d11565b600082815260209020601060001990920191820401805461ffff6002600f8516026101000a0219169055905550505050565b6000805b60018401548110156130aa578260ff1684600101828154811061306857613068613d27565b60009182526020918290209181049091015460ff601f9092166101000a9004161415613098576001915050610753565b806130a281613c74565b915050613043565b5060009392505050565b6130be8383613132565b6130cb60008484846123ff565b6109b25760405162461bcd60e51b815260206004820152603260248201527f4552433732313a207472616e7366657220746f206e6f6e20455243373231526560448201527131b2b4bb32b91034b6b83632b6b2b73a32b960711b6064820152608401610860565b6001600160a01b0382166131885760405162461bcd60e51b815260206004820181905260248201527f4552433732313a206d696e7420746f20746865207a65726f20616464726573736044820152606401610860565b6000818152600460205260409020546001600160a01b0316156131ed5760405162461bcd60e51b815260206004820152601c60248201527f4552433732313a20746f6b656e20616c7265616479206d696e746564000000006044820152606401610860565b6131f9600083836120c2565b6001600160a01b0382166000908152600560205260408120805460019290613222908490613b81565b909155505060008181526004602052604080822080546001600160a01b0319166001600160a01b03861690811790915590518392907fddf252ad1be2c89b69c2b068fc378daa952ba7f163c4a11628f55a4df523b3ef908290a45050565b82805461328c90613c3f565b90600052602060002090601f0160209004810192826132ae57600085556132f4565b82601f106132c75782800160ff198235161785556132f4565b828001600101855582156132f4579182015b828111156132f45782358255916020019190600101906132d9565b50610e9f929150613374565b82805461330c90613c3f565b90600052602060002090601f01602090048101928261332e57600085556132f4565b82601f1061334757805160ff19168380011785556132f4565b828001600101855582156132f4579182015b828111156132f4578251825591602001919060010190613359565b5b80821115610e9f5760008155600101613375565b600067ffffffffffffffff8311156133a3576133a3613d3d565b6133b6601f8401601f1916602001613b50565b90508281528383830111156133ca57600080fd5b828260208301376000602084830101529392505050565b600082601f8301126133f257600080fd5b8135602067ffffffffffffffff8083111561340f5761340f613d3d565b8260051b61341e838201613b50565b8481528381019087850183890186018a101561343957600080fd5b60009350835b8781101561347657813586811115613455578586fd5b6134638c89838e0101613485565b855250928601929086019060010161343f565b50909998505050505050505050565b600082601f83011261349657600080fd5b61159783833560208501613389565b803560ff811681146111e457600080fd5b6000602082840312156134c857600080fd5b813561159781613d53565b600080604083850312156134e657600080fd5b82356134f181613d53565b9150602083013561350181613d53565b809150509250929050565b60008060006060848603121561352157600080fd5b833561352c81613d53565b9250602084013561353c81613d53565b929592945050506040919091013590565b6000806000806080858703121561356357600080fd5b843561356e81613d53565b9350602085013561357e81613d53565b925060408501359150606085013567ffffffffffffffff8111156135a157600080fd5b8501601f810187136135b257600080fd5b6135c187823560208401613389565b91505092959194509250565b600080604083850312156135e057600080fd5b82356135eb81613d53565b91506020830135801515811461350157600080fd5b6000806040838503121561361357600080fd5b823561361e81613d53565b946020939093013593505050565b6000806040838503121561363f57600080fd5b823567ffffffffffffffff8082111561365757600080fd5b613663868387016133e1565b9350602085013591508082111561367957600080fd5b50613686858286016133e1565b9150509250929050565b6000602082840312156136a257600080fd5b813561159781613d68565b6000602082840312156136bf57600080fd5b815161159781613d68565b600080602083850312156136dd57600080fd5b823567ffffffffffffffff808211156136f557600080fd5b818501915085601f83011261370957600080fd5b81358181111561371857600080fd5b86602082850101111561372a57600080fd5b60209290920196919550909350505050565b600080600080600060a0868803121561375457600080fd5b853567ffffffffffffffff81111561376b57600080fd5b61377788828901613485565b955050613786602087016134a5565b9350613794604087016134a5565b92506137a2606087016134a5565b915060808601356137b281613d53565b809150509295509295909350565b6000602082840312156137d257600080fd5b5035919050565b600080604083850312156137ec57600080fd5b82359150602083013561ffff8116811461350157600080fd5b60006020828403121561381757600080fd5b611597826134a5565b6000806040838503121561383357600080fd5b6134f1836134a5565b60008151808452613854816020860160208601613c13565b601f01601f19169290920160200192915050565b8054600090600181811c908083168061388257607f831692505b60208084108214156138a457634e487b7160e01b600052602260045260246000fd5b8180156138b857600181146138c9576138f5565b60ff198616895284890196506138f5565b876000528160002060005b868110156138ed5781548b8201529085019083016138d4565b505084890196505b50505050505092915050565b600061390d8285613868565b7f20000000000000000000000000000000000000000000000000000000000000008152610d4b6001820185613868565b60006139498285613868565b8351613959818360208801613c13565b01949350505050565b7f2f6d657461646174610000000000000000000000000000000000000000000000815260007f2f000000000000000000000000000000000000000000000000000000000000008060098401526139bb600a840189613868565b81815287516139d1816001840160208c01613c13565b016001810182905286516139ec816002840160208b01613c13565b01600281018290528551613a07816003840160208a01613c13565b016003810191909152835190613a24826004830160208801613c13565b01600401979650505050505050565b60006001600160a01b03808716835280861660208401525083604083015260806060830152610d48608083018461383c565b6020808252825182820181905260009190848201906040850190845b81811015613aa157835161ffff1683529284019291840191600101613a81565b50909695505050505050565b6020808252825182820181905260009190848201906040850190845b81811015613aa157835183529284019291840191600101613ac9565b602081526000611597602083018461383c565b60a081526000613b0b60a083018861383c565b60ff871660208401528281036040840152613b26818761383c565b90508281036060840152613b3a818661383c565b91505060ff831660808301529695505050505050565b604051601f8201601f1916810167ffffffffffffffff81118282101715613b7957613b79613d3d565b604052919050565b60008219821115613b9457613b94613ce5565b500190565b600060ff821660ff84168060ff03821115613bb657613bb6613ce5565b019392505050565b600082613bcd57613bcd613cfb565b500490565b600061ffff80831681851681830481118215151615613bf357613bf3613ce5565b02949350505050565b600082821015613c0e57613c0e613ce5565b500390565b60005b83811015613c2e578181015183820152602001613c16565b838111156113345750506000910152565b600181811c90821680613c5357607f821691505b6020821081141561142057634e487b7160e01b600052602260045260246000fd5b6000600019821415613c8857613c88613ce5565b5060010190565b600060ff821660ff811415613ca657613ca6613ce5565b60010192915050565b600082613cbe57613cbe613cfb565b500690565b600060ff831680613cd657613cd6613cfb565b8060ff84160691505092915050565b634e487b7160e01b600052601160045260246000fd5b634e487b7160e01b600052601260045260246000fd5b634e487b7160e01b600052603160045260246000fd5b634e487b7160e01b600052603260045260246000fd5b634e487b7160e01b600052604160045260246000fd5b6001600160a01b038116811461179257600080fd5b6001600160e01b03198116811461179257600080fdfea264697066735822122060da3139010fcb33fc0e45442d40f219e153bf07921e36893695750c27674e9364736f6c63430008060033",
  "linkReferences": {},
  "deployedLinkReferences": {}
}